{"abi":[{"type":"constructor","inputs":[{"name":"authority","type":"address","internalType":"address"},{"name":"initialHolder","type":"address","internalType":"address"},{"name":"initialSupply","type":"uint256","internalType":"uint256"}],"stateMutability":"nonpayable"},{"type":"function","name":"CLOCK_MODE","inputs":[],"outputs":[{"name":"","type":"string","internalType":"string"}],"stateMutability":"pure"},{"type":"function","name":"DOMAIN_SEPARATOR","inputs":[],"outputs":[{"name":"","type":"bytes32","internalType":"bytes32"}],"stateMutability":"view"},{"type":"function","name":"allowance","inputs":[{"name":"owner","type":"address","internalType":"address"},{"name":"spender","type":"address","internalType":"address"}],"outputs":[{"name":"","type":"uint256","internalType":"uint256"}],"stateMutability":"view"},{"type":"function","name":"approve","inputs":[{"name":"spender","type":"address","internalType":"address"},{"name":"value","type":"uint256","internalType":"uint256"}],"outputs":[{"name":"","type":"bool","internalType":"bool"}],"stateMutability":"nonpayable"},{"type":"function","name":"authority","inputs":[],"outputs":[{"name":"","type":"address","internalType":"address"}],"stateMutability":"view"},{"type":"function","name":"balanceOf","inputs":[{"name":"account","type":"address","internalType":"address"}],"outputs":[{"name":"","type":"uint256","internalType":"uint256"}],"stateMutability":"view"},{"type":"function","name":"checkpoints","inputs":[{"name":"account","type":"address","internalType":"address"},{"name":"pos","type":"uint32","internalType":"uint32"}],"outputs":[{"name":"","type":"tuple","internalType":"struct Checkpoints.Checkpoint208","components":[{"name":"_key","type":"uint48","internalType":"uint48"},{"name":"_value","type":"uint208","internalType":"uint208"}]}],"stateMutability":"view"},{"type":"function","name":"clock","inputs":[],"outputs":[{"name":"","type":"uint48","internalType":"uint48"}],"stateMutability":"view"},{"type":"function","name":"decimals","inputs":[],"outputs":[{"name":"","type":"uint8","internalType":"uint8"}],"stateMutability":"view"},{"type":"function","name":"delegate","inputs":[{"name":"delegatee","type":"address","internalType":"address"}],"outputs":[],"stateMutability":"nonpayable"},{"type":"function","name":"delegateBySig","inputs":[{"name":"delegatee","type":"address","internalType":"address"},{"name":"nonce","type":"uint256","internalType":"uint256"},{"name":"expiry","type":"uint256","internalType":"uint256"},{"name":"v","type":"uint8","internalType":"uint8"},{"name":"r","type":"bytes32","internalType":"bytes32"},{"name":"s","type":"bytes32","internalType":"bytes32"}],"outputs":[],"stateMutability":"nonpayable"},{"type":"function","name":"delegates","inputs":[{"name":"account","type":"address","internalType":"address"}],"outputs":[{"name":"","type":"address","internalType":"address"}],"stateMutability":"view"},{"type":"function","name":"eip712Domain","inputs":[],"outputs":[{"name":"fields","type":"bytes1","internalType":"bytes1"},{"name":"name","type":"string","internalType":"string"},{"name":"version","type":"string","internalType":"string"},{"name":"chainId","type":"uint256","internalType":"uint256"},{"name":"verifyingContract","type":"address","internalType":"address"},{"name":"salt","type":"bytes32","internalType":"bytes32"},{"name":"extensions","type":"uint256[]","internalType":"uint256[]"}],"stateMutability":"view"},{"type":"function","name":"getPastTotalSupply","inputs":[{"name":"timepoint","type":"uint256","internalType":"uint256"}],"outputs":[{"name":"","type":"uint256","internalType":"uint256"}],"stateMutability":"view"},{"type":"function","name":"getPastVotes","inputs":[{"name":"account","type":"address","internalType":"address"},{"name":"timepoint","type":"uint256","internalType":"uint256"}],"outputs":[{"name":"","type":"uint256","internalType":"uint256"}],"stateMutability":"view"},{"type":"function","name":"getVotes","inputs":[{"name":"account","type":"address","internalType":"address"}],"outputs":[{"name":"","type":"uint256","internalType":"uint256"}],"stateMutability":"view"},{"type":"function","name":"isConsumingScheduledOp","inputs":[],"outputs":[{"name":"","type":"bytes4","internalType":"bytes4"}],"stateMutability":"view"},{"type":"function","name":"mint","inputs":[{"name":"to","type":"address","internalType":"address"},{"name":"amount","type":"uint256","internalType":"uint256"}],"outputs":[],"stateMutability":"nonpayable"},{"type":"function","name":"name","inputs":[],"outputs":[{"name":"","type":"string","internalType":"string"}],"stateMutability":"view"},{"type":"function","name":"nonces","inputs":[{"name":"owner","type":"address","internalType":"address"}],"outputs":[{"name":"","type":"uint256","internalType":"uint256"}],"stateMutability":"view"},{"type":"function","name":"numCheckpoints","inputs":[{"name":"account","type":"address","internalType":"address"}],"outputs":[{"name":"","type":"uint32","internalType":"uint32"}],"stateMutability":"view"},{"type":"function","name":"permit","inputs":[{"name":"owner","type":"address","internalType":"address"},{"name":"spender","type":"address","internalType":"address"},{"name":"value","type":"uint256","internalType":"uint256"},{"name":"deadline","type":"uint256","internalType":"uint256"},{"name":"v","type":"uint8","internalType":"uint8"},{"name":"r","type":"bytes32","internalType":"bytes32"},{"name":"s","type":"bytes32","internalType":"bytes32"}],"outputs":[],"stateMutability":"nonpayable"},{"type":"function","name":"setAuthority","inputs":[{"name":"newAuthority","type":"address","internalType":"address"}],"outputs":[],"stateMutability":"nonpayable"},{"type":"function","name":"symbol","inputs":[],"outputs":[{"name":"","type":"string","internalType":"string"}],"stateMutability":"view"},{"type":"function","name":"totalSupply","inputs":[],"outputs":[{"name":"","type":"uint256","internalType":"uint256"}],"stateMutability":"view"},{"type":"function","name":"transfer","inputs":[{"name":"to","type":"address","internalType":"address"},{"name":"value","type":"uint256","internalType":"uint256"}],"outputs":[{"name":"","type":"bool","internalType":"bool"}],"stateMutability":"nonpayable"},{"type":"function","name":"transferFrom","inputs":[{"name":"from","type":"address","internalType":"address"},{"name":"to","type":"address","internalType":"address"},{"name":"value","type":"uint256","internalType":"uint256"}],"outputs":[{"name":"","type":"bool","internalType":"bool"}],"stateMutability":"nonpayable"},{"type":"event","name":"Approval","inputs":[{"name":"owner","type":"address","indexed":true,"internalType":"address"},{"name":"spender","type":"address","indexed":true,"internalType":"address"},{"name":"value","type":"uint256","indexed":false,"internalType":"uint256"}],"anonymous":false},{"type":"event","name":"AuthorityUpdated","inputs":[{"name":"authority","type":"address","indexed":false,"internalType":"address"}],"anonymous":false},{"type":"event","name":"DelegateChanged","inputs":[{"name":"delegator","type":"address","indexed":true,"internalType":"address"},{"name":"fromDelegate","type":"address","indexed":true,"internalType":"address"},{"name":"toDelegate","type":"address","indexed":true,"internalType":"address"}],"anonymous":false},{"type":"event","name":"DelegateVotesChanged","inputs":[{"name":"delegate","type":"address","indexed":true,"internalType":"address"},{"name":"previousVotes","type":"uint256","indexed":false,"internalType":"uint256"},{"name":"newVotes","type":"uint256","indexed":false,"internalType":"uint256"}],"anonymous":false},{"type":"event","name":"EIP712DomainChanged","inputs":[],"anonymous":false},{"type":"event","name":"Transfer","inputs":[{"name":"from","type":"address","indexed":true,"internalType":"address"},{"name":"to","type":"address","indexed":true,"internalType":"address"},{"name":"value","type":"uint256","indexed":false,"internalType":"uint256"}],"anonymous":false},{"type":"error","name":"AccessManagedInvalidAuthority","inputs":[{"name":"authority","type":"address","internalType":"address"}]},{"type":"error","name":"AccessManagedRequiredDelay","inputs":[{"name":"caller","type":"address","internalType":"address"},{"name":"delay","type":"uint32","internalType":"uint32"}]},{"type":"error","name":"AccessManagedUnauthorized","inputs":[{"name":"caller","type":"address","internalType":"address"}]},{"type":"error","name":"CheckpointUnorderedInsertion","inputs":[]},{"type":"error","name":"ECDSAInvalidSignature","inputs":[]},{"type":"error","name":"ECDSAInvalidSignatureLength","inputs":[{"name":"length","type":"uint256","internalType":"uint256"}]},{"type":"error","name":"ECDSAInvalidSignatureS","inputs":[{"name":"s","type":"bytes32","internalType":"bytes32"}]},{"type":"error","name":"ERC20ExceededSafeSupply","inputs":[{"name":"increasedSupply","type":"uint256","internalType":"uint256"},{"name":"cap","type":"uint256","internalType":"uint256"}]},{"type":"error","name":"ERC20InsufficientAllowance","inputs":[{"name":"spender","type":"address","internalType":"address"},{"name":"allowance","type":"uint256","internalType":"uint256"},{"name":"needed","type":"uint256","internalType":"uint256"}]},{"type":"error","name":"ERC20InsufficientBalance","inputs":[{"name":"sender","type":"address","internalType":"address"},{"name":"balance","type":"uint256","internalType":"uint256"},{"name":"needed","type":"uint256","internalType":"uint256"}]},{"type":"error","name":"ERC20InvalidApprover","inputs":[{"name":"approver","type":"address","internalType":"address"}]},{"type":"error","name":"ERC20InvalidReceiver","inputs":[{"name":"receiver","type":"address","internalType":"address"}]},{"type":"error","name":"ERC20InvalidSender","inputs":[{"name":"sender","type":"address","internalType":"address"}]},{"type":"error","name":"ERC20InvalidSpender","inputs":[{"name":"spender","type":"address","internalType":"address"}]},{"type":"error","name":"ERC2612ExpiredSignature","inputs":[{"name":"deadline","type":"uint256","internalType":"uint256"}]},{"type":"error","name":"ERC2612InvalidSigner","inputs":[{"name":"signer","type":"address","internalType":"address"},{"name":"owner","type":"address","internalType":"address"}]},{"type":"error","name":"ERC5805FutureLookup","inputs":[{"name":"timepoint","type":"uint256","internalType":"uint256"},{"name":"clock","type":"uint48","internalType":"uint48"}]},{"type":"error","name":"ERC6372InconsistentClock","inputs":[]},{"type":"error","name":"InvalidAccountNonce","inputs":[{"name":"account","type":"address","internalType":"address"},{"name":"currentNonce","type":"uint256","internalType":"uint256"}]},{"type":"error","name":"InvalidShortString","inputs":[]},{"type":"error","name":"SafeCastOverflowedUintDowncast","inputs":[{"name":"bits","type":"uint8","internalType":"uint8"},{"name":"value","type":"uint256","internalType":"uint256"}]},{"type":"error","name":"StringTooLong","inputs":[{"name":"str","type":"string","internalType":"string"}]},{"type":"error","name":"VotesExpiredSignature","inputs":[{"name":"expiry","type":"uint256","internalType":"uint256"}]}],"bytecode":{"object":"0x61016060405234610097576060612bcb803803809161001d826100af565b61016039126100975761004661003161010f565b61003c610180610126565b6101a05191610193565b604051611e959081610cf68239608051816111a7015260a05181611264015260c05181611171015260e051816111f60152610100518161121c0152610120518161088e015261014051816108b70152f35b5f80fd5b634e487b7160e01b5f52604160045260245ffd5b610160601f91909101601f19168101906001600160401b038211908210176100d657604052565b61009b565b601f909101601f19168101906001600160401b038211908210176100d657604052565b6040519061010d6040836100db565b565b61016051906001600160a01b038216820361009757565b51906001600160a01b038216820361009757565b604051906101496040836100db565b60058252565b6040519061015e6040836100db565b60018252565b604051906101736040836100db565b60118252704475616c564d20476f7665726e616e636560781b6020830152565b92919061019e610164565b936101a7610164565b946101b061013a565b9064323b23a7ab60d91b60208301526101c761014f565b906020820192603160f81b8452885160018060401b0381116100d6576101f7816101f2600354610321565b610359565b6020601f821160011461029057916102358261023d93610280999897969561010d9d9e5f92610285575b50508160011b915f199060031b1c19161790565b6003556103f8565b610246816105c9565b61012052610253826106be565b610140526020815191012060e052519020610100524660a0526102746107b0565b6080523060c05261057d565b6104d1565b015190505f80610221565b60035f52601f1982169a7fc2575a0e9e593c00f959f8c92f12db2869c3395a3b0502d05e2516446f71f85b9b5f5b81811061030957509261010d9b9c6102809998979695936001938361023d97106102f1575b505050811b016003556103f8565b01515f1960f88460031b161c191690555f80806102e3565b838301518e556001909d019c602093840193016102be565b90600182811c9216801561034f575b602083101461033b57565b634e487b7160e01b5f52602260045260245ffd5b91607f1691610330565b601f8111610365575050565b60035f5260205f20906020601f840160051c8301931061039f575b601f0160051c01905b818110610394575050565b5f8155600101610389565b9091508190610380565b601f82116103b657505050565b5f5260205f20906020601f840160051c830193106103ee575b601f0160051c01905b8181106103e3575050565b5f81556001016103d8565b90915081906103cf565b80519091906001600160401b0381116100d6576104218161041a600454610321565b60046103a9565b602092601f821160011461045557610450929382915f926102855750508160011b915f199060031b1c19161790565b600455565b60045f52601f198216937f8a35acfbc15ff81a39ae7d344fd709f28e8600b4aa8c65c6b64bfe7fe36bd19b915f5b8681106104b957508360019596106104a1575b505050811b01600455565b01515f1960f88460031b161c191690555f8080610496565b91926020600181928685015181550194019201610483565b91906001600160a01b038316801561056a57600254828101809111610565576002555f81815260208181526040808320805486019055518481527fddf252ad1be2c89b69c2b068fc378daa952ba7f163c4a11628f55a4df523b3ef9190a3600254926001600160d01b0380851161054e575061010d92935061088d565b630e58ae9360e11b5f52600485905260245260445ffd5b610879565b63ec442f0560e01b5f525f60045260245ffd5b600b80546001600160a01b0319166001600160a01b0390921691821790556040519081527f2f658b440c35314f52658ea8a740e05b284cdc84dc9ae01e891f21b8933e7cad90602090a1565b908151602081105f146105e45750906105e19061080e565b90565b6001600160401b0381116100d65761060881610601600554610321565b60056103a9565b602092601f821160011461063f57610637929382915f926102855750508160011b915f199060031b1c19161790565b60055560ff90565b60055f52601f198216937f036b6384b5eca791c62761152d0c79bb0604c104a5fb6f4eb0703f3154bb3db0915f5b8681106106a6575083600195961061068e575b505050811b0160055560ff90565b01515f1960f88460031b161c191690555f8080610680565b9192602060018192868501518155019401920161066d565b908151602081105f146106d65750906105e19061080e565b6001600160401b0381116100d6576106fa816106f3600654610321565b60066103a9565b602092601f821160011461073157610729929382915f926102855750508160011b915f199060031b1c19161790565b60065560ff90565b60065f52601f198216937ff652222313e28459528d920b65115c16c04f3efc82aaedc97be59f3f377c0d3f915f5b8681106107985750836001959610610780575b505050811b0160065560ff90565b01515f1960f88460031b161c191690555f8080610772565b9192602060018192868501518155019401920161075f565b60e051610100516040519060208201927f8b73c3c69bb8fe3d512ecc4cf759cc79239f7b179b0ffacaa9a75d522b39400f8452604083015260608201524660808201523060a082015260a0815261080860c0826100db565b51902090565b601f81511161083957602081519101516020821061082a571790565b5f198260200360031b1b161790565b604460209160405192839163305a27a960e01b83528160048401528051918291826024860152018484015e5f828201840152601f01601f19168101030190fd5b634e487b7160e01b5f52601160045260245ffd5b9061089781610966565b600a548061093f57505f905b6001600160d01b0391821690821601929083116105655761010d926108d2904265ffffffffffff16600a610c1f565b50506001600160a01b03168015610927575b60086020527f5eff886ea0ce6ca488a3d6e336d6c0f75f46d19b42c06ce5ee98e42c96d256c7545f9182526040909120546001600160a01b039081169116610aae565b61093861093383610966565b610997565b50506108e4565b805f1981011161056557600a5f525f516020612b8b5f395f51905f52015460301c906108a3565b6001600160d01b038111610980576001600160d01b031690565b6306dfcc6560e41b5f5260d060045260245260445ffd5b600a54806109d457505f905b6001600160d01b0390811691811691909103908111610565576109d0904265ffffffffffff16600a610c1f565b9091565b805f1981011161056557600a5f525f516020612b8b5f395f51905f52015460301c906109a3565b90815480155f14610a3657505f905b6001600160d01b0390811691811691909103908111610565576109d09165ffffffffffff421690610c1f565b805f19810111610565575f83815260209020015f19015460301c90610a0a565b90815480155f14610a8e57505f905b6001600160d01b0391821690821601908111610565576109d09165ffffffffffff421690610c1f565b805f19810111610565575f83815260209020015f19015460301c90610a65565b6001600160a01b03808316939291908116908185141580610ba1575b610ad6575b5050505050565b81610b47575b505082610aeb575b8080610acf565b6001600160a01b03165f9081526009602052604090205f516020612bab5f395f51905f5291610b2491610b1e9091610966565b90610a56565b604080516001600160d01b039384168152919092166020820152a25f8080610ae4565b6001600160a01b03165f9081526009602052604090205f516020612bab5f395f51905f5290610b7f90610b7986610966565b906109fb565b604080516001600160d01b039384168152919092166020820152a25f80610adc565b50831515610aca565b5f1981019190821161056557565b908154680100000000000000008110156100d65760018101808455811015610c0b575f9283526020928390208251929093015160301b65ffffffffffff191665ffffffffffff9290921691909117910155565b634e487b7160e01b5f52603260045260245ffd5b80549293928015610ccb57610c36610c4191610baa565b825f5260205f200190565b8054603081901c9365ffffffffffff91821692918116808411610cbc57879303610c885750610c8492509065ffffffffffff82549181199060301b169116179055565b9190565b915050610c8491610ca8610c9a6100fe565b65ffffffffffff9093168352565b6001600160d01b0386166020830152610bb8565b632520601d60e01b5f5260045ffd5b5090610cf091610cdc610c9a6100fe565b6001600160d01b0385166020830152610bb8565b5f919056fe60806040526004361015610011575f80fd5b5f3560e01c806306fdde03146101c4578063095ea7b3146101bf57806318160ddd146101ba57806323b872dd146101b5578063313ce567146101b05780633644e515146101ab5780633a46b1a8146101a657806340c10f19146101a15780634bf5d7e91461019c578063587cde1e146101975780635c19a95c146101925780636fcfff451461018d57806370a08231146101885780637a9e5e4b146101835780637ecebe001461017e57806384b0196e146101795780638e539e8c146101745780638fb360371461016f57806391ddadf41461016a57806395d89b41146101655780639ab24eb014610160578063a9059cbb1461015b578063bf7e214f14610156578063c3cda52014610151578063d505accf1461014c578063dd62ed3e146101475763f1127ed814610142575f80fd5b610e7c565b610e25565b610d01565b610bf2565b610baa565b610b84565b610b3d565b610a98565b610a76565b610a32565b610973565b610876565b61083e565b61078f565b610757565b6106f5565b6106d3565b610693565b610643565b610525565b610440565b61041e565b610403565b610363565b610346565b610315565b61020f565b5f9103126101d357565b5f80fd5b805180835260209291819084018484015e5f828201840152601f01601f1916010190565b90602061020c9281815201906101d7565b90565b346101d3575f3660031901126101d3576040515f60035461022f81610f42565b80845290600181169081156102c55750600114610267575b6102638361025781850382611030565b604051918291826101fb565b0390f35b60035f9081527fc2575a0e9e593c00f959f8c92f12db2869c3395a3b0502d05e2516446f71f85b939250905b8082106102ab57509091508101602001610257610247565b919260018160209254838588010152019101909291610293565b60ff191660208086019190915291151560051b840190910191506102579050610247565b600435906001600160a01b03821682036101d357565b602435906001600160a01b03821682036101d357565b346101d35760403660031901126101d35761033b6103316102e9565b6024359033611502565b602060405160018152f35b346101d3575f3660031901126101d3576020600254604051908152f35b346101d35760603660031901126101d35761037c6102e9565b6103846102ff565b6001600160a01b0382165f9081526001602090815260408083203384529091529020549160443591905f1984106103cc575b6103c0935061107b565b60405160018152602090f35b8284106103e8576103e3836103c09503338361159d565b6103b6565b8284637dc7a0d960e11b5f523360045260245260445260645ffd5b346101d3575f3660031901126101d357602060405160128152f35b346101d3575f3660031901126101d357602061043861116e565b604051908152f35b346101d35760403660031901126101d3576104596102e9565b6001600160a01b03165f90815260096020526040902061047a60243561128a565b8154905f8291600584116104cd575b61049493508461175f565b90816104b257505060205f5b6040516001600160d01b039091168152f35b6104bd6020926112e1565b905f52815f20015460301c6104a0565b91926104d881611601565b81039081116105205761049493855f5265ffffffffffff8260205f2001541665ffffffffffff8516105f1461050e575091610489565b92915061051a906112ef565b90610489565b610f2e565b346101d35760403660031901126101d35761053e6102e9565b602435600b5461056d906001600160a01b031661056361055d366112fd565b9061130b565b90309033906117b8565b9015610580575b5061057e91611383565b005b63ffffffff161561063157600b805460ff60a01b1916600160a01b179055600b546105c1906105b5906001600160a01b031681565b6001600160a01b031690565b91823b156101d3575f6040518094634a63ebf760e11b82528183816105ea363360048401611341565b03925af192831561062c5761057e93610612575b50600b805460ff60a01b1916905591610574565b806106205f61062693611030565b806101c9565b5f6105fe565b611378565b62d1953b60e31b5f523360045260245ffd5b346101d3575f3660031901126101d357610263604051610664604082611030565b600e81526d06d6f64653d74696d657374616d760941b60208201526040519182916020835260208301906101d7565b346101d35760203660031901126101d3576001600160a01b036106b46102e9565b165f526008602052602060018060a01b0360405f205416604051908152f35b346101d35760203660031901126101d35761057e6106ef6102e9565b33611422565b346101d35760203660031901126101d3576001600160a01b036107166102e9565b165f52600960205260405f205463ffffffff81116107405760405163ffffffff9091168152602090f35b6306dfcc6560e41b5f52602060045260245260445ffd5b346101d35760203660031901126101d35760206104386107756102e9565b6001600160a01b03165f9081526020819052604090205490565b346101d35760203660031901126101d3576107a86102e9565b600b546001600160a01b038116330361082c57813b1561080b576001600160a01b0319166001600160a01b03909116908117600b556040519081527f2f658b440c35314f52658ea8a740e05b284cdc84dc9ae01e891f21b8933e7cad90602090a1005b506361798f2f60e11b5f9081526001600160a01b0391909116600452602490fd5b62d1953b60e31b5f523360045260245ffd5b346101d35760203660031901126101d3576001600160a01b0361085f6102e9565b165f526007602052602060405f2054604051908152f35b346101d3575f3660031901126101d35761091a6108b27f0000000000000000000000000000000000000000000000000000000000000000611956565b6108db7f00000000000000000000000000000000000000000000000000000000000000006119b6565b60206040516108ea8282611030565b5f81528161092881830194601f198301368737604051978897600f60f81b895260e0858a015260e08901906101d7565b9087820360408901526101d7565b914660608701523060808701525f60a087015285830360c087015251918281520192915f5b82811061095c57505050500390f35b83518552869550938101939281019260010161094d565b346101d35760203660031901126101d35761098f60043561128a565b600a54905f8291600584116109de575b6109ab9350600a61175f565b806109bc57506040515f8152602090f35b6109d96109ca6020926112e1565b600a5f52825f20015460301c90565b6104a0565b91926109e981611601565b8103908111610520576109ab93600a5f5265ffffffffffff8260205f2001541665ffffffffffff8516105f14610a2057509161099f565b929150610a2c906112ef565b9061099f565b346101d3575f3660031901126101d357600b5460a01c60ff1615610a6e576020638fb3603760e01b5b6040516001600160e01b03199091168152f35b60205f610a5b565b346101d3575f3660031901126101d357602060405165ffffffffffff42168152f35b346101d3575f3660031901126101d3576040515f600454610ab881610f42565b80845290600181169081156102c55750600114610adf576102638361025781850382611030565b60045f9081527f8a35acfbc15ff81a39ae7d344fd709f28e8600b4aa8c65c6b64bfe7fe36bd19b939250905b808210610b2357509091508101602001610257610247565b919260018160209254838588010152019101909291610b0b565b346101d35760203660031901126101d3576001600160a01b03610b5e6102e9565b165f526009602052602060018060d01b03610b7b60405f206114a3565b16604051908152f35b346101d35760403660031901126101d35761033b610ba06102e9565b602435903361107b565b346101d3575f3660031901126101d357600b546040516001600160a01b039091168152602090f35b6064359060ff821682036101d357565b6084359060ff821682036101d357565b346101d35760c03660031901126101d357610c0b6102e9565b60243590604435610c1a610bd2565b6084359060a43592804211610cef5791610c9f9391610c91610c969460405160208101917fe48329057bfd03d55e49b547132e39cffd9c1820ad7b9d4c5307691425d15adf835260018060a01b038a1660408301528a6060830152608082015260808152610c8960a082611030565b5190206114cd565b6119ed565b90929192611a8d565b6001600160a01b0381165f908152600760205260409020805460018101909155809303610cd05761057e9250611422565b90506301d4b62360e61b5f5260018060a01b031660045260245260445ffd5b632341d78760e11b5f5260045260245ffd5b346101d35760e03660031901126101d357610d1a6102e9565b610d226102ff565b6044359060643592610d32610be2565b60a43560c43590864211610e12576001600160a01b0384165f908152600760205260409020805460018101909155610dd79390610dd2909860405160208101917f6e71edae12b1b97f4d1f60370fef10105fa2faae0126114a169c64845d6126c9835260018060a01b0389169b8c604084015260018060a01b038b1660608401528b608084015260a083015260c082015260c08152610c8960e082611030565b6114f3565b936001600160a01b03851603610df15761057e9350611502565b6325c0072360e11b5f526001600160a01b038085166004521660245260445ffd5b8663313c898160e11b5f5260045260245ffd5b346101d35760403660031901126101d3576020610e73610e436102e9565b610e4b6102ff565b6001600160a01b039182165f9081526001855260408082209290931681526020919091522090565b54604051908152f35b346101d35760403660031901126101d357610e956102e9565b6024359063ffffffff821682036101d35761026391610ee491610eb6611063565b50610ebf611063565b506001600160a01b03165f908152600960205260409020610ede611063565b50611b09565b5060405190610ef28261100f565b5465ffffffffffff811680835260309190911c60209283019081526040805192835290516001600160d01b031692820192909252918291820190565b634e487b7160e01b5f52601160045260245ffd5b90600182811c92168015610f70575b6020831014610f5c57565b634e487b7160e01b5f52602260045260245ffd5b91607f1691610f51565b5f9291815491610f8983610f42565b8083529260018116908115610fde5750600114610fa557505050565b5f9081526020812093945091925b838310610fc4575060209250010190565b600181602092949394548385870101520191019190610fb3565b915050602093945060ff929192191683830152151560051b010190565b634e487b7160e01b5f52604160045260245ffd5b6040810190811067ffffffffffffffff82111761102b57604052565b610ffb565b90601f8019910116810190811067ffffffffffffffff82111761102b57604052565b60405190611061604083611030565b565b604051906110708261100f565b5f6020838281520152565b6001600160a01b03811693929190841561115b576001600160a01b0382168015611148576001600160a01b0382165f9081526020819052604090205484811061112d5795846110619697036110df8460018060a01b03165f525f60205260405f2090565b556001600160a01b0384165f908152602081815260409182902080548801905590518681527fddf252ad1be2c89b69c2b068fc378daa952ba7f163c4a11628f55a4df523b3ef9190a3611cb8565b84908763391434e360e21b5f5260045260245260445260645ffd5b63ec442f0560e01b5f525f60045260245ffd5b634b637e8f60e11b5f525f60045260245ffd5b307f00000000000000000000000000000000000000000000000000000000000000006001600160a01b03161480611261575b156111c9577f000000000000000000000000000000000000000000000000000000000000000090565b60405160208101907f8b73c3c69bb8fe3d512ecc4cf759cc79239f7b179b0ffacaa9a75d522b39400f82527f000000000000000000000000000000000000000000000000000000000000000060408201527f000000000000000000000000000000000000000000000000000000000000000060608201524660808201523060a082015260a0815261125b60c082611030565b51902090565b507f000000000000000000000000000000000000000000000000000000000000000046146111a0565b65ffffffffffff4216808210156112cb575065ffffffffffff81116112b45765ffffffffffff1690565b6306dfcc6560e41b5f52603060045260245260445ffd5b90637669fc0f60e11b5f5260045260245260445ffd5b5f1981019190821161052057565b906001820180921161052057565b6004116101d3575f90600490565b356001600160e01b0319811692919060048210611326575050565b6001600160e01b031960049290920360031b82901b16169150565b6001600160a01b0390911681526040602082018190528101829052606091805f848401375f828201840152601f01601f1916010190565b6040513d5f823e3d90fd5b91906001600160a01b038316801561114857600254828101809111610520576002556001600160a01b0384165f90815260208181526040808320805486019055518481527fddf252ad1be2c89b69c2b068fc378daa952ba7f163c4a11628f55a4df523b3ef9190a36002546001600160d01b03939084811161140b5750611061929350611c35565b8490630e58ae9360e11b5f5260045260245260445ffd5b6001600160a01b038181165f81815260086020526040812080548685166001600160a01b0319821681179092556110619694169461149d9390928691907f3134e8a2e6d97e929a7e54011ea5485d7d196dd5f0ba4d4ef95803e8e3fc257f9080a46001600160a01b03165f9081526020819052604090205490565b91611834565b805490816114b15750505f90565b815f19810111610520575f525f199060205f2001015460301c90565b6042906114d861116e565b906040519161190160f01b8352600283015260228201522090565b9161020c9391610c96936119ed565b6001600160a01b031690811561158a576001600160a01b038116928315611577578061156a7f8c5be1e5ebec7d5bd14f71427d1e84f3dd0314c0f7b2291e5b200ac8c7c3b92593855f52600160205260405f209060018060a01b03165f5260205260405f2090565b55604051908152602090a3565b634a1406b160e11b5f525f60045260245ffd5b63e602df0560e01b5f525f60045260245ffd5b6001600160a01b031690811561158a576001600160a01b03811615611577576115e0915f52600160205260405f209060018060a01b03165f5260205260405f2090565b55565b81156115ed570490565b634e487b7160e01b5f52601260045260245ffd5b600181111561020c57806001600160801b821015611722575b6116c86116be6116b46116aa6116a06116966116856116cf9760048a600160401b6116d49c1015611715575b640100000000811015611708575b620100008110156116fb575b6101008110156116ee575b60108110156116e1575b10156116d9575b60030260011c90565b61168f818b6115e3565b0160011c90565b61168f818a6115e3565b61168f81896115e3565b61168f81886115e3565b61168f81876115e3565b61168f81866115e3565b80936115e3565b821190565b900390565b60011b61167c565b60041c9160021b91611675565b60081c9160041b9161166b565b60101c9160081b91611660565b60201c9160101b91611654565b60401c9160201b91611646565b50506116d46116cf6116c86116be6116b46116aa6116a06116966116856117498a60801c90565b9850600160401b975061161a9650505050505050565b905b83831061176e5750505090565b90919280841860011c8185160190835f5265ffffffffffff8260205f2001541665ffffffffffff8416105f146117a85750925b9190611761565b93506117b3906112ef565b6117a1565b6040805163b700961360e01b602082019081526001600160a01b0394851660248301529390941660448501526001600160e01b031990941660648085019190915283525f94859490939092859291611811608482611030565b8380528360205251915afa61182257565b9150505f51906020518060201c150290565b6001600160a01b0380831693929190811690818514158061194d575b61185c575b5050505050565b816118e0575b505082611871575b8080611855565b6001600160a01b03165f9081526009602052604090207fdec2bacdd2f05b59de34da9b523dff8be42e5e38e818c82fdb0bae774387a724916118bd916118b79091611b32565b90611b9a565b604080516001600160d01b039384168152919092166020820152a25f808061186a565b6001600160a01b03165f9081526009602052604090207fdec2bacdd2f05b59de34da9b523dff8be42e5e38e818c82fdb0bae774387a7249061192b9061192586611b32565b90611b63565b604080516001600160d01b039384168152919092166020820152a25f80611862565b50831515611850565b60ff811461199c5760ff811690601f821161198d576040519161197a604084611030565b6020808452838101919036833783525290565b632cd44ac360e21b5f5260045ffd5b5060405161020c816119af816005610f7a565b0382611030565b60ff81146119da5760ff811690601f821161198d576040519161197a604084611030565b5060405161020c816119af816006610f7a565b91907f7fffffffffffffffffffffffffffffff5d576e7357a4501ddfe92f46681b20a08411611a64579160209360809260ff5f9560405194855216868401526040830152606082015282805260015afa1561062c575f516001600160a01b03811615611a5a57905f905f90565b505f906001905f90565b5050505f9160039190565b60041115611a7957565b634e487b7160e01b5f52602160045260245ffd5b611a9681611a6f565b80611a9f575050565b611aa881611a6f565b60018103611abf5763f645eedf60e01b5f5260045ffd5b611ac881611a6f565b60028103611ae3575063fce698f760e01b5f5260045260245ffd5b80611aef600392611a6f565b14611af75750565b6335e2f38360e21b5f5260045260245ffd5b8054821015611b1e575f5260205f2001905f90565b634e487b7160e01b5f52603260045260245ffd5b6001600160d01b038111611b4c576001600160d01b031690565b6306dfcc6560e41b5f5260d060045260245260445ffd5b90611b6d826114a3565b6001600160d01b039182169082160390811161052057611b969165ffffffffffff421690611d89565b9091565b90611ba4826114a3565b6001600160d01b039182169082160190811161052057611b969165ffffffffffff421690611d89565b611bd7600a6114a3565b6001600160d01b039182169082160190811161052057611b96904265ffffffffffff16600a611d89565b611c0b600a6114a3565b6001600160d01b039182169082160390811161052057611b96904265ffffffffffff16600a611d89565b9061106191611c4b611c4683611b32565b611bcd565b50506001600160a01b03168015611ca0575b60086020527f5eff886ea0ce6ca488a3d6e336d6c0f75f46d19b42c06ce5ee98e42c96d256c7545f9182526040909120546001600160a01b039081169116611834565b611cb1611cac83611b32565b611c01565b5050611c5d565b61106192916001600160a01b03909116908115611d1b575b6001600160a01b0316908115611d08575b5f90815260086020526040808220549282529020546001600160a01b039081169116611834565b611d14611cac84611b32565b5050611ce1565b611d27611c4684611b32565b5050611cd0565b8054600160401b81101561102b57611d4b91600182018155611b09565b611d7657815160209092015160301b65ffffffffffff191665ffffffffffff92909216919091179055565b634e487b7160e01b5f525f60045260245ffd5b80549293928015611e3557611da0611dab916112e1565b825f5260205f200190565b8054603081901c9365ffffffffffff91821692918116808411611e2657879303611df25750611dee92509065ffffffffffff82549181199060301b169116179055565b9190565b915050611dee91611e12611e04611052565b65ffffffffffff9093168352565b6001600160d01b0386166020830152611d2e565b632520601d60e01b5f5260045ffd5b5090611e5a91611e46611e04611052565b6001600160d01b0385166020830152611d2e565b5f919056fea2646970667358221220d4e9a7d909488fc65b7bcfc33492b6d43f6deab1a9ec7a6ebf532c635e74843164736f6c634300081c0033c65a7bb8d6351c1cf70c95a316cc6a92839c986682d98bc35f958f4883f9d2a7dec2bacdd2f05b59de34da9b523dff8be42e5e38e818c82fdb0bae774387a724","linkReferences":{}},"methodIdentifiers":{"CLOCK_MODE()":"4bf5d7e9","DOMAIN_SEPARATOR()":"3644e515","allowance(address,address)":"dd62ed3e","approve(address,uint256)":"095ea7b3","authority()":"bf7e214f","balanceOf(address)":"70a08231","checkpoints(address,uint32)":"f1127ed8","clock()":"91ddadf4","decimals()":"313ce567","delegate(address)":"5c19a95c","delegateBySig(address,uint256,uint256,uint8,bytes32,bytes32)":"c3cda520","delegates(address)":"587cde1e","eip712Domain()":"84b0196e","getPastTotalSupply(uint256)":"8e539e8c","getPastVotes(address,uint256)":"3a46b1a8","getVotes(address)":"9ab24eb0","isConsumingScheduledOp()":"8fb36037","mint(address,uint256)":"40c10f19","name()":"06fdde03","nonces(address)":"7ecebe00","numCheckpoints(address)":"6fcfff45","permit(address,address,uint256,uint256,uint8,bytes32,bytes32)":"d505accf","setAuthority(address)":"7a9e5e4b","symbol()":"95d89b41","totalSupply()":"18160ddd","transfer(address,uint256)":"a9059cbb","transferFrom(address,address,uint256)":"23b872dd"},"id":18}