{"abi":[{"type":"constructor","inputs":[{"name":"authority","type":"address","internalType":"address"},{"name":"marketRegistry_","type":"address","internalType":"contract IMarketVersionRegistry"}],"stateMutability":"nonpayable"},{"type":"function","name":"authority","inputs":[],"outputs":[{"name":"","type":"address","internalType":"address"}],"stateMutability":"view"},{"type":"function","name":"closeMigrationRoute","inputs":[{"name":"fromVersionId","type":"uint256","internalType":"uint256"},{"name":"toVersionId","type":"uint256","internalType":"uint256"}],"outputs":[],"stateMutability":"nonpayable"},{"type":"function","name":"isConsumingScheduledOp","inputs":[],"outputs":[{"name":"","type":"bytes4","internalType":"bytes4"}],"stateMutability":"view"},{"type":"function","name":"marketRegistry","inputs":[],"outputs":[{"name":"","type":"address","internalType":"contract IMarketVersionRegistry"}],"stateMutability":"view"},{"type":"function","name":"migrateBorrower","inputs":[{"name":"fromVersionId","type":"uint256","internalType":"uint256"},{"name":"toVersionId","type":"uint256","internalType":"uint256"}],"outputs":[],"stateMutability":"nonpayable"},{"type":"function","name":"migrateLiquidity","inputs":[{"name":"fromVersionId","type":"uint256","internalType":"uint256"},{"name":"toVersionId","type":"uint256","internalType":"uint256"},{"name":"shares","type":"uint256","internalType":"uint256"}],"outputs":[],"stateMutability":"nonpayable"},{"type":"function","name":"migrationRoutes","inputs":[{"name":"fromVersionId","type":"uint256","internalType":"uint256"},{"name":"toVersionId","type":"uint256","internalType":"uint256"}],"outputs":[{"name":"borrowerEnabled","type":"bool","internalType":"bool"},{"name":"liquidityEnabled","type":"bool","internalType":"bool"}],"stateMutability":"view"},{"type":"function","name":"openMigrationRoute","inputs":[{"name":"fromVersionId","type":"uint256","internalType":"uint256"},{"name":"toVersionId","type":"uint256","internalType":"uint256"},{"name":"borrowerEnabled","type":"bool","internalType":"bool"},{"name":"liquidityEnabled","type":"bool","internalType":"bool"}],"outputs":[],"stateMutability":"nonpayable"},{"type":"function","name":"setAuthority","inputs":[{"name":"newAuthority","type":"address","internalType":"address"}],"outputs":[],"stateMutability":"nonpayable"},{"type":"event","name":"AuthorityUpdated","inputs":[{"name":"authority","type":"address","indexed":false,"internalType":"address"}],"anonymous":false},{"type":"event","name":"BorrowerMigrated","inputs":[{"name":"fromVersionId","type":"uint256","indexed":true,"internalType":"uint256"},{"name":"toVersionId","type":"uint256","indexed":true,"internalType":"uint256"},{"name":"borrower","type":"address","indexed":true,"internalType":"address"}],"anonymous":false},{"type":"event","name":"LiquidityMigrated","inputs":[{"name":"fromVersionId","type":"uint256","indexed":true,"internalType":"uint256"},{"name":"toVersionId","type":"uint256","indexed":true,"internalType":"uint256"},{"name":"account","type":"address","indexed":true,"internalType":"address"},{"name":"shares","type":"uint256","indexed":false,"internalType":"uint256"}],"anonymous":false},{"type":"event","name":"MigrationRouteClosedEvent","inputs":[{"name":"fromVersionId","type":"uint256","indexed":true,"internalType":"uint256"},{"name":"toVersionId","type":"uint256","indexed":true,"internalType":"uint256"}],"anonymous":false},{"type":"event","name":"MigrationRouteOpened","inputs":[{"name":"fromVersionId","type":"uint256","indexed":true,"internalType":"uint256"},{"name":"toVersionId","type":"uint256","indexed":true,"internalType":"uint256"},{"name":"borrowerEnabled","type":"bool","indexed":false,"internalType":"bool"},{"name":"liquidityEnabled","type":"bool","indexed":false,"internalType":"bool"}],"anonymous":false},{"type":"error","name":"AccessManagedInvalidAuthority","inputs":[{"name":"authority","type":"address","internalType":"address"}]},{"type":"error","name":"AccessManagedRequiredDelay","inputs":[{"name":"caller","type":"address","internalType":"address"},{"name":"delay","type":"uint32","internalType":"uint32"}]},{"type":"error","name":"AccessManagedUnauthorized","inputs":[{"name":"caller","type":"address","internalType":"address"}]},{"type":"error","name":"InvalidMigrationRoute","inputs":[]},{"type":"error","name":"MigrationRouteClosed","inputs":[{"name":"fromVersionId","type":"uint256","internalType":"uint256"},{"name":"toVersionId","type":"uint256","internalType":"uint256"}]},{"type":"error","name":"SafeERC20FailedOperation","inputs":[{"name":"token","type":"address","internalType":"address"}]},{"type":"error","name":"UnsupportedAssetPair","inputs":[]}],"bytecode":{"object":"0x60a060405234801561000f575f5ffd5b5060405161127e38038061127e83398101604081905261002e916100b5565b816100388161004b565b506001600160a01b0316608052506100ed565b5f80546001600160a01b0319166001600160a01b0383169081179091556040519081527f2f658b440c35314f52658ea8a740e05b284cdc84dc9ae01e891f21b8933e7cad9060200160405180910390a150565b6001600160a01b03811681146100b2575f5ffd5b50565b5f5f604083850312156100c6575f5ffd5b82516100d18161009e565b60208401519092506100e28161009e565b809150509250929050565b60805161114f61012f5f395f818161017e0152818161021e015281816102d2015281816103670152818161057d0152818161063101526106c6015261114f5ff3fe608060405234801561000f575f5ffd5b5060043610610090575f3560e01c80637f133161116100635780637f133161146100e25780638fb3603714610134578063bf7e214f14610155578063ecb96fe614610179578063f9a7764d146101a0575f5ffd5b806329f498501461009457806341d010f9146100a95780636be980a4146100bc5780637a9e5e4b146100cf575b5f5ffd5b6100a76100a2366004610e3b565b6101b3565b005b6100a76100b7366004610e5b565b610519565b6100a76100ca366004610e98565b6108b2565b6100a76100dd366004610ef2565b610983565b6101186100f0366004610e3b565b600160209081525f928352604080842090915290825290205460ff8082169161010090041682565b6040805192151583529015156020830152015b60405180910390f35b61013c6109fb565b6040516001600160e01b0319909116815260200161012b565b5f546001600160a01b03165b6040516001600160a01b03909116815260200161012b565b6101617f000000000000000000000000000000000000000000000000000000000000000081565b6100a76101ae366004610e3b565b610a1d565b5f82815260016020908152604080832084845282529182902082518084019093525460ff80821615158085526101009092041615159183019190915261021b57604051632bbd66c160e11b815260048101849052602481018390526044015b60405180910390fd5b817f00000000000000000000000000000000000000000000000000000000000000006001600160a01b03166381e08f216040518163ffffffff1660e01b8152600401602060405180830381865afa158015610278573d5f5f3e3d5ffd5b505050506040513d601f19601f8201168201806040525081019061029c9190610f14565b146102ba57604051633914508b60e01b815260040160405180910390fd5b60405163b88da75960e01b8152600481018490525f907f00000000000000000000000000000000000000000000000000000000000000006001600160a01b03169063b88da7599060240161012060405180830381865afa158015610320573d5f5f3e3d5ffd5b505050506040513d601f19601f820116820180604052508101906103449190610f6c565b60405163b88da75960e01b8152600481018590529091505f906001600160a01b037f0000000000000000000000000000000000000000000000000000000000000000169063b88da7599060240161012060405180830381865afa1580156103ad573d5f5f3e3d5ffd5b505050506040513d601f19601f820116820180604052508101906103d19190610f6c565b90506103dd8282610a75565b8151815160405163d90ebf5360e01b81523360048201525f906001600160a01b0384169063d90ebf53906024016060604051808303815f875af1158015610426573d5f5f3e3d5ffd5b505050506040513d601f19601f8201168201806040525081019061044a9190611016565b805190915015610472578351815160a0870151610472926001600160a01b0390911691610ad6565b604080516360453af360e01b815233600482015282516024820152602083015160448201529082015160648201526001600160a01b038316906360453af3906084015f604051808303815f87803b1580156104cb575f5ffd5b505af11580156104dd573d5f5f3e3d5ffd5b50506040513392508991508a907f30f4b3fecb49a7a7805b523cc27473ec72070b54d1127a2ed3a8177e87b55d7c905f90a45050505050505050565b5f83815260016020908152604080832085845282529182902082518084019093525460ff8082161515845261010090910416151590820181905261057a57604051632bbd66c160e11b81526004810185905260248101849052604401610212565b827f00000000000000000000000000000000000000000000000000000000000000006001600160a01b03166381e08f216040518163ffffffff1660e01b8152600401602060405180830381865afa1580156105d7573d5f5f3e3d5ffd5b505050506040513d601f19601f820116820180604052508101906105fb9190610f14565b1461061957604051633914508b60e01b815260040160405180910390fd5b60405163b88da75960e01b8152600481018590525f907f00000000000000000000000000000000000000000000000000000000000000006001600160a01b03169063b88da7599060240161012060405180830381865afa15801561067f573d5f5f3e3d5ffd5b505050506040513d601f19601f820116820180604052508101906106a39190610f6c565b60405163b88da75960e01b8152600481018690529091505f906001600160a01b037f0000000000000000000000000000000000000000000000000000000000000000169063b88da7599060240161012060405180830381865afa15801561070c573d5f5f3e3d5ffd5b505050506040513d601f19601f820116820180604052508101906107309190610f6c565b905061073c8282610a75565b6020808301519082015161075b6001600160a01b038316333089610b55565b604051635d043b2960e11b815260048101879052306024820181905260448201525f906001600160a01b0384169063ba087652906064016020604051808303815f875af11580156107ae573d5f5f3e3d5ffd5b505050506040513d601f19601f820116820180604052508101906107d29190610f14565b602085015160c08701519192506107f3916001600160a01b03169083610ad6565b604051636e553f6560e01b8152600481018290523360248201526001600160a01b03831690636e553f65906044016020604051808303815f875af115801561083d573d5f5f3e3d5ffd5b505050506040513d601f19601f820116820180604052508101906108619190610f14565b50336001600160a01b0316888a7f6eaa5ea7e8aaf02f319c600bb325387235c3dddf7549329bd304181614b8ee288a60405161089f91815260200190565b60405180910390a4505050505050505050565b6108be335b5f36610b91565b8315806108c9575082155b806108d357508284145b156108f157604051633914508b60e01b815260040160405180910390fd5b60408051808201825283151580825283151560208084018281525f8a8152600183528681208a8252835286902094518554915161ffff1990921690151561ff001916176101009115159190910217909355835191825291810191909152849186917f36d679fac87fd265884075f78d562d4441ce384a6125943dc7ac8dde486788b0910160405180910390a350505050565b5f5433906001600160a01b031681146109b95760405162d1953b60e31b81526001600160a01b0382166004820152602401610212565b816001600160a01b03163b5f036109ee576040516361798f2f60e11b81526001600160a01b0383166004820152602401610212565b6109f782610c87565b5050565b5f8054600160a01b900460ff16610a1157505f90565b50638fb3603760e01b90565b610a26336108b7565b5f828152600160209081526040808320848452909152808220805461ffff1916905551829184917f198bc6642814ee8f39655fb5a118907fad38b1ec7281aae93c5e35b0e9ee73789190a35050565b8060a001516001600160a01b03168260a001516001600160a01b0316141580610ab857508060c001516001600160a01b03168260c001516001600160a01b031614155b156109f757604051639b065af960e01b815260040160405180910390fd5b610ae28383835f610cda565b610b5057610af383835f6001610cda565b610b1b57604051635274afe760e01b81526001600160a01b0384166004820152602401610212565b610b288383836001610cda565b610b5057604051635274afe760e01b81526001600160a01b0384166004820152602401610212565b505050565b610b63848484846001610d3c565b610b8b57604051635274afe760e01b81526001600160a01b0385166004820152602401610212565b50505050565b5f5f610bc4610ba75f546001600160a01b031690565b8630610bb660045f898b61107b565b610bbf916110a2565b610da9565b9150915081610c805763ffffffff811615610c5d575f805460ff60a01b198116600160a01b17909155604051634a63ebf760e11b81526001600160a01b03909116906394c7d7ee90610c1e908890889088906004016110da565b5f604051808303815f87803b158015610c35575f5ffd5b505af1158015610c47573d5f5f3e3d5ffd5b50505f805460ff60a01b1916905550610c809050565b60405162d1953b60e31b81526001600160a01b0386166004820152602401610212565b5050505050565b5f80546001600160a01b0319166001600160a01b0383169081179091556040519081527f2f658b440c35314f52658ea8a740e05b284cdc84dc9ae01e891f21b8933e7cad9060200160405180910390a150565b60405163095ea7b360e01b5f8181526001600160a01b038616600452602485905291602083604481808b5af1925060015f51148316610d30578383151615610d24573d5f823e3d81fd5b5f873b113d1516831692505b60405250949350505050565b6040516323b872dd60e01b5f8181526001600160a01b038781166004528616602452604485905291602083606481808c5af1925060015f51148316610d98578383151615610d8c573d5f823e3d81fd5b5f883b113d1516831692505b604052505f60605295945050505050565b6040516001600160a01b038085166024830152831660448201526001600160e01b0319821660648201525f908190819060840160408051601f19818403018152918152602080830180516001600160e01b031663b700961360e01b1781525f808052918290528351939450919290918a5afa15610e31575f516020805191945081901c150291505b5094509492505050565b5f5f60408385031215610e4c575f5ffd5b50508035926020909101359150565b5f5f5f60608486031215610e6d575f5ffd5b505081359360208301359350604090920135919050565b80358015158114610e93575f5ffd5b919050565b5f5f5f5f60808587031215610eab575f5ffd5b8435935060208501359250610ec260408601610e84565b9150610ed060608601610e84565b905092959194509250565b6001600160a01b0381168114610eef575f5ffd5b50565b5f60208284031215610f02575f5ffd5b8135610f0d81610edb565b9392505050565b5f60208284031215610f24575f5ffd5b5051919050565b604051610120810167ffffffffffffffff81118282101715610f5b57634e487b7160e01b5f52604160045260245ffd5b60405290565b8051610e9381610edb565b5f610120828403128015610f7e575f5ffd5b50610f87610f2b565b610f9083610f61565b8152610f9e60208401610f61565b6020820152610faf60408401610f61565b6040820152610fc060608401610f61565b6060820152610fd160808401610f61565b6080820152610fe260a08401610f61565b60a0820152610ff360c08401610f61565b60c082015260e08381015190820152610100928301519281019290925250919050565b5f6060828403128015611027575f5ffd5b506040516060810167ffffffffffffffff8111828210171561105757634e487b7160e01b5f52604160045260245ffd5b60409081528351825260208085015190830152928301519281019290925250919050565b5f5f85851115611089575f5ffd5b83861115611095575f5ffd5b5050820193919092039150565b80356001600160e01b031981169060048410156110d3576001600160e01b0319600485900360031b81901b82161691505b5092915050565b6001600160a01b03841681526040602082018190528101829052818360608301375f818301606090810191909152601f909201601f191601019291505056fea2646970667358221220cd5c20beb74d27ee08400db027e518757f3a1c60f1c88f0121e0cc2b3d98b13164736f6c634300081c0033","linkReferences":{}},"methodIdentifiers":{"authority()":"bf7e214f","closeMigrationRoute(uint256,uint256)":"f9a7764d","isConsumingScheduledOp()":"8fb36037","marketRegistry()":"ecb96fe6","migrateBorrower(uint256,uint256)":"29f49850","migrateLiquidity(uint256,uint256,uint256)":"41d010f9","migrationRoutes(uint256,uint256)":"7f133161","openMigrationRoute(uint256,uint256,bool,bool)":"6be980a4","setAuthority(address)":"7a9e5e4b"},"id":20}