{"abi":[{"type":"constructor","inputs":[{"name":"authority","type":"address","internalType":"address"},{"name":"marketRegistry_","type":"address","internalType":"contract IMarketVersionRegistry"}],"stateMutability":"nonpayable"},{"type":"function","name":"authority","inputs":[],"outputs":[{"name":"","type":"address","internalType":"address"}],"stateMutability":"view"},{"type":"function","name":"closeMigrationRoute","inputs":[{"name":"fromVersionId","type":"uint256","internalType":"uint256"},{"name":"toVersionId","type":"uint256","internalType":"uint256"}],"outputs":[],"stateMutability":"nonpayable"},{"type":"function","name":"isConsumingScheduledOp","inputs":[],"outputs":[{"name":"","type":"bytes4","internalType":"bytes4"}],"stateMutability":"view"},{"type":"function","name":"marketRegistry","inputs":[],"outputs":[{"name":"","type":"address","internalType":"contract IMarketVersionRegistry"}],"stateMutability":"view"},{"type":"function","name":"migrateBorrower","inputs":[{"name":"fromVersionId","type":"uint256","internalType":"uint256"},{"name":"toVersionId","type":"uint256","internalType":"uint256"}],"outputs":[],"stateMutability":"nonpayable"},{"type":"function","name":"migrateLiquidity","inputs":[{"name":"fromVersionId","type":"uint256","internalType":"uint256"},{"name":"toVersionId","type":"uint256","internalType":"uint256"},{"name":"shares","type":"uint256","internalType":"uint256"}],"outputs":[],"stateMutability":"nonpayable"},{"type":"function","name":"migrationRoutes","inputs":[{"name":"fromVersionId","type":"uint256","internalType":"uint256"},{"name":"toVersionId","type":"uint256","internalType":"uint256"}],"outputs":[{"name":"borrowerEnabled","type":"bool","internalType":"bool"},{"name":"liquidityEnabled","type":"bool","internalType":"bool"}],"stateMutability":"view"},{"type":"function","name":"openMigrationRoute","inputs":[{"name":"fromVersionId","type":"uint256","internalType":"uint256"},{"name":"toVersionId","type":"uint256","internalType":"uint256"},{"name":"borrowerEnabled","type":"bool","internalType":"bool"},{"name":"liquidityEnabled","type":"bool","internalType":"bool"}],"outputs":[],"stateMutability":"nonpayable"},{"type":"function","name":"setAuthority","inputs":[{"name":"newAuthority","type":"address","internalType":"address"}],"outputs":[],"stateMutability":"nonpayable"},{"type":"event","name":"AuthorityUpdated","inputs":[{"name":"authority","type":"address","indexed":false,"internalType":"address"}],"anonymous":false},{"type":"event","name":"BorrowerMigrated","inputs":[{"name":"fromVersionId","type":"uint256","indexed":true,"internalType":"uint256"},{"name":"toVersionId","type":"uint256","indexed":true,"internalType":"uint256"},{"name":"borrower","type":"address","indexed":true,"internalType":"address"}],"anonymous":false},{"type":"event","name":"LiquidityMigrated","inputs":[{"name":"fromVersionId","type":"uint256","indexed":true,"internalType":"uint256"},{"name":"toVersionId","type":"uint256","indexed":true,"internalType":"uint256"},{"name":"account","type":"address","indexed":true,"internalType":"address"},{"name":"shares","type":"uint256","indexed":false,"internalType":"uint256"}],"anonymous":false},{"type":"event","name":"MigrationRouteClosedEvent","inputs":[{"name":"fromVersionId","type":"uint256","indexed":true,"internalType":"uint256"},{"name":"toVersionId","type":"uint256","indexed":true,"internalType":"uint256"}],"anonymous":false},{"type":"event","name":"MigrationRouteOpened","inputs":[{"name":"fromVersionId","type":"uint256","indexed":true,"internalType":"uint256"},{"name":"toVersionId","type":"uint256","indexed":true,"internalType":"uint256"},{"name":"borrowerEnabled","type":"bool","indexed":false,"internalType":"bool"},{"name":"liquidityEnabled","type":"bool","indexed":false,"internalType":"bool"}],"anonymous":false},{"type":"error","name":"AccessManagedInvalidAuthority","inputs":[{"name":"authority","type":"address","internalType":"address"}]},{"type":"error","name":"AccessManagedRequiredDelay","inputs":[{"name":"caller","type":"address","internalType":"address"},{"name":"delay","type":"uint32","internalType":"uint32"}]},{"type":"error","name":"AccessManagedUnauthorized","inputs":[{"name":"caller","type":"address","internalType":"address"}]},{"type":"error","name":"InvalidMigrationRoute","inputs":[]},{"type":"error","name":"MigrationRouteClosed","inputs":[{"name":"fromVersionId","type":"uint256","internalType":"uint256"},{"name":"toVersionId","type":"uint256","internalType":"uint256"}]},{"type":"error","name":"SafeERC20FailedOperation","inputs":[{"name":"token","type":"address","internalType":"address"}]},{"type":"error","name":"UnsupportedAssetPair","inputs":[]}],"bytecode":{"object":"0x60a0346100cc57601f610f7138819003918201601f19168301916001600160401b038311848410176100d05780849260409485528339810103126100cc5780516001600160a01b03811691908290036100cc5760200151906001600160a01b03821682036100cc575f80546001600160a01b031916821790556040519081527f2f658b440c35314f52658ea8a740e05b284cdc84dc9ae01e891f21b8933e7cad90602090a1608052604051610e8c90816100e5823960805181818160f201528181610401015261078b0152f35b5f80fd5b634e487b7160e01b5f52604160045260245ffdfe6080806040526004361015610012575f80fd5b5f905f3560e01c90816329f498501461072f5750806341d010f9146103985780636be980a4146102875780637a9e5e4b146101e05780637f1331611461018d5780638fb3603714610148578063bf7e214f14610121578063ecb96fe6146100dc5763f9a7764d14610081575f80fd5b346100d95761008f36610a61565b9061009a3633610d10565b8083526001602052604083208284526020528260408120557f198bc6642814ee8f39655fb5a118907fad38b1ec7281aae93c5e35b0e9ee73788380a380f35b80fd5b50346100d957806003193601126100d9576040517f00000000000000000000000000000000000000000000000000000000000000006001600160a01b03168152602090f35b50346100d957806003193601126100d957546040516001600160a01b039091168152602090f35b50346100d957806003193601126100d957805460a01c60ff161561018557506020638fb3603760e01b5b6040516001600160e01b03199091168152f35b602090610172565b50346100d95760406101dc916101a236610a61565b90825260016020528282209082526020522054604051918160ff80859460081c169116839092916020906040830194151583521515910152565b0390f35b50346100d95760203660031901126100d9576004356001600160a01b03811690818103610283578254906001600160a01b0382163303610271573b1561025d576001600160a01b031916811782556040519081527f2f658b440c35314f52658ea8a740e05b284cdc84dc9ae01e891f21b8933e7cad90602090a180f35b6361798f2f60e11b83526004829052602483fd5b62d1953b60e31b845233600452602484fd5b8280fd5b50346100d95760803660031901126100d957602435600435604435801515908181036103945760643591821515808403610390576102c53633610d10565b84158015610388575b801561037f575b61037057907f36d679fac87fd265884075f78d562d4441ce384a6125943dc7ac8dde486788b09392916040519161030b83610a77565b82526020820190815285885260016020526040882087895260205260408820915115159060ff61ff0084549251151560081b1692169061ffff19161717905561036a604051928392839092916020906040830194151583521515910152565b0390a380f35b633914508b60e01b8752600487fd5b508585146102d5565b5085156102ce565b8680fd5b8480fd5b50346100d95760603660031901126100d957600435602435604435918084526001602052604084208285526020526040842060ff604051916103d983610a77565b548181161515835260081c16159060208215910152610719576040516381e08f2160e01b81527f00000000000000000000000000000000000000000000000000000000000000006001600160a01b031690602081600481855afa80156106a757849187916106e4575b50036106d55760405163b88da75960e01b8152600481018390529061012082602481845afa9081156106a75760249287926106b2575b50610120906040519384809263b88da75960e01b82528860048301525afa9182156106a7578692610676575b506104af8282610b7f565b60208181015192810180516040516323b872dd60e01b8a523360045230602452604489905291946001600160a01b039182169492939116908960648180855af160018a5114811615610657575b83604052896060521561064557906020836064818c80989796635d043b2960e11b83528d60048401523060248401523060448401525af191821561063a578492610601575b5060c0015193519293602093604492916105699183916001600160a01b039182169116610bd9565b6040519485938492636e553f6560e01b845260048401523360248401525af180156105f6576105c3575b506040519283527f6eaa5ea7e8aaf02f319c600bb325387235c3dddf7549329bd304181614b8ee2860203394a480f35b6020813d6020116105ee575b816105dc60209383610a93565b810103126105ea5751610593565b5f80fd5b3d91506105cf565b6040513d87823e3d90fd5b935090506020833d602011610632575b8161061e60209383610a93565b810103126105ea5791518792610569610541565b3d9150610611565b6040513d86823e3d90fd5b635274afe760e01b8952600452602488fd5b600181151661066d57813b15153d1516166104fc565b833d8b823e3d90fd5b6106999192506101203d81116106a0575b6106918183610a93565b810190610ac9565b905f6104a4565b503d610687565b6040513d88823e3d90fd5b6101209192506106ce90823d81116106a0576106918183610a93565b9190610478565b633914508b60e01b8552600485fd5b9150506020813d602011610711575b8161070060209383610a93565b810103126105ea578390515f610442565b3d91506106f3565b632bbd66c160e11b845260045260245250604490fd5b9050346105ea5761073f36610a61565b9091825f52600160205260405f20825f5260205260405f2061076082610a77565b5490602060ff80841615938415845260081c161515910152610a4b576040516381e08f2160e01b81527f00000000000000000000000000000000000000000000000000000000000000006001600160a01b031690602081600481855afa80156109135783915f91610a16575b5003610a075760405163b88da75960e01b8152600481018490529061012082602481845afa908115610913576024925f926109e4575b50610120906040519384809263b88da75960e01b82528760048301525afa918215610913575f926109c1575b508061083b835f93610b7f565b8051835160405163d90ebf5360e01b81523360048201526001600160a01b03918216959094909260609286926024928492165af1928315610913575f93610944575b508251908161091e575b505050813b156105ea57604060845f9283835195869485936360453af360e01b85523360048601528051602486015260208101516044860152015160648401525af18015610913576108fe575b5033917f30f4b3fecb49a7a7805b523cc27473ec72070b54d1127a2ed3a8177e87b55d7c8480a480f35b61090b9193505f90610a93565b5f915f6108d4565b6040513d5f823e3d90fd5b60a090920151915161093c926001600160a01b039182169116610bd9565b5f8080610887565b9092506060813d6060116109b9575b8161096060609383610a93565b810103126105ea5760405190606082019082821067ffffffffffffffff8311176109a5576040918252805183526020810151602084015201516040820152915f61087d565b634e487b7160e01b5f52604160045260245ffd5b3d9150610953565b5f9192506109dd906101203d81116106a0576106918183610a93565b919061082e565b610120919250610a0090823d81116106a0576106918183610a93565b9190610802565b633914508b60e01b5f5260045ffd5b9150506020813d602011610a43575b81610a3260209383610a93565b810103126105ea578290515f6107cc565b3d9150610a25565b90632bbd66c160e11b5f5260045260245260445ffd5b60409060031901126105ea576004359060243590565b6040810190811067ffffffffffffffff8211176109a557604052565b90601f8019910116810190811067ffffffffffffffff8211176109a557604052565b51906001600160a01b03821682036105ea57565b90816101209103126105ea576040519061012082019082821067ffffffffffffffff8311176109a55761010091604052610b0281610ab5565b8352610b1060208201610ab5565b6020840152610b2160408201610ab5565b6040840152610b3260608201610ab5565b6060840152610b4360808201610ab5565b6080840152610b5460a08201610ab5565b60a0840152610b6560c08201610ab5565b60c084015260e081015160e0840152015161010082015290565b60a080820151908301516001600160a01b039081169116148015929190610bb8575b5050610ba957565b639b065af960e01b5f5260045ffd5b60c0908101519101516001600160a01b039081169116141590505f80610ba1565b916040519163095ea7b360e01b5f5260018060a01b031691826004528160245260205f60448180885af19060015f5114821615610d01575b60405215610c1e57505050565b60405163095ea7b360e01b5f52826004525f60245260205f60448180885af19060015f5114821615610ce9575b60405215610ccb576040519163095ea7b360e01b5f5260045260245260205f60448180865af19060015f5114821615610caa575b60405215610c8a5750565b635274afe760e01b5f9081526001600160a01b0391909116600452602490fd5b906001811516610cc257823b15153d15161690610c7f565b503d5f823e3d90fd5b635274afe760e01b5f9081526001600160a01b038416600452602490fd5b906001811516610cc257843b15153d15161690610c4b565b90843b15153d15161690610c11565b5f805490926001600160a01b0382169291600482106105ea575f5f9060405f815196602088019063b700961360e01b825260018060a01b03169788602482015230604482015263ffffffff60e01b833516606482015260648152610d75608482610a93565b828052826020525190895afa610e43575b15610d94575b505050505050565b63ffffffff1615610e315760ff60a01b1916600160a01b175f55823b156105ea576064925f9283604051958680958194634a63ebf760e11b83526004830152604060248301528060448301528084848401378181018301849052601f01601f191681010301925af1801561091357610e1e575b50805460ff60a01b191690555f8080808080610d8c565b610e2a91505f90610a93565b5f5f610e07565b8262d1953b60e31b5f5260045260245ffd5b50505f516020518060201c150290610d8656fea2646970667358221220f770986eef004c7792b5f24827a87ebdc0f47995277d7347ac736ad9ecf571fd64736f6c634300081c0033","linkReferences":{}},"methodIdentifiers":{"authority()":"bf7e214f","closeMigrationRoute(uint256,uint256)":"f9a7764d","isConsumingScheduledOp()":"8fb36037","marketRegistry()":"ecb96fe6","migrateBorrower(uint256,uint256)":"29f49850","migrateLiquidity(uint256,uint256,uint256)":"41d010f9","migrationRoutes(uint256,uint256)":"7f133161","openMigrationRoute(uint256,uint256,bool,bool)":"6be980a4","setAuthority(address)":"7a9e5e4b"},"id":20}