{"abi":[{"type":"constructor","inputs":[{"name":"xcmNotifier_","type":"address","internalType":"address"}],"stateMutability":"nonpayable"},{"type":"receive","stateMutability":"payable"},{"type":"function","name":"RELAY_DESTINATION","inputs":[],"outputs":[{"name":"","type":"bytes","internalType":"bytes"}],"stateMutability":"view"},{"type":"function","name":"notifyLiquidation","inputs":[{"name":"borrower","type":"address","internalType":"address"},{"name":"debtRepaid","type":"uint256","internalType":"uint256"},{"name":"collateralSeized","type":"uint256","internalType":"uint256"},{"name":"correlationId","type":"bytes32","internalType":"bytes32"}],"outputs":[],"stateMutability":"nonpayable"},{"type":"function","name":"xcmNotifier","inputs":[],"outputs":[{"name":"","type":"address","internalType":"contract XcmLiquidationNotifier"}],"stateMutability":"view"}],"bytecode":{"object":"0x60a034606d57601f6102c438819003918201601f19168301916001600160401b03831184841017607157808492602094604052833981010312606d57516001600160a01b03811690819003606d5760805260405161023e90816100868239608051818181605b015260ea0152f35b5f80fd5b634e487b7160e01b5f52604160045260245ffdfe6080604052600436101561001a575b3615610018575f80fd5b005b5f5f3560e01c8063ad890ab0146100c1578063aee1f00c1461008d5763e79a69cc14610046575061000e565b3461008a578060031936011261008a576040517f00000000000000000000000000000000000000000000000000000000000000006001600160a01b03168152602090f35b80fd5b503461008a578060031936011261008a576100bd6100a96101b5565b6040519182916020835260208301906101e4565b0390f35b50346101b15760803660031901126101b1576004356001600160a01b038116908190036101b1577f00000000000000000000000000000000000000000000000000000000000000006001600160a01b031661011a6101b5565b813b156101b1575f9161014c91836040518096819582946327b8997960e11b845260a0600485015260a48401906101e4565b90602483015260243560448301526044356064830152606435608483015203925af180156101a65761017c575080f35b905067ffffffffffffffff811161019257604052005b634e487b7160e01b5f52604160045260245ffd5b6040513d5f823e3d90fd5b5f80fd5b604051906040820182811067ffffffffffffffff821117610192576040526003825261050160f01b6020830152565b805180835260209291819084018484015e5f828201840152601f01601f191601019056fea264697066735822122044065a8a988f67f8c4cd8c876e3e7d00d243a16aa077db7c714fce3fbadbf23064736f6c634300081c0033","linkReferences":{}},"methodIdentifiers":{"RELAY_DESTINATION()":"aee1f00c","notifyLiquidation(address,uint256,uint256,bytes32)":"ad890ab0","xcmNotifier()":"e79a69cc"},"id":9}