{"abi":[{"type":"receive","stateMutability":"payable"},{"type":"function","name":"XCM","inputs":[],"outputs":[{"name":"","type":"address","internalType":"contract IXcm"}],"stateMutability":"view"},{"type":"function","name":"estimateCrossChainQuoteCost","inputs":[{"name":"xcmMessage","type":"bytes","internalType":"bytes"}],"outputs":[{"name":"refTime","type":"uint64","internalType":"uint64"},{"name":"proofSize","type":"uint64","internalType":"uint64"}],"stateMutability":"view"},{"type":"function","name":"executeLocalXcm","inputs":[{"name":"message","type":"bytes","internalType":"bytes"},{"name":"refTime","type":"uint64","internalType":"uint64"},{"name":"proofSize","type":"uint64","internalType":"uint64"}],"outputs":[],"stateMutability":"nonpayable"},{"type":"function","name":"sendCrossChainNotification","inputs":[{"name":"destination","type":"bytes","internalType":"bytes"},{"name":"message","type":"bytes","internalType":"bytes"}],"outputs":[],"stateMutability":"nonpayable"},{"type":"event","name":"QuoteCostEstimated","inputs":[{"name":"caller","type":"address","indexed":true,"internalType":"address"},{"name":"refTime","type":"uint64","indexed":false,"internalType":"uint64"},{"name":"proofSize","type":"uint64","indexed":false,"internalType":"uint64"}],"anonymous":false},{"type":"event","name":"XcmExecuted","inputs":[{"name":"caller","type":"address","indexed":true,"internalType":"address"},{"name":"refTime","type":"uint64","indexed":false,"internalType":"uint64"},{"name":"proofSize","type":"uint64","indexed":false,"internalType":"uint64"}],"anonymous":false},{"type":"event","name":"XcmSent","inputs":[{"name":"caller","type":"address","indexed":true,"internalType":"address"},{"name":"destination","type":"bytes","indexed":false,"internalType":"bytes"}],"anonymous":false},{"type":"error","name":"EmptyDestination","inputs":[]},{"type":"error","name":"EmptyXcmMessage","inputs":[]}],"bytecode":{"object":"0x6080604052348015600e575f5ffd5b506106128061001c5f395ff3fe608060405260043610610041575f3560e01c806360a5c3ff1461004c5780636ffac7101461007f5780637d1d810f146100a0578063cedcfb9c146100bf575f5ffd5b3661004857005b5f5ffd5b348015610057575f5ffd5b50610062620a000081565b6040516001600160a01b0390911681526020015b60405180910390f35b34801561008a575f5ffd5b5061009e6100993660046103ac565b6100ff565b005b3480156100ab575f5ffd5b5061009e6100ba366004610410565b6101e0565b3480156100ca575f5ffd5b506100de6100d936600461047c565b6102b6565b6040805167ffffffffffffffff938416815292909116602083015201610076565b5f839003610120576040516329de507d60e01b815260040160405180910390fd5b60408051808201825267ffffffffffffffff808516825283166020820152905163d3b7e04d60e01b8152620a00009163d3b7e04d916101669188918891906004016104e3565b5f604051808303815f87803b15801561017d575f5ffd5b505af115801561018f573d5f5f3e3d5ffd5b50506040805167ffffffffffffffff8087168252851660208201523393507f28acd9413969d099b5b8d549f643f41d7cac14bb7f22a1bb9277525a048581089250015b60405180910390a250505050565b5f83900361020157604051631e86f26160e21b815260040160405180910390fd5b5f819003610222576040516329de507d60e01b815260040160405180910390fd5b604051637f0a3bf960e01b8152620a000090637f0a3bf99061024e908790879087908790600401610525565b5f604051808303815f87803b158015610265575f5ffd5b505af1158015610277573d5f5f3e3d5ffd5b50505050336001600160a01b03167f3236823f7f04a8d92d51554651ba742e0bbe7e7ec538132a2eeab0e4919fdad185856040516101d2929190610556565b5f808281036102d8576040516329de507d60e01b815260040160405180910390fd5b6040516347400c2360e01b81525f90620a0000906347400c23906103029088908890600401610556565b6040805180830381865afa15801561031c573d5f5f3e3d5ffd5b505050506040513d601f19601f820116820180604052508101906103409190610571565b80516020909101519093509150505b9250929050565b5f5f83601f840112610366575f5ffd5b50813567ffffffffffffffff81111561037d575f5ffd5b60208301915083602082850101111561034f575f5ffd5b67ffffffffffffffff811681146103a9575f5ffd5b50565b5f5f5f5f606085870312156103bf575f5ffd5b843567ffffffffffffffff8111156103d5575f5ffd5b6103e187828801610356565b90955093505060208501356103f581610394565b9150604085013561040581610394565b939692955090935050565b5f5f5f5f60408587031215610423575f5ffd5b843567ffffffffffffffff811115610439575f5ffd5b61044587828801610356565b909550935050602085013567ffffffffffffffff811115610464575f5ffd5b61047087828801610356565b95989497509550505050565b5f5f6020838503121561048d575f5ffd5b823567ffffffffffffffff8111156104a3575f5ffd5b6104af85828601610356565b90969095509350505050565b81835281816020850137505f828201602090810191909152601f909101601f19169091010190565b606081525f6104f66060830185876104bb565b905067ffffffffffffffff835116602083015267ffffffffffffffff6020840151166040830152949350505050565b604081525f6105386040830186886104bb565b828103602084015261054b8185876104bb565b979650505050505050565b602081525f6105696020830184866104bb565b949350505050565b5f6040828403128015610582575f5ffd5b506040805190810167ffffffffffffffff811182821017156105b257634e487b7160e01b5f52604160045260245ffd5b60405282516105c081610394565b815260208301516105d081610394565b6020820152939250505056fea2646970667358221220d95e74c7b3ec75f56c9ceb42847a276113552e2ce500f72f99586ce2ddeb4f2a64736f6c634300081c0033","linkReferences":{}},"methodIdentifiers":{"XCM()":"60a5c3ff","estimateCrossChainQuoteCost(bytes)":"cedcfb9c","executeLocalXcm(bytes,uint64,uint64)":"6ffac710","sendCrossChainNotification(bytes,bytes)":"7d1d810f"},"id":21}