{"abi":[{"type":"constructor","inputs":[],"stateMutability":"nonpayable"},{"type":"function","name":"allowance","inputs":[{"name":"owner","type":"address","internalType":"address"},{"name":"spender","type":"address","internalType":"address"}],"outputs":[{"name":"","type":"uint256","internalType":"uint256"}],"stateMutability":"view"},{"type":"function","name":"approve","inputs":[{"name":"spender","type":"address","internalType":"address"},{"name":"value","type":"uint256","internalType":"uint256"}],"outputs":[{"name":"","type":"bool","internalType":"bool"}],"stateMutability":"nonpayable"},{"type":"function","name":"armAttack","inputs":[{"name":"target_","type":"address","internalType":"address"},{"name":"amount_","type":"uint256","internalType":"uint256"}],"outputs":[],"stateMutability":"nonpayable"},{"type":"function","name":"attackAmount","inputs":[],"outputs":[{"name":"","type":"uint256","internalType":"uint256"}],"stateMutability":"view"},{"type":"function","name":"attackOnTransfer","inputs":[],"outputs":[{"name":"","type":"bool","internalType":"bool"}],"stateMutability":"view"},{"type":"function","name":"attackTarget","inputs":[],"outputs":[{"name":"","type":"address","internalType":"address"}],"stateMutability":"view"},{"type":"function","name":"balanceOf","inputs":[{"name":"account","type":"address","internalType":"address"}],"outputs":[{"name":"","type":"uint256","internalType":"uint256"}],"stateMutability":"view"},{"type":"function","name":"decimals","inputs":[],"outputs":[{"name":"","type":"uint8","internalType":"uint8"}],"stateMutability":"view"},{"type":"function","name":"mint","inputs":[{"name":"to","type":"address","internalType":"address"},{"name":"amount","type":"uint256","internalType":"uint256"}],"outputs":[],"stateMutability":"nonpayable"},{"type":"function","name":"name","inputs":[],"outputs":[{"name":"","type":"string","internalType":"string"}],"stateMutability":"view"},{"type":"function","name":"symbol","inputs":[],"outputs":[{"name":"","type":"string","internalType":"string"}],"stateMutability":"view"},{"type":"function","name":"totalSupply","inputs":[],"outputs":[{"name":"","type":"uint256","internalType":"uint256"}],"stateMutability":"view"},{"type":"function","name":"transfer","inputs":[{"name":"to","type":"address","internalType":"address"},{"name":"value","type":"uint256","internalType":"uint256"}],"outputs":[{"name":"","type":"bool","internalType":"bool"}],"stateMutability":"nonpayable"},{"type":"function","name":"transferFrom","inputs":[{"name":"from","type":"address","internalType":"address"},{"name":"to","type":"address","internalType":"address"},{"name":"value","type":"uint256","internalType":"uint256"}],"outputs":[{"name":"","type":"bool","internalType":"bool"}],"stateMutability":"nonpayable"},{"type":"event","name":"Approval","inputs":[{"name":"owner","type":"address","indexed":true,"internalType":"address"},{"name":"spender","type":"address","indexed":true,"internalType":"address"},{"name":"value","type":"uint256","indexed":false,"internalType":"uint256"}],"anonymous":false},{"type":"event","name":"Transfer","inputs":[{"name":"from","type":"address","indexed":true,"internalType":"address"},{"name":"to","type":"address","indexed":true,"internalType":"address"},{"name":"value","type":"uint256","indexed":false,"internalType":"uint256"}],"anonymous":false},{"type":"error","name":"ERC20InsufficientAllowance","inputs":[{"name":"spender","type":"address","internalType":"address"},{"name":"allowance","type":"uint256","internalType":"uint256"},{"name":"needed","type":"uint256","internalType":"uint256"}]},{"type":"error","name":"ERC20InsufficientBalance","inputs":[{"name":"sender","type":"address","internalType":"address"},{"name":"balance","type":"uint256","internalType":"uint256"},{"name":"needed","type":"uint256","internalType":"uint256"}]},{"type":"error","name":"ERC20InvalidApprover","inputs":[{"name":"approver","type":"address","internalType":"address"}]},{"type":"error","name":"ERC20InvalidReceiver","inputs":[{"name":"receiver","type":"address","internalType":"address"}]},{"type":"error","name":"ERC20InvalidSender","inputs":[{"name":"sender","type":"address","internalType":"address"}]},{"type":"error","name":"ERC20InvalidSpender","inputs":[{"name":"spender","type":"address","internalType":"address"}]}],"bytecode":{"object":"0x60806040523461031957604080519081016001600160401b0381118282101761022c576040908152600f82526e26b0b634b1b4b7bab9902a37b5b2b760891b602083015280519081016001600160401b0381118282101761022c5760405260048152631155925360e21b602082015281516001600160401b03811161022c57600354600181811c9116801561030f575b602082101461020e57601f81116102ac575b50602092601f821160011461024b57928192935f92610240575b50508160011b915f199060031b1c1916176003555b80516001600160401b03811161022c57600454600181811c91168015610222575b602082101461020e57601f81116101ab575b50602091601f821160011461014b579181925f92610140575b50508160011b915f199060031b1c1916176004555b604051610958908161031e8239f35b015190505f8061011c565b601f1982169260045f52805f20915f5b8581106101935750836001951061017b575b505050811b01600455610131565b01515f1960f88460031b161c191690555f808061016d565b9192602060018192868501518155019401920161015b565b60045f527f8a35acfbc15ff81a39ae7d344fd709f28e8600b4aa8c65c6b64bfe7fe36bd19b601f830160051c81019160208410610204575b601f0160051c01905b8181106101f95750610103565b5f81556001016101ec565b90915081906101e3565b634e487b7160e01b5f52602260045260245ffd5b90607f16906100f1565b634e487b7160e01b5f52604160045260245ffd5b015190505f806100bb565b601f1982169360035f52805f20915f5b868110610294575083600195961061027c575b505050811b016003556100d0565b01515f1960f88460031b161c191690555f808061026e565b9192602060018192868501518155019401920161025b565b60035f527fc2575a0e9e593c00f959f8c92f12db2869c3395a3b0502d05e2516446f71f85b601f830160051c81019160208410610305575b601f0160051c01905b8181106102fa57506100a1565b5f81556001016102ed565b90915081906102e4565b90607f169061008f565b5f80fdfe6080806040526004361015610012575f80fd5b5f3560e01c90816306fdde031461064d57508063095ea7b3146105cb57806318160ddd146105ae57806323b872dd146104cf578063313ce567146104b457806340c10f1914610326578063414bbbab146102e057806365ed2dfa146102b857806370a0823114610281578063881935651461026457806395d89b4114610160578063a9059cbb1461012f578063dd62ed3e146100df5763fe051c5c146100b6575f80fd5b346100db575f3660031901126100db57602060ff60055460a01c166040519015158152f35b5f80fd5b346100db5760403660031901126100db576100f861072f565b610100610745565b6001600160a01b039182165f908152600160209081526040808320949093168252928352819020549051908152f35b346100db5760403660031901126100db5761015561014b61072f565b6024359033610791565b602060405160018152f35b346100db575f3660031901126100db576040515f6004548060011c9060018116801561025a575b6020831081146102465782855290811561022257506001146101c4575b6101c0836101b48185038261075b565b60405191829182610705565b0390f35b91905060045f527f8a35acfbc15ff81a39ae7d344fd709f28e8600b4aa8c65c6b64bfe7fe36bd19b915f905b808210610208575090915081016020016101b46101a4565b9192600181602092548385880101520191019092916101f0565b60ff191660208086019190915291151560051b840190910191506101b490506101a4565b634e487b7160e01b5f52602260045260245ffd5b91607f1691610187565b346100db575f3660031901126100db576020600654604051908152f35b346100db5760203660031901126100db576001600160a01b036102a261072f565b165f525f602052602060405f2054604051908152f35b346100db575f3660031901126100db576005546040516001600160a01b039091168152602090f35b346100db5760403660031901126100db576102f961072f565b600580546024356006556001600160a81b0319166001600160a01b0390921691909117600160a01b179055005b346100db5760403660031901126100db5761033f61072f565b6001600160a01b031660243581156104a15760025481810180911161048d577fddf252ad1be2c89b69c2b068fc378daa952ba7f163c4a11628f55a4df523b3ef602084935f9360025584845283825260408420818154019055604051908152a36005549060ff8260a01c16908161047f575b8161046c575b5080610465575b6103c457005b6007805460ff1916600117905560ff60a01b198116600555600654604051636e553f6560e01b815260048101919091525f602482018190529091602091839160449183916001600160a01b03165af1801561045a5761042b575b506007805460ff19169055005b6020813d602011610452575b816104446020938361075b565b810103126100db575161041e565b3d9150610437565b6040513d5f823e3d90fd5b505f6103be565b6001600160a01b038316149050826103b7565b60075460ff161591506103b1565b634e487b7160e01b5f52601160045260245ffd5b63ec442f0560e01b5f525f60045260245ffd5b346100db575f3660031901126100db57602060405160128152f35b346100db5760603660031901126100db576104e861072f565b6104f0610745565b6001600160a01b0382165f818152600160209081526040808320338452909152902054909260443592915f19811061052e575b506101559350610791565b83811061059357841561058057331561056d57610155945f52600160205260405f2060018060a01b0333165f526020528360405f209103905584610523565b634a1406b160e11b5f525f60045260245ffd5b63e602df0560e01b5f525f60045260245ffd5b8390637dc7a0d960e11b5f523360045260245260445260645ffd5b346100db575f3660031901126100db576020600254604051908152f35b346100db5760403660031901126100db576105e461072f565b602435903315610580576001600160a01b031690811561056d57335f52600160205260405f20825f526020528060405f20556040519081527f8c5be1e5ebec7d5bd14f71427d1e84f3dd0314c0f7b2291e5b200ac8c7c3b92560203392a3602060405160018152f35b346100db575f3660031901126100db575f6003548060011c906001811680156106fb575b60208310811461024657828552908115610222575060011461069d576101c0836101b48185038261075b565b91905060035f527fc2575a0e9e593c00f959f8c92f12db2869c3395a3b0502d05e2516446f71f85b915f905b8082106106e1575090915081016020016101b46101a4565b9192600181602092548385880101520191019092916106c9565b91607f1691610671565b602060409281835280519182918282860152018484015e5f828201840152601f01601f1916010190565b600435906001600160a01b03821682036100db57565b602435906001600160a01b03821682036100db57565b90601f8019910116810190811067ffffffffffffffff82111761077d57604052565b634e487b7160e01b5f52604160045260245ffd5b6001600160a01b031690811561090f576001600160a01b03169182156104a157815f525f60205260405f20548181106108f6577fddf252ad1be2c89b69c2b068fc378daa952ba7f163c4a11628f55a4df523b3ef60208386948694855f525f84520360405f2055845f525f825260405f20818154019055604051908152a36005549160ff8360a01c1690816108e8575b816108d5575b50806108cd575b610836575050565b6007805460ff1916600117905560ff60a01b198216600555600654604051636e553f6560e01b81526004810191909152602481019190915290602090829060449082905f906001600160a01b03165af1801561045a5761089e575b5060ff1960075416600755565b6020813d6020116108c5575b816108b76020938361075b565b810103126100db5751610891565b3d91506108aa565b50600161082e565b6001600160a01b0384161490505f610827565b60075460ff16159150610821565b8263391434e360e21b5f5260045260245260445260645ffd5b634b637e8f60e11b5f525f60045260245ffdfea264697066735822122004bb4f247363e5bc1d4e6f3c49a1f4dcccebfecbfdb463499fbac00064ec1e7f64736f6c634300081c0033","linkReferences":{}},"methodIdentifiers":{"allowance(address,address)":"dd62ed3e","approve(address,uint256)":"095ea7b3","armAttack(address,uint256)":"414bbbab","attackAmount()":"88193565","attackOnTransfer()":"fe051c5c","attackTarget()":"65ed2dfa","balanceOf(address)":"70a08231","decimals()":"313ce567","mint(address,uint256)":"40c10f19","name()":"06fdde03","symbol()":"95d89b41","totalSupply()":"18160ddd","transfer(address,uint256)":"a9059cbb","transferFrom(address,address,uint256)":"23b872dd"},"id":38}