{"abi":[{"type":"constructor","inputs":[{"name":"authority_","type":"address","internalType":"address"}],"stateMutability":"nonpayable"},{"type":"function","name":"authority","inputs":[],"outputs":[{"name":"","type":"address","internalType":"address"}],"stateMutability":"view"},{"type":"function","name":"hasProcessed","inputs":[{"name":"correlationId","type":"bytes32","internalType":"bytes32"}],"outputs":[{"name":"","type":"bool","internalType":"bool"}],"stateMutability":"view"},{"type":"function","name":"isConsumingScheduledOp","inputs":[],"outputs":[{"name":"","type":"bytes4","internalType":"bytes4"}],"stateMutability":"view"},{"type":"function","name":"processed","inputs":[{"name":"","type":"bytes32","internalType":"bytes32"}],"outputs":[{"name":"","type":"bool","internalType":"bool"}],"stateMutability":"view"},{"type":"function","name":"receiveReceipt","inputs":[{"name":"correlationId","type":"bytes32","internalType":"bytes32"},{"name":"data","type":"bytes","internalType":"bytes"}],"outputs":[],"stateMutability":"nonpayable"},{"type":"function","name":"setAuthority","inputs":[{"name":"newAuthority","type":"address","internalType":"address"}],"outputs":[],"stateMutability":"nonpayable"},{"type":"event","name":"AuthorityUpdated","inputs":[{"name":"authority","type":"address","indexed":false,"internalType":"address"}],"anonymous":false},{"type":"event","name":"ReceiptReceived","inputs":[{"name":"correlationId","type":"bytes32","indexed":true,"internalType":"bytes32"},{"name":"sender","type":"address","indexed":true,"internalType":"address"},{"name":"data","type":"bytes","indexed":false,"internalType":"bytes"}],"anonymous":false},{"type":"error","name":"AccessManagedInvalidAuthority","inputs":[{"name":"authority","type":"address","internalType":"address"}]},{"type":"error","name":"AccessManagedRequiredDelay","inputs":[{"name":"caller","type":"address","internalType":"address"},{"name":"delay","type":"uint32","internalType":"uint32"}]},{"type":"error","name":"AccessManagedUnauthorized","inputs":[{"name":"caller","type":"address","internalType":"address"}]},{"type":"error","name":"DuplicateCorrelationId","inputs":[{"name":"correlationId","type":"bytes32","internalType":"bytes32"}]}],"bytecode":{"object":"0x6080604052348015600e575f5ffd5b506040516106b83803806106b8833981016040819052602b91608c565b806033816039565b505060b7565b5f80546001600160a01b0319166001600160a01b0383169081179091556040519081527f2f658b440c35314f52658ea8a740e05b284cdc84dc9ae01e891f21b8933e7cad9060200160405180910390a150565b5f60208284031215609b575f5ffd5b81516001600160a01b038116811460b0575f5ffd5b9392505050565b6105f4806100c45f395ff3fe608060405234801561000f575f5ffd5b5060043610610060575f3560e01c8063139f973c146100645780637a9e5e4b146100795780638fb360371461008c578063bf7e214f146100b2578063c1f0808a146100cc578063f41d08d7146100fe575b5f5ffd5b610077610072366004610434565b610120565b005b6100776100873660046104ab565b6101bf565b610094610237565b6040516001600160e01b031990911681526020015b60405180910390f35b5f546040516001600160a01b0390911681526020016100a9565b6100ee6100da3660046104d8565b60016020525f908152604090205460ff1681565b60405190151581526020016100a9565b6100ee61010c3660046104d8565b5f9081526001602052604090205460ff1690565b61012b335f36610259565b5f8381526001602052604090205460ff16156101625760405163af74334f60e01b8152600481018490526024015b60405180910390fd5b5f83815260016020819052604091829020805460ff1916909117905551339084907fe78322cbd7212153c8ceb7aa3cc5ad329ac3e905a7a978b4968a6586641a8a3a906101b29086908690610517565b60405180910390a3505050565b5f5433906001600160a01b031681146101f55760405162d1953b60e31b81526001600160a01b0382166004820152602401610159565b816001600160a01b03163b5f0361022a576040516361798f2f60e11b81526001600160a01b0383166004820152602401610159565b6102338261034f565b5050565b5f8054600160a01b900460ff1661024d57505f90565b50638fb3603760e01b90565b5f5f61028c61026f5f546001600160a01b031690565b863061027e60045f898b610532565b61028791610559565b6103a2565b91509150816103485763ffffffff811615610325575f805460ff60a01b198116600160a01b17909155604051634a63ebf760e11b81526001600160a01b03909116906394c7d7ee906102e690889088908890600401610591565b5f604051808303815f87803b1580156102fd575f5ffd5b505af115801561030f573d5f5f3e3d5ffd5b50505f805460ff60a01b19169055506103489050565b60405162d1953b60e31b81526001600160a01b0386166004820152602401610159565b5050505050565b5f80546001600160a01b0319166001600160a01b0383169081179091556040519081527f2f658b440c35314f52658ea8a740e05b284cdc84dc9ae01e891f21b8933e7cad9060200160405180910390a150565b6040516001600160a01b038085166024830152831660448201526001600160e01b0319821660648201525f908190819060840160408051601f19818403018152918152602080830180516001600160e01b031663b700961360e01b1781525f808052918290528351939450919290918a5afa1561042a575f516020805191945081901c150291505b5094509492505050565b5f5f5f60408486031215610446575f5ffd5b83359250602084013567ffffffffffffffff811115610463575f5ffd5b8401601f81018613610473575f5ffd5b803567ffffffffffffffff811115610489575f5ffd5b86602082840101111561049a575f5ffd5b939660209190910195509293505050565b5f602082840312156104bb575f5ffd5b81356001600160a01b03811681146104d1575f5ffd5b9392505050565b5f602082840312156104e8575f5ffd5b5035919050565b81835281816020850137505f828201602090810191909152601f909101601f19169091010190565b602081525f61052a6020830184866104ef565b949350505050565b5f5f85851115610540575f5ffd5b8386111561054c575f5ffd5b5050820193919092039150565b80356001600160e01b0319811690600484101561058a576001600160e01b0319600485900360031b81901b82161691505b5092915050565b6001600160a01b03841681526040602082018190525f906105b590830184866104ef565b9594505050505056fea2646970667358221220cec3ae35b8f2a49a239f4dfab75ed23ef7280f625f4323c51f2de5c24cf16ee764736f6c634300081c0033","linkReferences":{}},"methodIdentifiers":{"authority()":"bf7e214f","hasProcessed(bytes32)":"f41d08d7","isConsumingScheduledOp()":"8fb36037","processed(bytes32)":"c1f0808a","receiveReceipt(bytes32,bytes)":"139f973c","setAuthority(address)":"7a9e5e4b"},"id":11}