{"abi":[{"type":"constructor","inputs":[{"name":"token_","type":"address","internalType":"contract IVotes"},{"name":"timelock_","type":"address","internalType":"contract TimelockController"},{"name":"votingDelay_","type":"uint48","internalType":"uint48"},{"name":"votingPeriod_","type":"uint32","internalType":"uint32"},{"name":"quorumNumerator_","type":"uint256","internalType":"uint256"}],"stateMutability":"nonpayable"},{"type":"receive","stateMutability":"payable"},{"type":"function","name":"BALLOT_TYPEHASH","inputs":[],"outputs":[{"name":"","type":"bytes32","internalType":"bytes32"}],"stateMutability":"view"},{"type":"function","name":"CLOCK_MODE","inputs":[],"outputs":[{"name":"","type":"string","internalType":"string"}],"stateMutability":"view"},{"type":"function","name":"COUNTING_MODE","inputs":[],"outputs":[{"name":"","type":"string","internalType":"string"}],"stateMutability":"pure"},{"type":"function","name":"EXTENDED_BALLOT_TYPEHASH","inputs":[],"outputs":[{"name":"","type":"bytes32","internalType":"bytes32"}],"stateMutability":"view"},{"type":"function","name":"cancel","inputs":[{"name":"targets","type":"address[]","internalType":"address[]"},{"name":"values","type":"uint256[]","internalType":"uint256[]"},{"name":"calldatas","type":"bytes[]","internalType":"bytes[]"},{"name":"descriptionHash","type":"bytes32","internalType":"bytes32"}],"outputs":[{"name":"","type":"uint256","internalType":"uint256"}],"stateMutability":"nonpayable"},{"type":"function","name":"castVote","inputs":[{"name":"proposalId","type":"uint256","internalType":"uint256"},{"name":"support","type":"uint8","internalType":"uint8"}],"outputs":[{"name":"","type":"uint256","internalType":"uint256"}],"stateMutability":"nonpayable"},{"type":"function","name":"castVoteBySig","inputs":[{"name":"proposalId","type":"uint256","internalType":"uint256"},{"name":"support","type":"uint8","internalType":"uint8"},{"name":"voter","type":"address","internalType":"address"},{"name":"signature","type":"bytes","internalType":"bytes"}],"outputs":[{"name":"","type":"uint256","internalType":"uint256"}],"stateMutability":"nonpayable"},{"type":"function","name":"castVoteWithReason","inputs":[{"name":"proposalId","type":"uint256","internalType":"uint256"},{"name":"support","type":"uint8","internalType":"uint8"},{"name":"reason","type":"string","internalType":"string"}],"outputs":[{"name":"","type":"uint256","internalType":"uint256"}],"stateMutability":"nonpayable"},{"type":"function","name":"castVoteWithReasonAndParams","inputs":[{"name":"proposalId","type":"uint256","internalType":"uint256"},{"name":"support","type":"uint8","internalType":"uint8"},{"name":"reason","type":"string","internalType":"string"},{"name":"params","type":"bytes","internalType":"bytes"}],"outputs":[{"name":"","type":"uint256","internalType":"uint256"}],"stateMutability":"nonpayable"},{"type":"function","name":"castVoteWithReasonAndParamsBySig","inputs":[{"name":"proposalId","type":"uint256","internalType":"uint256"},{"name":"support","type":"uint8","internalType":"uint8"},{"name":"voter","type":"address","internalType":"address"},{"name":"reason","type":"string","internalType":"string"},{"name":"params","type":"bytes","internalType":"bytes"},{"name":"signature","type":"bytes","internalType":"bytes"}],"outputs":[{"name":"","type":"uint256","internalType":"uint256"}],"stateMutability":"nonpayable"},{"type":"function","name":"clock","inputs":[],"outputs":[{"name":"","type":"uint48","internalType":"uint48"}],"stateMutability":"view"},{"type":"function","name":"eip712Domain","inputs":[],"outputs":[{"name":"fields","type":"bytes1","internalType":"bytes1"},{"name":"name","type":"string","internalType":"string"},{"name":"version","type":"string","internalType":"string"},{"name":"chainId","type":"uint256","internalType":"uint256"},{"name":"verifyingContract","type":"address","internalType":"address"},{"name":"salt","type":"bytes32","internalType":"bytes32"},{"name":"extensions","type":"uint256[]","internalType":"uint256[]"}],"stateMutability":"view"},{"type":"function","name":"execute","inputs":[{"name":"targets","type":"address[]","internalType":"address[]"},{"name":"values","type":"uint256[]","internalType":"uint256[]"},{"name":"calldatas","type":"bytes[]","internalType":"bytes[]"},{"name":"descriptionHash","type":"bytes32","internalType":"bytes32"}],"outputs":[{"name":"","type":"uint256","internalType":"uint256"}],"stateMutability":"payable"},{"type":"function","name":"getProposalId","inputs":[{"name":"targets","type":"address[]","internalType":"address[]"},{"name":"values","type":"uint256[]","internalType":"uint256[]"},{"name":"calldatas","type":"bytes[]","internalType":"bytes[]"},{"name":"descriptionHash","type":"bytes32","internalType":"bytes32"}],"outputs":[{"name":"","type":"uint256","internalType":"uint256"}],"stateMutability":"view"},{"type":"function","name":"getVotes","inputs":[{"name":"account","type":"address","internalType":"address"},{"name":"timepoint","type":"uint256","internalType":"uint256"}],"outputs":[{"name":"","type":"uint256","internalType":"uint256"}],"stateMutability":"view"},{"type":"function","name":"getVotesWithParams","inputs":[{"name":"account","type":"address","internalType":"address"},{"name":"timepoint","type":"uint256","internalType":"uint256"},{"name":"params","type":"bytes","internalType":"bytes"}],"outputs":[{"name":"","type":"uint256","internalType":"uint256"}],"stateMutability":"view"},{"type":"function","name":"hasVoted","inputs":[{"name":"proposalId","type":"uint256","internalType":"uint256"},{"name":"account","type":"address","internalType":"address"}],"outputs":[{"name":"","type":"bool","internalType":"bool"}],"stateMutability":"view"},{"type":"function","name":"hashProposal","inputs":[{"name":"targets","type":"address[]","internalType":"address[]"},{"name":"values","type":"uint256[]","internalType":"uint256[]"},{"name":"calldatas","type":"bytes[]","internalType":"bytes[]"},{"name":"descriptionHash","type":"bytes32","internalType":"bytes32"}],"outputs":[{"name":"","type":"uint256","internalType":"uint256"}],"stateMutability":"pure"},{"type":"function","name":"name","inputs":[],"outputs":[{"name":"","type":"string","internalType":"string"}],"stateMutability":"view"},{"type":"function","name":"nonces","inputs":[{"name":"owner","type":"address","internalType":"address"}],"outputs":[{"name":"","type":"uint256","internalType":"uint256"}],"stateMutability":"view"},{"type":"function","name":"onERC1155BatchReceived","inputs":[{"name":"","type":"address","internalType":"address"},{"name":"","type":"address","internalType":"address"},{"name":"","type":"uint256[]","internalType":"uint256[]"},{"name":"","type":"uint256[]","internalType":"uint256[]"},{"name":"","type":"bytes","internalType":"bytes"}],"outputs":[{"name":"","type":"bytes4","internalType":"bytes4"}],"stateMutability":"nonpayable"},{"type":"function","name":"onERC1155Received","inputs":[{"name":"","type":"address","internalType":"address"},{"name":"","type":"address","internalType":"address"},{"name":"","type":"uint256","internalType":"uint256"},{"name":"","type":"uint256","internalType":"uint256"},{"name":"","type":"bytes","internalType":"bytes"}],"outputs":[{"name":"","type":"bytes4","internalType":"bytes4"}],"stateMutability":"nonpayable"},{"type":"function","name":"onERC721Received","inputs":[{"name":"","type":"address","internalType":"address"},{"name":"","type":"address","internalType":"address"},{"name":"","type":"uint256","internalType":"uint256"},{"name":"","type":"bytes","internalType":"bytes"}],"outputs":[{"name":"","type":"bytes4","internalType":"bytes4"}],"stateMutability":"nonpayable"},{"type":"function","name":"proposalDeadline","inputs":[{"name":"proposalId","type":"uint256","internalType":"uint256"}],"outputs":[{"name":"","type":"uint256","internalType":"uint256"}],"stateMutability":"view"},{"type":"function","name":"proposalEta","inputs":[{"name":"proposalId","type":"uint256","internalType":"uint256"}],"outputs":[{"name":"","type":"uint256","internalType":"uint256"}],"stateMutability":"view"},{"type":"function","name":"proposalNeedsQueuing","inputs":[{"name":"proposalId","type":"uint256","internalType":"uint256"}],"outputs":[{"name":"","type":"bool","internalType":"bool"}],"stateMutability":"view"},{"type":"function","name":"proposalProposer","inputs":[{"name":"proposalId","type":"uint256","internalType":"uint256"}],"outputs":[{"name":"","type":"address","internalType":"address"}],"stateMutability":"view"},{"type":"function","name":"proposalSnapshot","inputs":[{"name":"proposalId","type":"uint256","internalType":"uint256"}],"outputs":[{"name":"","type":"uint256","internalType":"uint256"}],"stateMutability":"view"},{"type":"function","name":"proposalThreshold","inputs":[],"outputs":[{"name":"","type":"uint256","internalType":"uint256"}],"stateMutability":"view"},{"type":"function","name":"proposalVotes","inputs":[{"name":"proposalId","type":"uint256","internalType":"uint256"}],"outputs":[{"name":"againstVotes","type":"uint256","internalType":"uint256"},{"name":"forVotes","type":"uint256","internalType":"uint256"},{"name":"abstainVotes","type":"uint256","internalType":"uint256"}],"stateMutability":"view"},{"type":"function","name":"propose","inputs":[{"name":"targets","type":"address[]","internalType":"address[]"},{"name":"values","type":"uint256[]","internalType":"uint256[]"},{"name":"calldatas","type":"bytes[]","internalType":"bytes[]"},{"name":"description","type":"string","internalType":"string"}],"outputs":[{"name":"","type":"uint256","internalType":"uint256"}],"stateMutability":"nonpayable"},{"type":"function","name":"queue","inputs":[{"name":"targets","type":"address[]","internalType":"address[]"},{"name":"values","type":"uint256[]","internalType":"uint256[]"},{"name":"calldatas","type":"bytes[]","internalType":"bytes[]"},{"name":"descriptionHash","type":"bytes32","internalType":"bytes32"}],"outputs":[{"name":"","type":"uint256","internalType":"uint256"}],"stateMutability":"nonpayable"},{"type":"function","name":"quorum","inputs":[{"name":"timepoint","type":"uint256","internalType":"uint256"}],"outputs":[{"name":"","type":"uint256","internalType":"uint256"}],"stateMutability":"view"},{"type":"function","name":"quorumDenominator","inputs":[],"outputs":[{"name":"","type":"uint256","internalType":"uint256"}],"stateMutability":"view"},{"type":"function","name":"quorumNumerator","inputs":[{"name":"timepoint","type":"uint256","internalType":"uint256"}],"outputs":[{"name":"","type":"uint256","internalType":"uint256"}],"stateMutability":"view"},{"type":"function","name":"quorumNumerator","inputs":[],"outputs":[{"name":"","type":"uint256","internalType":"uint256"}],"stateMutability":"view"},{"type":"function","name":"relay","inputs":[{"name":"target","type":"address","internalType":"address"},{"name":"value","type":"uint256","internalType":"uint256"},{"name":"data","type":"bytes","internalType":"bytes"}],"outputs":[],"stateMutability":"payable"},{"type":"function","name":"state","inputs":[{"name":"proposalId","type":"uint256","internalType":"uint256"}],"outputs":[{"name":"","type":"uint8","internalType":"enum IGovernor.ProposalState"}],"stateMutability":"view"},{"type":"function","name":"supportsInterface","inputs":[{"name":"interfaceId","type":"bytes4","internalType":"bytes4"}],"outputs":[{"name":"","type":"bool","internalType":"bool"}],"stateMutability":"view"},{"type":"function","name":"timelock","inputs":[],"outputs":[{"name":"","type":"address","internalType":"address"}],"stateMutability":"view"},{"type":"function","name":"token","inputs":[],"outputs":[{"name":"","type":"address","internalType":"contract IERC5805"}],"stateMutability":"view"},{"type":"function","name":"updateQuorumNumerator","inputs":[{"name":"newQuorumNumerator","type":"uint256","internalType":"uint256"}],"outputs":[],"stateMutability":"nonpayable"},{"type":"function","name":"updateTimelock","inputs":[{"name":"newTimelock","type":"address","internalType":"contract TimelockController"}],"outputs":[],"stateMutability":"nonpayable"},{"type":"function","name":"version","inputs":[],"outputs":[{"name":"","type":"string","internalType":"string"}],"stateMutability":"view"},{"type":"function","name":"votingDelay","inputs":[],"outputs":[{"name":"","type":"uint256","internalType":"uint256"}],"stateMutability":"view"},{"type":"function","name":"votingPeriod","inputs":[],"outputs":[{"name":"","type":"uint256","internalType":"uint256"}],"stateMutability":"view"},{"type":"event","name":"EIP712DomainChanged","inputs":[],"anonymous":false},{"type":"event","name":"ProposalCanceled","inputs":[{"name":"proposalId","type":"uint256","indexed":false,"internalType":"uint256"}],"anonymous":false},{"type":"event","name":"ProposalCreated","inputs":[{"name":"proposalId","type":"uint256","indexed":false,"internalType":"uint256"},{"name":"proposer","type":"address","indexed":false,"internalType":"address"},{"name":"targets","type":"address[]","indexed":false,"internalType":"address[]"},{"name":"values","type":"uint256[]","indexed":false,"internalType":"uint256[]"},{"name":"signatures","type":"string[]","indexed":false,"internalType":"string[]"},{"name":"calldatas","type":"bytes[]","indexed":false,"internalType":"bytes[]"},{"name":"voteStart","type":"uint256","indexed":false,"internalType":"uint256"},{"name":"voteEnd","type":"uint256","indexed":false,"internalType":"uint256"},{"name":"description","type":"string","indexed":false,"internalType":"string"}],"anonymous":false},{"type":"event","name":"ProposalExecuted","inputs":[{"name":"proposalId","type":"uint256","indexed":false,"internalType":"uint256"}],"anonymous":false},{"type":"event","name":"ProposalQueued","inputs":[{"name":"proposalId","type":"uint256","indexed":false,"internalType":"uint256"},{"name":"etaSeconds","type":"uint256","indexed":false,"internalType":"uint256"}],"anonymous":false},{"type":"event","name":"QuorumNumeratorUpdated","inputs":[{"name":"oldQuorumNumerator","type":"uint256","indexed":false,"internalType":"uint256"},{"name":"newQuorumNumerator","type":"uint256","indexed":false,"internalType":"uint256"}],"anonymous":false},{"type":"event","name":"TimelockChange","inputs":[{"name":"oldTimelock","type":"address","indexed":false,"internalType":"address"},{"name":"newTimelock","type":"address","indexed":false,"internalType":"address"}],"anonymous":false},{"type":"event","name":"VoteCast","inputs":[{"name":"voter","type":"address","indexed":true,"internalType":"address"},{"name":"proposalId","type":"uint256","indexed":false,"internalType":"uint256"},{"name":"support","type":"uint8","indexed":false,"internalType":"uint8"},{"name":"weight","type":"uint256","indexed":false,"internalType":"uint256"},{"name":"reason","type":"string","indexed":false,"internalType":"string"}],"anonymous":false},{"type":"event","name":"VoteCastWithParams","inputs":[{"name":"voter","type":"address","indexed":true,"internalType":"address"},{"name":"proposalId","type":"uint256","indexed":false,"internalType":"uint256"},{"name":"support","type":"uint8","indexed":false,"internalType":"uint8"},{"name":"weight","type":"uint256","indexed":false,"internalType":"uint256"},{"name":"reason","type":"string","indexed":false,"internalType":"string"},{"name":"params","type":"bytes","indexed":false,"internalType":"bytes"}],"anonymous":false},{"type":"error","name":"CheckpointUnorderedInsertion","inputs":[]},{"type":"error","name":"FailedCall","inputs":[]},{"type":"error","name":"GovernorAlreadyCastVote","inputs":[{"name":"voter","type":"address","internalType":"address"}]},{"type":"error","name":"GovernorAlreadyQueuedProposal","inputs":[{"name":"proposalId","type":"uint256","internalType":"uint256"}]},{"type":"error","name":"GovernorDisabledDeposit","inputs":[]},{"type":"error","name":"GovernorInsufficientProposerVotes","inputs":[{"name":"proposer","type":"address","internalType":"address"},{"name":"votes","type":"uint256","internalType":"uint256"},{"name":"threshold","type":"uint256","internalType":"uint256"}]},{"type":"error","name":"GovernorInvalidProposalLength","inputs":[{"name":"targets","type":"uint256","internalType":"uint256"},{"name":"calldatas","type":"uint256","internalType":"uint256"},{"name":"values","type":"uint256","internalType":"uint256"}]},{"type":"error","name":"GovernorInvalidQuorumFraction","inputs":[{"name":"quorumNumerator","type":"uint256","internalType":"uint256"},{"name":"quorumDenominator","type":"uint256","internalType":"uint256"}]},{"type":"error","name":"GovernorInvalidSignature","inputs":[{"name":"voter","type":"address","internalType":"address"}]},{"type":"error","name":"GovernorInvalidVoteParams","inputs":[]},{"type":"error","name":"GovernorInvalidVoteType","inputs":[]},{"type":"error","name":"GovernorInvalidVotingPeriod","inputs":[{"name":"votingPeriod","type":"uint256","internalType":"uint256"}]},{"type":"error","name":"GovernorNonexistentProposal","inputs":[{"name":"proposalId","type":"uint256","internalType":"uint256"}]},{"type":"error","name":"GovernorNotQueuedProposal","inputs":[{"name":"proposalId","type":"uint256","internalType":"uint256"}]},{"type":"error","name":"GovernorOnlyExecutor","inputs":[{"name":"account","type":"address","internalType":"address"}]},{"type":"error","name":"GovernorQueueNotImplemented","inputs":[]},{"type":"error","name":"GovernorRestrictedProposer","inputs":[{"name":"proposer","type":"address","internalType":"address"}]},{"type":"error","name":"GovernorUnableToCancel","inputs":[{"name":"proposalId","type":"uint256","internalType":"uint256"},{"name":"account","type":"address","internalType":"address"}]},{"type":"error","name":"GovernorUnexpectedProposalState","inputs":[{"name":"proposalId","type":"uint256","internalType":"uint256"},{"name":"current","type":"uint8","internalType":"enum IGovernor.ProposalState"},{"name":"expectedStates","type":"bytes32","internalType":"bytes32"}]},{"type":"error","name":"InvalidAccountNonce","inputs":[{"name":"account","type":"address","internalType":"address"},{"name":"currentNonce","type":"uint256","internalType":"uint256"}]},{"type":"error","name":"InvalidShortString","inputs":[]},{"type":"error","name":"SafeCastOverflowedUintDowncast","inputs":[{"name":"bits","type":"uint8","internalType":"uint8"},{"name":"value","type":"uint256","internalType":"uint256"}]},{"type":"error","name":"StringTooLong","inputs":[{"name":"str","type":"string","internalType":"string"}]}],"bytecode":{"object":"0x6101c0604052348015610010575f5ffd5b5060405161494638038061494683398101604081905261002f916105e4565b8381866040518060400160405280600f81526020016e223ab0b62b269023b7bb32b93737b960891b8152508061006961016760201b60201c565b610073825f610182565b61012052610082816001610182565b61014052815160208084019190912060e052815190820120610100524660a05261010e60e05161010051604080517f8b73c3c69bb8fe3d512ecc4cf759cc79239f7b179b0ffacaa9a75d522b39400f60208201529081019290925260608201524660808201523060a08201525f9060c00160405160208183030381529060405280519060200120905090565b60805250503060c052600361012382826106e7565b50506001600160a01b03166101605261013b816101b4565b506101458161024e565b505065ffffffffffff9091166101805263ffffffff166101a052506108319050565b6040805180820190915260018152603160f81b602082015290565b5f60208351101561019d57610196836102b7565b90506101ae565b816101a884826106e7565b5060ff90505b92915050565b6064808211156101e65760405163243e544560e01b815260048101839052602481018290526044015b60405180910390fd5b5f6101ef6102f4565b905061020e6101fc61030d565b61020585610387565b600891906103be565b505060408051828152602081018590527f0553476bf02ef2726e8ce5ced78d63e26e602e4a2257b1f559418e24b4633997910160405180910390a1505050565b600954604080516001600160a01b03928316815291831660208301527f08f74ea46ef7894f65eabfb5e6e695de773a000b47c529ab559178069b226401910160405180910390a1600980546001600160a01b0319166001600160a01b0392909216919091179055565b5f5f829050601f815111156102e1578260405163305a27a960e01b81526004016101dd91906107a1565b80516102ec826107d6565b179392505050565b5f6102ff60086103d8565b6001600160d01b0316905090565b5f6103186101605190565b6001600160a01b03166391ddadf46040518163ffffffff1660e01b8152600401602060405180830381865afa925050508015610371575060408051601f3d908101601f1916820190925261036e918101906107f9565b60015b6103825761037d610420565b905090565b919050565b5f6001600160d01b038211156103ba576040516306dfcc6560e41b815260d06004820152602481018390526044016101dd565b5090565b5f806103cb85858561042a565b915091505b935093915050565b80545f908015610417576103fe836103f1600184610812565b5f91825260209091200190565b54660100000000000090046001600160d01b0316610419565b5f5b9392505050565b5f61037d43610586565b82545f9081908015610529575f610446876103f1600185610812565b805490915065ffffffffffff80821691660100000000000090046001600160d01b031690881682111561048c57604051632520601d60e01b815260040160405180910390fd5b8765ffffffffffff168265ffffffffffff16036104c857825465ffffffffffff1666010000000000006001600160d01b0389160217835561051b565b6040805180820190915265ffffffffffff808a1682526001600160d01b03808a1660208085019182528d54600181018f555f8f815291909120945191519092166601000000000000029216919091179101555b94508593506103d092505050565b50506040805180820190915265ffffffffffff80851682526001600160d01b0380851660208085019182528854600181018a555f8a81529182209551925190931666010000000000000291909316179201919091559050816103d0565b5f65ffffffffffff8211156103ba576040516306dfcc6560e41b815260306004820152602481018390526044016101dd565b6001600160a01b03811681146105cc575f5ffd5b50565b805165ffffffffffff81168114610382575f5ffd5b5f5f5f5f5f60a086880312156105f8575f5ffd5b8551610603816105b8565b6020870151909550610614816105b8565b9350610622604087016105cf565b9250606086015163ffffffff8116811461063a575f5ffd5b80925050608086015190509295509295909350565b634e487b7160e01b5f52604160045260245ffd5b600181811c9082168061067757607f821691505b60208210810361069557634e487b7160e01b5f52602260045260245ffd5b50919050565b601f8211156106e257805f5260205f20601f840160051c810160208510156106c05750805b601f840160051c820191505b818110156106df575f81556001016106cc565b50505b505050565b81516001600160401b038111156107005761070061064f565b6107148161070e8454610663565b8461069b565b6020601f821160018114610746575f831561072f5750848201515b5f19600385901b1c1916600184901b1784556106df565b5f84815260208120601f198516915b828110156107755787850151825560209485019460019092019101610755565b508482101561079257868401515f19600387901b60f8161c191681555b50505050600190811b01905550565b602081525f82518060208401528060208501604085015e5f604082850101526040601f19601f83011684010191505092915050565b80516020808301519190811015610695575f1960209190910360031b1b16919050565b5f60208284031215610809575f5ffd5b610419826105cf565b818103818111156101ae57634e487b7160e01b5f52601160045260245ffd5b60805160a05160c05160e05161010051610120516101405161016051610180516101a05161407c6108ca5f395f81816102f50152611af101525f818161047f0152611aab01525f818161096f01528181610dc50152818161110d015281816113a60152611d3101525f611c7501525f611c4901525f612c1601525f612bee01525f612b4901525f612b7301525f612b9d015261407c5ff3fe608060405260043610610278575f3560e01c80637ecebe001161014a578063b58131b0116100be578063dd4e2ba511610078578063dd4e2ba51461088c578063deaaa7cc146108d1578063eb9019d414610904578063f23a6e6114610923578063f8ce560a14610942578063fc0c546a14610961575f5ffd5b8063b58131b0146107ed578063bc197c81146107ff578063c01f9e371461081e578063c28bc2fa1461083d578063c59057e414610850578063d33219b41461086f575f5ffd5b80639a802a6d1161010f5780639a802a6d14610727578063a7713a7014610746578063a890c9101461075a578063a8f8a66814610779578063a9a9529414610798578063ab58fb8e146107b7575f5ffd5b80637ecebe001461066f57806384b0196e146106a35780638ff262e3146106ca57806391ddadf4146106e957806397c3d33414610714575f5ffd5b80633e4f49e6116101ec57806356781388116101a657806356781388146105b55780635b8d0e0d146105d45780635f398a14146105f357806360c4247f146106125780637b3c71d3146106315780637d5e81e214610650575f5ffd5b80633e4f49e6146104ab57806343859632146104d7578063452115d61461051f5780634bf5d7e91461053e578063544ffc9c1461055257806354fd4d501461058c575f5ffd5b8063150b7a021161023d578063150b7a02146103b5578063160cbed7146103ed5780632656227d1461040c5780632d63f6931461041f5780632fe3e2611461043e5780633932abb114610471575f5ffd5b806301ffc9a7146102b357806302a251a3146102e757806306f3f9e61461032957806306fdde0314610348578063143489d014610369575f5ffd5b366102af5730610286610993565b6001600160a01b0316146102ad57604051637485328f60e11b815260040160405180910390fd5b005b5f5ffd5b3480156102be575f5ffd5b506102d26102cd366004613113565b6109ab565b60405190151581526020015b60405180910390f35b3480156102f2575f5ffd5b507f000000000000000000000000000000000000000000000000000000000000000063ffffffff165b6040519081526020016102de565b348015610334575f5ffd5b506102ad61034336600461313a565b610a17565b348015610353575f5ffd5b5061035c610a2b565b6040516102de919061317f565b348015610374575f5ffd5b5061039d61038336600461313a565b5f908152600460205260409020546001600160a01b031690565b6040516001600160a01b0390911681526020016102de565b3480156103c0575f5ffd5b506103d46103cf366004613268565b610abb565b6040516001600160e01b031990911681526020016102de565b3480156103f8575f5ffd5b5061031b61040736600461342e565b610afd565b61031b61041a36600461342e565b610bc9565b34801561042a575f5ffd5b5061031b61043936600461313a565b610d31565b348015610449575f5ffd5b5061031b7f3e83946653575f9a39005e1545185629e92736b7528ab20ca3816f315424a81181565b34801561047c575f5ffd5b507f000000000000000000000000000000000000000000000000000000000000000065ffffffffffff1661031b565b3480156104b6575f5ffd5b506104ca6104c536600461313a565b610d51565b6040516102de91906134f5565b3480156104e2575f5ffd5b506102d26104f1366004613503565b5f8281526007602090815260408083206001600160a01b038516845260030190915290205460ff1692915050565b34801561052a575f5ffd5b5061031b61053936600461342e565b610d5b565b348015610549575f5ffd5b5061035c610dc1565b34801561055d575f5ffd5b5061057161056c36600461313a565b610e81565b604080519384526020840192909252908201526060016102de565b348015610597575f5ffd5b506040805180820190915260018152603160f81b602082015261035c565b3480156105c0575f5ffd5b5061031b6105cf366004613541565b610ea6565b3480156105df575f5ffd5b5061031b6105ee3660046135af565b610ecd565b3480156105fe575f5ffd5b5061031b61060d36600461366b565b610f8a565b34801561061d575f5ffd5b5061031b61062c36600461313a565b610fd2565b34801561063c575f5ffd5b5061031b61064b3660046136ec565b610fde565b34801561065b575f5ffd5b5061031b61066a366004613741565b61102e565b34801561067a575f5ffd5b5061031b6106893660046137fd565b6001600160a01b03165f9081526002602052604090205490565b3480156106ae575f5ffd5b506106b7611070565b6040516102de9796959493929190613852565b3480156106d5575f5ffd5b5061031b6106e43660046138c1565b6110b2565b3480156106f4575f5ffd5b506106fd61110a565b60405165ffffffffffff90911681526020016102de565b34801561071f575f5ffd5b50606461031b565b348015610732575f5ffd5b5061031b61074136600461390e565b611191565b348015610751575f5ffd5b5061031b6111a7565b348015610765575f5ffd5b506102ad6107743660046137fd565b6111c0565b348015610784575f5ffd5b5061031b61079336600461342e565b6111d1565b3480156107a3575f5ffd5b506102d26107b236600461313a565b6111de565b3480156107c2575f5ffd5b5061031b6107d136600461313a565b5f9081526004602052604090206001015465ffffffffffff1690565b3480156107f8575f5ffd5b505f61031b565b34801561080a575f5ffd5b506103d4610819366004613962565b6111e6565b348015610829575f5ffd5b5061031b61083836600461313a565b611229565b6102ad61084b3660046139f9565b61126b565b34801561085b575f5ffd5b5061031b61086a36600461342e565b6112e7565b34801561087a575f5ffd5b506009546001600160a01b031661039d565b348015610897575f5ffd5b506040805180820190915260208082527f737570706f72743d627261766f2671756f72756d3d666f722c6162737461696e9082015261035c565b3480156108dc575f5ffd5b5061031b7ff2aad550cf55f045cb27e9c559f9889fdfb6e6cdaa032301d6ea397784ae51d781565b34801561090f575f5ffd5b5061031b61091e366004613a38565b611320565b34801561092e575f5ffd5b506103d461093d366004613a62565b61133f565b34801561094d575f5ffd5b5061031b61095c36600461313a565b611382565b34801561096c575f5ffd5b507f000000000000000000000000000000000000000000000000000000000000000061039d565b5f6109a66009546001600160a01b031690565b905090565b5f6001600160e01b031982166366defe7760e11b14806109db57506001600160e01b031982166332a2ad4360e11b145b806109f657506001600160e01b03198216630271189760e51b145b80610a1157506301ffc9a760e01b6001600160e01b03198316145b92915050565b610a1f61141f565b610a2881611498565b50565b606060038054610a3a90613ab9565b80601f0160208091040260200160405190810160405280929190818152602001828054610a6690613ab9565b8015610ab15780601f10610a8857610100808354040283529160200191610ab1565b820191905f5260205f20905b815481529060010190602001808311610a9457829003601f168201915b5050505050905090565b5f30610ac5610993565b6001600160a01b031614610aec57604051637485328f60e11b815260040160405180910390fd5b50630a85bd0160e11b949350505050565b5f5f610b0b868686866111d1565b9050610b2081610b1b600461152d565b61154f565b505f610b2f828888888861158c565b905065ffffffffffff811615610ba6575f82815260046020908152604091829020600101805465ffffffffffff191665ffffffffffff85169081179091558251858152918201527f9a2e42fd6722813d69113e7d0079d3d940171428df7373df9c7f7617cfda2892910160405180910390a1610bbf565b604051634844252360e11b815260040160405180910390fd5b5095945050505050565b5f5f610bd7868686866111d1565b9050610bf781610be7600561152d565b610bf1600461152d565b1761154f565b505f818152600460205260409020805460ff60f01b1916600160f01b17905530610c1f610993565b6001600160a01b031614610ca8575f5b8651811015610ca657306001600160a01b0316878281518110610c5457610c54613af1565b60200260200101516001600160a01b031603610c9e57610c9e858281518110610c7f57610c7f613af1565b602002602001015180519060200120600561159a90919063ffffffff16565b600101610c2f565b505b610cb581878787876115bb565b30610cbe610993565b6001600160a01b031614158015610cea57506005546001600160801b03808216600160801b9092041614155b15610cf4575f6005555b6040518181527f712ae1383f79ac853f8d882153778e0260ef8f03b504e2866e0593e04d2b291f906020015b60405180910390a195945050505050565b5f90815260046020526040902054600160a01b900465ffffffffffff1690565b5f610a11826115cf565b5f5f610d69868686866111d1565b905033610d768282611708565b610daa57604051638fe5d8a960e01b8152600481018390526001600160a01b03821660248201526044015b60405180910390fd5b610db68787878761174d565b979650505050505050565b60607f00000000000000000000000000000000000000000000000000000000000000006001600160a01b0316634bf5d7e96040518163ffffffff1660e01b81526004015f60405180830381865afa925050508015610e4057506040513d5f823e601f3d908101601f19168201604052610e3d9190810190613b05565b60015b610e7c575060408051808201909152601d81527f6d6f64653d626c6f636b6e756d6265722666726f6d3d64656661756c74000000602082015290565b919050565b5f818152600760205260409020805460018201546002909201549091905b9193909250565b5f80339050610ec584828560405180602001604052805f81525061175a565b949350505050565b5f610f1388888888888080601f0160208091040260200160405190810160405280939291908181526020018383808284375f920191909152508a925089915061177b9050565b610f3b576040516394ab6c0760e01b81526001600160a01b0387166004820152602401610da1565b610f7e88878988888080601f0160208091040260200160405190810160405280939291908181526020018383808284375f920191909152508a9250611848915050565b98975050505050505050565b5f80339050610db687828888888080601f0160208091040260200160405190810160405280939291908181526020018383808284375f920191909152508a9250611848915050565b5f610a11600883611926565b5f8033905061102486828787878080601f0160208091040260200160405190810160405280939291908181526020018383808284375f9201919091525061175a92505050565b9695505050505050565b5f3361103a8184611973565b6110625760405163d9b3955760e01b81526001600160a01b0382166004820152602401610da1565b5f610db687878787866119f7565b5f6060805f5f5f6060611081611c42565b611089611c6e565b604080515f80825260208201909252600f60f81b9b939a50919850469750309650945092509050565b5f6110bf85858585611c9b565b6110e7576040516394ab6c0760e01b81526001600160a01b0384166004820152602401610da1565b61110185848660405180602001604052805f81525061175a565b95945050505050565b5f7f00000000000000000000000000000000000000000000000000000000000000006001600160a01b03166391ddadf46040518163ffffffff1660e01b8152600401602060405180830381865afa925050508015611185575060408051601f3d908101601f1916820190925261118291810190613b8d565b60015b610e7c576109a6611d24565b5f61119d848484611d2e565b90505b9392505050565b5f6111b26008611dc1565b6001600160d01b0316905090565b6111c861141f565b610a2881611e05565b5f611101858585856112e7565b5f6001610a11565b5f306111f0610993565b6001600160a01b03161461121757604051637485328f60e11b815260040160405180910390fd5b5063bc197c8160e01b95945050505050565b5f8181526004602052604081205461125d90600160d01b810463ffffffff1690600160a01b900465ffffffffffff16613bb2565b65ffffffffffff1692915050565b61127361141f565b5f5f856001600160a01b0316858585604051611290929190613bd0565b5f6040518083038185875af1925050503d805f81146112ca576040519150601f19603f3d011682016040523d82523d5f602084013e6112cf565b606091505b50915091506112de8282611e6e565b50505050505050565b5f848484846040516020016112ff9493929190613c72565b60408051601f19818403018152919052805160209091012095945050505050565b5f6111a0838361133a60408051602081019091525f815290565b611d2e565b5f30611349610993565b6001600160a01b03161461137057604051637485328f60e11b815260040160405180910390fd5b5063f23a6e6160e01b95945050505050565b604051632394e7a360e21b8152600481018290525f90610a11906001600160a01b037f00000000000000000000000000000000000000000000000000000000000000001690638e539e8c90602401602060405180830381865afa1580156113eb573d5f5f3e3d5ffd5b505050506040513d601f19601f8201168201806040525081019061140f9190613cbc565b61141884610fd2565b6064611eab565b33611428610993565b6001600160a01b031614611451576040516347096e4760e01b8152336004820152602401610da1565b3061145a610993565b6001600160a01b031614611496575f8036604051611479929190613bd0565b604051809103902090505b8061148f6005611f5b565b0361148457505b565b6064808211156114c55760405163243e544560e01b81526004810183905260248101829052604401610da1565b5f6114ce6111a7565b90506114ed6114db61110a565b6114e485611f7a565b60089190611fb1565b505060408051828152602081018590527f0553476bf02ef2726e8ce5ced78d63e26e602e4a2257b1f559418e24b4633997910160405180910390a1505050565b5f816007811115611540576115406134c1565b600160ff919091161b92915050565b5f5f61155a84610d51565b90505f836115678361152d565b16036111a0578381846040516331b75e4d60e01b8152600401610da193929190613cd3565b5f6110248686868686611fcb565b5f6115a5838361215c565b9050806115b6576115b660416121c1565b505050565b6115c885858585856121d2565b5050505050565b5f5f6115da83612262565b905060058160078111156115f0576115f06134c1565b146115fb5792915050565b5f838152600a602052604090819020546009549151632c258a9f60e11b81526004810182905290916001600160a01b03169063584b153e90602401602060405180830381865afa158015611651573d5f5f3e3d5ffd5b505050506040513d601f19601f820116820180604052508101906116759190613cf5565b15611684575060059392505050565b600954604051632ab0f52960e01b8152600481018390526001600160a01b0390911690632ab0f52990602401602060405180830381865afa1580156116cb573d5f5f3e3d5ffd5b505050506040513d601f19601f820116820180604052508101906116ef9190613cf5565b156116fe575060079392505050565b5060029392505050565b5f8061171384610d51565b6007811115611724576117246134c1565b1480156111a05750505f91825260046020526040909120546001600160a01b0391821691161490565b5f61110185858585612393565b5f6111018585858561177660408051602081019091525f815290565b611848565b5f610db6856118427f3e83946653575f9a39005e1545185629e92736b7528ab20ca3816f315424a8118a8a8a6117cd8c6001600160a01b03165f90815260026020526040902080546001810190915590565b8b516020808e01919091208c518d83012060405161182798979695949301968752602087019590955260ff9390931660408601526001600160a01b03919091166060850152608084015260a083015260c082015260e00190565b6040516020818303038152906040528051906020012061242a565b84612456565b5f61185786610b1b600161152d565b505f61186c8661186689610d31565b85611d2e565b90505f61187c88888885886124c6565b905083515f036118d257866001600160a01b03167fb8e138887d0aa13bab447e82de9d5c1777041ecd21ca36ba824ff1e6c07ddda4898884896040516118c59493929190613d14565b60405180910390a2610db6565b866001600160a01b03167fe2babfbac5889a709b63bb7f598b324e08bc5a4fb9ec647fb3cbc9ec07eb87128988848989604051611913959493929190613d3b565b60405180910390a2979650505050505050565b5f5f5f611932856125c2565b9250925050838265ffffffffffff16111561195f5761195a6119538561261a565b869061264c565b611961565b805b6001600160d01b031695945050505050565b80515f90603481101561198a576001915050610a11565b60131981840101516001600160b01b03198116692370726f706f7365723d60b01b146119bb57600192505050610a11565b5f5f6119cb86602a8603866126ee565b91509150811580610db65750866001600160a01b0316816001600160a01b031614979650505050505050565b5f611a0b86868686805190602001206111d1565b905084518651141580611a2057508351865114155b80611a2a57508551155b15611a5f57855184518651604051630447b05d60e41b8152600481019390935260248301919091526044820152606401610da1565b5f81815260046020526040902054600160a01b900465ffffffffffff1615611aa85780611a8b82610d51565b6040516331b75e4d60e01b8152610da19291905f90600401613cd3565b5f7f000000000000000000000000000000000000000000000000000000000000000065ffffffffffff16611ada61110a565b65ffffffffffff16611aec9190613d74565b90505f7f000000000000000000000000000000000000000000000000000000000000000063ffffffff165f84815260046020526040902080546001600160a01b0319166001600160a01b038716178155909150611b488361261a565b815465ffffffffffff91909116600160a01b0265ffffffffffff60a01b19909116178155611b7582612797565b815463ffffffff91909116600160d01b0263ffffffff60d01b1990911617815588517f7d84a6263ae0d98d3329bd7b46bb4e8d6f98cd35a7adb45c274c8b7fd5ebd5e090859087908c908c906001600160401b03811115611bd857611bd86131a5565b604051908082528060200260200182016040528015611c0b57816020015b6060815260200190600190039081611bf65790505b508c89611c188a82613d74565b8e604051611c2e99989796959493929190613d87565b60405180910390a150505095945050505050565b60606109a67f00000000000000000000000000000000000000000000000000000000000000005f6127c7565b60606109a67f000000000000000000000000000000000000000000000000000000000000000060016127c7565b5f611101836118427ff2aad550cf55f045cb27e9c559f9889fdfb6e6cdaa032301d6ea397784ae51d7888888611ced8a6001600160a01b03165f90815260026020526040902080546001810190915590565b60408051602081019690965285019390935260ff90911660608401526001600160a01b0316608083015260a082015260c001611827565b5f6109a64361261a565b5f7f0000000000000000000000000000000000000000000000000000000000000000604051630748d63560e31b81526001600160a01b038681166004830152602482018690529190911690633a46b1a890604401602060405180830381865afa158015611d9d573d5f5f3e3d5ffd5b505050506040513d601f19601f8201168201806040525081019061119d9190613cbc565b80545f908015611dfd57611de783611dda600184613e62565b5f91825260209091200190565b54600160301b90046001600160d01b03166111a0565b5f9392505050565b600954604080516001600160a01b03928316815291831660208301527f08f74ea46ef7894f65eabfb5e6e695de773a000b47c529ab559178069b226401910160405180910390a1600980546001600160a01b0319166001600160a01b0392909216919091179055565b60608215611e7d575080610a11565b815115611e9257611e8d82612870565b610a11565b60405163d6bda27560e01b815260040160405180910390fd5b5f5f5f611eb88686612878565b91509150815f03611edc57838181611ed257611ed2613e75565b04925050506111a0565b818411611ef357611ef360038515026011186121c1565b5f848688095f868103871696879004966002600389028118808a02820302808a02820302808a02820302808a02820302808a02820302808a02909103029181900381900460010185841190960395909502919093039390930492909217029150509392505050565b5f5f5f611f6784612894565b91509150816111a0576111a060316121c1565b5f6001600160d01b03821115611fad576040516306dfcc6560e41b815260d0600482015260248101839052604401610da1565b5090565b5f80611fbe858585612908565b915091505b935093915050565b5f5f60095f9054906101000a90046001600160a01b03166001600160a01b031663f27a0c926040518163ffffffff1660e01b8152600401602060405180830381865afa15801561201d573d5f5f3e3d5ffd5b505050506040513d601f19601f820116820180604052508101906120419190613cbc565b90505f3060601b6bffffffffffffffffffffffff1916841860095460405163b1c5f42760e01b81529192506001600160a01b03169063b1c5f42790612092908a908a908a905f908890600401613e89565b602060405180830381865afa1580156120ad573d5f5f3e3d5ffd5b505050506040513d601f19601f820116820180604052508101906120d19190613cbc565b5f898152600a60205260408082209290925560095491516308f2a0bb60e41b81526001600160a01b0390921691638f2a0bb09161211b918b918b918b919088908a90600401613ed6565b5f604051808303815f87803b158015612132575f5ffd5b505af1158015612144573d5f5f3e3d5ffd5b50505050610f7e82426121579190613d74565b61261a565b81545f906001600160801b03600160801b820481169181166001830190911603612189575f915050610a11565b6001600160801b038181165f908152600186810160205260409091209490945584549184018116600160801b02911617909255919050565b634e487b715f52806020526024601cfd5b6009546001600160a01b031663e38335e5348686865f3060601b6bffffffffffffffffffffffff191688186040518763ffffffff1660e01b815260040161221d959493929190613e89565b5f604051808303818588803b158015612234575f5ffd5b505af1158015612246573d5f5f3e3d5ffd5b5050505f9687525050600a602052505060408320929092555050565b5f818152600460205260408120805460ff600160f01b8204811691600160f81b900416811561229657506007949350505050565b80156122a757506002949350505050565b5f6122b186610d31565b9050805f036122d657604051636ad0607560e01b815260048101879052602401610da1565b5f6122df61110a565b65ffffffffffff1690508082106122fc57505f9695505050505050565b5f61230688611229565b905081811061231d57506001979650505050505050565b61232688612a58565b158061234557505f888152600760205260409020805460019091015411155b1561235857506003979650505050505050565b5f8881526004602052604090206001015465ffffffffffff165f0361238557506004979650505050505050565b506005979650505050505050565b5f5f6123a186868686612a8e565b5f818152600a60205260409020549091508015610bbf5760095460405163c4d252f560e01b8152600481018390526001600160a01b039091169063c4d252f5906024015f604051808303815f87803b1580156123fb575f5ffd5b505af115801561240d573d5f5f3e3d5ffd5b5050505f838152600a602052604081205550509050949350505050565b5f610a11612436612b3d565b8360405161190160f01b8152600281019290925260228201526042902090565b5f836001600160a01b03163b5f036124b4575f5f6124748585612c66565b5090925090505f81600381111561248d5761248d6134c1565b1480156124ab5750856001600160a01b0316826001600160a01b0316145b925050506111a0565b6124bf848484612caf565b90506111a0565b5f8581526007602090815260408083206001600160a01b03881684526003810190925282205460ff1615612518576040516371c6af4960e01b81526001600160a01b0387166004820152602401610da1565b6001600160a01b0386165f9081526003820160205260409020805460ff1916600117905560ff85166125615783815f015f8282546125569190613d74565b909155506125b79050565b5f1960ff86160161257f5783816001015f8282546125569190613d74565b60011960ff86160161259e5783816002015f8282546125569190613d74565b6040516303599be160e11b815260040160405180910390fd5b509195945050505050565b80545f90819081908082036125e0575f5f5f93509350935050610e9f565b5f6125f086611dda600185613e62565b546001955065ffffffffffff81169450600160301b90046001600160d01b03169250610e9f915050565b5f65ffffffffffff821115611fad576040516306dfcc6560e41b81526030600482015260248101839052604401610da1565b81545f90818160058111156126a8575f61266584612d00565b61266f9085613e62565b5f8881526020902090915081015465ffffffffffff9081169087161015612698578091506126a6565b6126a3816001613d74565b92505b505b5f6126b587878585612e58565b905080156126e2576126cc87611dda600184613e62565b54600160301b90046001600160d01b0316610db6565b505f9695505050505050565b5f5f84518311806126fe57508284115b1561270d57505f905080611fc3565b5f612719856001613d74565b84118015612741575061060f60f31b6127358787016020015190565b6001600160f01b031916145b90505f6127518215156002613f2d565b61275c906028613d74565b9050806127698787613e62565b0361278a575f5f61277b898989612eae565b9096509450611fc39350505050565b5f5f935093505050611fc3565b5f63ffffffff821115611fad576040516306dfcc6560e41b81526020600482015260248101839052604401610da1565b606060ff83146127e1576127da83612f6f565b9050610a11565b8180546127ed90613ab9565b80601f016020809104026020016040519081016040528092919081815260200182805461281990613ab9565b80156128645780601f1061283b57610100808354040283529160200191612864565b820191905f5260205f20905b81548152906001019060200180831161284757829003601f168201915b50505050509050610a11565b805160208201fd5b5f805f1983850993909202808410938190039390930393915050565b80545f9081906001600160801b0380821691600160801b90041681036128bf57505f93849350915050565b6001600160801b038181165f908152600186810160205260408220805492905586546fffffffffffffffffffffffffffffffff1916938101909216929092179094559293915050565b82545f90819080156129fe575f61292487611dda600185613e62565b805490915065ffffffffffff80821691600160301b90046001600160d01b031690881682111561296757604051632520601d60e01b815260040160405180910390fd5b8765ffffffffffff168265ffffffffffff16036129a057825465ffffffffffff16600160301b6001600160d01b038916021783556129f0565b6040805180820190915265ffffffffffff808a1682526001600160d01b03808a1660208085019182528d54600181018f555f8f81529190912094519151909216600160301b029216919091179101555b9450859350611fc392505050565b50506040805180820190915265ffffffffffff80851682526001600160d01b0380851660208085019182528854600181018a555f8a815291822095519251909316600160301b029190931617920191909155905081611fc3565b5f81815260076020526040812060028101546001820154612a799190613d74565b612a8561095c85610d31565b11159392505050565b5f5f612a9c868686866111d1565b9050612aea81612aac600761152d565b612ab6600661152d565b612ac0600261152d565b6001612acd600782613f44565b612ad8906002614038565b612ae29190613e62565b18181861154f565b505f818152600460205260409081902080546001600160f81b0316600160f81b179055517f789cf55be980739dad1d0699b93b58e806b51c9d96619bfa8fe0a28abaa7b30c90610d209083815260200190565b5f306001600160a01b037f000000000000000000000000000000000000000000000000000000000000000016148015612b9557507f000000000000000000000000000000000000000000000000000000000000000046145b15612bbf57507f000000000000000000000000000000000000000000000000000000000000000090565b6109a6604080517f8b73c3c69bb8fe3d512ecc4cf759cc79239f7b179b0ffacaa9a75d522b39400f60208201527f0000000000000000000000000000000000000000000000000000000000000000918101919091527f000000000000000000000000000000000000000000000000000000000000000060608201524660808201523060a08201525f9060c00160405160208183030381529060405280519060200120905090565b5f5f5f8351604103612c9d576020840151604085015160608601515f1a612c8f88828585612fac565b955095509550505050612ca8565b505081515f91506002905b9250925092565b805160408051630b135d3f60e11b8082526004820186905260248201929092525f92906020820185604483015e60205f60648401838a5afa9050825f5114601f3d1116811693505050509392505050565b5f60018211612d0d575090565b816001600160801b8210612d265760809190911c9060401b5b680100000000000000008210612d415760409190911c9060201b5b6401000000008210612d585760209190911c9060101b5b620100008210612d6d5760109190911c9060081b5b6101008210612d815760089190911c9060041b5b60108210612d945760049190911c9060021b5b60048210612da05760011b5b600302600190811c90818581612db857612db8613e75565b048201901c90506001818581612dd057612dd0613e75565b048201901c90506001818581612de857612de8613e75565b048201901c90506001818581612e0057612e00613e75565b048201901c90506001818581612e1857612e18613e75565b048201901c90506001818581612e3057612e30613e75565b048201901c9050612e4f818581612e4957612e49613e75565b04821190565b90039392505050565b5f5b81831015612ea6575f85815260209020838316600285851804019081015465ffffffffffff86811691161115612e9257809250612ea0565b612e9d816001613d74565b93505b50612e5a565b509392505050565b5f808481612ebd866001613d74565b85118015612ee5575061060f60f31b612ed98388016020015190565b6001600160f01b031916145b90505f612ef58215156002613f2d565b90505f80612f03838a613d74565b90505b87811015612f5e575f612f24612f1f8784016020015190565b613074565b9050600f8160ff161115612f43575f5f97509750505050505050611fc3565b612f4e601084613f2d565b60ff909116019150600101612f06565b506001999098509650505050505050565b60605f612f7b836130ec565b6040805160208082528183019092529192505f91906020820181803683375050509182525060208101929092525090565b5f80807f7fffffffffffffffffffffffffffffff5d576e7357a4501ddfe92f46681b20a0841115612fe557505f9150600390508261306a565b604080515f808252602082018084528a905260ff891692820192909252606081018790526080810186905260019060a0016020604051602081039080840390855afa158015613036573d5f5f3e3d5ffd5b5050604051601f1901519150506001600160a01b03811661306157505f92506001915082905061306a565b92505f91508190505b9450945094915050565b5f60f882901c602f8111801561308d5750603a8160ff16105b1561309b57602f1901610a11565b60608160ff161180156130b1575060678160ff16105b156130bf5760561901610a11565b60408160ff161180156130d5575060478160ff16105b156130e35760361901610a11565b5060ff92915050565b5f60ff8216601f811115610a1157604051632cd44ac360e21b815260040160405180910390fd5b5f60208284031215613123575f5ffd5b81356001600160e01b0319811681146111a0575f5ffd5b5f6020828403121561314a575f5ffd5b5035919050565b5f81518084528060208401602086015e5f602082860101526020601f19601f83011685010191505092915050565b602081525f6111a06020830184613151565b6001600160a01b0381168114610a28575f5ffd5b634e487b7160e01b5f52604160045260245ffd5b604051601f8201601f191681016001600160401b03811182821017156131e1576131e16131a5565b604052919050565b5f6001600160401b03821115613201576132016131a5565b50601f01601f191660200190565b5f61322161321c846131e9565b6131b9565b9050828152838383011115613234575f5ffd5b828260208301375f602084830101529392505050565b5f82601f830112613259575f5ffd5b6111a08383356020850161320f565b5f5f5f5f6080858703121561327b575f5ffd5b843561328681613191565b9350602085013561329681613191565b92506040850135915060608501356001600160401b038111156132b7575f5ffd5b6132c38782880161324a565b91505092959194509250565b5f6001600160401b038211156132e7576132e76131a5565b5060051b60200190565b5f82601f830112613300575f5ffd5b813561330e61321c826132cf565b8082825260208201915060208360051b86010192508583111561332f575f5ffd5b602085015b83811015610bbf57803561334781613191565b835260209283019201613334565b5f82601f830112613364575f5ffd5b813561337261321c826132cf565b8082825260208201915060208360051b860101925085831115613393575f5ffd5b602085015b83811015610bbf578035835260209283019201613398565b5f82601f8301126133bf575f5ffd5b81356133cd61321c826132cf565b8082825260208201915060208360051b8601019250858311156133ee575f5ffd5b602085015b83811015610bbf5780356001600160401b03811115613410575f5ffd5b61341f886020838a010161324a565b845250602092830192016133f3565b5f5f5f5f60808587031215613441575f5ffd5b84356001600160401b03811115613456575f5ffd5b613462878288016132f1565b94505060208501356001600160401b0381111561347d575f5ffd5b61348987828801613355565b93505060408501356001600160401b038111156134a4575f5ffd5b6134b0878288016133b0565b949793965093946060013593505050565b634e487b7160e01b5f52602160045260245ffd5b600881106134f157634e487b7160e01b5f52602160045260245ffd5b9052565b60208101610a1182846134d5565b5f5f60408385031215613514575f5ffd5b82359150602083013561352681613191565b809150509250929050565b803560ff81168114610e7c575f5ffd5b5f5f60408385031215613552575f5ffd5b8235915061356260208401613531565b90509250929050565b5f5f83601f84011261357b575f5ffd5b5081356001600160401b03811115613591575f5ffd5b6020830191508360208285010111156135a8575f5ffd5b9250929050565b5f5f5f5f5f5f5f60c0888a0312156135c5575f5ffd5b873596506135d560208901613531565b955060408801356135e581613191565b945060608801356001600160401b038111156135ff575f5ffd5b61360b8a828b0161356b565b90955093505060808801356001600160401b03811115613629575f5ffd5b6136358a828b0161324a565b92505060a08801356001600160401b03811115613650575f5ffd5b61365c8a828b0161324a565b91505092959891949750929550565b5f5f5f5f5f6080868803121561367f575f5ffd5b8535945061368f60208701613531565b935060408601356001600160401b038111156136a9575f5ffd5b6136b58882890161356b565b90945092505060608601356001600160401b038111156136d3575f5ffd5b6136df8882890161324a565b9150509295509295909350565b5f5f5f5f606085870312156136ff575f5ffd5b8435935061370f60208601613531565b925060408501356001600160401b03811115613729575f5ffd5b6137358782880161356b565b95989497509550505050565b5f5f5f5f60808587031215613754575f5ffd5b84356001600160401b03811115613769575f5ffd5b613775878288016132f1565b94505060208501356001600160401b03811115613790575f5ffd5b61379c87828801613355565b93505060408501356001600160401b038111156137b7575f5ffd5b6137c3878288016133b0565b92505060608501356001600160401b038111156137de575f5ffd5b8501601f810187136137ee575f5ffd5b6132c38782356020840161320f565b5f6020828403121561380d575f5ffd5b81356111a081613191565b5f8151808452602084019350602083015f5b8281101561384857815186526020958601959091019060010161382a565b5093949350505050565b60ff60f81b8816815260e060208201525f61387060e0830189613151565b82810360408401526138828189613151565b606084018890526001600160a01b038716608085015260a0840186905283810360c085015290506138b38185613818565b9a9950505050505050505050565b5f5f5f5f608085870312156138d4575f5ffd5b843593506138e460208601613531565b925060408501356138f481613191565b915060608501356001600160401b038111156132b7575f5ffd5b5f5f5f60608486031215613920575f5ffd5b833561392b81613191565b92506020840135915060408401356001600160401b0381111561394c575f5ffd5b6139588682870161324a565b9150509250925092565b5f5f5f5f5f60a08688031215613976575f5ffd5b853561398181613191565b9450602086013561399181613191565b935060408601356001600160401b038111156139ab575f5ffd5b6139b788828901613355565b93505060608601356001600160401b038111156139d2575f5ffd5b6139de88828901613355565b92505060808601356001600160401b038111156136d3575f5ffd5b5f5f5f5f60608587031215613a0c575f5ffd5b8435613a1781613191565b93506020850135925060408501356001600160401b03811115613729575f5ffd5b5f5f60408385031215613a49575f5ffd5b8235613a5481613191565b946020939093013593505050565b5f5f5f5f5f60a08688031215613a76575f5ffd5b8535613a8181613191565b94506020860135613a9181613191565b9350604086013592506060860135915060808601356001600160401b038111156136d3575f5ffd5b600181811c90821680613acd57607f821691505b602082108103613aeb57634e487b7160e01b5f52602260045260245ffd5b50919050565b634e487b7160e01b5f52603260045260245ffd5b5f60208284031215613b15575f5ffd5b81516001600160401b03811115613b2a575f5ffd5b8201601f81018413613b3a575f5ffd5b8051613b4861321c826131e9565b818152856020838501011115613b5c575f5ffd5b8160208401602083015e5f91810160200191909152949350505050565b634e487b7160e01b5f52601160045260245ffd5b5f60208284031215613b9d575f5ffd5b815165ffffffffffff811681146111a0575f5ffd5b65ffffffffffff8181168382160190811115610a1157610a11613b79565b818382375f9101908152919050565b5f8151808452602084019350602083015f5b828110156138485781516001600160a01b0316865260209586019590910190600101613bf1565b5f82825180855260208501945060208160051b830101602085015f5b83811015613c6657601f19858403018852613c50838351613151565b6020988901989093509190910190600101613c34565b50909695505050505050565b608081525f613c846080830187613bdf565b8281036020840152613c968187613818565b90508281036040840152613caa8186613c18565b91505082606083015295945050505050565b5f60208284031215613ccc575f5ffd5b5051919050565b83815260608101613ce760208301856134d5565b826040830152949350505050565b5f60208284031215613d05575f5ffd5b815180151581146111a0575f5ffd5b84815260ff84166020820152826040820152608060608201525f6110246080830184613151565b85815260ff8516602082015283604082015260a060608201525f613d6260a0830185613151565b8281036080840152610f7e8185613151565b80820180821115610a1157610a11613b79565b8981526001600160a01b0389166020820152610120604082018190525f90613db19083018a613bdf565b8281036060840152613dc3818a613818565b9050828103608084015280885180835260208301915060208160051b84010160208b015f5b83811015613e1a57601f19868403018552613e04838351613151565b6020958601959093509190910190600101613de8565b505085810360a0870152613e2e818b613c18565b93505050508560c08401528460e0840152828103610100840152613e528185613151565b9c9b505050505050505050505050565b81810381811115610a1157610a11613b79565b634e487b7160e01b5f52601260045260245ffd5b60a081525f613e9b60a0830188613bdf565b8281036020840152613ead8188613818565b90508281036040840152613ec18187613c18565b60608401959095525050608001529392505050565b60c081525f613ee860c0830189613bdf565b8281036020840152613efa8189613818565b90508281036040840152613f0e8188613c18565b60608401969096525050608081019290925260a0909101529392505050565b8082028115828204841417610a1157610a11613b79565b60ff8181168382160190811115610a1157610a11613b79565b6001815b6001841115611fc357808504811115613f7c57613f7c613b79565b6001841615613f8a57908102905b60019390931c928002613f61565b5f82613fa657506001610a11565b81613fb257505f610a11565b8160018114613fc85760028114613fd257613fee565b6001915050610a11565b60ff841115613fe357613fe3613b79565b50506001821b610a11565b5060208310610133831016604e8410600b8410161715614011575081810a610a11565b61401d5f198484613f5d565b805f190482111561403057614030613b79565b029392505050565b5f6111a060ff841683613f9856fea2646970667358221220f76a612056c8c50f412ebdd360f36d2eea37ec71903b0d01e5729a1d4f3e056c64736f6c634300081c0033","linkReferences":{}},"methodIdentifiers":{"BALLOT_TYPEHASH()":"deaaa7cc","CLOCK_MODE()":"4bf5d7e9","COUNTING_MODE()":"dd4e2ba5","EXTENDED_BALLOT_TYPEHASH()":"2fe3e261","cancel(address[],uint256[],bytes[],bytes32)":"452115d6","castVote(uint256,uint8)":"56781388","castVoteBySig(uint256,uint8,address,bytes)":"8ff262e3","castVoteWithReason(uint256,uint8,string)":"7b3c71d3","castVoteWithReasonAndParams(uint256,uint8,string,bytes)":"5f398a14","castVoteWithReasonAndParamsBySig(uint256,uint8,address,string,bytes,bytes)":"5b8d0e0d","clock()":"91ddadf4","eip712Domain()":"84b0196e","execute(address[],uint256[],bytes[],bytes32)":"2656227d","getProposalId(address[],uint256[],bytes[],bytes32)":"a8f8a668","getVotes(address,uint256)":"eb9019d4","getVotesWithParams(address,uint256,bytes)":"9a802a6d","hasVoted(uint256,address)":"43859632","hashProposal(address[],uint256[],bytes[],bytes32)":"c59057e4","name()":"06fdde03","nonces(address)":"7ecebe00","onERC1155BatchReceived(address,address,uint256[],uint256[],bytes)":"bc197c81","onERC1155Received(address,address,uint256,uint256,bytes)":"f23a6e61","onERC721Received(address,address,uint256,bytes)":"150b7a02","proposalDeadline(uint256)":"c01f9e37","proposalEta(uint256)":"ab58fb8e","proposalNeedsQueuing(uint256)":"a9a95294","proposalProposer(uint256)":"143489d0","proposalSnapshot(uint256)":"2d63f693","proposalThreshold()":"b58131b0","proposalVotes(uint256)":"544ffc9c","propose(address[],uint256[],bytes[],string)":"7d5e81e2","queue(address[],uint256[],bytes[],bytes32)":"160cbed7","quorum(uint256)":"f8ce560a","quorumDenominator()":"97c3d334","quorumNumerator()":"a7713a70","quorumNumerator(uint256)":"60c4247f","relay(address,uint256,bytes)":"c28bc2fa","state(uint256)":"3e4f49e6","supportsInterface(bytes4)":"01ffc9a7","timelock()":"d33219b4","token()":"fc0c546a","updateQuorumNumerator(uint256)":"06f3f9e6","updateTimelock(address)":"a890c910","version()":"54fd4d50","votingDelay()":"3932abb1","votingPeriod()":"02a251a3"},"id":13}