{"abi":[{"type":"constructor","inputs":[{"name":"authority_","type":"address","internalType":"address"}],"stateMutability":"nonpayable"},{"type":"function","name":"DEFAULT_HOOK_TYPE","inputs":[],"outputs":[{"name":"","type":"bytes32","internalType":"bytes32"}],"stateMutability":"view"},{"type":"function","name":"authority","inputs":[],"outputs":[{"name":"","type":"address","internalType":"address"}],"stateMutability":"view"},{"type":"function","name":"deregisterHook","inputs":[{"name":"hookType","type":"bytes32","internalType":"bytes32"}],"outputs":[],"stateMutability":"nonpayable"},{"type":"function","name":"executeHooks","inputs":[{"name":"hookType","type":"bytes32","internalType":"bytes32"},{"name":"data","type":"bytes","internalType":"bytes"}],"outputs":[],"stateMutability":"nonpayable"},{"type":"function","name":"getHook","inputs":[{"name":"hookType","type":"bytes32","internalType":"bytes32"}],"outputs":[{"name":"","type":"address","internalType":"address"}],"stateMutability":"view"},{"type":"function","name":"isConsumingScheduledOp","inputs":[],"outputs":[{"name":"","type":"bytes4","internalType":"bytes4"}],"stateMutability":"view"},{"type":"function","name":"notifyLiquidation","inputs":[{"name":"borrower","type":"address","internalType":"address"},{"name":"debtRepaid","type":"uint256","internalType":"uint256"},{"name":"collateralSeized","type":"uint256","internalType":"uint256"},{"name":"correlationId","type":"bytes32","internalType":"bytes32"}],"outputs":[],"stateMutability":"nonpayable"},{"type":"function","name":"registerHook","inputs":[{"name":"hookType","type":"bytes32","internalType":"bytes32"},{"name":"handler","type":"address","internalType":"address"}],"outputs":[],"stateMutability":"nonpayable"},{"type":"function","name":"setAuthority","inputs":[{"name":"newAuthority","type":"address","internalType":"address"}],"outputs":[],"stateMutability":"nonpayable"},{"type":"event","name":"AuthorityUpdated","inputs":[{"name":"authority","type":"address","indexed":false,"internalType":"address"}],"anonymous":false},{"type":"event","name":"HookDeregistered","inputs":[{"name":"hookType","type":"bytes32","indexed":true,"internalType":"bytes32"},{"name":"handler","type":"address","indexed":true,"internalType":"address"}],"anonymous":false},{"type":"event","name":"HookExecuted","inputs":[{"name":"hookType","type":"bytes32","indexed":true,"internalType":"bytes32"},{"name":"handler","type":"address","indexed":true,"internalType":"address"}],"anonymous":false},{"type":"event","name":"HookFailed","inputs":[{"name":"hookType","type":"bytes32","indexed":true,"internalType":"bytes32"},{"name":"handler","type":"address","indexed":true,"internalType":"address"},{"name":"reason","type":"bytes","indexed":false,"internalType":"bytes"}],"anonymous":false},{"type":"event","name":"HookRegistered","inputs":[{"name":"hookType","type":"bytes32","indexed":true,"internalType":"bytes32"},{"name":"handler","type":"address","indexed":true,"internalType":"address"}],"anonymous":false},{"type":"error","name":"AccessManagedInvalidAuthority","inputs":[{"name":"authority","type":"address","internalType":"address"}]},{"type":"error","name":"AccessManagedRequiredDelay","inputs":[{"name":"caller","type":"address","internalType":"address"},{"name":"delay","type":"uint32","internalType":"uint32"}]},{"type":"error","name":"AccessManagedUnauthorized","inputs":[{"name":"caller","type":"address","internalType":"address"}]},{"type":"error","name":"HookNotRegistered","inputs":[{"name":"hookType","type":"bytes32","internalType":"bytes32"}]},{"type":"error","name":"ZeroHandlerAddress","inputs":[]}],"bytecode":{"object":"0x6080604052348015600e575f5ffd5b50604051610a97380380610a97833981016040819052602b91608c565b806033816039565b505060b7565b5f80546001600160a01b0319166001600160a01b0383169081179091556040519081527f2f658b440c35314f52658ea8a740e05b284cdc84dc9ae01e891f21b8933e7cad9060200160405180910390a150565b5f60208284031215609b575f5ffd5b81516001600160a01b038116811460b0575f5ffd5b9392505050565b6109d3806100c45f395ff3fe608060405234801561000f575f5ffd5b5060043610610090575f3560e01c80637a9e5e4b116100635780637a9e5e4b146101365780638fb36037146101495780639fc5ceb01461016a578063ad890ab01461017d578063bf7e214f14610190575f5ffd5b80631617883a146100945780631b1c72bb146100a957806336939bd1146100e35780637962db4e14610123575b5f5ffd5b6100a76100a2366004610707565b6101a0565b005b6100d07fd1dc45b9435dd181eb2c5f215cca1998f9b150a50b490a75c3f250f135f1c12881565b6040519081526020015b60405180910390f35b61010b6100f1366004610707565b5f908152600160205260409020546001600160a01b031690565b6040516001600160a01b0390911681526020016100da565b6100a7610131366004610732565b61023b565b6100a7610144366004610806565b6103a0565b610151610418565b6040516001600160e01b031990911681526020016100da565b6100a7610178366004610828565b61043a565b6100a761018b366004610856565b6104c2565b5f546001600160a01b031661010b565b6101ac335b5f3661052c565b5f818152600160205260409020546001600160a01b0316806101e957604051632f51d52160e11b8152600481018390526024015b60405180910390fd5b5f8281526001602052604080822080546001600160a01b0319169055516001600160a01b0383169184917f9b7d116f288871e8cf81efb4e0b17bf6400f6d16676d9bf970bbf37673afab809190a35050565b5f828152600160205260409020546001600160a01b03168061025c57505050565b5f5f5f5f85806020019051810190610274919061088e565b604051630ad890ab60e41b81526001600160a01b03808616600483015260248201859052604482018490526064820183905294985092965090945092509086169063ad890ab0906084015f604051808303815f87803b1580156102d5575f5ffd5b505af19250505080156102e6575060015b610361573d808015610313576040519150601f19603f3d011682016040523d82523d5f602084013e610318565b606091505b50856001600160a01b0316887f91e01fc49e9fd1395411fef3b287056912f5b5e46fca577651b17c56cd9842e48360405161035391906108ca565b60405180910390a350610397565b6040516001600160a01b0386169088907f5207149f10586d7d023d7772e215b7fb5ee1912965b1dceaf4a07ef188f2fc56905f90a35b50505050505050565b5f5433906001600160a01b031681146103d65760405162d1953b60e31b81526001600160a01b03821660048201526024016101e0565b816001600160a01b03163b5f0361040b576040516361798f2f60e11b81526001600160a01b03831660048201526024016101e0565b61041482610622565b5050565b5f8054600160a01b900460ff1661042e57505f90565b50638fb3603760e01b90565b610443336101a5565b6001600160a01b03811661046a57604051636b24cac160e11b815260040160405180910390fd5b5f8281526001602052604080822080546001600160a01b0319166001600160a01b0385169081179091559051909184917f7eb92142451e76f67308910694127e44cec10a3af5efca21cc89d2128f56ee299190a35050565b604080516001600160a01b03861660208201529081018490526060810183905260808101829052610526907fd1dc45b9435dd181eb2c5f215cca1998f9b150a50b490a75c3f250f135f1c1289060a00160405160208183030381529060405261023b565b50505050565b5f5f61055f6105425f546001600160a01b031690565b863061055160045f898b6108ff565b61055a91610926565b610675565b915091508161061b5763ffffffff8116156105f8575f805460ff60a01b198116600160a01b17909155604051634a63ebf760e11b81526001600160a01b03909116906394c7d7ee906105b99088908890889060040161095e565b5f604051808303815f87803b1580156105d0575f5ffd5b505af11580156105e2573d5f5f3e3d5ffd5b50505f805460ff60a01b191690555061061b9050565b60405162d1953b60e31b81526001600160a01b03861660048201526024016101e0565b5050505050565b5f80546001600160a01b0319166001600160a01b0383169081179091556040519081527f2f658b440c35314f52658ea8a740e05b284cdc84dc9ae01e891f21b8933e7cad9060200160405180910390a150565b6040516001600160a01b038085166024830152831660448201526001600160e01b0319821660648201525f908190819060840160408051601f19818403018152918152602080830180516001600160e01b031663b700961360e01b1781525f808052918290528351939450919290918a5afa156106fd575f516020805191945081901c150291505b5094509492505050565b5f60208284031215610717575f5ffd5b5035919050565b634e487b7160e01b5f52604160045260245ffd5b5f5f60408385031215610743575f5ffd5b82359150602083013567ffffffffffffffff811115610760575f5ffd5b8301601f81018513610770575f5ffd5b803567ffffffffffffffff81111561078a5761078a61071e565b604051601f8201601f19908116603f0116810167ffffffffffffffff811182821017156107b9576107b961071e565b6040528181528282016020018710156107d0575f5ffd5b816020840160208301375f602083830101528093505050509250929050565b6001600160a01b0381168114610803575f5ffd5b50565b5f60208284031215610816575f5ffd5b8135610821816107ef565b9392505050565b5f5f60408385031215610839575f5ffd5b82359150602083013561084b816107ef565b809150509250929050565b5f5f5f5f60808587031215610869575f5ffd5b8435610874816107ef565b966020860135965060408601359560600135945092505050565b5f5f5f5f608085870312156108a1575f5ffd5b84516108ac816107ef565b60208601516040870151606090970151919890975090945092505050565b602081525f82518060208401528060208501604085015e5f604082850101526040601f19601f83011684010191505092915050565b5f5f8585111561090d575f5ffd5b83861115610919575f5ffd5b5050820193919092039150565b80356001600160e01b03198116906004841015610957576001600160e01b0319600485900360031b81901b82161691505b5092915050565b6001600160a01b03841681526040602082018190528101829052818360608301375f818301606090810191909152601f909201601f191601019291505056fea26469706673582212209ea394138586a2e76a5419eb7d1476a9ca0f36ac3446f5122e0c37e39ac3c27064736f6c634300081c0033","linkReferences":{}},"methodIdentifiers":{"DEFAULT_HOOK_TYPE()":"1b1c72bb","authority()":"bf7e214f","deregisterHook(bytes32)":"1617883a","executeHooks(bytes32,bytes)":"7962db4e","getHook(bytes32)":"36939bd1","isConsumingScheduledOp()":"8fb36037","notifyLiquidation(address,uint256,uint256,bytes32)":"ad890ab0","registerHook(bytes32,address)":"9fc5ceb0","setAuthority(address)":"7a9e5e4b"},"id":5}