{"abi":[{"type":"function","name":"echo","inputs":[{"name":"x","type":"bytes32","internalType":"bytes32"}],"outputs":[{"name":"","type":"bytes32","internalType":"bytes32"}],"stateMutability":"pure"},{"type":"function","name":"fingerprint","inputs":[],"outputs":[{"name":"","type":"bytes32","internalType":"bytes32"}],"stateMutability":"pure"},{"type":"function","name":"quote","inputs":[{"name":"input","type":"tuple","internalType":"struct IRiskEngine.QuoteInput","components":[{"name":"utilizationBps","type":"uint256","internalType":"uint256"},{"name":"collateralRatioBps","type":"uint256","internalType":"uint256"},{"name":"oracleAgeSeconds","type":"uint256","internalType":"uint256"},{"name":"oracleFresh","type":"bool","internalType":"bool"},{"name":"policyMaxLtvBps","type":"uint256","internalType":"uint256"},{"name":"policyLiqThresholdBps","type":"uint256","internalType":"uint256"},{"name":"policyBorrowRateFloorBps","type":"uint256","internalType":"uint256"}]}],"outputs":[{"name":"","type":"tuple","internalType":"struct IRiskEngine.QuoteOutput","components":[{"name":"borrowRateBps","type":"uint256","internalType":"uint256"},{"name":"maxLtvBps","type":"uint256","internalType":"uint256"},{"name":"liquidationThresholdBps","type":"uint256","internalType":"uint256"}]}],"stateMutability":"pure"}],"bytecode":{"object":"0x6080604052348015600e575f5ffd5b5061032a8061001c5f395ff3fe608060405234801561000f575f5ffd5b506004361061003f575f3560e01c80634ef98ff914610043578063b5531d2114610078578063e9d7b19a14610089575b5f5ffd5b7faafa9e09cdb7664e1003a5059138e1e983378850ff027778ca6b862199cd67e45b6040519081526020015b60405180910390f35b610065610086366004610235565b90565b61009c61009736600461024c565b6100be565b604080518251815260208084015190820152918101519082015260600161006f565b6100df60405180606001604052805f81526020015f81526020015f81525090565b6100e8826100ee565b92915050565b61010f60405180606001604052805f81526020015f81526020015f81525090565b6101198235610198565b815261012b6080830160608401610265565b61014a576103e8815f018181516101429190610298565b905250919050565b5f6136b08360200135108061016457506107088360400135115b90508015610181576119646020830152611e786040830152610192565b611d4c602083015261213460408301525b50919050565b5f5f61271083116101a957826101ad565b6127105b9050611f4081116101e357611f406101c7610320836102ab565b6101d191906102c2565b6101dc9060c8610298565b9392505050565b5f6101f0611f40836102e1565b9050610200611f406127106102e1565b61020c610bb8836102ab565b61021691906102c2565b61022361032060c8610298565b61022d9190610298565b949350505050565b5f60208284031215610245575f5ffd5b5035919050565b5f60e082840312801561025d575f5ffd5b509092915050565b5f60208284031215610275575f5ffd5b813580151581146101dc575f5ffd5b634e487b7160e01b5f52601160045260245ffd5b808201808211156100e8576100e8610284565b80820281158282048414176100e8576100e8610284565b5f826102dc57634e487b7160e01b5f52601260045260245ffd5b500490565b818103818111156100e8576100e861028456fea2646970667358221220990132ce6870aff97296eb1bbecc5c42143da4f21f77800b7d6a44a83084142664736f6c634300081c0033","linkReferences":{}},"methodIdentifiers":{"echo(bytes32)":"b5531d21","fingerprint()":"4ef98ff9","quote((uint256,uint256,uint256,bool,uint256,uint256,uint256))":"e9d7b19a"},"id":31}