{"abi":[{"type":"constructor","inputs":[{"name":"token_","type":"address","internalType":"contract IVotes"},{"name":"timelock_","type":"address","internalType":"contract TimelockController"},{"name":"votingDelay_","type":"uint48","internalType":"uint48"},{"name":"votingPeriod_","type":"uint32","internalType":"uint32"},{"name":"quorumNumerator_","type":"uint256","internalType":"uint256"}],"stateMutability":"nonpayable"},{"type":"receive","stateMutability":"payable"},{"type":"function","name":"BALLOT_TYPEHASH","inputs":[],"outputs":[{"name":"","type":"bytes32","internalType":"bytes32"}],"stateMutability":"view"},{"type":"function","name":"CLOCK_MODE","inputs":[],"outputs":[{"name":"","type":"string","internalType":"string"}],"stateMutability":"view"},{"type":"function","name":"COUNTING_MODE","inputs":[],"outputs":[{"name":"","type":"string","internalType":"string"}],"stateMutability":"pure"},{"type":"function","name":"EXTENDED_BALLOT_TYPEHASH","inputs":[],"outputs":[{"name":"","type":"bytes32","internalType":"bytes32"}],"stateMutability":"view"},{"type":"function","name":"cancel","inputs":[{"name":"targets","type":"address[]","internalType":"address[]"},{"name":"values","type":"uint256[]","internalType":"uint256[]"},{"name":"calldatas","type":"bytes[]","internalType":"bytes[]"},{"name":"descriptionHash","type":"bytes32","internalType":"bytes32"}],"outputs":[{"name":"","type":"uint256","internalType":"uint256"}],"stateMutability":"nonpayable"},{"type":"function","name":"castVote","inputs":[{"name":"proposalId","type":"uint256","internalType":"uint256"},{"name":"support","type":"uint8","internalType":"uint8"}],"outputs":[{"name":"","type":"uint256","internalType":"uint256"}],"stateMutability":"nonpayable"},{"type":"function","name":"castVoteBySig","inputs":[{"name":"proposalId","type":"uint256","internalType":"uint256"},{"name":"support","type":"uint8","internalType":"uint8"},{"name":"voter","type":"address","internalType":"address"},{"name":"signature","type":"bytes","internalType":"bytes"}],"outputs":[{"name":"","type":"uint256","internalType":"uint256"}],"stateMutability":"nonpayable"},{"type":"function","name":"castVoteWithReason","inputs":[{"name":"proposalId","type":"uint256","internalType":"uint256"},{"name":"support","type":"uint8","internalType":"uint8"},{"name":"reason","type":"string","internalType":"string"}],"outputs":[{"name":"","type":"uint256","internalType":"uint256"}],"stateMutability":"nonpayable"},{"type":"function","name":"castVoteWithReasonAndParams","inputs":[{"name":"proposalId","type":"uint256","internalType":"uint256"},{"name":"support","type":"uint8","internalType":"uint8"},{"name":"reason","type":"string","internalType":"string"},{"name":"params","type":"bytes","internalType":"bytes"}],"outputs":[{"name":"","type":"uint256","internalType":"uint256"}],"stateMutability":"nonpayable"},{"type":"function","name":"castVoteWithReasonAndParamsBySig","inputs":[{"name":"proposalId","type":"uint256","internalType":"uint256"},{"name":"support","type":"uint8","internalType":"uint8"},{"name":"voter","type":"address","internalType":"address"},{"name":"reason","type":"string","internalType":"string"},{"name":"params","type":"bytes","internalType":"bytes"},{"name":"signature","type":"bytes","internalType":"bytes"}],"outputs":[{"name":"","type":"uint256","internalType":"uint256"}],"stateMutability":"nonpayable"},{"type":"function","name":"clock","inputs":[],"outputs":[{"name":"","type":"uint48","internalType":"uint48"}],"stateMutability":"view"},{"type":"function","name":"eip712Domain","inputs":[],"outputs":[{"name":"fields","type":"bytes1","internalType":"bytes1"},{"name":"name","type":"string","internalType":"string"},{"name":"version","type":"string","internalType":"string"},{"name":"chainId","type":"uint256","internalType":"uint256"},{"name":"verifyingContract","type":"address","internalType":"address"},{"name":"salt","type":"bytes32","internalType":"bytes32"},{"name":"extensions","type":"uint256[]","internalType":"uint256[]"}],"stateMutability":"view"},{"type":"function","name":"execute","inputs":[{"name":"targets","type":"address[]","internalType":"address[]"},{"name":"values","type":"uint256[]","internalType":"uint256[]"},{"name":"calldatas","type":"bytes[]","internalType":"bytes[]"},{"name":"descriptionHash","type":"bytes32","internalType":"bytes32"}],"outputs":[{"name":"","type":"uint256","internalType":"uint256"}],"stateMutability":"payable"},{"type":"function","name":"getProposalId","inputs":[{"name":"targets","type":"address[]","internalType":"address[]"},{"name":"values","type":"uint256[]","internalType":"uint256[]"},{"name":"calldatas","type":"bytes[]","internalType":"bytes[]"},{"name":"descriptionHash","type":"bytes32","internalType":"bytes32"}],"outputs":[{"name":"","type":"uint256","internalType":"uint256"}],"stateMutability":"view"},{"type":"function","name":"getVotes","inputs":[{"name":"account","type":"address","internalType":"address"},{"name":"timepoint","type":"uint256","internalType":"uint256"}],"outputs":[{"name":"","type":"uint256","internalType":"uint256"}],"stateMutability":"view"},{"type":"function","name":"getVotesWithParams","inputs":[{"name":"account","type":"address","internalType":"address"},{"name":"timepoint","type":"uint256","internalType":"uint256"},{"name":"params","type":"bytes","internalType":"bytes"}],"outputs":[{"name":"","type":"uint256","internalType":"uint256"}],"stateMutability":"view"},{"type":"function","name":"hasVoted","inputs":[{"name":"proposalId","type":"uint256","internalType":"uint256"},{"name":"account","type":"address","internalType":"address"}],"outputs":[{"name":"","type":"bool","internalType":"bool"}],"stateMutability":"view"},{"type":"function","name":"hashProposal","inputs":[{"name":"targets","type":"address[]","internalType":"address[]"},{"name":"values","type":"uint256[]","internalType":"uint256[]"},{"name":"calldatas","type":"bytes[]","internalType":"bytes[]"},{"name":"descriptionHash","type":"bytes32","internalType":"bytes32"}],"outputs":[{"name":"","type":"uint256","internalType":"uint256"}],"stateMutability":"pure"},{"type":"function","name":"name","inputs":[],"outputs":[{"name":"","type":"string","internalType":"string"}],"stateMutability":"view"},{"type":"function","name":"nonces","inputs":[{"name":"owner","type":"address","internalType":"address"}],"outputs":[{"name":"","type":"uint256","internalType":"uint256"}],"stateMutability":"view"},{"type":"function","name":"onERC1155BatchReceived","inputs":[{"name":"","type":"address","internalType":"address"},{"name":"","type":"address","internalType":"address"},{"name":"","type":"uint256[]","internalType":"uint256[]"},{"name":"","type":"uint256[]","internalType":"uint256[]"},{"name":"","type":"bytes","internalType":"bytes"}],"outputs":[{"name":"","type":"bytes4","internalType":"bytes4"}],"stateMutability":"nonpayable"},{"type":"function","name":"onERC1155Received","inputs":[{"name":"","type":"address","internalType":"address"},{"name":"","type":"address","internalType":"address"},{"name":"","type":"uint256","internalType":"uint256"},{"name":"","type":"uint256","internalType":"uint256"},{"name":"","type":"bytes","internalType":"bytes"}],"outputs":[{"name":"","type":"bytes4","internalType":"bytes4"}],"stateMutability":"nonpayable"},{"type":"function","name":"onERC721Received","inputs":[{"name":"","type":"address","internalType":"address"},{"name":"","type":"address","internalType":"address"},{"name":"","type":"uint256","internalType":"uint256"},{"name":"","type":"bytes","internalType":"bytes"}],"outputs":[{"name":"","type":"bytes4","internalType":"bytes4"}],"stateMutability":"nonpayable"},{"type":"function","name":"proposalDeadline","inputs":[{"name":"proposalId","type":"uint256","internalType":"uint256"}],"outputs":[{"name":"","type":"uint256","internalType":"uint256"}],"stateMutability":"view"},{"type":"function","name":"proposalEta","inputs":[{"name":"proposalId","type":"uint256","internalType":"uint256"}],"outputs":[{"name":"","type":"uint256","internalType":"uint256"}],"stateMutability":"view"},{"type":"function","name":"proposalNeedsQueuing","inputs":[{"name":"proposalId","type":"uint256","internalType":"uint256"}],"outputs":[{"name":"","type":"bool","internalType":"bool"}],"stateMutability":"view"},{"type":"function","name":"proposalProposer","inputs":[{"name":"proposalId","type":"uint256","internalType":"uint256"}],"outputs":[{"name":"","type":"address","internalType":"address"}],"stateMutability":"view"},{"type":"function","name":"proposalSnapshot","inputs":[{"name":"proposalId","type":"uint256","internalType":"uint256"}],"outputs":[{"name":"","type":"uint256","internalType":"uint256"}],"stateMutability":"view"},{"type":"function","name":"proposalThreshold","inputs":[],"outputs":[{"name":"","type":"uint256","internalType":"uint256"}],"stateMutability":"view"},{"type":"function","name":"proposalVotes","inputs":[{"name":"proposalId","type":"uint256","internalType":"uint256"}],"outputs":[{"name":"againstVotes","type":"uint256","internalType":"uint256"},{"name":"forVotes","type":"uint256","internalType":"uint256"},{"name":"abstainVotes","type":"uint256","internalType":"uint256"}],"stateMutability":"view"},{"type":"function","name":"propose","inputs":[{"name":"targets","type":"address[]","internalType":"address[]"},{"name":"values","type":"uint256[]","internalType":"uint256[]"},{"name":"calldatas","type":"bytes[]","internalType":"bytes[]"},{"name":"description","type":"string","internalType":"string"}],"outputs":[{"name":"","type":"uint256","internalType":"uint256"}],"stateMutability":"nonpayable"},{"type":"function","name":"queue","inputs":[{"name":"targets","type":"address[]","internalType":"address[]"},{"name":"values","type":"uint256[]","internalType":"uint256[]"},{"name":"calldatas","type":"bytes[]","internalType":"bytes[]"},{"name":"descriptionHash","type":"bytes32","internalType":"bytes32"}],"outputs":[{"name":"","type":"uint256","internalType":"uint256"}],"stateMutability":"nonpayable"},{"type":"function","name":"quorum","inputs":[{"name":"timepoint","type":"uint256","internalType":"uint256"}],"outputs":[{"name":"","type":"uint256","internalType":"uint256"}],"stateMutability":"view"},{"type":"function","name":"quorumDenominator","inputs":[],"outputs":[{"name":"","type":"uint256","internalType":"uint256"}],"stateMutability":"view"},{"type":"function","name":"quorumNumerator","inputs":[{"name":"timepoint","type":"uint256","internalType":"uint256"}],"outputs":[{"name":"","type":"uint256","internalType":"uint256"}],"stateMutability":"view"},{"type":"function","name":"quorumNumerator","inputs":[],"outputs":[{"name":"","type":"uint256","internalType":"uint256"}],"stateMutability":"view"},{"type":"function","name":"relay","inputs":[{"name":"target","type":"address","internalType":"address"},{"name":"value","type":"uint256","internalType":"uint256"},{"name":"data","type":"bytes","internalType":"bytes"}],"outputs":[],"stateMutability":"payable"},{"type":"function","name":"state","inputs":[{"name":"proposalId","type":"uint256","internalType":"uint256"}],"outputs":[{"name":"","type":"uint8","internalType":"enum IGovernor.ProposalState"}],"stateMutability":"view"},{"type":"function","name":"supportsInterface","inputs":[{"name":"interfaceId","type":"bytes4","internalType":"bytes4"}],"outputs":[{"name":"","type":"bool","internalType":"bool"}],"stateMutability":"view"},{"type":"function","name":"timelock","inputs":[],"outputs":[{"name":"","type":"address","internalType":"address"}],"stateMutability":"view"},{"type":"function","name":"token","inputs":[],"outputs":[{"name":"","type":"address","internalType":"contract IERC5805"}],"stateMutability":"view"},{"type":"function","name":"updateQuorumNumerator","inputs":[{"name":"newQuorumNumerator","type":"uint256","internalType":"uint256"}],"outputs":[],"stateMutability":"nonpayable"},{"type":"function","name":"updateTimelock","inputs":[{"name":"newTimelock","type":"address","internalType":"contract TimelockController"}],"outputs":[],"stateMutability":"nonpayable"},{"type":"function","name":"version","inputs":[],"outputs":[{"name":"","type":"string","internalType":"string"}],"stateMutability":"view"},{"type":"function","name":"votingDelay","inputs":[],"outputs":[{"name":"","type":"uint256","internalType":"uint256"}],"stateMutability":"view"},{"type":"function","name":"votingPeriod","inputs":[],"outputs":[{"name":"","type":"uint256","internalType":"uint256"}],"stateMutability":"view"},{"type":"event","name":"EIP712DomainChanged","inputs":[],"anonymous":false},{"type":"event","name":"ProposalCanceled","inputs":[{"name":"proposalId","type":"uint256","indexed":false,"internalType":"uint256"}],"anonymous":false},{"type":"event","name":"ProposalCreated","inputs":[{"name":"proposalId","type":"uint256","indexed":false,"internalType":"uint256"},{"name":"proposer","type":"address","indexed":false,"internalType":"address"},{"name":"targets","type":"address[]","indexed":false,"internalType":"address[]"},{"name":"values","type":"uint256[]","indexed":false,"internalType":"uint256[]"},{"name":"signatures","type":"string[]","indexed":false,"internalType":"string[]"},{"name":"calldatas","type":"bytes[]","indexed":false,"internalType":"bytes[]"},{"name":"voteStart","type":"uint256","indexed":false,"internalType":"uint256"},{"name":"voteEnd","type":"uint256","indexed":false,"internalType":"uint256"},{"name":"description","type":"string","indexed":false,"internalType":"string"}],"anonymous":false},{"type":"event","name":"ProposalExecuted","inputs":[{"name":"proposalId","type":"uint256","indexed":false,"internalType":"uint256"}],"anonymous":false},{"type":"event","name":"ProposalQueued","inputs":[{"name":"proposalId","type":"uint256","indexed":false,"internalType":"uint256"},{"name":"etaSeconds","type":"uint256","indexed":false,"internalType":"uint256"}],"anonymous":false},{"type":"event","name":"QuorumNumeratorUpdated","inputs":[{"name":"oldQuorumNumerator","type":"uint256","indexed":false,"internalType":"uint256"},{"name":"newQuorumNumerator","type":"uint256","indexed":false,"internalType":"uint256"}],"anonymous":false},{"type":"event","name":"TimelockChange","inputs":[{"name":"oldTimelock","type":"address","indexed":false,"internalType":"address"},{"name":"newTimelock","type":"address","indexed":false,"internalType":"address"}],"anonymous":false},{"type":"event","name":"VoteCast","inputs":[{"name":"voter","type":"address","indexed":true,"internalType":"address"},{"name":"proposalId","type":"uint256","indexed":false,"internalType":"uint256"},{"name":"support","type":"uint8","indexed":false,"internalType":"uint8"},{"name":"weight","type":"uint256","indexed":false,"internalType":"uint256"},{"name":"reason","type":"string","indexed":false,"internalType":"string"}],"anonymous":false},{"type":"event","name":"VoteCastWithParams","inputs":[{"name":"voter","type":"address","indexed":true,"internalType":"address"},{"name":"proposalId","type":"uint256","indexed":false,"internalType":"uint256"},{"name":"support","type":"uint8","indexed":false,"internalType":"uint8"},{"name":"weight","type":"uint256","indexed":false,"internalType":"uint256"},{"name":"reason","type":"string","indexed":false,"internalType":"string"},{"name":"params","type":"bytes","indexed":false,"internalType":"bytes"}],"anonymous":false},{"type":"error","name":"CheckpointUnorderedInsertion","inputs":[]},{"type":"error","name":"FailedCall","inputs":[]},{"type":"error","name":"GovernorAlreadyCastVote","inputs":[{"name":"voter","type":"address","internalType":"address"}]},{"type":"error","name":"GovernorAlreadyQueuedProposal","inputs":[{"name":"proposalId","type":"uint256","internalType":"uint256"}]},{"type":"error","name":"GovernorDisabledDeposit","inputs":[]},{"type":"error","name":"GovernorInsufficientProposerVotes","inputs":[{"name":"proposer","type":"address","internalType":"address"},{"name":"votes","type":"uint256","internalType":"uint256"},{"name":"threshold","type":"uint256","internalType":"uint256"}]},{"type":"error","name":"GovernorInvalidProposalLength","inputs":[{"name":"targets","type":"uint256","internalType":"uint256"},{"name":"calldatas","type":"uint256","internalType":"uint256"},{"name":"values","type":"uint256","internalType":"uint256"}]},{"type":"error","name":"GovernorInvalidQuorumFraction","inputs":[{"name":"quorumNumerator","type":"uint256","internalType":"uint256"},{"name":"quorumDenominator","type":"uint256","internalType":"uint256"}]},{"type":"error","name":"GovernorInvalidSignature","inputs":[{"name":"voter","type":"address","internalType":"address"}]},{"type":"error","name":"GovernorInvalidVoteParams","inputs":[]},{"type":"error","name":"GovernorInvalidVoteType","inputs":[]},{"type":"error","name":"GovernorInvalidVotingPeriod","inputs":[{"name":"votingPeriod","type":"uint256","internalType":"uint256"}]},{"type":"error","name":"GovernorNonexistentProposal","inputs":[{"name":"proposalId","type":"uint256","internalType":"uint256"}]},{"type":"error","name":"GovernorNotQueuedProposal","inputs":[{"name":"proposalId","type":"uint256","internalType":"uint256"}]},{"type":"error","name":"GovernorOnlyExecutor","inputs":[{"name":"account","type":"address","internalType":"address"}]},{"type":"error","name":"GovernorQueueNotImplemented","inputs":[]},{"type":"error","name":"GovernorRestrictedProposer","inputs":[{"name":"proposer","type":"address","internalType":"address"}]},{"type":"error","name":"GovernorUnableToCancel","inputs":[{"name":"proposalId","type":"uint256","internalType":"uint256"},{"name":"account","type":"address","internalType":"address"}]},{"type":"error","name":"GovernorUnexpectedProposalState","inputs":[{"name":"proposalId","type":"uint256","internalType":"uint256"},{"name":"current","type":"uint8","internalType":"enum IGovernor.ProposalState"},{"name":"expectedStates","type":"bytes32","internalType":"bytes32"}]},{"type":"error","name":"InvalidAccountNonce","inputs":[{"name":"account","type":"address","internalType":"address"},{"name":"currentNonce","type":"uint256","internalType":"uint256"}]},{"type":"error","name":"InvalidShortString","inputs":[]},{"type":"error","name":"SafeCastOverflowedUintDowncast","inputs":[{"name":"bits","type":"uint8","internalType":"uint8"},{"name":"value","type":"uint256","internalType":"uint256"}]},{"type":"error","name":"StringTooLong","inputs":[{"name":"str","type":"string","internalType":"string"}]}],"bytecode":{"object":"0x6101c0604052346100c55761001e61001561013a565b939290926101d0565b6040516137ee90816109e982396080518161334c015260a05181613403015260c05181613316015260e0518161339b015261010051816133c10152610120518161135b015261014051816113870152610160518181816115df015281816119ea01528181611acd01528181611c500152818161202b01528181612241015261265b015261018051818181610d1a0152611ebe01526101a0518181816103ac0152611eec0152f35b5f80fd5b634e487b7160e01b5f52604160045260245ffd5b601f909101601f19168101906001600160401b0382119082101761010057604052565b6100c9565b604051906101146040836100dd565b565b6001600160a01b038116036100c557565b519065ffffffffffff821682036100c557565b6141f79060a0823803928360405194859261015582856100dd565b8339810103126100c55781519161016b83610116565b60208101519261017a84610116565b61018660408301610127565b9260608301519263ffffffff841684036100c55760800151919493929190565b604051906101b56040836100dd565b600f8252565b604051906101ca6040836100dd565b60018252565b6102b99293946102b4916102a26101e56101a6565b602081016e223ab0b62b269023b7bb32b93737b960891b81526102066101bb565b906020820190603160f81b825261021c8461054a565b610120526102298361063a565b6101405283519020918260e05251902080610100524660a0526040519060208201927f8b73c3c69bb8fe3d512ecc4cf759cc79239f7b179b0ffacaa9a75d522b39400f8452604083015260608201524660808201523060a082015260a0815261029360c0826100dd565b5190206080523060c05261034a565b6001600160a01b031661016052610482565b61042f565b610180526101a052565b90600182811c921680156102f1575b60208310146102dd57565b634e487b7160e01b5f52602260045260245ffd5b91607f16916102d2565b601f821161030857505050565b5f5260205f20906020601f840160051c83019310610340575b601f0160051c01905b818110610335575050565b5f815560010161032a565b9091508190610321565b80519091906001600160401b038111610100576103738161036c6003546102c3565b60036102fb565b602092601f82116001146103b3576103a3929382915f926103a8575b50508160011b915f199060031b1c19161790565b600355565b015190505f8061038f565b60035f52601f198216937fc2575a0e9e593c00f959f8c92f12db2869c3395a3b0502d05e2516446f71f85b915f5b86811061041757508360019596106103ff575b505050811b01600355565b01515f1960f88460031b161c191690555f80806103f4565b919260206001819286850151815501940192016103e1565b600954604080516001600160a01b03808416825290931660208401819052927f08f74ea46ef7894f65eabfb5e6e695de773a000b47c529ab559178069b2264019190a16001600160a01b03191617600955565b606481116105335760085490816104d3575f5160206141d75f395f51905f5291505f5b6104bf6104b061072c565b6104b9846107ce565b906108df565b5050604080519182526020820192909252a1565b815f1981011161051f5760085f527ff3f7a9fe364faab93b216da50a3214154f22a0a2b415b23a84c8169e8b636ee291909101545f5160206141d75f395f51905f52919060301c6104a5565b634e487b7160e01b5f52601160045260245ffd5b63243e544560e01b5f52600452606460245260445ffd5b908151602081105f14610565575090610562906107ff565b90565b6001600160401b03811161010057610587816105815f546102c3565b5f6102fb565b602092601f82116001146105bd576105b6929382915f926103a85750508160011b915f199060031b1c19161790565b5f5560ff90565b5f8052601f198216937f290decd9548b62a8d60345a988386fc84ba6bc95484008f6362f93160ef3e563915f5b868110610622575083600195961061060a575b505050811b015f5560ff90565b01515f1960f88460031b161c191690555f80806105fd565b919260206001819286850151815501940192016105ea565b908151602081105f14610652575090610562906107ff565b6001600160401b038111610100576106768161066f6001546102c3565b60016102fb565b602092601f82116001146106ad576106a5929382915f926103a85750508160011b915f199060031b1c19161790565b60015560ff90565b60015f52601f198216937fb10e2d527612073b26eecdfd717e6a320cf44b4afac2b0732d9fcbe2b7fa0cf6915f5b86811061071457508360019596106106fc575b505050811b0160015560ff90565b01515f1960f88460031b161c191690555f80806106ee565b919260206001819286850151815501940192016106db565b610160516040516324776b7d60e21b815290602090829060049082906001600160a01b03165afa5f9181610792575b50610562575065ffffffffffff431161077a5765ffffffffffff431690565b6306dfcc6560e41b5f5260306004524360245260445ffd5b9091506020813d6020116107c6575b816107ae602093836100dd565b810103126100c5576107bf90610127565b905f61075b565b3d91506107a1565b6001600160d01b0381116107e8576001600160d01b031690565b6306dfcc6560e41b5f5260d060045260245260445ffd5b601f81511161082a57602081519101516020821061081b571790565b5f198260200360031b1b161790565b604460209160405192839163305a27a960e01b83528160048401528051918291826024860152018484015e5f828201840152601f01601f19168101030190fd5b5f1981019190821161051f57565b9081546801000000000000000081101561010057600181018084558110156108cb575f9283526020928390208251929093015160301b65ffffffffffff191665ffffffffffff9290921691909117910155565b634e487b7160e01b5f52603260045260245ffd5b60085491929180156109bf576108f76109209161086a565b60085f527ff3f7a9fe364faab93b216da50a3214154f22a0a2b415b23a84c8169e8b636ee30190565b90815461093c6109358265ffffffffffff1690565b9160301c90565b9265ffffffffffff8084169216918083116109b05786920361097a5761097692509065ffffffffffff82549181199060301b169116179055565b9190565b50506109769061099961098b610105565b65ffffffffffff9092168252565b6001600160d01b03851660208201525b6008610878565b632520601d60e01b5f5260045ffd5b506109e3906109cf61098b610105565b6001600160d01b03841660208201526109a9565b5f919056fe60806040526004361015610022575b3615610018575f80fd5b6100206122b2565b005b5f3560e01c806301ffc9a7146102fc57806302a251a3146102f757806306f3f9e6146102f257806306fdde03146102ed578063143489d0146102e8578063150b7a02146102e3578063160cbed7146102de5780632656227d146102d95780632d63f693146102d45780632fe3e261146102cf5780633932abb1146102ca5780633e4f49e6146102c557806343859632146102c0578063452115d6146102bb5780634bf5d7e9146102b6578063544ffc9c146102b157806354fd4d50146102ac57806356781388146102a75780635b8d0e0d146102a25780635f398a141461029d57806360c4247f146102985780637b3c71d3146102935780637d5e81e21461028e5780637ecebe001461028957806384b0196e146102845780638ff262e31461027f57806391ddadf41461027a57806397c3d334146102755780639a802a6d14610270578063a7713a701461026b578063a890c91014610266578063a8f8a66814610243578063a9a9529414610261578063ab58fb8e1461025c578063b58131b014610257578063bc197c8114610252578063c01f9e371461024d578063c28bc2fa14610248578063c59057e414610243578063d33219b41461023e578063dd4e2ba514610239578063deaaa7cc14610234578063eb9019d41461022f578063f23a6e611461022a578063f8ce560a146102255763fc0c546a0361000e57611ab8565b611a9a565b611a2d565b611988565b61194e565b6118ef565b6118c7565b6116e5565b611835565b611817565b61176a565b611750565b61171d565b611701565b61166d565b611642565b61156d565b611552565b611528565b611413565b611343565b6112d5565b611227565b6111d2565b6111b4565b61113f565b611099565b61102b565b610fd8565b610f97565b610f68565b610df3565b610d9e565b610d6f565b610cfc565b610cc2565b610c8d565b610b2d565b6108e6565b6106a2565b6105a8565b6104ce565b6103d0565b610390565b346103825760203660031901126103825760043563ffffffff60e01b8116809103610382576366defe7760e11b8114908115610371575b8115610360575b811561034f575b506040519015158152602090f35b6301ffc9a760e01b1490505f610341565b630271189760e51b8114915061033a565b6332a2ad4360e11b81149150610333565b5f80fd5b5f91031261038257565b34610382575f36600319011261038257602060405163ffffffff7f0000000000000000000000000000000000000000000000000000000000000000168152f35b34610382576020366003190112610382576004356103ec6122c8565b6064811161047f576001600160d01b036104046129d9565b169061040e612016565b916001600160d01b038211610467577f0553476bf02ef2726e8ce5ced78d63e26e602e4a2257b1f559418e24b463399792610453906001600160d01b038416906131ef565b5050604080519182526020820192909252a1005b506306dfcc6560e41b5f5260d060045260245260445ffd5b63243e544560e01b5f52600452606460245260445ffd5b805180835260209291819084018484015e5f828201840152601f01601f1916010190565b9060206104cb928181520190610496565b90565b34610382575f366003190112610382576040515f6003546104ee81611afc565b80845290600181169081156105845750600114610526575b61052283610516818503826105ff565b604051918291826104ba565b0390f35b60035f9081527fc2575a0e9e593c00f959f8c92f12db2869c3395a3b0502d05e2516446f71f85b939250905b80821061056a57509091508101602001610516610506565b919260018160209254838588010152019101909291610552565b60ff191660208086019190915291151560051b840190910191506105169050610506565b34610382576020366003190112610382576004355f526004602052602060018060a01b0360405f205416604051908152f35b6001600160a01b0381160361038257565b634e487b7160e01b5f52604160045260245ffd5b90601f801991011681019081106001600160401b0382111761062057604052565b6105eb565b604051906106346040836105ff565b565b6001600160401b03811161062057601f01601f191660200190565b92919261065d82610636565b9161066b60405193846105ff565b829481845281830111610382578281602093845f960137010152565b9080601f83011215610382578160206104cb93359101610651565b34610382576080366003190112610382576106be6004356105da565b6106c96024356105da565b6064356001600160401b038111610382576106e8903690600401610687565b50600954306001600160a01b039091160361070f57604051630a85bd0160e11b8152602090f35b637485328f60e11b5f5260045ffd5b6001600160401b0381116106205760051b60200190565b9080601f8301121561038257813561074c8161071e565b9261075a60405194856105ff565b81845260208085019260051b82010192831161038257602001905b8282106107825750505090565b602080918335610791816105da565b815201910190610775565b9080601f830112156103825781356107b38161071e565b926107c160405194856105ff565b81845260208085019260051b82010192831161038257602001905b8282106107e95750505090565b81358152602091820191016107dc565b9080601f830112156103825781356108108161071e565b9261081e60405194856105ff565b81845260208085019260051b820101918383116103825760208201905b83821061084a57505050505090565b81356001600160401b0381116103825760209161086c87848094880101610687565b81520191019061083b565b6080600319820112610382576004356001600160401b03811161038257816108a191600401610735565b916024356001600160401b03811161038257826108c09160040161079c565b91604435906001600160401b038211610382576108df916004016107f9565b9060643590565b34610382576108f436610877565b9092610902828585846121ae565b9361090c85612370565b5060095461092a906001600160a01b03165b6001600160a01b031690565b936040519363793d064960e11b8552602085600481895afa948515610ad8575f95610b0c575b503060601b6bffffffffffffffffffffffff191618946020604051809263b1c5f42760e01b825281806109898b89898c60048601612af2565b03915afa908115610ad8575f91610add575b506109ae875f52600a60205260405f2090565b556009546109c4906001600160a01b031661091e565b90813b15610382575f80946109f087604051998a97889687956308f2a0bb60e41b875260048701612b37565b03925af1908115610ad857610a1492610a0f92610abe575b504261289c565b612f54565b9065ffffffffffff821615610aaf577f9a2e42fd6722813d69113e7d0079d3d940171428df7373df9c7f7617cfda2892610a9c83610a7d610522956001610a63875f52600460205260405f2090565b019065ffffffffffff1665ffffffffffff19825416179055565b6040805185815265ffffffffffff909216602083015290918291820190565b0390a16040519081529081906020820190565b634844252360e11b5f5260045ffd5b80610acc5f610ad2936105ff565b80610386565b5f610a08565b611be2565b610aff915060203d602011610b05575b610af781836105ff565b810190612215565b5f61099b565b503d610aed565b610b2691955060203d602011610b0557610af781836105ff565b935f610950565b610b3636610877565b91610b43838383876121ae565b936020610b516030876123f0565b50610b7a610b67875f52600460205260405f2090565b805460ff60f01b1916600160f01b179055565b600954306001600160a01b0390911603610c25575b5091849391610ba19361052296612c06565b6009543090610bb8906001600160a01b031661091e565b141580610c00575b610bf7575b6040518181527f712ae1383f79ac853f8d882153778e0260ef8f03b504e2866e0593e04d2b291f908060208101610a9c565b5f600555610bc5565b50610c20610c1c6005546001600160801b0381169060801c1490565b1590565b610bc0565b949091935f5b8351811015610c7f5760019030610c5561091e610c488489611bc9565b516001600160a01b031690565b14610c61575b01610c2b565b610c7a610c6e8288611bc9565b5189815191012061242e565b610c5b565b509094509290610522610b8f565b34610382576020366003190112610382576004355f526004602052602065ffffffffffff60405f205460a01c16604051908152f35b34610382575f3660031901126103825760206040517f3e83946653575f9a39005e1545185629e92736b7528ab20ca3816f315424a8118152f35b34610382575f36600319011261038257602060405165ffffffffffff7f0000000000000000000000000000000000000000000000000000000000000000168152f35b634e487b7160e01b5f52602160045260245ffd5b60081115610d5c57565b610d3e565b6008811015610d5c57602452565b3461038257602036600319011261038257610d8b60043561246a565b6040516008821015610d5c576020918152f35b3461038257604036600319011261038257602060ff610de7602435600435610dc5826105da565b5f5260078452600360405f20019060018060a01b03165f5260205260405f2090565b54166040519015158152f35b3461038257610e0136610877565b91610e0e838383876121ae565b93610e188561246a565b6008811015610d5c571580610f4b575b15610f3457610e3794506121ae565b610e42603b826123f0565b50610e6d610e58825f52600460205260405f2090565b80546001600160f81b0316600160f81b179055565b6040518181527f789cf55be980739dad1d0699b93b58e806b51c9d96619bfa8fe0a28abaa7b30c90602090a1610eab815f52600a60205260405f2090565b549081610ebe575b604051908152602090f35b600954610ed3906001600160a01b031661091e565b803b156103825760405163c4d252f560e01b815260048101939093525f908390602490829084905af1918215610ad85761052292610f20575b505f818152600a6020526040812055610eb3565b80610acc5f610f2e936105ff565b5f610f0c565b84638fe5d8a960e01b5f526004523360245260445ffd5b50845f52600460205260018060a01b0360405f2054163314610e28565b34610382575f36600319011261038257610522610f83611c3c565b604051918291602083526020830190610496565b34610382576020366003190112610382576004355f526007602052606060405f20805490600260018201549101549060405192835260208301526040820152f35b34610382575f36600319011261038257610522604051610ff96040826105ff565b60018152603160f81b6020820152604051918291602083526020830190610496565b6024359060ff8216820361038257565b3461038257604036600319011261038257602061106460043561104c61101b565b6040519161105a85846105ff565b5f83523390612577565b604051908152f35b9181601f84011215610382578235916001600160401b038311610382576020838186019501011161038257565b346103825760c0366003190112610382576004356110b561101b565b90604435906110c3826105da565b6064356001600160401b038111610382576110e290369060040161106c565b6084356001600160401b03811161038257611101903690600401610687565b9160a435946001600160401b038611610382576105229661112961112f973690600401610687565b95611d0b565b6040519081529081906020820190565b346103825760803660031901126103825760043561115b61101b565b906044356001600160401b0381116103825761117b90369060040161106c565b9190926064356001600160401b03811161038257610eb3946111a46111ac923690600401610687565b943691610651565b9133906125f4565b3461038257602036600319011261038257602061106460043561272f565b34610382576060366003190112610382576004356111ee61101b565b90604435906001600160401b0382116103825760209261121f61121861106494369060040161106c565b3691610651565b913390612577565b34610382576080366003190112610382576004356001600160401b03811161038257611257903690600401610735565b6024356001600160401b0381116103825761127690369060040161079c565b906044356001600160401b038111610382576112969036906004016107f9565b90606435916001600160401b038311610382573660238401121561038257610522936112cf61112f943690602481600401359101610651565b92611e0f565b34610382576020366003190112610382576004356112f2816105da565b60018060a01b03165f526002602052602060405f2054604051908152f35b90602080835192838152019201905f5b81811061132d5750505090565b8251845260209384019390920191600101611320565b34610382575f366003190112610382576113e561137f7f000000000000000000000000000000000000000000000000000000000000000061306a565b6105226113ab7f00000000000000000000000000000000000000000000000000000000000000006130c9565b6113f3604051916113bd6020846105ff565b5f808452366020850137604051958695600f60f81b875260e0602088015260e0870190610496565b908582036040870152610496565b904660608501523060808501525f60a085015283820360c0850152611310565b346103825760803660031901126103825760043561142f61101b565b906044359161143d836105da565b6064356001600160401b03811161038257610c1c6114626114f0923690600401610687565b6001600160a01b0386165f9081526002602052604090208054600181019091556114ea9060405160208101917ff2aad550cf55f045cb27e9c559f9889fdfb6e6cdaa032301d6ea397784ae51d7835288604083015260ff8816606083015260018060a01b038a16608083015260a082015260a081526114e260c0826105ff565b519020612d9e565b86612dce565b61150b579061112f9161052293611505611bed565b92612577565b6394ab6c0760e01b5f526001600160a01b03831660045260245b5ffd5b34610382575f366003190112610382576020611542612016565b65ffffffffffff60405191168152f35b34610382575f36600319011261038257602060405160648152f35b346103825760603660031901126103825760043561158a816105da565b6024356044356001600160401b038111610382576115ac903690600401610687565b50604051630748d63560e31b81526001600160a01b039283166004820152602481019190915290602090829060449082907f0000000000000000000000000000000000000000000000000000000000000000165afa8015610ad857610522915f91611623575b506040519081529081906020820190565b61163c915060203d602011610b0557610af781836105ff565b5f611612565b34610382575f3660031901126103825760206001600160d01b036116646129d9565b16604051908152f35b346103825760203660031901126103825760043561168a816105da565b6116926122c8565b600954604080516001600160a01b03808416825290931660208401819052927f08f74ea46ef7894f65eabfb5e6e695de773a000b47c529ab559178069b2264019190a16001600160a01b03191617600955005b346103825760206110646116f836610877565b929190916121ae565b3461038257602036600319011261038257602060405160018152f35b346103825760203660031901126103825760206110646004355f52600460205265ffffffffffff600160405f2001541690565b34610382575f3660031901126103825760206040515f8152f35b346103825760a0366003190112610382576117866004356105da565b6117916024356105da565b6044356001600160401b038111610382576117b090369060040161079c565b506064356001600160401b038111610382576117d090369060040161079c565b506084356001600160401b038111610382576117f0903690600401610687565b506105226117fc6120af565b6040516001600160e01b031990911681529081906020820190565b346103825760203660031901126103825760206110646004356120ce565b60603660031901126103825760043561184d816105da565b6024356044356001600160401b03811161038257610020925f926118768493369060040161106c565b91906118806122c8565b826040519384928337810185815203925af13d156118bf573d906118a382610636565b916118b160405193846105ff565b82523d5f602084013e612a1d565b606090612a1d565b34610382575f366003190112610382576009546040516001600160a01b039091168152602090f35b34610382575f366003190112610382576105226040516119106040826105ff565b602081527f737570706f72743d627261766f2671756f72756d3d666f722c6162737461696e6020820152604051918291602083526020830190610496565b34610382575f3660031901126103825760206040517ff2aad550cf55f045cb27e9c559f9889fdfb6e6cdaa032301d6ea397784ae51d78152f35b34610382576040366003190112610382576004356119a5816105da565b6024355f6040516119b76020826105ff565b52604051630748d63560e31b81526001600160a01b039283166004820152602481019190915290602090829060449082907f0000000000000000000000000000000000000000000000000000000000000000165afa8015610ad857610522915f9161162357506040519081529081906020820190565b346103825760a036600319011261038257611a496004356105da565b611a546024356105da565b6084356001600160401b03811161038257611a73903690600401610687565b50600954306001600160a01b039091160361070f5760405163f23a6e6160e01b8152602090f35b34610382576020366003190112610382576020611064600435612224565b34610382575f366003190112610382576040517f00000000000000000000000000000000000000000000000000000000000000006001600160a01b03168152602090f35b90600182811c92168015611b2a575b6020831014611b1657565b634e487b7160e01b5f52602260045260245ffd5b91607f1691611b0b565b5f9291815491611b4383611afc565b8083529260018116908115611b985750600114611b5f57505050565b5f9081526020812093945091925b838310611b7e575060209250010190565b600181602092949394548385870101520191019190611b6d565b915050602093945060ff929192191683830152151560051b010190565b634e487b7160e01b5f52603260045260245ffd5b8051821015611bdd5760209160051b010190565b611bb5565b6040513d5f823e3d90fd5b60405190611bfc6020836105ff565b5f8252565b60405190611c106040836105ff565b601d82527f6d6f64653d626c6f636b6e756d6265722666726f6d3d64656661756c740000006020830152565b604051634bf5d7e960e01b81525f816004817f00000000000000000000000000000000000000000000000000000000000000006001600160a01b03165afa5f9181611c90575b506104cb57506104cb611c01565b9091503d805f833e611ca281836105ff565b810190602081830312610382578051906001600160401b038211610382570181601f8201121561038257805190611cd882610636565b92611ce660405194856105ff565b8284526020838301011161038257815f9260208093018386015e83010152905f611c82565b939092919695610c1c611dc491611dbe8a611d27368789610651565b6001600160a01b0382165f90815260026020526040902080546001810190915590602081519101208b5160208d0120906040519260208401947f3e83946653575f9a39005e1545185629e92736b7528ab20ca3816f315424a81186528d604086015260ff8d16606086015260018060a01b0316608085015260a084015260c083015260e082015260e081526114e2610100826105ff565b8a612dce565b611ddf576104cb959691611dd9913691610651565b926125f4565b6394ab6c0760e01b5f526001600160a01b03871660045260245ffd5b634e487b7160e01b5f52601160045260245ffd5b909192611e1c8133612826565b1561200357611e33815160208301208585856121ae565b938251845190818114801590611ff8575b8015611ff0575b611fd157505065ffffffffffff611e7c611e6d875f52600460205260405f2090565b5460a01c65ffffffffffff1690565b16611fb4577f7d84a6263ae0d98d3329bd7b46bb4e8d6f98cd35a7adb45c274c8b7fd5ebd5e0939291611fae91611ee5611eb4612016565b65ffffffffffff807f000000000000000000000000000000000000000000000000000000000000000016911661289c565b63ffffffff7f00000000000000000000000000000000000000000000000000000000000000001691611f8b611f228a5f52600460205260405f2090565b80546001600160a01b03191633178155611f62611f3e85612f54565b825465ffffffffffff60a01b191660a09190911b65ffffffffffff60a01b16178255565b611f6b8561303f565b815463ffffffff60d01b191660d09190911b63ffffffff60d01b16179055565b611f9f611f9887516128a9565b938361289c565b92604051978897338c8a6128f2565b0390a190565b61152585611fc18161246a565b6331b75e4d60e01b5f5290612357565b9151630447b05d60e41b5f908152600493909352602452604452606490fd5b508015611e4b565b508251811415611e44565b63d9b3955760e01b5f523360045260245ffd5b6040516324776b7d60e21b81526020816004817f00000000000000000000000000000000000000000000000000000000000000006001600160a01b03165afa5f918161206c575b506104cb57506104cb43612f54565b9091506020813d6020116120a7575b81612088602093836105ff565b81010312610382575165ffffffffffff8116810361038257905f61205d565b3d915061207b565b600954306001600160a01b039091160361070f5763bc197c8160e01b90565b805f52600460205265ffffffffffff60405f205460a01c16905f52600460205263ffffffff60405f205460d01c160165ffffffffffff81116121155765ffffffffffff1690565b611dfb565b90602080835192838152019201905f5b8181106121375750505090565b82516001600160a01b031684526020938401939092019160010161212a565b9080602083519182815201916020808360051b8301019401925f915b83831061218157505050505090565b909192939460208061219f600193601f198682030187528951610496565b97019301930191939290612172565b929061220f916121fb6121e9946040519586946121d7602087019960808b5260a088019061211a565b868103601f1901604088015290611310565b848103601f1901606086015290612156565b90608083015203601f1981018352826105ff565b51902090565b90816020910312610382575190565b604051632394e7a360e21b815260048101829052906020826024817f00000000000000000000000000000000000000000000000000000000000000006001600160a01b03165afa908115610ad8576104cb925f9261228d575b506122879061272f565b90612a61565b6122879192506122ab9060203d602011610b0557610af781836105ff565b919061227d565b600954306001600160a01b039091160361070f57565b600954336001600160a01b039091160361233157600954306001600160a01b03909116036122f257565b6122fb36610636565b61230860405191826105ff565b3681526020810190365f83375f602036830101525190205b80612329612acd565b036123205750565b6347096e4760e01b5f523360045260245ffd5b6008811015610d5c5760ff600191161b90565b600452606491906008811015610d5c576024525f604452565b6123798161246a565b90601061238583612344565b161561238f575090565b6331b75e4d60e01b5f526004526123a69150610d61565b601060445260645ffd5b6123b98161246a565b9060026123c583612344565b16156123cf575090565b6331b75e4d60e01b5f526004526123e69150610d61565b600260445260645ffd5b906123fa8261246a565b918161240584612344565b161561241057505090565b6331b75e4d60e01b5f5260045261242682610d61565b60445260645ffd5b612439906005612b84565b1561244057565b634e487b715f5260416020526024601cfd5b90816020910312610382575180151581036103825790565b61247381612c93565b9061247d82610d52565b600582036125735761249891505f52600a60205260405f2090565b546009546124ae906001600160a01b031661091e565b604051632c258a9f60e11b815260048101839052602081602481855afa908115610ad8575f91612554575b50156124e6575050600590565b604051632ab0f52960e01b81526004810192909252602090829060249082905afa908115610ad8575f91612525575b501561252057600790565b600290565b612547915060203d60201161254d575b61253f81836105ff565b810190612452565b5f612515565b503d612535565b61256d915060203d60201161254d5761253f81836105ff565b5f6124d9565b5090565b916104cb93916040519361258c6020866105ff565b5f85526125f4565b93909260ff6125c0936104cb97958752166020860152604085015260a0606085015260a0840190610496565b916080818403910152610496565b909260ff6080936104cb9695845216602083015260408201528160608201520190610496565b92919092612601816123b0565b50805f52600460205265ffffffffffff61262860405f2065ffffffffffff905460a01c1690565b1693604051630748d63560e31b815260018060a01b03821695866004830152602482015260208160448160018060a01b037f0000000000000000000000000000000000000000000000000000000000000000165afa908115610ad8576126989285915f9361270e575b5084612e3c565b948051155f146126db57506126d57fb8e138887d0aa13bab447e82de9d5c1777041ecd21ca36ba824ff1e6c07ddda49386604051948594856125ce565b0390a290565b6126d5907fe2babfbac5889a709b63bb7f598b324e08bc5a4fb9ec647fb3cbc9ec07eb8712948760405195869586612594565b61272891935060203d602011610b0557610af781836105ff565b915f612691565b65ffffffffffff90806127426008612f19565b9491501611155f1461275c57505b6001600160d01b031690565b6127669150612f54565b600854905f8291600584116127d2575b612782935060086135c1565b8061278e57505f612750565b6127c661279d6127cd926129be565b60085f527ff3f7a9fe364faab93b216da50a3214154f22a0a2b415b23a84c8169e8b636ee30190565b5460301c90565b612750565b91926127dd81613463565b8103908111612115576127829360085f5265ffffffffffff8260205f2001541665ffffffffffff8516105f14612814575091612776565b9291506128209061288e565b90612776565b908051603481106128865760131981830101516001600160b01b03191669dc8f8d908f908c9a8dc360b01b016128865761286591602919820190612faf565b901591821561287357505090565b6001600160a01b03918216911614919050565b505050600190565b906001820180921161211557565b9190820180921161211557565b906128b38261071e565b6128c060405191826105ff565b82815280926128d1601f199161071e565b01905f5b8281106128e157505050565b8060606020809385010152016128d5565b9599989697949391926129339361292592885260018060a01b03166020880152610120604088015261012087019061211a565b908582036060870152611310565b968388036080850152815180895260208901906020808260051b8c01019401915f905b82821061299257505050506104cb969750906129799184820360a0860152612156565b9360c083015260e0820152610100818403910152610496565b909192946020806129b06001938f601f199082030186528951610496565b970192019201909291612956565b5f1981019190821161211557565b9190820391821161211557565b600854806129e657505f90565b805f198101116121155760085f527ff3f7a9fe364faab93b216da50a3214154f22a0a2b415b23a84c8169e8b636ee2015460301c90565b15612a255790565b805115612a3457602081519101fd5b63d6bda27560e01b5f5260045ffd5b8115612a4d570490565b634e487b7160e01b5f52601260045260245ffd5b5f19828209908281029182808210910303908115612ac2578160641115612abb577f5c28f5c28f5c28f5c28f5c28f5c28f5c28f5c28f5c28f5c28f5c28f5c28f5c29936064910990828211900360fe1b910360021c170290565b6011612bf6565b505060649004919050565b612ad76005613100565b9015612ae05790565b634e487b715f5260316020526024601cfd5b949392612b1e608093612b10612b2c9460a08a5260a08a019061211a565b9088820360208a0152611310565b908682036040880152612156565b935f60608201520152565b9192612b6660a094612b58612b74949998979960c0875260c087019061211a565b908582036020870152611310565b908382036040850152612156565b945f606083015260808201520152565b908154908160801c6001600160801b036001820193166001600160801b03841614612bee576001600160801b03165f90815260018401602052604090205581546001600160801b031660809190911b6fffffffffffffffffffffffffffffffff1916179055600190565b505050505f90565b634e487b715f526020526024601cfd5b60095490949192916001600160a01b03909116906bffffffffffffffffffffffff193060601b16823b1561038257612c585f956040519788968795869563e38335e560e01b8752189260048601612af2565b039134905af18015610ad857612c7a575b505f908152600a6020526040812055565b80612c865f80936105ff565b800312610382575f612c69565b612ca5815f52600460205260405f2090565b5460f881901c9060f01c60ff16612d9757612d9157612cdd612cd2611e6d835f52600460205260405f2090565b65ffffffffffff1690565b8015612d7d57612cee612cd2612016565b80911015612d7757612cff826120ce565b10612d0a5750600190565b612d16610c1c826132cf565b8015612d54575b15612d285750600390565b612d46905f52600460205265ffffffffffff600160405f2001541690565b612d4f57600490565b600590565b50612d72610c1c825f52600760205260405f20600181015490541090565b612d1d565b50505f90565b636ad0607560e01b5f52600482905260245ffd5b50600290565b5050600790565b604290612da9613313565b906040519161190160f01b8352600283015260228201522090565b60041115610d5c57565b9190823b612df65790612de091613429565b50612dea81612dc4565b15918261287357505090565b916020926064835f94519060405193630b135d3f60e11b855260048501526040602485015286820190604485015e01915afa630b135d3f60e11b5f5114601f3d11161690565b612e51909291925f52600760205260405f2090565b9160038301612e7a612e7383839060018060a01b03165f5260205260405f2090565b5460ff1690565b612efd57612e9e60ff9392612eab929060018060a01b03165f5260205260405f2090565b805460ff19166001179055565b1680612ec25750612ebd82825461289c565b905590565b60018103612ed95750600101612ebd82825461289c565b600203612eee57600201612ebd82825461289c565b6303599be160e11b5f5260045ffd5b6371c6af4960e01b5f526001600160a01b03821660045260245ffd5b80549081612f2b5750505f905f905f90565b815f19810111612115575f525f199060205f2001015460019165ffffffffffff82169160301c90565b65ffffffffffff8111612f6c5765ffffffffffff1690565b6306dfcc6560e41b5f52603060045260245260445ffd5b908160011b918083046002149015171561211557565b908160041b918083046010149015171561211557565b9190825182118015613036575b61300f57612fc98161288e565b821180613018575b612fdc901515612f83565b6028018060281161211557612ff182846129cc565b0361300f57612fff9261361a565b90916001600160a01b0390911690565b5050505f905f90565b50602081840101516001600160f01b03191661060f60f31b14612fd1565b50818111612fbc565b63ffffffff81116130535763ffffffff1690565b6306dfcc6560e41b5f52602060045260245260445ffd5b60ff81146130b05760ff811690601f82116130a1576040519161308e6040846105ff565b6020808452838101919036833783525290565b632cd44ac360e21b5f5260045ffd5b506040516104cb816130c2815f611b34565b03826105ff565b60ff81146130ed5760ff811690601f82116130a1576040519161308e6040846105ff565b506040516104cb816130c2816001611b34565b908154906001600160801b0382169160801c8214613175576001926001600160801b036001808301945f61316182613149818a906001600160801b03165f5260205260405f2090565b5498906001600160801b03165f5260205260405f2090565b5501166001600160801b0319825416179055565b5f9250829150565b908154600160401b8110156106205760018101808455811015611bdd57610634925f5260205f2001906131cd65ffffffffffff825116839065ffffffffffff1665ffffffffffff19825416179055565b60200151815465ffffffffffff1660309190911b65ffffffffffff1916179055565b60085491929180156132a65761279d613207916129be565b90815461322361321c8265ffffffffffff1690565b9160301c90565b9265ffffffffffff808416921691808311613297578692036132615761325d92509065ffffffffffff82549181199060301b169116179055565b9190565b505061325d90613280613272610625565b65ffffffffffff9092168252565b6001600160d01b03851660208201525b600861317d565b632520601d60e01b5f5260045ffd5b506132ca906132b6613272610625565b6001600160d01b0384166020820152613290565b5f9190565b805f52600760205260405f20905f5260046020526132fb65ffffffffffff60405f205460a01c16612224565b60026001830154920154820180921161211557111590565b307f00000000000000000000000000000000000000000000000000000000000000006001600160a01b03161480613400575b1561336e577f000000000000000000000000000000000000000000000000000000000000000090565b60405160208101907f8b73c3c69bb8fe3d512ecc4cf759cc79239f7b179b0ffacaa9a75d522b39400f82527f000000000000000000000000000000000000000000000000000000000000000060408201527f000000000000000000000000000000000000000000000000000000000000000060608201524660808201523060a082015260a0815261220f60c0826105ff565b507f00000000000000000000000000000000000000000000000000000000000000004614613345565b8151919060418303613459576134529250602082015190606060408401519301515f1a906136c4565b9192909190565b50505f9160029190565b60018111156104cb57806001600160801b821015613584575b61352a61352061351661350c6135026134f86134e76135319760048a600160401b6135369c1015613577575b64010000000081101561356a575b6201000081101561355d575b610100811015613550575b6010811015613543575b101561353b575b60030260011c90565b6134f1818b612a43565b0160011c90565b6134f1818a612a43565b6134f18189612a43565b6134f18188612a43565b6134f18187612a43565b6134f18186612a43565b8093612a43565b821190565b900390565b60011b6134de565b60041c9160021b916134d7565b60081c9160041b916134cd565b60101c9160081b916134c2565b60201c9160101b916134b6565b60401c9160201b916134a8565b505061353661353161352a61352061351661350c6135026134f86134e76135ab8a60801c90565b9850600160401b975061347c9650505050505050565b905b8383106135d05750505090565b90919280841860011c8185160190835f5265ffffffffffff8260205f2001541665ffffffffffff8416105f1461360a5750925b91906135c3565b93506136159061288e565b613603565b9290926136268461288e565b8311806136a6575b61364061364791949293941515612f83565b5f9561289c565b915b8183106136595750505060019190565b9092919360ff61367a6136756020888601015160ff60f81b1690565b613746565b1690600f821161369b5790613690600192612f99565b019401919290613649565b505f94508493505050565b50602084820101516001600160f01b03191661060f60f31b1461362e565b91907f7fffffffffffffffffffffffffffffff5d576e7357a4501ddfe92f46681b20a0841161373b579160209360809260ff5f9560405194855216868401526040830152606082015282805260015afa15610ad8575f516001600160a01b0381161561373157905f905f90565b505f906001905f90565b5050505f9160039190565b60f81c602f8111806137ae575b1561376257602f190160ff1690565b60608111806137a4575b1561377b576056190160ff1690565b604081118061379a575b15613794576036190160ff1690565b5060ff90565b5060478110613785565b506067811061376c565b50603a811061375356fea264697066735822122092d8c2e66b1d8b88aa57657b1a1f47a8aa04013a27b9fe74f46d62613c60222364736f6c634300081c00330553476bf02ef2726e8ce5ced78d63e26e602e4a2257b1f559418e24b4633997","linkReferences":{}},"methodIdentifiers":{"BALLOT_TYPEHASH()":"deaaa7cc","CLOCK_MODE()":"4bf5d7e9","COUNTING_MODE()":"dd4e2ba5","EXTENDED_BALLOT_TYPEHASH()":"2fe3e261","cancel(address[],uint256[],bytes[],bytes32)":"452115d6","castVote(uint256,uint8)":"56781388","castVoteBySig(uint256,uint8,address,bytes)":"8ff262e3","castVoteWithReason(uint256,uint8,string)":"7b3c71d3","castVoteWithReasonAndParams(uint256,uint8,string,bytes)":"5f398a14","castVoteWithReasonAndParamsBySig(uint256,uint8,address,string,bytes,bytes)":"5b8d0e0d","clock()":"91ddadf4","eip712Domain()":"84b0196e","execute(address[],uint256[],bytes[],bytes32)":"2656227d","getProposalId(address[],uint256[],bytes[],bytes32)":"a8f8a668","getVotes(address,uint256)":"eb9019d4","getVotesWithParams(address,uint256,bytes)":"9a802a6d","hasVoted(uint256,address)":"43859632","hashProposal(address[],uint256[],bytes[],bytes32)":"c59057e4","name()":"06fdde03","nonces(address)":"7ecebe00","onERC1155BatchReceived(address,address,uint256[],uint256[],bytes)":"bc197c81","onERC1155Received(address,address,uint256,uint256,bytes)":"f23a6e61","onERC721Received(address,address,uint256,bytes)":"150b7a02","proposalDeadline(uint256)":"c01f9e37","proposalEta(uint256)":"ab58fb8e","proposalNeedsQueuing(uint256)":"a9a95294","proposalProposer(uint256)":"143489d0","proposalSnapshot(uint256)":"2d63f693","proposalThreshold()":"b58131b0","proposalVotes(uint256)":"544ffc9c","propose(address[],uint256[],bytes[],string)":"7d5e81e2","queue(address[],uint256[],bytes[],bytes32)":"160cbed7","quorum(uint256)":"f8ce560a","quorumDenominator()":"97c3d334","quorumNumerator()":"a7713a70","quorumNumerator(uint256)":"60c4247f","relay(address,uint256,bytes)":"c28bc2fa","state(uint256)":"3e4f49e6","supportsInterface(bytes4)":"01ffc9a7","timelock()":"d33219b4","token()":"fc0c546a","updateQuorumNumerator(uint256)":"06f3f9e6","updateTimelock(address)":"a890c910","version()":"54fd4d50","votingDelay()":"3932abb1","votingPeriod()":"02a251a3"},"id":13}