{"abi":[{"type":"constructor","inputs":[{"name":"shouldRevert_","type":"bool","internalType":"bool"}],"stateMutability":"nonpayable"},{"type":"function","name":"callCount","inputs":[],"outputs":[{"name":"","type":"uint256","internalType":"uint256"}],"stateMutability":"view"},{"type":"function","name":"lastBorrower","inputs":[],"outputs":[{"name":"","type":"address","internalType":"address"}],"stateMutability":"view"},{"type":"function","name":"lastCollateralSeized","inputs":[],"outputs":[{"name":"","type":"uint256","internalType":"uint256"}],"stateMutability":"view"},{"type":"function","name":"lastCorrelationId","inputs":[],"outputs":[{"name":"","type":"bytes32","internalType":"bytes32"}],"stateMutability":"view"},{"type":"function","name":"lastDebtRepaid","inputs":[],"outputs":[{"name":"","type":"uint256","internalType":"uint256"}],"stateMutability":"view"},{"type":"function","name":"notifyLiquidation","inputs":[{"name":"borrower","type":"address","internalType":"address"},{"name":"debtRepaid","type":"uint256","internalType":"uint256"},{"name":"collateralSeized","type":"uint256","internalType":"uint256"},{"name":"correlationId","type":"bytes32","internalType":"bytes32"}],"outputs":[],"stateMutability":"nonpayable"},{"type":"function","name":"shouldRevert","inputs":[],"outputs":[{"name":"","type":"bool","internalType":"bool"}],"stateMutability":"view"},{"type":"event","name":"NotificationReceived","inputs":[{"name":"borrower","type":"address","indexed":true,"internalType":"address"},{"name":"debtRepaid","type":"uint256","indexed":false,"internalType":"uint256"},{"name":"collateralSeized","type":"uint256","indexed":false,"internalType":"uint256"},{"name":"correlationId","type":"bytes32","indexed":false,"internalType":"bytes32"}],"anonymous":false}],"bytecode":{"object":"0x60a0604052348015600e575f5ffd5b5060405161034d38038061034d833981016040819052602b916034565b15156080526058565b5f602082840312156043575f5ffd5b815180151581146051575f5ffd5b9392505050565b6080516102d76100765f395f818160f9015261012d01526102d75ff3fe608060405234801561000f575f5ffd5b506004361061007a575f3560e01c80639130d380116100585780639130d380146100cd578063ad890ab0146100d6578063b64db40d146100eb578063d3072d82146100f4575f5ffd5b8063427d2ff51461007e5780634b28f9a21461009a57806387b37b31146100a3575b5f5ffd5b61008760035481565b6040519081526020015b60405180910390f35b61008760045481565b5f546100b5906001600160a01b031681565b6040516001600160a01b039091168152602001610091565b61008760015481565b6100e96100e436600461023a565b61012b565b005b61008760025481565b61011b7f000000000000000000000000000000000000000000000000000000000000000081565b6040519015158152602001610091565b7f0000000000000000000000000000000000000000000000000000000000000000156101ac5760405162461bcd60e51b815260206004820152602660248201527f4d6f636b4c69717569646174696f6e4e6f7469666965723a20666f72636564206044820152651c995d995c9d60d21b606482015260840160405180910390fd5b5f80546001600160a01b0319166001600160a01b03861617815560018490556002839055600382905560048054916101e38361027d565b909155505060408051848152602081018490529081018290526001600160a01b038516907fbfb6627be9ec8a2c684f23d8ad3f7a91abee2c23446171a2a01cdd69732e300e9060600160405180910390a250505050565b5f5f5f5f6080858703121561024d575f5ffd5b84356001600160a01b0381168114610263575f5ffd5b966020860135965060408601359560600135945092505050565b5f6001820161029a57634e487b7160e01b5f52601160045260245ffd5b506001019056fea26469706673582212201a38d8a29c4ba68c3f061f912511b083f6a836ef43e6e775bc98991a11e5dffb64736f6c634300081c0033","linkReferences":{}},"methodIdentifiers":{"callCount()":"4b28f9a2","lastBorrower()":"87b37b31","lastCollateralSeized()":"b64db40d","lastCorrelationId()":"427d2ff5","lastDebtRepaid()":"9130d380","notifyLiquidation(address,uint256,uint256,bytes32)":"ad890ab0","shouldRevert()":"d3072d82"},"id":33}