{"abi":[{"type":"constructor","inputs":[{"name":"authority","type":"address","internalType":"address"},{"name":"initialPriceWad","type":"uint256","internalType":"uint256"},{"name":"initialMaxAge","type":"uint256","internalType":"uint256"},{"name":"initialMinPriceWad","type":"uint256","internalType":"uint256"},{"name":"initialMaxPriceWad","type":"uint256","internalType":"uint256"},{"name":"initialMaxPriceChangeBps","type":"uint256","internalType":"uint256"}],"stateMutability":"nonpayable"},{"type":"function","name":"authority","inputs":[],"outputs":[{"name":"","type":"address","internalType":"address"}],"stateMutability":"view"},{"type":"function","name":"currentAge","inputs":[],"outputs":[{"name":"","type":"uint256","internalType":"uint256"}],"stateMutability":"view"},{"type":"function","name":"currentStateHash","inputs":[],"outputs":[{"name":"","type":"bytes32","internalType":"bytes32"}],"stateMutability":"view"},{"type":"function","name":"isConsumingScheduledOp","inputs":[],"outputs":[{"name":"","type":"bytes4","internalType":"bytes4"}],"stateMutability":"view"},{"type":"function","name":"isFresh","inputs":[],"outputs":[{"name":"","type":"bool","internalType":"bool"}],"stateMutability":"view"},{"type":"function","name":"lastUpdatedAt","inputs":[],"outputs":[{"name":"","type":"uint256","internalType":"uint256"}],"stateMutability":"view"},{"type":"function","name":"latestPriceWad","inputs":[],"outputs":[{"name":"","type":"uint256","internalType":"uint256"}],"stateMutability":"view"},{"type":"function","name":"maxAge","inputs":[],"outputs":[{"name":"","type":"uint256","internalType":"uint256"}],"stateMutability":"view"},{"type":"function","name":"maxPriceChangeBps","inputs":[],"outputs":[{"name":"","type":"uint256","internalType":"uint256"}],"stateMutability":"view"},{"type":"function","name":"maxPriceWad","inputs":[],"outputs":[{"name":"","type":"uint256","internalType":"uint256"}],"stateMutability":"view"},{"type":"function","name":"minPriceWad","inputs":[],"outputs":[{"name":"","type":"uint256","internalType":"uint256"}],"stateMutability":"view"},{"type":"function","name":"oracleEpoch","inputs":[],"outputs":[{"name":"","type":"uint256","internalType":"uint256"}],"stateMutability":"view"},{"type":"function","name":"oracleStateHash","inputs":[],"outputs":[{"name":"","type":"bytes32","internalType":"bytes32"}],"stateMutability":"view"},{"type":"function","name":"pause","inputs":[],"outputs":[],"stateMutability":"nonpayable"},{"type":"function","name":"paused","inputs":[],"outputs":[{"name":"","type":"bool","internalType":"bool"}],"stateMutability":"view"},{"type":"function","name":"priceWad","inputs":[],"outputs":[{"name":"","type":"uint256","internalType":"uint256"}],"stateMutability":"view"},{"type":"function","name":"setAuthority","inputs":[{"name":"newAuthority","type":"address","internalType":"address"}],"outputs":[],"stateMutability":"nonpayable"},{"type":"function","name":"setCircuitBreaker","inputs":[{"name":"newMinPriceWad","type":"uint256","internalType":"uint256"},{"name":"newMaxPriceWad","type":"uint256","internalType":"uint256"},{"name":"newMaxPriceChangeBps","type":"uint256","internalType":"uint256"}],"outputs":[],"stateMutability":"nonpayable"},{"type":"function","name":"setMaxAge","inputs":[{"name":"newMaxAge","type":"uint256","internalType":"uint256"}],"outputs":[],"stateMutability":"nonpayable"},{"type":"function","name":"setPrice","inputs":[{"name":"newPriceWad","type":"uint256","internalType":"uint256"}],"outputs":[],"stateMutability":"nonpayable"},{"type":"function","name":"unpause","inputs":[],"outputs":[],"stateMutability":"nonpayable"},{"type":"event","name":"AuthorityUpdated","inputs":[{"name":"authority","type":"address","indexed":false,"internalType":"address"}],"anonymous":false},{"type":"event","name":"CircuitBreakerUpdated","inputs":[{"name":"minPriceWad","type":"uint256","indexed":false,"internalType":"uint256"},{"name":"maxPriceWad","type":"uint256","indexed":false,"internalType":"uint256"},{"name":"maxPriceChangeBps","type":"uint256","indexed":false,"internalType":"uint256"},{"name":"oracleEpoch","type":"uint256","indexed":false,"internalType":"uint256"}],"anonymous":false},{"type":"event","name":"MaxAgeUpdated","inputs":[{"name":"maxAge","type":"uint256","indexed":false,"internalType":"uint256"},{"name":"oracleEpoch","type":"uint256","indexed":false,"internalType":"uint256"}],"anonymous":false},{"type":"event","name":"OraclePauseStateUpdated","inputs":[{"name":"paused","type":"bool","indexed":false,"internalType":"bool"},{"name":"oracleEpoch","type":"uint256","indexed":false,"internalType":"uint256"}],"anonymous":false},{"type":"event","name":"Paused","inputs":[{"name":"account","type":"address","indexed":false,"internalType":"address"}],"anonymous":false},{"type":"event","name":"PriceUpdated","inputs":[{"name":"priceWad","type":"uint256","indexed":false,"internalType":"uint256"},{"name":"timestamp","type":"uint256","indexed":false,"internalType":"uint256"},{"name":"oracleEpoch","type":"uint256","indexed":false,"internalType":"uint256"}],"anonymous":false},{"type":"event","name":"Unpaused","inputs":[{"name":"account","type":"address","indexed":false,"internalType":"address"}],"anonymous":false},{"type":"error","name":"AccessManagedInvalidAuthority","inputs":[{"name":"authority","type":"address","internalType":"address"}]},{"type":"error","name":"AccessManagedRequiredDelay","inputs":[{"name":"caller","type":"address","internalType":"address"},{"name":"delay","type":"uint32","internalType":"uint32"}]},{"type":"error","name":"AccessManagedUnauthorized","inputs":[{"name":"caller","type":"address","internalType":"address"}]},{"type":"error","name":"EnforcedPause","inputs":[]},{"type":"error","name":"ExpectedPause","inputs":[]},{"type":"error","name":"InvalidConfiguration","inputs":[]},{"type":"error","name":"OraclePriceDeltaTooLarge","inputs":[{"name":"previousPriceWad","type":"uint256","internalType":"uint256"},{"name":"nextPriceWad","type":"uint256","internalType":"uint256"},{"name":"maxDeltaBps","type":"uint256","internalType":"uint256"}]},{"type":"error","name":"OraclePriceOutOfBounds","inputs":[{"name":"priceWad","type":"uint256","internalType":"uint256"},{"name":"minPriceWad","type":"uint256","internalType":"uint256"},{"name":"maxPriceWad","type":"uint256","internalType":"uint256"}]},{"type":"error","name":"OraclePriceStale","inputs":[{"name":"age","type":"uint256","internalType":"uint256"},{"name":"maxAge","type":"uint256","internalType":"uint256"}]},{"type":"error","name":"OraclePriceUnset","inputs":[]}],"bytecode":{"object":"0x60803461014357601f610b9b38819003918201601f19168301916001600160401b038311848410176101475780849260c0946040528339810103126101435780516001600160a01b038116919082900361014357602081015160408201516060830151917f2f658b440c35314f52658ea8a740e05b284cdc84dc9ae01e891f21b8933e7cad602060a06080870151960151968060018060a01b03195f5416175f55604051908152a18215801561013a575b801561012f575b6100ee57806100fd575b81156100ee57600155426002556003556004556005556006556001600755604051610a3f908161015c8239f35b63c52a9bd360e01b5f5260045ffd5b8281108015610126575b156100c1579050631070912960e21b5f5260045260245260445260645ffd5b50838111610107565b5061271085116100b7565b508284106100b0565b5f80fd5b634e487b7160e01b5f52604160045260245ffdfe60806040526004361015610011575f80fd5b5f3560e01c80633f4ba83a1461063557806354aea127146106185780635ae28fc9146105b75780635c975abb146105935780635e4f890c146104c85780636268ceaa14610470578063687043c514610453578063697cd71a146104365780637a9e5e4b146103965780638456cb59146102fc578063869ab8ac146102925780638fb360371461024f57806391b7f5ed146101ca578063b4d8c0b31461012a578063b8fea0a1146101ad578063ba65ff2814610190578063bb47b68a14610173578063bf7e214f1461014c578063cf3dd5d51461012f578063e16d9da71461012a5763e1b0385f14610100575f80fd5b34610126575f36600319011261012657602061011e60025442610758565b604051908152f35b5f80fd5b6106da565b34610126575f366003190112610126576020600554604051908152f35b34610126575f366003190112610126575f546040516001600160a01b039091168152602090f35b34610126575f366003190112610126576020600154604051908152f35b34610126575f366003190112610126576020600754604051908152f35b34610126575f366003190112610126576020600454604051908152f35b34610126576020366003190112610126577f15819dd2fd9f6418b142e798d08a18d0bf06ea368f4480b7b0d3f75bd966bc48606060043561020b36336107af565b61021b6004546005549083610915565b61022b6001548260065491610966565b806001554260025561023b610900565b6040519182524260208301526040820152a1005b34610126575f366003190112610126575f5460a01c60ff161561028a576020638fb3603760e01b5b6040516001600160e01b03199091168152f35b60205f610277565b34610126575f366003190112610126576102aa610949565b60015480156102ed576102bf60025442610758565b90600354918281116102d657602082604051908152f35b905063621b9f8160e11b5f5260045260245260445ffd5b637446aabb60e01b5f5260045ffd5b34610126575f3660031901126101265761031636336107af565b61031e610949565b5f805460ff60a81b1916600160a81b1790556040513381527f62e78cea01bee320cd4e420270b5ea74000d11b0c9f74754ebdbfc544b05a25890602090a17ff2a7ba78eed53522b634b8ef5fb69110aec14c2d97ce40761333338174d9db3e6040610387610900565b815190600182526020820152a1005b34610126576020366003190112610126576004356001600160a01b03811690818103610126575f54906001600160a01b0382163303610424573b15610411576001600160a01b03191681175f556040519081527f2f658b440c35314f52658ea8a740e05b284cdc84dc9ae01e891f21b8933e7cad90602090a1005b506361798f2f60e11b5f5260045260245ffd5b62d1953b60e31b5f523360045260245ffd5b34610126575f366003190112610126576020600654604051908152f35b34610126575f366003190112610126576020600354604051908152f35b34610126575f366003190112610126576001541515806104b9575b8061049e575b6020906040519015158152f35b5060206104ad60025442610758565b60035410159050610491565b5060ff5f5460a81c161561048b565b34610126576060366003190112610126576024356044356004356104ec36336107af565b8015801561058a575b801561057f575b610570577f595b82fe980573accd93caff3e8d93c76f180511c046ac80606e42e4f77503929260809260015482848261055f575b9150506004558160055580600655610546610900565b91604051938452602084015260408301526060820152a1005b61056892610915565b858284610530565b63c52a9bd360e01b5f5260045ffd5b5061271082116104fc565b508083106104f5565b34610126575f36600319011261012657602060ff5f5460a81c166040519015158152f35b34610126576020366003190112610126576004356105d536336107af565b8015610570576040817f1293e51547e7dfe0f71bcd8fbe56949db0c3162cb40fe283a5b45544b6cafac49260035561060b610900565b82519182526020820152a1005b34610126575f366003190112610126576020600254604051908152f35b34610126575f3660031901126101265761064f36336107af565b5f5460ff8160a81c16156106cb5760ff60a81b19165f556040513381527f5db9ee0a495bf2e6ff9c91a7834c1ba4fdd244a5e8aa4e537bd38aeae4b073aa90602090a17ff2a7ba78eed53522b634b8ef5fb69110aec14c2d97ce40761333338174d9db3e60406106bd610900565b8151905f82526020820152a1005b638dfc202b60e01b5f5260045ffd5b34610126575f366003190112610126576020600754600154600254600354600454600554906006549260ff5f5460a81c16946040519689880198895260408801526060870152608086015260a085015260c084015260e08301521515610100820152610100815261074d61012082610779565b519020604051908152f35b9190820391821161076557565b634e487b7160e01b5f52601160045260245ffd5b90601f8019910116810190811067ffffffffffffffff82111761079b57604052565b634e487b7160e01b5f52604160045260245ffd5b5f805490926001600160a01b038216929160048210610126575f5f9060405f815196602088019063b700961360e01b825260018060a01b03169788602482015230604482015263ffffffff60e01b833516606482015260648152610814608482610779565b828052826020525190895afa6108ed575b15610833575b505050505050565b63ffffffff16156108db5760ff60a01b1916600160a01b175f55823b15610126576064925f9283604051958680958194634a63ebf760e11b83526004830152604060248301528060448301528084848401378181018301849052601f01601f191681010301925af180156108d0576108bd575b50805460ff60a01b191690555f808080808061082b565b6108c991505f90610779565b5f5f6108a6565b6040513d5f823e3d90fd5b8262d1953b60e31b5f5260045260245ffd5b50505f516020518060201c150290610825565b60075460018101809111610765578060075590565b8181108015610940575b61092857505050565b631070912960e21b5f5260045260245260445260645ffd5b5082811161091f565b60ff5f5460a81c1661095757565b63d93c066560e01b5f5260045ffd5b8015808015610a01575b80156109f8575b6109f257828211156109e25761098d8383610758565b905b6127108202918083046127101490151715610765576109ce5781849104116109b657505050565b63599a089d60e11b5f5260045260245260445260645ffd5b634e487b7160e01b5f52601260045260245ffd5b6109ec8284610758565b9061098f565b50505050565b50828214610977565b50831561097056fea26469706673582212204f5fbda108cc5a56a9466bec93801b25fd8ecd2afda3b07e77f1673459c8f6f864736f6c634300081c0033","linkReferences":{}},"methodIdentifiers":{"authority()":"bf7e214f","currentAge()":"e1b0385f","currentStateHash()":"b4d8c0b3","isConsumingScheduledOp()":"8fb36037","isFresh()":"6268ceaa","lastUpdatedAt()":"54aea127","latestPriceWad()":"869ab8ac","maxAge()":"687043c5","maxPriceChangeBps()":"697cd71a","maxPriceWad()":"cf3dd5d5","minPriceWad()":"b8fea0a1","oracleEpoch()":"ba65ff28","oracleStateHash()":"e16d9da7","pause()":"8456cb59","paused()":"5c975abb","priceWad()":"bb47b68a","setAuthority(address)":"7a9e5e4b","setCircuitBreaker(uint256,uint256,uint256)":"5e4f890c","setMaxAge(uint256)":"5ae28fc9","setPrice(uint256)":"91b7f5ed","unpause()":"3f4ba83a"},"id":6}