{"abi":[{"type":"function","name":"lastA","inputs":[],"outputs":[{"name":"","type":"uint256","internalType":"uint256"}],"stateMutability":"view"},{"type":"function","name":"lastB","inputs":[],"outputs":[{"name":"","type":"uint256","internalType":"uint256"}],"stateMutability":"view"},{"type":"function","name":"lastCallId","inputs":[],"outputs":[{"name":"","type":"bytes32","internalType":"bytes32"}],"stateMutability":"view"},{"type":"function","name":"lastResultHash","inputs":[],"outputs":[{"name":"","type":"bytes32","internalType":"bytes32"}],"stateMutability":"view"},{"type":"function","name":"receivePvmResult","inputs":[{"name":"callId","type":"bytes32","internalType":"bytes32"},{"name":"resultHash","type":"bytes32","internalType":"bytes32"},{"name":"a","type":"uint256","internalType":"uint256"},{"name":"b","type":"uint256","internalType":"uint256"}],"outputs":[],"stateMutability":"nonpayable"},{"type":"function","name":"seenCallIds","inputs":[{"name":"","type":"bytes32","internalType":"bytes32"}],"outputs":[{"name":"","type":"bool","internalType":"bool"}],"stateMutability":"view"},{"type":"event","name":"CallbackReceived","inputs":[{"name":"caller","type":"address","indexed":true,"internalType":"address"},{"name":"callId","type":"bytes32","indexed":true,"internalType":"bytes32"},{"name":"resultHash","type":"bytes32","indexed":true,"internalType":"bytes32"},{"name":"a","type":"uint256","indexed":false,"internalType":"uint256"},{"name":"b","type":"uint256","indexed":false,"internalType":"uint256"}],"anonymous":false},{"type":"error","name":"DuplicateCallId","inputs":[{"name":"callId","type":"bytes32","internalType":"bytes32"}]}],"bytecode":{"object":"0x6080604052348015600e575f5ffd5b506102058061001c5f395ff3fe608060405234801561000f575f5ffd5b5060043610610060575f3560e01c8063249c8a57146100645780632dea07ab1461008057806341cd76dd146100955780634858628c146100c75780635dcefbc7146100d05780635e98d50c146100d9575b5f5ffd5b61006d60045481565b6040519081526020015b60405180910390f35b61009361008e366004610189565b6100e2565b005b6100b76100a33660046101b8565b5f6020819052908152604090205460ff1681565b6040519015158152602001610077565b61006d60015481565b61006d60025481565b61006d60035481565b5f8481526020819052604090205460ff1615610118576040516357f3000b60e01b81526004810185905260240160405180910390fd5b5f8481526020818152604091829020805460ff1916600190811790915586905560028590556003849055600483905581518481529081018390528491869133917f55e2f8bf6327467151fedfa1c9e88f8c8e4d4faeaf07c2642ed84f8e16e6afc9910160405180910390a450505050565b5f5f5f5f6080858703121561019c575f5ffd5b5050823594602084013594506040840135936060013592509050565b5f602082840312156101c8575f5ffd5b503591905056fea2646970667358221220f3e02723d527c5eab227d5be57dfa2baf58443c8b3e2dd3b65f1bf9476bcc94664736f6c634300081c0033","linkReferences":{}},"methodIdentifiers":{"lastA()":"5e98d50c","lastB()":"249c8a57","lastCallId()":"4858628c","lastResultHash()":"5dcefbc7","receivePvmResult(bytes32,bytes32,uint256,uint256)":"2dea07ab","seenCallIds(bytes32)":"41cd76dd"},"id":25}