{"abi":[{"type":"constructor","inputs":[{"name":"quoteAdapter_","type":"address","internalType":"contract IVmQuoteAdapterProbe"}],"stateMutability":"nonpayable"},{"type":"function","name":"lastBorrowRateBps","inputs":[],"outputs":[{"name":"","type":"uint256","internalType":"uint256"}],"stateMutability":"view"},{"type":"function","name":"lastLiquidationThresholdBps","inputs":[],"outputs":[{"name":"","type":"uint256","internalType":"uint256"}],"stateMutability":"view"},{"type":"function","name":"lastMaxLtvBps","inputs":[],"outputs":[{"name":"","type":"uint256","internalType":"uint256"}],"stateMutability":"view"},{"type":"function","name":"lastQuoteHash","inputs":[],"outputs":[{"name":"","type":"bytes32","internalType":"bytes32"}],"stateMutability":"view"},{"type":"function","name":"principalDebt","inputs":[],"outputs":[{"name":"","type":"uint256","internalType":"uint256"}],"stateMutability":"view"},{"type":"function","name":"quoteAdapter","inputs":[],"outputs":[{"name":"","type":"address","internalType":"contract IVmQuoteAdapterProbe"}],"stateMutability":"view"},{"type":"function","name":"settleBorrow","inputs":[{"name":"input","type":"tuple","internalType":"struct IRiskEngine.QuoteInput","components":[{"name":"utilizationBps","type":"uint256","internalType":"uint256"},{"name":"collateralRatioBps","type":"uint256","internalType":"uint256"},{"name":"oracleAgeSeconds","type":"uint256","internalType":"uint256"},{"name":"oracleFresh","type":"bool","internalType":"bool"},{"name":"policyMaxLtvBps","type":"uint256","internalType":"uint256"},{"name":"policyLiqThresholdBps","type":"uint256","internalType":"uint256"},{"name":"policyBorrowRateFloorBps","type":"uint256","internalType":"uint256"}]},{"name":"debtDelta","type":"uint256","internalType":"uint256"}],"outputs":[],"stateMutability":"nonpayable"},{"type":"function","name":"settleLiquidationCheck","inputs":[{"name":"input","type":"tuple","internalType":"struct IRiskEngine.QuoteInput","components":[{"name":"utilizationBps","type":"uint256","internalType":"uint256"},{"name":"collateralRatioBps","type":"uint256","internalType":"uint256"},{"name":"oracleAgeSeconds","type":"uint256","internalType":"uint256"},{"name":"oracleFresh","type":"bool","internalType":"bool"},{"name":"policyMaxLtvBps","type":"uint256","internalType":"uint256"},{"name":"policyLiqThresholdBps","type":"uint256","internalType":"uint256"},{"name":"policyBorrowRateFloorBps","type":"uint256","internalType":"uint256"}]}],"outputs":[],"stateMutability":"nonpayable"},{"type":"function","name":"settlementCount","inputs":[],"outputs":[{"name":"","type":"uint256","internalType":"uint256"}],"stateMutability":"view"},{"type":"event","name":"RoundTripSettled","inputs":[{"name":"action","type":"bytes32","indexed":true,"internalType":"bytes32"},{"name":"quoteHash","type":"bytes32","indexed":true,"internalType":"bytes32"},{"name":"pvmTargetId","type":"bytes32","indexed":true,"internalType":"bytes32"},{"name":"principalDebt","type":"uint256","indexed":false,"internalType":"uint256"},{"name":"debtDeltaApplied","type":"uint256","indexed":false,"internalType":"uint256"},{"name":"borrowRateBps","type":"uint256","indexed":false,"internalType":"uint256"},{"name":"maxLtvBps","type":"uint256","indexed":false,"internalType":"uint256"},{"name":"liquidationThresholdBps","type":"uint256","indexed":false,"internalType":"uint256"},{"name":"transportMode","type":"uint8","indexed":false,"internalType":"enum IVmQuoteAdapterProbe.TransportMode"}],"anonymous":false},{"type":"error","name":"InvalidQuoteAdapter","inputs":[]}],"bytecode":{"object":"0x60a060405234801561000f575f5ffd5b506040516107c63803806107c683398101604081905261002e91610066565b6001600160a01b03811661005557604051635b1d6b3360e11b815260040160405180910390fd5b6001600160a01b0316608052610093565b5f60208284031215610076575f5ffd5b81516001600160a01b038116811461008c575f5ffd5b9392505050565b6080516107006100c65f395f818160be0152818161015c0152818161021b01528181610370015261042601526107005ff3fe608060405234801561000f575f5ffd5b5060043610610090575f3560e01c80637a8d130f116100635780637a8d130f1461010d57806394db54e114610115578063a5cfdd0e14610128578063a9f6501114610131578063ee580abf1461013a575f5ffd5b806301a0a20f14610094578063037eca76146100b0578063255740ce146100b9578063255b2c0c146100f8575b5f5ffd5b61009d60015481565b6040519081526020015b60405180910390f35b61009d60055481565b6100e07f000000000000000000000000000000000000000000000000000000000000000081565b6040516001600160a01b0390911681526020016100a7565b61010b6101063660046104d9565b610143565b005b61009d5f5481565b61010b6101233660046104fa565b610202565b61009d60025481565b61009d60045481565b61009d60035481565b604051638ee997d760e01b81525f906001600160a01b037f00000000000000000000000000000000000000000000000000000000000000001690638ee997d790610191908590600401610524565b6060604051808303815f875af11580156101ad573d5f5f3e3d5ffd5b505050506040513d601f19601f820116820180604052508101906101d1919061057e565b90506101fe7fc3b8ae345df600e32aa1539b8fb46be6d99c252e9649250b7a639e8e01db5a0b825f610302565b5050565b604051638ee997d760e01b81525f906001600160a01b037f00000000000000000000000000000000000000000000000000000000000000001690638ee997d790610250908690600401610524565b6060604051808303815f875af115801561026c573d5f5f3e3d5ffd5b505050506040513d601f19601f82011682018060405250810190610290919061057e565b90505f612710825f0151846102a591906105f7565b6102af9190610614565b6102b99084610633565b9050805f5f8282546102cb9190610633565b909155506102fc90507fa397fc7accc45bf7fead271776fb34ca4f7c16b2255cafdc82fbe97199ee6ea88383610302565b50505050565b8151600181905560208084015160028190556040808601516003819055815180850195909552848201929092526060808501929092528051808503909201825260809093019092528151910120600481905550600160055f8282546103679190610633565b925050819055507f00000000000000000000000000000000000000000000000000000000000000006001600160a01b0316632a0abe016040518163ffffffff1660e01b8152600401602060405180830381865afa1580156103ca573d5f5f3e3d5ffd5b505050506040513d601f19601f820116820180604052508101906103ee9190610646565b600454847f6a01d3afb5756bb7ec86fc0a2151349a14953552dd10525dcad9203dbdc6808e5f5485875f0151886020015189604001517f00000000000000000000000000000000000000000000000000000000000000006001600160a01b031663d65fb48f6040518163ffffffff1660e01b8152600401602060405180830381865afa158015610480573d5f5f3e3d5ffd5b505050506040513d601f19601f820116820180604052508101906104a4919061065d565b6040516104b69695949392919061067b565b60405180910390a4505050565b5f60e082840312156104d3575f5ffd5b50919050565b5f60e082840312156104e9575f5ffd5b6104f383836104c3565b9392505050565b5f5f610100838503121561050c575f5ffd5b61051684846104c3565b9460e0939093013593505050565b81358152602080830135908201526040808301359082015260e081016060830135801515808214610553575f5ffd5b6060840152506080838101359083015260a0808401359083015260c092830135929091019190915290565b5f606082840312801561058f575f5ffd5b506040516060810167ffffffffffffffff811182821017156105bf57634e487b7160e01b5f52604160045260245ffd5b60409081528351825260208085015190830152928301519281019290925250919050565b634e487b7160e01b5f52601160045260245ffd5b808202811582820484141761060e5761060e6105e3565b92915050565b5f8261062e57634e487b7160e01b5f52601260045260245ffd5b500490565b8082018082111561060e5761060e6105e3565b5f60208284031215610656575f5ffd5b5051919050565b5f6020828403121561066d575f5ffd5b8151600481106104f3575f5ffd5b5f60c082019050878252866020830152856040830152846060830152836080830152600483106106b957634e487b7160e01b5f52602160045260245ffd5b8260a083015297965050505050505056fea2646970667358221220c17db26a458d28de54fa7db707952850af66d09328b7eefa321d74d948f3fd8e64736f6c634300081c0033","linkReferences":{}},"methodIdentifiers":{"lastBorrowRateBps()":"01a0a20f","lastLiquidationThresholdBps()":"ee580abf","lastMaxLtvBps()":"a5cfdd0e","lastQuoteHash()":"a9f65011","principalDebt()":"7a8d130f","quoteAdapter()":"255740ce","settleBorrow((uint256,uint256,uint256,bool,uint256,uint256,uint256),uint256)":"94db54e1","settleLiquidationCheck((uint256,uint256,uint256,bool,uint256,uint256,uint256))":"255b2c0c","settlementCount()":"037eca76"},"id":27}