{"abi":[{"type":"function","name":"callbackFingerprint","inputs":[{"name":"receiver","type":"address","internalType":"address"},{"name":"callId","type":"bytes32","internalType":"bytes32"}],"outputs":[],"stateMutability":"nonpayable"},{"type":"function","name":"callbackQuote","inputs":[{"name":"receiver","type":"address","internalType":"address"},{"name":"callId","type":"bytes32","internalType":"bytes32"},{"name":"input","type":"tuple","internalType":"struct IRiskEngine.QuoteInput","components":[{"name":"utilizationBps","type":"uint256","internalType":"uint256"},{"name":"collateralRatioBps","type":"uint256","internalType":"uint256"},{"name":"oracleAgeSeconds","type":"uint256","internalType":"uint256"},{"name":"oracleFresh","type":"bool","internalType":"bool"},{"name":"policyMaxLtvBps","type":"uint256","internalType":"uint256"},{"name":"policyLiqThresholdBps","type":"uint256","internalType":"uint256"},{"name":"policyBorrowRateFloorBps","type":"uint256","internalType":"uint256"}]}],"outputs":[],"stateMutability":"nonpayable"},{"type":"error","name":"InvalidReceiver","inputs":[]}],"bytecode":{"object":"0x6080604052348015600e575f5ffd5b506104f48061001c5f395ff3fe608060405234801561000f575f5ffd5b5060043610610034575f3560e01c8063598b2c9314610038578063c24b54301461004d575b5f5ffd5b61004b6100463660046103c2565b610060565b005b61004b61005b3660046103ea565b610104565b6001600160a01b03821661008757604051631e4ec46b60e01b815260040160405180910390fd5b816001600160a01b0316632dea07ab826100a185856101fa565b6040516001600160e01b031960e085901b1681526004810192909252602482015260016044820152600260648201526084015f604051808303815f87803b1580156100ea575f5ffd5b505af11580156100fc573d5f5f3e3d5ffd5b505050505050565b6001600160a01b03831661012b57604051631e4ec46b60e01b815260040160405180910390fd5b5f61013582610260565b9050836001600160a01b0316632dea07ab8461018f84805160208083015160408085015181519384019490945282015260608101919091525f90608001604051602081830303815290604052805190602001209050919050565b8451602086015160405160e086901b6001600160e01b031916815260048101949094526024840192909252604483015260648201526084015f604051808303815f87803b1580156101de575f5ffd5b505af11580156101f0573d5f5f3e3d5ffd5b5050505050505050565b604080517f5f3b2531ce9b80339217b828dcb868480b2ef42ba094862da14ba94602c6db9360208201526001600160a01b03841691810191909152606081018290525f906080016040516020818303038152906040528051906020012090505b92915050565b61028160405180606001604052805f81526020015f81526020015f81525090565b61028b823561030a565b815261029d608083016060840161042f565b6102bc576103e8815f018181516102b49190610462565b905250919050565b5f6136b0836020013510806102d657506107088360400135115b905080156102f3576119646020830152611e786040830152610304565b611d4c602083015261213460408301525b50919050565b5f5f612710831161031b578261031f565b6127105b9050611f40811161035557611f4061033961032083610475565b610343919061048c565b61034e9060c8610462565b9392505050565b5f610362611f40836104ab565b9050610372611f406127106104ab565b61037e610bb883610475565b610388919061048c565b61039561032060c8610462565b61039f9190610462565b949350505050565b80356001600160a01b03811681146103bd575f5ffd5b919050565b5f5f604083850312156103d3575f5ffd5b6103dc836103a7565b946020939093013593505050565b5f5f5f8385036101208112156103fe575f5ffd5b610407856103a7565b93506020850135925060e0603f1982011215610421575f5ffd5b506040840190509250925092565b5f6020828403121561043f575f5ffd5b8135801515811461034e575f5ffd5b634e487b7160e01b5f52601160045260245ffd5b8082018082111561025a5761025a61044e565b808202811582820484141761025a5761025a61044e565b5f826104a657634e487b7160e01b5f52601260045260245ffd5b500490565b8181038181111561025a5761025a61044e56fea2646970667358221220793db2ce36c50c6091641d813464585ead2fa3670a4586096ac7fc935e25dc2c64736f6c634300081c0033","linkReferences":{}},"methodIdentifiers":{"callbackFingerprint(address,bytes32)":"598b2c93","callbackQuote(address,bytes32,(uint256,uint256,uint256,bool,uint256,uint256,uint256))":"c24b5430"},"id":30}