{"abi":[{"type":"constructor","inputs":[{"name":"authority_","type":"address","internalType":"address"},{"name":"collateralAsset_","type":"address","internalType":"contract IERC20"},{"name":"debtAsset_","type":"address","internalType":"contract IERC20"},{"name":"debtPool_","type":"address","internalType":"contract DebtPool"},{"name":"oracle_","type":"address","internalType":"contract ManualOracle"},{"name":"riskEngine_","type":"address","internalType":"contract IRiskAdapter"},{"name":"config_","type":"tuple","internalType":"struct LendingCore.MarketConfig","components":[{"name":"borrowCap","type":"uint256","internalType":"uint256"},{"name":"minBorrowAmount","type":"uint256","internalType":"uint256"},{"name":"reserveFactorBps","type":"uint256","internalType":"uint256"},{"name":"maxLtvBps","type":"uint256","internalType":"uint256"},{"name":"liquidationThresholdBps","type":"uint256","internalType":"uint256"},{"name":"liquidationBonusBps","type":"uint256","internalType":"uint256"}]}],"stateMutability":"nonpayable"},{"type":"function","name":"_liquidateOneDelegated","inputs":[{"name":"liquidator","type":"address","internalType":"address"},{"name":"borrower","type":"address","internalType":"address"},{"name":"requestedRepayAmount","type":"uint256","internalType":"uint256"}],"outputs":[],"stateMutability":"nonpayable"},{"type":"function","name":"authority","inputs":[],"outputs":[{"name":"","type":"address","internalType":"address"}],"stateMutability":"view"},{"type":"function","name":"availableToBorrow","inputs":[{"name":"borrower","type":"address","internalType":"address"}],"outputs":[{"name":"","type":"uint256","internalType":"uint256"}],"stateMutability":"view"},{"type":"function","name":"batchLiquidate","inputs":[{"name":"borrowers","type":"address[]","internalType":"address[]"},{"name":"amounts","type":"uint256[]","internalType":"uint256[]"}],"outputs":[],"stateMutability":"nonpayable"},{"type":"function","name":"borrow","inputs":[{"name":"amount","type":"uint256","internalType":"uint256"}],"outputs":[],"stateMutability":"nonpayable"},{"type":"function","name":"borrowCap","inputs":[],"outputs":[{"name":"","type":"uint256","internalType":"uint256"}],"stateMutability":"view"},{"type":"function","name":"collateralAsset","inputs":[],"outputs":[{"name":"","type":"address","internalType":"contract IERC20"}],"stateMutability":"view"},{"type":"function","name":"configEpoch","inputs":[],"outputs":[{"name":"","type":"uint256","internalType":"uint256"}],"stateMutability":"view"},{"type":"function","name":"currentDebt","inputs":[{"name":"borrower","type":"address","internalType":"address"}],"outputs":[{"name":"","type":"uint256","internalType":"uint256"}],"stateMutability":"view"},{"type":"function","name":"currentQuoteContext","inputs":[],"outputs":[{"name":"","type":"tuple","internalType":"struct IRiskAdapter.QuoteContext","components":[{"name":"oracleEpoch","type":"uint256","internalType":"uint256"},{"name":"configEpoch","type":"uint256","internalType":"uint256"},{"name":"oracleStateHash","type":"bytes32","internalType":"bytes32"},{"name":"configHash","type":"bytes32","internalType":"bytes32"}]}],"stateMutability":"view"},{"type":"function","name":"currentQuoteInput","inputs":[{"name":"borrower","type":"address","internalType":"address"}],"outputs":[{"name":"","type":"tuple","internalType":"struct IRiskEngine.QuoteInput","components":[{"name":"utilizationBps","type":"uint256","internalType":"uint256"},{"name":"collateralRatioBps","type":"uint256","internalType":"uint256"},{"name":"oracleAgeSeconds","type":"uint256","internalType":"uint256"},{"name":"oracleFresh","type":"bool","internalType":"bool"}]}],"stateMutability":"view"},{"type":"function","name":"currentRiskConfigHash","inputs":[],"outputs":[{"name":"","type":"bytes32","internalType":"bytes32"}],"stateMutability":"view"},{"type":"function","name":"debtAsset","inputs":[],"outputs":[{"name":"","type":"address","internalType":"contract IERC20"}],"stateMutability":"view"},{"type":"function","name":"debtPool","inputs":[],"outputs":[{"name":"","type":"address","internalType":"contract DebtPool"}],"stateMutability":"view"},{"type":"function","name":"depositCollateral","inputs":[{"name":"amount","type":"uint256","internalType":"uint256"}],"outputs":[],"stateMutability":"nonpayable"},{"type":"function","name":"exportPositionForMigration","inputs":[{"name":"borrower","type":"address","internalType":"address"}],"outputs":[{"name":"position","type":"tuple","internalType":"struct IMigratableLendingCore.MigratedPosition","components":[{"name":"collateralAmount","type":"uint256","internalType":"uint256"},{"name":"principalDebt","type":"uint256","internalType":"uint256"},{"name":"accruedInterest","type":"uint256","internalType":"uint256"}]}],"stateMutability":"nonpayable"},{"type":"function","name":"freezeNewDebt","inputs":[],"outputs":[],"stateMutability":"nonpayable"},{"type":"function","name":"healthFactor","inputs":[{"name":"borrower","type":"address","internalType":"address"}],"outputs":[{"name":"","type":"uint256","internalType":"uint256"}],"stateMutability":"view"},{"type":"function","name":"importMigratedPosition","inputs":[{"name":"borrower","type":"address","internalType":"address"},{"name":"position","type":"tuple","internalType":"struct IMigratableLendingCore.MigratedPosition","components":[{"name":"collateralAmount","type":"uint256","internalType":"uint256"},{"name":"principalDebt","type":"uint256","internalType":"uint256"},{"name":"accruedInterest","type":"uint256","internalType":"uint256"}]}],"outputs":[],"stateMutability":"nonpayable"},{"type":"function","name":"isConsumingScheduledOp","inputs":[],"outputs":[{"name":"","type":"bytes4","internalType":"bytes4"}],"stateMutability":"view"},{"type":"function","name":"liquidate","inputs":[{"name":"borrower","type":"address","internalType":"address"},{"name":"requestedRepayAmount","type":"uint256","internalType":"uint256"}],"outputs":[],"stateMutability":"nonpayable"},{"type":"function","name":"liquidationBonusBps","inputs":[],"outputs":[{"name":"","type":"uint256","internalType":"uint256"}],"stateMutability":"view"},{"type":"function","name":"maxConfiguredLiquidationThresholdBps","inputs":[],"outputs":[{"name":"","type":"uint256","internalType":"uint256"}],"stateMutability":"view"},{"type":"function","name":"maxConfiguredLtvBps","inputs":[],"outputs":[{"name":"","type":"uint256","internalType":"uint256"}],"stateMutability":"view"},{"type":"function","name":"minBorrowAmount","inputs":[],"outputs":[{"name":"","type":"uint256","internalType":"uint256"}],"stateMutability":"view"},{"type":"function","name":"newDebtFrozen","inputs":[],"outputs":[{"name":"","type":"bool","internalType":"bool"}],"stateMutability":"view"},{"type":"function","name":"oracle","inputs":[],"outputs":[{"name":"","type":"address","internalType":"contract ManualOracle"}],"stateMutability":"view"},{"type":"function","name":"pause","inputs":[],"outputs":[],"stateMutability":"nonpayable"},{"type":"function","name":"paused","inputs":[],"outputs":[{"name":"","type":"bool","internalType":"bool"}],"stateMutability":"view"},{"type":"function","name":"positions","inputs":[{"name":"","type":"address","internalType":"address"}],"outputs":[{"name":"collateralAmount","type":"uint256","internalType":"uint256"},{"name":"principalDebt","type":"uint256","internalType":"uint256"},{"name":"accruedInterest","type":"uint256","internalType":"uint256"},{"name":"borrowRateBps","type":"uint256","internalType":"uint256"},{"name":"lastAccruedAt","type":"uint256","internalType":"uint256"}],"stateMutability":"view"},{"type":"function","name":"previewBorrow","inputs":[{"name":"borrower","type":"address","internalType":"address"},{"name":"additionalDebt","type":"uint256","internalType":"uint256"}],"outputs":[{"name":"quote","type":"tuple","internalType":"struct IRiskEngine.QuoteOutput","components":[{"name":"borrowRateBps","type":"uint256","internalType":"uint256"},{"name":"maxLtvBps","type":"uint256","internalType":"uint256"},{"name":"liquidationThresholdBps","type":"uint256","internalType":"uint256"}]},{"name":"projectedDebt","type":"uint256","internalType":"uint256"},{"name":"projectedHealthFactor","type":"uint256","internalType":"uint256"}],"stateMutability":"view"},{"type":"function","name":"projectedBorrowQuoteInput","inputs":[{"name":"borrower","type":"address","internalType":"address"},{"name":"additionalDebt","type":"uint256","internalType":"uint256"}],"outputs":[{"name":"","type":"tuple","internalType":"struct IRiskEngine.QuoteInput","components":[{"name":"utilizationBps","type":"uint256","internalType":"uint256"},{"name":"collateralRatioBps","type":"uint256","internalType":"uint256"},{"name":"oracleAgeSeconds","type":"uint256","internalType":"uint256"},{"name":"oracleFresh","type":"bool","internalType":"bool"}]}],"stateMutability":"view"},{"type":"function","name":"publishCurrentQuoteTicket","inputs":[{"name":"borrower","type":"address","internalType":"address"}],"outputs":[{"name":"ticketId","type":"bytes32","internalType":"bytes32"}],"stateMutability":"nonpayable"},{"type":"function","name":"publishProjectedBorrowQuoteTicket","inputs":[{"name":"borrower","type":"address","internalType":"address"},{"name":"additionalDebt","type":"uint256","internalType":"uint256"}],"outputs":[{"name":"ticketId","type":"bytes32","internalType":"bytes32"}],"stateMutability":"nonpayable"},{"type":"function","name":"repay","inputs":[{"name":"amount","type":"uint256","internalType":"uint256"}],"outputs":[],"stateMutability":"nonpayable"},{"type":"function","name":"reserveFactorBps","inputs":[],"outputs":[{"name":"","type":"uint256","internalType":"uint256"}],"stateMutability":"view"},{"type":"function","name":"riskEngine","inputs":[],"outputs":[{"name":"","type":"address","internalType":"contract IRiskAdapter"}],"stateMutability":"view"},{"type":"function","name":"setAuthority","inputs":[{"name":"newAuthority","type":"address","internalType":"address"}],"outputs":[],"stateMutability":"nonpayable"},{"type":"function","name":"unpause","inputs":[],"outputs":[],"stateMutability":"nonpayable"},{"type":"function","name":"withdrawCollateral","inputs":[{"name":"amount","type":"uint256","internalType":"uint256"}],"outputs":[],"stateMutability":"nonpayable"},{"type":"event","name":"AuthorityUpdated","inputs":[{"name":"authority","type":"address","indexed":false,"internalType":"address"}],"anonymous":false},{"type":"event","name":"BadDebtRealized","inputs":[{"name":"borrower","type":"address","indexed":true,"internalType":"address"},{"name":"amount","type":"uint256","indexed":false,"internalType":"uint256"}],"anonymous":false},{"type":"event","name":"Borrowed","inputs":[{"name":"account","type":"address","indexed":true,"internalType":"address"},{"name":"amount","type":"uint256","indexed":false,"internalType":"uint256"},{"name":"borrowRateBps","type":"uint256","indexed":false,"internalType":"uint256"}],"anonymous":false},{"type":"event","name":"CollateralDeposited","inputs":[{"name":"account","type":"address","indexed":true,"internalType":"address"},{"name":"amount","type":"uint256","indexed":false,"internalType":"uint256"}],"anonymous":false},{"type":"event","name":"CollateralWithdrawn","inputs":[{"name":"account","type":"address","indexed":true,"internalType":"address"},{"name":"amount","type":"uint256","indexed":false,"internalType":"uint256"}],"anonymous":false},{"type":"event","name":"Liquidated","inputs":[{"name":"borrower","type":"address","indexed":true,"internalType":"address"},{"name":"liquidator","type":"address","indexed":true,"internalType":"address"},{"name":"repaid","type":"uint256","indexed":false,"internalType":"uint256"},{"name":"collateralSeized","type":"uint256","indexed":false,"internalType":"uint256"},{"name":"badDebtWrittenOff","type":"uint256","indexed":false,"internalType":"uint256"}],"anonymous":false},{"type":"event","name":"NewDebtFrozen","inputs":[],"anonymous":false},{"type":"event","name":"Paused","inputs":[{"name":"account","type":"address","indexed":false,"internalType":"address"}],"anonymous":false},{"type":"event","name":"PositionMigratedIn","inputs":[{"name":"borrower","type":"address","indexed":true,"internalType":"address"},{"name":"coordinator","type":"address","indexed":true,"internalType":"address"},{"name":"collateralAmount","type":"uint256","indexed":false,"internalType":"uint256"},{"name":"principalDebt","type":"uint256","indexed":false,"internalType":"uint256"},{"name":"accruedInterest","type":"uint256","indexed":false,"internalType":"uint256"}],"anonymous":false},{"type":"event","name":"PositionMigratedOut","inputs":[{"name":"borrower","type":"address","indexed":true,"internalType":"address"},{"name":"coordinator","type":"address","indexed":true,"internalType":"address"},{"name":"collateralAmount","type":"uint256","indexed":false,"internalType":"uint256"},{"name":"principalDebt","type":"uint256","indexed":false,"internalType":"uint256"},{"name":"accruedInterest","type":"uint256","indexed":false,"internalType":"uint256"}],"anonymous":false},{"type":"event","name":"Repaid","inputs":[{"name":"account","type":"address","indexed":true,"internalType":"address"},{"name":"amount","type":"uint256","indexed":false,"internalType":"uint256"},{"name":"principalPaid","type":"uint256","indexed":false,"internalType":"uint256"},{"name":"interestPaid","type":"uint256","indexed":false,"internalType":"uint256"}],"anonymous":false},{"type":"event","name":"Unpaused","inputs":[{"name":"account","type":"address","indexed":false,"internalType":"address"}],"anonymous":false},{"type":"error","name":"AccessManagedInvalidAuthority","inputs":[{"name":"authority","type":"address","internalType":"address"}]},{"type":"error","name":"AccessManagedRequiredDelay","inputs":[{"name":"caller","type":"address","internalType":"address"},{"name":"delay","type":"uint32","internalType":"uint32"}]},{"type":"error","name":"AccessManagedUnauthorized","inputs":[{"name":"caller","type":"address","internalType":"address"}]},{"type":"error","name":"ArrayLengthMismatch","inputs":[]},{"type":"error","name":"BatchLiquidationFailed","inputs":[{"name":"index","type":"uint256","internalType":"uint256"},{"name":"reason","type":"bytes","internalType":"bytes"}]},{"type":"error","name":"BorrowCapExceeded","inputs":[{"name":"attempted","type":"uint256","internalType":"uint256"},{"name":"cap","type":"uint256","internalType":"uint256"}]},{"type":"error","name":"DebtBelowMinimum","inputs":[{"name":"debt","type":"uint256","internalType":"uint256"},{"name":"minBorrowAmount","type":"uint256","internalType":"uint256"}]},{"type":"error","name":"EnforcedPause","inputs":[]},{"type":"error","name":"ExistingPosition","inputs":[]},{"type":"error","name":"ExpectedPause","inputs":[]},{"type":"error","name":"InsufficientCollateral","inputs":[]},{"type":"error","name":"InvalidConfiguration","inputs":[]},{"type":"error","name":"InvalidLiquidationAmount","inputs":[]},{"type":"error","name":"NewDebtDisabled","inputs":[]},{"type":"error","name":"NoDebt","inputs":[]},{"type":"error","name":"NoPosition","inputs":[]},{"type":"error","name":"PositionHealthy","inputs":[{"name":"healthFactorWad","type":"uint256","internalType":"uint256"}]},{"type":"error","name":"ReentrancyGuardReentrantCall","inputs":[]},{"type":"error","name":"SafeERC20FailedOperation","inputs":[{"name":"token","type":"address","internalType":"address"}]},{"type":"error","name":"ZeroAmount","inputs":[]}],"bytecode":{"object":"0x61020080604052346104aa5780613c75803803809161001e8285610514565b83398101039061018082126104aa5761003681610537565b9161004360208301610537565b9061005060408401610537565b606084015192906001600160a01b038416908185036104aa5760808601516001600160a01b038116958682036104aa5760a08801516001600160a01b038116969093908785036104aa5760c09060bf1901126104aa576040519560c08701956001600160401b03871188881017610500578a998a996101606101406101206101008e8e9d6040528d60c08201519052602060e08201519f019e8f5201519d60408d019e8f5201519d60608c019e8f5201519d60808b019e8f5201519d60a08a019e8f5260018060a01b03168060018060a01b03195f5416175f557f2f658b440c35314f52658ea8a740e05b284cdc84dc9ae01e891f21b8933e7cad6020604051838152a160017f9b779b17422d0df92223018b32b4d1fa46e071723d6817e2486d003becc55f0055159182156104ee575b82156104dc575b82156104d3575b82156104ca575b5081156104c1575b5061041a576020600491604051928380926338d52e0f60e01b82525afa9081156104b6575f91610478575b506001600160a01b0383811691160361041a57855115801561046f575b8015610463575b801561045a575b801561044d575b8015610441575b8015610435575b8015610429575b61041a5760805260a05260c05260e052610100525161012052516101405251610160525161018052516101a052516101c052306101e052604051613729908161054c823960805181818161030c015281816108c901528181610aa70152818161108b0152818161157a0152612fb3015260a051818181610aeb015281816117f30152612ee3015260c05181818161033801528181610517015281816109890152818161115c015281816113dc01528181611504015281816117c201528181611ae401528181611f14015281816121ce0152818161231d0152818161247e0152818161256d01528181612d660152613525015260e0518181816104b101528181610f1601528181611103015281816113840152818161210f0152818161260d015281816128d001528181612d130152613357015261010051818181610bf901528181610c8a0152818161213d01528181612a7f0152612c7e0152610120518181816105cb015281816116900152612027015261014051818181611d1a0152818161204a015281816132f2015261331c01526101605181818161041b01528181611874015281816120700152612f63015261018051818181610a6f015281816120960152612ad501526101a051818181610e7c015281816120bc015261344401526101c051818181611ce0015281816120e20152612e3701526101e051818181611a65015261268e0152f35b63c52a9bd360e01b5f5260045ffd5b506127108b5111610210565b506127108a5111610209565b50895189511015610202565b50612710895110156101fb565b508851156101f4565b506127108851116101ed565b508651156101e6565b90506020813d6020116104ae575b8161049360209383610514565b810103126104aa576104a490610537565b5f6101c9565b5f80fd5b3d9150610486565b6040513d5f823e3d90fd5b9050155f61019e565b1591505f610196565b8315925061018f565b6001600160a01b038616159250610188565b6001600160a01b038516159250610181565b634e487b7160e01b5f52604160045260245ffd5b601f909101601f19168101906001600160401b0382119082101761050057604052565b51906001600160a01b03821682036104aa5756fe60806040526004361015610011575f80fd5b5f3560e01c806307db385514611d3d5780630a5db8a814611d0357806319970d8e14611cc95780631c1c4c4414611b135780631ffe166714611acf5780632c38199e14611aac5780632f5a486314611a885780633232297014611a4e578063371fd8e6146117645780633e95c060146117215780633f4ba83a146116b357806344d9dca61461167957806355b0fa021461165f57806355f57510146115fb5780635c975abb146115d757806360453af31461125f5780636112fe2e146110155780636ad9f9df14610ff25780637a9e5e4b14610f455780637dc0d1d014610f015780638456cb5914610e9f578063850eeda614610e65578063884719f214610e265780638fb3603714610de3578063912a70f214610c2857806392b888ae14610be4578063931da15214610b8f578063a2054b6c14610b6c578063a83081f014610b1a578063a919802d14610ad6578063aabaecd614610a92578063af11014f14610a58578063bad4a01f1461088b578063bc1ffd9714610837578063bcbaf487146107f6578063bf7e214f146107cf578063c0d3626d1461078a578063c5ebeaec1461043e578063c87bed70146104045763d90ebf53146101d1575f80fd5b346103e15760203660031901126103e1576101ea611d63565b6101f2612293565b506101fd3633612726565b61020561286c565b6001600160a01b03165f8181526001602052604090209061022582612b05565b8154908115806103f4575b6103e55760018301549060028401546040519361024c85611dc6565b845260208401928084526040850191825280610336575b507fad844839fecbd3ceb4326eafca8e77c8be094426e81918b95d53f60b590c5733906102a9865f606098555f60018201555f60028201555f6003820155600442910155565b845180610305575b50845193519051604080519586526020860192909252908401523392606090a360015f5160206136d45f395f51905f525561030360405180926040809180518452602081015160208501520151910152565bf35b61033090337f00000000000000000000000000000000000000000000000000000000000000006133ea565b5f6102b1565b7f00000000000000000000000000000000000000000000000000000000000000006001600160a01b03169190823b156103e1575f92602484926040519586938492635e15420160e01b845260048401525af180156103d6576060967fad844839fecbd3ceb4326eafca8e77c8be094426e81918b95d53f60b590c5733936102a9926103c6575b5096505090610263565b5f6103d091611dfe565b5f6103bc565b6040513d5f823e3d90fd5b5f80fd5b632afc3c0d60e21b5f5260045ffd5b506103fe83612a0a565b15610230565b346103e1575f3660031901126103e15760206040517f00000000000000000000000000000000000000000000000000000000000000008152f35b346103e15760203660031901126103e15760043561045a61286c565b6104626128a4565b801561077b5760ff5f5460b01c1661076c57335f52600160205260405f209081541561075d5761049182612b05565b610499613342565b6040516354aea12760e01b81529092906020816004817f00000000000000000000000000000000000000000000000000000000000000006001600160a01b03165afa80156103d6575f90610729575b6104f3915042611eba565b926105068361050184612a0a565b6122b1565b6040516314d8c14f60e11b815290927f00000000000000000000000000000000000000000000000000000000000000006001600160a01b0316929091602081600481875afa80156103d65786915f916106f2575b5061059e91610568916122b1565b968354906040519161057983611daa565b82528660208301528860408301528360608301526080820152600160a0820152612bfc565b936105ac6020860151612ad3565b926105ba6040870151613442565b84159081156106e9575b506106da577f0000000000000000000000000000000000000000000000000000000000000000978881116106c357509061062e939291610603826132d3565b600181016106128982546122b1565b905586516003820155600481018054156106ba575b50546133c1565b803b156103e1575f80916044604051809481936308f61bed60e21b83523360048401528860248401525af180156103d6576106aa575b505160405191825260208201527feae9cfbc77fdd40ca899f36b608256063b2bc9d8178b0220f7ad513e178d673060403392a260015f5160206136d45f395f51905f5255005b5f6106b491611dfe565b82610664565b42905588610627565b88906331198c6560e21b5f5260045260245260445ffd5b63c52a9bd360e01b5f5260045ffd5b905015896105c4565b9150506020813d602011610721575b8161070e60209383611dfe565b810103126103e15751859061059e61055a565b3d9150610701565b506020813d602011610755575b8161074360209383611dfe565b810103126103e1576104f390516104e8565b3d9150610736565b633a23d82560e01b5f5260045ffd5b630b77882b60e11b5f5260045ffd5b631f2a200560e01b5f5260045ffd5b346103e1575f3660031901126103e15760806107a46125f5565b6103036040518092606080918051845260208101516020850152604081015160408501520151910152565b346103e1575f3660031901126103e1575f546040516001600160a01b039091168152602090f35b346103e15760403660031901126103e157610824610812611d63565b61081a61286c565b6024359033612cb9565b60015f5160206136d45f395f51905f5255005b346103e15760403660031901126103e157608061085e610855611d63565b60243590612520565b61030360405180926060809180518452602081015160208501526040810151604085015201511515910152565b346103e15760203660031901126103e1576004356108a761286c565b6108af6128a4565b801561077b57335f52600160205260405f206108ed8230337f0000000000000000000000000000000000000000000000000000000000000000612b6a565b6108f88282546122b1565b80825560048201805415610a4f575b5061091182612a0a565b80610957575b836040519081527fd7243f6f8212d5188fd054141cf6ea89cfc0d91facb8c3afe2f88a135848014260203392a260015f5160206136d45f395f51905f5255005b61095f6128c1565b929080610a46575b610973575b5050610917565b6040516314d8c14f60e11b8152906020826004817f00000000000000000000000000000000000000000000000000000000000000006001600160a01b03165afa9182156103d6575f92610a09575b50916109fb939160039593604051946109d986611daa565b85526020850152604084015260608301526080820152600160a0820152612bfc565b51910155818080808061096c565b93915093916020843d602011610a3e575b81610a2760209383611dfe565b810103126103e157925191939092919060036109c1565b3d9150610a1a565b50811515610967565b42905583610907565b346103e1575f3660031901126103e15760206040517f00000000000000000000000000000000000000000000000000000000000000008152f35b346103e1575f3660031901126103e1576040517f00000000000000000000000000000000000000000000000000000000000000006001600160a01b03168152602090f35b346103e1575f3660031901126103e1576040517f00000000000000000000000000000000000000000000000000000000000000006001600160a01b03168152602090f35b346103e1575f3660031901126103e157610b343633612726565b5f805460ff60b01b1916600160b01b1781557f68be81811676eef5aa3f75efce5a31614fc576af3288a489e310b6d3e854ea4e9080a1005b346103e15760203660031901126103e157608061085e610b8a611d63565b612433565b346103e15760403660031901126103e15760a0610bb6610bad611d63565b602435906122be565b90610bd860405180946040809180518452602081015160208501520151910152565b60608301526080820152f35b346103e1575f3660031901126103e1576040517f00000000000000000000000000000000000000000000000000000000000000006001600160a01b03168152602090f35b346103e15760203660031901126103e157610c4e610c44611d63565b610b8a3633612726565b610c566125f5565b604080516302221fa760e61b81528251600482015260208301516024820152908201516044820152606082015160648201527f00000000000000000000000000000000000000000000000000000000000000006001600160a01b03169183516084830152602084015160a4830152604084015160c48301526060840151151560e483015260208261010481865afa9182156103d6575f92610dad575b50610104610d3c915f60609495610d646040519889968795630d8baa0360e31b87526004870190606080918051845260208101516020850152604081015160408501520151910152565b80516084860152602081015160a4860152604081015160c486015260600151151560e4850152565b5af19182156103d657602092610d7e575b50604051908152f35b610d9f9060603d606011610da6575b610d978183611dfe565b810190611e20565b5082610d75565b503d610d8d565b91506020823d602011610ddb575b81610dc860209383611dfe565b810103126103e157905190610104610cf2565b3d9150610dbb565b346103e1575f3660031901126103e1575f5460a01c60ff1615610e1e576020638fb3603760e01b5b6040516001600160e01b03199091168152f35b60205f610e0b565b346103e15760203660031901126103e1576001600160a01b03610e47611d63565b165f5260016020526020610e5d60405f20612a0a565b604051908152f35b346103e1575f3660031901126103e15760206040517f00000000000000000000000000000000000000000000000000000000000000008152f35b346103e1575f3660031901126103e157610eb93633612726565b610ec16128a4565b5f805460ff60a81b1916600160a81b1790556040513381527f62e78cea01bee320cd4e420270b5ea74000d11b0c9f74754ebdbfc544b05a25890602090a1005b346103e1575f3660031901126103e1576040517f00000000000000000000000000000000000000000000000000000000000000006001600160a01b03168152602090f35b346103e15760203660031901126103e157610f5e611d63565b5f546001600160a01b0381163303610fe057813b15610fbf576001600160a01b0319166001600160a01b039091169081175f556040519081527f2f658b440c35314f52658ea8a740e05b284cdc84dc9ae01e891f21b8933e7cad90602090a1005b506361798f2f60e11b5f9081526001600160a01b0391909116600452602490fd5b62d1953b60e31b5f523360045260245ffd5b346103e15760203660031901126103e1576020610e5d611010611d63565b61217a565b346103e15760203660031901126103e15760043561103161286c565b6110396128a4565b801561077b57335f52600160205260405f208181541061075d5761105c81612b05565b611067828254611eba565b90818155611073613342565b61107c82612a0a565b92836110ee575b846110af81337f00000000000000000000000000000000000000000000000000000000000000006133ea565b6040519081527fc30fcfbcaac9e0deffa719714eaa82396ff506a0d0d0eebe170830177288715d60203392a260015f5160206136d45f395f51905f5255005b6040516354aea12760e01b81526020816004817f00000000000000000000000000000000000000000000000000000000000000006001600160a01b03165afa80156103d6575f9061122b575b611145915042611eba565b6040516314d8c14f60e11b815291906020836004817f00000000000000000000000000000000000000000000000000000000000000006001600160a01b03165afa80156103d6575f906111f7575b6111c99350604051926111a584611daa565b835286602084015260408301528360608301526080820152600160a0820152612bfc565b926111d76020850151612ad3565b9283156106da576111ee94516003820155546133c1565b81808080611083565b506020833d602011611223575b8161121160209383611dfe565b810103126103e1576111c99251611193565b3d9150611204565b506020813d602011611257575b8161124560209383611dfe565b810103126103e157611145905161113a565b3d9150611238565b346103e15760803660031901126103e157611278611d63565b60603660231901126103e15761128e3633612726565b61129661286c565b6001600160a01b03165f8181526001602052604090208054909190158015906115c6575b6115b75760243591821580806115ad575b806115a3575b6103e55715611572575b60443580611502575b8382558060018301556064359081600284015542600484015561130683612a0a565b8061135b575b506040805195865260208601919091528401525033917f4ec8e47aae691949002381c8cf35018568b63e155c5db86ad527cd8c7e39b28690606090a360015f5160206136d45f395f51905f5255005b611364816132d3565b61136c613342565b6040516354aea12760e01b81529091906020816004817f00000000000000000000000000000000000000000000000000000000000000006001600160a01b03165afa80156103d6575f906114ce575b6113c6915042611eba565b6040516314d8c14f60e11b8152906020826004817f00000000000000000000000000000000000000000000000000000000000000006001600160a01b03165afa9081156103d6575f91611498575b61144b92506040519161142683611daa565b8a835284602084015260408301528460608301526080820152600160a0820152612bfc565b916114596020840151612ad3565b9182156106da577f4ec8e47aae691949002381c8cf35018568b63e155c5db86ad527cd8c7e39b2869661149294516003820155546133c1565b8561130c565b90506020823d6020116114c6575b816114b360209383611dfe565b810103126103e15761144b915190611414565b3d91506114a6565b506020813d6020116114fa575b816114e860209383611dfe565b810103126103e1576113c690516113bb565b3d91506114db565b7f00000000000000000000000000000000000000000000000000000000000000006001600160a01b0316803b156103e1575f80916024604051809481936314a722ab60e21b83528760048401525af180156103d657611562575b506112e4565b5f61156c91611dfe565b8461155c565b61159e8330337f0000000000000000000000000000000000000000000000000000000000000000612b6a565b6112db565b50606435156112d1565b50604435156112cb565b63823fbd3160e01b5f5260045ffd5b506115d082612a0a565b15156112ba565b346103e1575f3660031901126103e157602060ff5f5460a81c166040519015158152f35b346103e15760203660031901126103e1576001600160a01b0361161c611d63565b165f52600160205260a060405f20805490600181015490600281015460046003830154920154926040519485526020850152604084015260608301526080820152f35b346103e1575f3660031901126103e1576020610e5d61201d565b346103e1575f3660031901126103e15760206040517f00000000000000000000000000000000000000000000000000000000000000008152f35b346103e1575f3660031901126103e1576116cd3633612726565b5f5460ff8160a81c16156117125760ff60a81b19165f556040513381527f5db9ee0a495bf2e6ff9c91a7834c1ba4fdd244a5e8aa4e537bd38aeae4b073aa90602090a1005b638dfc202b60e01b5f5260045ffd5b346103e15760603660031901126103e15761173a611d63565b602435906001600160a01b03821682036103e1573033036106da576117629160443591612cb9565b005b346103e15760203660031901126103e15760043561178061286c565b801561077b57335f9081526001602052604090209061179e82612a0a565b15611a3f576117ac82612b05565b6117b582612a0a565b80821015611a375750905b7f00000000000000000000000000000000000000000000000000000000000000006001600160a01b0316906118178383337f0000000000000000000000000000000000000000000000000000000000000000612b6a565b600281018054919082851015611a2d57611832858094611eba565b905561183e8285611eba565b906001810161184e838254611eba565b9055833b156103e157604051635ca9cf2760e01b815260048101839052602481018490527f000000000000000000000000000000000000000000000000000000000000000060448201525f8160648183895af180156103d657611a1d575b506118b681612a0a565b8061192857507f07178c166b5aef4d8409e6bbfd0e7b1ad42c92eb65903a5e5482166f3f4e62f093506118fd905f60018201555f60028201555f6003820155600442910155565b6040805194855260208501919091528301523391606090a260015f5160206136d45f395f51905f5255005b6119306128c1565b929080611a14575b611969575b505050507f07178c166b5aef4d8409e6bbfd0e7b1ad42c92eb65903a5e5482166f3f4e62f092506118fd565b6004906020855498604051938480926314d8c14f60e11b82525afa9182156103d6575f926119d8575b50926119cb927f07178c166b5aef4d8409e6bbfd0e7b1ad42c92eb65903a5e5482166f3f4e62f09892600395604051946109d986611daa565b519101558480808061193d565b92979150926020833d602011611a0c575b816119f660209383611dfe565b810103126103e1579151909691926119cb611992565b3d91506119e9565b50811515611938565b5f611a2791611dfe565b856118ac565b6118328380611eba565b9050906117c0565b6308d1fde360e11b5f5260045ffd5b346103e1575f3660031901126103e15760206040517f00000000000000000000000000000000000000000000000000000000000000008152f35b346103e1575f3660031901126103e157602060ff5f5460b01c166040519015158152f35b346103e15760203660031901126103e1576020610e5d611aca611d63565b611ec7565b346103e1575f3660031901126103e1576040517f00000000000000000000000000000000000000000000000000000000000000006001600160a01b03168152602090f35b346103e15760403660031901126103e15760043567ffffffffffffffff81116103e157611b44903690600401611d79565b60243567ffffffffffffffff81116103e157611b64903690600401611d79565b9091611b6e61286c565b611b766128a4565b818103611cba579291905f935b808510611b9d5760015f5160206136d45f395f51905f5255005b611ba8858286611e51565b356001600160a01b038116908190036103e157611bc6868486611e51565b35303b156103e157604051916301f4ae0360e51b8352336004840152602483015260448201525f8160648183305af19081611caa575b50611c9f57843d15611c95573d9067ffffffffffffffff8211611c815760649060405192611c346020601f19601f8401160185611dfe565b83523d5f602085013e5b60206040519384926340bad83f60e01b84526004840152604060248401528051918291826044860152018484015e5f828201840152601f01601f19168101030190fd5b634e487b7160e01b5f52604160045260245ffd5b6064606091611c3e565b600190940193611b83565b5f611cb491611dfe565b86611bfc565b63512509d360e11b5f5260045ffd5b346103e1575f3660031901126103e15760206040517f00000000000000000000000000000000000000000000000000000000000000008152f35b346103e1575f3660031901126103e15760206040517f00000000000000000000000000000000000000000000000000000000000000008152f35b346103e15760403660031901126103e157610c4e611d59611d63565b6108553633612726565b600435906001600160a01b03821682036103e157565b9181601f840112156103e15782359167ffffffffffffffff83116103e1576020808501948460051b0101116103e157565b60c0810190811067ffffffffffffffff821117611c8157604052565b6060810190811067ffffffffffffffff821117611c8157604052565b6080810190811067ffffffffffffffff821117611c8157604052565b90601f8019910116810190811067ffffffffffffffff821117611c8157604052565b908160609103126103e1576040805191611e3983611dc6565b80518352602081015160208401520151604082015290565b9190811015611e615760051b0190565b634e487b7160e01b5f52603260045260245ffd5b81810292918115918404141715611e8857565b634e487b7160e01b5f52601160045260245ffd5b8115611ea6570490565b634e487b7160e01b5f52601260045260245ffd5b91908203918211611e8857565b6001600160a01b03165f908152600160205260409020611ee56128c1565b90158015612015575b61200e57611efb83612a0a565b92546040516314d8c14f60e11b815290916020826004817f00000000000000000000000000000000000000000000000000000000000000006001600160a01b03165afa9182156103d6575f92611fd8575b50611f88611f8f9260209260405191611f6483611daa565b868352888584015260408301528660608301526080820152600160a0820152612a30565b0151612ad3565b8015611fd057670de0b6b3a7640000611fae61271094611fb494611e75565b04611e75565b049080821115611fca57611fc791611eba565b90565b50505f90565b505050505f90565b91506020823d602011612006575b81611ff360209383611dfe565b810103126103e157905190611f88611f4c565b3d9150611fe6565b5050505f90565b508115611eee565b60405160208101907f000000000000000000000000000000000000000000000000000000000000000082527f000000000000000000000000000000000000000000000000000000000000000060408201527f000000000000000000000000000000000000000000000000000000000000000060608201527f000000000000000000000000000000000000000000000000000000000000000060808201527f000000000000000000000000000000000000000000000000000000000000000060a08201527f000000000000000000000000000000000000000000000000000000000000000060c082015260018060a01b037f00000000000000000000000000000000000000000000000000000000000000001660e082015260018060a01b037f000000000000000000000000000000000000000000000000000000000000000016610100820152610100815261217461012082611dfe565b51902090565b6001600160a01b03165f90815260016020526040902061219981612a0a565b801561228c576121a76128c1565b9390158015612284575b611fd057546040516314d8c14f60e11b81529092906020816004817f00000000000000000000000000000000000000000000000000000000000000006001600160a01b03165afa9081156103d6575f91612251575b50604061224461224b92611fc79783519161222083611daa565b888352866020840152848301528660608301526080820152600160a0820152612a30565b0151613442565b9261346f565b90506020813d60201161227c575b8161226c60209383611dfe565b810103126103e157516040612206565b3d915061225f565b5081156121b1565b50505f1990565b604051906122a082611dc6565b5f6040838281528260208201520152565b91908201809211611e8857565b6122c6612293565b925f9160018060a01b03165f52600160205260405f20926122e56128c1565b92919690158015612407575b6123fb57506123038161050187612a0a565b94546040516314d8c14f60e11b81529092906020816004817f00000000000000000000000000000000000000000000000000000000000000006001600160a01b03165afa9081156103d6575f916123c7575b5061239692612363916122b1565b906040519161237183611daa565b84835287602084015260408301528760608301526080820152600160a0820152612a30565b94846123a56040880151613442565b92836123b2575b50505050565b6123bd94955061346f565b905f8084816123ac565b90506020813d6020116123f3575b816123e260209383611dfe565b810103126103e15751612396612355565b3d91506123d5565b95505f94508493505050565b5086156122f1565b6040519061241c82611de2565b5f6060838281528260208201528260408201520152565b61243b61240f565b506001600160a01b03165f90815260016020526040902061245a6128c1565b6124678493945493612a0a565b6040516314d8c14f60e11b815294906020866004817f00000000000000000000000000000000000000000000000000000000000000006001600160a01b03165afa9081156103d6575f916124ea575b611fc79650604051956124c887611daa565b86526020860152604085015260608401526080830152151560a08201526134d3565b90506020863d602011612518575b8161250560209383611dfe565b810103126103e157611fc79551906124b6565b3d91506124f8565b61252861240f565b506001600160a01b03165f9081526001602052604090206125476128c1565b909161255885610501865496612a0a565b6040516314d8c14f60e11b81526020816004817f00000000000000000000000000000000000000000000000000000000000000006001600160a01b03165afa9081156103d6575f916125c1575b50611fc7966125b3916122b1565b90604051956124c887611daa565b90506020813d6020116125ed575b816125dc60209383611dfe565b810103126103e15751611fc76125a5565b3d91506125cf565b6125fd61240f565b5060405163174cbfe560e31b81527f00000000000000000000000000000000000000000000000000000000000000006001600160a01b0316602082600481845afa9182156103d6575f926126f1575b5060206004916040519283809263b4d8c0b360e01b82525afa9081156103d6575f916126bf575b5061267c61201d565b906040519261268a84611de2565b83527f000000000000000000000000000000000000000000000000000000000000000060208401526040830152606082015290565b90506020813d6020116126e9575b816126da60209383611dfe565b810103126103e157515f612673565b3d91506126cd565b9091506020813d60201161271e575b8161270d60209383611dfe565b810103126103e1575190602061264c565b3d9150612700565b5f805490926001600160a01b0382169291600482106103e1575f5f9060405f815196602088019063b700961360e01b825260018060a01b03169788602482015230604482015263ffffffff60e01b83351660648201526064815261278b608482611dfe565b828052826020525190895afa612859575b156127aa575b505050505050565b63ffffffff16156128475760ff60a01b1916600160a01b175f55823b156103e1576064925f9283604051958680958194634a63ebf760e11b83526004830152604060248301528060448301528084848401378181018301849052601f01601f191681010301925af180156103d657612834575b50805460ff60a01b191690555f80808080806127a2565b61284091505f90611dfe565b5f5f61281d565b8262d1953b60e31b5f5260045260245ffd5b50505f516020518060201c15029061279c565b60025f5160206136d45f395f51905f5254146128955760025f5160206136d45f395f51905f5255565b633ee5aeb560e01b5f5260045ffd5b60ff5f5460a81c166128b257565b63d93c066560e01b5f5260045ffd5b604051635da3db4560e11b81527f00000000000000000000000000000000000000000000000000000000000000006001600160a01b031690602081600481855afa9081156103d6575f916129d8575b5091604051633134675560e11b8152602081600481865afa9081156103d6575f9161299c575b50602060049193604051928380926354aea12760e01b82525afa80156103d6575f90612968575b611fc7915042611eba565b506020813d602011612994575b8161298260209383611dfe565b810103126103e157611fc7905161295d565b3d9150612975565b90506020813d6020116129d0575b816129b760209383611dfe565b810103126103e1575180151581036103e1576020612936565b3d91506129aa565b90506020813d602011612a02575b816129f360209383611dfe565b810103126103e157515f612910565b3d91506129e6565b611fc790612a2a612a2460018301546002840154906122b1565b9161363c565b906122b1565b612a4290612a3c612293565b506134d3565b60408051633021609960e01b81528251600482015260208301516024820152908201516044820152606090910151151560648201526060816084817f00000000000000000000000000000000000000000000000000000000000000006001600160a01b03165afa9081156103d6575f91612aba575090565b611fc7915060603d606011610da657610d978183611dfe565b7f000000000000000000000000000000000000000000000000000000000000000080821015612b00575090565b905090565b612b0e8161363c565b80612b53575b5060048101908154155f14612b295750429055565b60018101541590811591612b45575b50612b405750565b429055565b60029150015415155f612b38565b612b62600283019182546122b1565b90555f612b14565b6040516323b872dd60e01b5f9081526001600160a01b039384166004529290931660245260449390935260209060648180865af19060015f5114821615612bdb575b6040525f60605215612bbb5750565b635274afe760e01b5f9081526001600160a01b0391909116600452602490fd5b906001811516612bf357823b15153d15161690612bac565b503d5f823e3d90fd5b612c04612293565b50612c74612c19612c136125f5565b926134d3565b60408051630d8baa0360e31b81528451600482015260208501516024820152908401516044820152606090930151606484015280516084840152602081015160a4840152604081015160c484015260600151151560e4830152565b606081610104815f7f00000000000000000000000000000000000000000000000000000000000000006001600160a01b03165af19081156103d6575f91612aba575090565b90915f92811561077b576001600160a01b03165f81815260016020526040902093909290612ce685612b05565b612cef85612a0a565b948515611a3f57612cfe613342565b6040516354aea12760e01b81526020816004817f00000000000000000000000000000000000000000000000000000000000000006001600160a01b03165afa80156103d6575f9061329f575b612d55915042611eba565b82546040516314d8c14f60e11b81527f00000000000000000000000000000000000000000000000000000000000000006001600160a01b031695929492916020826004818a5afa9182156103d6575f92613269575b50612244604091612de593835191612dc183611daa565b82528d602083015283820152866060820152876080820152600160a0820152612bfc565b9687156106da57612dfa835498858c8b61346f565b670de0b6b3a76400008110156132575750670de0b6b3a7640000612e1e858a611e75565b04996127108b029a808c046127101490151715611e88577f0000000000000000000000000000000000000000000000000000000000000000612710019a8b61271011611e88578b612e6e91611e9c565b8082101561325057505b808210156132485750985b891561323957612e93908a611e75565b670de0b6b3a7640000810290808204670de0b6b3a76400001490151715611e885761271084028481046127101485151715611e8857612ed191611e9c565b96808811613231575b50612f078986887f0000000000000000000000000000000000000000000000000000000000000000612b6a565b60028201805490818b101561322757612f218b8093611eba565b9055612f2d818b611eba565b946001840191612f3e878454611eba565b8355873b156103e157604051635ca9cf2760e01b8152600481019790975260248701527f000000000000000000000000000000000000000000000000000000000000000060448701525f86606481838b5af19586156103d6578a96613212575b50612faa898554611eba565b8455612fd789897f00000000000000000000000000000000000000000000000000000000000000006133ea565b82612fe185612a0a565b95855490811580613209575b156130ff5750505050549483958061308d575b505050917f27a9c7b403b5c385a33cdba9789d8d52e54e7a50de6374d606964df0429cdf4e60205f5160206136b45f395f51905f529796959361305a613088965f60018201555f60028201555f6003820155600442910155565b604051908152a25b60405193849360018060a01b031697846040919493926060820195825260208201520152565b0390a3565b908092939495503b156130fb5782916024839260405194859384926330113a1f60e11b845260048401525af180156130f0579088949392916130d0575b80613000565b8180939495506130df91611dfe565b6130ed5790818793926130ca565b80fd5b6040513d84823e3d90fd5b8280fd5b949350949580929a9998919750155f1461314f5750505050505f5160206136b45f395f51905f5294509061314a613088925f60018201555f60028201555f6003820155600442910155565b613062565b602060049161315d846132d3565b6040516314d8c14f60e11b815292839182905afa9283156131fd57926131b2575b50925f5160206136b45f395f51905f52986003936131a993613088989796604051946109d986611daa565b51910155613062565b9150919493926020823d6020116131f5575b816131d160209383611dfe565b810103126103e1579051939492939092915f5160206136b45f395f51905f5261317e565b3d91506131c4565b604051903d90823e3d90fd5b50871515612fed565b61321f9193505f90611dfe565b5f915f612f9e565b612f218280611eba565b96505f612eda565b638bd79d6d60e01b5f5260045ffd5b905098612e83565b9050612e78565b6301e11b9d60e11b5f5260045260245ffd5b91506020823d602011613297575b8161328460209383611dfe565b810103126103e157905190612244612daa565b3d9150613277565b506020813d6020116132cb575b816132b960209383611dfe565b810103126103e157612d559051612d4a565b3d91506132ac565b80151580613319575b6132e35750565b639912ed2960e01b5f526004527f000000000000000000000000000000000000000000000000000000000000000060245260445ffd5b507f000000000000000000000000000000000000000000000000000000000000000081106132dc565b6040516321a6ae2b60e21b81526020816004817f00000000000000000000000000000000000000000000000000000000000000006001600160a01b03165afa9081156103d6575f91613392575090565b90506020813d6020116133b9575b816133ad60209383611dfe565b810103126103e1575190565b3d91506133a0565b909283156123ac57670de0b6b3a7640000611fae612710946133e294611e75565b041061075d57565b916040519163a9059cbb60e01b5f5260018060a01b031660045260245260205f60448180865af19060015f511482161561342a575b60405215612bbb5750565b906001811516612bf357823b15153d1516169061341f565b7f000000000000000000000000000000000000000000000000000000000000000080821015612b00575090565b9192909283156134ca57611fae670de0b6b3a76400009161348f94611e75565b90670de0b6b3a7640000820291808304670de0b6b3a76400001490151715611e8857612710810290810461271003611e8857611fc791611e9c565b505050505f1990565b6134db61240f565b50670de0b6b3a76400006134f58251606084015190611e75565b0460208201908151155f1461361657505067ffffffffffffffff905b6040516278744560e21b81526020816004817f00000000000000000000000000000000000000000000000000000000000000006001600160a01b03165afa9081156103d6575f916135e4575b50806135ba57505f915b5f9060a08301511515809381946135aa575b506135a0575b6040519361358c85611de2565b845260208401526040830152606082015290565b610709915061357f565b610708915060800151115f613579565b6040820151906127108202918083046127101490151715611e88576135de91611e9c565b91613567565b90506020813d60201161360e575b816135ff60209383611dfe565b810103126103e157515f61355d565b3d91506135f2565b6127108102908082046127101490151715611e8857613636915190611e9c565b90613511565b6001810154908115806136a7575b611fca576003810154918215801561369b575b61200e5761366f600483015442611eba565b908115611fd05764496cebb80093613692613692926002613697960154906122b1565b611e75565b0490565b5060048201541561365d565b5060028101541561364a56fefcbc974bf3a532baf2bb229db3c37fd58299b62d2d1db6a855dac5b693bb6ff39b779b17422d0df92223018b32b4d1fa46e071723d6817e2486d003becc55f00a264697066735822122081d265eb962794a54e135b03b4ac5d21a90140e4cb901434d584577b0e62da6264736f6c634300081c0033","linkReferences":{}},"methodIdentifiers":{"_liquidateOneDelegated(address,address,uint256)":"3e95c060","authority()":"bf7e214f","availableToBorrow(address)":"2c38199e","batchLiquidate(address[],uint256[])":"1c1c4c44","borrow(uint256)":"c5ebeaec","borrowCap()":"44d9dca6","collateralAsset()":"aabaecd6","configEpoch()":"32322970","currentDebt(address)":"884719f2","currentQuoteContext()":"c0d3626d","currentQuoteInput(address)":"a2054b6c","currentRiskConfigHash()":"55b0fa02","debtAsset()":"a919802d","debtPool()":"1ffe1667","depositCollateral(uint256)":"bad4a01f","exportPositionForMigration(address)":"d90ebf53","freezeNewDebt()":"a83081f0","healthFactor(address)":"6ad9f9df","importMigratedPosition(address,(uint256,uint256,uint256))":"60453af3","isConsumingScheduledOp()":"8fb36037","liquidate(address,uint256)":"bcbaf487","liquidationBonusBps()":"19970d8e","maxConfiguredLiquidationThresholdBps()":"850eeda6","maxConfiguredLtvBps()":"af11014f","minBorrowAmount()":"0a5db8a8","newDebtFrozen()":"2f5a4863","oracle()":"7dc0d1d0","pause()":"8456cb59","paused()":"5c975abb","positions(address)":"55f57510","previewBorrow(address,uint256)":"931da152","projectedBorrowQuoteInput(address,uint256)":"bc1ffd97","publishCurrentQuoteTicket(address)":"912a70f2","publishProjectedBorrowQuoteTicket(address,uint256)":"07db3855","repay(uint256)":"371fd8e6","reserveFactorBps()":"c87bed70","riskEngine()":"92b888ae","setAuthority(address)":"7a9e5e4b","unpause()":"3f4ba83a","withdrawCollateral(uint256)":"6112fe2e"},"id":3}