{"abi":[{"type":"constructor","inputs":[{"name":"authority","type":"address","internalType":"address"},{"name":"initialPriceWad","type":"uint256","internalType":"uint256"},{"name":"initialMaxAge","type":"uint256","internalType":"uint256"},{"name":"initialMinPriceWad","type":"uint256","internalType":"uint256"},{"name":"initialMaxPriceWad","type":"uint256","internalType":"uint256"},{"name":"initialMaxPriceChangeBps","type":"uint256","internalType":"uint256"}],"stateMutability":"nonpayable"},{"type":"function","name":"authority","inputs":[],"outputs":[{"name":"","type":"address","internalType":"address"}],"stateMutability":"view"},{"type":"function","name":"currentAge","inputs":[],"outputs":[{"name":"","type":"uint256","internalType":"uint256"}],"stateMutability":"view"},{"type":"function","name":"currentStateHash","inputs":[],"outputs":[{"name":"","type":"bytes32","internalType":"bytes32"}],"stateMutability":"view"},{"type":"function","name":"isConsumingScheduledOp","inputs":[],"outputs":[{"name":"","type":"bytes4","internalType":"bytes4"}],"stateMutability":"view"},{"type":"function","name":"isFresh","inputs":[],"outputs":[{"name":"","type":"bool","internalType":"bool"}],"stateMutability":"view"},{"type":"function","name":"lastUpdatedAt","inputs":[],"outputs":[{"name":"","type":"uint256","internalType":"uint256"}],"stateMutability":"view"},{"type":"function","name":"latestPriceWad","inputs":[],"outputs":[{"name":"","type":"uint256","internalType":"uint256"}],"stateMutability":"view"},{"type":"function","name":"maxAge","inputs":[],"outputs":[{"name":"","type":"uint256","internalType":"uint256"}],"stateMutability":"view"},{"type":"function","name":"maxPriceChangeBps","inputs":[],"outputs":[{"name":"","type":"uint256","internalType":"uint256"}],"stateMutability":"view"},{"type":"function","name":"maxPriceWad","inputs":[],"outputs":[{"name":"","type":"uint256","internalType":"uint256"}],"stateMutability":"view"},{"type":"function","name":"minPriceWad","inputs":[],"outputs":[{"name":"","type":"uint256","internalType":"uint256"}],"stateMutability":"view"},{"type":"function","name":"oracleEpoch","inputs":[],"outputs":[{"name":"","type":"uint256","internalType":"uint256"}],"stateMutability":"view"},{"type":"function","name":"oracleStateHash","inputs":[],"outputs":[{"name":"","type":"bytes32","internalType":"bytes32"}],"stateMutability":"view"},{"type":"function","name":"pause","inputs":[],"outputs":[],"stateMutability":"nonpayable"},{"type":"function","name":"paused","inputs":[],"outputs":[{"name":"","type":"bool","internalType":"bool"}],"stateMutability":"view"},{"type":"function","name":"priceWad","inputs":[],"outputs":[{"name":"","type":"uint256","internalType":"uint256"}],"stateMutability":"view"},{"type":"function","name":"setAuthority","inputs":[{"name":"newAuthority","type":"address","internalType":"address"}],"outputs":[],"stateMutability":"nonpayable"},{"type":"function","name":"setCircuitBreaker","inputs":[{"name":"newMinPriceWad","type":"uint256","internalType":"uint256"},{"name":"newMaxPriceWad","type":"uint256","internalType":"uint256"},{"name":"newMaxPriceChangeBps","type":"uint256","internalType":"uint256"}],"outputs":[],"stateMutability":"nonpayable"},{"type":"function","name":"setMaxAge","inputs":[{"name":"newMaxAge","type":"uint256","internalType":"uint256"}],"outputs":[],"stateMutability":"nonpayable"},{"type":"function","name":"setPrice","inputs":[{"name":"newPriceWad","type":"uint256","internalType":"uint256"}],"outputs":[],"stateMutability":"nonpayable"},{"type":"function","name":"unpause","inputs":[],"outputs":[],"stateMutability":"nonpayable"},{"type":"event","name":"AuthorityUpdated","inputs":[{"name":"authority","type":"address","indexed":false,"internalType":"address"}],"anonymous":false},{"type":"event","name":"CircuitBreakerUpdated","inputs":[{"name":"minPriceWad","type":"uint256","indexed":false,"internalType":"uint256"},{"name":"maxPriceWad","type":"uint256","indexed":false,"internalType":"uint256"},{"name":"maxPriceChangeBps","type":"uint256","indexed":false,"internalType":"uint256"},{"name":"oracleEpoch","type":"uint256","indexed":false,"internalType":"uint256"}],"anonymous":false},{"type":"event","name":"MaxAgeUpdated","inputs":[{"name":"maxAge","type":"uint256","indexed":false,"internalType":"uint256"},{"name":"oracleEpoch","type":"uint256","indexed":false,"internalType":"uint256"}],"anonymous":false},{"type":"event","name":"OraclePauseStateUpdated","inputs":[{"name":"paused","type":"bool","indexed":false,"internalType":"bool"},{"name":"oracleEpoch","type":"uint256","indexed":false,"internalType":"uint256"}],"anonymous":false},{"type":"event","name":"Paused","inputs":[{"name":"account","type":"address","indexed":false,"internalType":"address"}],"anonymous":false},{"type":"event","name":"PriceUpdated","inputs":[{"name":"priceWad","type":"uint256","indexed":false,"internalType":"uint256"},{"name":"timestamp","type":"uint256","indexed":false,"internalType":"uint256"},{"name":"oracleEpoch","type":"uint256","indexed":false,"internalType":"uint256"}],"anonymous":false},{"type":"event","name":"Unpaused","inputs":[{"name":"account","type":"address","indexed":false,"internalType":"address"}],"anonymous":false},{"type":"error","name":"AccessManagedInvalidAuthority","inputs":[{"name":"authority","type":"address","internalType":"address"}]},{"type":"error","name":"AccessManagedRequiredDelay","inputs":[{"name":"caller","type":"address","internalType":"address"},{"name":"delay","type":"uint32","internalType":"uint32"}]},{"type":"error","name":"AccessManagedUnauthorized","inputs":[{"name":"caller","type":"address","internalType":"address"}]},{"type":"error","name":"EnforcedPause","inputs":[]},{"type":"error","name":"ExpectedPause","inputs":[]},{"type":"error","name":"InvalidConfiguration","inputs":[]},{"type":"error","name":"OraclePriceDeltaTooLarge","inputs":[{"name":"previousPriceWad","type":"uint256","internalType":"uint256"},{"name":"nextPriceWad","type":"uint256","internalType":"uint256"},{"name":"maxDeltaBps","type":"uint256","internalType":"uint256"}]},{"type":"error","name":"OraclePriceOutOfBounds","inputs":[{"name":"priceWad","type":"uint256","internalType":"uint256"},{"name":"minPriceWad","type":"uint256","internalType":"uint256"},{"name":"maxPriceWad","type":"uint256","internalType":"uint256"}]},{"type":"error","name":"OraclePriceStale","inputs":[{"name":"age","type":"uint256","internalType":"uint256"},{"name":"maxAge","type":"uint256","internalType":"uint256"}]},{"type":"error","name":"OraclePriceUnset","inputs":[]}],"bytecode":{"object":"0x608060405234801561000f575f5ffd5b50604051610dca380380610dca83398101604081905261002e91610167565b8561003881610099565b506100448383836100ec565b841561005557610055858484610127565b835f036100755760405163c52a9bd360e01b815260040160405180910390fd5b600194855542600255600393909355600491909155600555600655600755506101c1565b5f80546001600160a01b0319166001600160a01b0383169081179091556040519081527f2f658b440c35314f52658ea8a740e05b284cdc84dc9ae01e891f21b8933e7cad9060200160405180910390a150565b8215806100f857508282105b80610104575061271081115b156101225760405163c52a9bd360e01b815260040160405180910390fd5b505050565b8183108061013457508083115b1561012257604051631070912960e21b815260048101849052602481018390526044810182905260640160405180910390fd5b5f5f5f5f5f5f60c0878903121561017c575f5ffd5b86516001600160a01b0381168114610192575f5ffd5b6020880151604089015160608a015160808b015160a0909b0151939c929b509099909850965090945092505050565b610bfc806101ce5f395ff3fe608060405234801561000f575f5ffd5b5060043610610132575f3560e01c8063869ab8ac116100b4578063ba65ff2811610079578063ba65ff2814610221578063bb47b68a1461022a578063bf7e214f14610233578063cf3dd5d51461024d578063e16d9da714610256578063e1b0385f1461025e575f5ffd5b8063869ab8ac146101d45780638fb36037146101dc57806391b7f5ed146101fd578063b4d8c0b314610210578063b8fea0a114610218575f5ffd5b80636268ceaa116100fa5780636268ceaa1461019f578063687043c5146101a7578063697cd71a146101b05780637a9e5e4b146101b95780638456cb59146101cc575f5ffd5b80633f4ba83a1461013657806354aea127146101405780635ae28fc91461015c5780635c975abb1461016f5780635e4f890c1461018c575b5f5ffd5b61013e610266565b005b61014960025481565b6040519081526020015b60405180910390f35b61013e61016a366004610a45565b6102c1565b5f54600160a81b900460ff165b6040519015158152602001610153565b61013e61019a366004610a5c565b610335565b61017c6103c1565b61014960035481565b61014960065481565b61013e6101c7366004610a85565b6103fc565b61013e610479565b6101496104b5565b6101e461052a565b6040516001600160e01b03199091168152602001610153565b61013e61020b366004610a45565b61054c565b6101496105cc565b61014960045481565b61014960075481565b61014960015481565b5f546040516001600160a01b039091168152602001610153565b61014960055481565b61014961064d565b610149610656565b610272335b5f36610665565b61027a61075b565b7ff2a7ba78eed53522b634b8ef5fb69110aec14c2d97ce40761333338174d9db3e5f6102a46107aa565b6040805192151583526020830191909152015b60405180910390a1565b6102ca3361026b565b805f036102ea5760405163c52a9bd360e01b815260040160405180910390fd5b60038190557f1293e51547e7dfe0f71bcd8fbe56949db0c3162cb40fe283a5b45544b6cafac4816103196107aa565b604080519283526020830191909152015b60405180910390a150565b61033e3361026b565b6103498383836107ca565b6001541561035e5761035e6001548484610805565b6004839055600582905560068190557f595b82fe980573accd93caff3e8d93c76f180511c046ac80606e42e4f77503928383836103996107aa565b60408051948552602085019390935291830152606082015260800160405180910390a1505050565b5f6001545f141580156103dd57505f54600160a81b900460ff16155b80156103f757506003546002546103f49042610ac6565b11155b905090565b5f5433906001600160a01b031681146104375760405162d1953b60e31b81526001600160a01b03821660048201526024015b60405180910390fd5b816001600160a01b03163b5f0361046c576040516361798f2f60e11b81526001600160a01b038316600482015260240161042e565b61047582610841565b5050565b6104823361026b565b61048a61088e565b7ff2a7ba78eed53522b634b8ef5fb69110aec14c2d97ce40761333338174d9db3e60016102a46107aa565b5f6104be6108d0565b6001545f8190036104e257604051637446aabb60e01b815260040160405180910390fd5b5f600254426104f19190610ac6565b90506003548111156105245760035460405163621b9f8160e11b815261042e918391600401918252602082015260400190565b50905090565b5f8054600160a01b900460ff1661054057505f90565b50638fb3603760e01b90565b6105553361026b565b61056481600454600554610805565b610573600154826006546108fc565b6001819055426002555f6105856107aa565b604080518481524260208201529081018290529091507f15819dd2fd9f6418b142e798d08a18d0bf06ea368f4480b7b0d3f75bd966bc489060600160405180910390a15050565b5f6007546001546002546003546004546005546006546105f55f5460ff600160a81b9091041690565b6040805160208101999099528801969096526060870194909452608086019290925260a085015260c084015260e083015215156101008201526101200160405160208183030381529060405280519060200120905090565b5f6103f76105cc565b5f600254426103f79190610ac6565b5f5f61069861067b5f546001600160a01b031690565b863061068a60045f898b610adf565b61069391610b06565b61098a565b91509150816107545763ffffffff811615610731575f805460ff60a01b198116600160a01b17909155604051634a63ebf760e11b81526001600160a01b03909116906394c7d7ee906106f290889088908890600401610b3e565b5f604051808303815f87803b158015610709575f5ffd5b505af115801561071b573d5f5f3e3d5ffd5b50505f805460ff60a01b19169055506107549050565b60405162d1953b60e31b81526001600160a01b038616600482015260240161042e565b5050505050565b610763610a1c565b5f805460ff60a81b191690557f5db9ee0a495bf2e6ff9c91a7834c1ba4fdd244a5e8aa4e537bd38aeae4b073aa335b6040516001600160a01b0390911681526020016102b7565b5f600160075f8282546107bd9190610b7d565b9091555050600754919050565b8215806107d657508282105b806107e2575061271081115b156108005760405163c52a9bd360e01b815260040160405180910390fd5b505050565b8183108061081257508083115b1561080057604051631070912960e21b815260048101849052602481018390526044810182905260640161042e565b5f80546001600160a01b0319166001600160a01b0383169081179091556040519081527f2f658b440c35314f52658ea8a740e05b284cdc84dc9ae01e891f21b8933e7cad9060200161032a565b6108966108d0565b5f805460ff60a81b1916600160a81b1790557f62e78cea01bee320cd4e420270b5ea74000d11b0c9f74754ebdbfc544b05a2586107923390565b5f54600160a81b900460ff16156108fa5760405163d93c066560e01b815260040160405180910390fd5b565b821580610907575080155b8061091157508183145b1561091b57505050565b5f8284116109325761092d8484610ac6565b61093c565b61093c8385610ac6565b90505f8461094c83612710610b90565b6109569190610ba7565b9050828111156107545760405163599a089d60e11b815260048101869052602481018590526044810184905260640161042e565b6040516001600160a01b038085166024830152831660448201526001600160e01b0319821660648201525f908190819060840160408051601f19818403018152918152602080830180516001600160e01b031663b700961360e01b1781525f808052918290528351939450919290918a5afa15610a12575f516020805191945081901c150291505b5094509492505050565b5f54600160a81b900460ff166108fa57604051638dfc202b60e01b815260040160405180910390fd5b5f60208284031215610a55575f5ffd5b5035919050565b5f5f5f60608486031215610a6e575f5ffd5b505081359360208301359350604090920135919050565b5f60208284031215610a95575f5ffd5b81356001600160a01b0381168114610aab575f5ffd5b9392505050565b634e487b7160e01b5f52601160045260245ffd5b81810381811115610ad957610ad9610ab2565b92915050565b5f5f85851115610aed575f5ffd5b83861115610af9575f5ffd5b5050820193919092039150565b80356001600160e01b03198116906004841015610b37576001600160e01b0319600485900360031b81901b82161691505b5092915050565b6001600160a01b03841681526040602082018190528101829052818360608301375f818301606090810191909152601f909201601f1916010192915050565b80820180821115610ad957610ad9610ab2565b8082028115828204841417610ad957610ad9610ab2565b5f82610bc157634e487b7160e01b5f52601260045260245ffd5b50049056fea26469706673582212203dca5a1cbc87c8d52f61f04a03c94a1a887f3a8068a9e2d8c60c532da1cb25e964736f6c634300081c0033","linkReferences":{}},"methodIdentifiers":{"authority()":"bf7e214f","currentAge()":"e1b0385f","currentStateHash()":"b4d8c0b3","isConsumingScheduledOp()":"8fb36037","isFresh()":"6268ceaa","lastUpdatedAt()":"54aea127","latestPriceWad()":"869ab8ac","maxAge()":"687043c5","maxPriceChangeBps()":"697cd71a","maxPriceWad()":"cf3dd5d5","minPriceWad()":"b8fea0a1","oracleEpoch()":"ba65ff28","oracleStateHash()":"e16d9da7","pause()":"8456cb59","paused()":"5c975abb","priceWad()":"bb47b68a","setAuthority(address)":"7a9e5e4b","setCircuitBreaker(uint256,uint256,uint256)":"5e4f890c","setMaxAge(uint256)":"5ae28fc9","setPrice(uint256)":"91b7f5ed","unpause()":"3f4ba83a"},"id":6}