{"abi":[{"type":"constructor","inputs":[{"name":"authority","type":"address","internalType":"address"}],"stateMutability":"nonpayable"},{"type":"function","name":"activateVersion","inputs":[{"name":"versionId","type":"uint256","internalType":"uint256"}],"outputs":[],"stateMutability":"nonpayable"},{"type":"function","name":"activeVersion","inputs":[],"outputs":[{"name":"","type":"tuple","internalType":"struct IMarketVersionRegistry.MarketVersion","components":[{"name":"lendingCore","type":"address","internalType":"address"},{"name":"debtPool","type":"address","internalType":"address"},{"name":"oracle","type":"address","internalType":"address"},{"name":"riskEngine","type":"address","internalType":"address"},{"name":"quoteEngine","type":"address","internalType":"address"},{"name":"collateralAsset","type":"address","internalType":"address"},{"name":"debtAsset","type":"address","internalType":"address"},{"name":"configHash","type":"bytes32","internalType":"bytes32"},{"name":"registeredAt","type":"uint256","internalType":"uint256"}]}],"stateMutability":"view"},{"type":"function","name":"activeVersionId","inputs":[],"outputs":[{"name":"","type":"uint256","internalType":"uint256"}],"stateMutability":"view"},{"type":"function","name":"authority","inputs":[],"outputs":[{"name":"","type":"address","internalType":"address"}],"stateMutability":"view"},{"type":"function","name":"getVersion","inputs":[{"name":"versionId","type":"uint256","internalType":"uint256"}],"outputs":[{"name":"","type":"tuple","internalType":"struct IMarketVersionRegistry.MarketVersion","components":[{"name":"lendingCore","type":"address","internalType":"address"},{"name":"debtPool","type":"address","internalType":"address"},{"name":"oracle","type":"address","internalType":"address"},{"name":"riskEngine","type":"address","internalType":"address"},{"name":"quoteEngine","type":"address","internalType":"address"},{"name":"collateralAsset","type":"address","internalType":"address"},{"name":"debtAsset","type":"address","internalType":"address"},{"name":"configHash","type":"bytes32","internalType":"bytes32"},{"name":"registeredAt","type":"uint256","internalType":"uint256"}]}],"stateMutability":"view"},{"type":"function","name":"isConsumingScheduledOp","inputs":[],"outputs":[{"name":"","type":"bytes4","internalType":"bytes4"}],"stateMutability":"view"},{"type":"function","name":"latestVersionId","inputs":[],"outputs":[{"name":"","type":"uint256","internalType":"uint256"}],"stateMutability":"view"},{"type":"function","name":"registerVersion","inputs":[{"name":"lendingCore","type":"address","internalType":"address"},{"name":"debtPool","type":"address","internalType":"address"},{"name":"oracle","type":"address","internalType":"address"},{"name":"riskEngine","type":"address","internalType":"address"}],"outputs":[{"name":"versionId","type":"uint256","internalType":"uint256"}],"stateMutability":"nonpayable"},{"type":"function","name":"setAuthority","inputs":[{"name":"newAuthority","type":"address","internalType":"address"}],"outputs":[],"stateMutability":"nonpayable"},{"type":"event","name":"AuthorityUpdated","inputs":[{"name":"authority","type":"address","indexed":false,"internalType":"address"}],"anonymous":false},{"type":"event","name":"MarketVersionActivated","inputs":[{"name":"previousVersionId","type":"uint256","indexed":true,"internalType":"uint256"},{"name":"versionId","type":"uint256","indexed":true,"internalType":"uint256"}],"anonymous":false},{"type":"event","name":"MarketVersionRegistered","inputs":[{"name":"versionId","type":"uint256","indexed":true,"internalType":"uint256"},{"name":"configHash","type":"bytes32","indexed":true,"internalType":"bytes32"},{"name":"lendingCore","type":"address","indexed":true,"internalType":"address"},{"name":"debtPool","type":"address","indexed":false,"internalType":"address"},{"name":"oracle","type":"address","indexed":false,"internalType":"address"},{"name":"riskEngine","type":"address","indexed":false,"internalType":"address"},{"name":"quoteEngine","type":"address","indexed":false,"internalType":"address"}],"anonymous":false},{"type":"error","name":"AccessManagedInvalidAuthority","inputs":[{"name":"authority","type":"address","internalType":"address"}]},{"type":"error","name":"AccessManagedRequiredDelay","inputs":[{"name":"caller","type":"address","internalType":"address"},{"name":"delay","type":"uint32","internalType":"uint32"}]},{"type":"error","name":"AccessManagedUnauthorized","inputs":[{"name":"caller","type":"address","internalType":"address"}]},{"type":"error","name":"InvalidVersionConfiguration","inputs":[]},{"type":"error","name":"UnknownVersion","inputs":[{"name":"versionId","type":"uint256","internalType":"uint256"}]},{"type":"error","name":"VersionAlreadyActive","inputs":[{"name":"versionId","type":"uint256","internalType":"uint256"}]}],"bytecode":{"object":"0x608034609957601f610e3c38819003918201601f19168301916001600160401b03831184841017609d57808492602094604052833981010312609957516001600160a01b038116908190036099575f80546001600160a01b031916821790556040519081527f2f658b440c35314f52658ea8a740e05b284cdc84dc9ae01e891f21b8933e7cad90602090a1604051610d8a90816100b28239f35b5f80fd5b634e487b7160e01b5f52604160045260245ffdfe60806040526004361015610011575f80fd5b5f3560e01c806359e6a58c14610a4b57806367f9815214610a2e5780637a9e5e4b1461098157806381e08f21146109645780638fb3603714610921578063b88da75914610854578063bf7e214f1461082d578063d418028d1461014e5763fccdcc3e1461007c575f80fd5b3461014a575f36600319011261014a57610094610bac565b506002548015610138575f52600360205261013460405f206008604051916100bb83610b59565b80546001600160a01b039081168452600182015481166020850152600282015481166040808601919091526003830154821660608601526004830154821660808601526005830154821660a0860152600683015490911660c0850152600782015460e08501529101546101008301525191829182610ae2565b0390f35b636951c92360e11b5f5260045260245ffd5b5f80fd5b3461014a57608036600319011261014a57610167610acc565b6024356001600160a01b038116919082900361014a576044356001600160a01b038116929083900361014a576064356001600160a01b038116929083900361014a576101b33633610c0e565b6001600160a01b03169081158015610825575b801561081d575b8015610815575b61059557604051631ffe166760e01b8152602081600481865afa80156105215782915f916107f6575b506001600160a01b0316148015906107a0575b801561074a575b6105955760405163386db90f60e21b8152602081600481855afa80156105215783915f9161072b575b506001600160a01b03161480159061068e575b610595576040516339d2a27560e01b8152602081600481875afa908115610521575f9161064c575b506001600160a01b0316801580156105f8575b80156105a4575b610595576001549360018501809511610581576001859055604051632ad87d0160e11b815292602084600481885afa938415610521575f9461054d575b5060405163555d766b60e11b815290602082600481895afa918215610521575f9261052c575b5060405163a919802d60e01b8152936020856004818a5afa938415610521576020998860088b8a7f6141470d0d43f980323a753b1e78ce3826e5b87723defcc28d96019bcf5492e299608099839c5f926104f0575b506040519561035b87610b59565b8652602086018a81526040870188815260608801908a82528d8901928c845260a08a019460018060a01b0316855260c08a019560018060a01b0316865260e08a019687526101008a01974289525f5260206003905260405f209960018060a01b039060018060a01b03905116166001600160601b0360a01b8b5416178a5560018060a01b0390511660018a019060018060a01b03166001600160601b0360a01b82541617905560018060a01b03905116600289019060018060a01b03166001600160601b0360a01b82541617905560018060a01b03905116600388019060018060a01b03166001600160601b0360a01b82541617905560018060a01b03905116600487019060018060a01b03166001600160601b0360a01b82541617905560018060a01b03905116600586019060018060a01b03166001600160601b0360a01b82541617905560018060a01b03905116600685019060018060a01b03166001600160601b0360a01b825416179055516007840155519101556040519384528a84015260408301526060820152a4604051908152f35b60206105139293503d60201161051a575b61050b8183610b8a565b810190610bef565b905f61034d565b503d610501565b6040513d5f823e3d90fd5b61054691925060203d60201161051a5761050b8183610b8a565b90886102f8565b9093506020813d602011610579575b8161056960209383610b8a565b8101031261014a575192876102d2565b3d915061055c565b634e487b7160e01b5f52601160045260245ffd5b63cf0e6d9f60e01b5f5260045ffd5b5060405163a919802d60e01b8152602081600481875afa908115610521575f916105d9575b506001600160a01b031615610295565b6105f2915060203d60201161051a5761050b8183610b8a565b866105c9565b5060405163555d766b60e11b8152602081600481875afa908115610521575f9161062d575b506001600160a01b03161561028e565b610646915060203d60201161051a5761050b8183610b8a565b8661061d565b90506020813d602011610686575b8161066760209383610b8a565b8101031261014a57516001600160a01b038116810361014a578561027b565b3d915061065a565b506040516338d52e0f60e01b8152602081600481855afa908115610521575f9161070c575b5060405163a919802d60e01b8152602081600481875afa908115610521575f916106ed575b506001600160a01b0391821691161415610253565b610706915060203d60201161051a5761050b8183610b8a565b866106d8565b610725915060203d60201161051a5761050b8183610b8a565b856106b3565b610744915060203d60201161051a5761050b8183610b8a565b86610240565b5060405163495c445760e11b8152602081600481865afa80156105215784915f91610781575b506001600160a01b03161415610217565b61079a915060203d60201161051a5761050b8183610b8a565b86610770565b506040516307dc0d1d60e41b8152602081600481865afa80156105215785915f916107d7575b506001600160a01b03161415610210565b6107f0915060203d60201161051a5761050b8183610b8a565b866107c6565b61080f915060203d60201161051a5761050b8183610b8a565b866101fd565b5082156101d4565b5083156101cd565b5080156101c6565b3461014a575f36600319011261014a575f546040516001600160a01b039091168152602090f35b3461014a57602036600319011261014a57600435610870610bac565b50805f52600360205260405f206040519061088a82610b59565b80546001600160a01b039081168084526001830154821660208501526002830154821660408501526003830154821660608501526004830154821660808501526005830154821660a0850152600683015490911660c0840152600782015460e08401526008909101546101008301521561090e576101349060405191829182610ae2565b50636951c92360e11b5f5260045260245ffd5b3461014a575f36600319011261014a575f5460a01c60ff161561095c576020638fb3603760e01b5b6040516001600160e01b03199091168152f35b60205f610949565b3461014a575f36600319011261014a576020600254604051908152f35b3461014a57602036600319011261014a5761099a610acc565b5f546001600160a01b0381163303610a1c57813b156109fb576001600160a01b0319166001600160a01b039091169081175f556040519081527f2f658b440c35314f52658ea8a740e05b284cdc84dc9ae01e891f21b8933e7cad90602090a1005b506361798f2f60e11b5f9081526001600160a01b0391909116600452602490fd5b62d1953b60e31b5f523360045260245ffd5b3461014a575f36600319011261014a576020600154604051908152f35b3461014a57602036600319011261014a57600435610a693633610c0e565b5f818152600360205260409020546001600160a01b03161561013857600254818114610ab957816002557fbca577afcb06b199acb64c0365ddbe0f5fdb767184f8ea89bac6f2e7161f9e995f80a3005b506340367c8760e01b5f5260045260245ffd5b600435906001600160a01b038216820361014a57565b81516001600160a01b03908116825260208084015182169083015260408084015182169083015260608084015182169083015260808084015182169083015260a08084015182169083015260c0808401519091169082015260e0808301519082015261010091820151918101919091526101200190565b610120810190811067ffffffffffffffff821117610b7657604052565b634e487b7160e01b5f52604160045260245ffd5b90601f8019910116810190811067ffffffffffffffff821117610b7657604052565b60405190610bb982610b59565b5f610100838281528260208201528260408201528260608201528260808201528260a08201528260c08201528260e08201520152565b9081602091031261014a57516001600160a01b038116810361014a5790565b5f805490926001600160a01b03821692916004821061014a575f5f9060405f815196602088019063b700961360e01b825260018060a01b03169788602482015230604482015263ffffffff60e01b833516606482015260648152610c73608482610b8a565b828052826020525190895afa610d41575b15610c92575b505050505050565b63ffffffff1615610d2f5760ff60a01b1916600160a01b175f55823b1561014a576064925f9283604051958680958194634a63ebf760e11b83526004830152604060248301528060448301528084848401378181018301849052601f01601f191681010301925af1801561052157610d1c575b50805460ff60a01b191690555f8080808080610c8a565b610d2891505f90610b8a565b5f5f610d05565b8262d1953b60e31b5f5260045260245ffd5b50505f516020518060201c150290610c8456fea2646970667358221220dc3d1f5ca8b45b36efa6553a293539f89bfd724bb8d39d9e015f94218abf749764736f6c634300081c0033","linkReferences":{}},"methodIdentifiers":{"activateVersion(uint256)":"59e6a58c","activeVersion()":"fccdcc3e","activeVersionId()":"81e08f21","authority()":"bf7e214f","getVersion(uint256)":"b88da759","isConsumingScheduledOp()":"8fb36037","latestVersionId()":"67f98152","registerVersion(address,address,address,address)":"d418028d","setAuthority(address)":"7a9e5e4b"},"id":7}