{"abi":[{"type":"constructor","inputs":[{"name":"authority_","type":"address","internalType":"address"}],"stateMutability":"nonpayable"},{"type":"function","name":"DEFAULT_HOOK_TYPE","inputs":[],"outputs":[{"name":"","type":"bytes32","internalType":"bytes32"}],"stateMutability":"view"},{"type":"function","name":"authority","inputs":[],"outputs":[{"name":"","type":"address","internalType":"address"}],"stateMutability":"view"},{"type":"function","name":"deregisterHook","inputs":[{"name":"hookType","type":"bytes32","internalType":"bytes32"}],"outputs":[],"stateMutability":"nonpayable"},{"type":"function","name":"executeHooks","inputs":[{"name":"hookType","type":"bytes32","internalType":"bytes32"},{"name":"data","type":"bytes","internalType":"bytes"}],"outputs":[],"stateMutability":"nonpayable"},{"type":"function","name":"getHook","inputs":[{"name":"hookType","type":"bytes32","internalType":"bytes32"}],"outputs":[{"name":"","type":"address","internalType":"address"}],"stateMutability":"view"},{"type":"function","name":"isConsumingScheduledOp","inputs":[],"outputs":[{"name":"","type":"bytes4","internalType":"bytes4"}],"stateMutability":"view"},{"type":"function","name":"notifyLiquidation","inputs":[{"name":"borrower","type":"address","internalType":"address"},{"name":"debtRepaid","type":"uint256","internalType":"uint256"},{"name":"collateralSeized","type":"uint256","internalType":"uint256"},{"name":"correlationId","type":"bytes32","internalType":"bytes32"}],"outputs":[],"stateMutability":"nonpayable"},{"type":"function","name":"registerHook","inputs":[{"name":"hookType","type":"bytes32","internalType":"bytes32"},{"name":"handler","type":"address","internalType":"address"}],"outputs":[],"stateMutability":"nonpayable"},{"type":"function","name":"setAuthority","inputs":[{"name":"newAuthority","type":"address","internalType":"address"}],"outputs":[],"stateMutability":"nonpayable"},{"type":"event","name":"AuthorityUpdated","inputs":[{"name":"authority","type":"address","indexed":false,"internalType":"address"}],"anonymous":false},{"type":"event","name":"HookDeregistered","inputs":[{"name":"hookType","type":"bytes32","indexed":true,"internalType":"bytes32"},{"name":"handler","type":"address","indexed":true,"internalType":"address"}],"anonymous":false},{"type":"event","name":"HookExecuted","inputs":[{"name":"hookType","type":"bytes32","indexed":true,"internalType":"bytes32"},{"name":"handler","type":"address","indexed":true,"internalType":"address"}],"anonymous":false},{"type":"event","name":"HookFailed","inputs":[{"name":"hookType","type":"bytes32","indexed":true,"internalType":"bytes32"},{"name":"handler","type":"address","indexed":true,"internalType":"address"},{"name":"reason","type":"bytes","indexed":false,"internalType":"bytes"}],"anonymous":false},{"type":"event","name":"HookRegistered","inputs":[{"name":"hookType","type":"bytes32","indexed":true,"internalType":"bytes32"},{"name":"handler","type":"address","indexed":true,"internalType":"address"}],"anonymous":false},{"type":"error","name":"AccessManagedInvalidAuthority","inputs":[{"name":"authority","type":"address","internalType":"address"}]},{"type":"error","name":"AccessManagedRequiredDelay","inputs":[{"name":"caller","type":"address","internalType":"address"},{"name":"delay","type":"uint32","internalType":"uint32"}]},{"type":"error","name":"AccessManagedUnauthorized","inputs":[{"name":"caller","type":"address","internalType":"address"}]},{"type":"error","name":"HookNotRegistered","inputs":[{"name":"hookType","type":"bytes32","internalType":"bytes32"}]},{"type":"error","name":"ZeroHandlerAddress","inputs":[]}],"bytecode":{"object":"0x608034609957601f61090338819003918201601f19168301916001600160401b03831184841017609d57808492602094604052833981010312609957516001600160a01b038116908190036099575f80546001600160a01b031916821790556040519081527f2f658b440c35314f52658ea8a740e05b284cdc84dc9ae01e891f21b8933e7cad90602090a160405161085190816100b28239f35b5f80fd5b634e487b7160e01b5f52604160045260245ffdfe60806040526004361015610011575f80fd5b5f3560e01c80631617883a146103705780631b1c72bb1461033657806336939bd1146103045780637962db4e1461028f5780637a9e5e4b146101e25780638fb360371461019f5780639fc5ceb014610113578063ad890ab0146100a75763bf7e214f1461007c575f80fd5b346100a3575f3660031901126100a3575f546040516001600160a01b039091168152602090f35b5f80fd5b346100a35760803660031901126100a3576101116100fe61010c6100c9610451565b604080516001600160a01b039092166020830152602435908201526044356060820152606435608082015291829060a0820190565b03601f1981018352826103ff565b610467565b005b346100a35760403660031901126100a3576024356001600160a01b03811690600435908290036100a35761014736336106ca565b8115610190575f81815260016020526040812080546001600160a01b031916841790557f7eb92142451e76f67308910694127e44cec10a3af5efca21cc89d2128f56ee299080a3005b636b24cac160e11b5f5260045ffd5b346100a3575f3660031901126100a3575f5460a01c60ff16156101da576020638fb3603760e01b5b6040516001600160e01b03199091168152f35b60205f6101c7565b346100a35760203660031901126100a3576101fb610451565b5f546001600160a01b038116330361027d57813b1561025c576001600160a01b0319166001600160a01b039091169081175f556040519081527f2f658b440c35314f52658ea8a740e05b284cdc84dc9ae01e891f21b8933e7cad90602090a1005b506361798f2f60e11b5f9081526001600160a01b0391909116600452602490fd5b62d1953b60e31b5f523360045260245ffd5b346100a35760403660031901126100a35760243567ffffffffffffffff81116100a357366023820112156100a35780600401356102cb81610435565b906102d960405192836103ff565b80825236602482850101116100a3576020815f9260246101119601838601378301015260043561062d565b346100a35760203660031901126100a3576004355f526001602052602060018060a01b0360405f205416604051908152f35b346100a3575f3660031901126100a35760206040517fd1dc45b9435dd181eb2c5f215cca1998f9b150a50b490a75c3f250f135f1c1288152f35b346100a35760203660031901126100a35760043561038e36336106ca565b5f818152600160205260409020546001600160a01b03169081156103ed575f81815260016020526040812080546001600160a01b03191690557f9b7d116f288871e8cf81efb4e0b17bf6400f6d16676d9bf970bbf37673afab809080a3005b632f51d52160e11b5f5260045260245ffd5b90601f8019910116810190811067ffffffffffffffff82111761042157604052565b634e487b7160e01b5f52604160045260245ffd5b67ffffffffffffffff811161042157601f01601f191660200190565b600435906001600160a01b03821682036100a357565b7fd1dc45b9435dd181eb2c5f215cca1998f9b150a50b490a75c3f250f135f1c1285f90815260016020527f05484197011007e48cf374700a61f1304a5c6e22838e623a0707ec7632ae6bac546001600160a01b031691908215610628576080828051810103126100a35760208201516001600160a01b03811692908390036100a35760408101516080606083015192015190853b156100a357604051630ad890ab60e41b81526001600160a01b0390951660048601526024850152604484019190915260648301527fd1dc45b9435dd181eb2c5f215cca1998f9b150a50b490a75c3f250f135f1c128915f8180608481015b038183885af19081610613575b506105ed577f91e01fc49e9fd1395411fef3b287056912f5b5e46fca577651b17c56cd9842e4903d156105e45760403d61059f81610435565b906105ac835192836103ff565b81523d83602083013e5b6020825193849282845280519283918282870152018585015e828201840152601f01601f19168101030190a3565b604060606105b6565b807f5207149f10586d7d023d7772e215b7fb5ee1912965b1dceaf4a07ef188f2fc5691a3565b6106209192505f906103ff565b5f905f610566565b505050565b5f818152600160205260408120546001600160a01b03169283156106c4576080818051810103126100a35760208101516001600160a01b038116908190036100a35760408201516080606084015193015191863b156100a357604051630ad890ab60e41b81526001600160a01b0390911660048201526024810191909152604481019290925260648201525f818060848101610559565b50505050565b5f805490926001600160a01b0382169291600482106100a3575f5f9060405f815196602088019063b700961360e01b825260018060a01b03169788602482015230604482015263ffffffff60e01b83351660648201526064815261072f6084826103ff565b828052826020525190895afa610808575b1561074e575b505050505050565b63ffffffff16156107f65760ff60a01b1916600160a01b175f55823b156100a3576064925f9283604051958680958194634a63ebf760e11b83526004830152604060248301528060448301528084848401378181018301849052601f01601f191681010301925af180156107eb576107d8575b50805460ff60a01b191690555f8080808080610746565b6107e491505f906103ff565b5f5f6107c1565b6040513d5f823e3d90fd5b8262d1953b60e31b5f5260045260245ffd5b50505f516020518060201c15029061074056fea2646970667358221220cb307a1aa6d1e76b2af38505956364edd5c575825a10a8e00f7d3d8ba2e40ce764736f6c634300081c0033","linkReferences":{}},"methodIdentifiers":{"DEFAULT_HOOK_TYPE()":"1b1c72bb","authority()":"bf7e214f","deregisterHook(bytes32)":"1617883a","executeHooks(bytes32,bytes)":"7962db4e","getHook(bytes32)":"36939bd1","isConsumingScheduledOp()":"8fb36037","notifyLiquidation(address,uint256,uint256,bytes32)":"ad890ab0","registerHook(bytes32,address)":"9fc5ceb0","setAuthority(address)":"7a9e5e4b"},"id":5}