{"abi":[{"type":"constructor","inputs":[{"name":"authority_","type":"address","internalType":"address"},{"name":"collateralAsset_","type":"address","internalType":"contract IERC20"},{"name":"debtAsset_","type":"address","internalType":"contract IERC20"},{"name":"debtPool_","type":"address","internalType":"contract DebtPool"},{"name":"oracle_","type":"address","internalType":"contract ManualOracle"},{"name":"riskEngine_","type":"address","internalType":"contract IRiskAdapter"},{"name":"config_","type":"tuple","internalType":"struct LendingEngine.MarketConfig","components":[{"name":"borrowCap","type":"uint256","internalType":"uint256"},{"name":"minBorrowAmount","type":"uint256","internalType":"uint256"},{"name":"reserveFactorBps","type":"uint256","internalType":"uint256"},{"name":"maxLtvBps","type":"uint256","internalType":"uint256"},{"name":"liquidationThresholdBps","type":"uint256","internalType":"uint256"},{"name":"liquidationBonusBps","type":"uint256","internalType":"uint256"}]},{"name":"liquidationNotifier_","type":"address","internalType":"address"}],"stateMutability":"nonpayable"},{"type":"function","name":"_liquidateOneDelegated","inputs":[{"name":"liquidator","type":"address","internalType":"address"},{"name":"borrower","type":"address","internalType":"address"},{"name":"requestedRepayAmount","type":"uint256","internalType":"uint256"}],"outputs":[],"stateMutability":"nonpayable"},{"type":"function","name":"authority","inputs":[],"outputs":[{"name":"","type":"address","internalType":"address"}],"stateMutability":"view"},{"type":"function","name":"availableToBorrow","inputs":[{"name":"borrower","type":"address","internalType":"address"}],"outputs":[{"name":"","type":"uint256","internalType":"uint256"}],"stateMutability":"view"},{"type":"function","name":"batchLiquidate","inputs":[{"name":"borrowers","type":"address[]","internalType":"address[]"},{"name":"amounts","type":"uint256[]","internalType":"uint256[]"}],"outputs":[],"stateMutability":"nonpayable"},{"type":"function","name":"borrow","inputs":[{"name":"amount","type":"uint256","internalType":"uint256"}],"outputs":[],"stateMutability":"nonpayable"},{"type":"function","name":"borrowCap","inputs":[],"outputs":[{"name":"","type":"uint256","internalType":"uint256"}],"stateMutability":"view"},{"type":"function","name":"collateralAsset","inputs":[],"outputs":[{"name":"","type":"address","internalType":"contract IERC20"}],"stateMutability":"view"},{"type":"function","name":"configEpoch","inputs":[],"outputs":[{"name":"","type":"uint256","internalType":"uint256"}],"stateMutability":"view"},{"type":"function","name":"currentDebt","inputs":[{"name":"borrower","type":"address","internalType":"address"}],"outputs":[{"name":"","type":"uint256","internalType":"uint256"}],"stateMutability":"view"},{"type":"function","name":"currentQuoteContext","inputs":[],"outputs":[{"name":"","type":"tuple","internalType":"struct IRiskAdapter.QuoteContext","components":[{"name":"oracleEpoch","type":"uint256","internalType":"uint256"},{"name":"configEpoch","type":"uint256","internalType":"uint256"},{"name":"oracleStateHash","type":"bytes32","internalType":"bytes32"},{"name":"configHash","type":"bytes32","internalType":"bytes32"}]}],"stateMutability":"view"},{"type":"function","name":"currentQuoteInput","inputs":[{"name":"borrower","type":"address","internalType":"address"}],"outputs":[{"name":"","type":"tuple","internalType":"struct IRiskEngine.QuoteInput","components":[{"name":"utilizationBps","type":"uint256","internalType":"uint256"},{"name":"collateralRatioBps","type":"uint256","internalType":"uint256"},{"name":"oracleAgeSeconds","type":"uint256","internalType":"uint256"},{"name":"oracleFresh","type":"bool","internalType":"bool"},{"name":"policyMaxLtvBps","type":"uint256","internalType":"uint256"},{"name":"policyLiqThresholdBps","type":"uint256","internalType":"uint256"},{"name":"policyBorrowRateFloorBps","type":"uint256","internalType":"uint256"}]}],"stateMutability":"view"},{"type":"function","name":"currentRiskConfigHash","inputs":[],"outputs":[{"name":"","type":"bytes32","internalType":"bytes32"}],"stateMutability":"view"},{"type":"function","name":"debtAsset","inputs":[],"outputs":[{"name":"","type":"address","internalType":"contract IERC20"}],"stateMutability":"view"},{"type":"function","name":"debtPool","inputs":[],"outputs":[{"name":"","type":"address","internalType":"contract DebtPool"}],"stateMutability":"view"},{"type":"function","name":"depositCollateral","inputs":[{"name":"amount","type":"uint256","internalType":"uint256"}],"outputs":[],"stateMutability":"nonpayable"},{"type":"function","name":"depositCollateralFor","inputs":[{"name":"beneficiary","type":"address","internalType":"address"},{"name":"amount","type":"uint256","internalType":"uint256"}],"outputs":[],"stateMutability":"nonpayable"},{"type":"function","name":"exportPositionForMigration","inputs":[{"name":"borrower","type":"address","internalType":"address"}],"outputs":[{"name":"position","type":"tuple","internalType":"struct IMigratableLendingCore.MigratedPosition","components":[{"name":"collateralAmount","type":"uint256","internalType":"uint256"},{"name":"principalDebt","type":"uint256","internalType":"uint256"},{"name":"accruedInterest","type":"uint256","internalType":"uint256"}]}],"stateMutability":"nonpayable"},{"type":"function","name":"freezeNewDebt","inputs":[],"outputs":[],"stateMutability":"nonpayable"},{"type":"function","name":"healthFactor","inputs":[{"name":"borrower","type":"address","internalType":"address"}],"outputs":[{"name":"","type":"uint256","internalType":"uint256"}],"stateMutability":"view"},{"type":"function","name":"importMigratedPosition","inputs":[{"name":"borrower","type":"address","internalType":"address"},{"name":"position","type":"tuple","internalType":"struct IMigratableLendingCore.MigratedPosition","components":[{"name":"collateralAmount","type":"uint256","internalType":"uint256"},{"name":"principalDebt","type":"uint256","internalType":"uint256"},{"name":"accruedInterest","type":"uint256","internalType":"uint256"}]}],"outputs":[],"stateMutability":"nonpayable"},{"type":"function","name":"isConsumingScheduledOp","inputs":[],"outputs":[{"name":"","type":"bytes4","internalType":"bytes4"}],"stateMutability":"view"},{"type":"function","name":"liquidate","inputs":[{"name":"borrower","type":"address","internalType":"address"},{"name":"requestedRepayAmount","type":"uint256","internalType":"uint256"}],"outputs":[],"stateMutability":"nonpayable"},{"type":"function","name":"liquidationBonusBps","inputs":[],"outputs":[{"name":"","type":"uint256","internalType":"uint256"}],"stateMutability":"view"},{"type":"function","name":"liquidationNotifier","inputs":[],"outputs":[{"name":"","type":"address","internalType":"address"}],"stateMutability":"view"},{"type":"function","name":"maxConfiguredLiquidationThresholdBps","inputs":[],"outputs":[{"name":"","type":"uint256","internalType":"uint256"}],"stateMutability":"view"},{"type":"function","name":"maxConfiguredLtvBps","inputs":[],"outputs":[{"name":"","type":"uint256","internalType":"uint256"}],"stateMutability":"view"},{"type":"function","name":"minBorrowAmount","inputs":[],"outputs":[{"name":"","type":"uint256","internalType":"uint256"}],"stateMutability":"view"},{"type":"function","name":"newDebtFrozen","inputs":[],"outputs":[{"name":"","type":"bool","internalType":"bool"}],"stateMutability":"view"},{"type":"function","name":"oracle","inputs":[],"outputs":[{"name":"","type":"address","internalType":"contract ManualOracle"}],"stateMutability":"view"},{"type":"function","name":"pause","inputs":[],"outputs":[],"stateMutability":"nonpayable"},{"type":"function","name":"paused","inputs":[],"outputs":[{"name":"","type":"bool","internalType":"bool"}],"stateMutability":"view"},{"type":"function","name":"positions","inputs":[{"name":"","type":"address","internalType":"address"}],"outputs":[{"name":"collateralAmount","type":"uint256","internalType":"uint256"},{"name":"principalDebt","type":"uint256","internalType":"uint256"},{"name":"accruedInterest","type":"uint256","internalType":"uint256"},{"name":"borrowRateBps","type":"uint256","internalType":"uint256"},{"name":"lastAccruedAt","type":"uint256","internalType":"uint256"}],"stateMutability":"view"},{"type":"function","name":"previewBorrow","inputs":[{"name":"borrower","type":"address","internalType":"address"},{"name":"additionalDebt","type":"uint256","internalType":"uint256"}],"outputs":[{"name":"quote","type":"tuple","internalType":"struct IRiskEngine.QuoteOutput","components":[{"name":"borrowRateBps","type":"uint256","internalType":"uint256"},{"name":"maxLtvBps","type":"uint256","internalType":"uint256"},{"name":"liquidationThresholdBps","type":"uint256","internalType":"uint256"}]},{"name":"projectedDebt","type":"uint256","internalType":"uint256"},{"name":"projectedHealthFactor","type":"uint256","internalType":"uint256"}],"stateMutability":"view"},{"type":"function","name":"projectedBorrowQuoteInput","inputs":[{"name":"borrower","type":"address","internalType":"address"},{"name":"additionalDebt","type":"uint256","internalType":"uint256"}],"outputs":[{"name":"","type":"tuple","internalType":"struct IRiskEngine.QuoteInput","components":[{"name":"utilizationBps","type":"uint256","internalType":"uint256"},{"name":"collateralRatioBps","type":"uint256","internalType":"uint256"},{"name":"oracleAgeSeconds","type":"uint256","internalType":"uint256"},{"name":"oracleFresh","type":"bool","internalType":"bool"},{"name":"policyMaxLtvBps","type":"uint256","internalType":"uint256"},{"name":"policyLiqThresholdBps","type":"uint256","internalType":"uint256"},{"name":"policyBorrowRateFloorBps","type":"uint256","internalType":"uint256"}]}],"stateMutability":"view"},{"type":"function","name":"publishCurrentQuoteTicket","inputs":[{"name":"borrower","type":"address","internalType":"address"}],"outputs":[{"name":"ticketId","type":"bytes32","internalType":"bytes32"}],"stateMutability":"nonpayable"},{"type":"function","name":"publishProjectedBorrowQuoteTicket","inputs":[{"name":"borrower","type":"address","internalType":"address"},{"name":"additionalDebt","type":"uint256","internalType":"uint256"}],"outputs":[{"name":"ticketId","type":"bytes32","internalType":"bytes32"}],"stateMutability":"nonpayable"},{"type":"function","name":"repay","inputs":[{"name":"amount","type":"uint256","internalType":"uint256"}],"outputs":[],"stateMutability":"nonpayable"},{"type":"function","name":"reserveFactorBps","inputs":[],"outputs":[{"name":"","type":"uint256","internalType":"uint256"}],"stateMutability":"view"},{"type":"function","name":"riskEngine","inputs":[],"outputs":[{"name":"","type":"address","internalType":"contract IRiskAdapter"}],"stateMutability":"view"},{"type":"function","name":"setAuthority","inputs":[{"name":"newAuthority","type":"address","internalType":"address"}],"outputs":[],"stateMutability":"nonpayable"},{"type":"function","name":"unpause","inputs":[],"outputs":[],"stateMutability":"nonpayable"},{"type":"function","name":"withdrawCollateral","inputs":[{"name":"amount","type":"uint256","internalType":"uint256"}],"outputs":[],"stateMutability":"nonpayable"},{"type":"event","name":"AuthorityUpdated","inputs":[{"name":"authority","type":"address","indexed":false,"internalType":"address"}],"anonymous":false},{"type":"event","name":"BadDebtRealized","inputs":[{"name":"borrower","type":"address","indexed":true,"internalType":"address"},{"name":"amount","type":"uint256","indexed":false,"internalType":"uint256"}],"anonymous":false},{"type":"event","name":"Borrowed","inputs":[{"name":"account","type":"address","indexed":true,"internalType":"address"},{"name":"amount","type":"uint256","indexed":false,"internalType":"uint256"},{"name":"borrowRateBps","type":"uint256","indexed":false,"internalType":"uint256"},{"name":"correlationId","type":"bytes32","indexed":true,"internalType":"bytes32"}],"anonymous":false},{"type":"event","name":"CollateralDeposited","inputs":[{"name":"account","type":"address","indexed":true,"internalType":"address"},{"name":"amount","type":"uint256","indexed":false,"internalType":"uint256"},{"name":"correlationId","type":"bytes32","indexed":true,"internalType":"bytes32"}],"anonymous":false},{"type":"event","name":"CollateralWithdrawn","inputs":[{"name":"account","type":"address","indexed":true,"internalType":"address"},{"name":"amount","type":"uint256","indexed":false,"internalType":"uint256"},{"name":"correlationId","type":"bytes32","indexed":true,"internalType":"bytes32"}],"anonymous":false},{"type":"event","name":"Liquidated","inputs":[{"name":"borrower","type":"address","indexed":true,"internalType":"address"},{"name":"liquidator","type":"address","indexed":true,"internalType":"address"},{"name":"repaid","type":"uint256","indexed":false,"internalType":"uint256"},{"name":"collateralSeized","type":"uint256","indexed":false,"internalType":"uint256"},{"name":"badDebtWrittenOff","type":"uint256","indexed":false,"internalType":"uint256"},{"name":"correlationId","type":"bytes32","indexed":true,"internalType":"bytes32"}],"anonymous":false},{"type":"event","name":"NewDebtFrozen","inputs":[],"anonymous":false},{"type":"event","name":"Paused","inputs":[{"name":"account","type":"address","indexed":false,"internalType":"address"}],"anonymous":false},{"type":"event","name":"PositionMigratedIn","inputs":[{"name":"borrower","type":"address","indexed":true,"internalType":"address"},{"name":"coordinator","type":"address","indexed":true,"internalType":"address"},{"name":"collateralAmount","type":"uint256","indexed":false,"internalType":"uint256"},{"name":"principalDebt","type":"uint256","indexed":false,"internalType":"uint256"},{"name":"accruedInterest","type":"uint256","indexed":false,"internalType":"uint256"}],"anonymous":false},{"type":"event","name":"PositionMigratedOut","inputs":[{"name":"borrower","type":"address","indexed":true,"internalType":"address"},{"name":"coordinator","type":"address","indexed":true,"internalType":"address"},{"name":"collateralAmount","type":"uint256","indexed":false,"internalType":"uint256"},{"name":"principalDebt","type":"uint256","indexed":false,"internalType":"uint256"},{"name":"accruedInterest","type":"uint256","indexed":false,"internalType":"uint256"}],"anonymous":false},{"type":"event","name":"Repaid","inputs":[{"name":"account","type":"address","indexed":true,"internalType":"address"},{"name":"amount","type":"uint256","indexed":false,"internalType":"uint256"},{"name":"principalPaid","type":"uint256","indexed":false,"internalType":"uint256"},{"name":"interestPaid","type":"uint256","indexed":false,"internalType":"uint256"},{"name":"correlationId","type":"bytes32","indexed":true,"internalType":"bytes32"}],"anonymous":false},{"type":"event","name":"Unpaused","inputs":[{"name":"account","type":"address","indexed":false,"internalType":"address"}],"anonymous":false},{"type":"error","name":"AccessManagedInvalidAuthority","inputs":[{"name":"authority","type":"address","internalType":"address"}]},{"type":"error","name":"AccessManagedRequiredDelay","inputs":[{"name":"caller","type":"address","internalType":"address"},{"name":"delay","type":"uint32","internalType":"uint32"}]},{"type":"error","name":"AccessManagedUnauthorized","inputs":[{"name":"caller","type":"address","internalType":"address"}]},{"type":"error","name":"ArrayLengthMismatch","inputs":[]},{"type":"error","name":"BatchLiquidationFailed","inputs":[{"name":"index","type":"uint256","internalType":"uint256"},{"name":"reason","type":"bytes","internalType":"bytes"}]},{"type":"error","name":"BorrowCapExceeded","inputs":[{"name":"attempted","type":"uint256","internalType":"uint256"},{"name":"cap","type":"uint256","internalType":"uint256"}]},{"type":"error","name":"DebtBelowMinimum","inputs":[{"name":"debt","type":"uint256","internalType":"uint256"},{"name":"minBorrowAmount","type":"uint256","internalType":"uint256"}]},{"type":"error","name":"EnforcedPause","inputs":[]},{"type":"error","name":"ExistingPosition","inputs":[]},{"type":"error","name":"ExpectedPause","inputs":[]},{"type":"error","name":"InsufficientCollateral","inputs":[]},{"type":"error","name":"InvalidConfiguration","inputs":[]},{"type":"error","name":"InvalidLiquidationAmount","inputs":[]},{"type":"error","name":"NewDebtDisabled","inputs":[]},{"type":"error","name":"NoDebt","inputs":[]},{"type":"error","name":"NoPosition","inputs":[]},{"type":"error","name":"PositionHealthy","inputs":[{"name":"healthFactorWad","type":"uint256","internalType":"uint256"}]},{"type":"error","name":"ReentrancyGuardReentrantCall","inputs":[]},{"type":"error","name":"SafeERC20FailedOperation","inputs":[{"name":"token","type":"address","internalType":"address"}]},{"type":"error","name":"ZeroAmount","inputs":[]}],"bytecode":{"object":"0x610220604052348015610010575f5ffd5b506040516148a33803806148a383398101604081905261002f916102e6565b876100398161026c565b5060017f9b779b17422d0df92223018b32b4d1fa46e071723d6817e2486d003becc55f00556001600160a01b038816158061007b57506001600160a01b038716155b8061008d57506001600160a01b038616155b8061009f57506001600160a01b038516155b806100b157506001600160a01b038416155b806100c357506001600160a01b038316155b156100e15760405163c52a9bd360e01b815260040160405180910390fd5b856001600160a01b0316856001600160a01b03166338d52e0f6040518163ffffffff1660e01b8152600401602060405180830381865afa158015610127573d5f5f3e3d5ffd5b505050506040513d601f19601f8201168201806040525081019061014b9190610400565b6001600160a01b0316146101725760405163c52a9bd360e01b815260040160405180910390fd5b8151158061018257506020820151155b8061019257506127108260400151115b8061019f57506060820151155b806101b05750612710826060015110155b806101c357508160600151826080015111155b806101d357506127108260800151115b806101e357506127108260a00151115b156102015760405163c52a9bd360e01b815260040160405180910390fd5b6001600160a01b03968716608090815295871660a090815294871660c05292861660e05290851661010052805161012052602081015161014052604081015161016052606081015161018052928301516101a0529101516101c052306101e052166102005250610422565b5f80546001600160a01b0319166001600160a01b0383169081179091556040519081527f2f658b440c35314f52658ea8a740e05b284cdc84dc9ae01e891f21b8933e7cad9060200160405180910390a150565b6001600160a01b03811681146102d3575f5ffd5b50565b80516102e1816102bf565b919050565b5f5f5f5f5f5f5f5f888a036101a08112156102ff575f5ffd5b895161030a816102bf565b60208b015190995061031b816102bf565b60408b015190985061032c816102bf565b60608b015190975061033d816102bf565b60808b015190965061034e816102bf565b60a08b015190955061035f816102bf565b935060c060bf1982011215610372575f5ffd5b5060405160c081016001600160401b03811182821017156103a157634e487b7160e01b5f52604160045260245ffd5b604090815260c08b0151825260e08b015160208301526101008b0151908201526101208a015160608201526101408a015160808201526101608a015160a082015291506103f16101808a016102d6565b90509295985092959890939650565b5f60208284031215610410575f5ffd5b815161041b816102bf565b9392505050565b60805160a05160c05160e05161010051610120516101405161016051610180516101a0516101c0516101e051610200516142116106925f395f81816104db0152818161354401526135a501525f818161036f015261221501525f81816102ab015281816111b80152818161307401526130f301525f818161050a01528181611192015281816137d601526137fd01525f81816106570152818161116c01528181612d820152612da901525f81816106ef01528181610eeb01528181611146015261321201525f81816102840152818161111e0152818161366801526136a501525f81816103c4015281816110f801528181612532015261256e01525f81816105780152818161076e015281816107fe0152818161120e01528181611ac101528181611b5101528181612c540152612d1201525f81816104b4015281816111e6015281816113f6015281816116a0015281816121900152818161223b0152818161237a01528181612a9e01528181612b2001528181612ba201528181612ee001526136d401525f81816102fa015281816109ad01528181610c8101528181610e5101528181610f1101528181610fe40152818161134f015281816114a00152818161174a015281816118f501528181611c7101528181611da301528181611f88015281816120a10152818161241f015281816125fe0152818161278a01528181612f8a01528181613178015281816132380152818161332c0152818161343e015261396901525f818161060901528181610e2e015261315501525f81816106300152818161090801528181611303015281816117fc01528181611edb0152818161281e01526132be01526142115ff3fe608060405234801561000f575f5ffd5b5060043610610255575f3560e01c806380c8732411610140578063a919802d116100bf578063bcbaf48711610084578063bcbaf4871461069f578063bf7e214f146106b2578063c0d3626d146106c2578063c5ebeaec146106d7578063c87bed70146106ea578063d90ebf5314610711575f5ffd5b8063a919802d14610604578063aabaecd61461062b578063af11014f14610652578063bad4a01f14610679578063bc1ffd971461068c575f5ffd5b8063912a70f211610105578063912a70f21461056057806392b888ae14610573578063931da1521461059a578063a2054b6c146105dc578063a83081f0146105fc575f5ffd5b806380c87324146104d65780638456cb59146104fd578063850eeda614610505578063884719f21461052c5780638fb360371461053f575f5ffd5b80633e95c060116101d75780635c975abb1161019c5780635c975abb1461045257806360453af3146104635780636112fe2e146104765780636ad9f9df146104895780637a9e5e4b1461049c5780637dc0d1d0146104af575f5ffd5b80633e95c060146103a45780633f4ba83a146103b757806344d9dca6146103bf57806355b0fa02146103e657806355f57510146103ee575f5ffd5b80631ffe16671161021d5780631ffe1667146102f55780632c38199e146103345780632f5a486314610347578063323229701461036a578063371fd8e614610391575f5ffd5b806307db3855146102595780630a5db8a81461027f57806319970d8e146102a65780631b0cef43146102cd5780631c1c4c44146102e2575b5f5ffd5b61026c610267366004613d54565b610731565b6040519081526020015b60405180910390f35b61026c7f000000000000000000000000000000000000000000000000000000000000000081565b61026c7f000000000000000000000000000000000000000000000000000000000000000081565b6102e06102db366004613d54565b61087e565b005b6102e06102f0366004613dc4565b610ab5565b61031c7f000000000000000000000000000000000000000000000000000000000000000081565b6040516001600160a01b039091168152602001610276565b61026c610342366004613e30565b610c12565b5f5461035a90600160b01b900460ff1681565b6040519015158152602001610276565b61026c7f000000000000000000000000000000000000000000000000000000000000000081565b6102e061039f366004613e49565b610d90565b6102e06103b2366004613e60565b6110af565b6102e06110df565b61026c7f000000000000000000000000000000000000000000000000000000000000000081565b61026c6110f2565b61042a6103fc366004613e30565b600260208190525f918252604090912080546001820154928201546003830154600490930154919392909185565b604080519586526020860194909452928401919091526060830152608082015260a001610276565b5f54600160a81b900460ff1661035a565b6102e0610471366004613e9a565b611256565b6102e0610484366004613e49565b6115f2565b61026c610497366004613e30565b611874565b6102e06104aa366004613e30565b6119b9565b61031c7f000000000000000000000000000000000000000000000000000000000000000081565b61031c7f000000000000000000000000000000000000000000000000000000000000000081565b6102e0611a2d565b61026c7f000000000000000000000000000000000000000000000000000000000000000081565b61026c61053a366004613e30565b611a3e565b610547611a64565b6040516001600160e01b03199091168152602001610276565b61026c61056e366004613e30565b611a88565b61031c7f000000000000000000000000000000000000000000000000000000000000000081565b6105ad6105a8366004613d54565b611bd0565b60408051845181526020808601519082015293810151908401526060830191909152608082015260a001610276565b6105ef6105ea366004613e30565b611d4c565b6040516102769190613f1c565b6102e0611e47565b61031c7f000000000000000000000000000000000000000000000000000000000000000081565b61031c7f000000000000000000000000000000000000000000000000000000000000000081565b61026c7f000000000000000000000000000000000000000000000000000000000000000081565b6102e0610687366004613e49565b611e8b565b6105ef61069a366004613d54565b61203e565b6102e06106ad366004613d54565b612134565b5f546001600160a01b031661031c565b6106ca61215c565b6040516102769190613f2a565b6102e06106e5366004613e49565b6122cd565b61026c7f000000000000000000000000000000000000000000000000000000000000000081565b61072461071f366004613e30565b6126bc565b6040516102769190613f55565b5f61073e335b5f366128b9565b5f610749848461203e565b90505f61075461215c565b604051637d9eec5760e11b81529091506001600160a01b037f0000000000000000000000000000000000000000000000000000000000000000169063fb3dd8ae906107a59084908690600401613f76565b602060405180830381865afa1580156107c0573d5f5f3e3d5ffd5b505050506040513d601f19601f820116820180604052508101906107e49190613faa565b60405163109e436760e01b81529093506001600160a01b037f0000000000000000000000000000000000000000000000000000000000000000169063109e4367906108359084908690600401613f76565b6060604051808303815f875af1158015610851573d5f5f3e3d5ffd5b505050506040513d601f19601f820116820180604052508101906108759190613fc1565b50505092915050565b61088733610737565b61088f6129af565b6108976129ca565b805f036108b757604051631f2a200560e01b815260040160405180910390fd5b6001600160a01b0382166108de5760405163c52a9bd360e01b815260040160405180910390fd5b5f6108e76129f4565b6001600160a01b038085165f908152600260205260409020919250610930907f000000000000000000000000000000000000000000000000000000000000000016333086612a3b565b82815f015f828254610942919061403a565b909155505060048101545f03610959574260048201555b5f61096382612a71565b90508015610a54575f5f5f610976612a99565b92509250925081801561098857508215155b15610a50575f610a486040518060c00160405280885f015481526020018781526020017f00000000000000000000000000000000000000000000000000000000000000006001600160a01b03166329b1829e6040518163ffffffff1660e01b8152600401602060405180830381865afa158015610a07573d5f5f3e3d5ffd5b505050506040513d601f19601f82011682018060405250810190610a2b9190613faa565b815260200186815260200184815260200160011515815250612c31565b516003870155505b5050505b82856001600160a01b03167f3b04f593fa2fe63bcf8f1edd464dfd21124f3a53a11aecb27fcef01e129a0e2a86604051610a9091815260200190565b60405180910390a3505050610ab160015f5160206141bc5f395f51905f5255565b5050565b610abd6129af565b610ac56129ca565b828114610ae55760405163512509d360e11b815260040160405180910390fd5b5f5b83811015610bf55730633e95c06033878785818110610b0857610b0861404d565b9050602002016020810190610b1d9190613e30565b868686818110610b2f57610b2f61404d565b6040516001600160e01b031960e088901b1681526001600160a01b039586166004820152949093166024850152506020909102013560448201526064015f604051808303815f87803b158015610b83575f5ffd5b505af1925050508015610b94575060015b610bed573d808015610bc1576040519150601f19603f3d011682016040523d82523d5f602084013e610bc6565b606091505b5081816040516340bad83f60e01b8152600401610be4929190614061565b60405180910390fd5b600101610ae7565b50610c0c60015f5160206141bc5f395f51905f5255565b50505050565b6001600160a01b0381165f908152600260205260408120818080610c34612a99565b925092509250811580610c45575082155b15610c5557505f95945050505050565b5f610c5f85612a71565b90505f610d1c6040518060c00160405280885f015481526020018481526020017f00000000000000000000000000000000000000000000000000000000000000006001600160a01b03166329b1829e6040518163ffffffff1660e01b8152600401602060405180830381865afa158015610cdb573d5f5f3e3d5ffd5b505050506040513d601f19601f82011682018060405250810190610cff9190613faa565b815260200187815260200185815260200160011515815250612cef565b90505f610d2c8260200151612d7f565b9050805f03610d4357505f98975050505050505050565b5f61271082610d558a5f01548a612dd1565b610d5f919061409d565b610d6991906140b4565b9050838111610d78575f610d82565b610d8284826140d3565b9a9950505050505050505050565b610d986129af565b805f03610db857604051631f2a200560e01b815260040160405180910390fd5b5f610dc16129f4565b335f818152600260205260409020919250610ddb90611a3e565b5f03610dfa576040516308d1fde360e11b815260040160405180910390fd5b610e0381612df6565b5f610e0d82612a71565b90505f818510610e1d5781610e1f565b845b9050610e766001600160a01b037f000000000000000000000000000000000000000000000000000000000000000016337f000000000000000000000000000000000000000000000000000000000000000084612a3b565b5f83600201548210610e8c578360020154610e8e565b815b905080846002015f828254610ea391906140d3565b909155505f9050610eb482846140d3565b905080856001015f828254610ec991906140d3565b9091555050604051635ca9cf2760e01b815260048101829052602481018390527f000000000000000000000000000000000000000000000000000000000000000060448201527f00000000000000000000000000000000000000000000000000000000000000006001600160a01b031690635ca9cf27906064015f604051808303815f87803b158015610f5a575f5ffd5b505af1158015610f6c573d5f5f3e3d5ffd5b505050505f610f7a86612a71565b9050805f03610fa2575f6001870181905560028701819055600387015542600487015561104a565b5f5f5f610fad612a99565b925092509250818015610fbf57508215155b15611046575f61103e6040518060c001604052808c5f015481526020018781526020017f00000000000000000000000000000000000000000000000000000000000000006001600160a01b03166329b1829e6040518163ffffffff1660e01b8152600401602060405180830381865afa158015610a07573d5f5f3e3d5ffd5b5160038b0155505b5050505b6040805185815260208101849052908101849052879033907f15581e81f1c12ce928d4fbc2b057f765c78c112eb18b4e7f73004078c055829a9060600160405180910390a3505050505050506110ac60015f5160206141bc5f395f51905f5255565b50565b3330146110cf5760405163c52a9bd360e01b815260040160405180910390fd5b6110da838383612e5a565b505050565b6110e833610737565b6110f0613608565b565b604080517f000000000000000000000000000000000000000000000000000000000000000060208201527f0000000000000000000000000000000000000000000000000000000000000000918101919091527f000000000000000000000000000000000000000000000000000000000000000060608201527f000000000000000000000000000000000000000000000000000000000000000060808201527f000000000000000000000000000000000000000000000000000000000000000060a08201527f000000000000000000000000000000000000000000000000000000000000000060c08201526001600160a01b037f0000000000000000000000000000000000000000000000000000000000000000811660e08301527f0000000000000000000000000000000000000000000000000000000000000000166101008201525f90610120015b60405160208183030381529060405280519060200120905090565b61125f33610737565b6112676129af565b6001600160a01b0382165f9081526002602052604090208054151580611294575061129181612a71565b15155b156112b25760405163823fbd3160e01b815260040160405180910390fd5b81351580156112c357506020820135155b80156112d157506040820135155b156112ef57604051632afc3c0d60e21b815260040160405180910390fd5b81351561132c5761132c6001600160a01b037f00000000000000000000000000000000000000000000000000000000000000001633308535612a3b565b6020820135156113af576040516314a722ab60e21b8152602083013560048201527f00000000000000000000000000000000000000000000000000000000000000006001600160a01b03169063529c8aac906024015f604051808303815f87803b158015611398575f5ffd5b505af11580156113aa573d5f5f3e3d5ffd5b505050505b8135815560208201356001820155604082013560028201554260048201555f6113d782612a71565b90508015611587576113e88161365c565b5f6113f16136d1565b90505f7f00000000000000000000000000000000000000000000000000000000000000006001600160a01b03166354aea1276040518163ffffffff1660e01b8152600401602060405180830381865afa158015611450573d5f5f3e3d5ffd5b505050506040513d601f19601f820116820180604052508101906114749190613faa565b61147e90426140d3565b90505f61153b6040518060c00160405280875f015481526020018681526020017f00000000000000000000000000000000000000000000000000000000000000006001600160a01b03166329b1829e6040518163ffffffff1660e01b8152600401602060405180830381865afa1580156114fa573d5f5f3e3d5ffd5b505050506040513d601f19601f8201168201806040525081019061151e9190613faa565b815260200185815260200184815260200160011515815250612c31565b90505f61154b8260200151612d7f565b9050805f0361156d5760405163c52a9bd360e01b815260040160405180910390fd5b81516003870155855461158290868684613752565b505050505b6040805184358152602080860135908201528482013581830152905133916001600160a01b038716917f4ec8e47aae691949002381c8cf35018568b63e155c5db86ad527cd8c7e39b2869181900360600190a35050610ab160015f5160206141bc5f395f51905f5255565b6115fa6129af565b6116026129ca565b805f0361162257604051631f2a200560e01b815260040160405180910390fd5b5f61162b6129f4565b335f90815260026020526040902080549192509083111561165f57604051633a23d82560e01b815260040160405180910390fd5b61166881612df6565b82815f015f82825461167a91906140d3565b909155505f90506116896136d1565b90505f61169583612a71565b905080156117ef575f7f00000000000000000000000000000000000000000000000000000000000000006001600160a01b03166354aea1276040518163ffffffff1660e01b8152600401602060405180830381865afa1580156116fa573d5f5f3e3d5ffd5b505050506040513d601f19601f8201168201806040525081019061171e9190613faa565b61172890426140d3565b90505f6117a46040518060c00160405280875f015481526020018581526020017f00000000000000000000000000000000000000000000000000000000000000006001600160a01b03166329b1829e6040518163ffffffff1660e01b8152600401602060405180830381865afa158015610a07573d5f5f3e3d5ffd5b90505f6117b48260200151612d7f565b9050805f036117d65760405163c52a9bd360e01b815260040160405180910390fd5b8151600387015585546117eb90858784613752565b5050505b6118236001600160a01b037f000000000000000000000000000000000000000000000000000000000000000016338761379e565b604051858152849033907fb4947f702373abd590a094d60c3dd9b09df5bba7d72d2e9f9d1e860f5815a3ab9060200160405180910390a3505050506110ac60015f5160206141bc5f395f51905f5255565b6001600160a01b0381165f9081526002602052604081208161189582612a71565b9050805f036118a857505f199392505050565b5f5f5f6118b3612a99565b9250925092508115806118c4575082155b156118d557505f9695505050505050565b5f6119906040518060c00160405280885f015481526020018781526020017f00000000000000000000000000000000000000000000000000000000000000006001600160a01b03166329b1829e6040518163ffffffff1660e01b8152600401602060405180830381865afa15801561194f573d5f5f3e3d5ffd5b505050506040513d601f19601f820116820180604052508101906119739190613faa565b815260200186815260200184815260200160011515815250612cef565b90506119ad865f015486866119a885604001516137d3565b613821565b98975050505050505050565b5f5433906001600160a01b031681146119ef5760405162d1953b60e31b81526001600160a01b0382166004820152602401610be4565b816001600160a01b03163b5f03611a24576040516361798f2f60e11b81526001600160a01b0383166004820152602401610be4565b610ab18261387d565b611a3633610737565b6110f06138d0565b6001600160a01b0381165f908152600260205260408120611a5e90612a71565b92915050565b5f8054600160a01b900460ff16611a7a57505f90565b638fb3603760e01b5b905090565b5f611a9233610737565b5f611a9c83611d4c565b90505f611aa761215c565b604051637d9eec5760e11b81529091506001600160a01b037f0000000000000000000000000000000000000000000000000000000000000000169063fb3dd8ae90611af89084908690600401613f76565b602060405180830381865afa158015611b13573d5f5f3e3d5ffd5b505050506040513d601f19601f82011682018060405250810190611b379190613faa565b60405163109e436760e01b81529093506001600160a01b037f0000000000000000000000000000000000000000000000000000000000000000169063109e436790611b889084908690600401613f76565b6060604051808303815f875af1158015611ba4573d5f5f3e3d5ffd5b505050506040513d601f19601f82011682018060405250810190611bc89190613fc1565b505050919050565b611bf160405180606001604052805f81526020015f81526020015f81525090565b6001600160a01b0383165f9081526002602052604081208190818080611c15612a99565b925092509250811580611c26575082155b15611c3b57505f9450849350611d4592505050565b87611c4585612a71565b611c4f919061403a565b9550611d166040518060c00160405280865f015481526020018881526020018a7f00000000000000000000000000000000000000000000000000000000000000006001600160a01b03166329b1829e6040518163ffffffff1660e01b8152600401602060405180830381865afa158015611ccb573d5f5f3e3d5ffd5b505050506040513d601f19601f82011682018060405250810190611cef9190613faa565b611cf9919061403a565b815260200185815260200183815260200160011515815250612cef565b96505f611d2688604001516137d3565b90508015611d3f578454611d3c90888684613821565b95505b50505050505b9250925092565b611d54613d06565b6001600160a01b0382165f908152600260205260408120908080611d76612a99565b925092509250611e3d6040518060c00160405280865f01548152602001611d9c87612a71565b81526020017f00000000000000000000000000000000000000000000000000000000000000006001600160a01b03166329b1829e6040518163ffffffff1660e01b8152600401602060405180830381865afa158015611dfd573d5f5f3e3d5ffd5b505050506040513d601f19601f82011682018060405250810190611e219190613faa565b8152602001858152602001838152602001841515815250613912565b9695505050505050565b611e5033610737565b5f805460ff60b01b1916600160b01b1781556040517f68be81811676eef5aa3f75efce5a31614fc576af3288a489e310b6d3e854ea4e9190a1565b611e936129af565b611e9b6129ca565b805f03611ebb57604051631f2a200560e01b815260040160405180910390fd5b5f611ec46129f4565b335f818152600260205260409020919250611f0b907f00000000000000000000000000000000000000000000000000000000000000006001600160a01b0316903086612a3b565b82815f015f828254611f1d919061403a565b909155505060048101545f03611f34574260048201555b5f611f3e82612a71565b90508015611fee575f5f5f611f51612a99565b925092509250818015611f6357508215155b15611fea575f611fe26040518060c00160405280885f015481526020018781526020017f00000000000000000000000000000000000000000000000000000000000000006001600160a01b03166329b1829e6040518163ffffffff1660e01b8152600401602060405180830381865afa158015610a07573d5f5f3e3d5ffd5b516003870155505b5050505b604051848152839033907f3b04f593fa2fe63bcf8f1edd464dfd21124f3a53a11aecb27fcef01e129a0e2a9060200160405180910390a35050506110ac60015f5160206141bc5f395f51905f5255565b612046613d06565b6001600160a01b0383165f908152600260205260408120908080612068612a99565b9250925092506121296040518060c00160405280865f015481526020018861208f88612a71565b612099919061403a565b8152602001887f00000000000000000000000000000000000000000000000000000000000000006001600160a01b03166329b1829e6040518163ffffffff1660e01b8152600401602060405180830381865afa1580156120fb573d5f5f3e3d5ffd5b505050506040513d601f19601f8201168201806040525081019061211f9190613faa565b611e21919061403a565b979650505050505050565b61213c6129af565b6121468282613a7e565b610ab160015f5160206141bc5f395f51905f5255565b61218360405180608001604052805f81526020015f81526020015f81526020015f81525090565b60405180608001604052807f00000000000000000000000000000000000000000000000000000000000000006001600160a01b031663ba65ff286040518163ffffffff1660e01b8152600401602060405180830381865afa1580156121ea573d5f5f3e3d5ffd5b505050506040513d601f19601f8201168201806040525081019061220e9190613faa565b81526020017f000000000000000000000000000000000000000000000000000000000000000081526020017f00000000000000000000000000000000000000000000000000000000000000006001600160a01b031663b4d8c0b36040518163ffffffff1660e01b8152600401602060405180830381865afa158015612295573d5f5f3e3d5ffd5b505050506040513d601f19601f820116820180604052508101906122b99190613faa565b81526020016122c66110f2565b9052919050565b6122d56129af565b6122dd6129ca565b805f036122fd57604051631f2a200560e01b815260040160405180910390fd5b5f54600160b01b900460ff161561232757604051630b77882b60e11b815260040160405180910390fd5b5f6123306129f4565b335f908152600260205260408120805492935091900361236357604051633a23d82560e01b815260040160405180910390fd5b61236c81612df6565b5f6123756136d1565b90505f7f00000000000000000000000000000000000000000000000000000000000000006001600160a01b03166354aea1276040518163ffffffff1660e01b8152600401602060405180830381865afa1580156123d4573d5f5f3e3d5ffd5b505050506040513d601f19601f820116820180604052508101906123f89190613faa565b61240290426140d3565b90505f8561240f85612a71565b612419919061403a565b90505f867f00000000000000000000000000000000000000000000000000000000000000006001600160a01b03166329b1829e6040518163ffffffff1660e01b8152600401602060405180830381865afa158015612479573d5f5f3e3d5ffd5b505050506040513d601f19601f8201168201806040525081019061249d9190613faa565b6124a7919061403a565b90505f6124e56040518060c00160405280885f0154815260200185815260200184815260200187815260200186815260200160011515815250612c31565b90505f6124f58260200151612d7f565b90505f61250583604001516137d3565b9050811580612512575080155b156125305760405163c52a9bd360e01b815260040160405180910390fd5b7f000000000000000000000000000000000000000000000000000000000000000084111561259a576040516331198c6560e21b8152600481018590527f00000000000000000000000000000000000000000000000000000000000000006024820152604401610be4565b6125a38561365c565b89886001015f8282546125b6919061403a565b90915550508251600389015560048801545f036125d4574260048901555b87546125e290868985613752565b6040516308f61bed60e21b8152336004820152602481018b90527f00000000000000000000000000000000000000000000000000000000000000006001600160a01b0316906323d86fb4906044015f604051808303815f87803b158015612647575f5ffd5b505af1158015612659573d5f5f3e3d5ffd5b50508451604080518e815260208101929092528c93503392507fe76ef10dcf3c8c75e95375a4727fa360bad4d3ab1d0a60ec501c487a98d7784a910160405180910390a35050505050505050506110ac60015f5160206141bc5f395f51905f5255565b6126dd60405180606001604052805f81526020015f81526020015f81525090565b6126e633610737565b6126ee6129af565b6001600160a01b0382165f90815260026020526040902061270e81612df6565b8054158015612723575061272181612a71565b155b1561274157604051632afc3c0d60e21b815260040160405180910390fd5b60408051606081018252825481526001830154602082018190526002840154928201929092529250156127ea576020820151604051635e15420160e01b815260048101919091527f00000000000000000000000000000000000000000000000000000000000000006001600160a01b031690635e154201906024015f604051808303815f87803b1580156127d3575f5ffd5b505af11580156127e5573d5f5f3e3d5ffd5b505050505b5f80825560018201819055600282018190556003820155426004820155815115612846578151612846906001600160a01b037f00000000000000000000000000000000000000000000000000000000000000001690339061379e565b815160208084015160408086015181519485529284019190915282015233906001600160a01b038516907fad844839fecbd3ceb4326eafca8e77c8be094426e81918b95d53f60b590c57339060600160405180910390a3506128b460015f5160206141bc5f395f51905f5255565b919050565b5f5f6128ec6128cf5f546001600160a01b031690565b86306128de60045f898b6140e6565b6128e79161410d565b613a89565b91509150816129a85763ffffffff811615612985575f805460ff60a01b198116600160a01b17909155604051634a63ebf760e11b81526001600160a01b03909116906394c7d7ee9061294690889088908890600401614145565b5f604051808303815f87803b15801561295d575f5ffd5b505af115801561296f573d5f5f3e3d5ffd5b50505f805460ff60a01b19169055506129a89050565b60405162d1953b60e31b81526001600160a01b0386166004820152602401610be4565b5050505050565b6129b7613b1b565b60025f5160206141bc5f395f51905f5255565b5f54600160a81b900460ff16156110f05760405163d93c066560e01b815260040160405180910390fd5b5f46433360015f815480929190612a0a90614184565b909155506040805160208101959095528401929092526001600160a01b03166060830152608082015260a00161123b565b612a49848484846001613b4a565b610c0c57604051635274afe760e01b81526001600160a01b0385166004820152602401610be4565b5f612a7b82613bb7565b82600201548360010154612a8f919061403a565b611a5e919061403a565b5f5f5f7f00000000000000000000000000000000000000000000000000000000000000006001600160a01b031663bb47b68a6040518163ffffffff1660e01b8152600401602060405180830381865afa158015612af8573d5f5f3e3d5ffd5b505050506040513d601f19601f82011682018060405250810190612b1c9190613faa565b92507f00000000000000000000000000000000000000000000000000000000000000006001600160a01b0316636268ceaa6040518163ffffffff1660e01b8152600401602060405180830381865afa158015612b7a573d5f5f3e3d5ffd5b505050506040513d601f19601f82011682018060405250810190612b9e919061419c565b91507f00000000000000000000000000000000000000000000000000000000000000006001600160a01b03166354aea1276040518163ffffffff1660e01b8152600401602060405180830381865afa158015612bfc573d5f5f3e3d5ffd5b505050506040513d601f19601f82011682018060405250810190612c209190613faa565b612c2a90426140d3565b9050909192565b612c5260405180606001604052805f81526020015f81526020015f81525090565b7f00000000000000000000000000000000000000000000000000000000000000006001600160a01b031663109e4367612c8961215c565b612c9285613912565b6040518363ffffffff1660e01b8152600401612caf929190613f76565b6060604051808303815f875af1158015612ccb573d5f5f3e3d5ffd5b505050506040513d601f19601f82011682018060405250810190611a5e9190613fc1565b612d1060405180606001604052805f81526020015f81526020015f81525090565b7f00000000000000000000000000000000000000000000000000000000000000006001600160a01b031663e9d7b19a612d4884613912565b6040518263ffffffff1660e01b8152600401612d649190613f1c565b606060405180830381865afa158015612ccb573d5f5f3e3d5ffd5b5f7f00000000000000000000000000000000000000000000000000000000000000008210612dcd577f0000000000000000000000000000000000000000000000000000000000000000611a5e565b5090565b5f670de0b6b3a7640000612de5838561409d565b612def91906140b4565b9392505050565b5f612e0082613bb7565b90508015612e215780826002015f828254612e1b919061403a565b90915550505b81600401545f03612e36574260048301555050565b6001820154151580612e4b5750600282015415155b15610ab1574260048301555050565b805f03612e7a57604051631f2a200560e01b815260040160405180910390fd5b5f612e836129f4565b6001600160a01b0384165f908152600260205260409020909150612ea681612df6565b5f612eb082612a71565b9050805f03612ed2576040516308d1fde360e11b815260040160405180910390fd5b5f612edb6136d1565b90505f7f00000000000000000000000000000000000000000000000000000000000000006001600160a01b03166354aea1276040518163ffffffff1660e01b8152600401602060405180830381865afa158015612f3a573d5f5f3e3d5ffd5b505050506040513d601f19601f82011682018060405250810190612f5e9190613faa565b612f6890426140d3565b90505f612fe46040518060c00160405280875f015481526020018681526020017f00000000000000000000000000000000000000000000000000000000000000006001600160a01b03166329b1829e6040518163ffffffff1660e01b8152600401602060405180830381865afa1580156114fa573d5f5f3e3d5ffd5b90505f612ff482604001516137d3565b9050805f036130165760405163c52a9bd360e01b815260040160405180910390fd5b5f613026875f0154878785613821565b9050670de0b6b3a76400008110613053576040516301e11b9d60e11b815260048101829052602401610be4565b5050505f613064855f015484612dd1565b90505f6130b6886130b18761309b7f000000000000000000000000000000000000000000000000000000000000000061271061403a565b6130a76127108861409d565b6130b191906140b4565b613c66565b9050805f036130d857604051638bd79d6d60e01b815260040160405180910390fd5b5f6130e56127108661409d565b670de0b6b3a764000061311a7f000000000000000000000000000000000000000000000000000000000000000061271061403a565b613124908561409d565b61312e919061409d565b61313891906140b4565b8754909150811115613148575085545b61319d6001600160a01b037f0000000000000000000000000000000000000000000000000000000000000000168c7f000000000000000000000000000000000000000000000000000000000000000085612a3b565b5f876002015483106131b35787600201546131b5565b825b905080886002015f8282546131ca91906140d3565b909155505f90506131db82856140d3565b905080896001015f8282546131f091906140d3565b9091555050604051635ca9cf2760e01b815260048101829052602481018390527f000000000000000000000000000000000000000000000000000000000000000060448201527f00000000000000000000000000000000000000000000000000000000000000006001600160a01b031690635ca9cf27906064015f604051808303815f87803b158015613281575f5ffd5b505af1158015613293573d5f5f3e3d5ffd5b50505050505080875f015f8282546132ab91906140d3565b909155506132e590506001600160a01b037f0000000000000000000000000000000000000000000000000000000000000000168c8361379e565b5f5f6132f089612a71565b895490915015801561330157505f81115b156133ef5760018901549091508190801561338c576040516330113a1f60e11b8152600481018290527f00000000000000000000000000000000000000000000000000000000000000006001600160a01b031690636022743e906024015f604051808303815f87803b158015613375575f5ffd5b505af1158015613387573d5f5f3e3d5ffd5b505050505b5f60018b0181905560028b0181905560038b01554260048b01558c6001600160a01b03167f27a9c7b403b5c385a33cdba9789d8d52e54e7a50de6374d606964df0429cdf4e836040516133e191815260200190565b60405180910390a2506134e1565b805f03613415575f60018a0181905560028a0181905560038a01554260048a01556134e1565b61341e8161365c565b5f6134d96040518060c001604052808c5f015481526020018481526020017f00000000000000000000000000000000000000000000000000000000000000006001600160a01b03166329b1829e6040518163ffffffff1660e01b8152600401602060405180830381865afa158015613498573d5f5f3e3d5ffd5b505050506040513d601f19601f820116820180604052508101906134bc9190613faa565b81526020018a815260200189815260200160011515815250612c31565b5160038b0155505b898d6001600160a01b03168d6001600160a01b03167f8a2cbe81a0df58acce5b03fedb417d2b2054f504d8986a71a42ce10649b7155a87878760405161353a939291909283526020830191909152604082015260600190565b60405180910390a47f00000000000000000000000000000000000000000000000000000000000000006001600160a01b0316156135f957604051630ad890ab60e41b81526001600160a01b038d811660048301526024820186905260448201859052606482018c90527f0000000000000000000000000000000000000000000000000000000000000000169063ad890ab0906084015f604051808303815f87803b1580156135e6575f5ffd5b505af19250505080156135f7575060015b505b50505050505050505050505050565b613610613c7b565b5f805460ff60a81b191690557f5db9ee0a495bf2e6ff9c91a7834c1ba4fdd244a5e8aa4e537bd38aeae4b073aa335b6040516001600160a01b03909116815260200160405180910390a1565b801580159061368a57507f000000000000000000000000000000000000000000000000000000000000000081105b156110ac57604051639912ed2960e01b8152600481018290527f00000000000000000000000000000000000000000000000000000000000000006024820152604401610be4565b5f7f00000000000000000000000000000000000000000000000000000000000000006001600160a01b031663869ab8ac6040518163ffffffff1660e01b8152600401602060405180830381865afa15801561372e573d5f5f3e3d5ffd5b505050506040513d601f19601f82011682018060405250810190611a839190613faa565b8215610c0c575f612710826137678786612dd1565b613771919061409d565b61377b91906140b4565b9050808411156129a857604051633a23d82560e01b815260040160405180910390fd5b6137ab8383836001613ca4565b6110da57604051635274afe760e01b81526001600160a01b0384166004820152602401610be4565b5f7f00000000000000000000000000000000000000000000000000000000000000008210612dcd577f0000000000000000000000000000000000000000000000000000000000000000611a5e565b5f835f0361383157505f19613875565b5f61383c8685612dd1565b905061384a6127108661409d565b670de0b6b3a764000061385d858461409d565b613867919061409d565b61387191906140b4565b9150505b949350505050565b5f80546001600160a01b0319166001600160a01b0383169081179091556040519081527f2f658b440c35314f52658ea8a740e05b284cdc84dc9ae01e891f21b8933e7cad9060200160405180910390a150565b6138d86129ca565b5f805460ff60a81b1916600160a81b1790557f62e78cea01bee320cd4e420270b5ea74000d11b0c9f74754ebdbfc544b05a25861363f3390565b61391a613d06565b5f61392c835f01518460600151612dd1565b90505f83602001515f1461395a57602084015161394b6127108461409d565b61395591906140b4565b613964565b67ffffffffffffffff5b90505f7f00000000000000000000000000000000000000000000000000000000000000006001600160a01b03166301e1d1146040518163ffffffff1660e01b8152600401602060405180830381865afa1580156139c3573d5f5f3e3d5ffd5b505050506040513d601f19601f820116820180604052508101906139e79190613faa565b90505f8115613a1257816127108760400151613a03919061409d565b613a0d91906140b4565b613a14565b5f5b60a08701519091505f908015613a2f57506107088760800151115b15613a3957506107095b6040518060e001604052808381526020018581526020018281526020018860a00151151581526020015f81526020015f81526020015f81525095505050505050919050565b610ab1338383612e5a565b6040516001600160a01b038085166024830152831660448201526001600160e01b0319821660648201525f908190819060840160408051601f19818403018152918152602080830180516001600160e01b031663b700961360e01b1781525f808052918290528351939450919290918a5afa15613b11575f516020805191945081901c150291505b5094509492505050565b5f5160206141bc5f395f51905f52546002036110f057604051633ee5aeb560e01b815260040160405180910390fd5b6040516323b872dd60e01b5f8181526001600160a01b038781166004528616602452604485905291602083606481808c5af1925060015f51148316613ba6578383151615613b9a573d5f823e3d81fd5b5f883b113d1516831692505b604052505f60605295945050505050565b5f81600101545f148015613bcd57506002820154155b15613bd957505f919050565b60038201541580613bec57506004820154155b15613bf857505f919050565b5f826004015442613c0991906140d3565b9050805f03613c1a57505f92915050565b5f83600201548460010154613c2f919061403a565b9050613c416127106301e1338061409d565b82856003015483613c52919061409d565b613c5c919061409d565b61387591906140b4565b5f818310613c745781612def565b5090919050565b5f54600160a81b900460ff166110f057604051638dfc202b60e01b815260040160405180910390fd5b60405163a9059cbb60e01b5f8181526001600160a01b038616600452602485905291602083604481808b5af1925060015f51148316613cfa578383151615613cee573d5f823e3d81fd5b5f873b113d1516831692505b60405250949350505050565b6040518060e001604052805f81526020015f81526020015f81526020015f151581526020015f81526020015f81526020015f81525090565b80356001600160a01b03811681146128b4575f5ffd5b5f5f60408385031215613d65575f5ffd5b613d6e83613d3e565b946020939093013593505050565b5f5f83601f840112613d8c575f5ffd5b50813567ffffffffffffffff811115613da3575f5ffd5b6020830191508360208260051b8501011115613dbd575f5ffd5b9250929050565b5f5f5f5f60408587031215613dd7575f5ffd5b843567ffffffffffffffff811115613ded575f5ffd5b613df987828801613d7c565b909550935050602085013567ffffffffffffffff811115613e18575f5ffd5b613e2487828801613d7c565b95989497509550505050565b5f60208284031215613e40575f5ffd5b612def82613d3e565b5f60208284031215613e59575f5ffd5b5035919050565b5f5f5f60608486031215613e72575f5ffd5b613e7b84613d3e565b9250613e8960208501613d3e565b929592945050506040919091013590565b5f5f8284036080811215613eac575f5ffd5b613eb584613d3e565b92506060601f1982011215613ec8575f5ffd5b506020830190509250929050565b8051825260208101516020830152604081015160408301526060810151151560608301526080810151608083015260a081015160a083015260c081015160c08301525050565b60e08101611a5e8284613ed6565b8151815260208083015190820152604080830151908201526060808301519082015260808101611a5e565b81518152602080830151908201526040808301519082015260608101611a5e565b825181526020808401519082015260408084015190820152606080840151908201526101608101612def6080830184613ed6565b5f60208284031215613fba575f5ffd5b5051919050565b5f6060828403128015613fd2575f5ffd5b506040516060810167ffffffffffffffff8111828210171561400257634e487b7160e01b5f52604160045260245ffd5b60409081528351825260208085015190830152928301519281019290925250919050565b634e487b7160e01b5f52601160045260245ffd5b80820180821115611a5e57611a5e614026565b634e487b7160e01b5f52603260045260245ffd5b828152604060208201525f82518060408401528060208501606085015e5f606082850101526060601f19601f8301168401019150509392505050565b8082028115828204841417611a5e57611a5e614026565b5f826140ce57634e487b7160e01b5f52601260045260245ffd5b500490565b81810381811115611a5e57611a5e614026565b5f5f858511156140f4575f5ffd5b83861115614100575f5ffd5b5050820193919092039150565b80356001600160e01b0319811690600484101561413e576001600160e01b0319600485900360031b81901b82161691505b5092915050565b6001600160a01b03841681526040602082018190528101829052818360608301375f818301606090810191909152601f909201601f1916010192915050565b5f6001820161419557614195614026565b5060010190565b5f602082840312156141ac575f5ffd5b81518015158114612def575f5ffdfe9b779b17422d0df92223018b32b4d1fa46e071723d6817e2486d003becc55f00a2646970667358221220e09703611400f3a6a66a7535ebd6ecaadd39e8e8d132439e9f91980ac3e1a25764736f6c634300081c0033","linkReferences":{}},"methodIdentifiers":{"_liquidateOneDelegated(address,address,uint256)":"3e95c060","authority()":"bf7e214f","availableToBorrow(address)":"2c38199e","batchLiquidate(address[],uint256[])":"1c1c4c44","borrow(uint256)":"c5ebeaec","borrowCap()":"44d9dca6","collateralAsset()":"aabaecd6","configEpoch()":"32322970","currentDebt(address)":"884719f2","currentQuoteContext()":"c0d3626d","currentQuoteInput(address)":"a2054b6c","currentRiskConfigHash()":"55b0fa02","debtAsset()":"a919802d","debtPool()":"1ffe1667","depositCollateral(uint256)":"bad4a01f","depositCollateralFor(address,uint256)":"1b0cef43","exportPositionForMigration(address)":"d90ebf53","freezeNewDebt()":"a83081f0","healthFactor(address)":"6ad9f9df","importMigratedPosition(address,(uint256,uint256,uint256))":"60453af3","isConsumingScheduledOp()":"8fb36037","liquidate(address,uint256)":"bcbaf487","liquidationBonusBps()":"19970d8e","liquidationNotifier()":"80c87324","maxConfiguredLiquidationThresholdBps()":"850eeda6","maxConfiguredLtvBps()":"af11014f","minBorrowAmount()":"0a5db8a8","newDebtFrozen()":"2f5a4863","oracle()":"7dc0d1d0","pause()":"8456cb59","paused()":"5c975abb","positions(address)":"55f57510","previewBorrow(address,uint256)":"931da152","projectedBorrowQuoteInput(address,uint256)":"bc1ffd97","publishCurrentQuoteTicket(address)":"912a70f2","publishProjectedBorrowQuoteTicket(address,uint256)":"07db3855","repay(uint256)":"371fd8e6","reserveFactorBps()":"c87bed70","riskEngine()":"92b888ae","setAuthority(address)":"7a9e5e4b","unpause()":"3f4ba83a","withdrawCollateral(uint256)":"6112fe2e"},"id":3}