{"abi":[{"type":"constructor","inputs":[{"name":"initialAdmin","type":"address","internalType":"address"}],"stateMutability":"nonpayable"},{"type":"function","name":"ADMIN_ROLE","inputs":[],"outputs":[{"name":"","type":"uint64","internalType":"uint64"}],"stateMutability":"view"},{"type":"function","name":"PUBLIC_ROLE","inputs":[],"outputs":[{"name":"","type":"uint64","internalType":"uint64"}],"stateMutability":"view"},{"type":"function","name":"canCall","inputs":[{"name":"caller","type":"address","internalType":"address"},{"name":"target","type":"address","internalType":"address"},{"name":"selector","type":"bytes4","internalType":"bytes4"}],"outputs":[{"name":"immediate","type":"bool","internalType":"bool"},{"name":"delay","type":"uint32","internalType":"uint32"}],"stateMutability":"view"},{"type":"function","name":"cancel","inputs":[{"name":"caller","type":"address","internalType":"address"},{"name":"target","type":"address","internalType":"address"},{"name":"data","type":"bytes","internalType":"bytes"}],"outputs":[{"name":"","type":"uint32","internalType":"uint32"}],"stateMutability":"nonpayable"},{"type":"function","name":"consumeScheduledOp","inputs":[{"name":"caller","type":"address","internalType":"address"},{"name":"data","type":"bytes","internalType":"bytes"}],"outputs":[],"stateMutability":"nonpayable"},{"type":"function","name":"execute","inputs":[{"name":"target","type":"address","internalType":"address"},{"name":"data","type":"bytes","internalType":"bytes"}],"outputs":[{"name":"","type":"uint32","internalType":"uint32"}],"stateMutability":"payable"},{"type":"function","name":"expiration","inputs":[],"outputs":[{"name":"","type":"uint32","internalType":"uint32"}],"stateMutability":"view"},{"type":"function","name":"getAccess","inputs":[{"name":"roleId","type":"uint64","internalType":"uint64"},{"name":"account","type":"address","internalType":"address"}],"outputs":[{"name":"since","type":"uint48","internalType":"uint48"},{"name":"currentDelay","type":"uint32","internalType":"uint32"},{"name":"pendingDelay","type":"uint32","internalType":"uint32"},{"name":"effect","type":"uint48","internalType":"uint48"}],"stateMutability":"view"},{"type":"function","name":"getNonce","inputs":[{"name":"id","type":"bytes32","internalType":"bytes32"}],"outputs":[{"name":"","type":"uint32","internalType":"uint32"}],"stateMutability":"view"},{"type":"function","name":"getRoleAdmin","inputs":[{"name":"roleId","type":"uint64","internalType":"uint64"}],"outputs":[{"name":"","type":"uint64","internalType":"uint64"}],"stateMutability":"view"},{"type":"function","name":"getRoleGrantDelay","inputs":[{"name":"roleId","type":"uint64","internalType":"uint64"}],"outputs":[{"name":"","type":"uint32","internalType":"uint32"}],"stateMutability":"view"},{"type":"function","name":"getRoleGuardian","inputs":[{"name":"roleId","type":"uint64","internalType":"uint64"}],"outputs":[{"name":"","type":"uint64","internalType":"uint64"}],"stateMutability":"view"},{"type":"function","name":"getSchedule","inputs":[{"name":"id","type":"bytes32","internalType":"bytes32"}],"outputs":[{"name":"","type":"uint48","internalType":"uint48"}],"stateMutability":"view"},{"type":"function","name":"getTargetAdminDelay","inputs":[{"name":"target","type":"address","internalType":"address"}],"outputs":[{"name":"","type":"uint32","internalType":"uint32"}],"stateMutability":"view"},{"type":"function","name":"getTargetFunctionRole","inputs":[{"name":"target","type":"address","internalType":"address"},{"name":"selector","type":"bytes4","internalType":"bytes4"}],"outputs":[{"name":"","type":"uint64","internalType":"uint64"}],"stateMutability":"view"},{"type":"function","name":"grantRole","inputs":[{"name":"roleId","type":"uint64","internalType":"uint64"},{"name":"account","type":"address","internalType":"address"},{"name":"executionDelay","type":"uint32","internalType":"uint32"}],"outputs":[],"stateMutability":"nonpayable"},{"type":"function","name":"hasRole","inputs":[{"name":"roleId","type":"uint64","internalType":"uint64"},{"name":"account","type":"address","internalType":"address"}],"outputs":[{"name":"isMember","type":"bool","internalType":"bool"},{"name":"executionDelay","type":"uint32","internalType":"uint32"}],"stateMutability":"view"},{"type":"function","name":"hashOperation","inputs":[{"name":"caller","type":"address","internalType":"address"},{"name":"target","type":"address","internalType":"address"},{"name":"data","type":"bytes","internalType":"bytes"}],"outputs":[{"name":"","type":"bytes32","internalType":"bytes32"}],"stateMutability":"view"},{"type":"function","name":"isTargetClosed","inputs":[{"name":"target","type":"address","internalType":"address"}],"outputs":[{"name":"","type":"bool","internalType":"bool"}],"stateMutability":"view"},{"type":"function","name":"labelRole","inputs":[{"name":"roleId","type":"uint64","internalType":"uint64"},{"name":"label","type":"string","internalType":"string"}],"outputs":[],"stateMutability":"nonpayable"},{"type":"function","name":"minSetback","inputs":[],"outputs":[{"name":"","type":"uint32","internalType":"uint32"}],"stateMutability":"view"},{"type":"function","name":"multicall","inputs":[{"name":"data","type":"bytes[]","internalType":"bytes[]"}],"outputs":[{"name":"results","type":"bytes[]","internalType":"bytes[]"}],"stateMutability":"nonpayable"},{"type":"function","name":"renounceRole","inputs":[{"name":"roleId","type":"uint64","internalType":"uint64"},{"name":"callerConfirmation","type":"address","internalType":"address"}],"outputs":[],"stateMutability":"nonpayable"},{"type":"function","name":"revokeRole","inputs":[{"name":"roleId","type":"uint64","internalType":"uint64"},{"name":"account","type":"address","internalType":"address"}],"outputs":[],"stateMutability":"nonpayable"},{"type":"function","name":"schedule","inputs":[{"name":"target","type":"address","internalType":"address"},{"name":"data","type":"bytes","internalType":"bytes"},{"name":"when","type":"uint48","internalType":"uint48"}],"outputs":[{"name":"operationId","type":"bytes32","internalType":"bytes32"},{"name":"nonce","type":"uint32","internalType":"uint32"}],"stateMutability":"nonpayable"},{"type":"function","name":"setGrantDelay","inputs":[{"name":"roleId","type":"uint64","internalType":"uint64"},{"name":"newDelay","type":"uint32","internalType":"uint32"}],"outputs":[],"stateMutability":"nonpayable"},{"type":"function","name":"setRoleAdmin","inputs":[{"name":"roleId","type":"uint64","internalType":"uint64"},{"name":"admin","type":"uint64","internalType":"uint64"}],"outputs":[],"stateMutability":"nonpayable"},{"type":"function","name":"setRoleGuardian","inputs":[{"name":"roleId","type":"uint64","internalType":"uint64"},{"name":"guardian","type":"uint64","internalType":"uint64"}],"outputs":[],"stateMutability":"nonpayable"},{"type":"function","name":"setTargetAdminDelay","inputs":[{"name":"target","type":"address","internalType":"address"},{"name":"newDelay","type":"uint32","internalType":"uint32"}],"outputs":[],"stateMutability":"nonpayable"},{"type":"function","name":"setTargetClosed","inputs":[{"name":"target","type":"address","internalType":"address"},{"name":"closed","type":"bool","internalType":"bool"}],"outputs":[],"stateMutability":"nonpayable"},{"type":"function","name":"setTargetFunctionRole","inputs":[{"name":"target","type":"address","internalType":"address"},{"name":"selectors","type":"bytes4[]","internalType":"bytes4[]"},{"name":"roleId","type":"uint64","internalType":"uint64"}],"outputs":[],"stateMutability":"nonpayable"},{"type":"function","name":"updateAuthority","inputs":[{"name":"target","type":"address","internalType":"address"},{"name":"newAuthority","type":"address","internalType":"address"}],"outputs":[],"stateMutability":"nonpayable"},{"type":"event","name":"OperationCanceled","inputs":[{"name":"operationId","type":"bytes32","indexed":true,"internalType":"bytes32"},{"name":"nonce","type":"uint32","indexed":true,"internalType":"uint32"}],"anonymous":false},{"type":"event","name":"OperationExecuted","inputs":[{"name":"operationId","type":"bytes32","indexed":true,"internalType":"bytes32"},{"name":"nonce","type":"uint32","indexed":true,"internalType":"uint32"}],"anonymous":false},{"type":"event","name":"OperationScheduled","inputs":[{"name":"operationId","type":"bytes32","indexed":true,"internalType":"bytes32"},{"name":"nonce","type":"uint32","indexed":true,"internalType":"uint32"},{"name":"schedule","type":"uint48","indexed":false,"internalType":"uint48"},{"name":"caller","type":"address","indexed":false,"internalType":"address"},{"name":"target","type":"address","indexed":false,"internalType":"address"},{"name":"data","type":"bytes","indexed":false,"internalType":"bytes"}],"anonymous":false},{"type":"event","name":"RoleAdminChanged","inputs":[{"name":"roleId","type":"uint64","indexed":true,"internalType":"uint64"},{"name":"admin","type":"uint64","indexed":true,"internalType":"uint64"}],"anonymous":false},{"type":"event","name":"RoleGrantDelayChanged","inputs":[{"name":"roleId","type":"uint64","indexed":true,"internalType":"uint64"},{"name":"delay","type":"uint32","indexed":false,"internalType":"uint32"},{"name":"since","type":"uint48","indexed":false,"internalType":"uint48"}],"anonymous":false},{"type":"event","name":"RoleGranted","inputs":[{"name":"roleId","type":"uint64","indexed":true,"internalType":"uint64"},{"name":"account","type":"address","indexed":true,"internalType":"address"},{"name":"delay","type":"uint32","indexed":false,"internalType":"uint32"},{"name":"since","type":"uint48","indexed":false,"internalType":"uint48"},{"name":"newMember","type":"bool","indexed":false,"internalType":"bool"}],"anonymous":false},{"type":"event","name":"RoleGuardianChanged","inputs":[{"name":"roleId","type":"uint64","indexed":true,"internalType":"uint64"},{"name":"guardian","type":"uint64","indexed":true,"internalType":"uint64"}],"anonymous":false},{"type":"event","name":"RoleLabel","inputs":[{"name":"roleId","type":"uint64","indexed":true,"internalType":"uint64"},{"name":"label","type":"string","indexed":false,"internalType":"string"}],"anonymous":false},{"type":"event","name":"RoleRevoked","inputs":[{"name":"roleId","type":"uint64","indexed":true,"internalType":"uint64"},{"name":"account","type":"address","indexed":true,"internalType":"address"}],"anonymous":false},{"type":"event","name":"TargetAdminDelayUpdated","inputs":[{"name":"target","type":"address","indexed":true,"internalType":"address"},{"name":"delay","type":"uint32","indexed":false,"internalType":"uint32"},{"name":"since","type":"uint48","indexed":false,"internalType":"uint48"}],"anonymous":false},{"type":"event","name":"TargetClosed","inputs":[{"name":"target","type":"address","indexed":true,"internalType":"address"},{"name":"closed","type":"bool","indexed":false,"internalType":"bool"}],"anonymous":false},{"type":"event","name":"TargetFunctionRoleUpdated","inputs":[{"name":"target","type":"address","indexed":true,"internalType":"address"},{"name":"selector","type":"bytes4","indexed":false,"internalType":"bytes4"},{"name":"roleId","type":"uint64","indexed":true,"internalType":"uint64"}],"anonymous":false},{"type":"error","name":"AccessManagerAlreadyScheduled","inputs":[{"name":"operationId","type":"bytes32","internalType":"bytes32"}]},{"type":"error","name":"AccessManagerBadConfirmation","inputs":[]},{"type":"error","name":"AccessManagerExpired","inputs":[{"name":"operationId","type":"bytes32","internalType":"bytes32"}]},{"type":"error","name":"AccessManagerInvalidInitialAdmin","inputs":[{"name":"initialAdmin","type":"address","internalType":"address"}]},{"type":"error","name":"AccessManagerLockedRole","inputs":[{"name":"roleId","type":"uint64","internalType":"uint64"}]},{"type":"error","name":"AccessManagerNotReady","inputs":[{"name":"operationId","type":"bytes32","internalType":"bytes32"}]},{"type":"error","name":"AccessManagerNotScheduled","inputs":[{"name":"operationId","type":"bytes32","internalType":"bytes32"}]},{"type":"error","name":"AccessManagerUnauthorizedAccount","inputs":[{"name":"msgsender","type":"address","internalType":"address"},{"name":"roleId","type":"uint64","internalType":"uint64"}]},{"type":"error","name":"AccessManagerUnauthorizedCall","inputs":[{"name":"caller","type":"address","internalType":"address"},{"name":"target","type":"address","internalType":"address"},{"name":"selector","type":"bytes4","internalType":"bytes4"}]},{"type":"error","name":"AccessManagerUnauthorizedCancel","inputs":[{"name":"msgsender","type":"address","internalType":"address"},{"name":"caller","type":"address","internalType":"address"},{"name":"target","type":"address","internalType":"address"},{"name":"selector","type":"bytes4","internalType":"bytes4"}]},{"type":"error","name":"AccessManagerUnauthorizedConsume","inputs":[{"name":"target","type":"address","internalType":"address"}]},{"type":"error","name":"AddressEmptyCode","inputs":[{"name":"target","type":"address","internalType":"address"}]},{"type":"error","name":"FailedCall","inputs":[]},{"type":"error","name":"InsufficientBalance","inputs":[{"name":"balance","type":"uint256","internalType":"uint256"},{"name":"needed","type":"uint256","internalType":"uint256"}]},{"type":"error","name":"SafeCastOverflowedUintDowncast","inputs":[{"name":"bits","type":"uint8","internalType":"uint8"},{"name":"value","type":"uint256","internalType":"uint256"}]}],"bytecode":{"object":"0x6080604052346102b757604051601f61266438819003918201601f19168301916001600160401b0383118484101761015a578084926020946040528339810103126102b757516001600160a01b038116908190036102b75780156102a4575f8181525f5160206126245f395f51905f52602052604090205465ffffffffffff161580156101825765ffffffffffff610096426102bb565b1665ffffffffffff811161016e578060405191604083019383851060018060401b0386111761015a5760409485529183525f60208085018281528783525f5160206126245f395f51905f529091529481209351845495516001600160a01b031990961665ffffffffffff919091161760309590951b600160301b600160a01b0316949094179092555f5160206126445f395f51905f52916060915b65ffffffffffff604051928684521660208301526040820152a360405161233990816102eb8239f35b634e487b7160e01b5f52604160045260245ffd5b634e487b7160e01b5f52601160045260245ffd5b5f8281525f5160206126245f395f51905f526020526040902054906101a6426102bb565b63ffffffff8360301c169265ffffffffffff808260701c1692168211155f146102925750505b63ffffffff8216801561028b5763ffffffff811161016e575b65ffffffffffff63ffffffff6101fa426102bb565b921691160165ffffffffffff811161016e575f8481525f5160206126245f395f51905f52602090815260408083208054600160301b600160a01b0319169185901b6dffffffffffff0000000000000000169690921b67ffffffff00000000169590951760301b600160301b600160a01b0316949094179093555f5160206126445f395f51905f529160609190610131565b505f6101e5565b63ffffffff9060501c169250506101cc565b630409d6d160e11b5f525f60045260245ffd5b5f80fd5b65ffffffffffff81116102d35765ffffffffffff1690565b6306dfcc6560e41b5f52603060045260245260445ffdfe60806040526004361015610011575f80fd5b5f5f3560e01c806308d6122d146115195780630b0a93ba146114d457806312be8727146114b1578063167bd3951461142657806318ff183c146113945780631cff79cd1461125557806325c471a014610f4c5780633078f11414610ef157806330cae18714610e535780633adc277a14610e245780633ca7c02a14610e025780634136a33c14610dcf5780634665096d14610db15780634c1da1e214610d7f5780635296295214610cc7578063530dd45614610c735780636d5115bd14610c1357806375b238fc14610bf7578063853551b814610b3d57806394c7d7ee14610a77578063a166aa8914610a2b578063a64d95ce1461091f578063abd9bd2a146108fa578063ac9650d81461074d578063b700961314610708578063b7d2b162146106d5578063cc1b6c81146106b7578063d1f856ee14610672578063d22b5989146105a3578063d6bb62c6146103ef578063f801a698146101cc5763fe0776f51461017a575f80fd5b346101c95760403660031901126101c957610193611656565b61019b611610565b90336001600160a01b038316036101ba57906101b691611d50565b5080f35b635f159e6360e01b8352600483fd5b80fd5b50346101c95760603660031901126101c9576101e66115fa565b906024356001600160401b0381116103eb57610206903690600401611682565b919060443565ffffffffffff81168091036103e75761022784838733611af8565b905061024363ffffffff61023a426122d4565b92168092611a27565b901580156103cc575b610393579065ffffffffffff809216908180821191180218169061027284828733611881565b93848452600260205265ffffffffffff6040852054168015159081610382575b5061036e57604095849361035f87947f82a2da5dee54ea8021c6545b4444620291e07ee83be6dd57edb175062715f3b494868b99526002602052600163ffffffff8a8a205460301c160163ffffffff81169989898c9b52600260205281812065ffffffffffff881665ffffffffffff198254161790558981526002602052209069ffffffff00000000000082549160301b169069ffffffff00000000000019161790558a51948594855233602086015260018060a01b03168b850152608060608501526080840191611861565b0390a382519182526020820152f35b63813e945960e01b84526004859052602484fd5b61038c9150611cfa565b155f610292565b606484876103a18887611b3f565b6381c6f24b60e01b8352336004526001600160a01b039091166024526001600160e01b031916604452fd5b50811515801561024c575065ffffffffffff8116821061024c565b8280fd5b5080fd5b50346101c9576104179061040236611705565b61040f8183949793611b3f565b928685611881565b91828452600260205265ffffffffffff604085205416155f146104485763060a299b60e41b84526004839052602484fd5b6001600160a01b0316903382036104ba575b505060209250808252600283526040822065ffffffffffff1981541690558082526002835263ffffffff604083205460301c1680917fbd9ac67a6e2f6463b80927326310338bcbb4bdb7936ce1365ea3e01067e7b9f76040519480a38152f35b65ffffffffffff946104cc335f6117bd565b50509616958615159687610586575b505060018060a01b03169485855284602052604085209163ffffffff60e01b16918286526020526105433361053e6001600160401b036040892054166001600160401b03165f5260016020526001600160401b03600160405f20015460401c1690565b6119d1565b509015908161057d575b501561045a57608492508460405192630ff89d4760e21b8452336004850152602484015260448301526064820152fd5b9050155f61054d565b90965065ffffffffffff610599426122d4565b161015955f6104db565b50346101c95760403660031901126101c9576105bd6115fa565b7fa56b76017453f399ec2327ba00375dbfb1fd070ff854341ad6191e6a2e2de19c6105e66116f2565b916105ef611a59565b60018060a01b03169182845283602052610619816001600160701b03600160408820015416612241565b9190848652856020526001600160701b036001604088200191166001600160701b031982541617905561066c6040519283928390929165ffffffffffff60209163ffffffff604085019616845216910152565b0390a280f35b50346101c95760403660031901126101c95761069d61068f611656565b610697611610565b906119d1565b60408051921515835263ffffffff91909116602083015290f35b50346101c957806003193601126101c9576020604051620697808152f35b50346101c95760403660031901126101c9576101b66106f2611656565b6106fa611610565b90610703611a59565b611d50565b50346101c95760603660031901126101c9576107226115fa565b61072a611610565b604435916001600160e01b0319831683036107495761069d935061190f565b8380fd5b50346101c95760203660031901126101c9576004356001600160401b0381116103eb5761077e903690600401611626565b90602060405161078e8282611788565b84815281810191601f1981013684376107a6856118d0565b936107b46040519586611788565b858552601f196107c3876118d0565b01875b8181106108eb57505036819003601e190190875b87811015610873578060051b8201358381121561086f578201908135916001600160401b03831161086b578501823603811361086b578261084961084f928d898c6001986040519687958487013784018281018481528e519283915e010190815203601f198101835282611788565b30611d2e565b610859828a6118e7565b5261086481896118e7565b50016107da565b8a80fd5b8980fd5b88848860405191808301818452825180915260408401918060408360051b870101940192865b8388106108a65786860387f35b9091929394838080600193603f198b8203018752818a518051918291828552018484015e86838284010152601f80199101160101970193019701969093929193610899565b606087820185015283016107c6565b50346101c957602061091761090e36611705565b92919091611881565b604051908152f35b50346101c95760403660031901126101c957610939611656565b6001600160401b036109496116f2565b91610952611a59565b16906001600160401b038214610a17577ffeb69018ee8b8fd50ea86348f1267d07673379f72cffdeccec63853ee8ce8b489082845260016020526109a9816001600160701b03600160408820015460801c16612241565b84865260016020818152604080892090920180546dffffffffffffffffffffffffffff60801b191660809590951b6dffffffffffffffffffffffffffff60801b1694909417909355805163ffffffff909416845265ffffffffffff909116918301919091528190810161066c565b63061c6a4360e21b83526004829052602483fd5b50346101c95760203660031901126101c9576020610a6d610a4a6115fa565b6001600160a01b03165f9081526020819052604090206001015460701c60ff1690565b6040519015158152f35b50346101c957610a86366116af565b91604051638fb3603760e01b8152602081600481335afa908115610b32578591610aeb575b506001600160e01b03191663704c9fc960e01b01610ad85791610ad3916101b6933390611881565b611b55565b630641fee960e31b845233600452602484fd5b90506020813d602011610b2a575b81610b0660209383611788565b81010312610b2657516001600160e01b031981168103610b26575f610aab565b8480fd5b3d9150610af9565b6040513d87823e3d90fd5b50346101c95760403660031901126101c957610b57611656565b602435906001600160401b0382116103e757610b7f6001600160401b03923690600401611682565b929091610b8a611a59565b169182158015610be7575b610bd357907f1256f5b5ecb89caec12db449738f2fbcd1ba5806cf38f35413f4e5c15bf6a4509161066c604051928392602084526020840191611861565b63061c6a4360e21b84526004839052602484fd5b506001600160401b038314610b95565b50346101c957806003193601126101c957602090604051908152f35b50346101c95760403660031901126101c957610c2d6115fa565b6024359063ffffffff60e01b82168092036103e7576001600160a01b0316825260208281526040808420928452918152918190205490516001600160401b039091168152f35b50346101c95760203660031901126101c9576020610cb6610c92611656565b6001600160401b03165f5260016020526001600160401b03600160405f2001541690565b6001600160401b0360405191168152f35b50346101c95760403660031901126101c957610ce1611656565b6001600160401b03610cf161166c565b91610cfa611a59565b169081158015610d6f575b610a17576001600160401b0390828452600160205260016040852001805467ffffffffffffffff60401b8360401b169067ffffffffffffffff60401b191617905516907f7a8059630b897b5de4c08ade69f8b90c3ead1f8596d62d10b6c4d14a0afb4ae28380a380f35b506001600160401b038214610d05565b50346101c95760203660031901126101c9576020610da3610d9e6115fa565b61183a565b63ffffffff60405191168152f35b50346101c957806003193601126101c957602060405162093a808152f35b50346101c95760203660031901126101c95763ffffffff6040602092600435815260028452205460301c16604051908152f35b50346101c957806003193601126101c95760206040516001600160401b038152f35b50346101c95760203660031901126101c9576020610e43600435611810565b65ffffffffffff60405191168152f35b50346101c95760403660031901126101c957610e6d611656565b6001600160401b03610e7d61166c565b91610e86611a59565b169081158015610ee1575b610a17576001600160401b0390828452600160205260016040852001828216831982541617905516907f1fd6dd7631312dfac2205b52913f99de03b4d7e381d5d27d3dbfe0713e6e63408380a380f35b506001600160401b038214610e91565b50346101c95760403660031901126101c957608063ffffffff65ffffffffffff81610f2b610f1d611656565b610f25611610565b906117bd565b93929590918560405197168752166020860152166040840152166060820152f35b50346101c95760603660031901126101c957610f66611656565b610f6e611610565b906044359163ffffffff831680930361074957610f89611a59565b6001600160401b03610f9a83611757565b9216916001600160401b038314611241578285526001602090815260408087206001600160a01b0385165f908152925290205465ffffffffffff16159081156110df57610ff79063ffffffff610fef426122d4565b911690611a27565b604051604081018181106001600160401b038211176110cb577ff98448b987f1428e0e230e1f3c6e2ce15b5693eaf31827fbd0b1ec4b424ae7cf94926110ac6060959365ffffffffffff9360405283831681526001600160701b03602082018b81528a8d52600160205260408d2060018060a01b0389165f52602052858060405f209451161686198454161783555116600160301b600160a01b0382549160301b1690600160301b600160a01b031916179055565b60408051988952911660208801528601526001600160a01b031693a380f35b634e487b7160e01b88526041600452602488fd5b5082855260016020526040852060018060a01b0383165f526020526111136001600160701b0360405f205460301c16611cbd565b50508463ffffffff82168181115f146111f8570363ffffffff81116111e4579165ffffffffffff7ff98448b987f1428e0e230e1f3c6e2ce15b5693eaf31827fbd0b1ec4b424ae7cf94926111df67ffffffff0000000061118463ffffffff6060985b1661117f426122d4565b611a27565b9260201b1665ffffffffffff60401b8360401b16178917888b52600160205260408b2060018060a01b0387165f5260205260405f2090600160301b600160a01b0382549160301b1690600160301b600160a01b031916179055565b6110ac565b634e487b7160e01b87526011600452602487fd5b50509160609165ffffffffffff7ff98448b987f1428e0e230e1f3c6e2ce15b5693eaf31827fbd0b1ec4b424ae7cf946111df67ffffffff0000000061118463ffffffff8c611175565b63061c6a4360e21b85526004839052602485fd5b5061125f366116af565b909161126d82848333611af8565b93901580611386575b6113785761128683828433611881565b63ffffffff8695161580159061135f575b61134d575b50600354926112d36112ae8284611b3f565b6001600160a01b0385165f9081526001600160e01b0319919091166020526040902090565b6003556001600160401b03811161133957604051916112fc601f8301601f191660200184611788565b81835236828201116113355795602082849382998361132398970137830101523491611c22565b5060035563ffffffff60405191168152f35b8680fd5b634e487b7160e01b86526041600452602486fd5b611358919450611b55565b925f61129c565b5065ffffffffffff61137082611810565b161515611297565b906103a16064938693611b3f565b5063ffffffff841615611276565b5034611422576040366003190112611422576113ae6115fa565b6113b6611610565b906113bf611a59565b6001600160a01b031690813b1561142257604051637a9e5e4b60e01b81526001600160a01b039091166004820152905f908290602490829084905af1801561141757611409575080f35b61141591505f90611788565b005b6040513d5f823e3d90fd5b5f80fd5b346114225760403660031901126114225761143f6115fa565b602435908115158092036114225760207f90d4e7bb7e5d933792b3562e1741306f8be94837e1348dacef9b6f1df56eb13891611479611a59565b6001600160a01b03165f818152808352604090819020600101805460ff60701b1916607087901b60ff60701b161790555193845292a2005b34611422576020366003190112611422576020610da36114cf611656565b611757565b34611422576020366003190112611422576020610cb66114f2611656565b6001600160401b03165f5260016020526001600160401b03600160405f20015460401c1690565b34611422576060366003190112611422576115326115fa565b6024356001600160401b03811161142257611551903690600401611626565b9190604435906001600160401b03821680920361142257611573939293611a59565b6001600160a01b03909316925f5b83811015611415578060051b8201359063ffffffff60e01b82168092036114225783867f9ea6790c7dadfd01c9f8b9762b3682607af2c7e79e05a9f9fdf5580dde9491516020600195835f525f825260405f20815f52825260405f20856001600160401b0319825416179055604051908152a301611581565b600435906001600160a01b038216820361142257565b602435906001600160a01b038216820361142257565b9181601f84011215611422578235916001600160401b038311611422576020808501948460051b01011161142257565b600435906001600160401b038216820361142257565b602435906001600160401b038216820361142257565b9181601f84011215611422578235916001600160401b038311611422576020838186019501011161142257565b906040600319830112611422576004356001600160a01b03811681036114225791602435906001600160401b038211611422576116ee91600401611682565b9091565b6024359063ffffffff8216820361142257565b6060600319820112611422576004356001600160a01b038116810361142257916024356001600160a01b03811681036114225791604435906001600160401b038211611422576116ee91600401611682565b6001600160401b03165f5260016020526117836001600160701b03600160405f20015460801c16611cbd565b505090565b90601f801991011681019081106001600160401b038211176117a957604052565b634e487b7160e01b5f52604160045260245ffd5b6001600160401b03165f9081526001602090815260408083206001600160a01b039094168352929052205465ffffffffffff91611806603083901c6001600160701b0316611cbd565b9490931693909291565b5f52600260205265ffffffffffff60405f20541661182d81611cfa565b1561183757505f90565b90565b60018060a01b03165f525f6020526117836001600160701b03600160405f20015416611cbd565b908060209392818452848401375f828201840152601f01601f1916010190565b604080516001600160a01b039283166020820190815292909316908301526060808301529290916118ca9183916118bc916080840191611861565b03601f198101835282611788565b51902090565b6001600160401b0381116117a95760051b60200190565b80518210156118fb5760209160051b010190565b634e487b7160e01b5f52603260045260245ffd5b6001600160a01b0382165f9081526020819052604090206001015491929160701c60ff1615611941575050505f905f90565b6001600160a01b038116300361197e57506003546001600160a01b039092165f9081526001600160e01b0319909116602052604090205b14905f90565b906119b79260018060a01b03165f525f60205260405f209063ffffffff60e01b165f526020526001600160401b0360405f2054166119d1565b9190156119ca5763ffffffff8216159190565b5f91508190565b6001600160401b03818116036119ea5750506001905f90565b65ffffffffffff92916119fc916117bd565b505092168015159081611a0e57509190565b905065ffffffffffff611a20426122d4565b1610159190565b9065ffffffffffff8091169116019065ffffffffffff8211611a4557565b634e487b7160e01b5f52601160045260245ffd5b611a633633611dff565b9015611a6c5750565b63ffffffff16611aa1576001600160401b03611a8736611f02565b50905063f07e038f60e01b5f52336004521660245260445ffd5b611af56040516020810190338252306040820152606080820152611aed81602060808201368152365f838301375f823683010152601f19601f360116010103601f198101835282611788565b519020611b55565b50565b909291906001600160a01b0384163003611b16576116ee9350611eb3565b9192906004841015611b2c57505050505f905f90565b6116ee93611b3991611b3f565b9161190f565b9060041161142257356001600160e01b03191690565b5f81815260026020526040902054909190603081901c63ffffffff169065ffffffffffff1680611b92578363060a299b60e41b5f5260045260245ffd5b65ffffffffffff611ba2426122d4565b16811115611bbd5783630c65b5bd60e11b5f5260045260245ffd5b611bca9093919293611cfa565b611c10578190805f52600260205260405f2065ffffffffffff1981541690557f76a2a46953689d4861a5d3f6ed883ad7e6af674a21f8e162707159fc9dde614d5f80a390565b631e2975b960e21b5f5260045260245ffd5b91804710611ca757815f92916020849351920190855af18080611c94575b15611c4f575050611837612228565b15611c7457639996b31560e01b5f9081526001600160a01b0391909116600452602490fd5b3d15611c85576040513d5f823e3d90fd5b63d6bda27560e01b5f5260045ffd5b503d151580611c405750813b1515611c40565b4763cf47918160e01b5f5260045260245260445ffd5b611cc6426122d4565b63ffffffff82169165ffffffffffff604082901c811692168211611cee575090915f91508190565b60201c63ffffffff1692565b65ffffffffffff62093a8091160165ffffffffffff8111611a455765ffffffffffff80611d26426122d4565b169116111590565b905f8091602081519101845af48080611c945715611c4f575050611837612228565b6001600160401b0316906001600160401b038214611dec57815f52600160205260405f2060018060a01b0382165f5260205265ffffffffffff60405f20541615611de657815f52600160205260405f2060018060a01b0382165f526020525f604081205560018060a01b0316907ff229baa593af28c41b1d16b748cd7688f0c83aaf92d4be41c44005defe84c1665f80a3600190565b50505f90565b5063061c6a4360e21b5f5260045260245ffd5b9060048110611e5b576001600160a01b0382163014611e8a57611e22905f6120aa565b9290911580611e6c575b611e6357611e39916119d1565b9015611e5b5763ffffffff808093169116908180821191180218169081159190565b50505f905f90565b5050505f905f90565b50305f9081526020819052604090206001015460701c60ff16611e2c565b905060041161142257600354305f90815280356001600160e01b03191660205260409020611978565b919060048210611e63576001600160a01b0383163014611ed75790611e22916120aa565b611ee19250611b3f565b600354305f9081526001600160e01b03199092166020526040909120611978565b5f90600481106120a05780600411611422575f356001600160e01b031916906310a6aa3760e31b82148015612090575b8015612080575b8015612070575b8015612060575b6120545763063fc60f60e21b82148015612044575b8015612034575b6120045763012e238d60e51b82148015611ff4575b611fa3575030825281602052604082209082526020526001600160401b036040822054169181929190565b90506024116101c957806101c957506004356001600160401b038116810361142257611fed906001600160401b03165f5260016020526001600160401b03600160405f2001541690565b6001915f90565b50635be958b160e11b8214611f78565b915050602411611422576004356001600160a01b038116908190036114225761202c9061183a565b6001915f9190565b506308d6122d60e01b8214611f63565b5063167bd39560e01b8214611f5c565b5050506001905f905f90565b5063d22b598960e01b8214611f47565b50635326cae760e11b8214611f40565b5063294b14a960e11b8214611f39565b506330cae18760e01b8214611f32565b50505f905f905f90565b600482106120a0576001600160e01b03196120c58383611b3f565b16916310a6aa3760e31b83148015612218575b8015612208575b80156121f8575b80156121e8575b6120545763063fc60f60e21b831480156121d8575b80156121c8575b6121a15763012e238d60e51b83148015612191575b61214b575050305f525f60205260405f20905f526020526001600160401b0360405f205416905f91905f90565b90915060241161142257600401356001600160401b038116810361142257611fed906001600160401b03165f5260016020526001600160401b03600160405f2001541690565b50635be958b160e11b831461211e565b909150602411611422576004013560018060a01b0381168091036114225761202c9061183a565b506308d6122d60e01b8314612109565b5063167bd39560e01b8314612102565b5063d22b598960e01b83146120ed565b50635326cae760e11b83146120e6565b5063294b14a960e11b83146120df565b506330cae18760e01b83146120d8565b604051903d82523d5f602084013e60203d830101604052565b61225263ffffffff91939293611cbd565b505092168063ffffffff84168181115f146122ba570363ffffffff8111611a45576122a063ffffffff8067ffffffff00000000935b1680620697801181620697801802181661117f426122d4565b9360201b1665ffffffffffff60401b8460401b1617179190565b505067ffffffff000000006122a063ffffffff805f612287565b65ffffffffffff81116122ec5765ffffffffffff1690565b6306dfcc6560e41b5f52603060045260245260445ffdfea2646970667358221220d49782f4206cf6299662f5744ca13ab517d65907274b0618510758313deb999b64736f6c634300081c0033a6eef7e35abe7026729641147f7915573c7e97b47efa546f5f6e3230263bcb49f98448b987f1428e0e230e1f3c6e2ce15b5693eaf31827fbd0b1ec4b424ae7cf","linkReferences":{}},"methodIdentifiers":{"ADMIN_ROLE()":"75b238fc","PUBLIC_ROLE()":"3ca7c02a","canCall(address,address,bytes4)":"b7009613","cancel(address,address,bytes)":"d6bb62c6","consumeScheduledOp(address,bytes)":"94c7d7ee","execute(address,bytes)":"1cff79cd","expiration()":"4665096d","getAccess(uint64,address)":"3078f114","getNonce(bytes32)":"4136a33c","getRoleAdmin(uint64)":"530dd456","getRoleGrantDelay(uint64)":"12be8727","getRoleGuardian(uint64)":"0b0a93ba","getSchedule(bytes32)":"3adc277a","getTargetAdminDelay(address)":"4c1da1e2","getTargetFunctionRole(address,bytes4)":"6d5115bd","grantRole(uint64,address,uint32)":"25c471a0","hasRole(uint64,address)":"d1f856ee","hashOperation(address,address,bytes)":"abd9bd2a","isTargetClosed(address)":"a166aa89","labelRole(uint64,string)":"853551b8","minSetback()":"cc1b6c81","multicall(bytes[])":"ac9650d8","renounceRole(uint64,address)":"fe0776f5","revokeRole(uint64,address)":"b7d2b162","schedule(address,bytes,uint48)":"f801a698","setGrantDelay(uint64,uint32)":"a64d95ce","setRoleAdmin(uint64,uint64)":"30cae187","setRoleGuardian(uint64,uint64)":"52962952","setTargetAdminDelay(address,uint32)":"d22b5989","setTargetClosed(address,bool)":"167bd395","setTargetFunctionRole(address,bytes4[],uint64)":"08d6122d","updateAuthority(address,address)":"18ff183c"},"id":1}