{"abi":[{"type":"constructor","inputs":[{"name":"authority_","type":"address","internalType":"address"}],"stateMutability":"nonpayable"},{"type":"function","name":"authority","inputs":[],"outputs":[{"name":"","type":"address","internalType":"address"}],"stateMutability":"view"},{"type":"function","name":"getPolicy","inputs":[{"name":"key","type":"bytes32","internalType":"bytes32"}],"outputs":[{"name":"value","type":"uint256","internalType":"uint256"}],"stateMutability":"view"},{"type":"function","name":"getPolicyOrRevert","inputs":[{"name":"key","type":"bytes32","internalType":"bytes32"}],"outputs":[{"name":"value","type":"uint256","internalType":"uint256"}],"stateMutability":"view"},{"type":"function","name":"isConsumingScheduledOp","inputs":[],"outputs":[{"name":"","type":"bytes4","internalType":"bytes4"}],"stateMutability":"view"},{"type":"function","name":"policyActive","inputs":[{"name":"key","type":"bytes32","internalType":"bytes32"}],"outputs":[{"name":"","type":"bool","internalType":"bool"}],"stateMutability":"view"},{"type":"function","name":"removePolicy","inputs":[{"name":"key","type":"bytes32","internalType":"bytes32"}],"outputs":[],"stateMutability":"nonpayable"},{"type":"function","name":"setAuthority","inputs":[{"name":"newAuthority","type":"address","internalType":"address"}],"outputs":[],"stateMutability":"nonpayable"},{"type":"function","name":"setPolicy","inputs":[{"name":"key","type":"bytes32","internalType":"bytes32"},{"name":"value","type":"uint256","internalType":"uint256"}],"outputs":[],"stateMutability":"nonpayable"},{"type":"event","name":"AuthorityUpdated","inputs":[{"name":"authority","type":"address","indexed":false,"internalType":"address"}],"anonymous":false},{"type":"event","name":"PolicyRemoved","inputs":[{"name":"key","type":"bytes32","indexed":true,"internalType":"bytes32"}],"anonymous":false},{"type":"event","name":"PolicySet","inputs":[{"name":"key","type":"bytes32","indexed":true,"internalType":"bytes32"},{"name":"value","type":"uint256","indexed":false,"internalType":"uint256"}],"anonymous":false},{"type":"error","name":"AccessManagedInvalidAuthority","inputs":[{"name":"authority","type":"address","internalType":"address"}]},{"type":"error","name":"AccessManagedRequiredDelay","inputs":[{"name":"caller","type":"address","internalType":"address"},{"name":"delay","type":"uint32","internalType":"uint32"}]},{"type":"error","name":"AccessManagedUnauthorized","inputs":[{"name":"caller","type":"address","internalType":"address"}]}],"bytecode":{"object":"0x6080604052348015600e575f5ffd5b50604051610727380380610727833981016040819052602b91608c565b806033816039565b505060b7565b5f80546001600160a01b0319166001600160a01b0383169081179091556040519081527f2f658b440c35314f52658ea8a740e05b284cdc84dc9ae01e891f21b8933e7cad9060200160405180910390a150565b5f60208284031215609b575f5ffd5b81516001600160a01b038116811460b0575f5ffd5b9392505050565b610663806100c45f395ff3fe608060405234801561000f575f5ffd5b5060043610610085575f3560e01c8063a3f685f911610058578063a3f685f914610109578063bf7e214f14610136578063f062cda414610150578063fac45f6f14610163575f5ffd5b806312376524146100895780636f396179146100c05780637a9e5e4b146100d55780638fb36037146100e8575b5f5ffd5b6100ab61009736600461052b565b5f9081526002602052604090205460ff1690565b60405190151581526020015b60405180910390f35b6100d36100ce36600461052b565b610176565b005b6100d36100e3366004610542565b6101ce565b6100f061024b565b6040516001600160e01b031990911681526020016100b7565b61012861011736600461052b565b5f9081526001602052604090205490565b6040519081526020016100b7565b5f546040516001600160a01b0390911681526020016100b7565b61012861015e36600461052b565b61026d565b6100d361017136600461056f565b6102ea565b610182335b5f36610350565b5f8181526001602090815260408083208390556002909152808220805460ff191690555182917f0d36023cc2fbcad52ac4d396c3bdc45f6ea3b176efdee221dc1c7391e8b3fc8c91a250565b5f5433906001600160a01b031681146102095760405162d1953b60e31b81526001600160a01b03821660048201526024015b60405180910390fd5b816001600160a01b03163b5f0361023e576040516361798f2f60e11b81526001600160a01b0383166004820152602401610200565b61024782610446565b5050565b5f8054600160a01b900460ff1661026157505f90565b50638fb3603760e01b90565b5f8181526002602052604081205460ff166102d85760405162461bcd60e51b815260206004820152602560248201527f476f7665726e616e6365506f6c69637953746f72653a20706f6c696379206e6f6044820152641d081cd95d60da1b6064820152608401610200565b505f9081526001602052604090205490565b6102f33361017b565b5f8281526001602081815260408084208590556002825292839020805460ff1916909217909155905182815283917fe6810688b2fcd676aafbf6086199c0cfbf1716bd240c04935a35870102b4713f910160405180910390a25050565b5f5f6103836103665f546001600160a01b031690565b863061037560045f898b61058f565b61037e916105b6565b610499565b915091508161043f5763ffffffff81161561041c575f805460ff60a01b198116600160a01b17909155604051634a63ebf760e11b81526001600160a01b03909116906394c7d7ee906103dd908890889088906004016105ee565b5f604051808303815f87803b1580156103f4575f5ffd5b505af1158015610406573d5f5f3e3d5ffd5b50505f805460ff60a01b191690555061043f9050565b60405162d1953b60e31b81526001600160a01b0386166004820152602401610200565b5050505050565b5f80546001600160a01b0319166001600160a01b0383169081179091556040519081527f2f658b440c35314f52658ea8a740e05b284cdc84dc9ae01e891f21b8933e7cad9060200160405180910390a150565b6040516001600160a01b038085166024830152831660448201526001600160e01b0319821660648201525f908190819060840160408051601f19818403018152918152602080830180516001600160e01b031663b700961360e01b1781525f808052918290528351939450919290918a5afa15610521575f516020805191945081901c150291505b5094509492505050565b5f6020828403121561053b575f5ffd5b5035919050565b5f60208284031215610552575f5ffd5b81356001600160a01b0381168114610568575f5ffd5b9392505050565b5f5f60408385031215610580575f5ffd5b50508035926020909101359150565b5f5f8585111561059d575f5ffd5b838611156105a9575f5ffd5b5050820193919092039150565b80356001600160e01b031981169060048410156105e7576001600160e01b0319600485900360031b81901b82161691505b5092915050565b6001600160a01b03841681526040602082018190528101829052818360608301375f818301606090810191909152601f909201601f191601019291505056fea2646970667358221220e9ee79a91e9b90b3398fec0ff2cb6e06f0d6f2748f8f24f21e1ce8a0c0632b4b64736f6c634300081c0033","linkReferences":{}},"methodIdentifiers":{"authority()":"bf7e214f","getPolicy(bytes32)":"a3f685f9","getPolicyOrRevert(bytes32)":"f062cda4","isConsumingScheduledOp()":"8fb36037","policyActive(bytes32)":"12376524","removePolicy(bytes32)":"6f396179","setAuthority(address)":"7a9e5e4b","setPolicy(bytes32,uint256)":"fac45f6f"},"id":2}