{"abi":[{"type":"constructor","inputs":[{"name":"asset_","type":"address","internalType":"contract IERC20"},{"name":"authority_","type":"address","internalType":"address"},{"name":"supplyCap_","type":"uint256","internalType":"uint256"}],"stateMutability":"nonpayable"},{"type":"function","name":"allowance","inputs":[{"name":"owner","type":"address","internalType":"address"},{"name":"spender","type":"address","internalType":"address"}],"outputs":[{"name":"","type":"uint256","internalType":"uint256"}],"stateMutability":"view"},{"type":"function","name":"approve","inputs":[{"name":"spender","type":"address","internalType":"address"},{"name":"value","type":"uint256","internalType":"uint256"}],"outputs":[{"name":"","type":"bool","internalType":"bool"}],"stateMutability":"nonpayable"},{"type":"function","name":"asset","inputs":[],"outputs":[{"name":"","type":"address","internalType":"address"}],"stateMutability":"view"},{"type":"function","name":"authority","inputs":[],"outputs":[{"name":"","type":"address","internalType":"address"}],"stateMutability":"view"},{"type":"function","name":"availableLiquidity","inputs":[],"outputs":[{"name":"","type":"uint256","internalType":"uint256"}],"stateMutability":"view"},{"type":"function","name":"balanceOf","inputs":[{"name":"account","type":"address","internalType":"address"}],"outputs":[{"name":"","type":"uint256","internalType":"uint256"}],"stateMutability":"view"},{"type":"function","name":"claimReserves","inputs":[{"name":"treasury","type":"address","internalType":"address"},{"name":"amount","type":"uint256","internalType":"uint256"}],"outputs":[],"stateMutability":"nonpayable"},{"type":"function","name":"convertToAssets","inputs":[{"name":"shares","type":"uint256","internalType":"uint256"}],"outputs":[{"name":"","type":"uint256","internalType":"uint256"}],"stateMutability":"view"},{"type":"function","name":"convertToShares","inputs":[{"name":"assets","type":"uint256","internalType":"uint256"}],"outputs":[{"name":"","type":"uint256","internalType":"uint256"}],"stateMutability":"view"},{"type":"function","name":"decimals","inputs":[],"outputs":[{"name":"","type":"uint8","internalType":"uint8"}],"stateMutability":"view"},{"type":"function","name":"deposit","inputs":[{"name":"assets","type":"uint256","internalType":"uint256"},{"name":"receiver","type":"address","internalType":"address"}],"outputs":[{"name":"","type":"uint256","internalType":"uint256"}],"stateMutability":"nonpayable"},{"type":"function","name":"drawDebt","inputs":[{"name":"receiver","type":"address","internalType":"address"},{"name":"amount","type":"uint256","internalType":"uint256"}],"outputs":[],"stateMutability":"nonpayable"},{"type":"function","name":"isConsumingScheduledOp","inputs":[],"outputs":[{"name":"","type":"bytes4","internalType":"bytes4"}],"stateMutability":"view"},{"type":"function","name":"lendingCore","inputs":[],"outputs":[{"name":"","type":"address","internalType":"address"}],"stateMutability":"view"},{"type":"function","name":"maxDeposit","inputs":[{"name":"","type":"address","internalType":"address"}],"outputs":[{"name":"","type":"uint256","internalType":"uint256"}],"stateMutability":"view"},{"type":"function","name":"maxMint","inputs":[{"name":"","type":"address","internalType":"address"}],"outputs":[{"name":"","type":"uint256","internalType":"uint256"}],"stateMutability":"view"},{"type":"function","name":"maxRedeem","inputs":[{"name":"owner","type":"address","internalType":"address"}],"outputs":[{"name":"","type":"uint256","internalType":"uint256"}],"stateMutability":"view"},{"type":"function","name":"maxWithdraw","inputs":[{"name":"owner","type":"address","internalType":"address"}],"outputs":[{"name":"","type":"uint256","internalType":"uint256"}],"stateMutability":"view"},{"type":"function","name":"migratePrincipalIn","inputs":[{"name":"principalAmount","type":"uint256","internalType":"uint256"}],"outputs":[],"stateMutability":"nonpayable"},{"type":"function","name":"migratePrincipalOut","inputs":[{"name":"principalAmount","type":"uint256","internalType":"uint256"}],"outputs":[],"stateMutability":"nonpayable"},{"type":"function","name":"mint","inputs":[{"name":"shares","type":"uint256","internalType":"uint256"},{"name":"receiver","type":"address","internalType":"address"}],"outputs":[{"name":"","type":"uint256","internalType":"uint256"}],"stateMutability":"nonpayable"},{"type":"function","name":"name","inputs":[],"outputs":[{"name":"","type":"string","internalType":"string"}],"stateMutability":"view"},{"type":"function","name":"outstandingPrincipal","inputs":[],"outputs":[{"name":"","type":"uint256","internalType":"uint256"}],"stateMutability":"view"},{"type":"function","name":"pause","inputs":[],"outputs":[],"stateMutability":"nonpayable"},{"type":"function","name":"paused","inputs":[],"outputs":[{"name":"","type":"bool","internalType":"bool"}],"stateMutability":"view"},{"type":"function","name":"previewDeposit","inputs":[{"name":"assets","type":"uint256","internalType":"uint256"}],"outputs":[{"name":"","type":"uint256","internalType":"uint256"}],"stateMutability":"view"},{"type":"function","name":"previewMint","inputs":[{"name":"shares","type":"uint256","internalType":"uint256"}],"outputs":[{"name":"","type":"uint256","internalType":"uint256"}],"stateMutability":"view"},{"type":"function","name":"previewRedeem","inputs":[{"name":"shares","type":"uint256","internalType":"uint256"}],"outputs":[{"name":"","type":"uint256","internalType":"uint256"}],"stateMutability":"view"},{"type":"function","name":"previewWithdraw","inputs":[{"name":"assets","type":"uint256","internalType":"uint256"}],"outputs":[{"name":"","type":"uint256","internalType":"uint256"}],"stateMutability":"view"},{"type":"function","name":"recordLoss","inputs":[{"name":"principalLoss","type":"uint256","internalType":"uint256"}],"outputs":[],"stateMutability":"nonpayable"},{"type":"function","name":"recordRepayment","inputs":[{"name":"principalPaid","type":"uint256","internalType":"uint256"},{"name":"interestPaid","type":"uint256","internalType":"uint256"},{"name":"reserveFactorBps","type":"uint256","internalType":"uint256"}],"outputs":[],"stateMutability":"nonpayable"},{"type":"function","name":"redeem","inputs":[{"name":"shares","type":"uint256","internalType":"uint256"},{"name":"receiver","type":"address","internalType":"address"},{"name":"owner","type":"address","internalType":"address"}],"outputs":[{"name":"","type":"uint256","internalType":"uint256"}],"stateMutability":"nonpayable"},{"type":"function","name":"reserveBalance","inputs":[],"outputs":[{"name":"","type":"uint256","internalType":"uint256"}],"stateMutability":"view"},{"type":"function","name":"setAuthority","inputs":[{"name":"newAuthority","type":"address","internalType":"address"}],"outputs":[],"stateMutability":"nonpayable"},{"type":"function","name":"setLendingCore","inputs":[{"name":"lendingCore_","type":"address","internalType":"address"}],"outputs":[],"stateMutability":"nonpayable"},{"type":"function","name":"supplyCap","inputs":[],"outputs":[{"name":"","type":"uint256","internalType":"uint256"}],"stateMutability":"view"},{"type":"function","name":"symbol","inputs":[],"outputs":[{"name":"","type":"string","internalType":"string"}],"stateMutability":"view"},{"type":"function","name":"totalAssets","inputs":[],"outputs":[{"name":"","type":"uint256","internalType":"uint256"}],"stateMutability":"view"},{"type":"function","name":"totalSupply","inputs":[],"outputs":[{"name":"","type":"uint256","internalType":"uint256"}],"stateMutability":"view"},{"type":"function","name":"transfer","inputs":[{"name":"to","type":"address","internalType":"address"},{"name":"value","type":"uint256","internalType":"uint256"}],"outputs":[{"name":"","type":"bool","internalType":"bool"}],"stateMutability":"nonpayable"},{"type":"function","name":"transferFrom","inputs":[{"name":"from","type":"address","internalType":"address"},{"name":"to","type":"address","internalType":"address"},{"name":"value","type":"uint256","internalType":"uint256"}],"outputs":[{"name":"","type":"bool","internalType":"bool"}],"stateMutability":"nonpayable"},{"type":"function","name":"unpause","inputs":[],"outputs":[],"stateMutability":"nonpayable"},{"type":"function","name":"utilizationBps","inputs":[],"outputs":[{"name":"","type":"uint256","internalType":"uint256"}],"stateMutability":"view"},{"type":"function","name":"withdraw","inputs":[{"name":"assets","type":"uint256","internalType":"uint256"},{"name":"receiver","type":"address","internalType":"address"},{"name":"owner","type":"address","internalType":"address"}],"outputs":[{"name":"","type":"uint256","internalType":"uint256"}],"stateMutability":"nonpayable"},{"type":"event","name":"Approval","inputs":[{"name":"owner","type":"address","indexed":true,"internalType":"address"},{"name":"spender","type":"address","indexed":true,"internalType":"address"},{"name":"value","type":"uint256","indexed":false,"internalType":"uint256"}],"anonymous":false},{"type":"event","name":"AuthorityUpdated","inputs":[{"name":"authority","type":"address","indexed":false,"internalType":"address"}],"anonymous":false},{"type":"event","name":"DebtDrawn","inputs":[{"name":"receiver","type":"address","indexed":true,"internalType":"address"},{"name":"amount","type":"uint256","indexed":false,"internalType":"uint256"}],"anonymous":false},{"type":"event","name":"Deposit","inputs":[{"name":"sender","type":"address","indexed":true,"internalType":"address"},{"name":"owner","type":"address","indexed":true,"internalType":"address"},{"name":"assets","type":"uint256","indexed":false,"internalType":"uint256"},{"name":"shares","type":"uint256","indexed":false,"internalType":"uint256"}],"anonymous":false},{"type":"event","name":"LendingCoreSet","inputs":[{"name":"lendingCore","type":"address","indexed":true,"internalType":"address"}],"anonymous":false},{"type":"event","name":"LossRecorded","inputs":[{"name":"principalLoss","type":"uint256","indexed":false,"internalType":"uint256"}],"anonymous":false},{"type":"event","name":"Paused","inputs":[{"name":"account","type":"address","indexed":false,"internalType":"address"}],"anonymous":false},{"type":"event","name":"PrincipalMigratedIn","inputs":[{"name":"principalAmount","type":"uint256","indexed":false,"internalType":"uint256"}],"anonymous":false},{"type":"event","name":"PrincipalMigratedOut","inputs":[{"name":"principalAmount","type":"uint256","indexed":false,"internalType":"uint256"}],"anonymous":false},{"type":"event","name":"RepaymentRecorded","inputs":[{"name":"principalPaid","type":"uint256","indexed":false,"internalType":"uint256"},{"name":"interestPaid","type":"uint256","indexed":false,"internalType":"uint256"},{"name":"reserveCut","type":"uint256","indexed":false,"internalType":"uint256"}],"anonymous":false},{"type":"event","name":"ReservesClaimed","inputs":[{"name":"treasury","type":"address","indexed":true,"internalType":"address"},{"name":"amount","type":"uint256","indexed":false,"internalType":"uint256"}],"anonymous":false},{"type":"event","name":"Transfer","inputs":[{"name":"from","type":"address","indexed":true,"internalType":"address"},{"name":"to","type":"address","indexed":true,"internalType":"address"},{"name":"value","type":"uint256","indexed":false,"internalType":"uint256"}],"anonymous":false},{"type":"event","name":"Unpaused","inputs":[{"name":"account","type":"address","indexed":false,"internalType":"address"}],"anonymous":false},{"type":"event","name":"Withdraw","inputs":[{"name":"sender","type":"address","indexed":true,"internalType":"address"},{"name":"receiver","type":"address","indexed":true,"internalType":"address"},{"name":"owner","type":"address","indexed":true,"internalType":"address"},{"name":"assets","type":"uint256","indexed":false,"internalType":"uint256"},{"name":"shares","type":"uint256","indexed":false,"internalType":"uint256"}],"anonymous":false},{"type":"error","name":"AccessManagedInvalidAuthority","inputs":[{"name":"authority","type":"address","internalType":"address"}]},{"type":"error","name":"AccessManagedRequiredDelay","inputs":[{"name":"caller","type":"address","internalType":"address"},{"name":"delay","type":"uint32","internalType":"uint32"}]},{"type":"error","name":"AccessManagedUnauthorized","inputs":[{"name":"caller","type":"address","internalType":"address"}]},{"type":"error","name":"ERC20InsufficientAllowance","inputs":[{"name":"spender","type":"address","internalType":"address"},{"name":"allowance","type":"uint256","internalType":"uint256"},{"name":"needed","type":"uint256","internalType":"uint256"}]},{"type":"error","name":"ERC20InsufficientBalance","inputs":[{"name":"sender","type":"address","internalType":"address"},{"name":"balance","type":"uint256","internalType":"uint256"},{"name":"needed","type":"uint256","internalType":"uint256"}]},{"type":"error","name":"ERC20InvalidApprover","inputs":[{"name":"approver","type":"address","internalType":"address"}]},{"type":"error","name":"ERC20InvalidReceiver","inputs":[{"name":"receiver","type":"address","internalType":"address"}]},{"type":"error","name":"ERC20InvalidSender","inputs":[{"name":"sender","type":"address","internalType":"address"}]},{"type":"error","name":"ERC20InvalidSpender","inputs":[{"name":"spender","type":"address","internalType":"address"}]},{"type":"error","name":"ERC4626ExceededMaxDeposit","inputs":[{"name":"receiver","type":"address","internalType":"address"},{"name":"assets","type":"uint256","internalType":"uint256"},{"name":"max","type":"uint256","internalType":"uint256"}]},{"type":"error","name":"ERC4626ExceededMaxMint","inputs":[{"name":"receiver","type":"address","internalType":"address"},{"name":"shares","type":"uint256","internalType":"uint256"},{"name":"max","type":"uint256","internalType":"uint256"}]},{"type":"error","name":"ERC4626ExceededMaxRedeem","inputs":[{"name":"owner","type":"address","internalType":"address"},{"name":"shares","type":"uint256","internalType":"uint256"},{"name":"max","type":"uint256","internalType":"uint256"}]},{"type":"error","name":"ERC4626ExceededMaxWithdraw","inputs":[{"name":"owner","type":"address","internalType":"address"},{"name":"assets","type":"uint256","internalType":"uint256"},{"name":"max","type":"uint256","internalType":"uint256"}]},{"type":"error","name":"EnforcedPause","inputs":[]},{"type":"error","name":"ExpectedPause","inputs":[]},{"type":"error","name":"InsufficientLiquidity","inputs":[{"name":"requested","type":"uint256","internalType":"uint256"},{"name":"available","type":"uint256","internalType":"uint256"}]},{"type":"error","name":"InvalidConfiguration","inputs":[]},{"type":"error","name":"LendingCoreAlreadySet","inputs":[]},{"type":"error","name":"OnlyLendingCore","inputs":[]},{"type":"error","name":"ReentrancyGuardReentrantCall","inputs":[]},{"type":"error","name":"SafeERC20FailedOperation","inputs":[{"name":"token","type":"address","internalType":"address"}]},{"type":"error","name":"SupplyCapExceeded","inputs":[{"name":"attempted","type":"uint256","internalType":"uint256"},{"name":"cap","type":"uint256","internalType":"uint256"}]}],"bytecode":{"object":"0x60e080604052346104bd57606081612078803803809161001f82856104c1565b8339810103126104bd5780516001600160a01b038116908181036104bd5760208301516001600160a01b03811693908490036104bd5760400151926040516100686040826104c1565b601681527f4475616c564d205553444320506f6f6c205368617265000000000000000000006020820152604051906100a16040836104c1565b600682526564765553444360d01b60208301528051906001600160401b0382116103c05760035490600182811c921680156104b3575b60208310146103a25781601f849311610445575b50602090601f83116001146103df575f926103d4575b50508160011b915f199060031b1c1916176003555b8051906001600160401b0382116103c057600454600181811c911680156103b6575b60208210146103a257601f811161033f575b50602090601f83116001146102c8579180602094925f5160206120585f395f51905f5296945f926102bd575b50508160011b915f199060031b1c1916176004555b6040519160405f85850163313ce56760e01b8152600486526101ae6024876104c1565b855190895afa5f519084604052806102b3575b806102a8575b156102a05760ff1660015b15610298575b60a052608052600580546001600160a01b031916821790558152a160017f9b779b17422d0df92223018b32b4d1fa46e071723d6817e2486d003becc55f0055158015610290575b6102815760c052604051611b7390816104e58239608051818181610c1001528181610d0b01528181610e21015281816112240152818161186f0152611a11015260a05181610d4e015260c051818181610781015281816111a101526117a40152f35b63c52a9bd360e01b5f5260045ffd5b50801561021f565b5060126101d8565b505f806101d2565b5060ff8111156101c7565b50843d10156101c1565b015190505f80610176565b90601f1983169160045f52815f20925f5b81811061032757509260019285925f5160206120585f395f51905f529896602098961061030f575b505050811b0160045561018b565b01515f1960f88460031b161c191690555f8080610301565b929360206001819287860151815501950193016102d9565b60045f527f8a35acfbc15ff81a39ae7d344fd709f28e8600b4aa8c65c6b64bfe7fe36bd19b601f840160051c81019160208510610398575b601f0160051c01905b81811061038d575061014a565b5f8155600101610380565b9091508190610377565b634e487b7160e01b5f52602260045260245ffd5b90607f1690610138565b634e487b7160e01b5f52604160045260245ffd5b015190505f80610101565b60035f9081528281209350601f198516905b81811061042d5750908460019594939210610415575b505050811b01600355610116565b01515f1960f88460031b161c191690555f8080610407565b929360206001819287860151815501950193016103f1565b60035f529091507fc2575a0e9e593c00f959f8c92f12db2869c3395a3b0502d05e2516446f71f85b601f840160051c810191602085106104a9575b90601f859493920160051c01905b81811061049b57506100eb565b5f815584935060010161048e565b9091508190610480565b91607f16916100d7565b5f80fd5b601f909101601f19168101906001600160401b038211908210176103c05760405256fe60806040526004361015610011575f80fd5b5f3560e01c806301e1d1141461104857806306fdde0314610f8d57806307a2d13a14610b8b578063095ea7b314610ee55780630a28a47714610ec757806318160ddd14610eaa57806323b872dd14610e7257806323d86fb414610d9e57806329b1829e14610d81578063313ce56714610d3a57806338d52e0f14610cf65780633f4ba83a14610c86578063402d267d14610c6257806346c2242914610b905780634cdad50614610b8b578063529c8aac14610b345780635c975abb14610b0f5780635ca9cf2714610a465780635e154201146109e75780636022743e1461096d5780636e553f65146108ee57806370a08231146108d057806374375359146108b65780637a9e5e4b146108075780638456cb59146107a45780638f770ad01461076a5780638fb360371461072657806394bf804d1461069d57806395d89b4114610599578063975e900e1461057f578063a10954fe14610562578063a9059cbb14610531578063b3d7f6b914610513578063b460af941461049f578063ba087652146103e7578063bf7e214f146103bf578063c63d75b614610398578063c6e6f59214610297578063ce96cb771461036d578063d905777e14610314578063dd62ed3e146102c4578063e1b6e43c1461029c578063ef8b30f7146102975763fe6acb1f146101fd575f80fd5b34610293576020366003190112610293576102166110b6565b6102203633611651565b6001600160a01b03168015610284576006546001600160a01b038116610275576001600160a01b03191681176006557f5391b0a396c45d8914973b618156a2deeacf2e9443205191414a85f2af7b08325f80a2005b63dbdc816960e01b5f5260045ffd5b63c52a9bd360e01b5f5260045ffd5b5f80fd5b61111c565b34610293575f366003190112610293576006546040516001600160a01b039091168152602090f35b34610293576040366003190112610293576102dd6110b6565b6102e56110cc565b6001600160a01b039182165f908152600160209081526040808320949093168252928352819020549051908152f35b3461029357602036600319011261029357602061034c6103326110b6565b6001600160a01b03165f9081526020819052604090205490565b61035c610357611209565b6113c1565b908180821091180218604051908152f35b3461029357602036600319011261029357602061039061038b6110b6565b6112e7565b604051908152f35b34610293576020366003190112610293576103b16110b6565b50602061039061035761118a565b34610293575f366003190112610293576005546040516001600160a01b039091168152602090f35b34610293576103f5366110e2565b90916103ff611551565b610407611589565b61041861041382611360565b6115a7565b6001600160a01b0382165f9081526020819052604090205461043b610357611209565b90818082109118021880821161047e57508060209361045c61046593611360565b9384913361196c565b60015f516020611b1e5f395f51905f5255604051908152f35b91632e52afbb60e21b5f5260018060a01b031660045260245260445260645ffd5b34610293576104ad366110e2565b90916104b7611551565b6104bf611589565b6104c8816115a7565b6104d1826112e7565b8082116104f25750602092816104e961046593611390565b9384923361196c565b91633fa733bb60e21b5f5260018060a01b031660045260245260445260645ffd5b3461029357602036600319011261029357602061039060043561132f565b346102935760403660031901126102935761055761054d6110b6565b6024359033611494565b602060405160018152f35b34610293575f366003190112610293576020600854604051908152f35b34610293575f3660031901126102935760206103906112ae565b34610293575f366003190112610293576040515f6004548060011c90600181168015610693575b60208310811461067f5782855290811561065b57506001146105fd575b6105f9836105ed81850382611147565b6040519182918261106e565b0390f35b91905060045f527f8a35acfbc15ff81a39ae7d344fd709f28e8600b4aa8c65c6b64bfe7fe36bd19b915f905b808210610641575090915081016020016105ed6105dd565b919260018160209254838588010152019101909291610629565b60ff191660208086019190915291151560051b840190910191506105ed90506105dd565b634e487b7160e01b5f52602260045260245ffd5b91607f16916105c0565b34610293576040366003190112610293576004356106b96110cc565b906106c2611551565b6106ca611589565b6106db6106d68261132f565b611793565b6106e661035761118a565b80821161070557602083610465846106fd8161132f565b809333611842565b9163284ff66760e01b5f5260018060a01b031660045260245260445260645ffd5b34610293575f3660031901126102935760055460a01c60ff1615610762576020638fb3603760e01b5b6040516001600160e01b03199091168152f35b60205f61074f565b34610293575f3660031901126102935760206040517f00000000000000000000000000000000000000000000000000000000000000008152f35b34610293575f366003190112610293576107be3633611651565b6107c6611589565b6005805460ff60a81b1916600160a81b1790556040513381527f62e78cea01bee320cd4e420270b5ea74000d11b0c9f74754ebdbfc544b05a25890602090a1005b34610293576020366003190112610293576108206110b6565b6005546001600160a01b03811633036108a457813b15610883576001600160a01b0319166001600160a01b039091169081176005556040519081527f2f658b440c35314f52658ea8a740e05b284cdc84dc9ae01e891f21b8933e7cad90602090a1005b506361798f2f60e11b5f9081526001600160a01b0391909116600452602490fd5b62d1953b60e31b5f523360045260245ffd5b34610293575f366003190112610293576020610390611209565b346102935760203660031901126102935760206103906103326110b6565b346102935760403660031901126102935760043561090a6110cc565b90610913611551565b61091b611589565b61092481611793565b61092c61118a565b80821161094c5750610465602092610943836113c1565b92839133611842565b91633c8097d960e11b5f5260018060a01b031660045260245260445260645ffd5b3461029357602036600319011261029357600654600435906001600160a01b031633036109d85760075480821161028457816109cc7fe9cdbf90cf9271cb882854f4919e4fc8a84f57c6b0bc2c3b5b6bf6f6b8755fa39360209361117d565b600755604051908152a1005b633f4fa30960e01b5f5260045ffd5b3461029357602036600319011261029357600654600435906001600160a01b031633036109d85760075480821161028457816109cc7f6360f539412c7dbed364d8dc85a2fc76cf962184cbbffa31d1e918410cfea9ea9360209361117d565b34610293576060366003190112610293576006546024359060443590600435906001600160a01b031633036109d85761271082118015610b04575b61028457610a918160075461117d565b600755818302918383041483151715610af0577fbc6967a735834262f5f48ab97d87f37ed787cff38e148bd3511b08a39208a6f2926127106060930490610ada8260085461113a565b60085560405192835260208301526040820152a1005b634e487b7160e01b5f52601160045260245ffd5b506007548111610a81565b34610293575f36600319011261029357602060ff60055460a81c166040519015158152f35b3461029357602036600319011261029357600654600435906001600160a01b031633036109d8576020816109cc7f6babf13de62d2da76a06bcec6e53c5e19807b9a56bed4ff572c765c3e5d9601a9360075461113a565b611098565b3461029357604036600319011261029357610ba96110b6565b602435610bb63633611651565b610bbe611551565b6001600160a01b0382169182158015610c57575b6102845781610c3d81602093610c0b7f0b097555d698b3b7a48e8755d626e78a04d9fba244db9a58722cbf27741bdb5a9660085461117d565b6008557f00000000000000000000000000000000000000000000000000000000000000006001600160a01b03166115d0565b604051908152a260015f516020611b1e5f395f51905f5255005b506008548211610bd2565b3461029357602036600319011261029357610c7b6110b6565b50602061039061118a565b34610293575f36600319011261029357610ca03633611651565b60055460ff8160a81c1615610ce75760ff60a81b19166005556040513381527f5db9ee0a495bf2e6ff9c91a7834c1ba4fdd244a5e8aa4e537bd38aeae4b073aa90602090a1005b638dfc202b60e01b5f5260045ffd5b34610293575f366003190112610293576040517f00000000000000000000000000000000000000000000000000000000000000006001600160a01b03168152602090f35b34610293575f3660031901126102935760ff7f00000000000000000000000000000000000000000000000000000000000000001660ff8111610af057602090604051908152f35b34610293575f366003190112610293576020600754604051908152f35b3461029357604036600319011261029357610db76110b6565b60065460243591906001600160a01b031633036109d85760207f953585d34e25ee0d058ccd2e8c7d5a786b91c1359e1694fc1c6c93467d76c2e591610dfa611551565b610e02611589565b610e0b846115a7565b610e178460075461113a565b600755610e4e84827f00000000000000000000000000000000000000000000000000000000000000006001600160a01b03166115d0565b6040519384526001600160a01b031692a260015f516020611b1e5f395f51905f5255005b3461029357606036600319011261029357610557610e8e6110b6565b610e966110cc565b60443591610ea58333836113f1565b611494565b34610293575f366003190112610293576020600254604051908152f35b34610293576020366003190112610293576020610390600435611390565b3461029357604036600319011261029357610efe6110b6565b602435903315610f7a576001600160a01b0316908115610f6757335f52600160205260405f20825f526020528060405f20556040519081527f8c5be1e5ebec7d5bd14f71427d1e84f3dd0314c0f7b2291e5b200ac8c7c3b92560203392a3602060405160018152f35b634a1406b160e11b5f525f60045260245ffd5b63e602df0560e01b5f525f60045260245ffd5b34610293575f366003190112610293576040515f6003548060011c9060018116801561103e575b60208310811461067f5782855290811561065b5750600114610fe0576105f9836105ed81850382611147565b91905060035f527fc2575a0e9e593c00f959f8c92f12db2869c3395a3b0502d05e2516446f71f85b915f905b808210611024575090915081016020016105ed6105dd565b91926001816020925483858801015201910190929161100c565b91607f1691610fb4565b34610293575f366003190112610293576020610390611065611209565b6007549061113a565b602060409281835280519182918282860152018484015e5f828201840152601f01601f1916010190565b34610293576020366003190112610293576020610390600435611360565b600435906001600160a01b038216820361029357565b602435906001600160a01b038216820361029357565b606090600319011261029357600435906024356001600160a01b038116810361029357906044356001600160a01b03811681036102935790565b346102935760203660031901126102935760206103906004356113c1565b91908201809211610af057565b90601f8019910116810190811067ffffffffffffffff82111761116957604052565b634e487b7160e01b5f52604160045260245ffd5b91908203918211610af057565b611192611209565b61119f600754809261113a565b7f0000000000000000000000000000000000000000000000000000000000000000809110156111e5576111dc6111e2926111d7611209565b61113a565b9061117d565b90565b50505f90565b81156111f5570490565b634e487b7160e01b5f52601260045260245ffd5b6040516370a0823160e01b81523060048201526020816024817f00000000000000000000000000000000000000000000000000000000000000006001600160a01b03165afa9081156112a3575f91611271575b50600854808211156111e5576111e29161117d565b90506020813d60201161129b575b8161128c60209383611147565b8101031261029357515f61125c565b3d915061127f565b6040513d5f823e3d90fd5b6112b6611209565b6112c3600754809261113a565b80156111e5576127108202918083046127101490151715610af0576111e2916111eb565b6001600160a01b03165f9081526020819052604090205461131b9061130d610357611209565b908180821091180218611360565b611323611209565b90818082109118021890565b61133a611065611209565b9060018201809211610af05760025460018101809111610af0576111e2926001926117e4565b61136b611065611209565b9060018201809211610af05760025460018101809111610af0576111e2925f926117e4565b6002549060018201809211610af0576113aa611065611209565b60018101809111610af0576111e2926001926117e4565b6002549060018201809211610af0576113db611065611209565b60018101809111610af0576111e2925f926117e4565b6001600160a01b039081165f818152600160209081526040808320948616835293905291909120549291905f19841061142b575b50505050565b828410611471578015610f7a576001600160a01b03821615610f67575f52600160205260405f209060018060a01b03165f5260205260405f20910390555f808080611425565b508290637dc7a0d960e11b5f5260018060a01b031660045260245260445260645ffd5b6001600160a01b031690811561153e576001600160a01b031691821561152b57815f525f60205260405f205481811061151257817fddf252ad1be2c89b69c2b068fc378daa952ba7f163c4a11628f55a4df523b3ef92602092855f525f84520360405f2055845f525f825260405f20818154019055604051908152a3565b8263391434e360e21b5f5260045260245260445260645ffd5b63ec442f0560e01b5f525f60045260245ffd5b634b637e8f60e11b5f525f60045260245ffd5b60025f516020611b1e5f395f51905f52541461157a5760025f516020611b1e5f395f51905f5255565b633ee5aeb560e01b5f5260045ffd5b60ff60055460a81c1661159857565b63d93c066560e01b5f5260045ffd5b6115af611209565b908181116115bb575050565b63a17e11d560e01b5f5260045260245260445ffd5b916040519163a9059cbb60e01b5f5260018060a01b031660045260245260205f60448180865af19060015f5114821615611630575b604052156116105750565b635274afe760e01b5f9081526001600160a01b0391909116600452602490fd5b90600181151661164857823b15153d15161690611605565b503d5f823e3d90fd5b6005546001600160a01b038116929060048210610293575f5f9060405f815196602088019063b700961360e01b825260018060a01b03169788602482015230604482015263ffffffff60e01b8335166064820152606481526116b4608482611147565b828052826020525190895afa611780575b156116d2575b5050505050565b63ffffffff161561176e5760ff60a01b1916600160a01b17600555823b15610293576064925f9283604051958680958194634a63ebf760e11b83526004830152604060248301528060448301528084848401378181018301849052601f01601f191681010301925af180156112a35761175e575b506005805460ff60a01b191690555f808080806116cb565b5f61176891611147565b5f611746565b8262d1953b60e31b5f5260045260245ffd5b50505f516020518060201c1502906116c5565b6117a2906111d7611065611209565b7f0000000000000000000000000000000000000000000000000000000000000000908181116117cf575050565b634b344b1160e01b5f5260045260245260445ffd5b92916117f1818386611a7f565b92600481101561182e576001809116149182611817575b50506111e2925015159061113a565b90809250156111f5576111e2930915155f80611808565b634e487b7160e01b5f52602160045260245ffd5b6040516323b872dd60e01b5f9081526001600160a01b0392831660048190523060245260448690529493927f000000000000000000000000000000000000000000000000000000000000000016919060209060648180865af19060015f5114821615611954575b6040525f6060521561194257506001600160a01b031692831561152b577fdcbc1c05240f31ff3ad067ef1ee35ce4997762752e3a095284754544f4c709d791816118f760409360025461113a565b600255855f525f602052825f20818154019055855f7fddf252ad1be2c89b69c2b068fc378daa952ba7f163c4a11628f55a4df523b3ef60208651858152a382519182526020820152a3565b635274afe760e01b5f5260045260245ffd5b90600181151661164857823b15153d151616906118a9565b6001600160a01b03808416959082169390918290878603611a6e575b505050841561153e57845f525f60205260405f2054818110611a555791816040927ffbde797d201c681b91056529119e0b02407c7bb96a4a2c75c01fc9667232c8db94885f525f60205203835f205580600254036002555f877fddf252ad1be2c89b69c2b068fc378daa952ba7f163c4a11628f55a4df523b3ef60208651858152a3611a3e86837f00000000000000000000000000000000000000000000000000000000000000006001600160a01b03166115d0565b825195865260208601526001600160a01b031693a4565b8563391434e360e21b5f5260045260245260445260645ffd5b611a77926113f1565b5f8181611988565b90915f198383099280830292838086109503948086039514611b105784831115611af85790829109815f0382168092046002816003021880820260020302808202600203028082026002030280820260020302808202600203028091026002030293600183805f03040190848311900302920304170290565b82634e487b715f52156003026011186020526024601cfd5b5050906111e292506111eb56fe9b779b17422d0df92223018b32b4d1fa46e071723d6817e2486d003becc55f00a26469706673582212206767ccadc64e359fe62cbe3c34d7d48ce6a69d903d2afed442c68c4e9bb68acb64736f6c634300081c00332f658b440c35314f52658ea8a740e05b284cdc84dc9ae01e891f21b8933e7cad","linkReferences":{}},"methodIdentifiers":{"allowance(address,address)":"dd62ed3e","approve(address,uint256)":"095ea7b3","asset()":"38d52e0f","authority()":"bf7e214f","availableLiquidity()":"74375359","balanceOf(address)":"70a08231","claimReserves(address,uint256)":"46c22429","convertToAssets(uint256)":"07a2d13a","convertToShares(uint256)":"c6e6f592","decimals()":"313ce567","deposit(uint256,address)":"6e553f65","drawDebt(address,uint256)":"23d86fb4","isConsumingScheduledOp()":"8fb36037","lendingCore()":"e1b6e43c","maxDeposit(address)":"402d267d","maxMint(address)":"c63d75b6","maxRedeem(address)":"d905777e","maxWithdraw(address)":"ce96cb77","migratePrincipalIn(uint256)":"529c8aac","migratePrincipalOut(uint256)":"5e154201","mint(uint256,address)":"94bf804d","name()":"06fdde03","outstandingPrincipal()":"29b1829e","pause()":"8456cb59","paused()":"5c975abb","previewDeposit(uint256)":"ef8b30f7","previewMint(uint256)":"b3d7f6b9","previewRedeem(uint256)":"4cdad506","previewWithdraw(uint256)":"0a28a477","recordLoss(uint256)":"6022743e","recordRepayment(uint256,uint256,uint256)":"5ca9cf27","redeem(uint256,address,address)":"ba087652","reserveBalance()":"a10954fe","setAuthority(address)":"7a9e5e4b","setLendingCore(address)":"fe6acb1f","supplyCap()":"8f770ad0","symbol()":"95d89b41","totalAssets()":"01e1d114","totalSupply()":"18160ddd","transfer(address,uint256)":"a9059cbb","transferFrom(address,address,uint256)":"23b872dd","unpause()":"3f4ba83a","utilizationBps()":"975e900e","withdraw(uint256,address,address)":"b460af94"},"id":0}