{"abi":[{"type":"function","name":"callbackFingerprint","inputs":[{"name":"receiver","type":"address","internalType":"address"},{"name":"callId","type":"bytes32","internalType":"bytes32"}],"outputs":[],"stateMutability":"nonpayable"},{"type":"function","name":"callbackQuote","inputs":[{"name":"receiver","type":"address","internalType":"address"},{"name":"callId","type":"bytes32","internalType":"bytes32"},{"name":"input","type":"tuple","internalType":"struct IRiskEngine.QuoteInput","components":[{"name":"utilizationBps","type":"uint256","internalType":"uint256"},{"name":"collateralRatioBps","type":"uint256","internalType":"uint256"},{"name":"oracleAgeSeconds","type":"uint256","internalType":"uint256"},{"name":"oracleFresh","type":"bool","internalType":"bool"},{"name":"policyMaxLtvBps","type":"uint256","internalType":"uint256"},{"name":"policyLiqThresholdBps","type":"uint256","internalType":"uint256"},{"name":"policyBorrowRateFloorBps","type":"uint256","internalType":"uint256"}]}],"outputs":[],"stateMutability":"nonpayable"},{"type":"error","name":"InvalidReceiver","inputs":[]}],"bytecode":{"object":"0x608080604052346015576103ca908161001a8239f35b5f80fdfe6080806040526004361015610012575f80fd5b5f905f3560e01c908163598b2c9314610128575063c24b543014610034575f80fd5b34610103576101203660031901126101035761004e61020f565b60e0366043190112610124576001600160a01b0316801561011557819061007361025b565b8051602082019081516040840151604051916020830193845260408301526060820152606081526100a5608082610225565b5190209151905192803b15610111578492836084926040519687958694632dea07ab60e01b865260243560048701526024860152604485015260648401525af18015610106576100f25750f35b816100fc91610225565b6101035780f35b80fd5b6040513d84823e3d90fd5b8480fd5b631e4ec46b60e01b8252600482fd5b5080fd5b9050346101fc5760403660031901126101fc5761014361020f565b6001600160a01b0316906024359082156102005760208101907f5f3b2531ce9b80339217b828dcb868480b2ef42ba094862da14ba94602c6db9382528360408201528260608201526060815261019a608082610225565b519020823b156101fc5760845f92836040519586948593632dea07ab60e01b85526004850152602484015260016044840152600260648401525af180156101f1576101e3575080f35b6101ef91505f90610225565b005b6040513d5f823e3d90fd5b5f80fd5b631e4ec46b60e01b5f5260045ffd5b600435906001600160a01b03821682036101fc57565b90601f8019910116810190811067ffffffffffffffff82111761024757604052565b634e487b7160e01b5f52604160045260245ffd5b604051906060820182811067ffffffffffffffff821117610247576040525f82525f60208301525f604083015281610294604435610317565b80825260a4358015908115036101fc576102ee5750506136b06064351080156102e1575b156102cf576119646020830152611e786040830152565b611d4c60208301526121346040830152565b50610708608435116102b8565b909192506103e8810180911161030357815290565b634e487b7160e01b5f52601160045260245ffd5b61271081111561038f57506127105b611f4081111561036757611f3f19810190811161030357610bb8810290808204610bb81490151715610303576107d090046103e801806103e8116103035790565b610320810290808204610320149015171561030357611f40900460c8018060c8116103035790565b61032656fea2646970667358221220cbc929a7cafbf0e44342b1790281ce7f5758c6f9693505570626910ab3001bbf64736f6c634300081c0033","linkReferences":{}},"methodIdentifiers":{"callbackFingerprint(address,bytes32)":"598b2c93","callbackQuote(address,bytes32,(uint256,uint256,uint256,bool,uint256,uint256,uint256))":"c24b5430"},"id":22}