{"abi":[{"type":"constructor","inputs":[{"name":"authority_","type":"address","internalType":"address"},{"name":"quoteEngine_","type":"address","internalType":"address"},{"name":"config_","type":"tuple","internalType":"struct RiskAdapter.RiskModelConfig","components":[{"name":"baseRateBps","type":"uint256","internalType":"uint256"},{"name":"slope1Bps","type":"uint256","internalType":"uint256"},{"name":"slope2Bps","type":"uint256","internalType":"uint256"},{"name":"kinkBps","type":"uint256","internalType":"uint256"},{"name":"healthyMaxLtvBps","type":"uint256","internalType":"uint256"},{"name":"stressedMaxLtvBps","type":"uint256","internalType":"uint256"},{"name":"healthyLiquidationThresholdBps","type":"uint256","internalType":"uint256"},{"name":"stressedLiquidationThresholdBps","type":"uint256","internalType":"uint256"},{"name":"staleBorrowRatePenaltyBps","type":"uint256","internalType":"uint256"},{"name":"stressedCollateralRatioBps","type":"uint256","internalType":"uint256"}]}],"stateMutability":"nonpayable"},{"type":"function","name":"authority","inputs":[],"outputs":[{"name":"","type":"address","internalType":"address"}],"stateMutability":"view"},{"type":"function","name":"baseRateBps","inputs":[],"outputs":[{"name":"","type":"uint256","internalType":"uint256"}],"stateMutability":"view"},{"type":"function","name":"getQuoteTicket","inputs":[{"name":"ticketId","type":"bytes32","internalType":"bytes32"}],"outputs":[{"name":"","type":"tuple","internalType":"struct IRiskAdapter.QuoteTicket","components":[{"name":"inputHash","type":"bytes32","internalType":"bytes32"},{"name":"outputHash","type":"bytes32","internalType":"bytes32"},{"name":"oracleEpoch","type":"uint256","internalType":"uint256"},{"name":"configEpoch","type":"uint256","internalType":"uint256"},{"name":"oracleStateHash","type":"bytes32","internalType":"bytes32"},{"name":"configHash","type":"bytes32","internalType":"bytes32"},{"name":"borrowRateBps","type":"uint256","internalType":"uint256"},{"name":"maxLtvBps","type":"uint256","internalType":"uint256"},{"name":"liquidationThresholdBps","type":"uint256","internalType":"uint256"},{"name":"publishedAt","type":"uint256","internalType":"uint256"},{"name":"publisher","type":"address","internalType":"address"}]}],"stateMutability":"view"},{"type":"function","name":"healthyLiquidationThresholdBps","inputs":[],"outputs":[{"name":"","type":"uint256","internalType":"uint256"}],"stateMutability":"view"},{"type":"function","name":"healthyMaxLtvBps","inputs":[],"outputs":[{"name":"","type":"uint256","internalType":"uint256"}],"stateMutability":"view"},{"type":"function","name":"isConsumingScheduledOp","inputs":[],"outputs":[{"name":"","type":"bytes4","internalType":"bytes4"}],"stateMutability":"view"},{"type":"function","name":"kinkBps","inputs":[],"outputs":[{"name":"","type":"uint256","internalType":"uint256"}],"stateMutability":"view"},{"type":"function","name":"quote","inputs":[{"name":"input","type":"tuple","internalType":"struct IRiskEngine.QuoteInput","components":[{"name":"utilizationBps","type":"uint256","internalType":"uint256"},{"name":"collateralRatioBps","type":"uint256","internalType":"uint256"},{"name":"oracleAgeSeconds","type":"uint256","internalType":"uint256"},{"name":"oracleFresh","type":"bool","internalType":"bool"}]}],"outputs":[{"name":"","type":"tuple","internalType":"struct IRiskEngine.QuoteOutput","components":[{"name":"borrowRateBps","type":"uint256","internalType":"uint256"},{"name":"maxLtvBps","type":"uint256","internalType":"uint256"},{"name":"liquidationThresholdBps","type":"uint256","internalType":"uint256"}]}],"stateMutability":"view"},{"type":"function","name":"quoteEngine","inputs":[],"outputs":[{"name":"","type":"address","internalType":"contract IRiskEngine"}],"stateMutability":"view"},{"type":"function","name":"quoteTicketId","inputs":[{"name":"context","type":"tuple","internalType":"struct IRiskAdapter.QuoteContext","components":[{"name":"oracleEpoch","type":"uint256","internalType":"uint256"},{"name":"configEpoch","type":"uint256","internalType":"uint256"},{"name":"oracleStateHash","type":"bytes32","internalType":"bytes32"},{"name":"configHash","type":"bytes32","internalType":"bytes32"}]},{"name":"input","type":"tuple","internalType":"struct IRiskEngine.QuoteInput","components":[{"name":"utilizationBps","type":"uint256","internalType":"uint256"},{"name":"collateralRatioBps","type":"uint256","internalType":"uint256"},{"name":"oracleAgeSeconds","type":"uint256","internalType":"uint256"},{"name":"oracleFresh","type":"bool","internalType":"bool"}]}],"outputs":[{"name":"","type":"bytes32","internalType":"bytes32"}],"stateMutability":"pure"},{"type":"function","name":"quoteViaTicket","inputs":[{"name":"context","type":"tuple","internalType":"struct IRiskAdapter.QuoteContext","components":[{"name":"oracleEpoch","type":"uint256","internalType":"uint256"},{"name":"configEpoch","type":"uint256","internalType":"uint256"},{"name":"oracleStateHash","type":"bytes32","internalType":"bytes32"},{"name":"configHash","type":"bytes32","internalType":"bytes32"}]},{"name":"input","type":"tuple","internalType":"struct IRiskEngine.QuoteInput","components":[{"name":"utilizationBps","type":"uint256","internalType":"uint256"},{"name":"collateralRatioBps","type":"uint256","internalType":"uint256"},{"name":"oracleAgeSeconds","type":"uint256","internalType":"uint256"},{"name":"oracleFresh","type":"bool","internalType":"bool"}]}],"outputs":[{"name":"output","type":"tuple","internalType":"struct IRiskEngine.QuoteOutput","components":[{"name":"borrowRateBps","type":"uint256","internalType":"uint256"},{"name":"maxLtvBps","type":"uint256","internalType":"uint256"},{"name":"liquidationThresholdBps","type":"uint256","internalType":"uint256"}]}],"stateMutability":"nonpayable"},{"type":"function","name":"setAuthority","inputs":[{"name":"newAuthority","type":"address","internalType":"address"}],"outputs":[],"stateMutability":"nonpayable"},{"type":"function","name":"slope1Bps","inputs":[],"outputs":[{"name":"","type":"uint256","internalType":"uint256"}],"stateMutability":"view"},{"type":"function","name":"slope2Bps","inputs":[],"outputs":[{"name":"","type":"uint256","internalType":"uint256"}],"stateMutability":"view"},{"type":"function","name":"staleBorrowRatePenaltyBps","inputs":[],"outputs":[{"name":"","type":"uint256","internalType":"uint256"}],"stateMutability":"view"},{"type":"function","name":"stressedCollateralRatioBps","inputs":[],"outputs":[{"name":"","type":"uint256","internalType":"uint256"}],"stateMutability":"view"},{"type":"function","name":"stressedLiquidationThresholdBps","inputs":[],"outputs":[{"name":"","type":"uint256","internalType":"uint256"}],"stateMutability":"view"},{"type":"function","name":"stressedMaxLtvBps","inputs":[],"outputs":[{"name":"","type":"uint256","internalType":"uint256"}],"stateMutability":"view"},{"type":"event","name":"AuthorityUpdated","inputs":[{"name":"authority","type":"address","indexed":false,"internalType":"address"}],"anonymous":false},{"type":"event","name":"CrossVMDivergence","inputs":[{"name":"expectedBorrowRateBps","type":"uint256","indexed":false,"internalType":"uint256"},{"name":"actualBorrowRateBps","type":"uint256","indexed":false,"internalType":"uint256"},{"name":"expectedMaxLtvBps","type":"uint256","indexed":false,"internalType":"uint256"},{"name":"actualMaxLtvBps","type":"uint256","indexed":false,"internalType":"uint256"},{"name":"expectedLiquidationThresholdBps","type":"uint256","indexed":false,"internalType":"uint256"},{"name":"actualLiquidationThresholdBps","type":"uint256","indexed":false,"internalType":"uint256"}],"anonymous":false},{"type":"event","name":"QuoteTicketPublished","inputs":[{"name":"ticketId","type":"bytes32","indexed":true,"internalType":"bytes32"},{"name":"inputHash","type":"bytes32","indexed":true,"internalType":"bytes32"},{"name":"outputHash","type":"bytes32","indexed":true,"internalType":"bytes32"},{"name":"oracleEpoch","type":"uint256","indexed":false,"internalType":"uint256"},{"name":"configEpoch","type":"uint256","indexed":false,"internalType":"uint256"},{"name":"oracleStateHash","type":"bytes32","indexed":false,"internalType":"bytes32"},{"name":"configHash","type":"bytes32","indexed":false,"internalType":"bytes32"},{"name":"publisher","type":"address","indexed":false,"internalType":"address"}],"anonymous":false},{"type":"event","name":"QuoteVerified","inputs":[{"name":"ticketId","type":"bytes32","indexed":true,"internalType":"bytes32"},{"name":"reason","type":"string","indexed":false,"internalType":"string"}],"anonymous":false},{"type":"error","name":"AccessManagedInvalidAuthority","inputs":[{"name":"authority","type":"address","internalType":"address"}]},{"type":"error","name":"AccessManagedRequiredDelay","inputs":[{"name":"caller","type":"address","internalType":"address"},{"name":"delay","type":"uint32","internalType":"uint32"}]},{"type":"error","name":"AccessManagedUnauthorized","inputs":[{"name":"caller","type":"address","internalType":"address"}]},{"type":"error","name":"InvalidRiskParams","inputs":[]},{"type":"error","name":"QuoteTicketMissing","inputs":[{"name":"ticketId","type":"bytes32","internalType":"bytes32"}]}],"bytecode":{"object":"0x6101e0604052348015610010575f5ffd5b5060405161172038038061172083398101604081905261002f91610211565b826100398161016e565b50606081015115806100515750612710816060015110155b8061005e57506080810151155b8061006f5750612710816080015110155b8061007c575060a0810151155b8061008e575080608001518160a00151115b806100a1575080608001518160c0015111155b806100b157506127108160c00151115b806100c457508060a001518160e0015111155b806100d657508060c001518160e00151115b806100e75750612710816101200151105b15610105576040516309ef3c1f60e01b815260040160405180910390fd5b80516080908152602082015160a0908152604083015160c0908152606084015160e09081529284015161010090815291840151610120908152908401516101405291830151610160528201516101805201516101a0526001600160a01b03166101c052506102df565b5f80546001600160a01b0319166001600160a01b0383169081179091556040519081527f2f658b440c35314f52658ea8a740e05b284cdc84dc9ae01e891f21b8933e7cad9060200160405180910390a150565b80516001600160a01b03811681146101d7575f5ffd5b919050565b60405161014081016001600160401b038111828210171561020b57634e487b7160e01b5f52604160045260245ffd5b60405290565b5f5f5f838503610180811215610225575f5ffd5b61022e856101c1565b935061023c602086016101c1565b9250610140603f1982011215610250575f5ffd5b506102596101dc565b604085810151825260608087015160208401526080808801519284019290925260a0808801519184019190915260c0808801519284019290925260e0808801519184019190915261010080880151928401929092526101208088015191840191909152610140870151918301919091526101609095015194810194909452509093909250565b60805160a05160c05160e05161010051610120516101405161016051610180516101a0516101c0516113516103cf5f395f81816101b00152818161044f01526109a201525f818161015401526106e401525f818161030e015261069d01525f818161011a015261074901525f8181610216015261079a01525f8181610264015261072301525f818161023d015261077401525f81816101ef01528181610d7401528181610d9b01528181610e1e0152610e4b01525f81816102e70152610e7a01525f818161038c01528181610dbf0152610eae01525f818161033501528181610df40152610ecf01526113515ff3fe608060405234801561000f575f5ffd5b5060043610610111575f3560e01c80637a9e5e4b1161009e578063a845c81c1161006e578063a845c81c14610309578063aaa6a39114610330578063b3ac6e8c14610357578063bf7e214f14610377578063de0e63cd14610387575f5ffd5b80637a9e5e4b146102995780638887e9c0146102ae5780638fb36037146102c1578063a14195a8146102e2575f5ffd5b80633a989ce9116100e45780633a989ce9146101ea57806355161957146102115780636000b2a114610238578063674808971461025f5780636c5d501814610286575f5ffd5b806305343500146101155780632a7e9c551461014f578063302160991461017657806339d2a275146101ab575b5f5ffd5b61013c7f000000000000000000000000000000000000000000000000000000000000000081565b6040519081526020015b60405180910390f35b61013c7f000000000000000000000000000000000000000000000000000000000000000081565b610189610184366004611030565b6103ae565b6040805182518152602080840151908201529181015190820152606001610146565b6101d27f000000000000000000000000000000000000000000000000000000000000000081565b6040516001600160a01b039091168152602001610146565b61013c7f000000000000000000000000000000000000000000000000000000000000000081565b61013c7f000000000000000000000000000000000000000000000000000000000000000081565b61013c7f000000000000000000000000000000000000000000000000000000000000000081565b61013c7f000000000000000000000000000000000000000000000000000000000000000081565b61018961029436600461104a565b6103de565b6102ac6102a736600461107e565b61049b565b005b61013c6102bc36600461104a565b610518565b6102c961052a565b6040516001600160e01b03199091168152602001610146565b61013c7f000000000000000000000000000000000000000000000000000000000000000081565b61013c7f000000000000000000000000000000000000000000000000000000000000000081565b61013c7f000000000000000000000000000000000000000000000000000000000000000081565b61036a6103653660046110a4565b61054c565b60405161014691906110bb565b5f546001600160a01b03166101d2565b61013c7f000000000000000000000000000000000000000000000000000000000000000081565b6103cf60405180606001604052805f81526020015f81526020015f81525090565b6103d88261065a565b92915050565b6103ff60405180606001604052805f81526020015f81526020015f81525090565b61040a335f366107c5565b5f61041584846108bb565b5f81815260016020526040902060098101549192509015610442576104398161094b565b925050506103d8565b61044b8461065a565b92507f00000000000000000000000000000000000000000000000000000000000000006001600160a01b0316156104875761048782858561098b565b61049382868686610b76565b505092915050565b5f5433906001600160a01b031681146104d65760405162d1953b60e31b81526001600160a01b03821660048201526024015b60405180910390fd5b816001600160a01b03163b5f0361050b576040516361798f2f60e11b81526001600160a01b03831660048201526024016104cd565b61051482610d08565b5050565b5f61052383836108bb565b9392505050565b5f8054600160a01b900460ff1661054057505f90565b50638fb3603760e01b90565b6105a76040518061016001604052805f81526020015f81526020015f81526020015f81526020015f81526020015f81526020015f81526020015f81526020015f81526020015f81526020015f6001600160a01b031681525090565b5f8281526001602081815260408084208151610160810183528154815293810154928401929092526002820154908301526003810154606083015260048101546080830152600581015460a0830152600681015460c0830152600781015460e0830152600881015461010083015260098101546101208301819052600a909101546001600160a01b03166101408301529091036103d85760405163d8c4fb1960e01b8152600481018490526024016104cd565b61067b60405180606001604052805f81526020015f81526020015f81525090565b6106858235610d5b565b8152610697608083016060840161115c565b6106e1577f0000000000000000000000000000000000000000000000000000000000000000815f018181516106cc9190611189565b9052505f602082018190526040820152919050565b5f7f00000000000000000000000000000000000000000000000000000000000000008360200135108061071957506107088360400135115b90508015610772577f000000000000000000000000000000000000000000000000000000000000000060208301527f000000000000000000000000000000000000000000000000000000000000000060408301526107bf565b7f000000000000000000000000000000000000000000000000000000000000000060208301527f000000000000000000000000000000000000000000000000000000000000000060408301525b50919050565b5f5f6107f86107db5f546001600160a01b031690565b86306107ea60045f898b61119c565b6107f3916111c3565b610f06565b91509150816108b45763ffffffff811615610891575f805460ff60a01b198116600160a01b17909155604051634a63ebf760e11b81526001600160a01b03909116906394c7d7ee90610852908890889088906004016111f9565b5f604051808303815f87803b158015610869575f5ffd5b505af115801561087b573d5f5f3e3d5ffd5b50505f805460ff60a01b19169055506108b49050565b60405162d1953b60e31b81526001600160a01b03861660048201526024016104cd565b5050505050565b5f825f0135836020013584604001358560600135855f0135866020013587604001358860600160208101906108f0919061115c565b6040805160208101999099528801969096526060870194909452608086019290925260a085015260c084015260e083015215156101008201526101200160405160208183030381529060405280519060200120905092915050565b61096c60405180606001604052805f81526020015f81526020015f81525090565b6006820154815260078201546020820152600890910154604082015290565b604051633021609960e01b81526001600160a01b037f000000000000000000000000000000000000000000000000000000000000000016906330216099906109d7908590600401611238565b606060405180830381865afa925050508015610a10575060408051601f3d908101601f19168201909252610a0d9181019061126d565b60015b610a7857805160208083015160408085015181519485525f9385018490529084019190915260608301829052608083015260a08201527fc95768bcf0a0c3222f6a6b0b53efd232c5d37a29e21ac1e24e29d0c895acb3749060c00160405180910390a1505050565b81518151148015610a90575081602001518160200151145b8015610aa3575081604001518160400151145b15610b0657837f93ac32598f9f2bd75e15b7ceb9ee170c420c706623666588039b12443600004b604051610af9906020808252600e908201526d0c6e4dee6e65aecda5adac2e8c6d60931b604082015260600190565b60405180910390a2610b70565b8151815160208085015181850151604080880151818801518251978852948701959095528501919091526060840152608083019190915260a08201527fc95768bcf0a0c3222f6a6b0b53efd232c5d37a29e21ac1e24e29d0c895acb3749060c00160405180910390a15b50505050565b5f604051806101600160405280610b8c85610f98565b8152602001610b9a84610ff4565b81528535602080830191909152868101356040808401919091528088013560608085019190915280890135608080860191909152875160a0808701919091528885015160c0808801919091528985015160e08089019190915242610100808a019190915233610120998a01525f8f81526001808a52908890208b51808255998c01519181018290558b89015160028201819055978c015160038201819055968c015160048201819055958c015160058201819055948c01516006820155928b01516007840155908a01516008830155978901516009820155610140890151600a90910180546001600160a01b0383166001600160a01b03199091161790559451979850959694958c957f227a9d26aa2a408c418953053eeb2f93a5f308a61856433ea5ec0aaf224bbab795610cf995949392919485526020850193909352604084019190915260608301526001600160a01b0316608082015260a00190565b60405180910390a45050505050565b5f80546001600160a01b0319166001600160a01b0383169081179091556040519081527f2f658b440c35314f52658ea8a740e05b284cdc84dc9ae01e891f21b8933e7cad9060200160405180910390a150565b5f5f6127108311610d6c5782610d70565b6127105b90507f00000000000000000000000000000000000000000000000000000000000000008111610e18577f0000000000000000000000000000000000000000000000000000000000000000610de47f0000000000000000000000000000000000000000000000000000000000000000836112d2565b610dee91906112e9565b610523907f0000000000000000000000000000000000000000000000000000000000000000611189565b5f610e437f000000000000000000000000000000000000000000000000000000000000000083611308565b90505f610e727f0000000000000000000000000000000000000000000000000000000000000000612710611308565b905080610e9f7f0000000000000000000000000000000000000000000000000000000000000000846112d2565b610ea991906112e9565b610ef37f00000000000000000000000000000000000000000000000000000000000000007f0000000000000000000000000000000000000000000000000000000000000000611189565b610efd9190611189565b95945050505050565b6040516001600160a01b038085166024830152831660448201526001600160e01b0319821660648201525f908190819060840160408051601f19818403018152918152602080830180516001600160e01b031663b700961360e01b1781525f808052918290528351939450919290918a5afa15610f8e575f516020805191945081901c150291505b5094509492505050565b5f813560208301356040840135610fb5608086016060870161115c565b60408051602081019590955284019290925260608301521515608082015260a0015b604051602081830303815290604052805190602001209050919050565b805160208083015160408085015181519384019490945282015260608101919091525f90608001610fd7565b5f608082840312156107bf575f5ffd5b5f60808284031215611040575f5ffd5b6105238383611020565b5f5f610100838503121561105c575f5ffd5b6110668484611020565b91506110758460808501611020565b90509250929050565b5f6020828403121561108e575f5ffd5b81356001600160a01b0381168114610523575f5ffd5b5f602082840312156110b4575f5ffd5b5035919050565b5f61016082019050825182526020830151602083015260408301516040830152606083015160608301526080830151608083015260a083015160a083015260c083015160c083015260e083015160e08301526101008301516101008301526101208301516101208301526101408301516111416101408401826001600160a01b03169052565b5092915050565b80358015158114611157575f5ffd5b919050565b5f6020828403121561116c575f5ffd5b61052382611148565b634e487b7160e01b5f52601160045260245ffd5b808201808211156103d8576103d8611175565b5f5f858511156111aa575f5ffd5b838611156111b6575f5ffd5b5050820193919092039150565b80356001600160e01b03198116906004841015611141576001600160e01b031960049490940360031b84901b1690921692915050565b6001600160a01b03841681526040602082018190528101829052818360608301375f818301606090810191909152601f909201601f1916010192915050565b8135815260208083013590820152604080830135908201526080810161126060608401611148565b1515606083015292915050565b5f606082840312801561127e575f5ffd5b506040516060810167ffffffffffffffff811182821017156112ae57634e487b7160e01b5f52604160045260245ffd5b60409081528351825260208085015190830152928301519281019290925250919050565b80820281158282048414176103d8576103d8611175565b5f8261130357634e487b7160e01b5f52601260045260245ffd5b500490565b818103818111156103d8576103d861117556fea2646970667358221220ef6a6c3f3c887cb50ea53660deacae053e88339e80d4aa060dd356d443e0fd5764736f6c634300081c0033","linkReferences":{}},"methodIdentifiers":{"authority()":"bf7e214f","baseRateBps()":"aaa6a391","getQuoteTicket(bytes32)":"b3ac6e8c","healthyLiquidationThresholdBps()":"55161957","healthyMaxLtvBps()":"6000b2a1","isConsumingScheduledOp()":"8fb36037","kinkBps()":"3a989ce9","quote((uint256,uint256,uint256,bool))":"30216099","quoteEngine()":"39d2a275","quoteTicketId((uint256,uint256,bytes32,bytes32),(uint256,uint256,uint256,bool))":"8887e9c0","quoteViaTicket((uint256,uint256,bytes32,bytes32),(uint256,uint256,uint256,bool))":"6c5d5018","setAuthority(address)":"7a9e5e4b","slope1Bps()":"de0e63cd","slope2Bps()":"a14195a8","staleBorrowRatePenaltyBps()":"a845c81c","stressedCollateralRatioBps()":"2a7e9c55","stressedLiquidationThresholdBps()":"05343500","stressedMaxLtvBps()":"67480897"},"id":11}