{"abi":[{"type":"constructor","inputs":[{"name":"authority_","type":"address","internalType":"address"}],"stateMutability":"nonpayable"},{"type":"function","name":"authority","inputs":[],"outputs":[{"name":"","type":"address","internalType":"address"}],"stateMutability":"view"},{"type":"function","name":"getPolicy","inputs":[{"name":"key","type":"bytes32","internalType":"bytes32"}],"outputs":[{"name":"value","type":"uint256","internalType":"uint256"}],"stateMutability":"view"},{"type":"function","name":"getPolicyOrRevert","inputs":[{"name":"key","type":"bytes32","internalType":"bytes32"}],"outputs":[{"name":"value","type":"uint256","internalType":"uint256"}],"stateMutability":"view"},{"type":"function","name":"isConsumingScheduledOp","inputs":[],"outputs":[{"name":"","type":"bytes4","internalType":"bytes4"}],"stateMutability":"view"},{"type":"function","name":"policyActive","inputs":[{"name":"key","type":"bytes32","internalType":"bytes32"}],"outputs":[{"name":"","type":"bool","internalType":"bool"}],"stateMutability":"view"},{"type":"function","name":"removePolicy","inputs":[{"name":"key","type":"bytes32","internalType":"bytes32"}],"outputs":[],"stateMutability":"nonpayable"},{"type":"function","name":"setAuthority","inputs":[{"name":"newAuthority","type":"address","internalType":"address"}],"outputs":[],"stateMutability":"nonpayable"},{"type":"function","name":"setPolicy","inputs":[{"name":"key","type":"bytes32","internalType":"bytes32"},{"name":"value","type":"uint256","internalType":"uint256"}],"outputs":[],"stateMutability":"nonpayable"},{"type":"event","name":"AuthorityUpdated","inputs":[{"name":"authority","type":"address","indexed":false,"internalType":"address"}],"anonymous":false},{"type":"event","name":"PolicyRemoved","inputs":[{"name":"key","type":"bytes32","indexed":true,"internalType":"bytes32"}],"anonymous":false},{"type":"event","name":"PolicySet","inputs":[{"name":"key","type":"bytes32","indexed":true,"internalType":"bytes32"},{"name":"value","type":"uint256","indexed":false,"internalType":"uint256"}],"anonymous":false},{"type":"error","name":"AccessManagedInvalidAuthority","inputs":[{"name":"authority","type":"address","internalType":"address"}]},{"type":"error","name":"AccessManagedRequiredDelay","inputs":[{"name":"caller","type":"address","internalType":"address"},{"name":"delay","type":"uint32","internalType":"uint32"}]},{"type":"error","name":"AccessManagedUnauthorized","inputs":[{"name":"caller","type":"address","internalType":"address"}]}],"bytecode":{"object":"0x608034609957601f6105ae38819003918201601f19168301916001600160401b03831184841017609d57808492602094604052833981010312609957516001600160a01b038116908190036099575f80546001600160a01b031916821790556040519081527f2f658b440c35314f52658ea8a740e05b284cdc84dc9ae01e891f21b8933e7cad90602090a16040516104fc90816100b28239f35b5f80fd5b634e487b7160e01b5f52604160045260245ffdfe6080806040526004361015610012575f80fd5b5f3560e01c9081631237652414610314575080636f396179146102ae5780637a9e5e4b1461020e5780638fb36037146101cb578063a3f685f9146101a1578063bf7e214f1461017a578063f062cda4146100e85763fac45f6f14610074575f80fd5b346100e45760403660031901126100e4576004357fe6810688b2fcd676aafbf6086199c0cfbf1716bd240c04935a35870102b4713f60206024356100b83633610375565b835f52600182528060405f2055835f526002825260405f20600160ff19825416179055604051908152a2005b5f80fd5b346100e45760203660031901126100e457600435805f52600260205260ff60405f20541615610127575f526001602052602060405f2054604051908152f35b60405162461bcd60e51b815260206004820152602560248201527f476f7665726e616e6365506f6c69637953746f72653a20706f6c696379206e6f6044820152641d081cd95d60da1b6064820152608490fd5b346100e4575f3660031901126100e4575f546040516001600160a01b039091168152602090f35b346100e45760203660031901126100e4576004355f526001602052602060405f2054604051908152f35b346100e4575f3660031901126100e4575f5460a01c60ff1615610206576020638fb3603760e01b5b6040516001600160e01b03199091168152f35b60205f6101f3565b346100e45760203660031901126100e4576004356001600160a01b038116908181036100e4575f54906001600160a01b038216330361029c573b15610289576001600160a01b03191681175f556040519081527f2f658b440c35314f52658ea8a740e05b284cdc84dc9ae01e891f21b8933e7cad90602090a1005b506361798f2f60e11b5f5260045260245ffd5b62d1953b60e31b5f523360045260245ffd5b346100e45760203660031901126100e4576004356102cc3633610375565b805f5260016020525f6040812055805f52600260205260405f2060ff1981541690557f0d36023cc2fbcad52ac4d396c3bdc45f6ea3b176efdee221dc1c7391e8b3fc8c5f80a2005b346100e45760203660031901126100e4576020906004355f526002825260ff60405f20541615158152f35b90601f8019910116810190811067ffffffffffffffff82111761036157604052565b634e487b7160e01b5f52604160045260245ffd5b5f805490926001600160a01b0382169291600482106100e4575f5f9060405f815196602088019063b700961360e01b825260018060a01b03169788602482015230604482015263ffffffff60e01b8335166064820152606481526103da60848261033f565b828052826020525190895afa6104b3575b156103f9575b505050505050565b63ffffffff16156104a15760ff60a01b1916600160a01b175f55823b156100e4576064925f9283604051958680958194634a63ebf760e11b83526004830152604060248301528060448301528084848401378181018301849052601f01601f191681010301925af1801561049657610483575b50805460ff60a01b191690555f80808080806103f1565b61048f91505f9061033f565b5f5f61046c565b6040513d5f823e3d90fd5b8262d1953b60e31b5f5260045260245ffd5b50505f516020518060201c1502906103eb56fea264697066735822122034ad1dbef1ecc413ca657182d9b7cc64863b8beb129051b5fbd591e85b755e3264736f6c634300081c0033","linkReferences":{}},"methodIdentifiers":{"authority()":"bf7e214f","getPolicy(bytes32)":"a3f685f9","getPolicyOrRevert(bytes32)":"f062cda4","isConsumingScheduledOp()":"8fb36037","policyActive(bytes32)":"12376524","removePolicy(bytes32)":"6f396179","setAuthority(address)":"7a9e5e4b","setPolicy(bytes32,uint256)":"fac45f6f"},"id":2}