{"abi":[{"type":"constructor","inputs":[{"name":"shouldRevert_","type":"bool","internalType":"bool"}],"stateMutability":"nonpayable"},{"type":"function","name":"callCount","inputs":[],"outputs":[{"name":"","type":"uint256","internalType":"uint256"}],"stateMutability":"view"},{"type":"function","name":"lastBorrower","inputs":[],"outputs":[{"name":"","type":"address","internalType":"address"}],"stateMutability":"view"},{"type":"function","name":"lastCollateralSeized","inputs":[],"outputs":[{"name":"","type":"uint256","internalType":"uint256"}],"stateMutability":"view"},{"type":"function","name":"lastCorrelationId","inputs":[],"outputs":[{"name":"","type":"bytes32","internalType":"bytes32"}],"stateMutability":"view"},{"type":"function","name":"lastDebtRepaid","inputs":[],"outputs":[{"name":"","type":"uint256","internalType":"uint256"}],"stateMutability":"view"},{"type":"function","name":"notifyLiquidation","inputs":[{"name":"borrower","type":"address","internalType":"address"},{"name":"debtRepaid","type":"uint256","internalType":"uint256"},{"name":"collateralSeized","type":"uint256","internalType":"uint256"},{"name":"correlationId","type":"bytes32","internalType":"bytes32"}],"outputs":[],"stateMutability":"nonpayable"},{"type":"function","name":"shouldRevert","inputs":[],"outputs":[{"name":"","type":"bool","internalType":"bool"}],"stateMutability":"view"},{"type":"event","name":"NotificationReceived","inputs":[{"name":"borrower","type":"address","indexed":true,"internalType":"address"},{"name":"debtRepaid","type":"uint256","indexed":false,"internalType":"uint256"},{"name":"collateralSeized","type":"uint256","indexed":false,"internalType":"uint256"},{"name":"correlationId","type":"bytes32","indexed":false,"internalType":"bytes32"}],"anonymous":false}],"bytecode":{"object":"0x60a034606457601f61031d38819003918201601f19168301916001600160401b038311848410176068578084926020946040528339810103126064575180151581036064576080526040516102a0908161007d82396080518181816080015260f70152f35b5f80fd5b634e487b7160e01b5f52604160045260245ffdfe6080806040526004361015610012575f80fd5b5f3560e01c908163427d2ff514610250575080634b28f9a21461023357806387b37b311461020c5780639130d380146101ef578063ad890ab0146100c6578063b64db40d146100a95763d3072d8214610069575f80fd5b346100a5575f3660031901126100a55760206040517f000000000000000000000000000000000000000000000000000000000000000015158152f35b5f80fd5b346100a5575f3660031901126100a5576020600254604051908152f35b346100a55760803660031901126100a5576004356001600160a01b038116908190036100a5576044356064356024357f000000000000000000000000000000000000000000000000000000000000000061019b57836bffffffffffffffffffffffff60a01b5f5416175f55806001558260025581600355600454915f198314610187577fbfb6627be9ec8a2c684f23d8ad3f7a91abee2c23446171a2a01cdd69732e300e9360016060940160045560405192835260208301526040820152a2005b634e487b7160e01b5f52601160045260245ffd5b60405162461bcd60e51b815260206004820152602660248201527f4d6f636b4c69717569646174696f6e4e6f7469666965723a20666f72636564206044820152651c995d995c9d60d21b6064820152608490fd5b346100a5575f3660031901126100a5576020600154604051908152f35b346100a5575f3660031901126100a5575f546040516001600160a01b039091168152602090f35b346100a5575f3660031901126100a5576020600454604051908152f35b346100a5575f3660031901126100a5576020906003548152f3fea26469706673582212209baedb99174de5fe087684603ee2ed2c3b1858be869566ac6b22937f0954dce064736f6c634300081c0033","linkReferences":{}},"methodIdentifiers":{"callCount()":"4b28f9a2","lastBorrower()":"87b37b31","lastCollateralSeized()":"b64db40d","lastCorrelationId()":"427d2ff5","lastDebtRepaid()":"9130d380","notifyLiquidation(address,uint256,uint256,bytes32)":"ad890ab0","shouldRevert()":"d3072d82"},"id":36}