{"abi":[{"type":"constructor","inputs":[{"name":"authority_","type":"address","internalType":"address"},{"name":"quoteEngine_","type":"address","internalType":"address"},{"name":"policyStore_","type":"address","internalType":"address"},{"name":"config_","type":"tuple","internalType":"struct RiskGateway.RiskModelConfig","components":[{"name":"baseRateBps","type":"uint256","internalType":"uint256"},{"name":"slope1Bps","type":"uint256","internalType":"uint256"},{"name":"slope2Bps","type":"uint256","internalType":"uint256"},{"name":"kinkBps","type":"uint256","internalType":"uint256"},{"name":"healthyMaxLtvBps","type":"uint256","internalType":"uint256"},{"name":"stressedMaxLtvBps","type":"uint256","internalType":"uint256"},{"name":"healthyLiquidationThresholdBps","type":"uint256","internalType":"uint256"},{"name":"stressedLiquidationThresholdBps","type":"uint256","internalType":"uint256"},{"name":"staleBorrowRatePenaltyBps","type":"uint256","internalType":"uint256"},{"name":"stressedCollateralRatioBps","type":"uint256","internalType":"uint256"}]}],"stateMutability":"nonpayable"},{"type":"function","name":"POLICY_BORROW_RATE_FLOOR","inputs":[],"outputs":[{"name":"","type":"bytes32","internalType":"bytes32"}],"stateMutability":"view"},{"type":"function","name":"POLICY_LIQ_THRESHOLD","inputs":[],"outputs":[{"name":"","type":"bytes32","internalType":"bytes32"}],"stateMutability":"view"},{"type":"function","name":"POLICY_MAX_LTV","inputs":[],"outputs":[{"name":"","type":"bytes32","internalType":"bytes32"}],"stateMutability":"view"},{"type":"function","name":"authority","inputs":[],"outputs":[{"name":"","type":"address","internalType":"address"}],"stateMutability":"view"},{"type":"function","name":"baseRateBps","inputs":[],"outputs":[{"name":"","type":"uint256","internalType":"uint256"}],"stateMutability":"view"},{"type":"function","name":"getQuoteTicket","inputs":[{"name":"ticketId","type":"bytes32","internalType":"bytes32"}],"outputs":[{"name":"","type":"tuple","internalType":"struct IRiskAdapter.QuoteTicket","components":[{"name":"inputHash","type":"bytes32","internalType":"bytes32"},{"name":"outputHash","type":"bytes32","internalType":"bytes32"},{"name":"oracleEpoch","type":"uint256","internalType":"uint256"},{"name":"configEpoch","type":"uint256","internalType":"uint256"},{"name":"oracleStateHash","type":"bytes32","internalType":"bytes32"},{"name":"configHash","type":"bytes32","internalType":"bytes32"},{"name":"borrowRateBps","type":"uint256","internalType":"uint256"},{"name":"maxLtvBps","type":"uint256","internalType":"uint256"},{"name":"liquidationThresholdBps","type":"uint256","internalType":"uint256"},{"name":"publishedAt","type":"uint256","internalType":"uint256"},{"name":"publisher","type":"address","internalType":"address"}]}],"stateMutability":"view"},{"type":"function","name":"healthyLiquidationThresholdBps","inputs":[],"outputs":[{"name":"","type":"uint256","internalType":"uint256"}],"stateMutability":"view"},{"type":"function","name":"healthyMaxLtvBps","inputs":[],"outputs":[{"name":"","type":"uint256","internalType":"uint256"}],"stateMutability":"view"},{"type":"function","name":"isConsumingScheduledOp","inputs":[],"outputs":[{"name":"","type":"bytes4","internalType":"bytes4"}],"stateMutability":"view"},{"type":"function","name":"kinkBps","inputs":[],"outputs":[{"name":"","type":"uint256","internalType":"uint256"}],"stateMutability":"view"},{"type":"function","name":"policyStore","inputs":[],"outputs":[{"name":"","type":"address","internalType":"contract GovernancePolicyStore"}],"stateMutability":"view"},{"type":"function","name":"quote","inputs":[{"name":"input","type":"tuple","internalType":"struct IRiskEngine.QuoteInput","components":[{"name":"utilizationBps","type":"uint256","internalType":"uint256"},{"name":"collateralRatioBps","type":"uint256","internalType":"uint256"},{"name":"oracleAgeSeconds","type":"uint256","internalType":"uint256"},{"name":"oracleFresh","type":"bool","internalType":"bool"},{"name":"policyMaxLtvBps","type":"uint256","internalType":"uint256"},{"name":"policyLiqThresholdBps","type":"uint256","internalType":"uint256"},{"name":"policyBorrowRateFloorBps","type":"uint256","internalType":"uint256"}]}],"outputs":[{"name":"","type":"tuple","internalType":"struct IRiskEngine.QuoteOutput","components":[{"name":"borrowRateBps","type":"uint256","internalType":"uint256"},{"name":"maxLtvBps","type":"uint256","internalType":"uint256"},{"name":"liquidationThresholdBps","type":"uint256","internalType":"uint256"}]}],"stateMutability":"view"},{"type":"function","name":"quoteEngine","inputs":[],"outputs":[{"name":"","type":"address","internalType":"contract IRiskEngine"}],"stateMutability":"view"},{"type":"function","name":"quoteTicketId","inputs":[{"name":"context","type":"tuple","internalType":"struct IRiskAdapter.QuoteContext","components":[{"name":"oracleEpoch","type":"uint256","internalType":"uint256"},{"name":"configEpoch","type":"uint256","internalType":"uint256"},{"name":"oracleStateHash","type":"bytes32","internalType":"bytes32"},{"name":"configHash","type":"bytes32","internalType":"bytes32"}]},{"name":"input","type":"tuple","internalType":"struct IRiskEngine.QuoteInput","components":[{"name":"utilizationBps","type":"uint256","internalType":"uint256"},{"name":"collateralRatioBps","type":"uint256","internalType":"uint256"},{"name":"oracleAgeSeconds","type":"uint256","internalType":"uint256"},{"name":"oracleFresh","type":"bool","internalType":"bool"},{"name":"policyMaxLtvBps","type":"uint256","internalType":"uint256"},{"name":"policyLiqThresholdBps","type":"uint256","internalType":"uint256"},{"name":"policyBorrowRateFloorBps","type":"uint256","internalType":"uint256"}]}],"outputs":[{"name":"","type":"bytes32","internalType":"bytes32"}],"stateMutability":"pure"},{"type":"function","name":"quoteViaTicket","inputs":[{"name":"context","type":"tuple","internalType":"struct IRiskAdapter.QuoteContext","components":[{"name":"oracleEpoch","type":"uint256","internalType":"uint256"},{"name":"configEpoch","type":"uint256","internalType":"uint256"},{"name":"oracleStateHash","type":"bytes32","internalType":"bytes32"},{"name":"configHash","type":"bytes32","internalType":"bytes32"}]},{"name":"input","type":"tuple","internalType":"struct IRiskEngine.QuoteInput","components":[{"name":"utilizationBps","type":"uint256","internalType":"uint256"},{"name":"collateralRatioBps","type":"uint256","internalType":"uint256"},{"name":"oracleAgeSeconds","type":"uint256","internalType":"uint256"},{"name":"oracleFresh","type":"bool","internalType":"bool"},{"name":"policyMaxLtvBps","type":"uint256","internalType":"uint256"},{"name":"policyLiqThresholdBps","type":"uint256","internalType":"uint256"},{"name":"policyBorrowRateFloorBps","type":"uint256","internalType":"uint256"}]}],"outputs":[{"name":"output","type":"tuple","internalType":"struct IRiskEngine.QuoteOutput","components":[{"name":"borrowRateBps","type":"uint256","internalType":"uint256"},{"name":"maxLtvBps","type":"uint256","internalType":"uint256"},{"name":"liquidationThresholdBps","type":"uint256","internalType":"uint256"}]}],"stateMutability":"nonpayable"},{"type":"function","name":"setAuthority","inputs":[{"name":"newAuthority","type":"address","internalType":"address"}],"outputs":[],"stateMutability":"nonpayable"},{"type":"function","name":"slope1Bps","inputs":[],"outputs":[{"name":"","type":"uint256","internalType":"uint256"}],"stateMutability":"view"},{"type":"function","name":"slope2Bps","inputs":[],"outputs":[{"name":"","type":"uint256","internalType":"uint256"}],"stateMutability":"view"},{"type":"function","name":"staleBorrowRatePenaltyBps","inputs":[],"outputs":[{"name":"","type":"uint256","internalType":"uint256"}],"stateMutability":"view"},{"type":"function","name":"stressedCollateralRatioBps","inputs":[],"outputs":[{"name":"","type":"uint256","internalType":"uint256"}],"stateMutability":"view"},{"type":"function","name":"stressedLiquidationThresholdBps","inputs":[],"outputs":[{"name":"","type":"uint256","internalType":"uint256"}],"stateMutability":"view"},{"type":"function","name":"stressedMaxLtvBps","inputs":[],"outputs":[{"name":"","type":"uint256","internalType":"uint256"}],"stateMutability":"view"},{"type":"event","name":"AuthorityUpdated","inputs":[{"name":"authority","type":"address","indexed":false,"internalType":"address"}],"anonymous":false},{"type":"event","name":"QuoteTicketPublished","inputs":[{"name":"ticketId","type":"bytes32","indexed":true,"internalType":"bytes32"},{"name":"inputHash","type":"bytes32","indexed":true,"internalType":"bytes32"},{"name":"outputHash","type":"bytes32","indexed":true,"internalType":"bytes32"},{"name":"oracleEpoch","type":"uint256","indexed":false,"internalType":"uint256"},{"name":"configEpoch","type":"uint256","indexed":false,"internalType":"uint256"},{"name":"oracleStateHash","type":"bytes32","indexed":false,"internalType":"bytes32"},{"name":"configHash","type":"bytes32","indexed":false,"internalType":"bytes32"},{"name":"publisher","type":"address","indexed":false,"internalType":"address"}],"anonymous":false},{"type":"event","name":"QuoteVerified","inputs":[{"name":"ticketId","type":"bytes32","indexed":true,"internalType":"bytes32"},{"name":"reason","type":"string","indexed":false,"internalType":"string"}],"anonymous":false},{"type":"error","name":"AccessManagedInvalidAuthority","inputs":[{"name":"authority","type":"address","internalType":"address"}]},{"type":"error","name":"AccessManagedRequiredDelay","inputs":[{"name":"caller","type":"address","internalType":"address"},{"name":"delay","type":"uint32","internalType":"uint32"}]},{"type":"error","name":"AccessManagedUnauthorized","inputs":[{"name":"caller","type":"address","internalType":"address"}]},{"type":"error","name":"InvalidRiskParams","inputs":[]},{"type":"error","name":"QuoteTicketMissing","inputs":[{"name":"ticketId","type":"bytes32","internalType":"bytes32"}]}],"bytecode":{"object":"0x610200604052348015610010575f5ffd5b506040516120af3803806120af83398101604081905261002f91610218565b8361003981610175565b50606081015115806100515750612710816060015110155b8061005e57506080810151155b8061006f5750612710816080015110155b8061007c575060a0810151155b8061008e575080608001518160a00151115b806100a1575080608001518160c0015111155b806100b157506127108160c00151115b806100c457508060a001518160e0015111155b806100d657508060c001518160e00151115b806100e75750612710816101200151105b15610105576040516309ef3c1f60e01b815260040160405180910390fd5b80516080908152602082015160a0908152604083015160c0908152606084015160e09081529284015161010090815291840151610120908152908401516101405291830151610160528201516101805201516101a0526001600160a01b039182166101c052166101e052506102f3565b5f80546001600160a01b0319166001600160a01b0383169081179091556040519081527f2f658b440c35314f52658ea8a740e05b284cdc84dc9ae01e891f21b8933e7cad9060200160405180910390a150565b80516001600160a01b03811681146101de575f5ffd5b919050565b60405161014081016001600160401b038111828210171561021257634e487b7160e01b5f52604160045260245ffd5b60405290565b5f5f5f5f8486036101a081121561022d575f5ffd5b610236866101c8565b9450610244602087016101c8565b9350610252604087016101c8565b9250610140605f1982011215610266575f5ffd5b5061026f6101e3565b6060868101518252608080880151602084015260a080890151604085015260c0808a01519385019390935260e0808a015192850192909252610100808a015191850191909152610120808a01519385019390935261014089015191840191909152610160880151908301526101809096015195810195909552509194909350909190565b60805160a05160c05160e05161010051610120516101405161016051610180516101a0516101c0516101e051611c6061044f5f395f81816103be015281816105290152818161057801528181610610015281816106a901528181610741015281816107da0152818161087201528181610fe501528181611465015281816114ff015281816115b30152818161164d0152818161170601526117a001525f8181610204015281816104a3015261093d01525f81816101dd0152610f0801525f81816103500152610ec101525f81816101460152610f6d01525f818161026a0152610fbe01525f81816102b80152610f4701525f81816102910152610f9801525f8181610243015281816112b1015281816112d80152818161135b015261138801525f818161032901526113b701525f81816103f5015281816112fc01526113eb01525f818161037701528181611331015261140c0152611c605ff3fe608060405234801561000f575f5ffd5b506004361061013d575f3560e01c80638436bbe2116100b4578063b3ac6e8c11610079578063b3ac6e8c14610399578063b9326453146103b9578063bf7e214f146103e0578063de0e63cd146103f0578063e9d7b19a14610417578063fb3dd8ae1461042a575f5ffd5b80638436bbe2146102ef5780638fb3603714610303578063a14195a814610324578063a845c81c1461034b578063aaa6a39114610372575f5ffd5b806339d2a2751161010557806339d2a275146101ff5780633a989ce91461023e57806355161957146102655780636000b2a11461028c57806367480897146102b35780637a9e5e4b146102da575f5ffd5b806305343500146101415780630921a9171461017b578063109e43671461018f578063243882d2146101c45780632a7e9c55146101d8575b5f5ffd5b6101687f000000000000000000000000000000000000000000000000000000000000000081565b6040519081526020015b60405180910390f35b6101685f516020611beb5f395f51905f5281565b6101a261019d3660046118e1565b61043d565b6040805182518152602080840151908201529181015190820152606001610172565b6101685f516020611c0b5f395f51905f5281565b6101687f000000000000000000000000000000000000000000000000000000000000000081565b6102267f000000000000000000000000000000000000000000000000000000000000000081565b6040516001600160a01b039091168152602001610172565b6101687f000000000000000000000000000000000000000000000000000000000000000081565b6101687f000000000000000000000000000000000000000000000000000000000000000081565b6101687f000000000000000000000000000000000000000000000000000000000000000081565b6101687f000000000000000000000000000000000000000000000000000000000000000081565b6102ed6102e836600461191b565b610aa6565b005b6101685f516020611bcb5f395f51905f5281565b61030b610b23565b6040516001600160e01b03199091168152602001610172565b6101687f000000000000000000000000000000000000000000000000000000000000000081565b6101687f000000000000000000000000000000000000000000000000000000000000000081565b6101687f000000000000000000000000000000000000000000000000000000000000000081565b6103ac6103a7366004611941565b610b45565b6040516101729190611958565b6102267f000000000000000000000000000000000000000000000000000000000000000081565b5f546001600160a01b0316610226565b6101687f000000000000000000000000000000000000000000000000000000000000000081565b6101a26104253660046119e5565b610c53565b6101686104383660046118e1565b610c7d565b61045e60405180606001604052805f81526020015f81526020015f81525090565b610469335f36610c8f565b5f6104748484610d85565b5f818152600160205260409020600981015491925090156104a15761049881610e3e565b92505050610aa0565b7f00000000000000000000000000000000000000000000000000000000000000006001600160a01b031615610a85575f6040518060e00160405280865f01358152602001866020013581526020018660400135815260200186606001602081019061050c9190611a0c565b151581525f602082018190526040820181905260609091015290507f00000000000000000000000000000000000000000000000000000000000000006001600160a01b0316156108e95760405163048dd94960e21b81525f516020611bcb5f395f51905f5260048201527f00000000000000000000000000000000000000000000000000000000000000006001600160a01b031690631237652490602401602060405180830381865afa1580156105c5573d5f5f3e3d5ffd5b505050506040513d601f19601f820116820180604052508101906105e99190611a27565b156106875760405163a3f685f960e01b81525f516020611bcb5f395f51905f5260048201527f00000000000000000000000000000000000000000000000000000000000000006001600160a01b03169063a3f685f990602401602060405180830381865afa15801561065d573d5f5f3e3d5ffd5b505050506040513d601f19601f820116820180604052508101906106819190611a42565b60808201525b60405163048dd94960e21b81525f516020611beb5f395f51905f5260048201527f00000000000000000000000000000000000000000000000000000000000000006001600160a01b031690631237652490602401602060405180830381865afa1580156106f6573d5f5f3e3d5ffd5b505050506040513d601f19601f8201168201806040525081019061071a9190611a27565b156107b85760405163a3f685f960e01b81525f516020611beb5f395f51905f5260048201527f00000000000000000000000000000000000000000000000000000000000000006001600160a01b03169063a3f685f990602401602060405180830381865afa15801561078e573d5f5f3e3d5ffd5b505050506040513d601f19601f820116820180604052508101906107b29190611a42565b60a08201525b60405163048dd94960e21b81525f516020611c0b5f395f51905f5260048201527f00000000000000000000000000000000000000000000000000000000000000006001600160a01b031690631237652490602401602060405180830381865afa158015610827573d5f5f3e3d5ffd5b505050506040513d601f19601f8201168201806040525081019061084b9190611a27565b156108e95760405163a3f685f960e01b81525f516020611c0b5f395f51905f5260048201527f00000000000000000000000000000000000000000000000000000000000000006001600160a01b03169063a3f685f990602401602060405180830381865afa1580156108bf573d5f5f3e3d5ffd5b505050506040513d601f19601f820116820180604052508101906108e39190611a42565b60c08201525b604080516374ebd8cd60e11b815282516004820152602083015160248201529082015160448201526060820151151560648201526080820151608482015260a082015160a482015260c082015160c48201527f00000000000000000000000000000000000000000000000000000000000000006001600160a01b03169063e9d7b19a9060e401606060405180830381865afa9250505080156109a8575060408051601f3d908101601f191682019092526109a591810190611a59565b60015b610a24576109b585610e7e565b9350827f93ac32598f9f2bd75e15b7ceb9ee170c420c706623666588039b12443600004b604051610a179060208082526018908201527f70766d2d756e617661696c61626c652d66616c6c6261636b0000000000000000604082015260600190565b60405180910390a2610a7f565b809450837f93ac32598f9f2bd75e15b7ceb9ee170c420c706623666588039b12443600004b604051610a75906020808252600b908201526a70766d2d7072696d61727960a81b604082015260600190565b60405180910390a2505b50610a91565b610a8e84610e7e565b92505b610a9d82868686611021565b50505b92915050565b5f5433906001600160a01b03168114610ae15760405162d1953b60e31b81526001600160a01b03821660048201526024015b60405180910390fd5b816001600160a01b03163b5f03610b16576040516361798f2f60e11b81526001600160a01b0383166004820152602401610ad8565b610b1f826111b3565b5050565b5f8054600160a01b900460ff16610b3957505f90565b50638fb3603760e01b90565b610ba06040518061016001604052805f81526020015f81526020015f81526020015f81526020015f81526020015f81526020015f81526020015f81526020015f81526020015f81526020015f6001600160a01b031681525090565b5f8281526001602081815260408084208151610160810183528154815293810154928401929092526002820154908301526003810154606083015260048101546080830152600581015460a0830152600681015460c0830152600781015460e0830152600881015461010083015260098101546101208301819052600a909101546001600160a01b0316610140830152909103610aa05760405163d8c4fb1960e01b815260048101849052602401610ad8565b610c7460405180606001604052805f81526020015f81526020015f81525090565b610aa082610e7e565b5f610c888383610d85565b9392505050565b5f5f610cc2610ca55f546001600160a01b031690565b8630610cb460045f898b611abe565b610cbd91611ae5565b611206565b9150915081610d7e5763ffffffff811615610d5b575f805460ff60a01b198116600160a01b17909155604051634a63ebf760e11b81526001600160a01b03909116906394c7d7ee90610d1c90889088908890600401611b1b565b5f604051808303815f87803b158015610d33575f5ffd5b505af1158015610d45573d5f5f3e3d5ffd5b50505f805460ff60a01b1916905550610d7e9050565b60405162d1953b60e31b81526001600160a01b0386166004820152602401610ad8565b5050505050565b5f825f0135836020013584604001358560600135855f013586602001358760400135886060016020810190610dba9190611a0c565b604080516020810199909952880196909652606087019490945260808681019390935260a08681019290925260c08681019190915260e0860193909352921515610100850152850135610120840152908401356101408301528301356101608201526101800160405160208183030381529060405280519060200120905092915050565b610e5f60405180606001604052805f81526020015f81526020015f81525090565b6006820154815260078201546020820152600890910154604082015290565b610e9f60405180606001604052805f81526020015f81526020015f81525090565b610ea98235611298565b8152610ebb6080830160608401611a0c565b610f05577f0000000000000000000000000000000000000000000000000000000000000000815f01818151610ef09190611b6e565b9052505f602082018190526040820152919050565b5f7f000000000000000000000000000000000000000000000000000000000000000083602001351080610f3d57506107088360400135115b90508015610f96577f000000000000000000000000000000000000000000000000000000000000000060208301527f00000000000000000000000000000000000000000000000000000000000000006040830152610fe3565b7f000000000000000000000000000000000000000000000000000000000000000060208301527f000000000000000000000000000000000000000000000000000000000000000060408301525b7f00000000000000000000000000000000000000000000000000000000000000006001600160a01b03161561101b5761101b82611443565b50919050565b5f60405180610160016040528061103785611824565b8152602001611045846118a5565b81528535602080830191909152868101356040808401919091528088013560608085019190915280890135608080860191909152875160a0808701919091528885015160c0808801919091528985015160e08089019190915242610100808a019190915233610120998a01525f8f81526001808a52908890208b51808255998c01519181018290558b89015160028201819055978c015160038201819055968c015160048201819055958c015160058201819055948c01516006820155928b01516007840155908a01516008830155978901516009820155610140890151600a90910180546001600160a01b0383166001600160a01b03199091161790559451979850959694958c957f227a9d26aa2a408c418953053eeb2f93a5f308a61856433ea5ec0aaf224bbab7956111a495949392919485526020850193909352604084019190915260608301526001600160a01b0316608082015260a00190565b60405180910390a45050505050565b5f80546001600160a01b0319166001600160a01b0383169081179091556040519081527f2f658b440c35314f52658ea8a740e05b284cdc84dc9ae01e891f21b8933e7cad9060200160405180910390a150565b6040516001600160a01b038085166024830152831660448201526001600160e01b0319821660648201525f908190819060840160408051601f19818403018152918152602080830180516001600160e01b031663b700961360e01b1781525f808052918290528351939450919290918a5afa1561128e575f516020805191945081901c150291505b5094509492505050565b5f5f61271083116112a957826112ad565b6127105b90507f00000000000000000000000000000000000000000000000000000000000000008111611355577f00000000000000000000000000000000000000000000000000000000000000006113217f000000000000000000000000000000000000000000000000000000000000000083611b81565b61132b9190611b98565b610c88907f0000000000000000000000000000000000000000000000000000000000000000611b6e565b5f6113807f000000000000000000000000000000000000000000000000000000000000000083611bb7565b90505f6113af7f0000000000000000000000000000000000000000000000000000000000000000612710611bb7565b9050806113dc7f000000000000000000000000000000000000000000000000000000000000000084611b81565b6113e69190611b98565b6114307f00000000000000000000000000000000000000000000000000000000000000007f0000000000000000000000000000000000000000000000000000000000000000611b6e565b61143a9190611b6e565b95945050505050565b60405163048dd94960e21b81525f516020611bcb5f395f51905f5260048201527f00000000000000000000000000000000000000000000000000000000000000006001600160a01b031690631237652490602401602060405180830381865afa1580156114b2573d5f5f3e3d5ffd5b505050506040513d601f19601f820116820180604052508101906114d69190611a27565b156115915760405163a3f685f960e01b81525f516020611bcb5f395f51905f5260048201525f907f00000000000000000000000000000000000000000000000000000000000000006001600160a01b03169063a3f685f990602401602060405180830381865afa15801561154c573d5f5f3e3d5ffd5b505050506040513d601f19601f820116820180604052508101906115709190611a42565b90505f81118015611582575061271081105b1561158f57602082018190525b505b60405163048dd94960e21b81525f516020611beb5f395f51905f5260048201527f00000000000000000000000000000000000000000000000000000000000000006001600160a01b031690631237652490602401602060405180830381865afa158015611600573d5f5f3e3d5ffd5b505050506040513d601f19601f820116820180604052508101906116249190611a27565b156116e45760405163a3f685f960e01b81525f516020611beb5f395f51905f5260048201525f907f00000000000000000000000000000000000000000000000000000000000000006001600160a01b03169063a3f685f990602401602060405180830381865afa15801561169a573d5f5f3e3d5ffd5b505050506040513d601f19601f820116820180604052508101906116be9190611a42565b90508160200151811180156116d557506127108111155b156116e257604082018190525b505b60405163048dd94960e21b81525f516020611c0b5f395f51905f5260048201527f00000000000000000000000000000000000000000000000000000000000000006001600160a01b031690631237652490602401602060405180830381865afa158015611753573d5f5f3e3d5ffd5b505050506040513d601f19601f820116820180604052508101906117779190611a27565b156118215760405163a3f685f960e01b81525f516020611c0b5f395f51905f5260048201525f907f00000000000000000000000000000000000000000000000000000000000000006001600160a01b03169063a3f685f990602401602060405180830381865afa1580156117ed573d5f5f3e3d5ffd5b505050506040513d601f19601f820116820180604052508101906118119190611a42565b905080825f01511015610b1f5781525b50565b5f8135602083013560408401356118416080860160608701611a0c565b6040805160208101959095528401929092526060830152151560808281019190915283013560a08281019190915283013560c08281019190915283013560e0820152610100015b604051602081830303815290604052805190602001209050919050565b805160208083015160408085015181519384019490945282015260608101919091525f90608001611888565b5f60e0828403121561101b575f5ffd5b5f5f8284036101608112156118f4575f5ffd5b6080811215611901575f5ffd5b5082915061191284608085016118d1565b90509250929050565b5f6020828403121561192b575f5ffd5b81356001600160a01b0381168114610c88575f5ffd5b5f60208284031215611951575f5ffd5b5035919050565b5f61016082019050825182526020830151602083015260408301516040830152606083015160608301526080830151608083015260a083015160a083015260c083015160c083015260e083015160e08301526101008301516101008301526101208301516101208301526101408301516119de6101408401826001600160a01b03169052565b5092915050565b5f60e082840312156119f5575f5ffd5b610c8883836118d1565b8015158114611821575f5ffd5b5f60208284031215611a1c575f5ffd5b8135610c88816119ff565b5f60208284031215611a37575f5ffd5b8151610c88816119ff565b5f60208284031215611a52575f5ffd5b5051919050565b5f6060828403128015611a6a575f5ffd5b506040516060810167ffffffffffffffff81118282101715611a9a57634e487b7160e01b5f52604160045260245ffd5b60409081528351825260208085015190830152928301519281019290925250919050565b5f5f85851115611acc575f5ffd5b83861115611ad8575f5ffd5b5050820193919092039150565b80356001600160e01b031981169060048410156119de576001600160e01b031960049490940360031b84901b1690921692915050565b6001600160a01b03841681526040602082018190528101829052818360608301375f818301606090810191909152601f909201601f1916010192915050565b634e487b7160e01b5f52601160045260245ffd5b80820180821115610aa057610aa0611b5a565b8082028115828204841417610aa057610aa0611b5a565b5f82611bb257634e487b7160e01b5f52601260045260245ffd5b500490565b81810381811115610aa057610aa0611b5a56fe531661e8ada3fe2ee9240662f248fe35c9d24c0358419596dce9519fa2c8a408aabec6ae752a484f5507fd59ccfe31b616ac91ca0d04c10dee573661d01777ec8b8eb558d054159d0e962149e9849d01447daa906e7fb6d9f304b48e4df34531a264697066735822122065e4d687254cfe2377f79390648c996ad6ea25e1fc9d8e5e4b90d804f69ee2a164736f6c634300081c0033","linkReferences":{}},"methodIdentifiers":{"POLICY_BORROW_RATE_FLOOR()":"243882d2","POLICY_LIQ_THRESHOLD()":"0921a917","POLICY_MAX_LTV()":"8436bbe2","authority()":"bf7e214f","baseRateBps()":"aaa6a391","getQuoteTicket(bytes32)":"b3ac6e8c","healthyLiquidationThresholdBps()":"55161957","healthyMaxLtvBps()":"6000b2a1","isConsumingScheduledOp()":"8fb36037","kinkBps()":"3a989ce9","policyStore()":"b9326453","quote((uint256,uint256,uint256,bool,uint256,uint256,uint256))":"e9d7b19a","quoteEngine()":"39d2a275","quoteTicketId((uint256,uint256,bytes32,bytes32),(uint256,uint256,uint256,bool,uint256,uint256,uint256))":"fb3dd8ae","quoteViaTicket((uint256,uint256,bytes32,bytes32),(uint256,uint256,uint256,bool,uint256,uint256,uint256))":"109e4367","setAuthority(address)":"7a9e5e4b","slope1Bps()":"de0e63cd","slope2Bps()":"a14195a8","staleBorrowRatePenaltyBps()":"a845c81c","stressedCollateralRatioBps()":"2a7e9c55","stressedLiquidationThresholdBps()":"05343500","stressedMaxLtvBps()":"67480897"},"id":8}