{"abi":[{"type":"constructor","inputs":[{"name":"authority","type":"address","internalType":"address"},{"name":"initialHolder","type":"address","internalType":"address"},{"name":"initialSupply","type":"uint256","internalType":"uint256"}],"stateMutability":"nonpayable"},{"type":"function","name":"CLOCK_MODE","inputs":[],"outputs":[{"name":"","type":"string","internalType":"string"}],"stateMutability":"pure"},{"type":"function","name":"DOMAIN_SEPARATOR","inputs":[],"outputs":[{"name":"","type":"bytes32","internalType":"bytes32"}],"stateMutability":"view"},{"type":"function","name":"allowance","inputs":[{"name":"owner","type":"address","internalType":"address"},{"name":"spender","type":"address","internalType":"address"}],"outputs":[{"name":"","type":"uint256","internalType":"uint256"}],"stateMutability":"view"},{"type":"function","name":"approve","inputs":[{"name":"spender","type":"address","internalType":"address"},{"name":"value","type":"uint256","internalType":"uint256"}],"outputs":[{"name":"","type":"bool","internalType":"bool"}],"stateMutability":"nonpayable"},{"type":"function","name":"authority","inputs":[],"outputs":[{"name":"","type":"address","internalType":"address"}],"stateMutability":"view"},{"type":"function","name":"balanceOf","inputs":[{"name":"account","type":"address","internalType":"address"}],"outputs":[{"name":"","type":"uint256","internalType":"uint256"}],"stateMutability":"view"},{"type":"function","name":"checkpoints","inputs":[{"name":"account","type":"address","internalType":"address"},{"name":"pos","type":"uint32","internalType":"uint32"}],"outputs":[{"name":"","type":"tuple","internalType":"struct Checkpoints.Checkpoint208","components":[{"name":"_key","type":"uint48","internalType":"uint48"},{"name":"_value","type":"uint208","internalType":"uint208"}]}],"stateMutability":"view"},{"type":"function","name":"clock","inputs":[],"outputs":[{"name":"","type":"uint48","internalType":"uint48"}],"stateMutability":"view"},{"type":"function","name":"decimals","inputs":[],"outputs":[{"name":"","type":"uint8","internalType":"uint8"}],"stateMutability":"view"},{"type":"function","name":"delegate","inputs":[{"name":"delegatee","type":"address","internalType":"address"}],"outputs":[],"stateMutability":"nonpayable"},{"type":"function","name":"delegateBySig","inputs":[{"name":"delegatee","type":"address","internalType":"address"},{"name":"nonce","type":"uint256","internalType":"uint256"},{"name":"expiry","type":"uint256","internalType":"uint256"},{"name":"v","type":"uint8","internalType":"uint8"},{"name":"r","type":"bytes32","internalType":"bytes32"},{"name":"s","type":"bytes32","internalType":"bytes32"}],"outputs":[],"stateMutability":"nonpayable"},{"type":"function","name":"delegates","inputs":[{"name":"account","type":"address","internalType":"address"}],"outputs":[{"name":"","type":"address","internalType":"address"}],"stateMutability":"view"},{"type":"function","name":"eip712Domain","inputs":[],"outputs":[{"name":"fields","type":"bytes1","internalType":"bytes1"},{"name":"name","type":"string","internalType":"string"},{"name":"version","type":"string","internalType":"string"},{"name":"chainId","type":"uint256","internalType":"uint256"},{"name":"verifyingContract","type":"address","internalType":"address"},{"name":"salt","type":"bytes32","internalType":"bytes32"},{"name":"extensions","type":"uint256[]","internalType":"uint256[]"}],"stateMutability":"view"},{"type":"function","name":"getPastTotalSupply","inputs":[{"name":"timepoint","type":"uint256","internalType":"uint256"}],"outputs":[{"name":"","type":"uint256","internalType":"uint256"}],"stateMutability":"view"},{"type":"function","name":"getPastVotes","inputs":[{"name":"account","type":"address","internalType":"address"},{"name":"timepoint","type":"uint256","internalType":"uint256"}],"outputs":[{"name":"","type":"uint256","internalType":"uint256"}],"stateMutability":"view"},{"type":"function","name":"getVotes","inputs":[{"name":"account","type":"address","internalType":"address"}],"outputs":[{"name":"","type":"uint256","internalType":"uint256"}],"stateMutability":"view"},{"type":"function","name":"isConsumingScheduledOp","inputs":[],"outputs":[{"name":"","type":"bytes4","internalType":"bytes4"}],"stateMutability":"view"},{"type":"function","name":"mint","inputs":[{"name":"to","type":"address","internalType":"address"},{"name":"amount","type":"uint256","internalType":"uint256"}],"outputs":[],"stateMutability":"nonpayable"},{"type":"function","name":"name","inputs":[],"outputs":[{"name":"","type":"string","internalType":"string"}],"stateMutability":"view"},{"type":"function","name":"nonces","inputs":[{"name":"owner","type":"address","internalType":"address"}],"outputs":[{"name":"","type":"uint256","internalType":"uint256"}],"stateMutability":"view"},{"type":"function","name":"numCheckpoints","inputs":[{"name":"account","type":"address","internalType":"address"}],"outputs":[{"name":"","type":"uint32","internalType":"uint32"}],"stateMutability":"view"},{"type":"function","name":"permit","inputs":[{"name":"owner","type":"address","internalType":"address"},{"name":"spender","type":"address","internalType":"address"},{"name":"value","type":"uint256","internalType":"uint256"},{"name":"deadline","type":"uint256","internalType":"uint256"},{"name":"v","type":"uint8","internalType":"uint8"},{"name":"r","type":"bytes32","internalType":"bytes32"},{"name":"s","type":"bytes32","internalType":"bytes32"}],"outputs":[],"stateMutability":"nonpayable"},{"type":"function","name":"setAuthority","inputs":[{"name":"newAuthority","type":"address","internalType":"address"}],"outputs":[],"stateMutability":"nonpayable"},{"type":"function","name":"symbol","inputs":[],"outputs":[{"name":"","type":"string","internalType":"string"}],"stateMutability":"view"},{"type":"function","name":"totalSupply","inputs":[],"outputs":[{"name":"","type":"uint256","internalType":"uint256"}],"stateMutability":"view"},{"type":"function","name":"transfer","inputs":[{"name":"to","type":"address","internalType":"address"},{"name":"value","type":"uint256","internalType":"uint256"}],"outputs":[{"name":"","type":"bool","internalType":"bool"}],"stateMutability":"nonpayable"},{"type":"function","name":"transferFrom","inputs":[{"name":"from","type":"address","internalType":"address"},{"name":"to","type":"address","internalType":"address"},{"name":"value","type":"uint256","internalType":"uint256"}],"outputs":[{"name":"","type":"bool","internalType":"bool"}],"stateMutability":"nonpayable"},{"type":"event","name":"Approval","inputs":[{"name":"owner","type":"address","indexed":true,"internalType":"address"},{"name":"spender","type":"address","indexed":true,"internalType":"address"},{"name":"value","type":"uint256","indexed":false,"internalType":"uint256"}],"anonymous":false},{"type":"event","name":"AuthorityUpdated","inputs":[{"name":"authority","type":"address","indexed":false,"internalType":"address"}],"anonymous":false},{"type":"event","name":"DelegateChanged","inputs":[{"name":"delegator","type":"address","indexed":true,"internalType":"address"},{"name":"fromDelegate","type":"address","indexed":true,"internalType":"address"},{"name":"toDelegate","type":"address","indexed":true,"internalType":"address"}],"anonymous":false},{"type":"event","name":"DelegateVotesChanged","inputs":[{"name":"delegate","type":"address","indexed":true,"internalType":"address"},{"name":"previousVotes","type":"uint256","indexed":false,"internalType":"uint256"},{"name":"newVotes","type":"uint256","indexed":false,"internalType":"uint256"}],"anonymous":false},{"type":"event","name":"EIP712DomainChanged","inputs":[],"anonymous":false},{"type":"event","name":"Transfer","inputs":[{"name":"from","type":"address","indexed":true,"internalType":"address"},{"name":"to","type":"address","indexed":true,"internalType":"address"},{"name":"value","type":"uint256","indexed":false,"internalType":"uint256"}],"anonymous":false},{"type":"error","name":"AccessManagedInvalidAuthority","inputs":[{"name":"authority","type":"address","internalType":"address"}]},{"type":"error","name":"AccessManagedRequiredDelay","inputs":[{"name":"caller","type":"address","internalType":"address"},{"name":"delay","type":"uint32","internalType":"uint32"}]},{"type":"error","name":"AccessManagedUnauthorized","inputs":[{"name":"caller","type":"address","internalType":"address"}]},{"type":"error","name":"CheckpointUnorderedInsertion","inputs":[]},{"type":"error","name":"ECDSAInvalidSignature","inputs":[]},{"type":"error","name":"ECDSAInvalidSignatureLength","inputs":[{"name":"length","type":"uint256","internalType":"uint256"}]},{"type":"error","name":"ECDSAInvalidSignatureS","inputs":[{"name":"s","type":"bytes32","internalType":"bytes32"}]},{"type":"error","name":"ERC20ExceededSafeSupply","inputs":[{"name":"increasedSupply","type":"uint256","internalType":"uint256"},{"name":"cap","type":"uint256","internalType":"uint256"}]},{"type":"error","name":"ERC20InsufficientAllowance","inputs":[{"name":"spender","type":"address","internalType":"address"},{"name":"allowance","type":"uint256","internalType":"uint256"},{"name":"needed","type":"uint256","internalType":"uint256"}]},{"type":"error","name":"ERC20InsufficientBalance","inputs":[{"name":"sender","type":"address","internalType":"address"},{"name":"balance","type":"uint256","internalType":"uint256"},{"name":"needed","type":"uint256","internalType":"uint256"}]},{"type":"error","name":"ERC20InvalidApprover","inputs":[{"name":"approver","type":"address","internalType":"address"}]},{"type":"error","name":"ERC20InvalidReceiver","inputs":[{"name":"receiver","type":"address","internalType":"address"}]},{"type":"error","name":"ERC20InvalidSender","inputs":[{"name":"sender","type":"address","internalType":"address"}]},{"type":"error","name":"ERC20InvalidSpender","inputs":[{"name":"spender","type":"address","internalType":"address"}]},{"type":"error","name":"ERC2612ExpiredSignature","inputs":[{"name":"deadline","type":"uint256","internalType":"uint256"}]},{"type":"error","name":"ERC2612InvalidSigner","inputs":[{"name":"signer","type":"address","internalType":"address"},{"name":"owner","type":"address","internalType":"address"}]},{"type":"error","name":"ERC5805FutureLookup","inputs":[{"name":"timepoint","type":"uint256","internalType":"uint256"},{"name":"clock","type":"uint48","internalType":"uint48"}]},{"type":"error","name":"ERC6372InconsistentClock","inputs":[]},{"type":"error","name":"InvalidAccountNonce","inputs":[{"name":"account","type":"address","internalType":"address"},{"name":"currentNonce","type":"uint256","internalType":"uint256"}]},{"type":"error","name":"InvalidShortString","inputs":[]},{"type":"error","name":"SafeCastOverflowedUintDowncast","inputs":[{"name":"bits","type":"uint8","internalType":"uint8"},{"name":"value","type":"uint256","internalType":"uint256"}]},{"type":"error","name":"StringTooLong","inputs":[{"name":"str","type":"string","internalType":"string"}]},{"type":"error","name":"VotesExpiredSignature","inputs":[{"name":"expiry","type":"uint256","internalType":"uint256"}]}],"bytecode":{"object":"0x610160604052348015610010575f5ffd5b50604051612b51380380612b5183398101604081905261002f91610866565b82604051806040016040528060118152602001704475616c564d20476f7665726e616e636560781b81525080604051806040016040528060018152602001603160f81b815250604051806040016040528060118152602001704475616c564d20476f7665726e616e636560781b81525060405180604001604052806005815260200164323b23a7ab60d91b81525081600390816100cc9190610936565b5060046100d98282610936565b506100e9915083905060056101aa565b610120526100f88160066101aa565b61014052815160208084019190912060e052815190820120610100524660a05261018460e05161010051604080517f8b73c3c69bb8fe3d512ecc4cf759cc79239f7b179b0ffacaa9a75d522b39400f60208201529081019290925260608201524660808201523060a08201525f9060c00160405160208183030381529060405280519060200120905090565b60805250503060c05250610197816101dc565b506101a28282610230565b505050610ac0565b5f6020835110156101c5576101be8361026d565b90506101d6565b816101d08482610936565b5060ff90505b92915050565b600b80546001600160a01b0319166001600160a01b0383169081179091556040519081527f2f658b440c35314f52658ea8a740e05b284cdc84dc9ae01e891f21b8933e7cad9060200160405180910390a150565b6001600160a01b03821661025e5760405163ec442f0560e01b81525f60048201526024015b60405180910390fd5b6102695f83836102aa565b5050565b5f5f829050601f81511115610297578260405163305a27a960e01b815260040161025591906109f0565b80516102a282610a25565b179392505050565b6102b58383836102ba565b505050565b6102c5838383610320565b6001600160a01b038316610315575f6102dd60025490565b90506001600160d01b038082111561031257604051630e58ae9360e11b81526004810183905260248101829052604401610255565b50505b6102b5838383610446565b6001600160a01b03831661034a578060025f82825461033f9190610a5c565b909155506103ba9050565b6001600160a01b0383165f908152602081905260409020548181101561039c5760405163391434e360e21b81526001600160a01b03851660048201526024810182905260448101839052606401610255565b6001600160a01b0384165f9081526020819052604090209082900390555b6001600160a01b0382166103d6576002805482900390556103f4565b6001600160a01b0382165f9081526020819052604090208054820190555b816001600160a01b0316836001600160a01b03167fddf252ad1be2c89b69c2b068fc378daa952ba7f163c4a11628f55a4df523b3ef8360405161043991815260200190565b60405180910390a3505050565b6001600160a01b03831661047457610471600a6109236104ce60201b1761046c846104e0565b610517565b50505b6001600160a01b03821661049d5761049a600a61092e61054560201b1761046c846104e0565b50505b6001600160a01b038381165f908152600860205260408082205485841683529120546102b592918216911683610550565b5f6104d98284610a6f565b9392505050565b5f6001600160d01b03821115610513576040516306dfcc6560e41b815260d0600482015260248101839052604401610255565b5090565b5f8061053842610530610529886106a0565b868860201c565b8791906106e7565b915091505b935093915050565b5f6104d98284610a8e565b816001600160a01b0316836001600160a01b03161415801561057157505f81115b156102b5576001600160a01b03831615610609576001600160a01b0383165f908152600960209081526040822082916105b79190610545901b61092e1761046c866104e0565b6001600160d01b031691506001600160d01b03169150846001600160a01b03165f516020612b315f395f51905f5283836040516105fe929190918252602082015260400190565b60405180910390a250505b6001600160a01b038216156102b5576001600160a01b0382165f9081526009602090815260408220829161064a91906104ce901b6109231761046c866104e0565b6001600160d01b031691506001600160d01b03169150836001600160a01b03165f516020612b315f395f51905f528383604051610691929190918252602082015260400190565b60405180910390a25050505050565b80545f9080156106df576106c6836106b9600184610aad565b5f91825260209091200190565b54660100000000000090046001600160d01b03166104d9565b5f9392505050565b5f8061053885858582545f90819080156107ee575f61070b876106b9600185610aad565b805490915065ffffffffffff80821691660100000000000090046001600160d01b031690881682111561075157604051632520601d60e01b815260040160405180910390fd5b8765ffffffffffff168265ffffffffffff160361078d57825465ffffffffffff1666010000000000006001600160d01b038916021783556107e0565b6040805180820190915265ffffffffffff808a1682526001600160d01b03808a1660208085019182528d54600181018f555f8f815291909120945191519092166601000000000000029216919091179101555b945085935061053d92505050565b50506040805180820190915265ffffffffffff80851682526001600160d01b0380851660208085019182528854600181018a555f8a815291822095519251909316660100000000000002919093161792019190915590508161053d565b80516001600160a01b0381168114610861575f5ffd5b919050565b5f5f5f60608486031215610878575f5ffd5b6108818461084b565b925061088f6020850161084b565b9150604084015190509250925092565b634e487b7160e01b5f52604160045260245ffd5b600181811c908216806108c757607f821691505b6020821081036108e557634e487b7160e01b5f52602260045260245ffd5b50919050565b601f8211156102b557805f5260205f20601f840160051c810160208510156109105750805b601f840160051c820191505b8181101561092f575f815560010161091c565b5050505050565b81516001600160401b0381111561094f5761094f61089f565b6109638161095d84546108b3565b846108eb565b6020601f821160018114610995575f831561097e5750848201515b5f19600385901b1c1916600184901b17845561092f565b5f84815260208120601f198516915b828110156109c457878501518255602094850194600190920191016109a4565b50848210156109e157868401515f19600387901b60f8161c191681555b50505050600190811b01905550565b602081525f82518060208401528060208501604085015e5f604082850101526040601f19601f83011684010191505092915050565b805160208083015191908110156108e5575f1960209190910360031b1b16919050565b634e487b7160e01b5f52601160045260245ffd5b808201808211156101d6576101d6610a48565b6001600160d01b0381811683821601908111156101d6576101d6610a48565b6001600160d01b0382811682821603908111156101d6576101d6610a48565b818103818111156101d6576101d6610a48565b60805160a05160c05160e051610100516101205161014051612020610b115f395f610ea501525f610e7801525f610afd01525f610ad501525f610a3001525f610a5a01525f610a8401526120205ff3fe608060405234801561000f575f5ffd5b50600436106101a1575f3560e01c80637a9e5e4b116100f35780639ab24eb011610093578063c3cda5201161006e578063c3cda520146103e4578063d505accf146103f7578063dd62ed3e1461040a578063f1127ed814610442575f5ffd5b80639ab24eb0146103ad578063a9059cbb146103c0578063bf7e214f146103d3575f5ffd5b80638e539e8c116100ce5780638e539e8c1461035b5780638fb360371461036e57806391ddadf41461038f57806395d89b41146103a5575f5ffd5b80637a9e5e4b1461031a5780637ecebe001461032d57806384b0196e14610340575f5ffd5b80633a46b1a81161015e578063587cde1e11610139578063587cde1e146102745780635c19a95c146102b75780636fcfff45146102ca57806370a08231146102f2575f5ffd5b80633a46b1a81461022257806340c10f19146102355780634bf5d7e91461024a575f5ffd5b806306fdde03146101a5578063095ea7b3146101c357806318160ddd146101e657806323b872dd146101f8578063313ce5671461020b5780633644e5151461021a575b5f5ffd5b6101ad610481565b6040516101ba9190611bd3565b60405180910390f35b6101d66101d1366004611c00565b610511565b60405190151581526020016101ba565b6002545b6040519081526020016101ba565b6101d6610206366004611c28565b61052a565b604051601281526020016101ba565b6101ea61054d565b6101ea610230366004611c00565b61055b565b610248610243366004611c00565b610595565b005b60408051808201909152600e81526d06d6f64653d74696d657374616d760941b60208201526101ad565b61029f610282366004611c62565b6001600160a01b039081165f908152600860205260409020541690565b6040516001600160a01b0390911681526020016101ba565b6102486102c5366004611c62565b6105ae565b6102dd6102d8366004611c62565b6105b9565b60405163ffffffff90911681526020016101ba565b6101ea610300366004611c62565b6001600160a01b03165f9081526020819052604090205490565b610248610328366004611c62565b6105c3565b6101ea61033b366004611c62565b61063d565b610348610647565b6040516101ba9796959493929190611c7b565b6101ea610369366004611d11565b610689565b6103766106ad565b6040516001600160e01b031990911681526020016101ba565b60405165ffffffffffff421681526020016101ba565b6101ad6106d1565b6101ea6103bb366004611c62565b6106e0565b6101d66103ce366004611c00565b610700565b600b546001600160a01b031661029f565b6102486103f2366004611d38565b61070d565b610248610405366004611d8c565b6107c9565b6101ea610418366004611df2565b6001600160a01b039182165f90815260016020908152604080832093909416825291909152205490565b610455610450366004611e23565b6108ff565b60408051825165ffffffffffff1681526020928301516001600160d01b031692810192909252016101ba565b60606003805461049090611e60565b80601f01602080910402602001604051908101604052809291908181526020018280546104bc90611e60565b80156105075780601f106104de57610100808354040283529160200191610507565b820191905f5260205f20905b8154815290600101906020018083116104ea57829003601f168201915b5050505050905090565b5f3361051e818585610939565b60019150505b92915050565b5f3361053785828561094b565b6105428585856109c7565b506001949350505050565b5f610556610a24565b905090565b5f61058561056883610b4d565b6001600160a01b0385165f90815260096020526040902090610b91565b6001600160d01b03169392505050565b6105a0335f36610c41565b6105aa8282610d3a565b5050565b336105aa8183610d6e565b5f61052482610ddf565b600b5433906001600160a01b031681146105ff5760405162d1953b60e31b81526001600160a01b03821660048201526024015b60405180910390fd5b816001600160a01b03163b5f03610634576040516361798f2f60e11b81526001600160a01b03831660048201526024016105f6565b6105aa82610e00565b5f61052482610e54565b5f6060805f5f5f6060610658610e71565b610660610e9e565b604080515f80825260208201909252600f60f81b9b939a50919850469750309650945092509050565b5f61069e61069683610b4d565b600a90610b91565b6001600160d01b031692915050565b600b545f90600160a01b900460ff166106c557505f90565b50638fb3603760e01b90565b60606004805461049090611e60565b6001600160a01b0381165f90815260096020526040812061069e90610ecb565b5f3361051e8185856109c7565b8342111561073157604051632341d78760e11b8152600481018590526024016105f6565b604080517fe48329057bfd03d55e49b547132e39cffd9c1820ad7b9d4c5307691425d15adf60208201526001600160a01b0388169181019190915260608101869052608081018590525f906107aa906107a29060a00160405160208183030381529060405280519060200120610f02565b858585610f2e565b90506107b68187610f5a565b6107c08188610d6e565b50505050505050565b834211156107ed5760405163313c898160e11b8152600481018590526024016105f6565b5f7f6e71edae12b1b97f4d1f60370fef10105fa2faae0126114a169c64845d6126c98888886108388c6001600160a01b03165f90815260076020526040902080546001810190915590565b6040805160208101969096526001600160a01b0394851690860152929091166060840152608083015260a082015260c0810186905260e0016040516020818303038152906040528051906020012090505f61089282610f02565b90505f6108a182878787610f2e565b9050896001600160a01b0316816001600160a01b0316146108e8576040516325c0072360e11b81526001600160a01b0380831660048301528b1660248201526044016105f6565b6108f38a8a8a610939565b50505050505050505050565b604080518082019091525f808252602082015261091c8383610fac565b9392505050565b5f61091c8284611eac565b5f61091c8284611ecb565b6109468383836001610fe0565b505050565b6001600160a01b038381165f908152600160209081526040808320938616835292905220545f198110156109c157818110156109b357604051637dc7a0d960e11b81526001600160a01b038416600482015260248101829052604481018390526064016105f6565b6109c184848484035f610fe0565b50505050565b6001600160a01b0383166109f057604051634b637e8f60e11b81525f60048201526024016105f6565b6001600160a01b038216610a195760405163ec442f0560e01b81525f60048201526024016105f6565b6109468383836110b2565b5f306001600160a01b037f000000000000000000000000000000000000000000000000000000000000000016148015610a7c57507f000000000000000000000000000000000000000000000000000000000000000046145b15610aa657507f000000000000000000000000000000000000000000000000000000000000000090565b610556604080517f8b73c3c69bb8fe3d512ecc4cf759cc79239f7b179b0ffacaa9a75d522b39400f60208201527f0000000000000000000000000000000000000000000000000000000000000000918101919091527f000000000000000000000000000000000000000000000000000000000000000060608201524660808201523060a08201525f9060c00160405160208183030381529060405280519060200120905090565b5f4265ffffffffffff81168310610b8857604051637669fc0f60e11b81526004810184905265ffffffffffff821660248201526044016105f6565b61091c836110bd565b81545f9081816005811115610bed575f610baa846110f3565b610bb49085611eea565b5f8881526020902090915081015465ffffffffffff9081169087161015610bdd57809150610beb565b610be8816001611efd565b92505b505b5f610bfa8787858561124b565b90508015610c3457610c1e87610c11600184611eea565b5f91825260209091200190565b54600160301b90046001600160d01b0316610c36565b5f5b979650505050505050565b5f5f610c75610c58600b546001600160a01b031690565b8630610c6760045f898b611f10565b610c7091611f37565b6112a1565b9150915081610d335763ffffffff811615610d1057600b805460ff60a01b198116600160a01b17909155604051634a63ebf760e11b81526001600160a01b03909116906394c7d7ee90610cd090889088908890600401611f6f565b5f604051808303815f87803b158015610ce7575f5ffd5b505af1158015610cf9573d5f5f3e3d5ffd5b5050600b805460ff60a01b1916905550610d339050565b60405162d1953b60e31b81526001600160a01b03861660048201526024016105f6565b5050505050565b6001600160a01b038216610d635760405163ec442f0560e01b81525f60048201526024016105f6565b6105aa5f83836110b2565b6001600160a01b038281165f8181526008602052604080822080548686166001600160a01b0319821681179092559151919094169392849290917f3134e8a2e6d97e929a7e54011ea5485d7d196dd5f0ba4d4ef95803e8e3fc257f9190a46109468183610dda86611333565b611350565b6001600160a01b0381165f90815260096020526040812054610524906114b9565b600b80546001600160a01b0319166001600160a01b0383169081179091556040519081527f2f658b440c35314f52658ea8a740e05b284cdc84dc9ae01e891f21b8933e7cad9060200160405180910390a150565b6001600160a01b0381165f90815260076020526040812054610524565b60606105567f000000000000000000000000000000000000000000000000000000000000000060056114e9565b60606105567f000000000000000000000000000000000000000000000000000000000000000060066114e9565b80545f908015610efa57610ee483610c11600184611eea565b54600160301b90046001600160d01b031661091c565b5f9392505050565b5f610524610f0e610a24565b8360405161190160f01b8152600281019290925260228201526042902090565b5f5f5f5f610f3e88888888611592565b925092509250610f4e828261165a565b50909695505050505050565b6001600160a01b0382165f908152600760205260409020805460018101909155818114610946576040516301d4b62360e61b81526001600160a01b0384166004820152602481018290526044016105f6565b604080518082019091525f80825260208201526001600160a01b0383165f90815260096020526040902061091c9083611712565b6001600160a01b0384166110095760405163e602df0560e01b81525f60048201526024016105f6565b6001600160a01b03831661103257604051634a1406b160e11b81525f60048201526024016105f6565b6001600160a01b038085165f90815260016020908152604080832093871683529290522082905580156109c157826001600160a01b0316846001600160a01b03167f8c5be1e5ebec7d5bd14f71427d1e84f3dd0314c0f7b2291e5b200ac8c7c3b925846040516110a491815260200190565b60405180910390a350505050565b61094683838361177f565b5f65ffffffffffff8211156110ef576040516306dfcc6560e41b815260306004820152602481018390526044016105f6565b5090565b5f60018211611100575090565b816001600160801b82106111195760809190911c9060401b5b6801000000000000000082106111345760409190911c9060201b5b640100000000821061114b5760209190911c9060101b5b6201000082106111605760109190911c9060081b5b61010082106111745760089190911c9060041b5b601082106111875760049190911c9060021b5b600482106111935760011b5b600302600190811c908185816111ab576111ab611fae565b048201901c905060018185816111c3576111c3611fae565b048201901c905060018185816111db576111db611fae565b048201901c905060018185816111f3576111f3611fae565b048201901c9050600181858161120b5761120b611fae565b048201901c9050600181858161122357611223611fae565b048201901c905061124281858161123c5761123c611fae565b04821190565b90039392505050565b5f5b81831015611299575f85815260209020838316600285851804019081015465ffffffffffff8681169116111561128557809250611293565b611290816001611efd565b93505b5061124d565b509392505050565b6040516001600160a01b038085166024830152831660448201526001600160e01b0319821660648201525f908190819060840160408051601f19818403018152918152602080830180516001600160e01b031663b700961360e01b1781525f808052918290528351939450919290918a5afa15611329575f516020805191945081901c150291505b5094509492505050565b6001600160a01b0381165f90815260208190526040812054610524565b816001600160a01b0316836001600160a01b03161415801561137157505f81115b15610946576001600160a01b03831615611418576001600160a01b0383165f90815260096020526040812081906113b39061092e6113ae866117e5565b611818565b6001600160d01b031691506001600160d01b03169150846001600160a01b03167fdec2bacdd2f05b59de34da9b523dff8be42e5e38e818c82fdb0bae774387a724838360405161140d929190918252602082015260400190565b60405180910390a250505b6001600160a01b03821615610946576001600160a01b0382165f9081526009602052604081208190611450906109236113ae866117e5565b6001600160d01b031691506001600160d01b03169150836001600160a01b03167fdec2bacdd2f05b59de34da9b523dff8be42e5e38e818c82fdb0bae774387a72483836040516114aa929190918252602082015260400190565b60405180910390a25050505050565b5f63ffffffff8211156110ef576040516306dfcc6560e41b815260206004820152602481018390526044016105f6565b606060ff8314611503576114fc83611849565b9050610524565b81805461150f90611e60565b80601f016020809104026020016040519081016040528092919081815260200182805461153b90611e60565b80156115865780601f1061155d57610100808354040283529160200191611586565b820191905f5260205f20905b81548152906001019060200180831161156957829003601f168201915b50505050509050610524565b5f80807f7fffffffffffffffffffffffffffffff5d576e7357a4501ddfe92f46681b20a08411156115cb57505f91506003905082611650565b604080515f808252602082018084528a905260ff891692820192909252606081018790526080810186905260019060a0016020604051602081039080840390855afa15801561161c573d5f5f3e3d5ffd5b5050604051601f1901519150506001600160a01b03811661164757505f925060019150829050611650565b92505f91508190505b9450945094915050565b5f82600381111561166d5761166d611fc2565b03611676575050565b600182600381111561168a5761168a611fc2565b036116a85760405163f645eedf60e01b815260040160405180910390fd5b60028260038111156116bc576116bc611fc2565b036116dd5760405163fce698f760e01b8152600481018290526024016105f6565b60038260038111156116f1576116f1611fc2565b036105aa576040516335e2f38360e21b8152600481018290526024016105f6565b604080518082019091525f8082526020820152825f018263ffffffff168154811061173f5761173f611fd6565b5f9182526020918290206040805180820190915291015465ffffffffffff81168252600160301b90046001600160d01b0316918101919091529392505050565b61178a838383611886565b6001600160a01b0383166117da575f6117a260025490565b90506001600160d01b03808211156117d757604051630e58ae9360e11b815260048101839052602481018290526044016105f6565b50505b6109468383836119ac565b5f6001600160d01b038211156110ef576040516306dfcc6560e41b815260d06004820152602481018390526044016105f6565b5f8061183c4261183461182a88610ecb565b868863ffffffff16565b879190611a21565b915091505b935093915050565b60605f61185583611a2e565b6040805160208082528183019092529192505f91906020820181803683375050509182525060208101929092525090565b6001600160a01b0383166118b0578060025f8282546118a59190611efd565b909155506119209050565b6001600160a01b0383165f90815260208190526040902054818110156119025760405163391434e360e21b81526001600160a01b038516600482015260248101829052604481018390526064016105f6565b6001600160a01b0384165f9081526020819052604090209082900390555b6001600160a01b03821661193c5760028054829003905561195a565b6001600160a01b0382165f9081526020819052604090208054820190555b816001600160a01b0316836001600160a01b03167fddf252ad1be2c89b69c2b068fc378daa952ba7f163c4a11628f55a4df523b3ef8360405161199f91815260200190565b60405180910390a3505050565b6001600160a01b0383166119ce576119cb600a6109236113ae846117e5565b50505b6001600160a01b0382166119f0576119ed600a61092e6113ae846117e5565b50505b6001600160a01b038381165f9081526008602052604080822054858416835291205461094692918216911683611350565b5f8061183c858585611a55565b5f60ff8216601f81111561052457604051632cd44ac360e21b815260040160405180910390fd5b82545f9081908015611b4b575f611a7187610c11600185611eea565b805490915065ffffffffffff80821691600160301b90046001600160d01b0316908816821115611ab457604051632520601d60e01b815260040160405180910390fd5b8765ffffffffffff168265ffffffffffff1603611aed57825465ffffffffffff16600160301b6001600160d01b03891602178355611b3d565b6040805180820190915265ffffffffffff808a1682526001600160d01b03808a1660208085019182528d54600181018f555f8f81529190912094519151909216600160301b029216919091179101555b945085935061184192505050565b50506040805180820190915265ffffffffffff80851682526001600160d01b0380851660208085019182528854600181018a555f8a815291822095519251909316600160301b029190931617920191909155905081611841565b5f81518084528060208401602086015e5f602082860101526020601f19601f83011685010191505092915050565b602081525f61091c6020830184611ba5565b80356001600160a01b0381168114611bfb575f5ffd5b919050565b5f5f60408385031215611c11575f5ffd5b611c1a83611be5565b946020939093013593505050565b5f5f5f60608486031215611c3a575f5ffd5b611c4384611be5565b9250611c5160208501611be5565b929592945050506040919091013590565b5f60208284031215611c72575f5ffd5b61091c82611be5565b60ff60f81b8816815260e060208201525f611c9960e0830189611ba5565b8281036040840152611cab8189611ba5565b606084018890526001600160a01b038716608085015260a0840186905283810360c0850152845180825260208087019350909101905f5b81811015611d00578351835260209384019390920191600101611ce2565b50909b9a5050505050505050505050565b5f60208284031215611d21575f5ffd5b5035919050565b803560ff81168114611bfb575f5ffd5b5f5f5f5f5f5f60c08789031215611d4d575f5ffd5b611d5687611be5565b95506020870135945060408701359350611d7260608801611d28565b9598949750929560808101359460a0909101359350915050565b5f5f5f5f5f5f5f60e0888a031215611da2575f5ffd5b611dab88611be5565b9650611db960208901611be5565b95506040880135945060608801359350611dd560808901611d28565b9699959850939692959460a0840135945060c09093013592915050565b5f5f60408385031215611e03575f5ffd5b611e0c83611be5565b9150611e1a60208401611be5565b90509250929050565b5f5f60408385031215611e34575f5ffd5b611e3d83611be5565b9150602083013563ffffffff81168114611e55575f5ffd5b809150509250929050565b600181811c90821680611e7457607f821691505b602082108103611e9257634e487b7160e01b5f52602260045260245ffd5b50919050565b634e487b7160e01b5f52601160045260245ffd5b6001600160d01b03818116838216019081111561052457610524611e98565b6001600160d01b03828116828216039081111561052457610524611e98565b8181038181111561052457610524611e98565b8082018082111561052457610524611e98565b5f5f85851115611f1e575f5ffd5b83861115611f2a575f5ffd5b5050820193919092039150565b80356001600160e01b03198116906004841015611f68576001600160e01b0319600485900360031b81901b82161691505b5092915050565b6001600160a01b03841681526040602082018190528101829052818360608301375f818301606090810191909152601f909201601f1916010192915050565b634e487b7160e01b5f52601260045260245ffd5b634e487b7160e01b5f52602160045260245ffd5b634e487b7160e01b5f52603260045260245ffdfea2646970667358221220dd897ddff24020f7ec0c8dd154132694a9e87c5d57b448b52a873b60299c305664736f6c634300081c0033dec2bacdd2f05b59de34da9b523dff8be42e5e38e818c82fdb0bae774387a724","linkReferences":{}},"methodIdentifiers":{"CLOCK_MODE()":"4bf5d7e9","DOMAIN_SEPARATOR()":"3644e515","allowance(address,address)":"dd62ed3e","approve(address,uint256)":"095ea7b3","authority()":"bf7e214f","balanceOf(address)":"70a08231","checkpoints(address,uint32)":"f1127ed8","clock()":"91ddadf4","decimals()":"313ce567","delegate(address)":"5c19a95c","delegateBySig(address,uint256,uint256,uint8,bytes32,bytes32)":"c3cda520","delegates(address)":"587cde1e","eip712Domain()":"84b0196e","getPastTotalSupply(uint256)":"8e539e8c","getPastVotes(address,uint256)":"3a46b1a8","getVotes(address)":"9ab24eb0","isConsumingScheduledOp()":"8fb36037","mint(address,uint256)":"40c10f19","name()":"06fdde03","nonces(address)":"7ecebe00","numCheckpoints(address)":"6fcfff45","permit(address,address,uint256,uint256,uint8,bytes32,bytes32)":"d505accf","setAuthority(address)":"7a9e5e4b","symbol()":"95d89b41","totalSupply()":"18160ddd","transfer(address,uint256)":"a9059cbb","transferFrom(address,address,uint256)":"23b872dd"},"id":14}