{"abi":[{"type":"constructor","inputs":[],"stateMutability":"nonpayable"},{"type":"function","name":"allowance","inputs":[{"name":"owner","type":"address","internalType":"address"},{"name":"spender","type":"address","internalType":"address"}],"outputs":[{"name":"","type":"uint256","internalType":"uint256"}],"stateMutability":"view"},{"type":"function","name":"approve","inputs":[{"name":"spender","type":"address","internalType":"address"},{"name":"value","type":"uint256","internalType":"uint256"}],"outputs":[{"name":"","type":"bool","internalType":"bool"}],"stateMutability":"nonpayable"},{"type":"function","name":"armAttack","inputs":[{"name":"target_","type":"address","internalType":"address"},{"name":"borrowAmount_","type":"uint256","internalType":"uint256"}],"outputs":[],"stateMutability":"nonpayable"},{"type":"function","name":"armed","inputs":[],"outputs":[{"name":"","type":"bool","internalType":"bool"}],"stateMutability":"view"},{"type":"function","name":"attackBorrowAmount","inputs":[],"outputs":[{"name":"","type":"uint256","internalType":"uint256"}],"stateMutability":"view"},{"type":"function","name":"attackTarget","inputs":[],"outputs":[{"name":"","type":"address","internalType":"address"}],"stateMutability":"view"},{"type":"function","name":"balanceOf","inputs":[{"name":"account","type":"address","internalType":"address"}],"outputs":[{"name":"","type":"uint256","internalType":"uint256"}],"stateMutability":"view"},{"type":"function","name":"decimals","inputs":[],"outputs":[{"name":"","type":"uint8","internalType":"uint8"}],"stateMutability":"view"},{"type":"function","name":"mint","inputs":[{"name":"to","type":"address","internalType":"address"},{"name":"amount","type":"uint256","internalType":"uint256"}],"outputs":[],"stateMutability":"nonpayable"},{"type":"function","name":"name","inputs":[],"outputs":[{"name":"","type":"string","internalType":"string"}],"stateMutability":"view"},{"type":"function","name":"symbol","inputs":[],"outputs":[{"name":"","type":"string","internalType":"string"}],"stateMutability":"view"},{"type":"function","name":"totalSupply","inputs":[],"outputs":[{"name":"","type":"uint256","internalType":"uint256"}],"stateMutability":"view"},{"type":"function","name":"transfer","inputs":[{"name":"to","type":"address","internalType":"address"},{"name":"value","type":"uint256","internalType":"uint256"}],"outputs":[{"name":"","type":"bool","internalType":"bool"}],"stateMutability":"nonpayable"},{"type":"function","name":"transferFrom","inputs":[{"name":"from","type":"address","internalType":"address"},{"name":"to","type":"address","internalType":"address"},{"name":"value","type":"uint256","internalType":"uint256"}],"outputs":[{"name":"","type":"bool","internalType":"bool"}],"stateMutability":"nonpayable"},{"type":"event","name":"Approval","inputs":[{"name":"owner","type":"address","indexed":true,"internalType":"address"},{"name":"spender","type":"address","indexed":true,"internalType":"address"},{"name":"value","type":"uint256","indexed":false,"internalType":"uint256"}],"anonymous":false},{"type":"event","name":"Transfer","inputs":[{"name":"from","type":"address","indexed":true,"internalType":"address"},{"name":"to","type":"address","indexed":true,"internalType":"address"},{"name":"value","type":"uint256","indexed":false,"internalType":"uint256"}],"anonymous":false},{"type":"error","name":"ERC20InsufficientAllowance","inputs":[{"name":"spender","type":"address","internalType":"address"},{"name":"allowance","type":"uint256","internalType":"uint256"},{"name":"needed","type":"uint256","internalType":"uint256"}]},{"type":"error","name":"ERC20InsufficientBalance","inputs":[{"name":"sender","type":"address","internalType":"address"},{"name":"balance","type":"uint256","internalType":"uint256"},{"name":"needed","type":"uint256","internalType":"uint256"}]},{"type":"error","name":"ERC20InvalidApprover","inputs":[{"name":"approver","type":"address","internalType":"address"}]},{"type":"error","name":"ERC20InvalidReceiver","inputs":[{"name":"receiver","type":"address","internalType":"address"}]},{"type":"error","name":"ERC20InvalidSender","inputs":[{"name":"sender","type":"address","internalType":"address"}]},{"type":"error","name":"ERC20InvalidSpender","inputs":[{"name":"spender","type":"address","internalType":"address"}]}],"bytecode":{"object":"0x60806040523461032757604080519081016001600160401b0381118282101761023a576040908152601482527f5265656e7472616e7420436f6c6c61746572616c000000000000000000000000602083015280519081016001600160401b0381118282101761023a5760405260048152631490d3d360e21b602082015281516001600160401b03811161023a57600354600181811c9116801561031d575b602082101461021c57601f81116102ba575b50602092601f821160011461025957928192935f9261024e575b50508160011b915f199060031b1c1916176003555b80516001600160401b03811161023a57600454600181811c91168015610230575b602082101461021c57601f81116101b9575b50602091601f8211600114610159579181925f9261014e575b50508160011b915f199060031b1c1916176004555b604051610960908161032c8239f35b015190505f8061012a565b601f1982169260045f52805f20915f5b8581106101a157508360019510610189575b505050811b0160045561013f565b01515f1960f88460031b161c191690555f808061017b565b91926020600181928685015181550194019201610169565b60045f527f8a35acfbc15ff81a39ae7d344fd709f28e8600b4aa8c65c6b64bfe7fe36bd19b601f830160051c81019160208410610212575b601f0160051c01905b8181106102075750610111565b5f81556001016101fa565b90915081906101f1565b634e487b7160e01b5f52602260045260245ffd5b90607f16906100ff565b634e487b7160e01b5f52604160045260245ffd5b015190505f806100c9565b601f1982169360035f52805f20915f5b8681106102a2575083600195961061028a575b505050811b016003556100de565b01515f1960f88460031b161c191690555f808061027c565b91926020600181928685015181550194019201610269565b60035f527fc2575a0e9e593c00f959f8c92f12db2869c3395a3b0502d05e2516446f71f85b601f830160051c81019160208410610313575b601f0160051c01905b81811061030857506100af565b5f81556001016102fb565b90915081906102f2565b90607f169061009d565b5f80fdfe6080806040526004361015610012575f80fd5b5f905f3560e01c90816306fdde031461064557508063095ea7b3146105c357806318160ddd146105a657806323b872dd146104c75780632f411093146104a5578063313ce5671461048a57806340c10f1914610318578063414bbbab146102c7578063518a0e32146102a957806365ed2dfa1461028057806370a082311461024857806395d89b411461013f578063a9059cbb1461010d5763dd62ed3e146100b8575f80fd5b3461010a57604036600319011261010a5760406100d3610760565b916100dc610776565b9260018060a01b031681526001602052209060018060a01b03165f52602052602060405f2054604051908152f35b80fd5b503461010a57604036600319011261010a5761013461012a610760565b60243590336107c2565b602060405160018152f35b503461010a578060031936011261010a576040519080600454908160011c9160018116801561023e575b60208410811461022a5783865290811561020357506001146101a6575b6101a2846101968186038261078c565b60405191829182610736565b0390f35b600481527f8a35acfbc15ff81a39ae7d344fd709f28e8600b4aa8c65c6b64bfe7fe36bd19b939250905b8082106101e95750909150810160200161019682610186565b9192600181602092548385880101520191019092916101d0565b60ff191660208087019190915292151560051b850190920192506101969150839050610186565b634e487b7160e01b83526022600452602483fd5b92607f1692610169565b503461010a57602036600319011261010a576020906040906001600160a01b03610270610760565b1681528083522054604051908152f35b503461010a578060031936011261010a576005546040516001600160a01b039091168152602090f35b503461010a578060031936011261010a576020600654604051908152f35b503461010a57604036600319011261010a576001600160a01b036102e9610760565b166bffffffffffffffffffffffff60a01b6005541617600555602435600655600160ff19600754161760075580f35b503461043357604036600319011261043357610332610760565b6001600160a01b0316602435811561047757600254818101809111610463577fddf252ad1be2c89b69c2b068fc378daa952ba7f163c4a11628f55a4df523b3ef602084935f9360025584845283825260408420818154019055604051908152a36007549060ff82169081610453575b8161043e575b5080610437575b6103b6575080f35b61ffff1916610100176007556005546006546001600160a01b039190911690813b15610433575f9160248392604051948593849263317afabb60e21b845260048401525af1801561042857610415575b5061ff00196007541660075580f35b61042191505f9061078c565b5f5f610406565b6040513d5f823e3d90fd5b5f80fd5b505f6103ae565b6005546001600160a01b03161490505f6103a7565b905060ff8260081c1615906103a1565b634e487b7160e01b5f52601160045260245ffd5b63ec442f0560e01b5f525f60045260245ffd5b34610433575f36600319011261043357602060405160128152f35b34610433575f36600319011261043357602060ff600754166040519015158152f35b34610433576060366003190112610433576104e0610760565b6104e8610776565b6001600160a01b0382165f818152600160209081526040808320338452909152902054909260443592915f198110610526575b5061013493506107c2565b83811061058b57841561057857331561056557610134945f52600160205260405f2060018060a01b0333165f526020528360405f20910390558461051b565b634a1406b160e11b5f525f60045260245ffd5b63e602df0560e01b5f525f60045260245ffd5b8390637dc7a0d960e11b5f523360045260245260445260645ffd5b34610433575f366003190112610433576020600254604051908152f35b34610433576040366003190112610433576105dc610760565b602435903315610578576001600160a01b031690811561056557335f52600160205260405f20825f526020528060405f20556040519081527f8c5be1e5ebec7d5bd14f71427d1e84f3dd0314c0f7b2291e5b200ac8c7c3b92560203392a3602060405160018152f35b34610433575f366003190112610433575f6003548060011c9060018116801561072c575b602083108114610718578285529081156106f45750600114610696575b6101a2836101968185038261078c565b91905060035f527fc2575a0e9e593c00f959f8c92f12db2869c3395a3b0502d05e2516446f71f85b915f905b8082106106da57509091508101602001610196610686565b9192600181602092548385880101520191019092916106c2565b60ff191660208086019190915291151560051b840190910191506101969050610686565b634e487b7160e01b5f52602260045260245ffd5b91607f1691610669565b602060409281835280519182918282860152018484015e5f828201840152601f01601f1916010190565b600435906001600160a01b038216820361043357565b602435906001600160a01b038216820361043357565b90601f8019910116810190811067ffffffffffffffff8211176107ae57604052565b634e487b7160e01b5f52604160045260245ffd5b6001600160a01b0316908115610917576001600160a01b031691821561047757815f525f60205260405f20548181106108fe5760208284937fddf252ad1be2c89b69c2b068fc378daa952ba7f163c4a11628f55a4df523b3ef9387965f525f84520360405f2055845f525f825260405f20818154019055604051908152a36007549060ff821690816108ee575b816108d9575b50806108d1575b6108635750565b61ffff1916610100176007556005546006546001600160a01b039190911690813b15610433575f9160248392604051948593849263317afabb60e21b845260048401525af18015610428576108c1575b5061ff001960075416600755565b5f6108cb9161078c565b5f6108b3565b50600161085c565b6005546001600160a01b03161490505f610855565b905060ff8260081c16159061084f565b8263391434e360e21b5f5260045260245260445260645ffd5b634b637e8f60e11b5f525f60045260245ffdfea2646970667358221220a5ea6608887f1d1369d1fc83bfc8686cc5472703b990077fc39359e0941f61db64736f6c634300081c0033","linkReferences":{}},"methodIdentifiers":{"allowance(address,address)":"dd62ed3e","approve(address,uint256)":"095ea7b3","armAttack(address,uint256)":"414bbbab","armed()":"2f411093","attackBorrowAmount()":"518a0e32","attackTarget()":"65ed2dfa","balanceOf(address)":"70a08231","decimals()":"313ce567","mint(address,uint256)":"40c10f19","name()":"06fdde03","symbol()":"95d89b41","totalSupply()":"18160ddd","transfer(address,uint256)":"a9059cbb","transferFrom(address,address,uint256)":"23b872dd"},"id":35}