{"abi":[{"type":"constructor","inputs":[{"name":"owners_","type":"address[]","internalType":"address[]"},{"name":"threshold_","type":"uint256","internalType":"uint256"}],"stateMutability":"nonpayable"},{"type":"receive","stateMutability":"payable"},{"type":"function","name":"approvalCount","inputs":[{"name":"operationId","type":"bytes32","internalType":"bytes32"}],"outputs":[{"name":"","type":"uint256","internalType":"uint256"}],"stateMutability":"view"},{"type":"function","name":"approveOperation","inputs":[{"name":"operationId","type":"bytes32","internalType":"bytes32"}],"outputs":[],"stateMutability":"nonpayable"},{"type":"function","name":"approvedBy","inputs":[{"name":"operationId","type":"bytes32","internalType":"bytes32"},{"name":"owner","type":"address","internalType":"address"}],"outputs":[{"name":"","type":"bool","internalType":"bool"}],"stateMutability":"view"},{"type":"function","name":"executeOperation","inputs":[{"name":"target","type":"address","internalType":"address"},{"name":"value","type":"uint256","internalType":"uint256"},{"name":"data","type":"bytes","internalType":"bytes"},{"name":"nonce","type":"uint256","internalType":"uint256"}],"outputs":[{"name":"returndata","type":"bytes","internalType":"bytes"}],"stateMutability":"nonpayable"},{"type":"function","name":"executed","inputs":[{"name":"operationId","type":"bytes32","internalType":"bytes32"}],"outputs":[{"name":"","type":"bool","internalType":"bool"}],"stateMutability":"view"},{"type":"function","name":"isOwner","inputs":[{"name":"owner","type":"address","internalType":"address"}],"outputs":[{"name":"","type":"bool","internalType":"bool"}],"stateMutability":"view"},{"type":"function","name":"operationHash","inputs":[{"name":"target","type":"address","internalType":"address"},{"name":"value","type":"uint256","internalType":"uint256"},{"name":"data","type":"bytes","internalType":"bytes"},{"name":"nonce","type":"uint256","internalType":"uint256"}],"outputs":[{"name":"","type":"bytes32","internalType":"bytes32"}],"stateMutability":"pure"},{"type":"function","name":"owners","inputs":[],"outputs":[{"name":"","type":"address[]","internalType":"address[]"}],"stateMutability":"view"},{"type":"function","name":"revokeApproval","inputs":[{"name":"operationId","type":"bytes32","internalType":"bytes32"}],"outputs":[],"stateMutability":"nonpayable"},{"type":"function","name":"threshold","inputs":[],"outputs":[{"name":"","type":"uint256","internalType":"uint256"}],"stateMutability":"view"},{"type":"event","name":"ApprovalRevoked","inputs":[{"name":"operationId","type":"bytes32","indexed":true,"internalType":"bytes32"},{"name":"owner","type":"address","indexed":true,"internalType":"address"},{"name":"approvals","type":"uint256","indexed":false,"internalType":"uint256"},{"name":"threshold","type":"uint256","indexed":false,"internalType":"uint256"}],"anonymous":false},{"type":"event","name":"OperationApproved","inputs":[{"name":"operationId","type":"bytes32","indexed":true,"internalType":"bytes32"},{"name":"owner","type":"address","indexed":true,"internalType":"address"},{"name":"approvals","type":"uint256","indexed":false,"internalType":"uint256"},{"name":"threshold","type":"uint256","indexed":false,"internalType":"uint256"}],"anonymous":false},{"type":"event","name":"OperationExecuted","inputs":[{"name":"operationId","type":"bytes32","indexed":true,"internalType":"bytes32"},{"name":"executor","type":"address","indexed":true,"internalType":"address"},{"name":"target","type":"address","indexed":true,"internalType":"address"},{"name":"value","type":"uint256","indexed":false,"internalType":"uint256"}],"anonymous":false},{"type":"error","name":"AlreadyApproved","inputs":[{"name":"operationId","type":"bytes32","internalType":"bytes32"},{"name":"owner","type":"address","internalType":"address"}]},{"type":"error","name":"CallFailed","inputs":[{"name":"operationId","type":"bytes32","internalType":"bytes32"},{"name":"returndata","type":"bytes","internalType":"bytes"}]},{"type":"error","name":"DuplicateOwner","inputs":[{"name":"owner","type":"address","internalType":"address"}]},{"type":"error","name":"InsufficientApprovals","inputs":[{"name":"operationId","type":"bytes32","internalType":"bytes32"},{"name":"approvals","type":"uint256","internalType":"uint256"},{"name":"threshold","type":"uint256","internalType":"uint256"}]},{"type":"error","name":"InvalidOwner","inputs":[]},{"type":"error","name":"InvalidThreshold","inputs":[]},{"type":"error","name":"NotOwner","inputs":[{"name":"caller","type":"address","internalType":"address"}]},{"type":"error","name":"OperationAlreadyExecuted","inputs":[{"name":"operationId","type":"bytes32","internalType":"bytes32"}]}],"bytecode":{"object":"0x60a060405234801561000f575f5ffd5b50604051610cef380380610cef83398101604081905261002e916101bd565b81515f0361004f5760405163aabd5a0960e01b815260040160405180910390fd5b80158061005c5750815181115b1561007a5760405163aabd5a0960e01b815260040160405180910390fd5b5f5b8251811015610184575f83828151811061009857610098610291565b602002602001015190505f6001600160a01b0316816001600160a01b0316036100d4576040516349e27cff60e01b815260040160405180910390fd5b6001600160a01b0381165f9081526001602052604090205460ff161561011c57604051632029bc6560e01b81526001600160a01b038216600482015260240160405180910390fd5b6001600160a01b03165f8181526001602081905260408220805460ff191682179055815480820183559180527f290decd9548b62a8d60345a988386fc84ba6bc95484008f6362f93160ef3e56390910180546001600160a01b0319169092179091550161007c565b50608052506102a5565b634e487b7160e01b5f52604160045260245ffd5b80516001600160a01b03811681146101b8575f5ffd5b919050565b5f5f604083850312156101ce575f5ffd5b82516001600160401b038111156101e3575f5ffd5b8301601f810185136101f3575f5ffd5b80516001600160401b0381111561020c5761020c61018e565b604051600582901b90603f8201601f191681016001600160401b038111828210171561023a5761023a61018e565b604052918252602081840181019290810188841115610257575f5ffd5b6020850194505b8385101561027d5761026f856101a2565b81526020948501940161025e565b506020969096015195979596505050505050565b634e487b7160e01b5f52603260045260245ffd5b608051610a166102d95f395f818161016a0152818161037d015281816104db0152818161062a015261066d0152610a165ff3fe608060405260043610610092575f3560e01c80638d1ba346116100575780638d1ba3461461019a578063a9fcfb33146101c5578063affe39c1146101f3578063d2477f0314610214578063df7e284314610233575f5ffd5b806315ba5ae71461009d57806325f6ac85146100be5780632f54bf6e1461010c5780633ccccbee1461013a57806342cde4e814610159575f5ffd5b3661009957005b5f5ffd5b3480156100a8575f5ffd5b506100bc6100b7366004610790565b61025f565b005b3480156100c9575f5ffd5b506100f76100d83660046107c2565b600460209081525f928352604080842090915290825290205460ff1681565b60405190151581526020015b60405180910390f35b348015610117575f5ffd5b506100f76101263660046107ec565b60016020525f908152604090205460ff1681565b348015610145575f5ffd5b506100bc610154366004610790565b6103b7565b348015610164575f5ffd5b5061018c7f000000000000000000000000000000000000000000000000000000000000000081565b604051908152602001610103565b3480156101a5575f5ffd5b5061018c6101b4366004610790565b60026020525f908152604090205481565b3480156101d0575f5ffd5b506100f76101df366004610790565b60036020525f908152604090205460ff1681565b3480156101fe575f5ffd5b50610207610509565b604051610103919061080c565b34801561021f575f5ffd5b5061018c61022e366004610857565b610568565b34801561023e575f5ffd5b5061025261024d366004610857565b6105a3565b604051610103919061090f565b335f9081526001602052604090205460ff166102955760405163245aecd360e01b81523360048201526024015b60405180910390fd5b5f8181526003602052604090205460ff16156102c757604051630f8944f560e11b81526004810182905260240161028c565b5f81815260046020908152604080832033845290915290205460ff166103025760405163245aecd360e01b815233600482015260240161028c565b5f8181526004602090815260408083203384528252808320805460ff19169055838352600290915281205461033990600190610935565b5f838152600260205260409081902082905551909150339083907f1467efb5c013ab259e9984878b2ba4bb9dcf1e00f7b4d19bacb1406ca0f56af1906103ab9085907f000000000000000000000000000000000000000000000000000000000000000090918252602082015260400190565b60405180910390a35050565b335f9081526001602052604090205460ff166103e85760405163245aecd360e01b815233600482015260240161028c565b5f8181526003602052604090205460ff161561041a57604051630f8944f560e11b81526004810182905260240161028c565b5f81815260046020908152604080832033845290915290205460ff161561045d5760405163a72db78760e01b81526004810182905233602482015260440161028c565b5f8181526004602090815260408083203384528252808320805460ff1916600190811790915584845260029092528220546104979161094e565b5f838152600260205260409081902082905551909150339083907f268f6de698f812297076701dc10500923637b99bf7da97e3a222d057879d40ae906103ab9085907f000000000000000000000000000000000000000000000000000000000000000090918252602082015260400190565b60605f80548060200260200160405190810160405280929190818152602001828054801561055e57602002820191905f5260205f20905b81546001600160a01b03168152600190910190602001808311610540575b5050505050905090565b5f8585858585604051602001610582959493929190610961565b60405160208183030381529060405280519060200120905095945050505050565b335f9081526001602052604090205460609060ff166105d75760405163245aecd360e01b815233600482015260240161028c565b5f6105e58787878787610568565b5f8181526003602052604090205490915060ff161561061a57604051630f8944f560e11b81526004810182905260240161028c565b5f818152600260205260409020547f000000000000000000000000000000000000000000000000000000000000000081101561069957604051635177d0f760e11b815260048101839052602481018290527f0000000000000000000000000000000000000000000000000000000000000000604482015260640161028c565b5f82815260036020526040808220805460ff191660011790555181906001600160a01b038b16908a906106cf908b908b906109b1565b5f6040518083038185875af1925050503d805f8114610709576040519150601f19603f3d011682016040523d82523d5f602084013e61070e565b606091505b50915091508161073557838160405163289a431960e11b815260040161028c9291906109c0565b896001600160a01b0316336001600160a01b0316857f677faf204d839bc8a2d323612d54bae5328c5f10cbb31d3e37d4c55bfb5fc5928c60405161077b91815260200190565b60405180910390a49998505050505050505050565b5f602082840312156107a0575f5ffd5b5035919050565b80356001600160a01b03811681146107bd575f5ffd5b919050565b5f5f604083850312156107d3575f5ffd5b823591506107e3602084016107a7565b90509250929050565b5f602082840312156107fc575f5ffd5b610805826107a7565b9392505050565b602080825282518282018190525f918401906040840190835b8181101561084c5783516001600160a01b0316835260209384019390920191600101610825565b509095945050505050565b5f5f5f5f5f6080868803121561086b575f5ffd5b610874866107a7565b945060208601359350604086013567ffffffffffffffff811115610896575f5ffd5b8601601f810188136108a6575f5ffd5b803567ffffffffffffffff8111156108bc575f5ffd5b8860208284010111156108cd575f5ffd5b959894975060200195606001359392505050565b5f81518084528060208401602086015e5f602082860101526020601f19601f83011685010191505092915050565b602081525f61080560208301846108e1565b634e487b7160e01b5f52601160045260245ffd5b8181038181111561094857610948610921565b92915050565b8082018082111561094857610948610921565b6001600160a01b0386168152602081018590526080604082018190528101839052828460a08301375f60a084830101525f60a0601f19601f86011683010190508260608301529695505050505050565b818382375f9101908152919050565b828152604060208201525f6109d860408301846108e1565b94935050505056fea2646970667358221220b948565cf87bd80737ab9d3a73ca8948ea765f24cf8b7d7feb8a7a306af2f08c64736f6c634300081c0033","linkReferences":{}},"methodIdentifiers":{"approvalCount(bytes32)":"8d1ba346","approveOperation(bytes32)":"3ccccbee","approvedBy(bytes32,address)":"25f6ac85","executeOperation(address,uint256,bytes,uint256)":"df7e2843","executed(bytes32)":"a9fcfb33","isOwner(address)":"2f54bf6e","operationHash(address,uint256,bytes,uint256)":"d2477f03","owners()":"affe39c1","revokeApproval(bytes32)":"15ba5ae7","threshold()":"42cde4e8"},"id":8}