{"abi":[{"type":"constructor","inputs":[{"name":"authority","type":"address","internalType":"address"}],"stateMutability":"nonpayable"},{"type":"function","name":"allowance","inputs":[{"name":"owner","type":"address","internalType":"address"},{"name":"spender","type":"address","internalType":"address"}],"outputs":[{"name":"","type":"uint256","internalType":"uint256"}],"stateMutability":"view"},{"type":"function","name":"approve","inputs":[{"name":"spender","type":"address","internalType":"address"},{"name":"value","type":"uint256","internalType":"uint256"}],"outputs":[{"name":"","type":"bool","internalType":"bool"}],"stateMutability":"nonpayable"},{"type":"function","name":"authority","inputs":[],"outputs":[{"name":"","type":"address","internalType":"address"}],"stateMutability":"view"},{"type":"function","name":"balanceOf","inputs":[{"name":"account","type":"address","internalType":"address"}],"outputs":[{"name":"","type":"uint256","internalType":"uint256"}],"stateMutability":"view"},{"type":"function","name":"decimals","inputs":[],"outputs":[{"name":"","type":"uint8","internalType":"uint8"}],"stateMutability":"pure"},{"type":"function","name":"isConsumingScheduledOp","inputs":[],"outputs":[{"name":"","type":"bytes4","internalType":"bytes4"}],"stateMutability":"view"},{"type":"function","name":"mint","inputs":[{"name":"to","type":"address","internalType":"address"},{"name":"amount","type":"uint256","internalType":"uint256"}],"outputs":[],"stateMutability":"nonpayable"},{"type":"function","name":"name","inputs":[],"outputs":[{"name":"","type":"string","internalType":"string"}],"stateMutability":"view"},{"type":"function","name":"setAuthority","inputs":[{"name":"newAuthority","type":"address","internalType":"address"}],"outputs":[],"stateMutability":"nonpayable"},{"type":"function","name":"symbol","inputs":[],"outputs":[{"name":"","type":"string","internalType":"string"}],"stateMutability":"view"},{"type":"function","name":"totalSupply","inputs":[],"outputs":[{"name":"","type":"uint256","internalType":"uint256"}],"stateMutability":"view"},{"type":"function","name":"transfer","inputs":[{"name":"to","type":"address","internalType":"address"},{"name":"value","type":"uint256","internalType":"uint256"}],"outputs":[{"name":"","type":"bool","internalType":"bool"}],"stateMutability":"nonpayable"},{"type":"function","name":"transferFrom","inputs":[{"name":"from","type":"address","internalType":"address"},{"name":"to","type":"address","internalType":"address"},{"name":"value","type":"uint256","internalType":"uint256"}],"outputs":[{"name":"","type":"bool","internalType":"bool"}],"stateMutability":"nonpayable"},{"type":"event","name":"Approval","inputs":[{"name":"owner","type":"address","indexed":true,"internalType":"address"},{"name":"spender","type":"address","indexed":true,"internalType":"address"},{"name":"value","type":"uint256","indexed":false,"internalType":"uint256"}],"anonymous":false},{"type":"event","name":"AuthorityUpdated","inputs":[{"name":"authority","type":"address","indexed":false,"internalType":"address"}],"anonymous":false},{"type":"event","name":"Transfer","inputs":[{"name":"from","type":"address","indexed":true,"internalType":"address"},{"name":"to","type":"address","indexed":true,"internalType":"address"},{"name":"value","type":"uint256","indexed":false,"internalType":"uint256"}],"anonymous":false},{"type":"error","name":"AccessManagedInvalidAuthority","inputs":[{"name":"authority","type":"address","internalType":"address"}]},{"type":"error","name":"AccessManagedRequiredDelay","inputs":[{"name":"caller","type":"address","internalType":"address"},{"name":"delay","type":"uint32","internalType":"uint32"}]},{"type":"error","name":"AccessManagedUnauthorized","inputs":[{"name":"caller","type":"address","internalType":"address"}]},{"type":"error","name":"ERC20InsufficientAllowance","inputs":[{"name":"spender","type":"address","internalType":"address"},{"name":"allowance","type":"uint256","internalType":"uint256"},{"name":"needed","type":"uint256","internalType":"uint256"}]},{"type":"error","name":"ERC20InsufficientBalance","inputs":[{"name":"sender","type":"address","internalType":"address"},{"name":"balance","type":"uint256","internalType":"uint256"},{"name":"needed","type":"uint256","internalType":"uint256"}]},{"type":"error","name":"ERC20InvalidApprover","inputs":[{"name":"approver","type":"address","internalType":"address"}]},{"type":"error","name":"ERC20InvalidReceiver","inputs":[{"name":"receiver","type":"address","internalType":"address"}]},{"type":"error","name":"ERC20InvalidSender","inputs":[{"name":"sender","type":"address","internalType":"address"}]},{"type":"error","name":"ERC20InvalidSpender","inputs":[{"name":"spender","type":"address","internalType":"address"}]}],"bytecode":{"object":"0x60806040523461036757610d366020813803918261001c8161036b565b93849283398101031261036757516001600160a01b0381169081900361036757610046604061036b565b9060098252681554d110cb5d195cdd60ba1b6020830152610067604061036b565b60058152641554d110dd60da1b602082015282516001600160401b03811161027857600354600181811c9116801561035d575b602082101461025a57601f81116102fa575b506020601f821160011461029757819293945f9261028c575b50508160011b915f199060031b1c1916176003555b8051906001600160401b03821161027857600454600181811c9116801561026e575b602082101461025a57601f81116101f7575b50602090601f83116001146101815791805f516020610d165f395f51905f5294926020945f92610176575b50508160011b915f199060031b1c1916176004555b600580546001600160a01b03191682179055604051908152a160405161098590816103918239f35b015190505f80610139565b90601f1983169160045f52815f20925f5b8181106101df57509260019285926020965f516020610d165f395f51905f529896106101c7575b505050811b0160045561014e565b01515f1960f88460031b161c191690555f80806101b9565b92936020600181928786015181550195019301610192565b60045f527f8a35acfbc15ff81a39ae7d344fd709f28e8600b4aa8c65c6b64bfe7fe36bd19b601f840160051c81019160208510610250575b601f0160051c01905b818110610245575061010e565b5f8155600101610238565b909150819061022f565b634e487b7160e01b5f52602260045260245ffd5b90607f16906100fc565b634e487b7160e01b5f52604160045260245ffd5b015190505f806100c5565b601f1982169060035f52805f20915f5b8181106102e2575095836001959697106102ca575b505050811b016003556100da565b01515f1960f88460031b161c191690555f80806102bc565b9192602060018192868b0151815501940192016102a7565b60035f527fc2575a0e9e593c00f959f8c92f12db2869c3395a3b0502d05e2516446f71f85b601f830160051c81019160208410610353575b601f0160051c01905b81811061034857506100ac565b5f815560010161033b565b9091508190610332565b90607f169061009a565b5f80fd5b6040519190601f01601f191682016001600160401b038111838210176102785760405256fe6080806040526004361015610012575f80fd5b5f905f358060e01c91826306fdde031461071557508163095ea7b31461069357816318160ddd1461067657816323b872dd14610597578163313ce5671461057c57816340c10f19146103925750806370a082311461035a5780637a9e5e4b146102ae5780638fb360371461026857806395d89b411461015f578063a9059cbb1461012d578063bf7e214f146101045763dd62ed3e146100af575f80fd5b346101015760403660031901126101015760406100ca610830565b916100d3610846565b9260018060a01b031681526001602052209060018060a01b03165f52602052602060405f2054604051908152f35b80fd5b50346101015780600319360112610101576005546040516001600160a01b039091168152602090f35b50346101015760403660031901126101015761015461014a610830565b6024359033610892565b602060405160018152f35b50346101015780600319360112610101576040519080600454908160011c9160018116801561025e575b60208410811461024a5783865290811561022357506001146101c6575b6101c2846101b68186038261085c565b60405191829182610806565b0390f35b600481527f8a35acfbc15ff81a39ae7d344fd709f28e8600b4aa8c65c6b64bfe7fe36bd19b939250905b808210610209575090915081016020016101b6826101a6565b9192600181602092548385880101520191019092916101f0565b60ff191660208087019190915292151560051b850190920192506101b691508390506101a6565b634e487b7160e01b83526022600452602483fd5b92607f1692610189565b503461010157806003193601126101015760055460a01c60ff16156102a657506020638fb3603760e01b5b6040516001600160e01b03199091168152f35b602090610293565b5034610101576020366003190112610101576102c8610830565b600554906001600160a01b038216330361034857803b1561032d576001600160a01b03166001600160a01b03199190911681176005556040519081527f2f658b440c35314f52658ea8a740e05b284cdc84dc9ae01e891f21b8933e7cad90602090a180f35b6361798f2f60e11b83526001600160a01b0316600452602482fd5b62d1953b60e31b835233600452602483fd5b5034610101576020366003190112610101576020906040906001600160a01b03610382610830565b1681528083522054604051908152f35b905034610553576040366003190112610553576103ad610830565b600554602435926001600160a01b038216919036600411610553575f60405f80938251602081019163b700961360e01b835233602483015230604483015263ffffffff60e01b1660648201526064815261040860848261085c565b828052826020525190875afa610569575b156104aa575b5050506001600160a01b03169081156104965760025481810180911161048257602084927fddf252ad1be2c89b69c2b068fc378daa952ba7f163c4a11628f55a4df523b3ef9260025584845283825260408420818154019055604051908152a380f35b634e487b7160e01b84526011600452602484fd5b63ec442f0560e01b83526004839052602483fd5b63ffffffff16156105575760ff60a01b1916600160a01b17600555803b15610553575f6040518092634a63ebf760e11b8252336004830152604060248301523660448301523683606484013782606436840101528183606482601f19601f36011681010301925af1801561054857610533575b506005805460ff60a01b191690555f808061041f565b6105409193505f9061085c565b5f915f61051d565b6040513d5f823e3d90fd5b5f80fd5b62d1953b60e31b5f523360045260245ffd5b50505f516020518060201c150290610419565b34610553575f36600319011261055357602060405160128152f35b34610553576060366003190112610553576105b0610830565b6105b8610846565b6001600160a01b0382165f818152600160209081526040808320338452909152902054909260443592915f1981106105f6575b506101549350610892565b83811061065b57841561064857331561063557610154945f52600160205260405f2060018060a01b0333165f526020528360405f2091039055846105eb565b634a1406b160e11b5f525f60045260245ffd5b63e602df0560e01b5f525f60045260245ffd5b8390637dc7a0d960e11b5f523360045260245260445260645ffd5b34610553575f366003190112610553576020600254604051908152f35b34610553576040366003190112610553576106ac610830565b602435903315610648576001600160a01b031690811561063557335f52600160205260405f20825f526020528060405f20556040519081527f8c5be1e5ebec7d5bd14f71427d1e84f3dd0314c0f7b2291e5b200ac8c7c3b92560203392a3602060405160018152f35b34610553575f366003190112610553575f6003548060011c906001811680156107fc575b6020831081146107e8578285529081156107c45750600114610766575b6101c2836101b68185038261085c565b91905060035f527fc2575a0e9e593c00f959f8c92f12db2869c3395a3b0502d05e2516446f71f85b915f905b8082106107aa575090915081016020016101b6610756565b919260018160209254838588010152019101909291610792565b60ff191660208086019190915291151560051b840190910191506101b69050610756565b634e487b7160e01b5f52602260045260245ffd5b91607f1691610739565b602060409281835280519182918282860152018484015e5f828201840152601f01601f1916010190565b600435906001600160a01b038216820361055357565b602435906001600160a01b038216820361055357565b90601f8019910116810190811067ffffffffffffffff82111761087e57604052565b634e487b7160e01b5f52604160045260245ffd5b6001600160a01b031690811561093c576001600160a01b031691821561092957815f525f60205260405f205481811061091057817fddf252ad1be2c89b69c2b068fc378daa952ba7f163c4a11628f55a4df523b3ef92602092855f525f84520360405f2055845f525f825260405f20818154019055604051908152a3565b8263391434e360e21b5f5260045260245260445260645ffd5b63ec442f0560e01b5f525f60045260245ffd5b634b637e8f60e11b5f525f60045260245ffdfea2646970667358221220baf99da70839c1b3a9af7925a300a3c7e9da6dc46f4ae7cfbb5f5885aed2395b64736f6c634300081c00332f658b440c35314f52658ea8a740e05b284cdc84dc9ae01e891f21b8933e7cad","linkReferences":{}},"methodIdentifiers":{"allowance(address,address)":"dd62ed3e","approve(address,uint256)":"095ea7b3","authority()":"bf7e214f","balanceOf(address)":"70a08231","decimals()":"313ce567","isConsumingScheduledOp()":"8fb36037","mint(address,uint256)":"40c10f19","name()":"06fdde03","setAuthority(address)":"7a9e5e4b","symbol()":"95d89b41","totalSupply()":"18160ddd","transfer(address,uint256)":"a9059cbb","transferFrom(address,address,uint256)":"23b872dd"},"id":9}