{"abi":[{"type":"constructor","inputs":[{"name":"baseRateBps_","type":"uint256","internalType":"uint256"},{"name":"slope1Bps_","type":"uint256","internalType":"uint256"},{"name":"slope2Bps_","type":"uint256","internalType":"uint256"},{"name":"kinkBps_","type":"uint256","internalType":"uint256"},{"name":"healthyMaxLtvBps_","type":"uint256","internalType":"uint256"},{"name":"stressedMaxLtvBps_","type":"uint256","internalType":"uint256"},{"name":"healthyLiquidationThresholdBps_","type":"uint256","internalType":"uint256"},{"name":"stressedLiquidationThresholdBps_","type":"uint256","internalType":"uint256"},{"name":"staleBorrowRatePenaltyBps_","type":"uint256","internalType":"uint256"},{"name":"stressedCollateralRatioBps_","type":"uint256","internalType":"uint256"}],"stateMutability":"nonpayable"},{"type":"function","name":"baseRateBps","inputs":[],"outputs":[{"name":"","type":"uint256","internalType":"uint256"}],"stateMutability":"view"},{"type":"function","name":"healthyLiquidationThresholdBps","inputs":[],"outputs":[{"name":"","type":"uint256","internalType":"uint256"}],"stateMutability":"view"},{"type":"function","name":"healthyMaxLtvBps","inputs":[],"outputs":[{"name":"","type":"uint256","internalType":"uint256"}],"stateMutability":"view"},{"type":"function","name":"kinkBps","inputs":[],"outputs":[{"name":"","type":"uint256","internalType":"uint256"}],"stateMutability":"view"},{"type":"function","name":"quote","inputs":[{"name":"input","type":"tuple","internalType":"struct IRiskEngine.QuoteInput","components":[{"name":"utilizationBps","type":"uint256","internalType":"uint256"},{"name":"collateralRatioBps","type":"uint256","internalType":"uint256"},{"name":"oracleAgeSeconds","type":"uint256","internalType":"uint256"},{"name":"oracleFresh","type":"bool","internalType":"bool"}]}],"outputs":[{"name":"output","type":"tuple","internalType":"struct IRiskEngine.QuoteOutput","components":[{"name":"borrowRateBps","type":"uint256","internalType":"uint256"},{"name":"maxLtvBps","type":"uint256","internalType":"uint256"},{"name":"liquidationThresholdBps","type":"uint256","internalType":"uint256"}]}],"stateMutability":"view"},{"type":"function","name":"slope1Bps","inputs":[],"outputs":[{"name":"","type":"uint256","internalType":"uint256"}],"stateMutability":"view"},{"type":"function","name":"slope2Bps","inputs":[],"outputs":[{"name":"","type":"uint256","internalType":"uint256"}],"stateMutability":"view"},{"type":"function","name":"staleBorrowRatePenaltyBps","inputs":[],"outputs":[{"name":"","type":"uint256","internalType":"uint256"}],"stateMutability":"view"},{"type":"function","name":"stressedCollateralRatioBps","inputs":[],"outputs":[{"name":"","type":"uint256","internalType":"uint256"}],"stateMutability":"view"},{"type":"function","name":"stressedLiquidationThresholdBps","inputs":[],"outputs":[{"name":"","type":"uint256","internalType":"uint256"}],"stateMutability":"view"},{"type":"function","name":"stressedMaxLtvBps","inputs":[],"outputs":[{"name":"","type":"uint256","internalType":"uint256"}],"stateMutability":"view"},{"type":"error","name":"InvalidBasisPoints","inputs":[]}],"bytecode":{"object":"0x6101c0604052348015610010575f5ffd5b506040516108e43803806108e483398101604081905261002f916100f5565b86158061003e57506127108710155b80610047575085155b8061005457506127108610155b8061005d575084155b8061006757508585115b806100725750858411155b8061007e575061271084115b806100895750848311155b8061009357508383115b8061009f575061271081105b156100bd5760405163800c7e9160e01b815260040160405180910390fd5b60809990995260a09790975260c09590955260e09390935261010091909152610120526101405261016052610180526101a052610195565b5f5f5f5f5f5f5f5f5f5f6101408b8d03121561010f575f5ffd5b5f8b519050809a50505f60208c01519050809950505f60408c01519050809850505f60608c01519050809750505f60808c01519050809650505f60a08c01519050809550505f60c08c01519050809450505f60e08c01519050809350505f6101008c01519050809250505f6101208c01519050809150509295989b9194979a5092959850565b60805160a05160c05160e05161010051610120516101405161016051610180516101a05161067961026b5f395f818160e9015261030201525f818161020801526102bb01525f818160af015261036701525f818161016c01526103b801525f81816101ba015261034101525f8181610193015261039201525f8181610145015281816103fc01528181610423015281816104ad01526104da01525f81816101e1015261050901525f818161025601528181610447015261053d01525f818161022f0152818161047c015261055e01526106795ff3fe608060405234801561000f575f5ffd5b50600436106100a6575f3560e01c80636000b2a11161006e5780636000b2a11461018e57806367480897146101b5578063a14195a8146101dc578063a845c81c14610203578063aaa6a3911461022a578063de0e63cd14610251575f5ffd5b806305343500146100aa5780632a7e9c55146100e4578063302160991461010b5780633a989ce9146101405780635516195714610167575b5f5ffd5b6100d17f000000000000000000000000000000000000000000000000000000000000000081565b6040519081526020015b60405180910390f35b6100d17f000000000000000000000000000000000000000000000000000000000000000081565b61011e610119366004610595565b610278565b60408051825181526020808401519082015291810151908201526060016100db565b6100d17f000000000000000000000000000000000000000000000000000000000000000081565b6100d17f000000000000000000000000000000000000000000000000000000000000000081565b6100d17f000000000000000000000000000000000000000000000000000000000000000081565b6100d17f000000000000000000000000000000000000000000000000000000000000000081565b6100d17f000000000000000000000000000000000000000000000000000000000000000081565b6100d17f000000000000000000000000000000000000000000000000000000000000000081565b6100d17f000000000000000000000000000000000000000000000000000000000000000081565b6100d17f000000000000000000000000000000000000000000000000000000000000000081565b61029960405180606001604052805f81526020015f81526020015f81525090565b6102a382356103e3565b81526102b560808301606084016105ae565b6102ff577f0000000000000000000000000000000000000000000000000000000000000000815f018181516102ea91906105e1565b9052505f602082018190526040820152919050565b5f7f00000000000000000000000000000000000000000000000000000000000000008360200135108061033757506107088360400135115b90508015610390577f000000000000000000000000000000000000000000000000000000000000000060208301527f000000000000000000000000000000000000000000000000000000000000000060408301526103dd565b7f000000000000000000000000000000000000000000000000000000000000000060208301527f000000000000000000000000000000000000000000000000000000000000000060408301525b50919050565b5f5f61271083116103f457826103f8565b6127105b90507f000000000000000000000000000000000000000000000000000000000000000081116104a7577f000000000000000000000000000000000000000000000000000000000000000061046c7f0000000000000000000000000000000000000000000000000000000000000000836105fa565b6104769190610611565b6104a0907f00000000000000000000000000000000000000000000000000000000000000006105e1565b9392505050565b5f6104d27f000000000000000000000000000000000000000000000000000000000000000083610630565b90505f6105017f0000000000000000000000000000000000000000000000000000000000000000612710610630565b90508061052e7f0000000000000000000000000000000000000000000000000000000000000000846105fa565b6105389190610611565b6105827f00000000000000000000000000000000000000000000000000000000000000007f00000000000000000000000000000000000000000000000000000000000000006105e1565b61058c91906105e1565b95945050505050565b5f60808284031280156105a6575f5ffd5b509092915050565b5f602082840312156105be575f5ffd5b813580151581146104a0575f5ffd5b634e487b7160e01b5f52601160045260245ffd5b808201808211156105f4576105f46105cd565b92915050565b80820281158282048414176105f4576105f46105cd565b5f8261062b57634e487b7160e01b5f52601260045260245ffd5b500490565b818103818111156105f4576105f46105cd56fea26469706673582212206fb5a436ab8ae57f54530e3a7ff1f7418293057f9a279c00a63c918a0073376964736f6c634300081c0033","linkReferences":{}},"methodIdentifiers":{"baseRateBps()":"aaa6a391","healthyLiquidationThresholdBps()":"55161957","healthyMaxLtvBps()":"6000b2a1","kinkBps()":"3a989ce9","quote((uint256,uint256,uint256,bool))":"30216099","slope1Bps()":"de0e63cd","slope2Bps()":"a14195a8","staleBorrowRatePenaltyBps()":"a845c81c","stressedCollateralRatioBps()":"2a7e9c55","stressedLiquidationThresholdBps()":"05343500","stressedMaxLtvBps()":"67480897"},"id":23}