{"abi":[{"type":"constructor","inputs":[],"stateMutability":"nonpayable"},{"type":"receive","stateMutability":"payable"},{"type":"function","name":"allowance","inputs":[{"name":"owner","type":"address","internalType":"address"},{"name":"spender","type":"address","internalType":"address"}],"outputs":[{"name":"","type":"uint256","internalType":"uint256"}],"stateMutability":"view"},{"type":"function","name":"approve","inputs":[{"name":"spender","type":"address","internalType":"address"},{"name":"value","type":"uint256","internalType":"uint256"}],"outputs":[{"name":"","type":"bool","internalType":"bool"}],"stateMutability":"nonpayable"},{"type":"function","name":"balanceOf","inputs":[{"name":"account","type":"address","internalType":"address"}],"outputs":[{"name":"","type":"uint256","internalType":"uint256"}],"stateMutability":"view"},{"type":"function","name":"decimals","inputs":[],"outputs":[{"name":"","type":"uint8","internalType":"uint8"}],"stateMutability":"view"},{"type":"function","name":"deposit","inputs":[],"outputs":[],"stateMutability":"payable"},{"type":"function","name":"depositTo","inputs":[{"name":"beneficiary","type":"address","internalType":"address"}],"outputs":[],"stateMutability":"payable"},{"type":"function","name":"name","inputs":[],"outputs":[{"name":"","type":"string","internalType":"string"}],"stateMutability":"view"},{"type":"function","name":"symbol","inputs":[],"outputs":[{"name":"","type":"string","internalType":"string"}],"stateMutability":"view"},{"type":"function","name":"totalSupply","inputs":[],"outputs":[{"name":"","type":"uint256","internalType":"uint256"}],"stateMutability":"view"},{"type":"function","name":"transfer","inputs":[{"name":"to","type":"address","internalType":"address"},{"name":"value","type":"uint256","internalType":"uint256"}],"outputs":[{"name":"","type":"bool","internalType":"bool"}],"stateMutability":"nonpayable"},{"type":"function","name":"transferFrom","inputs":[{"name":"from","type":"address","internalType":"address"},{"name":"to","type":"address","internalType":"address"},{"name":"value","type":"uint256","internalType":"uint256"}],"outputs":[{"name":"","type":"bool","internalType":"bool"}],"stateMutability":"nonpayable"},{"type":"function","name":"withdraw","inputs":[{"name":"amount","type":"uint256","internalType":"uint256"}],"outputs":[],"stateMutability":"nonpayable"},{"type":"function","name":"withdrawTo","inputs":[{"name":"recipient","type":"address","internalType":"address"},{"name":"amount","type":"uint256","internalType":"uint256"}],"outputs":[],"stateMutability":"nonpayable"},{"type":"event","name":"Approval","inputs":[{"name":"owner","type":"address","indexed":true,"internalType":"address"},{"name":"spender","type":"address","indexed":true,"internalType":"address"},{"name":"value","type":"uint256","indexed":false,"internalType":"uint256"}],"anonymous":false},{"type":"event","name":"Transfer","inputs":[{"name":"from","type":"address","indexed":true,"internalType":"address"},{"name":"to","type":"address","indexed":true,"internalType":"address"},{"name":"value","type":"uint256","indexed":false,"internalType":"uint256"}],"anonymous":false},{"type":"event","name":"Unwrapped","inputs":[{"name":"account","type":"address","indexed":true,"internalType":"address"},{"name":"amount","type":"uint256","indexed":false,"internalType":"uint256"}],"anonymous":false},{"type":"event","name":"Wrapped","inputs":[{"name":"account","type":"address","indexed":true,"internalType":"address"},{"name":"amount","type":"uint256","indexed":false,"internalType":"uint256"}],"anonymous":false},{"type":"error","name":"ERC20InsufficientAllowance","inputs":[{"name":"spender","type":"address","internalType":"address"},{"name":"allowance","type":"uint256","internalType":"uint256"},{"name":"needed","type":"uint256","internalType":"uint256"}]},{"type":"error","name":"ERC20InsufficientBalance","inputs":[{"name":"sender","type":"address","internalType":"address"},{"name":"balance","type":"uint256","internalType":"uint256"},{"name":"needed","type":"uint256","internalType":"uint256"}]},{"type":"error","name":"ERC20InvalidApprover","inputs":[{"name":"approver","type":"address","internalType":"address"}]},{"type":"error","name":"ERC20InvalidReceiver","inputs":[{"name":"receiver","type":"address","internalType":"address"}]},{"type":"error","name":"ERC20InvalidSender","inputs":[{"name":"sender","type":"address","internalType":"address"}]},{"type":"error","name":"ERC20InvalidSpender","inputs":[{"name":"spender","type":"address","internalType":"address"}]},{"type":"error","name":"ReentrancyGuardReentrantCall","inputs":[]},{"type":"error","name":"TransferFailed","inputs":[]},{"type":"error","name":"ZeroAmount","inputs":[]}],"bytecode":{"object":"0x60806040523461033957604080519081016001600160401b0381118282101761024c576040908152600b82526a577261707065642050415360a81b602083015280519081016001600160401b0381118282101761024c5760405260048152635750415360e01b602082015281516001600160401b03811161024c57600354600181811c9116801561032f575b602082101461022e57601f81116102cc575b50602092601f821160011461026b57928192935f92610260575b50508160011b915f199060031b1c1916176003555b80516001600160401b03811161024c57600454600181811c91168015610242575b602082101461022e57601f81116101cb575b50602091601f821160011461016b579181925f92610160575b50508160011b915f199060031b1c1916176004555b60017f9b779b17422d0df92223018b32b4d1fa46e071723d6817e2486d003becc55f0055604051610a52908161033e8239f35b015190505f80610118565b601f1982169260045f52805f20915f5b8581106101b35750836001951061019b575b505050811b0160045561012d565b01515f1960f88460031b161c191690555f808061018d565b9192602060018192868501518155019401920161017b565b60045f527f8a35acfbc15ff81a39ae7d344fd709f28e8600b4aa8c65c6b64bfe7fe36bd19b601f830160051c81019160208410610224575b601f0160051c01905b81811061021957506100ff565b5f815560010161020c565b9091508190610203565b634e487b7160e01b5f52602260045260245ffd5b90607f16906100ed565b634e487b7160e01b5f52604160045260245ffd5b015190505f806100b7565b601f1982169360035f52805f20915f5b8681106102b4575083600195961061029c575b505050811b016003556100cc565b01515f1960f88460031b161c191690555f808061028e565b9192602060018192868501518155019401920161027b565b60035f527fc2575a0e9e593c00f959f8c92f12db2869c3395a3b0502d05e2516446f71f85b601f830160051c81019160208410610325575b601f0160051c01905b81811061031a575061009d565b5f815560010161030d565b9091508190610304565b90607f169061008b565b5f80fdfe6080806040526004361015610024575b50361561001a575f80fd5b6100226107b7565b005b5f3560e01c90816306fdde031461068757508063095ea7b31461060557806318160ddd146105e8578063205c28781461051a57806323b872dd1461043b5780632e1a7d4d1461034a578063313ce5671461032f57806370a08231146102f857806395d89b41146101f4578063a9059cbb146101c3578063b760faf914610126578063d0e30db0146101135763dd62ed3e146100bf575f61000f565b3461010f57604036600319011261010f576100d8610769565b6100e061077f565b6001600160a01b039182165f908152600160209081526040808320949093168252928352819020549051908152f35b5f80fd5b5f36600319011261010f576100226107b7565b602036600319011261010f5761013a610769565b610142610814565b34156101b4576001600160a01b0381169081156101a15761016490349061097e565b7f4700c1726b4198077cd40320a32c45265a1910521eb0ef713dd1d8412413d7fc6020604051348152a260015f5160206109fd5f395f51905f5255005b63ec442f0560e01b5f525f60045260245ffd5b631f2a200560e01b5f5260045ffd5b3461010f57604036600319011261010f576101e96101df610769565b602435903361084c565b602060405160018152f35b3461010f575f36600319011261010f576040515f6004548060011c906001811680156102ee575b6020831081146102da578285529081156102b65750600114610258575b6102548361024881850382610795565b6040519182918261073f565b0390f35b91905060045f527f8a35acfbc15ff81a39ae7d344fd709f28e8600b4aa8c65c6b64bfe7fe36bd19b915f905b80821061029c57509091508101602001610248610238565b919260018160209254838588010152019101909291610284565b60ff191660208086019190915291151560051b840190910191506102489050610238565b634e487b7160e01b5f52602260045260245ffd5b91607f169161021b565b3461010f57602036600319011261010f576001600160a01b03610319610769565b165f525f602052602060405f2054604051908152f35b3461010f575f36600319011261010f57602060405160128152f35b3461010f57602036600319011261010f57600435610366610814565b80156101b45733156104285761037c81336108d0565b5f80808084335af13d15610423573d67ffffffffffffffff811161040f57604051906103b2601f8201601f191660200183610795565b81525f60203d92013e5b15610400576040519081527f95ae649bfaaef9def56a52f4fb2d9e8fa5496bb7082930e442c74cc76b03dcb360203392a260015f5160206109fd5f395f51905f5255005b6312171d8360e31b5f5260045ffd5b634e487b7160e01b5f52604160045260245ffd5b6103bc565b634b637e8f60e11b5f525f60045260245ffd5b3461010f57606036600319011261010f57610454610769565b61045c61077f565b6001600160a01b0382165f818152600160209081526040808320338452909152902054909260443592915f19811061049a575b506101e9935061084c565b8381106104ff5784156104ec5733156104d9576101e9945f52600160205260405f2060018060a01b0333165f526020528360405f20910390558461048f565b634a1406b160e11b5f525f60045260245ffd5b63e602df0560e01b5f525f60045260245ffd5b8390637dc7a0d960e11b5f523360045260245260445260645ffd5b3461010f57604036600319011261010f57610533610769565b6024359061053f610814565b81156101b45733156104285761055582336108d0565b5f80808085855af13d156105e3573d67ffffffffffffffff811161040f576040519061058b601f8201601f191660200183610795565b81525f60203d92013e5b15610400576040519182526001600160a01b0316907f95ae649bfaaef9def56a52f4fb2d9e8fa5496bb7082930e442c74cc76b03dcb390602090a260015f5160206109fd5f395f51905f5255005b610595565b3461010f575f36600319011261010f576020600254604051908152f35b3461010f57604036600319011261010f5761061e610769565b6024359033156104ec576001600160a01b03169081156104d957335f52600160205260405f20825f526020528060405f20556040519081527f8c5be1e5ebec7d5bd14f71427d1e84f3dd0314c0f7b2291e5b200ac8c7c3b92560203392a3602060405160018152f35b3461010f575f36600319011261010f575f6003548060011c90600181168015610735575b6020831081146102da578285529081156102b657506001146106d7576102548361024881850382610795565b91905060035f527fc2575a0e9e593c00f959f8c92f12db2869c3395a3b0502d05e2516446f71f85b915f905b80821061071b57509091508101602001610248610238565b919260018160209254838588010152019101909291610703565b91607f16916106ab565b602060409281835280519182918282860152018484015e5f828201840152601f01601f1916010190565b600435906001600160a01b038216820361010f57565b602435906001600160a01b038216820361010f57565b90601f8019910116810190811067ffffffffffffffff82111761040f57604052565b6107bf610814565b34156101b45733156101a1576107d5343361097e565b6040513481527f4700c1726b4198077cd40320a32c45265a1910521eb0ef713dd1d8412413d7fc60203392a260015f5160206109fd5f395f51905f5255565b60025f5160206109fd5f395f51905f52541461083d5760025f5160206109fd5f395f51905f5255565b633ee5aeb560e01b5f5260045ffd5b6001600160a01b0316908115610428576001600160a01b03169182156101a157815f525f60205260405f20548181106108b757815f5160206109dd5f395f51905f5292602092855f525f84520360405f2055845f525f825260405f20818154019055604051908152a3565b8263391434e360e21b5f5260045260245260445260645ffd5b6001600160a01b03168061092857600254918083018093116109145760205f5160206109dd5f395f51905f52915f946002555b8060025403600255604051908152a3565b634e487b7160e01b5f52601160045260245ffd5b805f939293525f60205260405f2054838110610964576020845f94955f5160206109dd5f395f51905f5293858752868452036040862055610903565b915063391434e360e21b5f5260045260245260445260645ffd5b60025490828201809211610914576002919091556001600160a01b0316905f905f5160206109dd5f395f51905f5290602090846109c75780600254036002555b604051908152a3565b848452838252604084208181540190556109be56feddf252ad1be2c89b69c2b068fc378daa952ba7f163c4a11628f55a4df523b3ef9b779b17422d0df92223018b32b4d1fa46e071723d6817e2486d003becc55f00a2646970667358221220e3925672d7789006eeb96d5795e0cb60e3bc9bc5497970402953d405c7c8f5fd64736f6c634300081c0033","linkReferences":{}},"methodIdentifiers":{"allowance(address,address)":"dd62ed3e","approve(address,uint256)":"095ea7b3","balanceOf(address)":"70a08231","decimals()":"313ce567","deposit()":"d0e30db0","depositTo(address)":"b760faf9","name()":"06fdde03","symbol()":"95d89b41","totalSupply()":"18160ddd","transfer(address,uint256)":"a9059cbb","transferFrom(address,address,uint256)":"23b872dd","withdraw(uint256)":"2e1a7d4d","withdrawTo(address,uint256)":"205c2878"},"id":10}