{"abi":[{"type":"constructor","inputs":[{"name":"authority","type":"address","internalType":"address"}],"stateMutability":"nonpayable"},{"type":"function","name":"activateVersion","inputs":[{"name":"versionId","type":"uint256","internalType":"uint256"}],"outputs":[],"stateMutability":"nonpayable"},{"type":"function","name":"activeVersion","inputs":[],"outputs":[{"name":"","type":"tuple","internalType":"struct IMarketVersionRegistry.MarketVersion","components":[{"name":"lendingCore","type":"address","internalType":"address"},{"name":"debtPool","type":"address","internalType":"address"},{"name":"oracle","type":"address","internalType":"address"},{"name":"riskEngine","type":"address","internalType":"address"},{"name":"quoteEngine","type":"address","internalType":"address"},{"name":"collateralAsset","type":"address","internalType":"address"},{"name":"debtAsset","type":"address","internalType":"address"},{"name":"configHash","type":"bytes32","internalType":"bytes32"},{"name":"registeredAt","type":"uint256","internalType":"uint256"}]}],"stateMutability":"view"},{"type":"function","name":"activeVersionId","inputs":[],"outputs":[{"name":"","type":"uint256","internalType":"uint256"}],"stateMutability":"view"},{"type":"function","name":"authority","inputs":[],"outputs":[{"name":"","type":"address","internalType":"address"}],"stateMutability":"view"},{"type":"function","name":"getVersion","inputs":[{"name":"versionId","type":"uint256","internalType":"uint256"}],"outputs":[{"name":"","type":"tuple","internalType":"struct IMarketVersionRegistry.MarketVersion","components":[{"name":"lendingCore","type":"address","internalType":"address"},{"name":"debtPool","type":"address","internalType":"address"},{"name":"oracle","type":"address","internalType":"address"},{"name":"riskEngine","type":"address","internalType":"address"},{"name":"quoteEngine","type":"address","internalType":"address"},{"name":"collateralAsset","type":"address","internalType":"address"},{"name":"debtAsset","type":"address","internalType":"address"},{"name":"configHash","type":"bytes32","internalType":"bytes32"},{"name":"registeredAt","type":"uint256","internalType":"uint256"}]}],"stateMutability":"view"},{"type":"function","name":"isConsumingScheduledOp","inputs":[],"outputs":[{"name":"","type":"bytes4","internalType":"bytes4"}],"stateMutability":"view"},{"type":"function","name":"latestVersionId","inputs":[],"outputs":[{"name":"","type":"uint256","internalType":"uint256"}],"stateMutability":"view"},{"type":"function","name":"registerVersion","inputs":[{"name":"lendingCore","type":"address","internalType":"address"},{"name":"debtPool","type":"address","internalType":"address"},{"name":"oracle","type":"address","internalType":"address"},{"name":"riskEngine","type":"address","internalType":"address"}],"outputs":[{"name":"versionId","type":"uint256","internalType":"uint256"}],"stateMutability":"nonpayable"},{"type":"function","name":"setAuthority","inputs":[{"name":"newAuthority","type":"address","internalType":"address"}],"outputs":[],"stateMutability":"nonpayable"},{"type":"event","name":"AuthorityUpdated","inputs":[{"name":"authority","type":"address","indexed":false,"internalType":"address"}],"anonymous":false},{"type":"event","name":"MarketVersionActivated","inputs":[{"name":"previousVersionId","type":"uint256","indexed":true,"internalType":"uint256"},{"name":"versionId","type":"uint256","indexed":true,"internalType":"uint256"}],"anonymous":false},{"type":"event","name":"MarketVersionRegistered","inputs":[{"name":"versionId","type":"uint256","indexed":true,"internalType":"uint256"},{"name":"configHash","type":"bytes32","indexed":true,"internalType":"bytes32"},{"name":"lendingCore","type":"address","indexed":true,"internalType":"address"},{"name":"debtPool","type":"address","indexed":false,"internalType":"address"},{"name":"oracle","type":"address","indexed":false,"internalType":"address"},{"name":"riskEngine","type":"address","indexed":false,"internalType":"address"},{"name":"quoteEngine","type":"address","indexed":false,"internalType":"address"}],"anonymous":false},{"type":"error","name":"AccessManagedInvalidAuthority","inputs":[{"name":"authority","type":"address","internalType":"address"}]},{"type":"error","name":"AccessManagedRequiredDelay","inputs":[{"name":"caller","type":"address","internalType":"address"},{"name":"delay","type":"uint32","internalType":"uint32"}]},{"type":"error","name":"AccessManagedUnauthorized","inputs":[{"name":"caller","type":"address","internalType":"address"}]},{"type":"error","name":"InvalidVersionConfiguration","inputs":[]},{"type":"error","name":"UnknownVersion","inputs":[{"name":"versionId","type":"uint256","internalType":"uint256"}]},{"type":"error","name":"VersionAlreadyActive","inputs":[{"name":"versionId","type":"uint256","internalType":"uint256"}]}],"bytecode":{"object":"0x6080604052348015600e575f5ffd5b506040516110ff3803806110ff833981016040819052602b91608c565b806033816039565b505060b7565b5f80546001600160a01b0319166001600160a01b0383169081179091556040519081527f2f658b440c35314f52658ea8a740e05b284cdc84dc9ae01e891f21b8933e7cad9060200160405180910390a150565b5f60208284031215609b575f5ffd5b81516001600160a01b038116811460b0575f5ffd5b9392505050565b61103b806100c45f395ff3fe608060405234801561000f575f5ffd5b5060043610610090575f3560e01c80638fb36037116100635780638fb36037146100e1578063b88da75914610102578063bf7e214f14610194578063d418028d146101ae578063fccdcc3e146101c1575f5ffd5b806359e6a58c1461009457806367f98152146100a95780637a9e5e4b146100c557806381e08f21146100d8575b5f5ffd5b6100a76100a2366004610e6d565b6101c9565b005b6100b260015481565b6040519081526020015b60405180910390f35b6100a76100d3366004610e9b565b61026e565b6100b260025481565b6100e96102e6565b6040516001600160e01b031990911681526020016100bc565b610115610110366004610e6d565b610308565b6040516100bc919081516001600160a01b03908116825260208084015182169083015260408084015182169083015260608084015182169083015260808084015182169083015260a08084015182169083015260c0808401519091169082015260e0808301519082015261010091820151918101919091526101200190565b5f546040516001600160a01b0390911681526020016100bc565b6100b26101bc366004610ebd565b6103c3565b610115610b8c565b6101d5335b5f36610c47565b5f818152600360205260409020546001600160a01b031661021157604051636951c92360e11b8152600481018290526024015b60405180910390fd5b8060025403610236576040516340367c8760e01b815260048101829052602401610208565b6002805490829055604051829082907fbca577afcb06b199acb64c0365ddbe0f5fdb767184f8ea89bac6f2e7161f9e99905f90a35050565b5f5433906001600160a01b031681146102a45760405162d1953b60e31b81526001600160a01b0382166004820152602401610208565b816001600160a01b03163b5f036102d9576040516361798f2f60e11b81526001600160a01b0383166004820152602401610208565b6102e282610d3d565b5050565b5f8054600160a01b900460ff166102fc57505f90565b50638fb3603760e01b90565b610310610e22565b5f8281526003602081815260409283902083516101208101855281546001600160a01b039081168083526001840154821694830194909452600283015481169582019590955292810154841660608401526004810154841660808401526005810154841660a0840152600681015490931660c0830152600783015460e0830152600890920154610100820152906103bd57604051636951c92360e11b815260048101849052602401610208565b92915050565b5f6103cd336101ce565b6001600160a01b03851615806103ea57506001600160a01b038416155b806103fc57506001600160a01b038316155b8061040e57506001600160a01b038216155b1561042c5760405163cf0e6d9f60e01b815260040160405180910390fd5b5f859050846001600160a01b0316816001600160a01b0316631ffe16676040518163ffffffff1660e01b8152600401602060405180830381865afa158015610476573d5f5f3e3d5ffd5b505050506040513d601f19601f8201168201806040525081019061049a9190610f16565b6001600160a01b03161415806105215750836001600160a01b0316816001600160a01b0316637dc0d1d06040518163ffffffff1660e01b8152600401602060405180830381865afa1580156104f1573d5f5f3e3d5ffd5b505050506040513d601f19601f820116820180604052508101906105159190610f16565b6001600160a01b031614155b8061059d5750826001600160a01b0316816001600160a01b03166392b888ae6040518163ffffffff1660e01b8152600401602060405180830381865afa15801561056d573d5f5f3e3d5ffd5b505050506040513d601f19601f820116820180604052508101906105919190610f16565b6001600160a01b031614155b156105bb5760405163cf0e6d9f60e01b815260040160405180910390fd5b5f859050866001600160a01b0316816001600160a01b031663e1b6e43c6040518163ffffffff1660e01b8152600401602060405180830381865afa158015610605573d5f5f3e3d5ffd5b505050506040513d601f19601f820116820180604052508101906106299190610f16565b6001600160a01b031614158061070f5750816001600160a01b031663a919802d6040518163ffffffff1660e01b8152600401602060405180830381865afa158015610676573d5f5f3e3d5ffd5b505050506040513d601f19601f8201168201806040525081019061069a9190610f16565b6001600160a01b0316816001600160a01b03166338d52e0f6040518163ffffffff1660e01b8152600401602060405180830381865afa1580156106df573d5f5f3e3d5ffd5b505050506040513d601f19601f820116820180604052508101906107039190610f16565b6001600160a01b031614155b1561072d5760405163cf0e6d9f60e01b815260040160405180910390fd5b5f846001600160a01b03166339d2a2756040518163ffffffff1660e01b8152600401602060405180830381865afa15801561076a573d5f5f3e3d5ffd5b505050506040513d601f19601f8201168201806040525081019061078e9190610f16565b90506001600160a01b038116158061081657505f6001600160a01b0316836001600160a01b031663aabaecd66040518163ffffffff1660e01b8152600401602060405180830381865afa1580156107e7573d5f5f3e3d5ffd5b505050506040513d601f19601f8201168201806040525081019061080b9190610f16565b6001600160a01b0316145b8061089157505f6001600160a01b0316836001600160a01b031663a919802d6040518163ffffffff1660e01b8152600401602060405180830381865afa158015610862573d5f5f3e3d5ffd5b505050506040513d601f19601f820116820180604052508101906108869190610f16565b6001600160a01b0316145b156108af5760405163cf0e6d9f60e01b815260040160405180910390fd5b600180546108bc91610f31565b9350836001819055505f836001600160a01b03166355b0fa026040518163ffffffff1660e01b8152600401602060405180830381865afa158015610902573d5f5f3e3d5ffd5b505050506040513d601f19601f820116820180604052508101906109269190610f50565b90506040518061012001604052808a6001600160a01b03168152602001896001600160a01b03168152602001886001600160a01b03168152602001876001600160a01b03168152602001836001600160a01b03168152602001856001600160a01b031663aabaecd66040518163ffffffff1660e01b8152600401602060405180830381865afa1580156109bb573d5f5f3e3d5ffd5b505050506040513d601f19601f820116820180604052508101906109df9190610f16565b6001600160a01b03168152602001856001600160a01b031663a919802d6040518163ffffffff1660e01b8152600401602060405180830381865afa158015610a29573d5f5f3e3d5ffd5b505050506040513d601f19601f82011682018060405250810190610a4d9190610f16565b6001600160a01b0390811682526020808301859052426040938401525f898152600380835290849020855181546001600160a01b03199081169186169190911782558684015160018301805483169187169190911790558686015160028301805483169187169190911790556060808801519383018054831694871694909417909355608080880151600484018054841691881691909117905560a0880151600584018054841691881691909117905560c08801516006840180549093169087161790915560e087015160078301556101009096015160089091015583518d841681528c8416928101929092528a831693820193909352858216928101929092528b1691839188917f6141470d0d43f980323a753b1e78ce3826e5b87723defcc28d96019bcf5492e2910160405180910390a450505050949350505050565b610b94610e22565b6002545f819003610bbb57604051636951c92360e11b815260048101829052602401610208565b5f9081526003602081815260409283902083516101208101855281546001600160a01b0390811682526001830154811693820193909352600282015483169481019490945291820154811660608401526004820154811660808401526005820154811660a084015260068201541660c0830152600781015460e083015260080154610100820152919050565b5f5f610c7a610c5d5f546001600160a01b031690565b8630610c6c60045f898b610f67565b610c7591610f8e565b610d90565b9150915081610d365763ffffffff811615610d13575f805460ff60a01b198116600160a01b17909155604051634a63ebf760e11b81526001600160a01b03909116906394c7d7ee90610cd490889088908890600401610fc6565b5f604051808303815f87803b158015610ceb575f5ffd5b505af1158015610cfd573d5f5f3e3d5ffd5b50505f805460ff60a01b1916905550610d369050565b60405162d1953b60e31b81526001600160a01b0386166004820152602401610208565b5050505050565b5f80546001600160a01b0319166001600160a01b0383169081179091556040519081527f2f658b440c35314f52658ea8a740e05b284cdc84dc9ae01e891f21b8933e7cad9060200160405180910390a150565b6040516001600160a01b038085166024830152831660448201526001600160e01b0319821660648201525f908190819060840160408051601f19818403018152918152602080830180516001600160e01b031663b700961360e01b1781525f808052918290528351939450919290918a5afa15610e18575f516020805191945081901c150291505b5094509492505050565b60408051610120810182525f80825260208201819052918101829052606081018290526080810182905260a0810182905260c0810182905260e0810182905261010081019190915290565b5f60208284031215610e7d575f5ffd5b5035919050565b6001600160a01b0381168114610e98575f5ffd5b50565b5f60208284031215610eab575f5ffd5b8135610eb681610e84565b9392505050565b5f5f5f5f60808587031215610ed0575f5ffd5b8435610edb81610e84565b93506020850135610eeb81610e84565b92506040850135610efb81610e84565b91506060850135610f0b81610e84565b939692955090935050565b5f60208284031215610f26575f5ffd5b8151610eb681610e84565b808201808211156103bd57634e487b7160e01b5f52601160045260245ffd5b5f60208284031215610f60575f5ffd5b5051919050565b5f5f85851115610f75575f5ffd5b83861115610f81575f5ffd5b5050820193919092039150565b80356001600160e01b03198116906004841015610fbf576001600160e01b0319600485900360031b81901b82161691505b5092915050565b6001600160a01b03841681526040602082018190528101829052818360608301375f818301606090810191909152601f909201601f191601019291505056fea264697066735822122057fc425b8e61bbfdd88d5346f01faac303d608e4448f38c1808f0d2ffc21f1ad64736f6c634300081c0033","linkReferences":{}},"methodIdentifiers":{"activateVersion(uint256)":"59e6a58c","activeVersion()":"fccdcc3e","activeVersionId()":"81e08f21","authority()":"bf7e214f","getVersion(uint256)":"b88da759","isConsumingScheduledOp()":"8fb36037","latestVersionId()":"67f98152","registerVersion(address,address,address,address)":"d418028d","setAuthority(address)":"7a9e5e4b"},"id":7}