{"abi":[{"type":"constructor","inputs":[{"name":"authority_","type":"address","internalType":"address"},{"name":"collateralAsset_","type":"address","internalType":"contract IERC20"},{"name":"debtAsset_","type":"address","internalType":"contract IERC20"},{"name":"debtPool_","type":"address","internalType":"contract DebtPool"},{"name":"oracle_","type":"address","internalType":"contract ManualOracle"},{"name":"riskEngine_","type":"address","internalType":"contract IRiskAdapter"},{"name":"config_","type":"tuple","internalType":"struct LendingCore.MarketConfig","components":[{"name":"borrowCap","type":"uint256","internalType":"uint256"},{"name":"minBorrowAmount","type":"uint256","internalType":"uint256"},{"name":"reserveFactorBps","type":"uint256","internalType":"uint256"},{"name":"maxLtvBps","type":"uint256","internalType":"uint256"},{"name":"liquidationThresholdBps","type":"uint256","internalType":"uint256"},{"name":"liquidationBonusBps","type":"uint256","internalType":"uint256"}]}],"stateMutability":"nonpayable"},{"type":"function","name":"_liquidateOneDelegated","inputs":[{"name":"liquidator","type":"address","internalType":"address"},{"name":"borrower","type":"address","internalType":"address"},{"name":"requestedRepayAmount","type":"uint256","internalType":"uint256"}],"outputs":[],"stateMutability":"nonpayable"},{"type":"function","name":"authority","inputs":[],"outputs":[{"name":"","type":"address","internalType":"address"}],"stateMutability":"view"},{"type":"function","name":"availableToBorrow","inputs":[{"name":"borrower","type":"address","internalType":"address"}],"outputs":[{"name":"","type":"uint256","internalType":"uint256"}],"stateMutability":"view"},{"type":"function","name":"batchLiquidate","inputs":[{"name":"borrowers","type":"address[]","internalType":"address[]"},{"name":"amounts","type":"uint256[]","internalType":"uint256[]"}],"outputs":[],"stateMutability":"nonpayable"},{"type":"function","name":"borrow","inputs":[{"name":"amount","type":"uint256","internalType":"uint256"}],"outputs":[],"stateMutability":"nonpayable"},{"type":"function","name":"borrowCap","inputs":[],"outputs":[{"name":"","type":"uint256","internalType":"uint256"}],"stateMutability":"view"},{"type":"function","name":"collateralAsset","inputs":[],"outputs":[{"name":"","type":"address","internalType":"contract IERC20"}],"stateMutability":"view"},{"type":"function","name":"configEpoch","inputs":[],"outputs":[{"name":"","type":"uint256","internalType":"uint256"}],"stateMutability":"view"},{"type":"function","name":"currentDebt","inputs":[{"name":"borrower","type":"address","internalType":"address"}],"outputs":[{"name":"","type":"uint256","internalType":"uint256"}],"stateMutability":"view"},{"type":"function","name":"currentQuoteContext","inputs":[],"outputs":[{"name":"","type":"tuple","internalType":"struct IRiskAdapter.QuoteContext","components":[{"name":"oracleEpoch","type":"uint256","internalType":"uint256"},{"name":"configEpoch","type":"uint256","internalType":"uint256"},{"name":"oracleStateHash","type":"bytes32","internalType":"bytes32"},{"name":"configHash","type":"bytes32","internalType":"bytes32"}]}],"stateMutability":"view"},{"type":"function","name":"currentQuoteInput","inputs":[{"name":"borrower","type":"address","internalType":"address"}],"outputs":[{"name":"","type":"tuple","internalType":"struct IRiskEngine.QuoteInput","components":[{"name":"utilizationBps","type":"uint256","internalType":"uint256"},{"name":"collateralRatioBps","type":"uint256","internalType":"uint256"},{"name":"oracleAgeSeconds","type":"uint256","internalType":"uint256"},{"name":"oracleFresh","type":"bool","internalType":"bool"}]}],"stateMutability":"view"},{"type":"function","name":"currentRiskConfigHash","inputs":[],"outputs":[{"name":"","type":"bytes32","internalType":"bytes32"}],"stateMutability":"view"},{"type":"function","name":"debtAsset","inputs":[],"outputs":[{"name":"","type":"address","internalType":"contract IERC20"}],"stateMutability":"view"},{"type":"function","name":"debtPool","inputs":[],"outputs":[{"name":"","type":"address","internalType":"contract DebtPool"}],"stateMutability":"view"},{"type":"function","name":"depositCollateral","inputs":[{"name":"amount","type":"uint256","internalType":"uint256"}],"outputs":[],"stateMutability":"nonpayable"},{"type":"function","name":"exportPositionForMigration","inputs":[{"name":"borrower","type":"address","internalType":"address"}],"outputs":[{"name":"position","type":"tuple","internalType":"struct IMigratableLendingCore.MigratedPosition","components":[{"name":"collateralAmount","type":"uint256","internalType":"uint256"},{"name":"principalDebt","type":"uint256","internalType":"uint256"},{"name":"accruedInterest","type":"uint256","internalType":"uint256"}]}],"stateMutability":"nonpayable"},{"type":"function","name":"freezeNewDebt","inputs":[],"outputs":[],"stateMutability":"nonpayable"},{"type":"function","name":"healthFactor","inputs":[{"name":"borrower","type":"address","internalType":"address"}],"outputs":[{"name":"","type":"uint256","internalType":"uint256"}],"stateMutability":"view"},{"type":"function","name":"importMigratedPosition","inputs":[{"name":"borrower","type":"address","internalType":"address"},{"name":"position","type":"tuple","internalType":"struct IMigratableLendingCore.MigratedPosition","components":[{"name":"collateralAmount","type":"uint256","internalType":"uint256"},{"name":"principalDebt","type":"uint256","internalType":"uint256"},{"name":"accruedInterest","type":"uint256","internalType":"uint256"}]}],"outputs":[],"stateMutability":"nonpayable"},{"type":"function","name":"isConsumingScheduledOp","inputs":[],"outputs":[{"name":"","type":"bytes4","internalType":"bytes4"}],"stateMutability":"view"},{"type":"function","name":"liquidate","inputs":[{"name":"borrower","type":"address","internalType":"address"},{"name":"requestedRepayAmount","type":"uint256","internalType":"uint256"}],"outputs":[],"stateMutability":"nonpayable"},{"type":"function","name":"liquidationBonusBps","inputs":[],"outputs":[{"name":"","type":"uint256","internalType":"uint256"}],"stateMutability":"view"},{"type":"function","name":"maxConfiguredLiquidationThresholdBps","inputs":[],"outputs":[{"name":"","type":"uint256","internalType":"uint256"}],"stateMutability":"view"},{"type":"function","name":"maxConfiguredLtvBps","inputs":[],"outputs":[{"name":"","type":"uint256","internalType":"uint256"}],"stateMutability":"view"},{"type":"function","name":"minBorrowAmount","inputs":[],"outputs":[{"name":"","type":"uint256","internalType":"uint256"}],"stateMutability":"view"},{"type":"function","name":"newDebtFrozen","inputs":[],"outputs":[{"name":"","type":"bool","internalType":"bool"}],"stateMutability":"view"},{"type":"function","name":"oracle","inputs":[],"outputs":[{"name":"","type":"address","internalType":"contract ManualOracle"}],"stateMutability":"view"},{"type":"function","name":"pause","inputs":[],"outputs":[],"stateMutability":"nonpayable"},{"type":"function","name":"paused","inputs":[],"outputs":[{"name":"","type":"bool","internalType":"bool"}],"stateMutability":"view"},{"type":"function","name":"positions","inputs":[{"name":"","type":"address","internalType":"address"}],"outputs":[{"name":"collateralAmount","type":"uint256","internalType":"uint256"},{"name":"principalDebt","type":"uint256","internalType":"uint256"},{"name":"accruedInterest","type":"uint256","internalType":"uint256"},{"name":"borrowRateBps","type":"uint256","internalType":"uint256"},{"name":"lastAccruedAt","type":"uint256","internalType":"uint256"}],"stateMutability":"view"},{"type":"function","name":"previewBorrow","inputs":[{"name":"borrower","type":"address","internalType":"address"},{"name":"additionalDebt","type":"uint256","internalType":"uint256"}],"outputs":[{"name":"quote","type":"tuple","internalType":"struct IRiskEngine.QuoteOutput","components":[{"name":"borrowRateBps","type":"uint256","internalType":"uint256"},{"name":"maxLtvBps","type":"uint256","internalType":"uint256"},{"name":"liquidationThresholdBps","type":"uint256","internalType":"uint256"}]},{"name":"projectedDebt","type":"uint256","internalType":"uint256"},{"name":"projectedHealthFactor","type":"uint256","internalType":"uint256"}],"stateMutability":"view"},{"type":"function","name":"projectedBorrowQuoteInput","inputs":[{"name":"borrower","type":"address","internalType":"address"},{"name":"additionalDebt","type":"uint256","internalType":"uint256"}],"outputs":[{"name":"","type":"tuple","internalType":"struct IRiskEngine.QuoteInput","components":[{"name":"utilizationBps","type":"uint256","internalType":"uint256"},{"name":"collateralRatioBps","type":"uint256","internalType":"uint256"},{"name":"oracleAgeSeconds","type":"uint256","internalType":"uint256"},{"name":"oracleFresh","type":"bool","internalType":"bool"}]}],"stateMutability":"view"},{"type":"function","name":"publishCurrentQuoteTicket","inputs":[{"name":"borrower","type":"address","internalType":"address"}],"outputs":[{"name":"ticketId","type":"bytes32","internalType":"bytes32"}],"stateMutability":"nonpayable"},{"type":"function","name":"publishProjectedBorrowQuoteTicket","inputs":[{"name":"borrower","type":"address","internalType":"address"},{"name":"additionalDebt","type":"uint256","internalType":"uint256"}],"outputs":[{"name":"ticketId","type":"bytes32","internalType":"bytes32"}],"stateMutability":"nonpayable"},{"type":"function","name":"repay","inputs":[{"name":"amount","type":"uint256","internalType":"uint256"}],"outputs":[],"stateMutability":"nonpayable"},{"type":"function","name":"reserveFactorBps","inputs":[],"outputs":[{"name":"","type":"uint256","internalType":"uint256"}],"stateMutability":"view"},{"type":"function","name":"riskEngine","inputs":[],"outputs":[{"name":"","type":"address","internalType":"contract IRiskAdapter"}],"stateMutability":"view"},{"type":"function","name":"setAuthority","inputs":[{"name":"newAuthority","type":"address","internalType":"address"}],"outputs":[],"stateMutability":"nonpayable"},{"type":"function","name":"unpause","inputs":[],"outputs":[],"stateMutability":"nonpayable"},{"type":"function","name":"withdrawCollateral","inputs":[{"name":"amount","type":"uint256","internalType":"uint256"}],"outputs":[],"stateMutability":"nonpayable"},{"type":"event","name":"AuthorityUpdated","inputs":[{"name":"authority","type":"address","indexed":false,"internalType":"address"}],"anonymous":false},{"type":"event","name":"BadDebtRealized","inputs":[{"name":"borrower","type":"address","indexed":true,"internalType":"address"},{"name":"amount","type":"uint256","indexed":false,"internalType":"uint256"}],"anonymous":false},{"type":"event","name":"Borrowed","inputs":[{"name":"account","type":"address","indexed":true,"internalType":"address"},{"name":"amount","type":"uint256","indexed":false,"internalType":"uint256"},{"name":"borrowRateBps","type":"uint256","indexed":false,"internalType":"uint256"}],"anonymous":false},{"type":"event","name":"CollateralDeposited","inputs":[{"name":"account","type":"address","indexed":true,"internalType":"address"},{"name":"amount","type":"uint256","indexed":false,"internalType":"uint256"}],"anonymous":false},{"type":"event","name":"CollateralWithdrawn","inputs":[{"name":"account","type":"address","indexed":true,"internalType":"address"},{"name":"amount","type":"uint256","indexed":false,"internalType":"uint256"}],"anonymous":false},{"type":"event","name":"Liquidated","inputs":[{"name":"borrower","type":"address","indexed":true,"internalType":"address"},{"name":"liquidator","type":"address","indexed":true,"internalType":"address"},{"name":"repaid","type":"uint256","indexed":false,"internalType":"uint256"},{"name":"collateralSeized","type":"uint256","indexed":false,"internalType":"uint256"},{"name":"badDebtWrittenOff","type":"uint256","indexed":false,"internalType":"uint256"}],"anonymous":false},{"type":"event","name":"NewDebtFrozen","inputs":[],"anonymous":false},{"type":"event","name":"Paused","inputs":[{"name":"account","type":"address","indexed":false,"internalType":"address"}],"anonymous":false},{"type":"event","name":"PositionMigratedIn","inputs":[{"name":"borrower","type":"address","indexed":true,"internalType":"address"},{"name":"coordinator","type":"address","indexed":true,"internalType":"address"},{"name":"collateralAmount","type":"uint256","indexed":false,"internalType":"uint256"},{"name":"principalDebt","type":"uint256","indexed":false,"internalType":"uint256"},{"name":"accruedInterest","type":"uint256","indexed":false,"internalType":"uint256"}],"anonymous":false},{"type":"event","name":"PositionMigratedOut","inputs":[{"name":"borrower","type":"address","indexed":true,"internalType":"address"},{"name":"coordinator","type":"address","indexed":true,"internalType":"address"},{"name":"collateralAmount","type":"uint256","indexed":false,"internalType":"uint256"},{"name":"principalDebt","type":"uint256","indexed":false,"internalType":"uint256"},{"name":"accruedInterest","type":"uint256","indexed":false,"internalType":"uint256"}],"anonymous":false},{"type":"event","name":"Repaid","inputs":[{"name":"account","type":"address","indexed":true,"internalType":"address"},{"name":"amount","type":"uint256","indexed":false,"internalType":"uint256"},{"name":"principalPaid","type":"uint256","indexed":false,"internalType":"uint256"},{"name":"interestPaid","type":"uint256","indexed":false,"internalType":"uint256"}],"anonymous":false},{"type":"event","name":"Unpaused","inputs":[{"name":"account","type":"address","indexed":false,"internalType":"address"}],"anonymous":false},{"type":"error","name":"AccessManagedInvalidAuthority","inputs":[{"name":"authority","type":"address","internalType":"address"}]},{"type":"error","name":"AccessManagedRequiredDelay","inputs":[{"name":"caller","type":"address","internalType":"address"},{"name":"delay","type":"uint32","internalType":"uint32"}]},{"type":"error","name":"AccessManagedUnauthorized","inputs":[{"name":"caller","type":"address","internalType":"address"}]},{"type":"error","name":"ArrayLengthMismatch","inputs":[]},{"type":"error","name":"BatchLiquidationFailed","inputs":[{"name":"index","type":"uint256","internalType":"uint256"},{"name":"reason","type":"bytes","internalType":"bytes"}]},{"type":"error","name":"BorrowCapExceeded","inputs":[{"name":"attempted","type":"uint256","internalType":"uint256"},{"name":"cap","type":"uint256","internalType":"uint256"}]},{"type":"error","name":"DebtBelowMinimum","inputs":[{"name":"debt","type":"uint256","internalType":"uint256"},{"name":"minBorrowAmount","type":"uint256","internalType":"uint256"}]},{"type":"error","name":"EnforcedPause","inputs":[]},{"type":"error","name":"ExistingPosition","inputs":[]},{"type":"error","name":"ExpectedPause","inputs":[]},{"type":"error","name":"InsufficientCollateral","inputs":[]},{"type":"error","name":"InvalidConfiguration","inputs":[]},{"type":"error","name":"InvalidLiquidationAmount","inputs":[]},{"type":"error","name":"NewDebtDisabled","inputs":[]},{"type":"error","name":"NoDebt","inputs":[]},{"type":"error","name":"NoPosition","inputs":[]},{"type":"error","name":"PositionHealthy","inputs":[{"name":"healthFactorWad","type":"uint256","internalType":"uint256"}]},{"type":"error","name":"ReentrancyGuardReentrantCall","inputs":[]},{"type":"error","name":"SafeERC20FailedOperation","inputs":[{"name":"token","type":"address","internalType":"address"}]},{"type":"error","name":"ZeroAmount","inputs":[]}],"bytecode":{"object":"0x610200604052348015610010575f5ffd5b506040516144b33803806144b383398101604081905261002f916102d0565b8661003981610266565b5060017f9b779b17422d0df92223018b32b4d1fa46e071723d6817e2486d003becc55f00556001600160a01b038716158061007b57506001600160a01b038616155b8061008d57506001600160a01b038516155b8061009f57506001600160a01b038416155b806100b157506001600160a01b038316155b806100c357506001600160a01b038216155b156100e15760405163c52a9bd360e01b815260040160405180910390fd5b846001600160a01b0316846001600160a01b03166338d52e0f6040518163ffffffff1660e01b8152600401602060405180830381865afa158015610127573d5f5f3e3d5ffd5b505050506040513d601f19601f8201168201806040525081019061014b91906103da565b6001600160a01b0316146101725760405163c52a9bd360e01b815260040160405180910390fd5b8051158061018257506020810151155b8061019257506127108160400151115b8061019f57506060810151155b806101b05750612710816060015110155b806101c357508060600151816080015111155b806101d357506127108160800151115b806101e357506127108160a00151115b156102015760405163c52a9bd360e01b815260040160405180910390fd5b6001600160a01b03958616608090815294861660a090815293861660c05291851660e05290931661010052825161012052602083015161014052604083015161016052606083015161018052908201516101a05201516101c05250306101e0526103fc565b5f80546001600160a01b0319166001600160a01b0383169081179091556040519081527f2f658b440c35314f52658ea8a740e05b284cdc84dc9ae01e891f21b8933e7cad9060200160405180910390a150565b6001600160a01b03811681146102cd575f5ffd5b50565b5f5f5f5f5f5f5f8789036101808112156102e8575f5ffd5b88516102f3816102b9565b60208a0151909850610304816102b9565b60408a0151909750610315816102b9565b60608a0151909650610326816102b9565b60808a0151909550610337816102b9565b60a08a0151909450610348816102b9565b925060c060bf198201121561035b575f5ffd5b5060405160c081016001600160401b038111828210171561038a57634e487b7160e01b5f52604160045260245ffd5b604090815260c08a0151825260e08a015160208301526101008a015190820152610120890151606082015261014089015160808201526101609098015160a0890152509497939650919490939192565b5f602082840312156103ea575f5ffd5b81516103f5816102b9565b9392505050565b60805160a05160c05160e05161010051610120516101405161016051610180516101a0516101c0516101e051613e6d6106465f395f81816103460152611fe701525f818161029501528181610f6301528181612de90152612e6801525f81816104b901528181610f3d0152818161348301526134aa01525f818161060601528181610f1701528181612a330152612a5a01525f818161069e01528181610c5801528181610ef10152612f8701525f818161026e01528181610ec901528181613315015261335201525f818161039b01528181610ea3015281816122f8015261233401525f81816105270152818161071d015281816107ad01528181610fb90152818161185f015281816118ef0152818161299f0152612b6401525f818161048a01528181610f91015281816111a00152818161144101528181611f620152818161200d01528181612140015281816127c101528181612843015281816128c501528181612c55015261338101525f81816102d1015281816109f901528181610bbe01528181610c7e01528181610d51015281816110f90152818161124a015281816114eb0152818161169301528181611a0f01528181611b6201528181611d3c01528181611e73015281816121e5015281816123c40152818161255201528181612cff01528181612eed01528181612fad015281816130a1015281816131b3015261363701525f81816105b801528181610b9b0152612eca01525f81816105df015281816110ad0152818161159d01528181611c8f015281816125e601526130330152613e6d5ff3fe608060405234801561000f575f5ffd5b506004361061023f575f3560e01c80638456cb5911610135578063aabaecd6116100b4578063bf7e214f11610079578063bf7e214f14610661578063c0d3626d14610671578063c5ebeaec14610686578063c87bed7014610699578063d90ebf53146106c0575f5ffd5b8063aabaecd6146105da578063af11014f14610601578063bad4a01f14610628578063bc1ffd971461063b578063bcbaf4871461064e575f5ffd5b806392b888ae116100fa57806392b888ae14610522578063931da15214610549578063a2054b6c1461058b578063a83081f0146105ab578063a919802d146105b3575f5ffd5b80638456cb59146104ac578063850eeda6146104b4578063884719f2146104db5780638fb36037146104ee578063912a70f21461050f575f5ffd5b80633f4ba83a116101c157806360453af31161018657806360453af3146104395780636112fe2e1461044c5780636ad9f9df1461045f5780637a9e5e4b146104725780637dc0d1d014610485575f5ffd5b80633f4ba83a1461038e57806344d9dca61461039657806355b0fa02146103bd57806355f57510146103c55780635c975abb14610428575f5ffd5b80632c38199e116102075780632c38199e1461030b5780632f5a48631461031e5780633232297014610341578063371fd8e6146103685780633e95c0601461037b575f5ffd5b806307db3855146102435780630a5db8a81461026957806319970d8e146102905780631c1c4c44146102b75780631ffe1667146102cc575b5f5ffd5b6102566102513660046139d8565b6106e0565b6040519081526020015b60405180910390f35b6102567f000000000000000000000000000000000000000000000000000000000000000081565b6102567f000000000000000000000000000000000000000000000000000000000000000081565b6102ca6102c5366004613a48565b61082d565b005b6102f37f000000000000000000000000000000000000000000000000000000000000000081565b6040516001600160a01b039091168152602001610260565b610256610319366004613ab4565b61098a565b5f5461033190600160b01b900460ff1681565b6040519015158152602001610260565b6102567f000000000000000000000000000000000000000000000000000000000000000081565b6102ca610376366004613acd565b610b08565b6102ca610389366004613ae4565b610e5a565b6102ca610e8a565b6102567f000000000000000000000000000000000000000000000000000000000000000081565b610256610e9d565b6104006103d3366004613ab4565b600160208190525f9182526040909120805491810154600282015460038301546004909301549192909185565b604080519586526020860194909452928401919091526060830152608082015260a001610260565b5f54600160a81b900460ff16610331565b6102ca610447366004613b1e565b611000565b6102ca61045a366004613acd565b6113a0565b61025661046d366004613ab4565b611612565b6102ca610480366004613ab4565b611757565b6102f37f000000000000000000000000000000000000000000000000000000000000000081565b6102ca6117cb565b6102567f000000000000000000000000000000000000000000000000000000000000000081565b6102566104e9366004613ab4565b6117dc565b6104f6611802565b6040516001600160e01b03199091168152602001610260565b61025661051d366004613ab4565b611826565b6102f37f000000000000000000000000000000000000000000000000000000000000000081565b61055c6105573660046139d8565b61196e565b60408051845181526020808601519082015293810151908401526060830191909152608082015260a001610260565b61059e610599366004613ab4565b611aea565b6040516102609190613b5a565b6102ca611c06565b6102f37f000000000000000000000000000000000000000000000000000000000000000081565b6102f37f000000000000000000000000000000000000000000000000000000000000000081565b6102567f000000000000000000000000000000000000000000000000000000000000000081565b6102ca610636366004613acd565b611c4a565b61059e6106493660046139d8565b611def565b6102ca61065c3660046139d8565b611f06565b5f546001600160a01b03166102f3565b610679611f2e565b6040516102609190613b87565b6102ca610694366004613acd565b61209f565b6102567f000000000000000000000000000000000000000000000000000000000000000081565b6106d36106ce366004613ab4565b612484565b6040516102609190613bb2565b5f6106ed335b5f36612681565b5f6106f88484611def565b90505f610703611f2e565b6040516302221fa760e61b81529091506001600160a01b037f00000000000000000000000000000000000000000000000000000000000000001690638887e9c0906107549084908690600401613bd3565b602060405180830381865afa15801561076f573d5f5f3e3d5ffd5b505050506040513d601f19601f820116820180604052508101906107939190613c1e565b604051630d8baa0360e31b81529093506001600160a01b037f00000000000000000000000000000000000000000000000000000000000000001690636c5d5018906107e49084908690600401613bd3565b6060604051808303815f875af1158015610800573d5f5f3e3d5ffd5b505050506040513d601f19601f820116820180604052508101906108249190613c35565b50505092915050565b610835612777565b61083d612792565b82811461085d5760405163512509d360e11b815260040160405180910390fd5b5f5b8381101561096d5730633e95c0603387878581811061088057610880613c9a565b90506020020160208101906108959190613ab4565b8686868181106108a7576108a7613c9a565b6040516001600160e01b031960e088901b1681526001600160a01b039586166004820152949093166024850152506020909102013560448201526064015f604051808303815f87803b1580156108fb575f5ffd5b505af192505050801561090c575060015b610965573d808015610939576040519150601f19603f3d011682016040523d82523d5f602084013e61093e565b606091505b5081816040516340bad83f60e01b815260040161095c929190613cae565b60405180910390fd5b60010161085f565b5061098460015f516020613e185f395f51905f5255565b50505050565b6001600160a01b0381165f9081526001602052604081208180806109ac6127bc565b9250925092508115806109bd575082155b156109cd57505f95945050505050565b5f6109d785612954565b90505f610a946040518060c00160405280885f015481526020018481526020017f00000000000000000000000000000000000000000000000000000000000000006001600160a01b03166329b1829e6040518163ffffffff1660e01b8152600401602060405180830381865afa158015610a53573d5f5f3e3d5ffd5b505050506040513d601f19601f82011682018060405250810190610a779190613c1e565b81526020018781526020018581526020016001151581525061297c565b90505f610aa48260200151612a30565b9050805f03610abb57505f98975050505050505050565b5f61271082610acd8a5f01548a612a82565b610ad79190613cfe565b610ae19190613d15565b9050838111610af0575f610afa565b610afa8482613d34565b9a9950505050505050505050565b610b10612777565b805f03610b3057604051631f2a200560e01b815260040160405180910390fd5b335f81815260016020526040902090610b48906117dc565b5f03610b67576040516308d1fde360e11b815260040160405180910390fd5b610b7081612aa7565b5f610b7a82612954565b90505f818410610b8a5781610b8c565b835b9050610be36001600160a01b037f000000000000000000000000000000000000000000000000000000000000000016337f000000000000000000000000000000000000000000000000000000000000000084612b0b565b5f83600201548210610bf9578360020154610bfb565b815b905080846002015f828254610c109190613d34565b909155505f9050610c218284613d34565b905080856001015f828254610c369190613d34565b9091555050604051635ca9cf2760e01b815260048101829052602481018390527f000000000000000000000000000000000000000000000000000000000000000060448201527f00000000000000000000000000000000000000000000000000000000000000006001600160a01b031690635ca9cf27906064015f604051808303815f87803b158015610cc7575f5ffd5b505af1158015610cd9573d5f5f3e3d5ffd5b505050505f610ce786612954565b9050805f03610d0f575f60018701819055600287018190556003870155426004870155610df8565b5f5f5f610d1a6127bc565b925092509250818015610d2c57508215155b15610df4575f610dec6040518060c001604052808c5f015481526020018781526020017f00000000000000000000000000000000000000000000000000000000000000006001600160a01b03166329b1829e6040518163ffffffff1660e01b8152600401602060405180830381865afa158015610dab573d5f5f3e3d5ffd5b505050506040513d601f19601f82011682018060405250810190610dcf9190613c1e565b815260200186815260200184815260200160011515815250612b41565b5160038b0155505b5050505b604080518581526020810184905290810184905233907f07178c166b5aef4d8409e6bbfd0e7b1ad42c92eb65903a5e5482166f3f4e62f09060600160405180910390a2505050505050610e5760015f516020613e185f395f51905f5255565b50565b333014610e7a5760405163c52a9bd360e01b815260040160405180910390fd5b610e85838383612bdb565b505050565b610e93336106e6565b610e9b6132b5565b565b604080517f000000000000000000000000000000000000000000000000000000000000000060208201527f0000000000000000000000000000000000000000000000000000000000000000918101919091527f000000000000000000000000000000000000000000000000000000000000000060608201527f000000000000000000000000000000000000000000000000000000000000000060808201527f000000000000000000000000000000000000000000000000000000000000000060a08201527f000000000000000000000000000000000000000000000000000000000000000060c08201526001600160a01b037f0000000000000000000000000000000000000000000000000000000000000000811660e08301527f0000000000000000000000000000000000000000000000000000000000000000166101008201525f906101200160405160208183030381529060405280519060200120905090565b611009336106e6565b611011612777565b6001600160a01b0382165f908152600160205260409020805415158061103e575061103b81612954565b15155b1561105c5760405163823fbd3160e01b815260040160405180910390fd5b813515801561106d57506020820135155b801561107b57506040820135155b1561109957604051632afc3c0d60e21b815260040160405180910390fd5b8135156110d6576110d66001600160a01b037f00000000000000000000000000000000000000000000000000000000000000001633308535612b0b565b602082013515611159576040516314a722ab60e21b8152602083013560048201527f00000000000000000000000000000000000000000000000000000000000000006001600160a01b03169063529c8aac906024015f604051808303815f87803b158015611142575f5ffd5b505af1158015611154573d5f5f3e3d5ffd5b505050505b8135815560208201356001820155604082013560028201554260048201555f61118182612954565b905080156113315761119281613309565b5f61119b61337e565b90505f7f00000000000000000000000000000000000000000000000000000000000000006001600160a01b03166354aea1276040518163ffffffff1660e01b8152600401602060405180830381865afa1580156111fa573d5f5f3e3d5ffd5b505050506040513d601f19601f8201168201806040525081019061121e9190613c1e565b6112289042613d34565b90505f6112e56040518060c00160405280875f015481526020018681526020017f00000000000000000000000000000000000000000000000000000000000000006001600160a01b03166329b1829e6040518163ffffffff1660e01b8152600401602060405180830381865afa1580156112a4573d5f5f3e3d5ffd5b505050506040513d601f19601f820116820180604052508101906112c89190613c1e565b815260200185815260200184815260200160011515815250612b41565b90505f6112f58260200151612a30565b9050805f036113175760405163c52a9bd360e01b815260040160405180910390fd5b81516003870155855461132c908686846133ff565b505050505b6040805184358152602080860135908201528482013581830152905133916001600160a01b038716917f4ec8e47aae691949002381c8cf35018568b63e155c5db86ad527cd8c7e39b2869181900360600190a3505061139c60015f516020613e185f395f51905f5255565b5050565b6113a8612777565b6113b0612792565b805f036113d057604051631f2a200560e01b815260040160405180910390fd5b335f908152600160205260409020805482111561140057604051633a23d82560e01b815260040160405180910390fd5b61140981612aa7565b81815f015f82825461141b9190613d34565b909155505f905061142a61337e565b90505f61143683612954565b90508015611590575f7f00000000000000000000000000000000000000000000000000000000000000006001600160a01b03166354aea1276040518163ffffffff1660e01b8152600401602060405180830381865afa15801561149b573d5f5f3e3d5ffd5b505050506040513d601f19601f820116820180604052508101906114bf9190613c1e565b6114c99042613d34565b90505f6115456040518060c00160405280875f015481526020018581526020017f00000000000000000000000000000000000000000000000000000000000000006001600160a01b03166329b1829e6040518163ffffffff1660e01b8152600401602060405180830381865afa158015610dab573d5f5f3e3d5ffd5b90505f6115558260200151612a30565b9050805f036115775760405163c52a9bd360e01b815260040160405180910390fd5b81516003870155855461158c908587846133ff565b5050505b6115c46001600160a01b037f000000000000000000000000000000000000000000000000000000000000000016338661344b565b60405184815233907fc30fcfbcaac9e0deffa719714eaa82396ff506a0d0d0eebe170830177288715d9060200160405180910390a2505050610e5760015f516020613e185f395f51905f5255565b6001600160a01b0381165f9081526001602052604081208161163382612954565b9050805f0361164657505f199392505050565b5f5f5f6116516127bc565b925092509250811580611662575082155b1561167357505f9695505050505050565b5f61172e6040518060c00160405280885f015481526020018781526020017f00000000000000000000000000000000000000000000000000000000000000006001600160a01b03166329b1829e6040518163ffffffff1660e01b8152600401602060405180830381865afa1580156116ed573d5f5f3e3d5ffd5b505050506040513d601f19601f820116820180604052508101906117119190613c1e565b81526020018681526020018481526020016001151581525061297c565b905061174b865f015486866117468560400151613480565b6134ce565b98975050505050505050565b5f5433906001600160a01b0316811461178d5760405162d1953b60e31b81526001600160a01b038216600482015260240161095c565b816001600160a01b03163b5f036117c2576040516361798f2f60e11b81526001600160a01b038316600482015260240161095c565b61139c8261352a565b6117d4336106e6565b610e9b61357d565b6001600160a01b0381165f9081526001602052604081206117fc90612954565b92915050565b5f8054600160a01b900460ff1661181857505f90565b638fb3603760e01b5b905090565b5f611830336106e6565b5f61183a83611aea565b90505f611845611f2e565b6040516302221fa760e61b81529091506001600160a01b037f00000000000000000000000000000000000000000000000000000000000000001690638887e9c0906118969084908690600401613bd3565b602060405180830381865afa1580156118b1573d5f5f3e3d5ffd5b505050506040513d601f19601f820116820180604052508101906118d59190613c1e565b604051630d8baa0360e31b81529093506001600160a01b037f00000000000000000000000000000000000000000000000000000000000000001690636c5d5018906119269084908690600401613bd3565b6060604051808303815f875af1158015611942573d5f5f3e3d5ffd5b505050506040513d601f19601f820116820180604052508101906119669190613c35565b505050919050565b61198f60405180606001604052805f81526020015f81526020015f81525090565b6001600160a01b0383165f90815260016020526040812081908180806119b36127bc565b9250925092508115806119c4575082155b156119d957505f9450849350611ae392505050565b876119e385612954565b6119ed9190613d47565b9550611ab46040518060c00160405280865f015481526020018881526020018a7f00000000000000000000000000000000000000000000000000000000000000006001600160a01b03166329b1829e6040518163ffffffff1660e01b8152600401602060405180830381865afa158015611a69573d5f5f3e3d5ffd5b505050506040513d601f19601f82011682018060405250810190611a8d9190613c1e565b611a979190613d47565b81526020018581526020018381526020016001151581525061297c565b96505f611ac48860400151613480565b90508015611add578454611ada908886846134ce565b95505b50505050505b9250925092565b611b1360405180608001604052805f81526020015f81526020015f81526020015f151581525090565b6001600160a01b0382165f908152600160205260408120908080611b356127bc565b925092509250611bfc6040518060c00160405280865f01548152602001611b5b87612954565b81526020017f00000000000000000000000000000000000000000000000000000000000000006001600160a01b03166329b1829e6040518163ffffffff1660e01b8152600401602060405180830381865afa158015611bbc573d5f5f3e3d5ffd5b505050506040513d601f19601f82011682018060405250810190611be09190613c1e565b81526020018581526020018381526020018415158152506135bf565b9695505050505050565b611c0f336106e6565b5f805460ff60b01b1916600160b01b1781556040517f68be81811676eef5aa3f75efce5a31614fc576af3288a489e310b6d3e854ea4e9190a1565b611c52612777565b611c5a612792565b805f03611c7a57604051631f2a200560e01b815260040160405180910390fd5b335f81815260016020526040902090611cbf907f00000000000000000000000000000000000000000000000000000000000000006001600160a01b0316903085612b0b565b81815f015f828254611cd19190613d47565b909155505060048101545f03611ce8574260048201555b5f611cf282612954565b90508015611da2575f5f5f611d056127bc565b925092509250818015611d1757508215155b15611d9e575f611d966040518060c00160405280885f015481526020018781526020017f00000000000000000000000000000000000000000000000000000000000000006001600160a01b03166329b1829e6040518163ffffffff1660e01b8152600401602060405180830381865afa158015610dab573d5f5f3e3d5ffd5b516003870155505b5050505b60405183815233907fd7243f6f8212d5188fd054141cf6ea89cfc0d91facb8c3afe2f88a13584801429060200160405180910390a25050610e5760015f516020613e185f395f51905f5255565b611e1860405180608001604052805f81526020015f81526020015f81526020015f151581525090565b6001600160a01b0383165f908152600160205260408120908080611e3a6127bc565b925092509250611efb6040518060c00160405280865f0154815260200188611e6188612954565b611e6b9190613d47565b8152602001887f00000000000000000000000000000000000000000000000000000000000000006001600160a01b03166329b1829e6040518163ffffffff1660e01b8152600401602060405180830381865afa158015611ecd573d5f5f3e3d5ffd5b505050506040513d601f19601f82011682018060405250810190611ef19190613c1e565b611be09190613d47565b979650505050505050565b611f0e612777565b611f18828261373a565b61139c60015f516020613e185f395f51905f5255565b611f5560405180608001604052805f81526020015f81526020015f81526020015f81525090565b60405180608001604052807f00000000000000000000000000000000000000000000000000000000000000006001600160a01b031663ba65ff286040518163ffffffff1660e01b8152600401602060405180830381865afa158015611fbc573d5f5f3e3d5ffd5b505050506040513d601f19601f82011682018060405250810190611fe09190613c1e565b81526020017f000000000000000000000000000000000000000000000000000000000000000081526020017f00000000000000000000000000000000000000000000000000000000000000006001600160a01b031663b4d8c0b36040518163ffffffff1660e01b8152600401602060405180830381865afa158015612067573d5f5f3e3d5ffd5b505050506040513d601f19601f8201168201806040525081019061208b9190613c1e565b8152602001612098610e9d565b9052919050565b6120a7612777565b6120af612792565b805f036120cf57604051631f2a200560e01b815260040160405180910390fd5b5f54600160b01b900460ff16156120f957604051630b77882b60e11b815260040160405180910390fd5b335f908152600160205260408120805490910361212957604051633a23d82560e01b815260040160405180910390fd5b61213281612aa7565b5f61213b61337e565b90505f7f00000000000000000000000000000000000000000000000000000000000000006001600160a01b03166354aea1276040518163ffffffff1660e01b8152600401602060405180830381865afa15801561219a573d5f5f3e3d5ffd5b505050506040513d601f19601f820116820180604052508101906121be9190613c1e565b6121c89042613d34565b90505f846121d585612954565b6121df9190613d47565b90505f857f00000000000000000000000000000000000000000000000000000000000000006001600160a01b03166329b1829e6040518163ffffffff1660e01b8152600401602060405180830381865afa15801561223f573d5f5f3e3d5ffd5b505050506040513d601f19601f820116820180604052508101906122639190613c1e565b61226d9190613d47565b90505f6122ab6040518060c00160405280885f0154815260200185815260200184815260200187815260200186815260200160011515815250612b41565b90505f6122bb8260200151612a30565b90505f6122cb8360400151613480565b90508115806122d8575080155b156122f65760405163c52a9bd360e01b815260040160405180910390fd5b7f0000000000000000000000000000000000000000000000000000000000000000841115612360576040516331198c6560e21b8152600481018590527f0000000000000000000000000000000000000000000000000000000000000000602482015260440161095c565b61236985613309565b88886001015f82825461237c9190613d47565b90915550508251600389015560048801545f0361239a574260048901555b87546123a8908689856133ff565b6040516308f61bed60e21b8152336004820152602481018a90527f00000000000000000000000000000000000000000000000000000000000000006001600160a01b0316906323d86fb4906044015f604051808303815f87803b15801561240d575f5ffd5b505af115801561241f573d5f5f3e3d5ffd5b505084516040513393507feae9cfbc77fdd40ca899f36b608256063b2bc9d8178b0220f7ad513e178d6730925061245e918d8252602082015260400190565b60405180910390a25050505050505050610e5760015f516020613e185f395f51905f5255565b6124a560405180606001604052805f81526020015f81526020015f81525090565b6124ae336106e6565b6124b6612777565b6001600160a01b0382165f9081526001602052604090206124d681612aa7565b80541580156124eb57506124e981612954565b155b1561250957604051632afc3c0d60e21b815260040160405180910390fd5b60408051606081018252825481526001830154602082018190526002840154928201929092529250156125b2576020820151604051635e15420160e01b815260048101919091527f00000000000000000000000000000000000000000000000000000000000000006001600160a01b031690635e154201906024015f604051808303815f87803b15801561259b575f5ffd5b505af11580156125ad573d5f5f3e3d5ffd5b505050505b5f8082556001820181905560028201819055600382015542600482015581511561260e57815161260e906001600160a01b037f00000000000000000000000000000000000000000000000000000000000000001690339061344b565b815160208084015160408086015181519485529284019190915282015233906001600160a01b038516907fad844839fecbd3ceb4326eafca8e77c8be094426e81918b95d53f60b590c57339060600160405180910390a35061267c60015f516020613e185f395f51905f5255565b919050565b5f5f6126b46126975f546001600160a01b031690565b86306126a660045f898b613d5a565b6126af91613d81565b613745565b91509150816127705763ffffffff81161561274d575f805460ff60a01b198116600160a01b17909155604051634a63ebf760e11b81526001600160a01b03909116906394c7d7ee9061270e90889088908890600401613db9565b5f604051808303815f87803b158015612725575f5ffd5b505af1158015612737573d5f5f3e3d5ffd5b50505f805460ff60a01b19169055506127709050565b60405162d1953b60e31b81526001600160a01b038616600482015260240161095c565b5050505050565b61277f6137d7565b60025f516020613e185f395f51905f5255565b5f54600160a81b900460ff1615610e9b5760405163d93c066560e01b815260040160405180910390fd5b5f5f5f7f00000000000000000000000000000000000000000000000000000000000000006001600160a01b031663bb47b68a6040518163ffffffff1660e01b8152600401602060405180830381865afa15801561281b573d5f5f3e3d5ffd5b505050506040513d601f19601f8201168201806040525081019061283f9190613c1e565b92507f00000000000000000000000000000000000000000000000000000000000000006001600160a01b0316636268ceaa6040518163ffffffff1660e01b8152600401602060405180830381865afa15801561289d573d5f5f3e3d5ffd5b505050506040513d601f19601f820116820180604052508101906128c19190613df8565b91507f00000000000000000000000000000000000000000000000000000000000000006001600160a01b03166354aea1276040518163ffffffff1660e01b8152600401602060405180830381865afa15801561291f573d5f5f3e3d5ffd5b505050506040513d601f19601f820116820180604052508101906129439190613c1e565b61294d9042613d34565b9050909192565b5f61295e82613806565b826002015483600101546129729190613d47565b6117fc9190613d47565b61299d60405180606001604052805f81526020015f81526020015f81525090565b7f00000000000000000000000000000000000000000000000000000000000000006001600160a01b031663302160996129d5846135bf565b6040518263ffffffff1660e01b81526004016129f19190613b5a565b606060405180830381865afa158015612a0c573d5f5f3e3d5ffd5b505050506040513d601f19601f820116820180604052508101906117fc9190613c35565b5f7f00000000000000000000000000000000000000000000000000000000000000008210612a7e577f00000000000000000000000000000000000000000000000000000000000000006117fc565b5090565b5f670de0b6b3a7640000612a968385613cfe565b612aa09190613d15565b9392505050565b5f612ab182613806565b90508015612ad25780826002015f828254612acc9190613d47565b90915550505b81600401545f03612ae7574260048301555050565b6001820154151580612afc5750600282015415155b1561139c574260048301555050565b612b198484848460016138b5565b61098457604051635274afe760e01b81526001600160a01b038516600482015260240161095c565b612b6260405180606001604052805f81526020015f81526020015f81525090565b7f00000000000000000000000000000000000000000000000000000000000000006001600160a01b0316636c5d5018612b99611f2e565b612ba2856135bf565b6040518363ffffffff1660e01b8152600401612bbf929190613bd3565b6060604051808303815f875af1158015612a0c573d5f5f3e3d5ffd5b805f03612bfb57604051631f2a200560e01b815260040160405180910390fd5b6001600160a01b0382165f908152600160205260409020612c1b81612aa7565b5f612c2582612954565b9050805f03612c47576040516308d1fde360e11b815260040160405180910390fd5b5f612c5061337e565b90505f7f00000000000000000000000000000000000000000000000000000000000000006001600160a01b03166354aea1276040518163ffffffff1660e01b8152600401602060405180830381865afa158015612caf573d5f5f3e3d5ffd5b505050506040513d601f19601f82011682018060405250810190612cd39190613c1e565b612cdd9042613d34565b90505f612d596040518060c00160405280875f015481526020018681526020017f00000000000000000000000000000000000000000000000000000000000000006001600160a01b03166329b1829e6040518163ffffffff1660e01b8152600401602060405180830381865afa1580156112a4573d5f5f3e3d5ffd5b90505f612d698260400151613480565b9050805f03612d8b5760405163c52a9bd360e01b815260040160405180910390fd5b5f612d9b875f01548787856134ce565b9050670de0b6b3a76400008110612dc8576040516301e11b9d60e11b81526004810182905260240161095c565b5050505f612dd9855f015484612a82565b90505f612e2b87612e2687612e107f0000000000000000000000000000000000000000000000000000000000000000612710613d47565b612e1c61271088613cfe565b612e269190613d15565b613922565b9050805f03612e4d57604051638bd79d6d60e01b815260040160405180910390fd5b5f612e5a61271086613cfe565b670de0b6b3a7640000612e8f7f0000000000000000000000000000000000000000000000000000000000000000612710613d47565b612e999085613cfe565b612ea39190613cfe565b612ead9190613d15565b8754909150811115612ebd575085545b612f126001600160a01b037f0000000000000000000000000000000000000000000000000000000000000000168b7f000000000000000000000000000000000000000000000000000000000000000085612b0b565b5f87600201548310612f28578760020154612f2a565b825b905080886002015f828254612f3f9190613d34565b909155505f9050612f508285613d34565b905080896001015f828254612f659190613d34565b9091555050604051635ca9cf2760e01b815260048101829052602481018390527f000000000000000000000000000000000000000000000000000000000000000060448201527f00000000000000000000000000000000000000000000000000000000000000006001600160a01b031690635ca9cf27906064015f604051808303815f87803b158015612ff6575f5ffd5b505af1158015613008573d5f5f3e3d5ffd5b50505050505080875f015f8282546130209190613d34565b9091555061305a90506001600160a01b037f0000000000000000000000000000000000000000000000000000000000000000168b8361344b565b5f5f61306589612954565b895490915015801561307657505f81115b1561316457600189015490915081908015613101576040516330113a1f60e11b8152600481018290527f00000000000000000000000000000000000000000000000000000000000000006001600160a01b031690636022743e906024015f604051808303815f87803b1580156130ea575f5ffd5b505af11580156130fc573d5f5f3e3d5ffd5b505050505b5f60018b0181905560028b0181905560038b01554260048b01558b6001600160a01b03167f27a9c7b403b5c385a33cdba9789d8d52e54e7a50de6374d606964df0429cdf4e8360405161315691815260200190565b60405180910390a250613256565b805f0361318a575f60018a0181905560028a0181905560038a01554260048a0155613256565b61319381613309565b5f61324e6040518060c001604052808c5f015481526020018481526020017f00000000000000000000000000000000000000000000000000000000000000006001600160a01b03166329b1829e6040518163ffffffff1660e01b8152600401602060405180830381865afa15801561320d573d5f5f3e3d5ffd5b505050506040513d601f19601f820116820180604052508101906132319190613c1e565b81526020018a815260200189815260200160011515815250612b41565b5160038b0155505b60408051858152602081018590529081018390526001600160a01b03808e1691908d16907ffcbc974bf3a532baf2bb229db3c37fd58299b62d2d1db6a855dac5b693bb6ff39060600160405180910390a3505050505050505050505050565b6132bd613937565b5f805460ff60a81b191690557f5db9ee0a495bf2e6ff9c91a7834c1ba4fdd244a5e8aa4e537bd38aeae4b073aa335b6040516001600160a01b03909116815260200160405180910390a1565b801580159061333757507f000000000000000000000000000000000000000000000000000000000000000081105b15610e5757604051639912ed2960e01b8152600481018290527f0000000000000000000000000000000000000000000000000000000000000000602482015260440161095c565b5f7f00000000000000000000000000000000000000000000000000000000000000006001600160a01b031663869ab8ac6040518163ffffffff1660e01b8152600401602060405180830381865afa1580156133db573d5f5f3e3d5ffd5b505050506040513d601f19601f820116820180604052508101906118219190613c1e565b8215610984575f612710826134148786612a82565b61341e9190613cfe565b6134289190613d15565b90508084111561277057604051633a23d82560e01b815260040160405180910390fd5b6134588383836001613960565b610e8557604051635274afe760e01b81526001600160a01b038416600482015260240161095c565b5f7f00000000000000000000000000000000000000000000000000000000000000008210612a7e577f00000000000000000000000000000000000000000000000000000000000000006117fc565b5f835f036134de57505f19613522565b5f6134e98685612a82565b90506134f761271086613cfe565b670de0b6b3a764000061350a8584613cfe565b6135149190613cfe565b61351e9190613d15565b9150505b949350505050565b5f80546001600160a01b0319166001600160a01b0383169081179091556040519081527f2f658b440c35314f52658ea8a740e05b284cdc84dc9ae01e891f21b8933e7cad9060200160405180910390a150565b613585612792565b5f805460ff60a81b1916600160a81b1790557f62e78cea01bee320cd4e420270b5ea74000d11b0c9f74754ebdbfc544b05a2586132ec3390565b6135e860405180608001604052805f81526020015f81526020015f81526020015f151581525090565b5f6135fa835f01518460600151612a82565b90505f83602001515f1461362857602084015161361961271084613cfe565b6136239190613d15565b613632565b67ffffffffffffffff5b90505f7f00000000000000000000000000000000000000000000000000000000000000006001600160a01b03166301e1d1146040518163ffffffff1660e01b8152600401602060405180830381865afa158015613691573d5f5f3e3d5ffd5b505050506040513d601f19601f820116820180604052508101906136b59190613c1e565b90505f81156136e0578161271087604001516136d19190613cfe565b6136db9190613d15565b6136e2565b5f5b60a08701519091505f9080156136fd57506107088760800151115b1561370757506107095b60405180608001604052808381526020018581526020018281526020018860a00151151581525095505050505050919050565b61139c338383612bdb565b6040516001600160a01b038085166024830152831660448201526001600160e01b0319821660648201525f908190819060840160408051601f19818403018152918152602080830180516001600160e01b031663b700961360e01b1781525f808052918290528351939450919290918a5afa156137cd575f516020805191945081901c150291505b5094509492505050565b5f516020613e185f395f51905f5254600203610e9b57604051633ee5aeb560e01b815260040160405180910390fd5b5f81600101545f14801561381c57506002820154155b1561382857505f919050565b6003820154158061383b57506004820154155b1561384757505f919050565b5f8260040154426138589190613d34565b9050805f0361386957505f92915050565b5f8360020154846001015461387e9190613d47565b90506138906127106301e13380613cfe565b828560030154836138a19190613cfe565b6138ab9190613cfe565b6135229190613d15565b6040516323b872dd60e01b5f8181526001600160a01b038781166004528616602452604485905291602083606481808c5af1925060015f51148316613911578383151615613905573d5f823e3d81fd5b5f883b113d1516831692505b604052505f60605295945050505050565b5f8183106139305781612aa0565b5090919050565b5f54600160a81b900460ff16610e9b57604051638dfc202b60e01b815260040160405180910390fd5b60405163a9059cbb60e01b5f8181526001600160a01b038616600452602485905291602083604481808b5af1925060015f511483166139b65783831516156139aa573d5f823e3d81fd5b5f873b113d1516831692505b60405250949350505050565b80356001600160a01b038116811461267c575f5ffd5b5f5f604083850312156139e9575f5ffd5b6139f2836139c2565b946020939093013593505050565b5f5f83601f840112613a10575f5ffd5b50813567ffffffffffffffff811115613a27575f5ffd5b6020830191508360208260051b8501011115613a41575f5ffd5b9250929050565b5f5f5f5f60408587031215613a5b575f5ffd5b843567ffffffffffffffff811115613a71575f5ffd5b613a7d87828801613a00565b909550935050602085013567ffffffffffffffff811115613a9c575f5ffd5b613aa887828801613a00565b95989497509550505050565b5f60208284031215613ac4575f5ffd5b612aa0826139c2565b5f60208284031215613add575f5ffd5b5035919050565b5f5f5f60608486031215613af6575f5ffd5b613aff846139c2565b9250613b0d602085016139c2565b929592945050506040919091013590565b5f5f8284036080811215613b30575f5ffd5b613b39846139c2565b92506060601f1982011215613b4c575f5ffd5b506020830190509250929050565b815181526020808301519082015260408083015190820152606080830151151590820152608081016117fc565b81518152602080830151908201526040808301519082015260608083015190820152608081016117fc565b815181526020808301519082015260408083015190820152606081016117fc565b82518152602080840151818301526040808501518184015260609485015185840152835160808401529083015160a083015282015160c0820152910151151560e08201526101000190565b5f60208284031215613c2e575f5ffd5b5051919050565b5f6060828403128015613c46575f5ffd5b506040516060810167ffffffffffffffff81118282101715613c7657634e487b7160e01b5f52604160045260245ffd5b60409081528351825260208085015190830152928301519281019290925250919050565b634e487b7160e01b5f52603260045260245ffd5b828152604060208201525f82518060408401528060208501606085015e5f606082850101526060601f19601f8301168401019150509392505050565b634e487b7160e01b5f52601160045260245ffd5b80820281158282048414176117fc576117fc613cea565b5f82613d2f57634e487b7160e01b5f52601260045260245ffd5b500490565b818103818111156117fc576117fc613cea565b808201808211156117fc576117fc613cea565b5f5f85851115613d68575f5ffd5b83861115613d74575f5ffd5b5050820193919092039150565b80356001600160e01b03198116906004841015613db2576001600160e01b0319600485900360031b81901b82161691505b5092915050565b6001600160a01b03841681526040602082018190528101829052818360608301375f818301606090810191909152601f909201601f1916010192915050565b5f60208284031215613e08575f5ffd5b81518015158114612aa0575f5ffdfe9b779b17422d0df92223018b32b4d1fa46e071723d6817e2486d003becc55f00a26469706673582212202d2b9fdf55d4a6f8a0c0c991f2ebb1852fcf079defdf88f1f6667b8317a4ed0564736f6c634300081c0033","linkReferences":{}},"methodIdentifiers":{"_liquidateOneDelegated(address,address,uint256)":"3e95c060","authority()":"bf7e214f","availableToBorrow(address)":"2c38199e","batchLiquidate(address[],uint256[])":"1c1c4c44","borrow(uint256)":"c5ebeaec","borrowCap()":"44d9dca6","collateralAsset()":"aabaecd6","configEpoch()":"32322970","currentDebt(address)":"884719f2","currentQuoteContext()":"c0d3626d","currentQuoteInput(address)":"a2054b6c","currentRiskConfigHash()":"55b0fa02","debtAsset()":"a919802d","debtPool()":"1ffe1667","depositCollateral(uint256)":"bad4a01f","exportPositionForMigration(address)":"d90ebf53","freezeNewDebt()":"a83081f0","healthFactor(address)":"6ad9f9df","importMigratedPosition(address,(uint256,uint256,uint256))":"60453af3","isConsumingScheduledOp()":"8fb36037","liquidate(address,uint256)":"bcbaf487","liquidationBonusBps()":"19970d8e","maxConfiguredLiquidationThresholdBps()":"850eeda6","maxConfiguredLtvBps()":"af11014f","minBorrowAmount()":"0a5db8a8","newDebtFrozen()":"2f5a4863","oracle()":"7dc0d1d0","pause()":"8456cb59","paused()":"5c975abb","positions(address)":"55f57510","previewBorrow(address,uint256)":"931da152","projectedBorrowQuoteInput(address,uint256)":"bc1ffd97","publishCurrentQuoteTicket(address)":"912a70f2","publishProjectedBorrowQuoteTicket(address,uint256)":"07db3855","repay(uint256)":"371fd8e6","reserveFactorBps()":"c87bed70","riskEngine()":"92b888ae","setAuthority(address)":"7a9e5e4b","unpause()":"3f4ba83a","withdrawCollateral(uint256)":"6112fe2e"},"id":3}