{"abi":[{"type":"function","name":"echo","inputs":[{"name":"x","type":"bytes32","internalType":"bytes32"}],"outputs":[{"name":"","type":"bytes32","internalType":"bytes32"}],"stateMutability":"pure"},{"type":"function","name":"fingerprint","inputs":[],"outputs":[{"name":"","type":"bytes32","internalType":"bytes32"}],"stateMutability":"pure"},{"type":"function","name":"quote","inputs":[{"name":"input","type":"tuple","internalType":"struct IRiskEngine.QuoteInput","components":[{"name":"utilizationBps","type":"uint256","internalType":"uint256"},{"name":"collateralRatioBps","type":"uint256","internalType":"uint256"},{"name":"oracleAgeSeconds","type":"uint256","internalType":"uint256"},{"name":"oracleFresh","type":"bool","internalType":"bool"},{"name":"policyMaxLtvBps","type":"uint256","internalType":"uint256"},{"name":"policyLiqThresholdBps","type":"uint256","internalType":"uint256"},{"name":"policyBorrowRateFloorBps","type":"uint256","internalType":"uint256"}]}],"outputs":[{"name":"","type":"tuple","internalType":"struct IRiskEngine.QuoteOutput","components":[{"name":"borrowRateBps","type":"uint256","internalType":"uint256"},{"name":"maxLtvBps","type":"uint256","internalType":"uint256"},{"name":"liquidationThresholdBps","type":"uint256","internalType":"uint256"}]}],"stateMutability":"pure"}],"bytecode":{"object":"0x6080806040523460155761025e908161001a8239f35b5f80fdfe6080806040526004361015610012575f80fd5b5f3560e01c9081634ef98ff91461009e57508063b5531d21146100815763e9d7b19a1461003d575f80fd5b3461007d5760e036600319011261007d576100566100d6565b506060610061610119565b6040805191805183526020810151602084015201516040820152f35b5f80fd5b3461007d57602036600319011261007d5760206040516004358152f35b3461007d575f36600319011261007d57807faafa9e09cdb7664e1003a5059138e1e983378850ff027778ca6b862199cd67e460209252f35b604051906060820182811067ffffffffffffffff821117610105576040525f6040838281528260208201520152565b634e487b7160e01b5f52604160045260245ffd5b6101216100d6565b61012c6004356101ab565b80825260643580159081150361007d576101865750906136b0602435108015610179575b15610167576119646020830152611e786040830152565b611d4c60208301526121346040830152565b5061070860443511610150565b6103e8810180911161019757815290565b634e487b7160e01b5f52601160045260245ffd5b61271081111561022357506127105b611f408111156101fb57611f3f19810190811161019757610bb8810290808204610bb81490151715610197576107d090046103e801806103e8116101975790565b610320810290808204610320149015171561019757611f40900460c8018060c8116101975790565b6101ba56fea2646970667358221220b54065610d82a08b93af1bb15b204cf062ed369d30fe204e627fcbacccce504e64736f6c634300081c0033","linkReferences":{}},"methodIdentifiers":{"echo(bytes32)":"b5531d21","fingerprint()":"4ef98ff9","quote((uint256,uint256,uint256,bool,uint256,uint256,uint256))":"e9d7b19a"},"id":31}