{"abi":[{"type":"constructor","inputs":[{"name":"_wpas","type":"address","internalType":"address"},{"name":"_lendingCore","type":"address","internalType":"address"}],"stateMutability":"nonpayable"},{"type":"function","name":"depositCollateralFromPAS","inputs":[],"outputs":[],"stateMutability":"payable"},{"type":"function","name":"lendingCore","inputs":[],"outputs":[{"name":"","type":"address","internalType":"contract ILendingEngineDeposit"}],"stateMutability":"view"},{"type":"function","name":"wpas","inputs":[],"outputs":[{"name":"","type":"address","internalType":"contract IWPASDeposit"}],"stateMutability":"view"},{"type":"event","name":"DepositedCollateralFromPAS","inputs":[{"name":"depositor","type":"address","indexed":true,"internalType":"address"},{"name":"amount","type":"uint256","indexed":false,"internalType":"uint256"}],"anonymous":false},{"type":"error","name":"ReentrancyGuardReentrantCall","inputs":[]},{"type":"error","name":"SafeERC20FailedOperation","inputs":[{"name":"token","type":"address","internalType":"address"}]},{"type":"error","name":"ZeroAmount","inputs":[]}],"bytecode":{"object":"0x60c0346100b557601f6104e238819003918201601f19168301916001600160401b038311848410176100b95780849260409485528339810103126100b557610052602061004b836100cd565b92016100cd565b60017f9b779b17422d0df92223018b32b4d1fa46e071723d6817e2486d003becc55f00556001600160a01b039182166080521660a05260405161040090816100e28239608051818181609c015261012c015260a0518181816054015261018a0152f35b5f80fd5b634e487b7160e01b5f52604160045260245ffd5b51906001600160a01b03821682036100b55756fe6080806040526004361015610012575f80fd5b5f905f3560e01c908163080d7f89146100cb57508063c0fbda90146100865763e1b6e43c1461003f575f80fd5b346100835780600319360112610083576040517f00000000000000000000000000000000000000000000000000000000000000006001600160a01b03168152602090f35b80fd5b50346100835780600319360112610083576040517f00000000000000000000000000000000000000000000000000000000000000006001600160a01b03168152602090f35b825f3660031901126103725760027f9b779b17422d0df92223018b32b4d1fa46e071723d6817e2486d003becc55f0054146103855760027f9b779b17422d0df92223018b32b4d1fa46e071723d6817e2486d003becc55f00553415610376577f00000000000000000000000000000000000000000000000000000000000000006001600160a01b031691823b1561037257630d0e30db60e41b81525f8160048134875af1801561036757610354575b5060405163095ea7b360e01b82527f00000000000000000000000000000000000000000000000000000000000000006001600160a01b0316600481905234602452929060208360448180865af1906001845114821615610345575b6040521561028e575b508181923b1561028b57818091604460405180948193631b0cef4360e01b83523360048401523460248401525af180156102805761026b575b506040513481527f225996f57ae32a89660e867a96ec7abc869264d4169f6a2cdee5fdb55e1390b760203392a260017f9b779b17422d0df92223018b32b4d1fa46e071723d6817e2486d003becc55f005580f35b8161027591610394565b610083578082610217565b6040513d84823e3d90fd5b50fd5b60405163095ea7b360e01b8352836004528260245260208360448180865af190600184511482161561032d575b604052156102f95760405163095ea7b360e01b835260048490523460245260208360448180865af190600184511482161561030c575b6040526101de575b635274afe760e01b825260045260249150fd5b90600181151661032457823b15153d151616906102f1565b503d83823e3d90fd5b90600181151661032457823b15153d151616906102bb565b90823b15153d151616906101d5565b61036091505f90610394565b5f8261017a565b6040513d5f823e3d90fd5b5f80fd5b631f2a200560e01b5f5260045ffd5b633ee5aeb560e01b5f5260045ffd5b90601f8019910116810190811067ffffffffffffffff8211176103b657604052565b634e487b7160e01b5f52604160045260245ffdfea264697066735822122028beb95b201da311bf5936e6f8ee93e9aea923a579fb1265e284e30554d1399f64736f6c634300081c0033","linkReferences":{}},"methodIdentifiers":{"depositCollateralFromPAS()":"080d7f89","lendingCore()":"e1b6e43c","wpas()":"c0fbda90"},"id":6}