{"abi":[{"type":"constructor","inputs":[{"name":"authority_","type":"address","internalType":"address"},{"name":"collateralAsset_","type":"address","internalType":"contract IERC20"},{"name":"debtAsset_","type":"address","internalType":"contract IERC20"},{"name":"debtPool_","type":"address","internalType":"contract DebtPool"},{"name":"oracle_","type":"address","internalType":"contract ManualOracle"},{"name":"riskEngine_","type":"address","internalType":"contract IRiskAdapter"},{"name":"config_","type":"tuple","internalType":"struct LendingCoreV2.MarketConfig","components":[{"name":"borrowCap","type":"uint256","internalType":"uint256"},{"name":"minBorrowAmount","type":"uint256","internalType":"uint256"},{"name":"reserveFactorBps","type":"uint256","internalType":"uint256"},{"name":"maxLtvBps","type":"uint256","internalType":"uint256"},{"name":"liquidationThresholdBps","type":"uint256","internalType":"uint256"},{"name":"liquidationBonusBps","type":"uint256","internalType":"uint256"}]},{"name":"liquidationNotifier_","type":"address","internalType":"address"}],"stateMutability":"nonpayable"},{"type":"function","name":"_liquidateOneDelegated","inputs":[{"name":"liquidator","type":"address","internalType":"address"},{"name":"borrower","type":"address","internalType":"address"},{"name":"requestedRepayAmount","type":"uint256","internalType":"uint256"}],"outputs":[],"stateMutability":"nonpayable"},{"type":"function","name":"authority","inputs":[],"outputs":[{"name":"","type":"address","internalType":"address"}],"stateMutability":"view"},{"type":"function","name":"availableToBorrow","inputs":[{"name":"borrower","type":"address","internalType":"address"}],"outputs":[{"name":"","type":"uint256","internalType":"uint256"}],"stateMutability":"view"},{"type":"function","name":"batchLiquidate","inputs":[{"name":"borrowers","type":"address[]","internalType":"address[]"},{"name":"amounts","type":"uint256[]","internalType":"uint256[]"}],"outputs":[],"stateMutability":"nonpayable"},{"type":"function","name":"borrow","inputs":[{"name":"amount","type":"uint256","internalType":"uint256"}],"outputs":[],"stateMutability":"nonpayable"},{"type":"function","name":"borrowCap","inputs":[],"outputs":[{"name":"","type":"uint256","internalType":"uint256"}],"stateMutability":"view"},{"type":"function","name":"collateralAsset","inputs":[],"outputs":[{"name":"","type":"address","internalType":"contract IERC20"}],"stateMutability":"view"},{"type":"function","name":"configEpoch","inputs":[],"outputs":[{"name":"","type":"uint256","internalType":"uint256"}],"stateMutability":"view"},{"type":"function","name":"currentDebt","inputs":[{"name":"borrower","type":"address","internalType":"address"}],"outputs":[{"name":"","type":"uint256","internalType":"uint256"}],"stateMutability":"view"},{"type":"function","name":"currentQuoteContext","inputs":[],"outputs":[{"name":"","type":"tuple","internalType":"struct IRiskAdapter.QuoteContext","components":[{"name":"oracleEpoch","type":"uint256","internalType":"uint256"},{"name":"configEpoch","type":"uint256","internalType":"uint256"},{"name":"oracleStateHash","type":"bytes32","internalType":"bytes32"},{"name":"configHash","type":"bytes32","internalType":"bytes32"}]}],"stateMutability":"view"},{"type":"function","name":"currentQuoteInput","inputs":[{"name":"borrower","type":"address","internalType":"address"}],"outputs":[{"name":"","type":"tuple","internalType":"struct IRiskEngine.QuoteInput","components":[{"name":"utilizationBps","type":"uint256","internalType":"uint256"},{"name":"collateralRatioBps","type":"uint256","internalType":"uint256"},{"name":"oracleAgeSeconds","type":"uint256","internalType":"uint256"},{"name":"oracleFresh","type":"bool","internalType":"bool"}]}],"stateMutability":"view"},{"type":"function","name":"currentRiskConfigHash","inputs":[],"outputs":[{"name":"","type":"bytes32","internalType":"bytes32"}],"stateMutability":"view"},{"type":"function","name":"debtAsset","inputs":[],"outputs":[{"name":"","type":"address","internalType":"contract IERC20"}],"stateMutability":"view"},{"type":"function","name":"debtPool","inputs":[],"outputs":[{"name":"","type":"address","internalType":"contract DebtPool"}],"stateMutability":"view"},{"type":"function","name":"depositCollateral","inputs":[{"name":"amount","type":"uint256","internalType":"uint256"}],"outputs":[],"stateMutability":"nonpayable"},{"type":"function","name":"depositCollateralFor","inputs":[{"name":"beneficiary","type":"address","internalType":"address"},{"name":"amount","type":"uint256","internalType":"uint256"}],"outputs":[],"stateMutability":"nonpayable"},{"type":"function","name":"exportPositionForMigration","inputs":[{"name":"borrower","type":"address","internalType":"address"}],"outputs":[{"name":"position","type":"tuple","internalType":"struct IMigratableLendingCore.MigratedPosition","components":[{"name":"collateralAmount","type":"uint256","internalType":"uint256"},{"name":"principalDebt","type":"uint256","internalType":"uint256"},{"name":"accruedInterest","type":"uint256","internalType":"uint256"}]}],"stateMutability":"nonpayable"},{"type":"function","name":"freezeNewDebt","inputs":[],"outputs":[],"stateMutability":"nonpayable"},{"type":"function","name":"healthFactor","inputs":[{"name":"borrower","type":"address","internalType":"address"}],"outputs":[{"name":"","type":"uint256","internalType":"uint256"}],"stateMutability":"view"},{"type":"function","name":"importMigratedPosition","inputs":[{"name":"borrower","type":"address","internalType":"address"},{"name":"position","type":"tuple","internalType":"struct IMigratableLendingCore.MigratedPosition","components":[{"name":"collateralAmount","type":"uint256","internalType":"uint256"},{"name":"principalDebt","type":"uint256","internalType":"uint256"},{"name":"accruedInterest","type":"uint256","internalType":"uint256"}]}],"outputs":[],"stateMutability":"nonpayable"},{"type":"function","name":"isConsumingScheduledOp","inputs":[],"outputs":[{"name":"","type":"bytes4","internalType":"bytes4"}],"stateMutability":"view"},{"type":"function","name":"liquidate","inputs":[{"name":"borrower","type":"address","internalType":"address"},{"name":"requestedRepayAmount","type":"uint256","internalType":"uint256"}],"outputs":[],"stateMutability":"nonpayable"},{"type":"function","name":"liquidationBonusBps","inputs":[],"outputs":[{"name":"","type":"uint256","internalType":"uint256"}],"stateMutability":"view"},{"type":"function","name":"liquidationNotifier","inputs":[],"outputs":[{"name":"","type":"address","internalType":"address"}],"stateMutability":"view"},{"type":"function","name":"maxConfiguredLiquidationThresholdBps","inputs":[],"outputs":[{"name":"","type":"uint256","internalType":"uint256"}],"stateMutability":"view"},{"type":"function","name":"maxConfiguredLtvBps","inputs":[],"outputs":[{"name":"","type":"uint256","internalType":"uint256"}],"stateMutability":"view"},{"type":"function","name":"minBorrowAmount","inputs":[],"outputs":[{"name":"","type":"uint256","internalType":"uint256"}],"stateMutability":"view"},{"type":"function","name":"newDebtFrozen","inputs":[],"outputs":[{"name":"","type":"bool","internalType":"bool"}],"stateMutability":"view"},{"type":"function","name":"oracle","inputs":[],"outputs":[{"name":"","type":"address","internalType":"contract ManualOracle"}],"stateMutability":"view"},{"type":"function","name":"pause","inputs":[],"outputs":[],"stateMutability":"nonpayable"},{"type":"function","name":"paused","inputs":[],"outputs":[{"name":"","type":"bool","internalType":"bool"}],"stateMutability":"view"},{"type":"function","name":"positions","inputs":[{"name":"","type":"address","internalType":"address"}],"outputs":[{"name":"collateralAmount","type":"uint256","internalType":"uint256"},{"name":"principalDebt","type":"uint256","internalType":"uint256"},{"name":"accruedInterest","type":"uint256","internalType":"uint256"},{"name":"borrowRateBps","type":"uint256","internalType":"uint256"},{"name":"lastAccruedAt","type":"uint256","internalType":"uint256"}],"stateMutability":"view"},{"type":"function","name":"previewBorrow","inputs":[{"name":"borrower","type":"address","internalType":"address"},{"name":"additionalDebt","type":"uint256","internalType":"uint256"}],"outputs":[{"name":"quote","type":"tuple","internalType":"struct IRiskEngine.QuoteOutput","components":[{"name":"borrowRateBps","type":"uint256","internalType":"uint256"},{"name":"maxLtvBps","type":"uint256","internalType":"uint256"},{"name":"liquidationThresholdBps","type":"uint256","internalType":"uint256"}]},{"name":"projectedDebt","type":"uint256","internalType":"uint256"},{"name":"projectedHealthFactor","type":"uint256","internalType":"uint256"}],"stateMutability":"view"},{"type":"function","name":"projectedBorrowQuoteInput","inputs":[{"name":"borrower","type":"address","internalType":"address"},{"name":"additionalDebt","type":"uint256","internalType":"uint256"}],"outputs":[{"name":"","type":"tuple","internalType":"struct IRiskEngine.QuoteInput","components":[{"name":"utilizationBps","type":"uint256","internalType":"uint256"},{"name":"collateralRatioBps","type":"uint256","internalType":"uint256"},{"name":"oracleAgeSeconds","type":"uint256","internalType":"uint256"},{"name":"oracleFresh","type":"bool","internalType":"bool"}]}],"stateMutability":"view"},{"type":"function","name":"publishCurrentQuoteTicket","inputs":[{"name":"borrower","type":"address","internalType":"address"}],"outputs":[{"name":"ticketId","type":"bytes32","internalType":"bytes32"}],"stateMutability":"nonpayable"},{"type":"function","name":"publishProjectedBorrowQuoteTicket","inputs":[{"name":"borrower","type":"address","internalType":"address"},{"name":"additionalDebt","type":"uint256","internalType":"uint256"}],"outputs":[{"name":"ticketId","type":"bytes32","internalType":"bytes32"}],"stateMutability":"nonpayable"},{"type":"function","name":"repay","inputs":[{"name":"amount","type":"uint256","internalType":"uint256"}],"outputs":[],"stateMutability":"nonpayable"},{"type":"function","name":"reserveFactorBps","inputs":[],"outputs":[{"name":"","type":"uint256","internalType":"uint256"}],"stateMutability":"view"},{"type":"function","name":"riskEngine","inputs":[],"outputs":[{"name":"","type":"address","internalType":"contract IRiskAdapter"}],"stateMutability":"view"},{"type":"function","name":"setAuthority","inputs":[{"name":"newAuthority","type":"address","internalType":"address"}],"outputs":[],"stateMutability":"nonpayable"},{"type":"function","name":"unpause","inputs":[],"outputs":[],"stateMutability":"nonpayable"},{"type":"function","name":"withdrawCollateral","inputs":[{"name":"amount","type":"uint256","internalType":"uint256"}],"outputs":[],"stateMutability":"nonpayable"},{"type":"event","name":"AuthorityUpdated","inputs":[{"name":"authority","type":"address","indexed":false,"internalType":"address"}],"anonymous":false},{"type":"event","name":"BadDebtRealized","inputs":[{"name":"borrower","type":"address","indexed":true,"internalType":"address"},{"name":"amount","type":"uint256","indexed":false,"internalType":"uint256"}],"anonymous":false},{"type":"event","name":"Borrowed","inputs":[{"name":"account","type":"address","indexed":true,"internalType":"address"},{"name":"amount","type":"uint256","indexed":false,"internalType":"uint256"},{"name":"borrowRateBps","type":"uint256","indexed":false,"internalType":"uint256"}],"anonymous":false},{"type":"event","name":"CollateralDeposited","inputs":[{"name":"account","type":"address","indexed":true,"internalType":"address"},{"name":"amount","type":"uint256","indexed":false,"internalType":"uint256"}],"anonymous":false},{"type":"event","name":"CollateralWithdrawn","inputs":[{"name":"account","type":"address","indexed":true,"internalType":"address"},{"name":"amount","type":"uint256","indexed":false,"internalType":"uint256"}],"anonymous":false},{"type":"event","name":"Liquidated","inputs":[{"name":"borrower","type":"address","indexed":true,"internalType":"address"},{"name":"liquidator","type":"address","indexed":true,"internalType":"address"},{"name":"repaid","type":"uint256","indexed":false,"internalType":"uint256"},{"name":"collateralSeized","type":"uint256","indexed":false,"internalType":"uint256"},{"name":"badDebtWrittenOff","type":"uint256","indexed":false,"internalType":"uint256"}],"anonymous":false},{"type":"event","name":"NewDebtFrozen","inputs":[],"anonymous":false},{"type":"event","name":"Paused","inputs":[{"name":"account","type":"address","indexed":false,"internalType":"address"}],"anonymous":false},{"type":"event","name":"PositionMigratedIn","inputs":[{"name":"borrower","type":"address","indexed":true,"internalType":"address"},{"name":"coordinator","type":"address","indexed":true,"internalType":"address"},{"name":"collateralAmount","type":"uint256","indexed":false,"internalType":"uint256"},{"name":"principalDebt","type":"uint256","indexed":false,"internalType":"uint256"},{"name":"accruedInterest","type":"uint256","indexed":false,"internalType":"uint256"}],"anonymous":false},{"type":"event","name":"PositionMigratedOut","inputs":[{"name":"borrower","type":"address","indexed":true,"internalType":"address"},{"name":"coordinator","type":"address","indexed":true,"internalType":"address"},{"name":"collateralAmount","type":"uint256","indexed":false,"internalType":"uint256"},{"name":"principalDebt","type":"uint256","indexed":false,"internalType":"uint256"},{"name":"accruedInterest","type":"uint256","indexed":false,"internalType":"uint256"}],"anonymous":false},{"type":"event","name":"Repaid","inputs":[{"name":"account","type":"address","indexed":true,"internalType":"address"},{"name":"amount","type":"uint256","indexed":false,"internalType":"uint256"},{"name":"principalPaid","type":"uint256","indexed":false,"internalType":"uint256"},{"name":"interestPaid","type":"uint256","indexed":false,"internalType":"uint256"}],"anonymous":false},{"type":"event","name":"Unpaused","inputs":[{"name":"account","type":"address","indexed":false,"internalType":"address"}],"anonymous":false},{"type":"error","name":"AccessManagedInvalidAuthority","inputs":[{"name":"authority","type":"address","internalType":"address"}]},{"type":"error","name":"AccessManagedRequiredDelay","inputs":[{"name":"caller","type":"address","internalType":"address"},{"name":"delay","type":"uint32","internalType":"uint32"}]},{"type":"error","name":"AccessManagedUnauthorized","inputs":[{"name":"caller","type":"address","internalType":"address"}]},{"type":"error","name":"ArrayLengthMismatch","inputs":[]},{"type":"error","name":"BatchLiquidationFailed","inputs":[{"name":"index","type":"uint256","internalType":"uint256"},{"name":"reason","type":"bytes","internalType":"bytes"}]},{"type":"error","name":"BorrowCapExceeded","inputs":[{"name":"attempted","type":"uint256","internalType":"uint256"},{"name":"cap","type":"uint256","internalType":"uint256"}]},{"type":"error","name":"DebtBelowMinimum","inputs":[{"name":"debt","type":"uint256","internalType":"uint256"},{"name":"minBorrowAmount","type":"uint256","internalType":"uint256"}]},{"type":"error","name":"EnforcedPause","inputs":[]},{"type":"error","name":"ExistingPosition","inputs":[]},{"type":"error","name":"ExpectedPause","inputs":[]},{"type":"error","name":"InsufficientCollateral","inputs":[]},{"type":"error","name":"InvalidConfiguration","inputs":[]},{"type":"error","name":"InvalidLiquidationAmount","inputs":[]},{"type":"error","name":"NewDebtDisabled","inputs":[]},{"type":"error","name":"NoDebt","inputs":[]},{"type":"error","name":"NoPosition","inputs":[]},{"type":"error","name":"PositionHealthy","inputs":[{"name":"healthFactorWad","type":"uint256","internalType":"uint256"}]},{"type":"error","name":"ReentrancyGuardReentrantCall","inputs":[]},{"type":"error","name":"SafeERC20FailedOperation","inputs":[{"name":"token","type":"address","internalType":"address"}]},{"type":"error","name":"ZeroAmount","inputs":[]}],"bytecode":{"object":"0x610220604052348015610010575f5ffd5b506040516147ea3803806147ea83398101604081905261002f916102e6565b876100398161026c565b5060017f9b779b17422d0df92223018b32b4d1fa46e071723d6817e2486d003becc55f00556001600160a01b038816158061007b57506001600160a01b038716155b8061008d57506001600160a01b038616155b8061009f57506001600160a01b038516155b806100b157506001600160a01b038416155b806100c357506001600160a01b038316155b156100e15760405163c52a9bd360e01b815260040160405180910390fd5b856001600160a01b0316856001600160a01b03166338d52e0f6040518163ffffffff1660e01b8152600401602060405180830381865afa158015610127573d5f5f3e3d5ffd5b505050506040513d601f19601f8201168201806040525081019061014b9190610400565b6001600160a01b0316146101725760405163c52a9bd360e01b815260040160405180910390fd5b8151158061018257506020820151155b8061019257506127108260400151115b8061019f57506060820151155b806101b05750612710826060015110155b806101c357508160600151826080015111155b806101d357506127108260800151115b806101e357506127108260a00151115b156102015760405163c52a9bd360e01b815260040160405180910390fd5b6001600160a01b03968716608090815295871660a090815294871660c05292861660e05290851661010052805161012052602081015161014052604081015161016052606081015161018052928301516101a0529101516101c052306101e052166102005250610422565b5f80546001600160a01b0319166001600160a01b0383169081179091556040519081527f2f658b440c35314f52658ea8a740e05b284cdc84dc9ae01e891f21b8933e7cad9060200160405180910390a150565b6001600160a01b03811681146102d3575f5ffd5b50565b80516102e1816102bf565b919050565b5f5f5f5f5f5f5f5f888a036101a08112156102ff575f5ffd5b895161030a816102bf565b60208b015190995061031b816102bf565b60408b015190985061032c816102bf565b60608b015190975061033d816102bf565b60808b015190965061034e816102bf565b60a08b015190955061035f816102bf565b935060c060bf1982011215610372575f5ffd5b5060405160c081016001600160401b03811182821017156103a157634e487b7160e01b5f52604160045260245ffd5b604090815260c08b0151825260e08b015160208301526101008b0151908201526101208a015160608201526101408a015160808201526101608a015160a082015291506103f16101808a016102d6565b90509295985092959890939650565b5f60208284031215610410575f5ffd5b815161041b816102bf565b9392505050565b60805160a05160c05160e05161010051610120516101405161016051610180516101a0516101c0516101e051610200516141586106925f395f81816104da015281816134de015261353e01525f818161036f015261221c01525f81816102ab0152818161119c0152818161301e015261309d01525f8181610509015281816111760152818161376e015261379501525f81816106560152818161115001528181612d380152612d5f01525f81816106ee01528181610ed20152818161112a01526131bc01525f81816102840152818161110201528181613600015261363d01525f81816103c4015281816110dc0152818161252d015261256901525f81816105770152818161076d015281816107fd015281816111f201528181611a9401528181611b2401528181612c0a0152612cc801525f81816104b3015281816111ca015281816113d90152818161167601528181612197015281816122420152818161237501528181612a5401528181612ad601528181612b5801528181612e8a015261366c01525f81816102fa015281816109a101528181610c7301528181610e3801528181610ef801528181610fcb015281816113320152818161148301528181611720015281816118c801528181611c4401528181611d9701528181611f71015281816120a80152818161241a015281816125f90152818161278701528181612f3401528181613122015281816131e2015281816132d6015281816133e8015261392201525f818161060801528181610e1501526130ff01525f818161062f015281816108fc015281816112e6015281816117d201528181611ec40152818161281b015261326801526141585ff3fe608060405234801561000f575f5ffd5b5060043610610255575f3560e01c806380c8732411610140578063a919802d116100bf578063bcbaf48711610084578063bcbaf4871461069e578063bf7e214f146106b1578063c0d3626d146106c1578063c5ebeaec146106d6578063c87bed70146106e9578063d90ebf5314610710575f5ffd5b8063a919802d14610603578063aabaecd61461062a578063af11014f14610651578063bad4a01f14610678578063bc1ffd971461068b575f5ffd5b8063912a70f211610105578063912a70f21461055f57806392b888ae14610572578063931da15214610599578063a2054b6c146105db578063a83081f0146105fb575f5ffd5b806380c87324146104d55780638456cb59146104fc578063850eeda614610504578063884719f21461052b5780638fb360371461053e575f5ffd5b80633e95c060116101d75780635c975abb1161019c5780635c975abb1461045157806360453af3146104625780636112fe2e146104755780636ad9f9df146104885780637a9e5e4b1461049b5780637dc0d1d0146104ae575f5ffd5b80633e95c060146103a45780633f4ba83a146103b757806344d9dca6146103bf57806355b0fa02146103e657806355f57510146103ee575f5ffd5b80631ffe16671161021d5780631ffe1667146102f55780632c38199e146103345780632f5a486314610347578063323229701461036a578063371fd8e614610391575f5ffd5b806307db3855146102595780630a5db8a81461027f57806319970d8e146102a65780631b0cef43146102cd5780631c1c4c44146102e2575b5f5ffd5b61026c610267366004613cc3565b610730565b6040519081526020015b60405180910390f35b61026c7f000000000000000000000000000000000000000000000000000000000000000081565b61026c7f000000000000000000000000000000000000000000000000000000000000000081565b6102e06102db366004613cc3565b61087d565b005b6102e06102f0366004613d33565b610aa7565b61031c7f000000000000000000000000000000000000000000000000000000000000000081565b6040516001600160a01b039091168152602001610276565b61026c610342366004613d9f565b610c04565b5f5461035a90600160b01b900460ff1681565b6040519015158152602001610276565b61026c7f000000000000000000000000000000000000000000000000000000000000000081565b6102e061039f366004613db8565b610d82565b6102e06103b2366004613dcf565b611093565b6102e06110c3565b61026c7f000000000000000000000000000000000000000000000000000000000000000081565b61026c6110d6565b6104296103fc366004613d9f565b600160208190525f9182526040909120805491810154600282015460038301546004909301549192909185565b604080519586526020860194909452928401919091526060830152608082015260a001610276565b5f54600160a81b900460ff1661035a565b6102e0610470366004613e09565b611239565b6102e0610483366004613db8565b6115d5565b61026c610496366004613d9f565b611847565b6102e06104a9366004613d9f565b61198c565b61031c7f000000000000000000000000000000000000000000000000000000000000000081565b61031c7f000000000000000000000000000000000000000000000000000000000000000081565b6102e0611a00565b61026c7f000000000000000000000000000000000000000000000000000000000000000081565b61026c610539366004613d9f565b611a11565b610546611a37565b6040516001600160e01b03199091168152602001610276565b61026c61056d366004613d9f565b611a5b565b61031c7f000000000000000000000000000000000000000000000000000000000000000081565b6105ac6105a7366004613cc3565b611ba3565b60408051845181526020808601519082015293810151908401526060830191909152608082015260a001610276565b6105ee6105e9366004613d9f565b611d1f565b6040516102769190613e45565b6102e0611e3b565b61031c7f000000000000000000000000000000000000000000000000000000000000000081565b61031c7f000000000000000000000000000000000000000000000000000000000000000081565b61026c7f000000000000000000000000000000000000000000000000000000000000000081565b6102e0610686366004613db8565b611e7f565b6105ee610699366004613cc3565b612024565b6102e06106ac366004613cc3565b61213b565b5f546001600160a01b031661031c565b6106c9612163565b6040516102769190613e72565b6102e06106e4366004613db8565b6122d4565b61026c7f000000000000000000000000000000000000000000000000000000000000000081565b61072361071e366004613d9f565b6126b9565b6040516102769190613e9d565b5f61073d335b5f366128b6565b5f6107488484612024565b90505f610753612163565b6040516302221fa760e61b81529091506001600160a01b037f00000000000000000000000000000000000000000000000000000000000000001690638887e9c0906107a49084908690600401613ebe565b602060405180830381865afa1580156107bf573d5f5f3e3d5ffd5b505050506040513d601f19601f820116820180604052508101906107e39190613f09565b604051630d8baa0360e31b81529093506001600160a01b037f00000000000000000000000000000000000000000000000000000000000000001690636c5d5018906108349084908690600401613ebe565b6060604051808303815f875af1158015610850573d5f5f3e3d5ffd5b505050506040513d601f19601f820116820180604052508101906108749190613f20565b50505092915050565b61088633610736565b61088e6129ac565b6108966129c7565b805f036108b657604051631f2a200560e01b815260040160405180910390fd5b6001600160a01b0382166108dd5760405163c52a9bd360e01b815260040160405180910390fd5b6001600160a01b038083165f90815260016020526040902090610924907f0000000000000000000000000000000000000000000000000000000000000000163330856129f1565b81815f015f8282546109369190613f99565b909155505060048101545f0361094d574260048201555b5f61095782612a27565b90508015610a48575f5f5f61096a612a4f565b92509250925081801561097c57508215155b15610a44575f610a3c6040518060c00160405280885f015481526020018781526020017f00000000000000000000000000000000000000000000000000000000000000006001600160a01b03166329b1829e6040518163ffffffff1660e01b8152600401602060405180830381865afa1580156109fb573d5f5f3e3d5ffd5b505050506040513d601f19601f82011682018060405250810190610a1f9190613f09565b815260200186815260200184815260200160011515815250612be7565b516003870155505b5050505b836001600160a01b03167fd7243f6f8212d5188fd054141cf6ea89cfc0d91facb8c3afe2f88a135848014284604051610a8391815260200190565b60405180910390a25050610aa360015f5160206141035f395f51905f5255565b5050565b610aaf6129ac565b610ab76129c7565b828114610ad75760405163512509d360e11b815260040160405180910390fd5b5f5b83811015610be75730633e95c06033878785818110610afa57610afa613fac565b9050602002016020810190610b0f9190613d9f565b868686818110610b2157610b21613fac565b6040516001600160e01b031960e088901b1681526001600160a01b039586166004820152949093166024850152506020909102013560448201526064015f604051808303815f87803b158015610b75575f5ffd5b505af1925050508015610b86575060015b610bdf573d808015610bb3576040519150601f19603f3d011682016040523d82523d5f602084013e610bb8565b606091505b5081816040516340bad83f60e01b8152600401610bd6929190613fc0565b60405180910390fd5b600101610ad9565b50610bfe60015f5160206141035f395f51905f5255565b50505050565b6001600160a01b0381165f908152600160205260408120818080610c26612a4f565b925092509250811580610c37575082155b15610c4757505f95945050505050565b5f610c5185612a27565b90505f610d0e6040518060c00160405280885f015481526020018481526020017f00000000000000000000000000000000000000000000000000000000000000006001600160a01b03166329b1829e6040518163ffffffff1660e01b8152600401602060405180830381865afa158015610ccd573d5f5f3e3d5ffd5b505050506040513d601f19601f82011682018060405250810190610cf19190613f09565b815260200187815260200185815260200160011515815250612ca5565b90505f610d1e8260200151612d35565b9050805f03610d3557505f98975050505050505050565b5f61271082610d478a5f01548a612d87565b610d519190613ffc565b610d5b9190614013565b9050838111610d6a575f610d74565b610d748482614032565b9a9950505050505050505050565b610d8a6129ac565b805f03610daa57604051631f2a200560e01b815260040160405180910390fd5b335f81815260016020526040902090610dc290611a11565b5f03610de1576040516308d1fde360e11b815260040160405180910390fd5b610dea81612dac565b5f610df482612a27565b90505f818410610e045781610e06565b835b9050610e5d6001600160a01b037f000000000000000000000000000000000000000000000000000000000000000016337f0000000000000000000000000000000000000000000000000000000000000000846129f1565b5f83600201548210610e73578360020154610e75565b815b905080846002015f828254610e8a9190614032565b909155505f9050610e9b8284614032565b905080856001015f828254610eb09190614032565b9091555050604051635ca9cf2760e01b815260048101829052602481018390527f000000000000000000000000000000000000000000000000000000000000000060448201527f00000000000000000000000000000000000000000000000000000000000000006001600160a01b031690635ca9cf27906064015f604051808303815f87803b158015610f41575f5ffd5b505af1158015610f53573d5f5f3e3d5ffd5b505050505f610f6186612a27565b9050805f03610f89575f60018701819055600287018190556003870155426004870155611031565b5f5f5f610f94612a4f565b925092509250818015610fa657508215155b1561102d575f6110256040518060c001604052808c5f015481526020018781526020017f00000000000000000000000000000000000000000000000000000000000000006001600160a01b03166329b1829e6040518163ffffffff1660e01b8152600401602060405180830381865afa1580156109fb573d5f5f3e3d5ffd5b5160038b0155505b5050505b604080518581526020810184905290810184905233907f07178c166b5aef4d8409e6bbfd0e7b1ad42c92eb65903a5e5482166f3f4e62f09060600160405180910390a250505050505061109060015f5160206141035f395f51905f5255565b50565b3330146110b35760405163c52a9bd360e01b815260040160405180910390fd5b6110be838383612e10565b505050565b6110cc33610736565b6110d46135a0565b565b604080517f000000000000000000000000000000000000000000000000000000000000000060208201527f0000000000000000000000000000000000000000000000000000000000000000918101919091527f000000000000000000000000000000000000000000000000000000000000000060608201527f000000000000000000000000000000000000000000000000000000000000000060808201527f000000000000000000000000000000000000000000000000000000000000000060a08201527f000000000000000000000000000000000000000000000000000000000000000060c08201526001600160a01b037f0000000000000000000000000000000000000000000000000000000000000000811660e08301527f0000000000000000000000000000000000000000000000000000000000000000166101008201525f906101200160405160208183030381529060405280519060200120905090565b61124233610736565b61124a6129ac565b6001600160a01b0382165f9081526001602052604090208054151580611277575061127481612a27565b15155b156112955760405163823fbd3160e01b815260040160405180910390fd5b81351580156112a657506020820135155b80156112b457506040820135155b156112d257604051632afc3c0d60e21b815260040160405180910390fd5b81351561130f5761130f6001600160a01b037f000000000000000000000000000000000000000000000000000000000000000016333085356129f1565b602082013515611392576040516314a722ab60e21b8152602083013560048201527f00000000000000000000000000000000000000000000000000000000000000006001600160a01b03169063529c8aac906024015f604051808303815f87803b15801561137b575f5ffd5b505af115801561138d573d5f5f3e3d5ffd5b505050505b8135815560208201356001820155604082013560028201554260048201555f6113ba82612a27565b9050801561156a576113cb816135f4565b5f6113d4613669565b90505f7f00000000000000000000000000000000000000000000000000000000000000006001600160a01b03166354aea1276040518163ffffffff1660e01b8152600401602060405180830381865afa158015611433573d5f5f3e3d5ffd5b505050506040513d601f19601f820116820180604052508101906114579190613f09565b6114619042614032565b90505f61151e6040518060c00160405280875f015481526020018681526020017f00000000000000000000000000000000000000000000000000000000000000006001600160a01b03166329b1829e6040518163ffffffff1660e01b8152600401602060405180830381865afa1580156114dd573d5f5f3e3d5ffd5b505050506040513d601f19601f820116820180604052508101906115019190613f09565b815260200185815260200184815260200160011515815250612be7565b90505f61152e8260200151612d35565b9050805f036115505760405163c52a9bd360e01b815260040160405180910390fd5b815160038701558554611565908686846136ea565b505050505b6040805184358152602080860135908201528482013581830152905133916001600160a01b038716917f4ec8e47aae691949002381c8cf35018568b63e155c5db86ad527cd8c7e39b2869181900360600190a35050610aa360015f5160206141035f395f51905f5255565b6115dd6129ac565b6115e56129c7565b805f0361160557604051631f2a200560e01b815260040160405180910390fd5b335f908152600160205260409020805482111561163557604051633a23d82560e01b815260040160405180910390fd5b61163e81612dac565b81815f015f8282546116509190614032565b909155505f905061165f613669565b90505f61166b83612a27565b905080156117c5575f7f00000000000000000000000000000000000000000000000000000000000000006001600160a01b03166354aea1276040518163ffffffff1660e01b8152600401602060405180830381865afa1580156116d0573d5f5f3e3d5ffd5b505050506040513d601f19601f820116820180604052508101906116f49190613f09565b6116fe9042614032565b90505f61177a6040518060c00160405280875f015481526020018581526020017f00000000000000000000000000000000000000000000000000000000000000006001600160a01b03166329b1829e6040518163ffffffff1660e01b8152600401602060405180830381865afa1580156109fb573d5f5f3e3d5ffd5b90505f61178a8260200151612d35565b9050805f036117ac5760405163c52a9bd360e01b815260040160405180910390fd5b8151600387015585546117c1908587846136ea565b5050505b6117f96001600160a01b037f0000000000000000000000000000000000000000000000000000000000000000163386613736565b60405184815233907fc30fcfbcaac9e0deffa719714eaa82396ff506a0d0d0eebe170830177288715d9060200160405180910390a250505061109060015f5160206141035f395f51905f5255565b6001600160a01b0381165f9081526001602052604081208161186882612a27565b9050805f0361187b57505f199392505050565b5f5f5f611886612a4f565b925092509250811580611897575082155b156118a857505f9695505050505050565b5f6119636040518060c00160405280885f015481526020018781526020017f00000000000000000000000000000000000000000000000000000000000000006001600160a01b03166329b1829e6040518163ffffffff1660e01b8152600401602060405180830381865afa158015611922573d5f5f3e3d5ffd5b505050506040513d601f19601f820116820180604052508101906119469190613f09565b815260200186815260200184815260200160011515815250612ca5565b9050611980865f0154868661197b856040015161376b565b6137b9565b98975050505050505050565b5f5433906001600160a01b031681146119c25760405162d1953b60e31b81526001600160a01b0382166004820152602401610bd6565b816001600160a01b03163b5f036119f7576040516361798f2f60e11b81526001600160a01b0383166004820152602401610bd6565b610aa382613815565b611a0933610736565b6110d4613868565b6001600160a01b0381165f908152600160205260408120611a3190612a27565b92915050565b5f8054600160a01b900460ff16611a4d57505f90565b638fb3603760e01b5b905090565b5f611a6533610736565b5f611a6f83611d1f565b90505f611a7a612163565b6040516302221fa760e61b81529091506001600160a01b037f00000000000000000000000000000000000000000000000000000000000000001690638887e9c090611acb9084908690600401613ebe565b602060405180830381865afa158015611ae6573d5f5f3e3d5ffd5b505050506040513d601f19601f82011682018060405250810190611b0a9190613f09565b604051630d8baa0360e31b81529093506001600160a01b037f00000000000000000000000000000000000000000000000000000000000000001690636c5d501890611b5b9084908690600401613ebe565b6060604051808303815f875af1158015611b77573d5f5f3e3d5ffd5b505050506040513d601f19601f82011682018060405250810190611b9b9190613f20565b505050919050565b611bc460405180606001604052805f81526020015f81526020015f81525090565b6001600160a01b0383165f9081526001602052604081208190818080611be8612a4f565b925092509250811580611bf9575082155b15611c0e57505f9450849350611d1892505050565b87611c1885612a27565b611c229190613f99565b9550611ce96040518060c00160405280865f015481526020018881526020018a7f00000000000000000000000000000000000000000000000000000000000000006001600160a01b03166329b1829e6040518163ffffffff1660e01b8152600401602060405180830381865afa158015611c9e573d5f5f3e3d5ffd5b505050506040513d601f19601f82011682018060405250810190611cc29190613f09565b611ccc9190613f99565b815260200185815260200183815260200160011515815250612ca5565b96505f611cf9886040015161376b565b90508015611d12578454611d0f908886846137b9565b95505b50505050505b9250925092565b611d4860405180608001604052805f81526020015f81526020015f81526020015f151581525090565b6001600160a01b0382165f908152600160205260408120908080611d6a612a4f565b925092509250611e316040518060c00160405280865f01548152602001611d9087612a27565b81526020017f00000000000000000000000000000000000000000000000000000000000000006001600160a01b03166329b1829e6040518163ffffffff1660e01b8152600401602060405180830381865afa158015611df1573d5f5f3e3d5ffd5b505050506040513d601f19601f82011682018060405250810190611e159190613f09565b81526020018581526020018381526020018415158152506138aa565b9695505050505050565b611e4433610736565b5f805460ff60b01b1916600160b01b1781556040517f68be81811676eef5aa3f75efce5a31614fc576af3288a489e310b6d3e854ea4e9190a1565b611e876129ac565b611e8f6129c7565b805f03611eaf57604051631f2a200560e01b815260040160405180910390fd5b335f81815260016020526040902090611ef4907f00000000000000000000000000000000000000000000000000000000000000006001600160a01b03169030856129f1565b81815f015f828254611f069190613f99565b909155505060048101545f03611f1d574260048201555b5f611f2782612a27565b90508015611fd7575f5f5f611f3a612a4f565b925092509250818015611f4c57508215155b15611fd3575f611fcb6040518060c00160405280885f015481526020018781526020017f00000000000000000000000000000000000000000000000000000000000000006001600160a01b03166329b1829e6040518163ffffffff1660e01b8152600401602060405180830381865afa1580156109fb573d5f5f3e3d5ffd5b516003870155505b5050505b60405183815233907fd7243f6f8212d5188fd054141cf6ea89cfc0d91facb8c3afe2f88a13584801429060200160405180910390a2505061109060015f5160206141035f395f51905f5255565b61204d60405180608001604052805f81526020015f81526020015f81526020015f151581525090565b6001600160a01b0383165f90815260016020526040812090808061206f612a4f565b9250925092506121306040518060c00160405280865f015481526020018861209688612a27565b6120a09190613f99565b8152602001887f00000000000000000000000000000000000000000000000000000000000000006001600160a01b03166329b1829e6040518163ffffffff1660e01b8152600401602060405180830381865afa158015612102573d5f5f3e3d5ffd5b505050506040513d601f19601f820116820180604052508101906121269190613f09565b611e159190613f99565b979650505050505050565b6121436129ac565b61214d8282613a25565b610aa360015f5160206141035f395f51905f5255565b61218a60405180608001604052805f81526020015f81526020015f81526020015f81525090565b60405180608001604052807f00000000000000000000000000000000000000000000000000000000000000006001600160a01b031663ba65ff286040518163ffffffff1660e01b8152600401602060405180830381865afa1580156121f1573d5f5f3e3d5ffd5b505050506040513d601f19601f820116820180604052508101906122159190613f09565b81526020017f000000000000000000000000000000000000000000000000000000000000000081526020017f00000000000000000000000000000000000000000000000000000000000000006001600160a01b031663b4d8c0b36040518163ffffffff1660e01b8152600401602060405180830381865afa15801561229c573d5f5f3e3d5ffd5b505050506040513d601f19601f820116820180604052508101906122c09190613f09565b81526020016122cd6110d6565b9052919050565b6122dc6129ac565b6122e46129c7565b805f0361230457604051631f2a200560e01b815260040160405180910390fd5b5f54600160b01b900460ff161561232e57604051630b77882b60e11b815260040160405180910390fd5b335f908152600160205260408120805490910361235e57604051633a23d82560e01b815260040160405180910390fd5b61236781612dac565b5f612370613669565b90505f7f00000000000000000000000000000000000000000000000000000000000000006001600160a01b03166354aea1276040518163ffffffff1660e01b8152600401602060405180830381865afa1580156123cf573d5f5f3e3d5ffd5b505050506040513d601f19601f820116820180604052508101906123f39190613f09565b6123fd9042614032565b90505f8461240a85612a27565b6124149190613f99565b90505f857f00000000000000000000000000000000000000000000000000000000000000006001600160a01b03166329b1829e6040518163ffffffff1660e01b8152600401602060405180830381865afa158015612474573d5f5f3e3d5ffd5b505050506040513d601f19601f820116820180604052508101906124989190613f09565b6124a29190613f99565b90505f6124e06040518060c00160405280885f0154815260200185815260200184815260200187815260200186815260200160011515815250612be7565b90505f6124f08260200151612d35565b90505f612500836040015161376b565b905081158061250d575080155b1561252b5760405163c52a9bd360e01b815260040160405180910390fd5b7f0000000000000000000000000000000000000000000000000000000000000000841115612595576040516331198c6560e21b8152600481018590527f00000000000000000000000000000000000000000000000000000000000000006024820152604401610bd6565b61259e856135f4565b88886001015f8282546125b19190613f99565b90915550508251600389015560048801545f036125cf574260048901555b87546125dd908689856136ea565b6040516308f61bed60e21b8152336004820152602481018a90527f00000000000000000000000000000000000000000000000000000000000000006001600160a01b0316906323d86fb4906044015f604051808303815f87803b158015612642575f5ffd5b505af1158015612654573d5f5f3e3d5ffd5b505084516040513393507feae9cfbc77fdd40ca899f36b608256063b2bc9d8178b0220f7ad513e178d67309250612693918d8252602082015260400190565b60405180910390a2505050505050505061109060015f5160206141035f395f51905f5255565b6126da60405180606001604052805f81526020015f81526020015f81525090565b6126e333610736565b6126eb6129ac565b6001600160a01b0382165f90815260016020526040902061270b81612dac565b8054158015612720575061271e81612a27565b155b1561273e57604051632afc3c0d60e21b815260040160405180910390fd5b60408051606081018252825481526001830154602082018190526002840154928201929092529250156127e7576020820151604051635e15420160e01b815260048101919091527f00000000000000000000000000000000000000000000000000000000000000006001600160a01b031690635e154201906024015f604051808303815f87803b1580156127d0575f5ffd5b505af11580156127e2573d5f5f3e3d5ffd5b505050505b5f80825560018201819055600282018190556003820155426004820155815115612843578151612843906001600160a01b037f000000000000000000000000000000000000000000000000000000000000000016903390613736565b815160208084015160408086015181519485529284019190915282015233906001600160a01b038516907fad844839fecbd3ceb4326eafca8e77c8be094426e81918b95d53f60b590c57339060600160405180910390a3506128b160015f5160206141035f395f51905f5255565b919050565b5f5f6128e96128cc5f546001600160a01b031690565b86306128db60045f898b614045565b6128e49161406c565b613a30565b91509150816129a55763ffffffff811615612982575f805460ff60a01b198116600160a01b17909155604051634a63ebf760e11b81526001600160a01b03909116906394c7d7ee90612943908890889088906004016140a4565b5f604051808303815f87803b15801561295a575f5ffd5b505af115801561296c573d5f5f3e3d5ffd5b50505f805460ff60a01b19169055506129a59050565b60405162d1953b60e31b81526001600160a01b0386166004820152602401610bd6565b5050505050565b6129b4613ac2565b60025f5160206141035f395f51905f5255565b5f54600160a81b900460ff16156110d45760405163d93c066560e01b815260040160405180910390fd5b6129ff848484846001613af1565b610bfe57604051635274afe760e01b81526001600160a01b0385166004820152602401610bd6565b5f612a3182613b5e565b82600201548360010154612a459190613f99565b611a319190613f99565b5f5f5f7f00000000000000000000000000000000000000000000000000000000000000006001600160a01b031663bb47b68a6040518163ffffffff1660e01b8152600401602060405180830381865afa158015612aae573d5f5f3e3d5ffd5b505050506040513d601f19601f82011682018060405250810190612ad29190613f09565b92507f00000000000000000000000000000000000000000000000000000000000000006001600160a01b0316636268ceaa6040518163ffffffff1660e01b8152600401602060405180830381865afa158015612b30573d5f5f3e3d5ffd5b505050506040513d601f19601f82011682018060405250810190612b5491906140e3565b91507f00000000000000000000000000000000000000000000000000000000000000006001600160a01b03166354aea1276040518163ffffffff1660e01b8152600401602060405180830381865afa158015612bb2573d5f5f3e3d5ffd5b505050506040513d601f19601f82011682018060405250810190612bd69190613f09565b612be09042614032565b9050909192565b612c0860405180606001604052805f81526020015f81526020015f81525090565b7f00000000000000000000000000000000000000000000000000000000000000006001600160a01b0316636c5d5018612c3f612163565b612c48856138aa565b6040518363ffffffff1660e01b8152600401612c65929190613ebe565b6060604051808303815f875af1158015612c81573d5f5f3e3d5ffd5b505050506040513d601f19601f82011682018060405250810190611a319190613f20565b612cc660405180606001604052805f81526020015f81526020015f81525090565b7f00000000000000000000000000000000000000000000000000000000000000006001600160a01b03166330216099612cfe846138aa565b6040518263ffffffff1660e01b8152600401612d1a9190613e45565b606060405180830381865afa158015612c81573d5f5f3e3d5ffd5b5f7f00000000000000000000000000000000000000000000000000000000000000008210612d83577f0000000000000000000000000000000000000000000000000000000000000000611a31565b5090565b5f670de0b6b3a7640000612d9b8385613ffc565b612da59190614013565b9392505050565b5f612db682613b5e565b90508015612dd75780826002015f828254612dd19190613f99565b90915550505b81600401545f03612dec574260048301555050565b6001820154151580612e015750600282015415155b15610aa3574260048301555050565b805f03612e3057604051631f2a200560e01b815260040160405180910390fd5b6001600160a01b0382165f908152600160205260409020612e5081612dac565b5f612e5a82612a27565b9050805f03612e7c576040516308d1fde360e11b815260040160405180910390fd5b5f612e85613669565b90505f7f00000000000000000000000000000000000000000000000000000000000000006001600160a01b03166354aea1276040518163ffffffff1660e01b8152600401602060405180830381865afa158015612ee4573d5f5f3e3d5ffd5b505050506040513d601f19601f82011682018060405250810190612f089190613f09565b612f129042614032565b90505f612f8e6040518060c00160405280875f015481526020018681526020017f00000000000000000000000000000000000000000000000000000000000000006001600160a01b03166329b1829e6040518163ffffffff1660e01b8152600401602060405180830381865afa1580156114dd573d5f5f3e3d5ffd5b90505f612f9e826040015161376b565b9050805f03612fc05760405163c52a9bd360e01b815260040160405180910390fd5b5f612fd0875f01548787856137b9565b9050670de0b6b3a76400008110612ffd576040516301e11b9d60e11b815260048101829052602401610bd6565b5050505f61300e855f015484612d87565b90505f6130608761305b876130457f0000000000000000000000000000000000000000000000000000000000000000612710613f99565b61305161271088613ffc565b61305b9190614013565b613c0d565b9050805f0361308257604051638bd79d6d60e01b815260040160405180910390fd5b5f61308f61271086613ffc565b670de0b6b3a76400006130c47f0000000000000000000000000000000000000000000000000000000000000000612710613f99565b6130ce9085613ffc565b6130d89190613ffc565b6130e29190614013565b87549091508111156130f2575085545b6131476001600160a01b037f0000000000000000000000000000000000000000000000000000000000000000168b7f0000000000000000000000000000000000000000000000000000000000000000856129f1565b5f8760020154831061315d57876002015461315f565b825b905080886002015f8282546131749190614032565b909155505f90506131858285614032565b905080896001015f82825461319a9190614032565b9091555050604051635ca9cf2760e01b815260048101829052602481018390527f000000000000000000000000000000000000000000000000000000000000000060448201527f00000000000000000000000000000000000000000000000000000000000000006001600160a01b031690635ca9cf27906064015f604051808303815f87803b15801561322b575f5ffd5b505af115801561323d573d5f5f3e3d5ffd5b50505050505080875f015f8282546132559190614032565b9091555061328f90506001600160a01b037f0000000000000000000000000000000000000000000000000000000000000000168b83613736565b5f5f61329a89612a27565b89549091501580156132ab57505f81115b1561339957600189015490915081908015613336576040516330113a1f60e11b8152600481018290527f00000000000000000000000000000000000000000000000000000000000000006001600160a01b031690636022743e906024015f604051808303815f87803b15801561331f575f5ffd5b505af1158015613331573d5f5f3e3d5ffd5b505050505b5f60018b0181905560028b0181905560038b01554260048b01558b6001600160a01b03167f27a9c7b403b5c385a33cdba9789d8d52e54e7a50de6374d606964df0429cdf4e8360405161338b91815260200190565b60405180910390a25061348b565b805f036133bf575f60018a0181905560028a0181905560038a01554260048a015561348b565b6133c8816135f4565b5f6134836040518060c001604052808c5f015481526020018481526020017f00000000000000000000000000000000000000000000000000000000000000006001600160a01b03166329b1829e6040518163ffffffff1660e01b8152600401602060405180830381865afa158015613442573d5f5f3e3d5ffd5b505050506040513d601f19601f820116820180604052508101906134669190613f09565b81526020018a815260200189815260200160011515815250612be7565b5160038b0155505b60408051858152602081018590529081018390526001600160a01b03808e1691908d16907ffcbc974bf3a532baf2bb229db3c37fd58299b62d2d1db6a855dac5b693bb6ff39060600160405180910390a37f00000000000000000000000000000000000000000000000000000000000000006001600160a01b03161561359257604051630ad890ab60e41b81526001600160a01b038c8116600483015260248201869052604482018590525f60648301527f0000000000000000000000000000000000000000000000000000000000000000169063ad890ab0906084015f604051808303815f87803b15801561357f575f5ffd5b505af1925050508015613590575060015b505b505050505050505050505050565b6135a8613c22565b5f805460ff60a81b191690557f5db9ee0a495bf2e6ff9c91a7834c1ba4fdd244a5e8aa4e537bd38aeae4b073aa335b6040516001600160a01b03909116815260200160405180910390a1565b801580159061362257507f000000000000000000000000000000000000000000000000000000000000000081105b1561109057604051639912ed2960e01b8152600481018290527f00000000000000000000000000000000000000000000000000000000000000006024820152604401610bd6565b5f7f00000000000000000000000000000000000000000000000000000000000000006001600160a01b031663869ab8ac6040518163ffffffff1660e01b8152600401602060405180830381865afa1580156136c6573d5f5f3e3d5ffd5b505050506040513d601f19601f82011682018060405250810190611a569190613f09565b8215610bfe575f612710826136ff8786612d87565b6137099190613ffc565b6137139190614013565b9050808411156129a557604051633a23d82560e01b815260040160405180910390fd5b6137438383836001613c4b565b6110be57604051635274afe760e01b81526001600160a01b0384166004820152602401610bd6565b5f7f00000000000000000000000000000000000000000000000000000000000000008210612d83577f0000000000000000000000000000000000000000000000000000000000000000611a31565b5f835f036137c957505f1961380d565b5f6137d48685612d87565b90506137e261271086613ffc565b670de0b6b3a76400006137f58584613ffc565b6137ff9190613ffc565b6138099190614013565b9150505b949350505050565b5f80546001600160a01b0319166001600160a01b0383169081179091556040519081527f2f658b440c35314f52658ea8a740e05b284cdc84dc9ae01e891f21b8933e7cad9060200160405180910390a150565b6138706129c7565b5f805460ff60a81b1916600160a81b1790557f62e78cea01bee320cd4e420270b5ea74000d11b0c9f74754ebdbfc544b05a2586135d73390565b6138d360405180608001604052805f81526020015f81526020015f81526020015f151581525090565b5f6138e5835f01518460600151612d87565b90505f83602001515f1461391357602084015161390461271084613ffc565b61390e9190614013565b61391d565b67ffffffffffffffff5b90505f7f00000000000000000000000000000000000000000000000000000000000000006001600160a01b03166301e1d1146040518163ffffffff1660e01b8152600401602060405180830381865afa15801561397c573d5f5f3e3d5ffd5b505050506040513d601f19601f820116820180604052508101906139a09190613f09565b90505f81156139cb578161271087604001516139bc9190613ffc565b6139c69190614013565b6139cd565b5f5b60a08701519091505f9080156139e857506107088760800151115b156139f257506107095b60405180608001604052808381526020018581526020018281526020018860a00151151581525095505050505050919050565b610aa3338383612e10565b6040516001600160a01b038085166024830152831660448201526001600160e01b0319821660648201525f908190819060840160408051601f19818403018152918152602080830180516001600160e01b031663b700961360e01b1781525f808052918290528351939450919290918a5afa15613ab8575f516020805191945081901c150291505b5094509492505050565b5f5160206141035f395f51905f52546002036110d457604051633ee5aeb560e01b815260040160405180910390fd5b6040516323b872dd60e01b5f8181526001600160a01b038781166004528616602452604485905291602083606481808c5af1925060015f51148316613b4d578383151615613b41573d5f823e3d81fd5b5f883b113d1516831692505b604052505f60605295945050505050565b5f81600101545f148015613b7457506002820154155b15613b8057505f919050565b60038201541580613b9357506004820154155b15613b9f57505f919050565b5f826004015442613bb09190614032565b9050805f03613bc157505f92915050565b5f83600201548460010154613bd69190613f99565b9050613be86127106301e13380613ffc565b82856003015483613bf99190613ffc565b613c039190613ffc565b61380d9190614013565b5f818310613c1b5781612da5565b5090919050565b5f54600160a81b900460ff166110d457604051638dfc202b60e01b815260040160405180910390fd5b60405163a9059cbb60e01b5f8181526001600160a01b038616600452602485905291602083604481808b5af1925060015f51148316613ca1578383151615613c95573d5f823e3d81fd5b5f873b113d1516831692505b60405250949350505050565b80356001600160a01b03811681146128b1575f5ffd5b5f5f60408385031215613cd4575f5ffd5b613cdd83613cad565b946020939093013593505050565b5f5f83601f840112613cfb575f5ffd5b50813567ffffffffffffffff811115613d12575f5ffd5b6020830191508360208260051b8501011115613d2c575f5ffd5b9250929050565b5f5f5f5f60408587031215613d46575f5ffd5b843567ffffffffffffffff811115613d5c575f5ffd5b613d6887828801613ceb565b909550935050602085013567ffffffffffffffff811115613d87575f5ffd5b613d9387828801613ceb565b95989497509550505050565b5f60208284031215613daf575f5ffd5b612da582613cad565b5f60208284031215613dc8575f5ffd5b5035919050565b5f5f5f60608486031215613de1575f5ffd5b613dea84613cad565b9250613df860208501613cad565b929592945050506040919091013590565b5f5f8284036080811215613e1b575f5ffd5b613e2484613cad565b92506060601f1982011215613e37575f5ffd5b506020830190509250929050565b81518152602080830151908201526040808301519082015260608083015115159082015260808101611a31565b8151815260208083015190820152604080830151908201526060808301519082015260808101611a31565b81518152602080830151908201526040808301519082015260608101611a31565b82518152602080840151818301526040808501518184015260609485015185840152835160808401529083015160a083015282015160c0820152910151151560e08201526101000190565b5f60208284031215613f19575f5ffd5b5051919050565b5f6060828403128015613f31575f5ffd5b506040516060810167ffffffffffffffff81118282101715613f6157634e487b7160e01b5f52604160045260245ffd5b60409081528351825260208085015190830152928301519281019290925250919050565b634e487b7160e01b5f52601160045260245ffd5b80820180821115611a3157611a31613f85565b634e487b7160e01b5f52603260045260245ffd5b828152604060208201525f82518060408401528060208501606085015e5f606082850101526060601f19601f8301168401019150509392505050565b8082028115828204841417611a3157611a31613f85565b5f8261402d57634e487b7160e01b5f52601260045260245ffd5b500490565b81810381811115611a3157611a31613f85565b5f5f85851115614053575f5ffd5b8386111561405f575f5ffd5b5050820193919092039150565b80356001600160e01b0319811690600484101561409d576001600160e01b0319600485900360031b81901b82161691505b5092915050565b6001600160a01b03841681526040602082018190528101829052818360608301375f818301606090810191909152601f909201601f1916010192915050565b5f602082840312156140f3575f5ffd5b81518015158114612da5575f5ffdfe9b779b17422d0df92223018b32b4d1fa46e071723d6817e2486d003becc55f00a2646970667358221220f47266d12332294a4e825bedfd178385e3e62a3824adbea95af37bbf1a37498f64736f6c634300081c0033","linkReferences":{}},"methodIdentifiers":{"_liquidateOneDelegated(address,address,uint256)":"3e95c060","authority()":"bf7e214f","availableToBorrow(address)":"2c38199e","batchLiquidate(address[],uint256[])":"1c1c4c44","borrow(uint256)":"c5ebeaec","borrowCap()":"44d9dca6","collateralAsset()":"aabaecd6","configEpoch()":"32322970","currentDebt(address)":"884719f2","currentQuoteContext()":"c0d3626d","currentQuoteInput(address)":"a2054b6c","currentRiskConfigHash()":"55b0fa02","debtAsset()":"a919802d","debtPool()":"1ffe1667","depositCollateral(uint256)":"bad4a01f","depositCollateralFor(address,uint256)":"1b0cef43","exportPositionForMigration(address)":"d90ebf53","freezeNewDebt()":"a83081f0","healthFactor(address)":"6ad9f9df","importMigratedPosition(address,(uint256,uint256,uint256))":"60453af3","isConsumingScheduledOp()":"8fb36037","liquidate(address,uint256)":"bcbaf487","liquidationBonusBps()":"19970d8e","liquidationNotifier()":"80c87324","maxConfiguredLiquidationThresholdBps()":"850eeda6","maxConfiguredLtvBps()":"af11014f","minBorrowAmount()":"0a5db8a8","newDebtFrozen()":"2f5a4863","oracle()":"7dc0d1d0","pause()":"8456cb59","paused()":"5c975abb","positions(address)":"55f57510","previewBorrow(address,uint256)":"931da152","projectedBorrowQuoteInput(address,uint256)":"bc1ffd97","publishCurrentQuoteTicket(address)":"912a70f2","publishProjectedBorrowQuoteTicket(address,uint256)":"07db3855","repay(uint256)":"371fd8e6","reserveFactorBps()":"c87bed70","riskEngine()":"92b888ae","setAuthority(address)":"7a9e5e4b","unpause()":"3f4ba83a","withdrawCollateral(uint256)":"6112fe2e"},"id":4}