{"abi":[{"type":"constructor","inputs":[{"name":"quoteAdapter_","type":"address","internalType":"contract IVmQuoteAdapterProbe"}],"stateMutability":"nonpayable"},{"type":"function","name":"lastBorrowRateBps","inputs":[],"outputs":[{"name":"","type":"uint256","internalType":"uint256"}],"stateMutability":"view"},{"type":"function","name":"lastLiquidationThresholdBps","inputs":[],"outputs":[{"name":"","type":"uint256","internalType":"uint256"}],"stateMutability":"view"},{"type":"function","name":"lastMaxLtvBps","inputs":[],"outputs":[{"name":"","type":"uint256","internalType":"uint256"}],"stateMutability":"view"},{"type":"function","name":"lastQuoteHash","inputs":[],"outputs":[{"name":"","type":"bytes32","internalType":"bytes32"}],"stateMutability":"view"},{"type":"function","name":"principalDebt","inputs":[],"outputs":[{"name":"","type":"uint256","internalType":"uint256"}],"stateMutability":"view"},{"type":"function","name":"quoteAdapter","inputs":[],"outputs":[{"name":"","type":"address","internalType":"contract IVmQuoteAdapterProbe"}],"stateMutability":"view"},{"type":"function","name":"settleBorrow","inputs":[{"name":"input","type":"tuple","internalType":"struct IRiskEngine.QuoteInput","components":[{"name":"utilizationBps","type":"uint256","internalType":"uint256"},{"name":"collateralRatioBps","type":"uint256","internalType":"uint256"},{"name":"oracleAgeSeconds","type":"uint256","internalType":"uint256"},{"name":"oracleFresh","type":"bool","internalType":"bool"},{"name":"policyMaxLtvBps","type":"uint256","internalType":"uint256"},{"name":"policyLiqThresholdBps","type":"uint256","internalType":"uint256"},{"name":"policyBorrowRateFloorBps","type":"uint256","internalType":"uint256"}]},{"name":"debtDelta","type":"uint256","internalType":"uint256"}],"outputs":[],"stateMutability":"nonpayable"},{"type":"function","name":"settleLiquidationCheck","inputs":[{"name":"input","type":"tuple","internalType":"struct IRiskEngine.QuoteInput","components":[{"name":"utilizationBps","type":"uint256","internalType":"uint256"},{"name":"collateralRatioBps","type":"uint256","internalType":"uint256"},{"name":"oracleAgeSeconds","type":"uint256","internalType":"uint256"},{"name":"oracleFresh","type":"bool","internalType":"bool"},{"name":"policyMaxLtvBps","type":"uint256","internalType":"uint256"},{"name":"policyLiqThresholdBps","type":"uint256","internalType":"uint256"},{"name":"policyBorrowRateFloorBps","type":"uint256","internalType":"uint256"}]}],"outputs":[],"stateMutability":"nonpayable"},{"type":"function","name":"settlementCount","inputs":[],"outputs":[{"name":"","type":"uint256","internalType":"uint256"}],"stateMutability":"view"},{"type":"event","name":"RoundTripSettled","inputs":[{"name":"action","type":"bytes32","indexed":true,"internalType":"bytes32"},{"name":"quoteHash","type":"bytes32","indexed":true,"internalType":"bytes32"},{"name":"pvmTargetId","type":"bytes32","indexed":true,"internalType":"bytes32"},{"name":"principalDebt","type":"uint256","indexed":false,"internalType":"uint256"},{"name":"debtDeltaApplied","type":"uint256","indexed":false,"internalType":"uint256"},{"name":"borrowRateBps","type":"uint256","indexed":false,"internalType":"uint256"},{"name":"maxLtvBps","type":"uint256","indexed":false,"internalType":"uint256"},{"name":"liquidationThresholdBps","type":"uint256","indexed":false,"internalType":"uint256"},{"name":"transportMode","type":"uint8","indexed":false,"internalType":"enum IVmQuoteAdapterProbe.TransportMode"}],"anonymous":false},{"type":"error","name":"InvalidQuoteAdapter","inputs":[]}],"bytecode":{"object":"0x60a03461008d57601f6107e638819003918201601f19168301916001600160401b038311848410176100915780849260209460405283398101031261008d57516001600160a01b03811680820361008d571561007e5760805260405161074090816100a68239608051818181610103015281816103ba01526105d60152f35b635b1d6b3360e11b5f5260045ffd5b5f80fd5b634e487b7160e01b5f52604160045260245ffdfe6080806040526004361015610012575f80fd5b5f3560e01c90816301a0a20f1461062257508063037eca7614610605578063255740ce146105c1578063255b2c0c1461039a5780637a8d130f1461037e57806394db54e1146100da578063a5cfdd0e146100bd578063a9f65011146100a05763ee580abf1461007f575f80fd5b3461009c575f36600319011261009c576020600354604051908152f35b5f80fd5b3461009c575f36600319011261009c576020600454604051908152f35b3461009c575f36600319011261009c576020600254604051908152f35b3461009c573660031901610100811261009c5760e01361009c57604051638ee997d760e01b81527f00000000000000000000000000000000000000000000000000000000000000006001600160a01b031660e4356060838061013e600482016106b6565b03815f865af19283156102f7575f9361034d575b50825190818102918183041481151715610339576127106101749204906106fd565b91610180835f546106fd565b5f55805190816001556020810192835192836002556040830193845180600355604051916020830193845260408301526060820152606081526101c460808261063c565b51902092836004556005546001810180911161033957600555604051632a0abe0160e01b815294602086600481865afa9586156102f7575f96610302575b50600494959660205f54955192519351946040519788809263d65fb48f60e01b82525afa9586156102f7575f966102ba575b50604051948552602085015260408401526060830152608082015260048210156102a65760c0817fa397fc7accc45bf7fead271776fb34ca4f7c16b2255cafdc82fbe97199ee6ea89360a07f6a01d3afb5756bb7ec86fc0a2151349a14953552dd10525dcad9203dbdc6808e940152a4005b634e487b7160e01b5f52602160045260245ffd5b9095506020813d6020116102ef575b816102d66020938361063c565b8101031261009c5751600481101561009c579488610234565b3d91506102c9565b6040513d5f823e3d90fd5b9495506020853d602011610331575b8161031e6020938361063c565b8101031261009c57600494519594610202565b3d9150610311565b634e487b7160e01b5f52601160045260245ffd5b61037091935060603d606011610377575b610368818361063c565b810190610672565b9183610152565b503d61035e565b3461009c575f36600319011261009c5760205f54604051908152f35b3461009c5760e036600319011261009c57604051638ee997d760e01b81527f00000000000000000000000000000000000000000000000000000000000000006001600160a01b0316606082806103f2600482016106b6565b03815f855af19182156102f7575f926105a0575b508151908160015560208301928351928360025560408201938451806003556040519160208301938452604083015260608201526060815261044960808261063c565b51902091826004556005546001810180911161033957600555604051632a0abe0160e01b815293602085600481855afa9485156102f7575f95610569575b50600493949560205f54945191519251936040519687809263d65fb48f60e01b82525afa9485156102f7575f9561052c575b506040519384525f602085015260408401526060830152608082015260048210156102a65760c0817fc3b8ae345df600e32aa1539b8fb46be6d99c252e9649250b7a639e8e01db5a0b9360a07f6a01d3afb5756bb7ec86fc0a2151349a14953552dd10525dcad9203dbdc6808e940152a4005b9094506020813d602011610561575b816105486020938361063c565b8101031261009c5751600481101561009c5793876104b9565b3d915061053b565b9394506020843d602011610598575b816105856020938361063c565b8101031261009c57600493519493610487565b3d9150610578565b6105ba91925060603d60601161037757610368818361063c565b9082610406565b3461009c575f36600319011261009c576040517f00000000000000000000000000000000000000000000000000000000000000006001600160a01b03168152602090f35b3461009c575f36600319011261009c576020600554604051908152f35b3461009c575f36600319011261009c576020906001548152f35b90601f8019910116810190811067ffffffffffffffff82111761065e57604052565b634e487b7160e01b5f52604160045260245ffd5b9081606091031261009c5760405190606082019082821067ffffffffffffffff83111761065e57604091825280518352602081015160208401520151604082015290565b9060e082019160043581526024356020820152604435604082015260643580151580910361009c576060820152608435608082015260a43560a082015260c060c435910152565b919082018092116103395756fea2646970667358221220b8f8a2ebd99f76d08959ace8be8aaadf55a20bd1e876d2140a2b7fbe392e9cd964736f6c634300081c0033","linkReferences":{}},"methodIdentifiers":{"lastBorrowRateBps()":"01a0a20f","lastLiquidationThresholdBps()":"ee580abf","lastMaxLtvBps()":"a5cfdd0e","lastQuoteHash()":"a9f65011","principalDebt()":"7a8d130f","quoteAdapter()":"255740ce","settleBorrow((uint256,uint256,uint256,bool,uint256,uint256,uint256),uint256)":"94db54e1","settleLiquidationCheck((uint256,uint256,uint256,bool,uint256,uint256,uint256))":"255b2c0c","settlementCount()":"037eca76"},"id":27}