{"abi":[{"type":"constructor","inputs":[{"name":"pvmTarget_","type":"address","internalType":"address"},{"name":"pvmTargetId_","type":"bytes32","internalType":"bytes32"},{"name":"transportMode_","type":"uint8","internalType":"enum IVmQuoteAdapterProbe.TransportMode"}],"stateMutability":"nonpayable"},{"type":"function","name":"callCount","inputs":[],"outputs":[{"name":"","type":"uint256","internalType":"uint256"}],"stateMutability":"view"},{"type":"function","name":"lastBorrowRateBps","inputs":[],"outputs":[{"name":"","type":"uint256","internalType":"uint256"}],"stateMutability":"view"},{"type":"function","name":"lastEchoInput","inputs":[],"outputs":[{"name":"","type":"bytes32","internalType":"bytes32"}],"stateMutability":"view"},{"type":"function","name":"lastEchoOutput","inputs":[],"outputs":[{"name":"","type":"bytes32","internalType":"bytes32"}],"stateMutability":"view"},{"type":"function","name":"lastInputHash","inputs":[],"outputs":[{"name":"","type":"bytes32","internalType":"bytes32"}],"stateMutability":"view"},{"type":"function","name":"lastLiquidationThresholdBps","inputs":[],"outputs":[{"name":"","type":"uint256","internalType":"uint256"}],"stateMutability":"view"},{"type":"function","name":"lastMaxLtvBps","inputs":[],"outputs":[{"name":"","type":"uint256","internalType":"uint256"}],"stateMutability":"view"},{"type":"function","name":"lastResultHash","inputs":[],"outputs":[{"name":"","type":"bytes32","internalType":"bytes32"}],"stateMutability":"view"},{"type":"function","name":"pvmTarget","inputs":[],"outputs":[{"name":"","type":"address","internalType":"address"}],"stateMutability":"view"},{"type":"function","name":"pvmTargetId","inputs":[],"outputs":[{"name":"","type":"bytes32","internalType":"bytes32"}],"stateMutability":"view"},{"type":"function","name":"quoteViaPvm","inputs":[{"name":"input","type":"tuple","internalType":"struct IRiskEngine.QuoteInput","components":[{"name":"utilizationBps","type":"uint256","internalType":"uint256"},{"name":"collateralRatioBps","type":"uint256","internalType":"uint256"},{"name":"oracleAgeSeconds","type":"uint256","internalType":"uint256"},{"name":"oracleFresh","type":"bool","internalType":"bool"},{"name":"policyMaxLtvBps","type":"uint256","internalType":"uint256"},{"name":"policyLiqThresholdBps","type":"uint256","internalType":"uint256"},{"name":"policyBorrowRateFloorBps","type":"uint256","internalType":"uint256"}]}],"outputs":[{"name":"","type":"tuple","internalType":"struct IRiskEngine.QuoteOutput","components":[{"name":"borrowRateBps","type":"uint256","internalType":"uint256"},{"name":"maxLtvBps","type":"uint256","internalType":"uint256"},{"name":"liquidationThresholdBps","type":"uint256","internalType":"uint256"}]}],"stateMutability":"nonpayable"},{"type":"function","name":"runEcho","inputs":[{"name":"x","type":"bytes32","internalType":"bytes32"}],"outputs":[{"name":"output","type":"bytes32","internalType":"bytes32"}],"stateMutability":"nonpayable"},{"type":"function","name":"runQuote","inputs":[{"name":"input","type":"tuple","internalType":"struct IRiskEngine.QuoteInput","components":[{"name":"utilizationBps","type":"uint256","internalType":"uint256"},{"name":"collateralRatioBps","type":"uint256","internalType":"uint256"},{"name":"oracleAgeSeconds","type":"uint256","internalType":"uint256"},{"name":"oracleFresh","type":"bool","internalType":"bool"},{"name":"policyMaxLtvBps","type":"uint256","internalType":"uint256"},{"name":"policyLiqThresholdBps","type":"uint256","internalType":"uint256"},{"name":"policyBorrowRateFloorBps","type":"uint256","internalType":"uint256"}]}],"outputs":[{"name":"resultHash","type":"bytes32","internalType":"bytes32"}],"stateMutability":"nonpayable"},{"type":"function","name":"transportMode","inputs":[],"outputs":[{"name":"","type":"uint8","internalType":"enum IVmQuoteAdapterProbe.TransportMode"}],"stateMutability":"view"},{"type":"event","name":"ProbeEchoed","inputs":[{"name":"inputValue","type":"bytes32","indexed":true,"internalType":"bytes32"},{"name":"outputValue","type":"bytes32","indexed":true,"internalType":"bytes32"},{"name":"pvmTargetId","type":"bytes32","indexed":true,"internalType":"bytes32"},{"name":"transportMode","type":"uint8","indexed":false,"internalType":"enum IVmQuoteAdapterProbe.TransportMode"}],"anonymous":false},{"type":"event","name":"ProbeQuoted","inputs":[{"name":"inputHash","type":"bytes32","indexed":true,"internalType":"bytes32"},{"name":"resultHash","type":"bytes32","indexed":true,"internalType":"bytes32"},{"name":"pvmTargetId","type":"bytes32","indexed":true,"internalType":"bytes32"},{"name":"borrowRateBps","type":"uint256","indexed":false,"internalType":"uint256"},{"name":"maxLtvBps","type":"uint256","indexed":false,"internalType":"uint256"},{"name":"liquidationThresholdBps","type":"uint256","indexed":false,"internalType":"uint256"},{"name":"callCount","type":"uint256","indexed":false,"internalType":"uint256"},{"name":"transportMode","type":"uint8","indexed":false,"internalType":"enum IVmQuoteAdapterProbe.TransportMode"}],"anonymous":false},{"type":"error","name":"InvalidProbeTarget","inputs":[]}],"bytecode":{"object":"0x60e060405234801561000f575f5ffd5b506040516108e73803806108e783398101604081905261002e916100b6565b6001600160a01b038316158061005457505f81600381111561005257610052610104565b145b156100725760405163064ef9b360e31b815260040160405180910390fd5b6001600160a01b03831660805260c082905280600381111561009657610096610104565b60a08160038111156100aa576100aa610104565b81525050505050610118565b5f5f5f606084860312156100c8575f5ffd5b83516001600160a01b03811681146100de575f5ffd5b602085015160408601519194509250600481106100f9575f5ffd5b809150509250925092565b634e487b7160e01b5f52602160045260245ffd5b60805160a05160c05161077b61016c5f395f818161011001528181610297015261046701525f81816101fc015281816102e501526104ab01525f81816101a40152818161035001526103e3015261077b5ff3fe608060405234801561000f575f5ffd5b50600436106100e5575f3560e01c80638ee997d711610088578063b04f82b511610063578063b04f82b5146101de578063c3831831146101e7578063d65fb48f146101fa578063ee580abf14610228575f5ffd5b80638ee997d714610161578063a5cfdd0e14610196578063ac68f9f61461019f575f5ffd5b80634041c9ea116100c35780634041c9ea14610134578063468da0021461013d5780634b28f9a2146101505780635dcefbc714610158575f5ffd5b806301a0a20f146100e957806304666158146101055780632a0abe011461010e575b5f5ffd5b6100f260055481565b6040519081526020015b60405180910390f35b6100f260035481565b7f00000000000000000000000000000000000000000000000000000000000000006100f2565b6100f260025481565b6100f261014b366004610591565b610231565b6100f25f5481565b6100f260045481565b61017461016f366004610591565b610318565b60408051825181526020808401519082015291810151908201526060016100fc565b6100f260065481565b6101c67f000000000000000000000000000000000000000000000000000000000000000081565b6040516001600160a01b0390911681526020016100fc565b6100f260015481565b6100f26101f53660046105aa565b6103cb565b7f00000000000000000000000000000000000000000000000000000000000000006040516100fc91906105e1565b6100f260075481565b5f5f61023c83610318565b905060015f5f82825461024f91906105ef565b9091555061025e9050836104e4565b60035561026a81610565565b6004819055815160058190556020830151600681905560408085015160078190556003545f5492519597507f000000000000000000000000000000000000000000000000000000000000000095889591947f4482137a60982757b46c18fa90f3bdd17a83aa46c9d71a08ecf38c44f2069e889461030a9491927f00000000000000000000000000000000000000000000000000000000000000009061060e565b60405180910390a450919050565b61033960405180606001604052805f81526020015f81526020015f81525090565b6040516374ebd8cd60e11b81526001600160a01b037f0000000000000000000000000000000000000000000000000000000000000000169063e9d7b19a90610385908590600401610655565b6060604051808303815f875af11580156103a1573d5f5f3e3d5ffd5b505050506040513d601f19601f820116820180604052508101906103c591906106a9565b92915050565b60405163b5531d2160e01b8152600481018290525f907f00000000000000000000000000000000000000000000000000000000000000006001600160a01b03169063b5531d21906024016020604051808303815f875af1158015610431573d5f5f3e3d5ffd5b505050506040513d601f19601f82011682018060405250810190610455919061070e565b905081600181905550806002819055507f000000000000000000000000000000000000000000000000000000000000000081837f97ef50899ff03d15b9d2c02a4cdf97eeef3f33e03e9080002d9cf9529186a2c97f00000000000000000000000000000000000000000000000000000000000000006040516104d791906105e1565b60405180910390a4919050565b5f8135602083013560408401356105016080860160608701610725565b6040805160208101959095528401929092526060830152151560808281019190915283013560a08281019190915283013560c08281019190915283013560e0820152610100015b604051602081830303815290604052805190602001209050919050565b805160208083015160408085015181519384019490945282015260608101919091525f90608001610548565b5f60e08284031280156105a2575f5ffd5b509092915050565b5f602082840312156105ba575f5ffd5b5035919050565b600481106105dd57634e487b7160e01b5f52602160045260245ffd5b9052565b602081016103c582846105c1565b808201808211156103c557634e487b7160e01b5f52601160045260245ffd5b5f60a08201905086825285602083015284604083015283606083015261063760808301846105c1565b9695505050505050565b80358015158114610650575f5ffd5b919050565b81358152602080830135908201526040808301359082015260e0810161067d60608401610641565b151560608301526080838101359083015260a0808401359083015260c092830135929091019190915290565b5f60608284031280156106ba575f5ffd5b506040516060810167ffffffffffffffff811182821017156106ea57634e487b7160e01b5f52604160045260245ffd5b60409081528351825260208085015190830152928301519281019290925250919050565b5f6020828403121561071e575f5ffd5b5051919050565b5f60208284031215610735575f5ffd5b61073e82610641565b939250505056fea264697066735822122006c5da94d595eb0a165cae075a981d3d3cbd8e0e58309e3d6c3a4171f49cf6c364736f6c634300081c0033","linkReferences":{}},"methodIdentifiers":{"callCount()":"4b28f9a2","lastBorrowRateBps()":"01a0a20f","lastEchoInput()":"b04f82b5","lastEchoOutput()":"4041c9ea","lastInputHash()":"04666158","lastLiquidationThresholdBps()":"ee580abf","lastMaxLtvBps()":"a5cfdd0e","lastResultHash()":"5dcefbc7","pvmTarget()":"ac68f9f6","pvmTargetId()":"2a0abe01","quoteViaPvm((uint256,uint256,uint256,bool,uint256,uint256,uint256))":"8ee997d7","runEcho(bytes32)":"c3831831","runQuote((uint256,uint256,uint256,bool,uint256,uint256,uint256))":"468da002","transportMode()":"d65fb48f"},"id":26}