{"abi":[{"type":"receive","stateMutability":"payable"},{"type":"function","name":"executeLocalNotification","inputs":[{"name":"correlationId","type":"bytes32","internalType":"bytes32"}],"outputs":[],"stateMutability":"nonpayable"},{"type":"function","name":"notifyLiquidation","inputs":[{"name":"destination","type":"bytes","internalType":"bytes"},{"name":"borrower","type":"address","internalType":"address"},{"name":"debtRepaid","type":"uint256","internalType":"uint256"},{"name":"collateralSeized","type":"uint256","internalType":"uint256"},{"name":"correlationId","type":"bytes32","internalType":"bytes32"}],"outputs":[],"stateMutability":"nonpayable"},{"type":"event","name":"LiquidationNotified","inputs":[{"name":"borrower","type":"address","indexed":true,"internalType":"address"},{"name":"debtRepaid","type":"uint256","indexed":false,"internalType":"uint256"},{"name":"collateralSeized","type":"uint256","indexed":false,"internalType":"uint256"},{"name":"correlationId","type":"bytes32","indexed":true,"internalType":"bytes32"}],"anonymous":false},{"type":"event","name":"LocalXcmExecuted","inputs":[{"name":"correlationId","type":"bytes32","indexed":true,"internalType":"bytes32"},{"name":"refTime","type":"uint64","indexed":false,"internalType":"uint64"},{"name":"proofSize","type":"uint64","indexed":false,"internalType":"uint64"}],"anonymous":false},{"type":"error","name":"EmptyDestination","inputs":[]},{"type":"error","name":"ZeroBorrower","inputs":[]}],"bytecode":{"object":"0x6080604052348015600e575f5ffd5b506105718061001c5f395ff3fe60806040526004361061002b575f3560e01c80634f7132f214610036578063fe84334b14610057575f5ffd5b3661003257005b5f5ffd5b348015610041575f5ffd5b5061005561005036600461030e565b610076565b005b348015610062575f5ffd5b506100556100713660046103a5565b61019e565b5f85900361009757604051631e86f26160e21b815260040160405180910390fd5b6001600160a01b0384166100bd576040516236bf8960e91b815260040160405180910390fd5b6040515f906100e890600560f81b90600160fb1b90600560f91b90600b60fa1b9087906020016103bc565b60408051601f1981840301815290829052637f0a3bf960e01b82529150620a000090637f0a3bf990610122908a908a90869060040161041e565b5f604051808303815f87803b158015610139575f5ffd5b505af115801561014b573d5f5f3e3d5ffd5b505060408051878152602081018790528593506001600160a01b03891692507ff7029680d0e9f9047b71e23b97c7f229853c08eaebb6a76666ef1c44ac506551910160405180910390a350505050505050565b6040515f906101c990600560f81b90600160fb1b90600560f91b90600b60fa1b9087906020016103bc565b60408051601f19818403018152908290526347400c2360e01b825291505f90620a0000906347400c2390610201908590600401610464565b6040805180830381865afa15801561021b573d5f5f3e3d5ffd5b505050506040513d601f19601f8201168201806040525081019061023f9190610494565b60405163d3b7e04d60e01b8152909150620a00009063d3b7e04d9061026a90859085906004016104fb565b5f604051808303815f87803b158015610281575f5ffd5b505af1158015610293573d5f5f3e3d5ffd5b50505050827feb1c966fab1a9ba2645d3fc5da512c503eb822c2636eadf9625f786e97c8d75f825f015183602001516040516102e692919067ffffffffffffffff92831681529116602082015260400190565b60405180910390a2505050565b80356001600160a01b0381168114610309575f5ffd5b919050565b5f5f5f5f5f5f60a08789031215610323575f5ffd5b863567ffffffffffffffff811115610339575f5ffd5b8701601f81018913610349575f5ffd5b803567ffffffffffffffff81111561035f575f5ffd5b896020828401011115610370575f5ffd5b6020918201975095506103849088016102f3565b95989497509495604081013595506060810135946080909101359350915050565b5f602082840312156103b5575f5ffd5b5035919050565b6001600160f81b03199586168152938516600185015291841660028401529092166003820152600481019190915260240190565b5f81518084528060208401602086015e5f602082860101526020601f19601f83011685010191505092915050565b60408152826040820152828460608301375f606084830101525f601f19601f8501168201606083820301602084015261045a60608201856103f0565b9695505050505050565b602081525f61047660208301846103f0565b9392505050565b805167ffffffffffffffff81168114610309575f5ffd5b5f60408284031280156104a5575f5ffd5b506040805190810167ffffffffffffffff811182821017156104d557634e487b7160e01b5f52604160045260245ffd5b6040526104e18361047d565b81526104ef6020840161047d565b60208201529392505050565b606081525f61050d60608301856103f0565b905067ffffffffffffffff835116602083015267ffffffffffffffff6020840151166040830152939250505056fea26469706673582212203cedd9ff2d58b1eeded7f6450a6ce9cad6cfaecf11f85eeae696525f67bd351b64736f6c634300081c0033","linkReferences":{}},"methodIdentifiers":{"executeLocalNotification(bytes32)":"fe84334b","notifyLiquidation(bytes,address,uint256,uint256,bytes32)":"4f7132f2"},"id":23}