{"abi":[{"type":"receive","stateMutability":"payable"},{"type":"function","name":"executeLocalNotification","inputs":[{"name":"correlationId","type":"bytes32","internalType":"bytes32"}],"outputs":[],"stateMutability":"nonpayable"},{"type":"function","name":"notifyLiquidation","inputs":[{"name":"destination","type":"bytes","internalType":"bytes"},{"name":"borrower","type":"address","internalType":"address"},{"name":"debtRepaid","type":"uint256","internalType":"uint256"},{"name":"collateralSeized","type":"uint256","internalType":"uint256"},{"name":"correlationId","type":"bytes32","internalType":"bytes32"}],"outputs":[],"stateMutability":"nonpayable"},{"type":"event","name":"LiquidationNotified","inputs":[{"name":"borrower","type":"address","indexed":true,"internalType":"address"},{"name":"debtRepaid","type":"uint256","indexed":false,"internalType":"uint256"},{"name":"collateralSeized","type":"uint256","indexed":false,"internalType":"uint256"},{"name":"correlationId","type":"bytes32","indexed":true,"internalType":"bytes32"}],"anonymous":false},{"type":"event","name":"LocalXcmExecuted","inputs":[{"name":"correlationId","type":"bytes32","indexed":true,"internalType":"bytes32"},{"name":"refTime","type":"uint64","indexed":false,"internalType":"uint64"},{"name":"proofSize","type":"uint64","indexed":false,"internalType":"uint64"}],"anonymous":false},{"type":"error","name":"EmptyDestination","inputs":[]},{"type":"error","name":"ZeroBorrower","inputs":[]}],"bytecode":{"object":"0x60808060405234601557610478908161001a8239f35b5f80fdfe608080604052600436101561001c575b50361561001a575f80fd5b005b5f905f3560e01c9081634f7132f214610236575063fe84334b0361000f573461023357602036600319011261023357604051600560f81b6020820152600160fb1b6021820152600560f91b6022820152600b60fa1b6023820152600435602482018190529061009881604481015b03601f1981018352826103d3565b604080516347400c2360e01b8152602060048201529081806100bd6024820186610409565b0381620a00005afa9081156102285784916101a8575b50620a00003b1561019957836101016040519363d3b7e04d60e01b8552606060048601526064850190610409565b9267ffffffffffffffff8351166024820152818180602086019667ffffffffffffffff8851166044830152038183620a00005af1801561019d57610184575b50507feb1c966fab1a9ba2645d3fc5da512c503eb822c2636eadf9625f786e97c8d75f9167ffffffffffffffff80604093511691511682519182526020820152a280f35b8161018e916103d3565b61019957835f610140565b8380fd5b6040513d84823e3d90fd5b90506040813d604011610220575b816101c3604093836103d3565b8101031261019957604051906040820182811067ffffffffffffffff82111761020c57610201916020916040526101f98161042d565b84520161042d565b60208201525f6100d3565b634e487b7160e01b86526041600452602486fd5b3d91506101b6565b6040513d86823e3d90fd5b80fd5b9050346103b25760a03660031901126103b25760043567ffffffffffffffff81116103b257366023820112156103b257806004013567ffffffffffffffff81116103b25736602482840101116103b2576024356001600160a01b03811692908390036103b2576084359382156103c45783156103b657600560f81b6020820152600160fb1b6021820152600560f91b6022820152600b60fa1b6023820152602481018590526102e8816044810161008a565b620a00003b156103b2575f916103476024926064866040519788968796637f0a3bf960e01b88526040600489015282604489015201838701378481018201879052601f01601f1916840184810382016003190160248601520190610409565b038183620a00005af180156103a757610392575b507ff7029680d0e9f9047b71e23b97c7f229853c08eaebb6a76666ef1c44ac5065516040805160443581526064356020820152a380f35b61039f9193505f906103d3565b5f915f61035b565b6040513d5f823e3d90fd5b5f80fd5b6236bf8960e91b5f5260045ffd5b631e86f26160e21b5f5260045ffd5b90601f8019910116810190811067ffffffffffffffff8211176103f557604052565b634e487b7160e01b5f52604160045260245ffd5b805180835260209291819084018484015e5f828201840152601f01601f1916010190565b519067ffffffffffffffff821682036103b25756fea2646970667358221220c6be17b8fdd6a35217f61c9b2428b04f9015f85d430266fe6247c818ab35cb2464736f6c634300081c0033","linkReferences":{}},"methodIdentifiers":{"executeLocalNotification(bytes32)":"fe84334b","notifyLiquidation(bytes,address,uint256,uint256,bytes32)":"4f7132f2"},"id":16}