{"abi":[{"type":"constructor","inputs":[{"name":"pvmTarget_","type":"address","internalType":"address"},{"name":"pvmTargetId_","type":"bytes32","internalType":"bytes32"},{"name":"transportMode_","type":"uint8","internalType":"enum IVmQuoteAdapterProbe.TransportMode"}],"stateMutability":"nonpayable"},{"type":"function","name":"callCount","inputs":[],"outputs":[{"name":"","type":"uint256","internalType":"uint256"}],"stateMutability":"view"},{"type":"function","name":"lastBorrowRateBps","inputs":[],"outputs":[{"name":"","type":"uint256","internalType":"uint256"}],"stateMutability":"view"},{"type":"function","name":"lastEchoInput","inputs":[],"outputs":[{"name":"","type":"bytes32","internalType":"bytes32"}],"stateMutability":"view"},{"type":"function","name":"lastEchoOutput","inputs":[],"outputs":[{"name":"","type":"bytes32","internalType":"bytes32"}],"stateMutability":"view"},{"type":"function","name":"lastInputHash","inputs":[],"outputs":[{"name":"","type":"bytes32","internalType":"bytes32"}],"stateMutability":"view"},{"type":"function","name":"lastLiquidationThresholdBps","inputs":[],"outputs":[{"name":"","type":"uint256","internalType":"uint256"}],"stateMutability":"view"},{"type":"function","name":"lastMaxLtvBps","inputs":[],"outputs":[{"name":"","type":"uint256","internalType":"uint256"}],"stateMutability":"view"},{"type":"function","name":"lastResultHash","inputs":[],"outputs":[{"name":"","type":"bytes32","internalType":"bytes32"}],"stateMutability":"view"},{"type":"function","name":"pvmTarget","inputs":[],"outputs":[{"name":"","type":"address","internalType":"address"}],"stateMutability":"view"},{"type":"function","name":"pvmTargetId","inputs":[],"outputs":[{"name":"","type":"bytes32","internalType":"bytes32"}],"stateMutability":"view"},{"type":"function","name":"quoteViaPvm","inputs":[{"name":"input","type":"tuple","internalType":"struct IRiskEngine.QuoteInput","components":[{"name":"utilizationBps","type":"uint256","internalType":"uint256"},{"name":"collateralRatioBps","type":"uint256","internalType":"uint256"},{"name":"oracleAgeSeconds","type":"uint256","internalType":"uint256"},{"name":"oracleFresh","type":"bool","internalType":"bool"},{"name":"policyMaxLtvBps","type":"uint256","internalType":"uint256"},{"name":"policyLiqThresholdBps","type":"uint256","internalType":"uint256"},{"name":"policyBorrowRateFloorBps","type":"uint256","internalType":"uint256"}]}],"outputs":[{"name":"","type":"tuple","internalType":"struct IRiskEngine.QuoteOutput","components":[{"name":"borrowRateBps","type":"uint256","internalType":"uint256"},{"name":"maxLtvBps","type":"uint256","internalType":"uint256"},{"name":"liquidationThresholdBps","type":"uint256","internalType":"uint256"}]}],"stateMutability":"nonpayable"},{"type":"function","name":"runEcho","inputs":[{"name":"x","type":"bytes32","internalType":"bytes32"}],"outputs":[{"name":"output","type":"bytes32","internalType":"bytes32"}],"stateMutability":"nonpayable"},{"type":"function","name":"runQuote","inputs":[{"name":"input","type":"tuple","internalType":"struct IRiskEngine.QuoteInput","components":[{"name":"utilizationBps","type":"uint256","internalType":"uint256"},{"name":"collateralRatioBps","type":"uint256","internalType":"uint256"},{"name":"oracleAgeSeconds","type":"uint256","internalType":"uint256"},{"name":"oracleFresh","type":"bool","internalType":"bool"},{"name":"policyMaxLtvBps","type":"uint256","internalType":"uint256"},{"name":"policyLiqThresholdBps","type":"uint256","internalType":"uint256"},{"name":"policyBorrowRateFloorBps","type":"uint256","internalType":"uint256"}]}],"outputs":[{"name":"resultHash","type":"bytes32","internalType":"bytes32"}],"stateMutability":"nonpayable"},{"type":"function","name":"transportMode","inputs":[],"outputs":[{"name":"","type":"uint8","internalType":"enum IVmQuoteAdapterProbe.TransportMode"}],"stateMutability":"view"},{"type":"event","name":"ProbeEchoed","inputs":[{"name":"inputValue","type":"bytes32","indexed":true,"internalType":"bytes32"},{"name":"outputValue","type":"bytes32","indexed":true,"internalType":"bytes32"},{"name":"pvmTargetId","type":"bytes32","indexed":true,"internalType":"bytes32"},{"name":"transportMode","type":"uint8","indexed":false,"internalType":"enum IVmQuoteAdapterProbe.TransportMode"}],"anonymous":false},{"type":"event","name":"ProbeQuoted","inputs":[{"name":"inputHash","type":"bytes32","indexed":true,"internalType":"bytes32"},{"name":"resultHash","type":"bytes32","indexed":true,"internalType":"bytes32"},{"name":"pvmTargetId","type":"bytes32","indexed":true,"internalType":"bytes32"},{"name":"borrowRateBps","type":"uint256","indexed":false,"internalType":"uint256"},{"name":"maxLtvBps","type":"uint256","indexed":false,"internalType":"uint256"},{"name":"liquidationThresholdBps","type":"uint256","indexed":false,"internalType":"uint256"},{"name":"callCount","type":"uint256","indexed":false,"internalType":"uint256"},{"name":"transportMode","type":"uint8","indexed":false,"internalType":"enum IVmQuoteAdapterProbe.TransportMode"}],"anonymous":false},{"type":"error","name":"InvalidProbeTarget","inputs":[]}],"bytecode":{"object":"0x60e0346100e657601f6107e938819003918201601f19168301916001600160401b038311848410176100ea578084926060946040528339810103126100e65780516001600160a01b03811691908281036100e657604060208301519201519260048410156100e6571580156100de575b6100cf5760805260c05260a0526040516106ea90816100ff82396080518181816101490152818161027b0152610628015260a05181818160f2015281816101980152610430015260c0518181816101e00152818161047901526104ea0152f35b63064ef9b360e31b5f5260045ffd5b50821561006f565b5f80fd5b634e487b7160e01b5f52604160045260245ffdfe6080806040526004361015610012575f80fd5b5f3560e01c90816301a0a20f1461052a57508063046661581461050d5780632a0abe01146104d35780634041c9ea146104b6578063468da002146103375780634b28f9a21461031b5780635dcefbc7146102fe5780638ee997d7146102c7578063a5cfdd0e146102aa578063ac68f9f614610266578063b04f82b514610249578063c383183114610118578063d65fb48f146100d75763ee580abf146100b6575f80fd5b346100d3575f3660031901126100d3576020600754604051908152f35b5f80fd5b346100d3575f3660031901126100d3576020604051610116817f0000000000000000000000000000000000000000000000000000000000000000610544565bf35b346100d35760203660031901126100d35760405163b5531d2160e01b8152600480359082018190526020826024815f7f00000000000000000000000000000000000000000000000000000000000000006001600160a01b03165af190811561023e575f91610209575b60209250806001558160025581604051916101bc837f0000000000000000000000000000000000000000000000000000000000000000610544565b7f97ef50899ff03d15b9d2c02a4cdf97eeef3f33e03e9080002d9cf9529186a2c9857f000000000000000000000000000000000000000000000000000000000000000094a4604051908152f35b90506020823d602011610236575b8161022460209383610595565b810103126100d3576020915190610181565b3d9150610217565b6040513d5f823e3d90fd5b346100d3575f3660031901126100d3576020600154604051908152f35b346100d3575f3660031901126100d3576040517f00000000000000000000000000000000000000000000000000000000000000006001600160a01b03168152602090f35b346100d3575f3660031901126100d3576020600654604051908152f35b346100d35760e03660031901126100d35760606102e26105b7565b6040805191805183526020810151602084015201516040820152f35b346100d3575f3660031901126100d3576020600454604051908152f35b346100d3575f3660031901126100d35760205f54604051908152f35b346100d35760e03660031901126100d3576103506105b7565b5f5490600182018092116104a257815f55606435918215158093036100d35760209260405184810191600435835260243560408301526044356060830152608082015260843560a082015260a43560c082015260c43560e082015260e081526103bb61010082610595565b519020918260035580519284820192835194604084019586516040519189830193845260408301526060820152606081526103f7608082610595565b519020948593846004555194856005555190816006555190816007556040519586528786015260408501526060840152610454608084017f0000000000000000000000000000000000000000000000000000000000000000610544565b7f4482137a60982757b46c18fa90f3bdd17a83aa46c9d71a08ecf38c44f2069e8860a07f000000000000000000000000000000000000000000000000000000000000000094a4604051908152f35b634e487b7160e01b5f52601160045260245ffd5b346100d3575f3660031901126100d3576020600254604051908152f35b346100d3575f3660031901126100d35760206040517f00000000000000000000000000000000000000000000000000000000000000008152f35b346100d3575f3660031901126100d3576020600354604051908152f35b346100d3575f3660031901126100d3576020906005548152f35b9060048210156105515752565b634e487b7160e01b5f52602160045260245ffd5b6060810190811067ffffffffffffffff82111761058157604052565b634e487b7160e01b5f52604160045260245ffd5b90601f8019910116810190811067ffffffffffffffff82111761058157604052565b5f604080516105c581610565565b82815282602082015201526040516374ebd8cd60e11b81526004356004820152602435602482015260443560448201526064358015158091036100d3576064820152608480359082015260a480359082015260c480359082015260608160e4815f7f00000000000000000000000000000000000000000000000000000000000000006001600160a01b03165af190811561023e575f91610663575090565b90506060813d6060116106ac575b8161067e60609383610595565b810103126100d357604080519161069483610565565b80518352602081015160208401520151604082015290565b3d915061067156fea26469706673582212204370a47c85684a1b1fecd33aa5196bf4ee0367b2f24e9a8fc6698444ea2b71cb64736f6c634300081c0033","linkReferences":{}},"methodIdentifiers":{"callCount()":"4b28f9a2","lastBorrowRateBps()":"01a0a20f","lastEchoInput()":"b04f82b5","lastEchoOutput()":"4041c9ea","lastInputHash()":"04666158","lastLiquidationThresholdBps()":"ee580abf","lastMaxLtvBps()":"a5cfdd0e","lastResultHash()":"5dcefbc7","pvmTarget()":"ac68f9f6","pvmTargetId()":"2a0abe01","quoteViaPvm((uint256,uint256,uint256,bool,uint256,uint256,uint256))":"8ee997d7","runEcho(bytes32)":"c3831831","runQuote((uint256,uint256,uint256,bool,uint256,uint256,uint256))":"468da002","transportMode()":"d65fb48f"},"id":26}