{"abi":[{"type":"receive","stateMutability":"payable"},{"type":"function","name":"XCM","inputs":[],"outputs":[{"name":"","type":"address","internalType":"contract IXcm"}],"stateMutability":"view"},{"type":"function","name":"estimateCrossChainQuoteCost","inputs":[{"name":"xcmMessage","type":"bytes","internalType":"bytes"}],"outputs":[{"name":"refTime","type":"uint64","internalType":"uint64"},{"name":"proofSize","type":"uint64","internalType":"uint64"}],"stateMutability":"view"},{"type":"function","name":"executeLocalXcm","inputs":[{"name":"message","type":"bytes","internalType":"bytes"},{"name":"refTime","type":"uint64","internalType":"uint64"},{"name":"proofSize","type":"uint64","internalType":"uint64"}],"outputs":[],"stateMutability":"nonpayable"},{"type":"function","name":"sendCrossChainNotification","inputs":[{"name":"destination","type":"bytes","internalType":"bytes"},{"name":"message","type":"bytes","internalType":"bytes"}],"outputs":[],"stateMutability":"nonpayable"},{"type":"event","name":"QuoteCostEstimated","inputs":[{"name":"caller","type":"address","indexed":true,"internalType":"address"},{"name":"refTime","type":"uint64","indexed":false,"internalType":"uint64"},{"name":"proofSize","type":"uint64","indexed":false,"internalType":"uint64"}],"anonymous":false},{"type":"event","name":"XcmExecuted","inputs":[{"name":"caller","type":"address","indexed":true,"internalType":"address"},{"name":"refTime","type":"uint64","indexed":false,"internalType":"uint64"},{"name":"proofSize","type":"uint64","indexed":false,"internalType":"uint64"}],"anonymous":false},{"type":"event","name":"XcmSent","inputs":[{"name":"caller","type":"address","indexed":true,"internalType":"address"},{"name":"destination","type":"bytes","indexed":false,"internalType":"bytes"}],"anonymous":false},{"type":"error","name":"EmptyDestination","inputs":[]},{"type":"error","name":"EmptyXcmMessage","inputs":[]}],"bytecode":{"object":"0x60808060405234601557610508908161001a8239f35b5f80fdfe608080604052600436101561001c575b50361561001a575f80fd5b005b5f905f3560e01c90816360a5c3ff14610406575080636ffac710146102b05780637d1d810f1461016a5763cedcfb9c0361000f5734610140576020366003190112610140576004356001600160401b03811161016657610080903690600401610421565b8015610157576100af91604091825193849283926347400c2360e01b845260206004850152602484019161049e565b0381620a00005afa91821561014b5780926100ec575b8251602080850151604080516001600160401b039485168152939091169183019190915290f35b9091506040823d604011610143575b816101086040938361047d565b8101031261014057506101346020604051926101238461044e565b61012c816104be565b8452016104be565b60208201525f806100c5565b80fd5b3d91506100fb565b604051903d90823e3d90fd5b6329de507d60e01b8352600483fd5b5080fd5b5034610140576040366003190112610140576004356001600160401b0381116101665761019b903690600401610421565b906024356001600160401b0381116102ac576101bb903690600401610421565b831561029d57801561028e57908491620a00003b1561027f576102139183916040519384928392637f0a3bf960e01b845260406004850152610201604485018b8b61049e565b8481036003190160248601529161049e565b038183620a00005af180156102835761026a575b50506102647f3236823f7f04a8d92d51554651ba742e0bbe7e7ec538132a2eeab0e4919fdad191604051918291602083523395602084019161049e565b0390a280f35b816102749161047d565b61027f57825f610227565b8280fd5b6040513d84823e3d90fd5b6329de507d60e01b8552600485fd5b631e86f26160e21b8552600485fd5b8380fd5b50346103f35760603660031901126103f3576004356001600160401b0381116103f3576102e1903690600401610421565b90602435916001600160401b038316908184036103f357604435926001600160401b038416918285036103f35780156103f757604051936103218561044e565b845260208401928352620a00003b156103f357610366936001600160401b035f9481604051978896879663d3b7e04d60e01b885260606004890152606488019161049e565b935116602485015251166044830152038183620a00005af180156103e8576103d1575b50604080516001600160401b03938416815292909116602083015233917f28acd9413969d099b5b8d549f643f41d7cac14bb7f22a1bb9277525a048581089181908101610264565b6103de9193505f9061047d565b5f91610264610389565b6040513d5f823e3d90fd5b5f80fd5b6329de507d60e01b5f5260045ffd5b346103f3575f3660031901126103f35780620a000060209252f35b9181601f840112156103f3578235916001600160401b0383116103f357602083818601950101116103f357565b604081019081106001600160401b0382111761046957604052565b634e487b7160e01b5f52604160045260245ffd5b90601f801991011681019081106001600160401b0382111761046957604052565b908060209392818452848401375f828201840152601f01601f1916010190565b51906001600160401b03821682036103f35756fea2646970667358221220a21d62ef274c789f824dd5982f1e94bad55874ea6592dc1a3056f23c9da77a2864736f6c634300081c0033","linkReferences":{}},"methodIdentifiers":{"XCM()":"60a5c3ff","estimateCrossChainQuoteCost(bytes)":"cedcfb9c","executeLocalXcm(bytes,uint64,uint64)":"6ffac710","sendCrossChainNotification(bytes,bytes)":"7d1d810f"},"id":21}