{"abi":[{"type":"function","name":"lastA","inputs":[],"outputs":[{"name":"","type":"uint256","internalType":"uint256"}],"stateMutability":"view"},{"type":"function","name":"lastB","inputs":[],"outputs":[{"name":"","type":"uint256","internalType":"uint256"}],"stateMutability":"view"},{"type":"function","name":"lastCallId","inputs":[],"outputs":[{"name":"","type":"bytes32","internalType":"bytes32"}],"stateMutability":"view"},{"type":"function","name":"lastResultHash","inputs":[],"outputs":[{"name":"","type":"bytes32","internalType":"bytes32"}],"stateMutability":"view"},{"type":"function","name":"receivePvmResult","inputs":[{"name":"callId","type":"bytes32","internalType":"bytes32"},{"name":"resultHash","type":"bytes32","internalType":"bytes32"},{"name":"a","type":"uint256","internalType":"uint256"},{"name":"b","type":"uint256","internalType":"uint256"}],"outputs":[],"stateMutability":"nonpayable"},{"type":"function","name":"seenCallIds","inputs":[{"name":"","type":"bytes32","internalType":"bytes32"}],"outputs":[{"name":"","type":"bool","internalType":"bool"}],"stateMutability":"view"},{"type":"event","name":"CallbackReceived","inputs":[{"name":"caller","type":"address","indexed":true,"internalType":"address"},{"name":"callId","type":"bytes32","indexed":true,"internalType":"bytes32"},{"name":"resultHash","type":"bytes32","indexed":true,"internalType":"bytes32"},{"name":"a","type":"uint256","indexed":false,"internalType":"uint256"},{"name":"b","type":"uint256","indexed":false,"internalType":"uint256"}],"anonymous":false},{"type":"error","name":"DuplicateCallId","inputs":[{"name":"callId","type":"bytes32","internalType":"bytes32"}]}],"bytecode":{"object":"0x608080604052346015576101d4908161001a8239f35b5f80fdfe6080806040526004361015610012575f80fd5b5f3560e01c908163249c8a5714610184575080632dea07ab146100e757806341cd76dd146100b95780634858628c1461009c5780635dcefbc71461007f57635e98d50c1461005e575f80fd5b3461007b575f36600319011261007b576020600354604051908152f35b5f80fd5b3461007b575f36600319011261007b576020600254604051908152f35b3461007b575f36600319011261007b576020600154604051908152f35b3461007b57602036600319011261007b576004355f525f602052602060ff60405f2054166040519015158152f35b3461007b57608036600319011261007b5760043560243590604435606435825f525f60205260ff60405f20541661017157825f525f60205260405f20600160ff198254161790558260015583600255816003558060045560405191825260208201527f55e2f8bf6327467151fedfa1c9e88f8c8e4d4faeaf07c2642ed84f8e16e6afc960403392a4005b826357f3000b60e01b5f5260045260245ffd5b3461007b575f36600319011261007b576020906004548152f3fea264697066735822122068f3829e7d53fdce09e7e381f6890f32e7fe33a973999dacad8bacc17bb63e1064736f6c634300081c0033","linkReferences":{}},"methodIdentifiers":{"lastA()":"5e98d50c","lastB()":"249c8a57","lastCallId()":"4858628c","lastResultHash()":"5dcefbc7","receivePvmResult(bytes32,bytes32,uint256,uint256)":"2dea07ab","seenCallIds(bytes32)":"41cd76dd"},"id":28}