{"abi":[{"type":"constructor","inputs":[{"name":"baseRateBps_","type":"uint256","internalType":"uint256"},{"name":"slope1Bps_","type":"uint256","internalType":"uint256"},{"name":"slope2Bps_","type":"uint256","internalType":"uint256"},{"name":"kinkBps_","type":"uint256","internalType":"uint256"},{"name":"healthyMaxLtvBps_","type":"uint256","internalType":"uint256"},{"name":"stressedMaxLtvBps_","type":"uint256","internalType":"uint256"},{"name":"healthyLiquidationThresholdBps_","type":"uint256","internalType":"uint256"},{"name":"stressedLiquidationThresholdBps_","type":"uint256","internalType":"uint256"},{"name":"staleBorrowRatePenaltyBps_","type":"uint256","internalType":"uint256"},{"name":"stressedCollateralRatioBps_","type":"uint256","internalType":"uint256"}],"stateMutability":"nonpayable"},{"type":"function","name":"baseRateBps","inputs":[],"outputs":[{"name":"","type":"uint256","internalType":"uint256"}],"stateMutability":"view"},{"type":"function","name":"healthyLiquidationThresholdBps","inputs":[],"outputs":[{"name":"","type":"uint256","internalType":"uint256"}],"stateMutability":"view"},{"type":"function","name":"healthyMaxLtvBps","inputs":[],"outputs":[{"name":"","type":"uint256","internalType":"uint256"}],"stateMutability":"view"},{"type":"function","name":"kinkBps","inputs":[],"outputs":[{"name":"","type":"uint256","internalType":"uint256"}],"stateMutability":"view"},{"type":"function","name":"quote","inputs":[{"name":"input","type":"tuple","internalType":"struct IRiskEngine.QuoteInput","components":[{"name":"utilizationBps","type":"uint256","internalType":"uint256"},{"name":"collateralRatioBps","type":"uint256","internalType":"uint256"},{"name":"oracleAgeSeconds","type":"uint256","internalType":"uint256"},{"name":"oracleFresh","type":"bool","internalType":"bool"},{"name":"policyMaxLtvBps","type":"uint256","internalType":"uint256"},{"name":"policyLiqThresholdBps","type":"uint256","internalType":"uint256"},{"name":"policyBorrowRateFloorBps","type":"uint256","internalType":"uint256"}]}],"outputs":[{"name":"output","type":"tuple","internalType":"struct IRiskEngine.QuoteOutput","components":[{"name":"borrowRateBps","type":"uint256","internalType":"uint256"},{"name":"maxLtvBps","type":"uint256","internalType":"uint256"},{"name":"liquidationThresholdBps","type":"uint256","internalType":"uint256"}]}],"stateMutability":"view"},{"type":"function","name":"slope1Bps","inputs":[],"outputs":[{"name":"","type":"uint256","internalType":"uint256"}],"stateMutability":"view"},{"type":"function","name":"slope2Bps","inputs":[],"outputs":[{"name":"","type":"uint256","internalType":"uint256"}],"stateMutability":"view"},{"type":"function","name":"staleBorrowRatePenaltyBps","inputs":[],"outputs":[{"name":"","type":"uint256","internalType":"uint256"}],"stateMutability":"view"},{"type":"function","name":"stressedCollateralRatioBps","inputs":[],"outputs":[{"name":"","type":"uint256","internalType":"uint256"}],"stateMutability":"view"},{"type":"function","name":"stressedLiquidationThresholdBps","inputs":[],"outputs":[{"name":"","type":"uint256","internalType":"uint256"}],"stateMutability":"view"},{"type":"function","name":"stressedMaxLtvBps","inputs":[],"outputs":[{"name":"","type":"uint256","internalType":"uint256"}],"stateMutability":"view"},{"type":"error","name":"InvalidBasisPoints","inputs":[]}],"bytecode":{"object":"0x6101c03461021b57601f6108f938819003918201601f19168301916001600160401b0383118484101761021f578084926101409460405283398101031261021b57805190602081015160408201516060830151608084015160a08501519160c08601519360e087015195610120610100890151980151988315801561020f575b8015610207575b80156101fb575b80156101f3575b80156101ea575b80156101e0575b80156101d5575b80156101cb575b80156101c2575b80156101b7575b6101a85760805260a05260c05260e05261010052610120526101405261016052610180526101a0526040516106c590816102348239608051818181610121015281816105d80152610666015260a05181818160e7015281816105b7015261063f015260c05181818161019501526105ff015260e05181818161027d0152610569015261010051818181610209015261047e0152610120518181816101cf01526103bb01526101405181818161024301526104a40152610160518181816102ef01526103e101526101805181818161015b01526104e701526101a0518181816102b7015261038a0152f35b63800c7e9160e01b5f5260045ffd5b506127108a106100be565b508688116100b7565b50858811156100b0565b5061271087116100a9565b50848711156100a2565b5084861161009b565b508515610094565b5061271085101561008d565b508415610086565b5061271084101561007f565b5f80fd5b634e487b7160e01b5f52604160045260245ffdfe6080806040526004361015610012575f80fd5b5f3560e01c90816305343500146102da575080632a7e9c55146102a05780633a989ce914610266578063551619571461022c5780636000b2a1146101f257806367480897146101b8578063a14195a81461017e578063a845c81c14610144578063aaa6a3911461010a578063de0e63cd146100d05763e9d7b19a14610095575f80fd5b346100cc5760e03660031901126100cc5760606100b0610333565b6040805191805183526020810151602084015201516040820152f35b5f80fd5b346100cc575f3660031901126100cc5760206040517f00000000000000000000000000000000000000000000000000000000000000008152f35b346100cc575f3660031901126100cc5760206040517f00000000000000000000000000000000000000000000000000000000000000008152f35b346100cc575f3660031901126100cc5760206040517f00000000000000000000000000000000000000000000000000000000000000008152f35b346100cc575f3660031901126100cc5760206040517f00000000000000000000000000000000000000000000000000000000000000008152f35b346100cc575f3660031901126100cc5760206040517f00000000000000000000000000000000000000000000000000000000000000008152f35b346100cc575f3660031901126100cc5760206040517f00000000000000000000000000000000000000000000000000000000000000008152f35b346100cc575f3660031901126100cc5760206040517f00000000000000000000000000000000000000000000000000000000000000008152f35b346100cc575f3660031901126100cc5760206040517f00000000000000000000000000000000000000000000000000000000000000008152f35b346100cc575f3660031901126100cc5760206040517f00000000000000000000000000000000000000000000000000000000000000008152f35b346100cc575f3660031901126100cc576020907f00000000000000000000000000000000000000000000000000000000000000008152f35b9190820180921161031f57565b634e487b7160e01b5f52601160045260245ffd5b604051906060820182811067ffffffffffffffff821117610513576040525f825260208201915f8352604081015f81528193610370600435610558565b8084526064358015908115036100cc576104da57505050507f00000000000000000000000000000000000000000000000000000000000000006024351080156104cd575b1561047c577f000000000000000000000000000000000000000000000000000000000000000060208301527f000000000000000000000000000000000000000000000000000000000000000060408301525b60843580151580610471575b610466575b5060a435602083015181118061045a575b61044f575b5060c43580151580610445575b6104415750565b8252565b508083511061043a565b60408301525f61042d565b50612710811115610428565b60208301525f610417565b506127108110610412565b7f000000000000000000000000000000000000000000000000000000000000000060208301527f00000000000000000000000000000000000000000000000000000000000000006040830152610406565b50610708604435116103b4565b5f939495509061050c84927f000000000000000000000000000000000000000000000000000000000000000090610312565b8552525290565b634e487b7160e01b5f52604160045260245ffd5b8181029291811591840414171561031f57565b8115610544570490565b634e487b7160e01b5f52601260045260245ffd5b61271081111561068a57506127105b7f0000000000000000000000000000000000000000000000000000000000000000808211156106325780820391821161031f576127100390612710821161031f5761062961062f926106246105fc7f00000000000000000000000000000000000000000000000000000000000000007f0000000000000000000000000000000000000000000000000000000000000000610312565b937f000000000000000000000000000000000000000000000000000000000000000090610527565b61053a565b90610312565b90565b6106649061062461062f937f000000000000000000000000000000000000000000000000000000000000000090610527565b7f0000000000000000000000000000000000000000000000000000000000000000610312565b61056756fea2646970667358221220464e55c04a736d0771561f5856f839e28402f7b9cc4d9acd77bc2533eae1d9e564736f6c634300081c0033","linkReferences":{}},"methodIdentifiers":{"baseRateBps()":"aaa6a391","healthyLiquidationThresholdBps()":"55161957","healthyMaxLtvBps()":"6000b2a1","kinkBps()":"3a989ce9","quote((uint256,uint256,uint256,bool,uint256,uint256,uint256))":"e9d7b19a","slope1Bps()":"de0e63cd","slope2Bps()":"a14195a8","staleBorrowRatePenaltyBps()":"a845c81c","stressedCollateralRatioBps()":"2a7e9c55","stressedLiquidationThresholdBps()":"05343500","stressedMaxLtvBps()":"67480897"},"id":32}