{"abi":[{"type":"constructor","inputs":[{"name":"authority_","type":"address","internalType":"address"},{"name":"quoteEngine_","type":"address","internalType":"address"},{"name":"config_","type":"tuple","internalType":"struct RiskAdapter.RiskModelConfig","components":[{"name":"baseRateBps","type":"uint256","internalType":"uint256"},{"name":"slope1Bps","type":"uint256","internalType":"uint256"},{"name":"slope2Bps","type":"uint256","internalType":"uint256"},{"name":"kinkBps","type":"uint256","internalType":"uint256"},{"name":"healthyMaxLtvBps","type":"uint256","internalType":"uint256"},{"name":"stressedMaxLtvBps","type":"uint256","internalType":"uint256"},{"name":"healthyLiquidationThresholdBps","type":"uint256","internalType":"uint256"},{"name":"stressedLiquidationThresholdBps","type":"uint256","internalType":"uint256"},{"name":"staleBorrowRatePenaltyBps","type":"uint256","internalType":"uint256"},{"name":"stressedCollateralRatioBps","type":"uint256","internalType":"uint256"}]}],"stateMutability":"nonpayable"},{"type":"function","name":"authority","inputs":[],"outputs":[{"name":"","type":"address","internalType":"address"}],"stateMutability":"view"},{"type":"function","name":"baseRateBps","inputs":[],"outputs":[{"name":"","type":"uint256","internalType":"uint256"}],"stateMutability":"view"},{"type":"function","name":"getQuoteTicket","inputs":[{"name":"ticketId","type":"bytes32","internalType":"bytes32"}],"outputs":[{"name":"","type":"tuple","internalType":"struct IRiskAdapter.QuoteTicket","components":[{"name":"inputHash","type":"bytes32","internalType":"bytes32"},{"name":"outputHash","type":"bytes32","internalType":"bytes32"},{"name":"oracleEpoch","type":"uint256","internalType":"uint256"},{"name":"configEpoch","type":"uint256","internalType":"uint256"},{"name":"oracleStateHash","type":"bytes32","internalType":"bytes32"},{"name":"configHash","type":"bytes32","internalType":"bytes32"},{"name":"borrowRateBps","type":"uint256","internalType":"uint256"},{"name":"maxLtvBps","type":"uint256","internalType":"uint256"},{"name":"liquidationThresholdBps","type":"uint256","internalType":"uint256"},{"name":"publishedAt","type":"uint256","internalType":"uint256"},{"name":"publisher","type":"address","internalType":"address"}]}],"stateMutability":"view"},{"type":"function","name":"healthyLiquidationThresholdBps","inputs":[],"outputs":[{"name":"","type":"uint256","internalType":"uint256"}],"stateMutability":"view"},{"type":"function","name":"healthyMaxLtvBps","inputs":[],"outputs":[{"name":"","type":"uint256","internalType":"uint256"}],"stateMutability":"view"},{"type":"function","name":"isConsumingScheduledOp","inputs":[],"outputs":[{"name":"","type":"bytes4","internalType":"bytes4"}],"stateMutability":"view"},{"type":"function","name":"kinkBps","inputs":[],"outputs":[{"name":"","type":"uint256","internalType":"uint256"}],"stateMutability":"view"},{"type":"function","name":"quote","inputs":[{"name":"input","type":"tuple","internalType":"struct IRiskEngine.QuoteInput","components":[{"name":"utilizationBps","type":"uint256","internalType":"uint256"},{"name":"collateralRatioBps","type":"uint256","internalType":"uint256"},{"name":"oracleAgeSeconds","type":"uint256","internalType":"uint256"},{"name":"oracleFresh","type":"bool","internalType":"bool"}]}],"outputs":[{"name":"","type":"tuple","internalType":"struct IRiskEngine.QuoteOutput","components":[{"name":"borrowRateBps","type":"uint256","internalType":"uint256"},{"name":"maxLtvBps","type":"uint256","internalType":"uint256"},{"name":"liquidationThresholdBps","type":"uint256","internalType":"uint256"}]}],"stateMutability":"view"},{"type":"function","name":"quoteEngine","inputs":[],"outputs":[{"name":"","type":"address","internalType":"contract IRiskEngine"}],"stateMutability":"view"},{"type":"function","name":"quoteTicketId","inputs":[{"name":"context","type":"tuple","internalType":"struct IRiskAdapter.QuoteContext","components":[{"name":"oracleEpoch","type":"uint256","internalType":"uint256"},{"name":"configEpoch","type":"uint256","internalType":"uint256"},{"name":"oracleStateHash","type":"bytes32","internalType":"bytes32"},{"name":"configHash","type":"bytes32","internalType":"bytes32"}]},{"name":"input","type":"tuple","internalType":"struct IRiskEngine.QuoteInput","components":[{"name":"utilizationBps","type":"uint256","internalType":"uint256"},{"name":"collateralRatioBps","type":"uint256","internalType":"uint256"},{"name":"oracleAgeSeconds","type":"uint256","internalType":"uint256"},{"name":"oracleFresh","type":"bool","internalType":"bool"}]}],"outputs":[{"name":"","type":"bytes32","internalType":"bytes32"}],"stateMutability":"pure"},{"type":"function","name":"quoteViaTicket","inputs":[{"name":"context","type":"tuple","internalType":"struct IRiskAdapter.QuoteContext","components":[{"name":"oracleEpoch","type":"uint256","internalType":"uint256"},{"name":"configEpoch","type":"uint256","internalType":"uint256"},{"name":"oracleStateHash","type":"bytes32","internalType":"bytes32"},{"name":"configHash","type":"bytes32","internalType":"bytes32"}]},{"name":"input","type":"tuple","internalType":"struct IRiskEngine.QuoteInput","components":[{"name":"utilizationBps","type":"uint256","internalType":"uint256"},{"name":"collateralRatioBps","type":"uint256","internalType":"uint256"},{"name":"oracleAgeSeconds","type":"uint256","internalType":"uint256"},{"name":"oracleFresh","type":"bool","internalType":"bool"}]}],"outputs":[{"name":"output","type":"tuple","internalType":"struct IRiskEngine.QuoteOutput","components":[{"name":"borrowRateBps","type":"uint256","internalType":"uint256"},{"name":"maxLtvBps","type":"uint256","internalType":"uint256"},{"name":"liquidationThresholdBps","type":"uint256","internalType":"uint256"}]}],"stateMutability":"nonpayable"},{"type":"function","name":"setAuthority","inputs":[{"name":"newAuthority","type":"address","internalType":"address"}],"outputs":[],"stateMutability":"nonpayable"},{"type":"function","name":"slope1Bps","inputs":[],"outputs":[{"name":"","type":"uint256","internalType":"uint256"}],"stateMutability":"view"},{"type":"function","name":"slope2Bps","inputs":[],"outputs":[{"name":"","type":"uint256","internalType":"uint256"}],"stateMutability":"view"},{"type":"function","name":"staleBorrowRatePenaltyBps","inputs":[],"outputs":[{"name":"","type":"uint256","internalType":"uint256"}],"stateMutability":"view"},{"type":"function","name":"stressedCollateralRatioBps","inputs":[],"outputs":[{"name":"","type":"uint256","internalType":"uint256"}],"stateMutability":"view"},{"type":"function","name":"stressedLiquidationThresholdBps","inputs":[],"outputs":[{"name":"","type":"uint256","internalType":"uint256"}],"stateMutability":"view"},{"type":"function","name":"stressedMaxLtvBps","inputs":[],"outputs":[{"name":"","type":"uint256","internalType":"uint256"}],"stateMutability":"view"},{"type":"event","name":"AuthorityUpdated","inputs":[{"name":"authority","type":"address","indexed":false,"internalType":"address"}],"anonymous":false},{"type":"event","name":"CrossVMDivergence","inputs":[{"name":"expectedBorrowRateBps","type":"uint256","indexed":false,"internalType":"uint256"},{"name":"actualBorrowRateBps","type":"uint256","indexed":false,"internalType":"uint256"},{"name":"expectedMaxLtvBps","type":"uint256","indexed":false,"internalType":"uint256"},{"name":"actualMaxLtvBps","type":"uint256","indexed":false,"internalType":"uint256"},{"name":"expectedLiquidationThresholdBps","type":"uint256","indexed":false,"internalType":"uint256"},{"name":"actualLiquidationThresholdBps","type":"uint256","indexed":false,"internalType":"uint256"}],"anonymous":false},{"type":"event","name":"QuoteTicketPublished","inputs":[{"name":"ticketId","type":"bytes32","indexed":true,"internalType":"bytes32"},{"name":"inputHash","type":"bytes32","indexed":true,"internalType":"bytes32"},{"name":"outputHash","type":"bytes32","indexed":true,"internalType":"bytes32"},{"name":"oracleEpoch","type":"uint256","indexed":false,"internalType":"uint256"},{"name":"configEpoch","type":"uint256","indexed":false,"internalType":"uint256"},{"name":"oracleStateHash","type":"bytes32","indexed":false,"internalType":"bytes32"},{"name":"configHash","type":"bytes32","indexed":false,"internalType":"bytes32"},{"name":"publisher","type":"address","indexed":false,"internalType":"address"}],"anonymous":false},{"type":"event","name":"QuoteVerified","inputs":[{"name":"ticketId","type":"bytes32","indexed":true,"internalType":"bytes32"},{"name":"reason","type":"string","indexed":false,"internalType":"string"}],"anonymous":false},{"type":"error","name":"AccessManagedInvalidAuthority","inputs":[{"name":"authority","type":"address","internalType":"address"}]},{"type":"error","name":"AccessManagedRequiredDelay","inputs":[{"name":"caller","type":"address","internalType":"address"},{"name":"delay","type":"uint32","internalType":"uint32"}]},{"type":"error","name":"AccessManagedUnauthorized","inputs":[{"name":"caller","type":"address","internalType":"address"}]},{"type":"error","name":"InvalidRiskParams","inputs":[]},{"type":"error","name":"QuoteTicketMissing","inputs":[{"name":"ticketId","type":"bytes32","internalType":"bytes32"}]}],"bytecode":{"object":"0x6101e0604052346103545760405161148838819003601f8101601f191683016001600160401b03811184821017610340578392829160405283398101039061018082126103545761004f81610358565b9061014061005f60208301610358565b93603f1901126103545760405161014081016001600160401b03811182821017610340576040526040820151815260608201516020820190815260808301516040830190815260a08401516060840190815260c0850151906080850191825260e08601519260a086019384526101008701519460c087019586526101208801519660e081019788527f2f658b440c35314f52658ea8a740e05b284cdc84dc9ae01e891f21b8933e7cad60206101606101408c01519b61010085019c8d5201519b61012084019c8d5260018060a01b03168060018060a01b03195f5416175f55604051908152a183518015908115610333575b50801561032a575b801561031d575b8015610314575b8015610309575b80156102fd575b80156102f1575b80156102e5575b80156102da575b80156102ce575b6102bf57516080525160a0525160c0525160e05251610100525161012052516101405251610160525161018052516101a0526001600160a01b03166101c05260405161111b908161036d82396080518181816102df0152818161102e01526110bc015260a05181818160fd0152818161100d0152611095015260c0518181816103550152611055015260e0518181816106e40152610fbf0152610100518181816106700152610d9101526101205181818161063601528181610d430152610e860152610140518181816106aa0152610db70152610160518181816107bf01528181610d690152610eac01526101805181818161031a01528181610df00152610eec01526101a05181818161078701528181610d120152610e5101526101c05181818161071c01526108c70152f35b6309ef3c1f60e01b5f5260045ffd5b506127108a5110610191565b50875187511061018a565b50875186511015610183565b5061271087511161017c565b50865185511015610175565b50855185511061016e565b50855115610167565b5061271085511015610160565b50845115610159565b612710915010155f610151565b634e487b7160e01b5f52604160045260245ffd5b5f80fd5b51906001600160a01b03821682036103545756fe6080806040526004361015610012575f80fd5b5f905f358060e01c91826305343500146107aa575081632a7e9c5514610770578163302160991461074b57816339d2a275146107075781633a989ce9146106cd57816355161957146106935781636000b2a114610659578163674808971461061f5781636c5d501814610486575080637a9e5e4b146103df5780638887e9c0146103bd5780638fb3603714610378578063a14195a81461033d578063a845c81c14610302578063aaa6a391146102c7578063b3ac6e8c1461014a578063bf7e214f146101235763de0e63cd146100e6575f80fd5b3461012057806003193601126101205760206040517f00000000000000000000000000000000000000000000000000000000000000008152f35b80fd5b5034610120578060031936011261012057546040516001600160a01b039091168152602090f35b50346101205760203660031901126101205760043590806101406040516101708161080b565b8281528260208201528260408201528260608201528260808201528260a08201528260c08201528260e08201528261010082015282610120820152015281815260016020526040812090604051916101c78361080b565b8054835260018101546020840190815260028201546040850190815260038301546060860190815260048401546080870190815260058501549060a0880191825260068601549260c0890193845260078701549460e08a019586526008880154966101008b019788526009890154996101208c01998b8b52600a60018060a01b03910154169a6101408d019b8c52156102b35750604080519b518c52905160208c01529051908a01525160608901525160808801525160a08701525160c08601525160e08501525161010084015251610120830152516001600160a01b03166101408201526101609150f35b63d8c4fb1960e01b815260048d9052602490fd5b503461012057806003193601126101205760206040517f00000000000000000000000000000000000000000000000000000000000000008152f35b503461012057806003193601126101205760206040517f00000000000000000000000000000000000000000000000000000000000000008152f35b503461012057806003193601126101205760206040517f00000000000000000000000000000000000000000000000000000000000000008152f35b5034610120578060031936011261012057805460a01c60ff16156103b557506020638fb3603760e01b5b6040516001600160e01b03199091168152f35b6020906103a2565b50346101205760206103d76103d1366107e2565b90610f11565b604051908152f35b5034610120576020366003190112610120576004356001600160a01b03811690818103610482578254906001600160a01b0382163303610470573b1561045c576001600160a01b031916811782556040519081527f2f658b440c35314f52658ea8a740e05b284cdc84dc9ae01e891f21b8933e7cad90602090a180f35b6361798f2f60e11b83526004829052602483fd5b62d1953b60e31b845233600452602484fd5b8280fd5b9050346105f657610496366107e2565b9190926104a161087a565b505f546001600160a01b03811692366004116105f6575f60405f80938251602081019163b700961360e01b835233602483015230604483015263ffffffff60e01b166064820152606481526104f7608482610858565b828052826020525190885afa61060c575b15610543575b61053f61051b8688610898565b60408051825181526020808401519082015291810151908201529081906060820190565b0390f35b929491939263ffffffff16156105fa5760ff60a01b1916600160a01b175f55833b156105f6575f6040518095634a63ebf760e11b8252336004830152604060248301523660448301523683606484013782606436840101528183606482601f19601f36011681010301925af19283156105eb5761053f9461051b946105d8575b5060ff60a01b1981541690559281925f61050e565b6105e491505f90610858565b5f5f6105c3565b6040513d5f823e3d90fd5b5f80fd5b62d1953b60e31b5f523360045260245ffd5b50505f516020518060201c150290610508565b346105f6575f3660031901126105f65760206040517f00000000000000000000000000000000000000000000000000000000000000008152f35b346105f6575f3660031901126105f65760206040517f00000000000000000000000000000000000000000000000000000000000000008152f35b346105f6575f3660031901126105f65760206040517f00000000000000000000000000000000000000000000000000000000000000008152f35b346105f6575f3660031901126105f65760206040517f00000000000000000000000000000000000000000000000000000000000000008152f35b346105f6575f3660031901126105f6576040517f00000000000000000000000000000000000000000000000000000000000000006001600160a01b03168152602090f35b346105f65760803660031901126105f65761076461087a565b5061053f61051b610ce5565b346105f6575f3660031901126105f65760206040517f00000000000000000000000000000000000000000000000000000000000000008152f35b346105f6575f3660031901126105f6576020907f00000000000000000000000000000000000000000000000000000000000000008152f35b90600319820161010081126105f6576080136105f657608060049260831901126105f657608490565b610160810190811067ffffffffffffffff82111761082857604052565b634e487b7160e01b5f52604160045260245ffd5b6060810190811067ffffffffffffffff82111761082857604052565b90601f8019910116810190811067ffffffffffffffff82111761082857604052565b604051906108878261083c565b5f6040838281528260208201520152565b9190916108a58382610f11565b805f52600160205260405f206009810154610c8c57506108c484610e26565b937f00000000000000000000000000000000000000000000000000000000000000006001600160a01b031680610a9b575b5061090260608201610cb7565b60405190604060208301938035855260208101358285015201356060830152151560808201526080815261093760a082610858565b519020907f227a9d26aa2a408c418953053eeb2f93a5f308a61856433ea5ec0aaf224bbab760a0865193602088019485519060408a0191825160405191602083019384526040830152606082015260608152610994608082610858565b5190209589519051915197604051936109ac8561080b565b845260208401978852604084019881358a52600a6060860195602084013587526080810192604085013584526060898301950135855260c0820195865260e0820196875261010082019081526101208201904282526101408301973389528c5f52600160205260405f2093519d8e8555519e8f600186015551998a60028601555195866003860155519687600486015551978860058601555160068501555160078401555160088301555160098201550193600180881b0390511693846bffffffffffffffffffffffff881b8254161790556040519485526020850152604084015260608301526080820152a4565b60405190633021609960e01b825282356004830152602083013560248301526040830135604483015260608301358015158091036105f657608483606093819360648301525afa5f9181610c36575b50610b4a57507fc95768bcf0a0c3222f6a6b0b53efd232c5d37a29e21ac1e24e29d0c895acb37460c0865160208801516040890151906040519283525f602084015260408301525f606083015260808201525f60a0820152a15b5f6108f5565b805190865180831480610c25575b80610c14575b15610bb557505050817f93ac32598f9f2bd75e15b7ceb9ee170c420c706623666588039b12443600004b606060405160208152600e60208201526d0c6e4dee6e65aecda5adac2e8c6d60931b6040820152a2610b44565b7fc95768bcf0a0c3222f6a6b0b53efd232c5d37a29e21ac1e24e29d0c895acb3749260c09260208a01516020820151906040808d015193015193604051958652602086015260408501526060840152608083015260a0820152a1610b44565b506040820151604089015114610b5e565b506020820151602089015114610b58565b9091506060813d606011610c84575b81610c5260609383610858565b810103126105f6576040805191610c688361083c565b805183526020810151602084015201516040820152905f610aea565b3d9150610c45565b92935050506008610c9b61087a565b9160068101548352600781015460208401520154604082015290565b3580151581036105f65790565b91908201809211610cd157565b634e487b7160e01b5f52601160045260245ffd5b610ced61087a565b610cf8600435610fae565b808252606435801590811581036105f65750610dea5750907f0000000000000000000000000000000000000000000000000000000000000000602435108015610ddd575b15610d8f577f000000000000000000000000000000000000000000000000000000000000000060208301527f00000000000000000000000000000000000000000000000000000000000000006040830152565b7f000000000000000000000000000000000000000000000000000000000000000060208301527f00000000000000000000000000000000000000000000000000000000000000006040830152565b5061070860443511610d3c565b610e15907f000000000000000000000000000000000000000000000000000000000000000090610cc4565b81525f60208201525f604082015290565b90610e2f61087a565b91610e3a8135610fae565b808452610e4960608301610cb7565b15610ee257507f0000000000000000000000000000000000000000000000000000000000000000602082013510908115610ed2575b5015610d8f577f000000000000000000000000000000000000000000000000000000000000000060208301527f00000000000000000000000000000000000000000000000000000000000000006040830152565b610708915060400135115f610e7e565b610e1591509291927f000000000000000000000000000000000000000000000000000000000000000090610cc4565b90610f1e60608201610cb7565b60408051926060602085019580358752602081013584870152838101358287015201356080850152803560a0850152602081013560c0850152013560e083015215156101008201526101008152610f7761012082610858565b51902090565b81810292918115918404141715610cd157565b8115610f9a570490565b634e487b7160e01b5f52601260045260245ffd5b6127108111156110e057506127105b7f00000000000000000000000000000000000000000000000000000000000000008082111561108857808203918211610cd15761271003906127108211610cd15761107f6110859261107a6110527f00000000000000000000000000000000000000000000000000000000000000007f0000000000000000000000000000000000000000000000000000000000000000610cc4565b937f000000000000000000000000000000000000000000000000000000000000000090610f7d565b610f90565b90610cc4565b90565b6110ba9061107a611085937f000000000000000000000000000000000000000000000000000000000000000090610f7d565b7f0000000000000000000000000000000000000000000000000000000000000000610cc4565b610fbd56fea2646970667358221220daa1596f246e5fe02af736b317fa7f74c467e436bf278953a1bc0d4bffd9319164736f6c634300081c0033","linkReferences":{}},"methodIdentifiers":{"authority()":"bf7e214f","baseRateBps()":"aaa6a391","getQuoteTicket(bytes32)":"b3ac6e8c","healthyLiquidationThresholdBps()":"55161957","healthyMaxLtvBps()":"6000b2a1","isConsumingScheduledOp()":"8fb36037","kinkBps()":"3a989ce9","quote((uint256,uint256,uint256,bool))":"30216099","quoteEngine()":"39d2a275","quoteTicketId((uint256,uint256,bytes32,bytes32),(uint256,uint256,uint256,bool))":"8887e9c0","quoteViaTicket((uint256,uint256,bytes32,bytes32),(uint256,uint256,uint256,bool))":"6c5d5018","setAuthority(address)":"7a9e5e4b","slope1Bps()":"de0e63cd","slope2Bps()":"a14195a8","staleBorrowRatePenaltyBps()":"a845c81c","stressedCollateralRatioBps()":"2a7e9c55","stressedLiquidationThresholdBps()":"05343500","stressedMaxLtvBps()":"67480897"},"id":10}