{"abi":[{"type":"constructor","inputs":[{"name":"xcmNotifier_","type":"address","internalType":"address"}],"stateMutability":"nonpayable"},{"type":"receive","stateMutability":"payable"},{"type":"function","name":"RELAY_DESTINATION","inputs":[],"outputs":[{"name":"","type":"bytes","internalType":"bytes"}],"stateMutability":"view"},{"type":"function","name":"notifyLiquidation","inputs":[{"name":"borrower","type":"address","internalType":"address"},{"name":"debtRepaid","type":"uint256","internalType":"uint256"},{"name":"collateralSeized","type":"uint256","internalType":"uint256"},{"name":"correlationId","type":"bytes32","internalType":"bytes32"}],"outputs":[],"stateMutability":"nonpayable"},{"type":"function","name":"xcmNotifier","inputs":[],"outputs":[{"name":"","type":"address","internalType":"contract XcmLiquidationNotifier"}],"stateMutability":"view"}],"bytecode":{"object":"0x60a0604052348015600e575f5ffd5b50604051610310380380610310833981016040819052602b91603b565b6001600160a01b03166080526066565b5f60208284031215604a575f5ffd5b81516001600160a01b0381168114605f575f5ffd5b9392505050565b60805161028c6100845f395f818160b6015261011e015261028c5ff3fe608060405260043610610036575f3560e01c8063ad890ab014610041578063aee1f00c14610062578063e79a69cc146100a5575f5ffd5b3661003d57005b5f5ffd5b34801561004c575f5ffd5b5061006061005b36600461018d565b6100f0565b005b34801561006d575f5ffd5b5061008f60405180604001604052806003815260200161050160f01b81525081565b60405161009c91906101fe565b60405180910390f35b3480156100b0575f5ffd5b506100d87f000000000000000000000000000000000000000000000000000000000000000081565b6040516001600160a01b03909116815260200161009c565b6040805180820182526003815261050160f01b602082015290516327b8997960e11b81526001600160a01b037f00000000000000000000000000000000000000000000000000000000000000001691634f7132f29161015a91908890889088908890600401610217565b5f604051808303815f87803b158015610171575f5ffd5b505af1158015610183573d5f5f3e3d5ffd5b5050505050505050565b5f5f5f5f608085870312156101a0575f5ffd5b84356001600160a01b03811681146101b6575f5ffd5b966020860135965060408601359560600135945092505050565b5f81518084528060208401602086015e5f602082860101526020601f19601f83011685010191505092915050565b602081525f61021060208301846101d0565b9392505050565b60a081525f61022960a08301886101d0565b6001600160a01b03969096166020830152506040810193909352606083019190915260809091015291905056fea2646970667358221220d7f8695b208b94cb764bbf97bb53c4b5e2e3e26b9dc1ee0b0a731025315ceae664736f6c634300081c0033","linkReferences":{}},"methodIdentifiers":{"RELAY_DESTINATION()":"aee1f00c","notifyLiquidation(address,uint256,uint256,bytes32)":"ad890ab0","xcmNotifier()":"e79a69cc"},"id":12}