{"abi":[{"type":"constructor","inputs":[{"name":"_wpas","type":"address","internalType":"address"},{"name":"_lendingCore","type":"address","internalType":"address"}],"stateMutability":"nonpayable"},{"type":"function","name":"depositCollateralFromPAS","inputs":[],"outputs":[],"stateMutability":"payable"},{"type":"function","name":"lendingCore","inputs":[],"outputs":[{"name":"","type":"address","internalType":"contract ILendingEngineDeposit"}],"stateMutability":"view"},{"type":"function","name":"wpas","inputs":[],"outputs":[{"name":"","type":"address","internalType":"contract IWPASDeposit"}],"stateMutability":"view"},{"type":"event","name":"DepositedCollateralFromPAS","inputs":[{"name":"depositor","type":"address","indexed":true,"internalType":"address"},{"name":"amount","type":"uint256","indexed":false,"internalType":"uint256"}],"anonymous":false},{"type":"error","name":"ReentrancyGuardReentrantCall","inputs":[]},{"type":"error","name":"SafeERC20FailedOperation","inputs":[{"name":"token","type":"address","internalType":"address"}]},{"type":"error","name":"ZeroAmount","inputs":[]}],"bytecode":{"object":"0x60c060405234801561000f575f5ffd5b5060405161050d38038061050d83398101604081905261002e91610084565b60017f9b779b17422d0df92223018b32b4d1fa46e071723d6817e2486d003becc55f00556001600160a01b039182166080521660a0526100b5565b80516001600160a01b038116811461007f575f5ffd5b919050565b5f5f60408385031215610095575f5ffd5b61009e83610069565b91506100ac60208401610069565b90509250929050565b60805160a05161041e6100ef5f395f818160a10152818161018f01526101d201525f818160520152818160f1015261016b015261041e5ff3fe608060405260043610610033575f3560e01c8063080d7f8914610037578063c0fbda9014610041578063e1b6e43c14610090575b5f5ffd5b61003f6100c3565b005b34801561004c575f5ffd5b506100747f000000000000000000000000000000000000000000000000000000000000000081565b6040516001600160a01b03909116815260200160405180910390f35b34801561009b575f5ffd5b506100747f000000000000000000000000000000000000000000000000000000000000000081565b6100cb610292565b345f036100eb57604051631f2a200560e01b815260040160405180910390fd5b5f3490507f00000000000000000000000000000000000000000000000000000000000000006001600160a01b031663d0e30db0826040518263ffffffff1660e01b81526004015f604051808303818588803b158015610148575f5ffd5b505af115801561015a573d5f5f3e3d5ffd5b506101b69350506001600160a01b037f00000000000000000000000000000000000000000000000000000000000000001691507f00000000000000000000000000000000000000000000000000000000000000009050836102c0565b604051631b0cef4360e01b8152336004820152602481018290527f00000000000000000000000000000000000000000000000000000000000000006001600160a01b031690631b0cef43906044015f604051808303815f87803b15801561021b575f5ffd5b505af115801561022d573d5f5f3e3d5ffd5b50506040518381523392507f225996f57ae32a89660e867a96ec7abc869264d4169f6a2cdee5fdb55e1390b7915060200160405180910390a25061029060017f9b779b17422d0df92223018b32b4d1fa46e071723d6817e2486d003becc55f0055565b565b61029a610344565b60027f9b779b17422d0df92223018b32b4d1fa46e071723d6817e2486d003becc55f0055565b6102cc8383835f610386565b61033f576102dd83835f6001610386565b61030a57604051635274afe760e01b81526001600160a01b03841660048201526024015b60405180910390fd5b6103178383836001610386565b61033f57604051635274afe760e01b81526001600160a01b0384166004820152602401610301565b505050565b7f9b779b17422d0df92223018b32b4d1fa46e071723d6817e2486d003becc55f005460020361029057604051633ee5aeb560e01b815260040160405180910390fd5b60405163095ea7b360e01b5f8181526001600160a01b038616600452602485905291602083604481808b5af1925060015f511483166103dc5783831516156103d0573d5f823e3d81fd5b5f873b113d1516831692505b6040525094935050505056fea26469706673582212203e84fc697fc7d7c6c7ee936fd0d7328e86bf28c0bf122e2e28fa8bbbf2d94cb464736f6c634300081c0033","linkReferences":{}},"methodIdentifiers":{"depositCollateralFromPAS()":"080d7f89","lendingCore()":"e1b6e43c","wpas()":"c0fbda90"},"id":4}