{"abi":[{"type":"constructor","inputs":[{"name":"authority_","type":"address","internalType":"address"},{"name":"quoteEngine_","type":"address","internalType":"address"},{"name":"policyStore_","type":"address","internalType":"address"},{"name":"config_","type":"tuple","internalType":"struct RiskGateway.RiskModelConfig","components":[{"name":"baseRateBps","type":"uint256","internalType":"uint256"},{"name":"slope1Bps","type":"uint256","internalType":"uint256"},{"name":"slope2Bps","type":"uint256","internalType":"uint256"},{"name":"kinkBps","type":"uint256","internalType":"uint256"},{"name":"healthyMaxLtvBps","type":"uint256","internalType":"uint256"},{"name":"stressedMaxLtvBps","type":"uint256","internalType":"uint256"},{"name":"healthyLiquidationThresholdBps","type":"uint256","internalType":"uint256"},{"name":"stressedLiquidationThresholdBps","type":"uint256","internalType":"uint256"},{"name":"staleBorrowRatePenaltyBps","type":"uint256","internalType":"uint256"},{"name":"stressedCollateralRatioBps","type":"uint256","internalType":"uint256"}]}],"stateMutability":"nonpayable"},{"type":"function","name":"POLICY_BORROW_RATE_FLOOR","inputs":[],"outputs":[{"name":"","type":"bytes32","internalType":"bytes32"}],"stateMutability":"view"},{"type":"function","name":"POLICY_LIQ_THRESHOLD","inputs":[],"outputs":[{"name":"","type":"bytes32","internalType":"bytes32"}],"stateMutability":"view"},{"type":"function","name":"POLICY_MAX_LTV","inputs":[],"outputs":[{"name":"","type":"bytes32","internalType":"bytes32"}],"stateMutability":"view"},{"type":"function","name":"authority","inputs":[],"outputs":[{"name":"","type":"address","internalType":"address"}],"stateMutability":"view"},{"type":"function","name":"baseRateBps","inputs":[],"outputs":[{"name":"","type":"uint256","internalType":"uint256"}],"stateMutability":"view"},{"type":"function","name":"getQuoteTicket","inputs":[{"name":"ticketId","type":"bytes32","internalType":"bytes32"}],"outputs":[{"name":"","type":"tuple","internalType":"struct IRiskAdapter.QuoteTicket","components":[{"name":"inputHash","type":"bytes32","internalType":"bytes32"},{"name":"outputHash","type":"bytes32","internalType":"bytes32"},{"name":"oracleEpoch","type":"uint256","internalType":"uint256"},{"name":"configEpoch","type":"uint256","internalType":"uint256"},{"name":"oracleStateHash","type":"bytes32","internalType":"bytes32"},{"name":"configHash","type":"bytes32","internalType":"bytes32"},{"name":"borrowRateBps","type":"uint256","internalType":"uint256"},{"name":"maxLtvBps","type":"uint256","internalType":"uint256"},{"name":"liquidationThresholdBps","type":"uint256","internalType":"uint256"},{"name":"publishedAt","type":"uint256","internalType":"uint256"},{"name":"publisher","type":"address","internalType":"address"}]}],"stateMutability":"view"},{"type":"function","name":"healthyLiquidationThresholdBps","inputs":[],"outputs":[{"name":"","type":"uint256","internalType":"uint256"}],"stateMutability":"view"},{"type":"function","name":"healthyMaxLtvBps","inputs":[],"outputs":[{"name":"","type":"uint256","internalType":"uint256"}],"stateMutability":"view"},{"type":"function","name":"isConsumingScheduledOp","inputs":[],"outputs":[{"name":"","type":"bytes4","internalType":"bytes4"}],"stateMutability":"view"},{"type":"function","name":"kinkBps","inputs":[],"outputs":[{"name":"","type":"uint256","internalType":"uint256"}],"stateMutability":"view"},{"type":"function","name":"policyStore","inputs":[],"outputs":[{"name":"","type":"address","internalType":"contract GovernancePolicyStore"}],"stateMutability":"view"},{"type":"function","name":"quote","inputs":[{"name":"input","type":"tuple","internalType":"struct IRiskEngine.QuoteInput","components":[{"name":"utilizationBps","type":"uint256","internalType":"uint256"},{"name":"collateralRatioBps","type":"uint256","internalType":"uint256"},{"name":"oracleAgeSeconds","type":"uint256","internalType":"uint256"},{"name":"oracleFresh","type":"bool","internalType":"bool"},{"name":"policyMaxLtvBps","type":"uint256","internalType":"uint256"},{"name":"policyLiqThresholdBps","type":"uint256","internalType":"uint256"},{"name":"policyBorrowRateFloorBps","type":"uint256","internalType":"uint256"}]}],"outputs":[{"name":"","type":"tuple","internalType":"struct IRiskEngine.QuoteOutput","components":[{"name":"borrowRateBps","type":"uint256","internalType":"uint256"},{"name":"maxLtvBps","type":"uint256","internalType":"uint256"},{"name":"liquidationThresholdBps","type":"uint256","internalType":"uint256"}]}],"stateMutability":"view"},{"type":"function","name":"quoteEngine","inputs":[],"outputs":[{"name":"","type":"address","internalType":"contract IRiskEngine"}],"stateMutability":"view"},{"type":"function","name":"quoteTicketId","inputs":[{"name":"context","type":"tuple","internalType":"struct IRiskAdapter.QuoteContext","components":[{"name":"oracleEpoch","type":"uint256","internalType":"uint256"},{"name":"configEpoch","type":"uint256","internalType":"uint256"},{"name":"oracleStateHash","type":"bytes32","internalType":"bytes32"},{"name":"configHash","type":"bytes32","internalType":"bytes32"}]},{"name":"input","type":"tuple","internalType":"struct IRiskEngine.QuoteInput","components":[{"name":"utilizationBps","type":"uint256","internalType":"uint256"},{"name":"collateralRatioBps","type":"uint256","internalType":"uint256"},{"name":"oracleAgeSeconds","type":"uint256","internalType":"uint256"},{"name":"oracleFresh","type":"bool","internalType":"bool"},{"name":"policyMaxLtvBps","type":"uint256","internalType":"uint256"},{"name":"policyLiqThresholdBps","type":"uint256","internalType":"uint256"},{"name":"policyBorrowRateFloorBps","type":"uint256","internalType":"uint256"}]}],"outputs":[{"name":"","type":"bytes32","internalType":"bytes32"}],"stateMutability":"pure"},{"type":"function","name":"quoteViaTicket","inputs":[{"name":"context","type":"tuple","internalType":"struct IRiskAdapter.QuoteContext","components":[{"name":"oracleEpoch","type":"uint256","internalType":"uint256"},{"name":"configEpoch","type":"uint256","internalType":"uint256"},{"name":"oracleStateHash","type":"bytes32","internalType":"bytes32"},{"name":"configHash","type":"bytes32","internalType":"bytes32"}]},{"name":"input","type":"tuple","internalType":"struct IRiskEngine.QuoteInput","components":[{"name":"utilizationBps","type":"uint256","internalType":"uint256"},{"name":"collateralRatioBps","type":"uint256","internalType":"uint256"},{"name":"oracleAgeSeconds","type":"uint256","internalType":"uint256"},{"name":"oracleFresh","type":"bool","internalType":"bool"},{"name":"policyMaxLtvBps","type":"uint256","internalType":"uint256"},{"name":"policyLiqThresholdBps","type":"uint256","internalType":"uint256"},{"name":"policyBorrowRateFloorBps","type":"uint256","internalType":"uint256"}]}],"outputs":[{"name":"output","type":"tuple","internalType":"struct IRiskEngine.QuoteOutput","components":[{"name":"borrowRateBps","type":"uint256","internalType":"uint256"},{"name":"maxLtvBps","type":"uint256","internalType":"uint256"},{"name":"liquidationThresholdBps","type":"uint256","internalType":"uint256"}]}],"stateMutability":"nonpayable"},{"type":"function","name":"setAuthority","inputs":[{"name":"newAuthority","type":"address","internalType":"address"}],"outputs":[],"stateMutability":"nonpayable"},{"type":"function","name":"slope1Bps","inputs":[],"outputs":[{"name":"","type":"uint256","internalType":"uint256"}],"stateMutability":"view"},{"type":"function","name":"slope2Bps","inputs":[],"outputs":[{"name":"","type":"uint256","internalType":"uint256"}],"stateMutability":"view"},{"type":"function","name":"staleBorrowRatePenaltyBps","inputs":[],"outputs":[{"name":"","type":"uint256","internalType":"uint256"}],"stateMutability":"view"},{"type":"function","name":"stressedCollateralRatioBps","inputs":[],"outputs":[{"name":"","type":"uint256","internalType":"uint256"}],"stateMutability":"view"},{"type":"function","name":"stressedLiquidationThresholdBps","inputs":[],"outputs":[{"name":"","type":"uint256","internalType":"uint256"}],"stateMutability":"view"},{"type":"function","name":"stressedMaxLtvBps","inputs":[],"outputs":[{"name":"","type":"uint256","internalType":"uint256"}],"stateMutability":"view"},{"type":"event","name":"AuthorityUpdated","inputs":[{"name":"authority","type":"address","indexed":false,"internalType":"address"}],"anonymous":false},{"type":"event","name":"QuoteTicketPublished","inputs":[{"name":"ticketId","type":"bytes32","indexed":true,"internalType":"bytes32"},{"name":"inputHash","type":"bytes32","indexed":true,"internalType":"bytes32"},{"name":"outputHash","type":"bytes32","indexed":true,"internalType":"bytes32"},{"name":"oracleEpoch","type":"uint256","indexed":false,"internalType":"uint256"},{"name":"configEpoch","type":"uint256","indexed":false,"internalType":"uint256"},{"name":"oracleStateHash","type":"bytes32","indexed":false,"internalType":"bytes32"},{"name":"configHash","type":"bytes32","indexed":false,"internalType":"bytes32"},{"name":"publisher","type":"address","indexed":false,"internalType":"address"}],"anonymous":false},{"type":"event","name":"QuoteVerified","inputs":[{"name":"ticketId","type":"bytes32","indexed":true,"internalType":"bytes32"},{"name":"reason","type":"string","indexed":false,"internalType":"string"}],"anonymous":false},{"type":"error","name":"AccessManagedInvalidAuthority","inputs":[{"name":"authority","type":"address","internalType":"address"}]},{"type":"error","name":"AccessManagedRequiredDelay","inputs":[{"name":"caller","type":"address","internalType":"address"},{"name":"delay","type":"uint32","internalType":"uint32"}]},{"type":"error","name":"AccessManagedUnauthorized","inputs":[{"name":"caller","type":"address","internalType":"address"}]},{"type":"error","name":"InvalidRiskParams","inputs":[]},{"type":"error","name":"QuoteTicketMissing","inputs":[{"name":"ticketId","type":"bytes32","internalType":"bytes32"}]}],"bytecode":{"object":"0x6102006040523461038857604051611c1a38819003601f8101601f191683016001600160401b0381118482101761037457839282916040528339810103906101a082126103885761004f8161038c565b61005b6020830161038c565b9161014061006b6040830161038c565b94605f1901126103885760405161014081016001600160401b03811182821017610374576040526060820151815260808201516020820190815260a08301516040830190815260c08401516060840190815260e085015190608085019182526101008601519260a086019384526101208701519460c087019586526101408801519660e081019788527f2f658b440c35314f52658ea8a740e05b284cdc84dc9ae01e891f21b8933e7cad60206101806101608c01519b61010085019c8d5201519b61012084019c8d5260018060a01b03168060018060a01b03195f5416175f55604051908152a183518015908115610367575b50801561035e575b8015610351575b8015610348575b801561033d575b8015610331575b8015610325575b8015610319575b801561030e575b8015610302575b6102f357516080525160a0525160c0525160e05251610100525161012052516101405251610160525161018052516101a0526001600160a01b039081166101c052166101e05260405161187990816103a182396080518181816103c10152818161172c01526117ba015260a05181818161019d0152818161170b0152611793015260c0518181816104370152611753015260e05181818161063701526116bd0152610100518181816105c101526114c80152610120518181816105860152818161118c01526115c00152610140518181816105fc01526114ee0152610160518181816108af015281816111b201526115e60152610180518181816103fc0152818161152a015261165601526101a0518181816106b70152818161115b015261158b01526101c05181818161067001526109d201526101e0518181816101fd01528181610a6d015281816111d9015261160c0152f35b6309ef3c1f60e01b5f5260045ffd5b506127108a511061019e565b508751875110610197565b50875186511015610190565b50612710875111610189565b50865185511015610182565b50855185511061017b565b50855115610174565b506127108551101561016d565b50845115610166565b612710915010155f61015e565b634e487b7160e01b5f52604160045260245ffd5b5f80fd5b51906001600160a01b03821682036103885756fe6080806040526004361015610012575f80fd5b5f905f358060e01c918263053435001461089a575081630921a91714610873578163109e43671461070257508063243882d2146106da5780632a7e9c551461069f57806339d2a2751461065a5780633a989ce91461061f57806355161957146105e45780636000b2a1146105a9578063674808971461056e5780637a9e5e4b146104c75780638436bbe21461049f5780638fb360371461045a578063a14195a81461041f578063a845c81c146103e4578063aaa6a391146103a9578063b3ac6e8c1461022c578063b9326453146101e7578063bf7e214f146101c0578063de0e63cd14610185578063e9d7b19a146101365763fb3dd8ae14610112575f80fd5b3461013357602061012b610125366108d2565b9061107d565b604051908152f35b80fd5b50346101335760e0366003190112610133575061015161096a565b5061018161015d61112e565b60408051825181526020808401519082015291810151908201529081906060820190565b0390f35b503461013357806003193601126101335760206040517f00000000000000000000000000000000000000000000000000000000000000008152f35b5034610133578060031936011261013357546040516001600160a01b039091168152602090f35b50346101335780600319360112610133576040517f00000000000000000000000000000000000000000000000000000000000000006001600160a01b03168152602090f35b5034610133576020366003190112610133576004359080610140604051610252816108fb565b8281528260208201528260408201528260608201528260808201528260a08201528260c08201528260e08201528261010082015282610120820152015281815260016020526040812090604051916102a9836108fb565b8054835260018101546020840190815260028201546040850190815260038301546060860190815260048401546080870190815260058501549060a0880191825260068601549260c0890193845260078701549460e08a019586526008880154966101008b019788526009890154996101208c01998b8b52600a60018060a01b03910154169a6101408d019b8c52156103955750604080519b518c52905160208c01529051908a01525160608901525160808801525160a08701525160c08601525160e08501525161010084015251610120830152516001600160a01b03166101408201526101609150f35b63d8c4fb1960e01b815260048d9052602490fd5b503461013357806003193601126101335760206040517f00000000000000000000000000000000000000000000000000000000000000008152f35b503461013357806003193601126101335760206040517f00000000000000000000000000000000000000000000000000000000000000008152f35b503461013357806003193601126101335760206040517f00000000000000000000000000000000000000000000000000000000000000008152f35b5034610133578060031936011261013357805460a01c60ff161561049757506020638fb3603760e01b5b6040516001600160e01b03199091168152f35b602090610484565b503461013357806003193601126101335760206040515f5160206117e45f395f51905f528152f35b5034610133576020366003190112610133576004356001600160a01b0381169081810361056a578254906001600160a01b0382163303610558573b15610544576001600160a01b031916811782556040519081527f2f658b440c35314f52658ea8a740e05b284cdc84dc9ae01e891f21b8933e7cad90602090a180f35b6361798f2f60e11b83526004829052602483fd5b62d1953b60e31b845233600452602484fd5b8280fd5b503461013357806003193601126101335760206040517f00000000000000000000000000000000000000000000000000000000000000008152f35b503461013357806003193601126101335760206040517f00000000000000000000000000000000000000000000000000000000000000008152f35b503461013357806003193601126101335760206040517f00000000000000000000000000000000000000000000000000000000000000008152f35b503461013357806003193601126101335760206040517f00000000000000000000000000000000000000000000000000000000000000008152f35b50346101335780600319360112610133576040517f00000000000000000000000000000000000000000000000000000000000000006001600160a01b03168152602090f35b503461013357806003193601126101335760206040517f00000000000000000000000000000000000000000000000000000000000000008152f35b503461013357806003193601126101335760206040515f5160206118245f395f51905f528152f35b90503461084a57610712366108d2565b91909261071d61096a565b505f546001600160a01b038116923660041161084a575f60405f80938251602081019163b700961360e01b835233602483015230604483015263ffffffff60e01b16606482015260648152610773608482610948565b828052826020525190885afa610860575b15610797575b61018161015d86886109ad565b929491939263ffffffff161561084e5760ff60a01b1916600160a01b175f55833b1561084a575f6040518095634a63ebf760e11b8252336004830152604060248301523660448301523683606484013782606436840101528183606482601f19601f36011681010301925af192831561083f576101819461015d9461082c575b5060ff60a01b1981541690559281925f61078a565b61083891505f90610948565b5f5f610817565b6040513d5f823e3d90fd5b5f80fd5b62d1953b60e31b5f523360045260245ffd5b50505f516020518060201c150290610784565b3461084a575f36600319011261084a5760206040515f5160206118045f395f51905f528152f35b3461084a575f36600319011261084a576020907f00000000000000000000000000000000000000000000000000000000000000008152f35b906003198201610160811261084a5760801361084a5760e0600492608319011261084a57608490565b610160810190811067ffffffffffffffff82111761091857604052565b634e487b7160e01b5f52604160045260245ffd5b6060810190811067ffffffffffffffff82111761091857604052565b90601f8019910116810190811067ffffffffffffffff82111761091857604052565b604051906109778261092c565b5f6040838281528260208201520152565b35801515810361084a5790565b9081602091031261084a5751801515810361084a5790565b9190916109ba838261107d565b805f52600160205260405f20600981015461105257507f00000000000000000000000000000000000000000000000000000000000000006001600160a01b0316801561104257610a0c60608601610988565b60405160e0810181811067ffffffffffffffff8211176109185760405286358152602081019060208801358252604081019360408901358552606082019315158452608082015f815260a083015f815260c08401915f835260018060a01b037f00000000000000000000000000000000000000000000000000000000000000001680610db8575b509060e494939291606097604051998a9889976374ebd8cd60e11b895251600489015251602488015251604487015251151560648601525160848501525160a48401525160c48301525afa5f9181610d62575b50610d155750610af584611560565b93817f93ac32598f9f2bd75e15b7ceb9ee170c420c706623666588039b12443600004b606060405160208152601860208201527f70766d2d756e617661696c61626c652d66616c6c6261636b00000000000000006040820152a25b610b5c60608201610988565b9060c060405191602083019381358552602082013560408501526040820135606085015215156080840152608081013560a084015260a081013582840152013560e082015260e08152610bb161010082610948565b519020907f227a9d26aa2a408c418953053eeb2f93a5f308a61856433ea5ec0aaf224bbab760a0865193602088019485519060408a0191825160405191602083019384526040830152606082015260608152610c0e608082610948565b519020958951905191519760405193610c26856108fb565b845260208401978852604084019881358a52600a6060860195602084013587526080810192604085013584526060898301950135855260c0820195865260e0820196875261010082019081526101208201904282526101408301973389528c5f52600160205260405f2093519d8e8555519e8f600186015551998a60028601555195866003860155519687600486015551978860058601555160068501555160078401555160088301555160098201550193600180881b0390511693846bffffffffffffffffffffffff881b8254161790556040519485526020850152604084015260608301526080820152a4565b93817f93ac32598f9f2bd75e15b7ceb9ee170c420c706623666588039b12443600004b606060405160208152600b60208201526a70766d2d7072696d61727960a81b6040820152a2610b50565b9091506060813d606011610db0575b81610d7e60609383610948565b8101031261084a576040805191610d948361092c565b805183526020810151602084015201516040820152905f610ae6565b3d9150610d71565b60405163048dd94960e21b81525f5160206117e45f395f51905f526004820152602081602481855afa90811561083f575f91611023575b50610fb2575b60405163048dd94960e21b81525f5160206118045f395f51905f526004820152602081602481855afa90811561083f575f91610f93575b50610f22575b60405163048dd94960e21b81525f5160206118245f395f51905f526004820152602081602481855afa90811561083f575f91610ef3575b5015610a935760206024916040519283809263a3f685f960e01b82525f5160206118245f395f51905f5260048301525afa90811561083f575f91610eb2575b50835260e4610a93565b959493929190506020863d602011610eeb575b81610ed260209383610948565b8101031261084a57945193949293919290916060610ea8565b3d9150610ec5565b610f15915060203d602011610f1b575b610f0d8183610948565b810190610995565b5f610e69565b503d610f03565b60405163a3f685f960e01b81525f5160206118045f395f51905f526004820152602081602481855afa90811561083f575f91610f61575b508352610e32565b90506020813d602011610f8b575b81610f7c60209383610948565b8101031261084a57515f610f59565b3d9150610f6f565b610fac915060203d602011610f1b57610f0d8183610948565b5f610e2c565b60405163a3f685f960e01b81525f5160206117e45f395f51905f526004820152602081602481855afa90811561083f575f91610ff1575b508252610df5565b90506020813d60201161101b575b8161100c60209383610948565b8101031261084a57515f610fe9565b3d9150610fff565b61103c915060203d602011610f1b57610f0d8183610948565b5f610def565b5061104c84611560565b93610b50565b9293505050600861106161096a565b9160068101548352600781015460208401520154604082015290565b9060c061108c60608301610988565b916040519260606020850195803587526020810135604087015260408101358287015201356080850152813560a0850152602082013583850152604082013560e08501521515610100840152608081013561012084015260a08101356101408401520135610160820152610160815261110761018082610948565b51902090565b9190820180921161111a57565b634e487b7160e01b5f52601160045260245ffd5b61113661096a565b6111416004356116ac565b8082526064358015908115810361084a57506115245750907f0000000000000000000000000000000000000000000000000000000000000000602435108015611517575b156114c6577f000000000000000000000000000000000000000000000000000000000000000060208301527f000000000000000000000000000000000000000000000000000000000000000060408301525b7f00000000000000000000000000000000000000000000000000000000000000006001600160a01b03168061120a575b50565b60405163048dd94960e21b81525f5160206117e45f395f51905f526004820152602081602481855afa90811561083f575f916114a7575b50611413575b60405163048dd94960e21b81525f5160206118045f395f51905f526004820152602081602481855afa90811561083f575f916113f4575b5061135b575b60405163048dd94960e21b81525f5160206118245f395f51905f526004820152602081602481855afa90811561083f575f9161133c575b506112c35750565b60206024916040519283809263a3f685f960e01b82525f5160206118245f395f51905f5260048301525afa90811561083f575f9161130a575b508083511015611207578252565b90506020813d602011611334575b8161132560209383610948565b8101031261084a57515f6112fc565b3d9150611318565b611355915060203d602011610f1b57610f0d8183610948565b5f6112bb565b60405163a3f685f960e01b81525f5160206118045f395f51905f526004820152602081602481855afa90811561083f575f916113c2575b5060208401518111806113b6575b6113ab575b50611284565b60408401525f6113a5565b506127108111156113a0565b90506020813d6020116113ec575b816113dd60209383610948565b8101031261084a57515f611392565b3d91506113d0565b61140d915060203d602011610f1b57610f0d8183610948565b5f61127e565b60405163a3f685f960e01b81525f5160206117e45f395f51905f526004820152602081602481855afa90811561083f575f91611475575b508015158061146a575b61145f575b50611247565b60208401525f611459565b506127108110611454565b90506020813d60201161149f575b8161149060209383610948565b8101031261084a57515f61144a565b3d9150611483565b6114c0915060203d602011610f1b57610f0d8183610948565b5f611241565b7f000000000000000000000000000000000000000000000000000000000000000060208301527f000000000000000000000000000000000000000000000000000000000000000060408301526111d7565b5061070860443511611185565b61154f907f00000000000000000000000000000000000000000000000000000000000000009061110d565b81525f60208201525f604082015290565b9061156961096a565b9161157481356116ac565b80845261158360608301610988565b1561164c57507f000000000000000000000000000000000000000000000000000000000000000060208201351090811561163c575b50156114c6577f000000000000000000000000000000000000000000000000000000000000000060208301527f000000000000000000000000000000000000000000000000000000000000000060408301527f00000000000000000000000000000000000000000000000000000000000000006001600160a01b03168061120a5750565b610708915060400135115f6115b8565b61154f91509291927f00000000000000000000000000000000000000000000000000000000000000009061110d565b8181029291811591840414171561111a57565b8115611698570490565b634e487b7160e01b5f52601260045260245ffd5b6127108111156117de57506127105b7f0000000000000000000000000000000000000000000000000000000000000000808211156117865780820391821161111a576127100390612710821161111a5761177d611783926117786117507f00000000000000000000000000000000000000000000000000000000000000007f000000000000000000000000000000000000000000000000000000000000000061110d565b937f00000000000000000000000000000000000000000000000000000000000000009061167b565b61168e565b9061110d565b90565b6117b890611778611783937f00000000000000000000000000000000000000000000000000000000000000009061167b565b7f000000000000000000000000000000000000000000000000000000000000000061110d565b6116bb56fe531661e8ada3fe2ee9240662f248fe35c9d24c0358419596dce9519fa2c8a408aabec6ae752a484f5507fd59ccfe31b616ac91ca0d04c10dee573661d01777ec8b8eb558d054159d0e962149e9849d01447daa906e7fb6d9f304b48e4df34531a2646970667358221220e8c47c1afd427a3580495787a6cde5f25124a4ce39ec32ee6df372855607aeb864736f6c634300081c0033","linkReferences":{}},"methodIdentifiers":{"POLICY_BORROW_RATE_FLOOR()":"243882d2","POLICY_LIQ_THRESHOLD()":"0921a917","POLICY_MAX_LTV()":"8436bbe2","authority()":"bf7e214f","baseRateBps()":"aaa6a391","getQuoteTicket(bytes32)":"b3ac6e8c","healthyLiquidationThresholdBps()":"55161957","healthyMaxLtvBps()":"6000b2a1","isConsumingScheduledOp()":"8fb36037","kinkBps()":"3a989ce9","policyStore()":"b9326453","quote((uint256,uint256,uint256,bool,uint256,uint256,uint256))":"e9d7b19a","quoteEngine()":"39d2a275","quoteTicketId((uint256,uint256,bytes32,bytes32),(uint256,uint256,uint256,bool,uint256,uint256,uint256))":"fb3dd8ae","quoteViaTicket((uint256,uint256,bytes32,bytes32),(uint256,uint256,uint256,bool,uint256,uint256,uint256))":"109e4367","setAuthority(address)":"7a9e5e4b","slope1Bps()":"de0e63cd","slope2Bps()":"a14195a8","staleBorrowRatePenaltyBps()":"a845c81c","stressedCollateralRatioBps()":"2a7e9c55","stressedLiquidationThresholdBps()":"05343500","stressedMaxLtvBps()":"67480897"},"id":6}