{"abi":[{"type":"constructor","inputs":[{"name":"asset_","type":"address","internalType":"contract IERC20"},{"name":"authority_","type":"address","internalType":"address"},{"name":"supplyCap_","type":"uint256","internalType":"uint256"}],"stateMutability":"nonpayable"},{"type":"function","name":"allowance","inputs":[{"name":"owner","type":"address","internalType":"address"},{"name":"spender","type":"address","internalType":"address"}],"outputs":[{"name":"","type":"uint256","internalType":"uint256"}],"stateMutability":"view"},{"type":"function","name":"approve","inputs":[{"name":"spender","type":"address","internalType":"address"},{"name":"value","type":"uint256","internalType":"uint256"}],"outputs":[{"name":"","type":"bool","internalType":"bool"}],"stateMutability":"nonpayable"},{"type":"function","name":"asset","inputs":[],"outputs":[{"name":"","type":"address","internalType":"address"}],"stateMutability":"view"},{"type":"function","name":"authority","inputs":[],"outputs":[{"name":"","type":"address","internalType":"address"}],"stateMutability":"view"},{"type":"function","name":"availableLiquidity","inputs":[],"outputs":[{"name":"","type":"uint256","internalType":"uint256"}],"stateMutability":"view"},{"type":"function","name":"balanceOf","inputs":[{"name":"account","type":"address","internalType":"address"}],"outputs":[{"name":"","type":"uint256","internalType":"uint256"}],"stateMutability":"view"},{"type":"function","name":"claimReserves","inputs":[{"name":"treasury","type":"address","internalType":"address"},{"name":"amount","type":"uint256","internalType":"uint256"}],"outputs":[],"stateMutability":"nonpayable"},{"type":"function","name":"convertToAssets","inputs":[{"name":"shares","type":"uint256","internalType":"uint256"}],"outputs":[{"name":"","type":"uint256","internalType":"uint256"}],"stateMutability":"view"},{"type":"function","name":"convertToShares","inputs":[{"name":"assets","type":"uint256","internalType":"uint256"}],"outputs":[{"name":"","type":"uint256","internalType":"uint256"}],"stateMutability":"view"},{"type":"function","name":"decimals","inputs":[],"outputs":[{"name":"","type":"uint8","internalType":"uint8"}],"stateMutability":"view"},{"type":"function","name":"deposit","inputs":[{"name":"assets","type":"uint256","internalType":"uint256"},{"name":"receiver","type":"address","internalType":"address"}],"outputs":[{"name":"","type":"uint256","internalType":"uint256"}],"stateMutability":"nonpayable"},{"type":"function","name":"drawDebt","inputs":[{"name":"receiver","type":"address","internalType":"address"},{"name":"amount","type":"uint256","internalType":"uint256"}],"outputs":[],"stateMutability":"nonpayable"},{"type":"function","name":"isConsumingScheduledOp","inputs":[],"outputs":[{"name":"","type":"bytes4","internalType":"bytes4"}],"stateMutability":"view"},{"type":"function","name":"lendingCore","inputs":[],"outputs":[{"name":"","type":"address","internalType":"address"}],"stateMutability":"view"},{"type":"function","name":"maxDeposit","inputs":[{"name":"","type":"address","internalType":"address"}],"outputs":[{"name":"","type":"uint256","internalType":"uint256"}],"stateMutability":"view"},{"type":"function","name":"maxMint","inputs":[{"name":"","type":"address","internalType":"address"}],"outputs":[{"name":"","type":"uint256","internalType":"uint256"}],"stateMutability":"view"},{"type":"function","name":"maxRedeem","inputs":[{"name":"owner","type":"address","internalType":"address"}],"outputs":[{"name":"","type":"uint256","internalType":"uint256"}],"stateMutability":"view"},{"type":"function","name":"maxWithdraw","inputs":[{"name":"owner","type":"address","internalType":"address"}],"outputs":[{"name":"","type":"uint256","internalType":"uint256"}],"stateMutability":"view"},{"type":"function","name":"migratePrincipalIn","inputs":[{"name":"principalAmount","type":"uint256","internalType":"uint256"}],"outputs":[],"stateMutability":"nonpayable"},{"type":"function","name":"migratePrincipalOut","inputs":[{"name":"principalAmount","type":"uint256","internalType":"uint256"}],"outputs":[],"stateMutability":"nonpayable"},{"type":"function","name":"mint","inputs":[{"name":"shares","type":"uint256","internalType":"uint256"},{"name":"receiver","type":"address","internalType":"address"}],"outputs":[{"name":"","type":"uint256","internalType":"uint256"}],"stateMutability":"nonpayable"},{"type":"function","name":"name","inputs":[],"outputs":[{"name":"","type":"string","internalType":"string"}],"stateMutability":"view"},{"type":"function","name":"outstandingPrincipal","inputs":[],"outputs":[{"name":"","type":"uint256","internalType":"uint256"}],"stateMutability":"view"},{"type":"function","name":"pause","inputs":[],"outputs":[],"stateMutability":"nonpayable"},{"type":"function","name":"paused","inputs":[],"outputs":[{"name":"","type":"bool","internalType":"bool"}],"stateMutability":"view"},{"type":"function","name":"previewDeposit","inputs":[{"name":"assets","type":"uint256","internalType":"uint256"}],"outputs":[{"name":"","type":"uint256","internalType":"uint256"}],"stateMutability":"view"},{"type":"function","name":"previewMint","inputs":[{"name":"shares","type":"uint256","internalType":"uint256"}],"outputs":[{"name":"","type":"uint256","internalType":"uint256"}],"stateMutability":"view"},{"type":"function","name":"previewRedeem","inputs":[{"name":"shares","type":"uint256","internalType":"uint256"}],"outputs":[{"name":"","type":"uint256","internalType":"uint256"}],"stateMutability":"view"},{"type":"function","name":"previewWithdraw","inputs":[{"name":"assets","type":"uint256","internalType":"uint256"}],"outputs":[{"name":"","type":"uint256","internalType":"uint256"}],"stateMutability":"view"},{"type":"function","name":"recordLoss","inputs":[{"name":"principalLoss","type":"uint256","internalType":"uint256"}],"outputs":[],"stateMutability":"nonpayable"},{"type":"function","name":"recordRepayment","inputs":[{"name":"principalPaid","type":"uint256","internalType":"uint256"},{"name":"interestPaid","type":"uint256","internalType":"uint256"},{"name":"reserveFactorBps","type":"uint256","internalType":"uint256"}],"outputs":[],"stateMutability":"nonpayable"},{"type":"function","name":"redeem","inputs":[{"name":"shares","type":"uint256","internalType":"uint256"},{"name":"receiver","type":"address","internalType":"address"},{"name":"owner","type":"address","internalType":"address"}],"outputs":[{"name":"","type":"uint256","internalType":"uint256"}],"stateMutability":"nonpayable"},{"type":"function","name":"reserveBalance","inputs":[],"outputs":[{"name":"","type":"uint256","internalType":"uint256"}],"stateMutability":"view"},{"type":"function","name":"setAuthority","inputs":[{"name":"newAuthority","type":"address","internalType":"address"}],"outputs":[],"stateMutability":"nonpayable"},{"type":"function","name":"setLendingCore","inputs":[{"name":"lendingCore_","type":"address","internalType":"address"}],"outputs":[],"stateMutability":"nonpayable"},{"type":"function","name":"supplyCap","inputs":[],"outputs":[{"name":"","type":"uint256","internalType":"uint256"}],"stateMutability":"view"},{"type":"function","name":"symbol","inputs":[],"outputs":[{"name":"","type":"string","internalType":"string"}],"stateMutability":"view"},{"type":"function","name":"totalAssets","inputs":[],"outputs":[{"name":"","type":"uint256","internalType":"uint256"}],"stateMutability":"view"},{"type":"function","name":"totalSupply","inputs":[],"outputs":[{"name":"","type":"uint256","internalType":"uint256"}],"stateMutability":"view"},{"type":"function","name":"transfer","inputs":[{"name":"to","type":"address","internalType":"address"},{"name":"value","type":"uint256","internalType":"uint256"}],"outputs":[{"name":"","type":"bool","internalType":"bool"}],"stateMutability":"nonpayable"},{"type":"function","name":"transferFrom","inputs":[{"name":"from","type":"address","internalType":"address"},{"name":"to","type":"address","internalType":"address"},{"name":"value","type":"uint256","internalType":"uint256"}],"outputs":[{"name":"","type":"bool","internalType":"bool"}],"stateMutability":"nonpayable"},{"type":"function","name":"unpause","inputs":[],"outputs":[],"stateMutability":"nonpayable"},{"type":"function","name":"utilizationBps","inputs":[],"outputs":[{"name":"","type":"uint256","internalType":"uint256"}],"stateMutability":"view"},{"type":"function","name":"withdraw","inputs":[{"name":"assets","type":"uint256","internalType":"uint256"},{"name":"receiver","type":"address","internalType":"address"},{"name":"owner","type":"address","internalType":"address"}],"outputs":[{"name":"","type":"uint256","internalType":"uint256"}],"stateMutability":"nonpayable"},{"type":"event","name":"Approval","inputs":[{"name":"owner","type":"address","indexed":true,"internalType":"address"},{"name":"spender","type":"address","indexed":true,"internalType":"address"},{"name":"value","type":"uint256","indexed":false,"internalType":"uint256"}],"anonymous":false},{"type":"event","name":"AuthorityUpdated","inputs":[{"name":"authority","type":"address","indexed":false,"internalType":"address"}],"anonymous":false},{"type":"event","name":"DebtDrawn","inputs":[{"name":"receiver","type":"address","indexed":true,"internalType":"address"},{"name":"amount","type":"uint256","indexed":false,"internalType":"uint256"}],"anonymous":false},{"type":"event","name":"Deposit","inputs":[{"name":"sender","type":"address","indexed":true,"internalType":"address"},{"name":"owner","type":"address","indexed":true,"internalType":"address"},{"name":"assets","type":"uint256","indexed":false,"internalType":"uint256"},{"name":"shares","type":"uint256","indexed":false,"internalType":"uint256"}],"anonymous":false},{"type":"event","name":"LendingCoreSet","inputs":[{"name":"lendingCore","type":"address","indexed":true,"internalType":"address"}],"anonymous":false},{"type":"event","name":"LossRecorded","inputs":[{"name":"principalLoss","type":"uint256","indexed":false,"internalType":"uint256"}],"anonymous":false},{"type":"event","name":"Paused","inputs":[{"name":"account","type":"address","indexed":false,"internalType":"address"}],"anonymous":false},{"type":"event","name":"PrincipalMigratedIn","inputs":[{"name":"principalAmount","type":"uint256","indexed":false,"internalType":"uint256"}],"anonymous":false},{"type":"event","name":"PrincipalMigratedOut","inputs":[{"name":"principalAmount","type":"uint256","indexed":false,"internalType":"uint256"}],"anonymous":false},{"type":"event","name":"RepaymentRecorded","inputs":[{"name":"principalPaid","type":"uint256","indexed":false,"internalType":"uint256"},{"name":"interestPaid","type":"uint256","indexed":false,"internalType":"uint256"},{"name":"reserveCut","type":"uint256","indexed":false,"internalType":"uint256"}],"anonymous":false},{"type":"event","name":"ReservesClaimed","inputs":[{"name":"treasury","type":"address","indexed":true,"internalType":"address"},{"name":"amount","type":"uint256","indexed":false,"internalType":"uint256"}],"anonymous":false},{"type":"event","name":"Transfer","inputs":[{"name":"from","type":"address","indexed":true,"internalType":"address"},{"name":"to","type":"address","indexed":true,"internalType":"address"},{"name":"value","type":"uint256","indexed":false,"internalType":"uint256"}],"anonymous":false},{"type":"event","name":"Unpaused","inputs":[{"name":"account","type":"address","indexed":false,"internalType":"address"}],"anonymous":false},{"type":"event","name":"Withdraw","inputs":[{"name":"sender","type":"address","indexed":true,"internalType":"address"},{"name":"receiver","type":"address","indexed":true,"internalType":"address"},{"name":"owner","type":"address","indexed":true,"internalType":"address"},{"name":"assets","type":"uint256","indexed":false,"internalType":"uint256"},{"name":"shares","type":"uint256","indexed":false,"internalType":"uint256"}],"anonymous":false},{"type":"error","name":"AccessManagedInvalidAuthority","inputs":[{"name":"authority","type":"address","internalType":"address"}]},{"type":"error","name":"AccessManagedRequiredDelay","inputs":[{"name":"caller","type":"address","internalType":"address"},{"name":"delay","type":"uint32","internalType":"uint32"}]},{"type":"error","name":"AccessManagedUnauthorized","inputs":[{"name":"caller","type":"address","internalType":"address"}]},{"type":"error","name":"ERC20InsufficientAllowance","inputs":[{"name":"spender","type":"address","internalType":"address"},{"name":"allowance","type":"uint256","internalType":"uint256"},{"name":"needed","type":"uint256","internalType":"uint256"}]},{"type":"error","name":"ERC20InsufficientBalance","inputs":[{"name":"sender","type":"address","internalType":"address"},{"name":"balance","type":"uint256","internalType":"uint256"},{"name":"needed","type":"uint256","internalType":"uint256"}]},{"type":"error","name":"ERC20InvalidApprover","inputs":[{"name":"approver","type":"address","internalType":"address"}]},{"type":"error","name":"ERC20InvalidReceiver","inputs":[{"name":"receiver","type":"address","internalType":"address"}]},{"type":"error","name":"ERC20InvalidSender","inputs":[{"name":"sender","type":"address","internalType":"address"}]},{"type":"error","name":"ERC20InvalidSpender","inputs":[{"name":"spender","type":"address","internalType":"address"}]},{"type":"error","name":"ERC4626ExceededMaxDeposit","inputs":[{"name":"receiver","type":"address","internalType":"address"},{"name":"assets","type":"uint256","internalType":"uint256"},{"name":"max","type":"uint256","internalType":"uint256"}]},{"type":"error","name":"ERC4626ExceededMaxMint","inputs":[{"name":"receiver","type":"address","internalType":"address"},{"name":"shares","type":"uint256","internalType":"uint256"},{"name":"max","type":"uint256","internalType":"uint256"}]},{"type":"error","name":"ERC4626ExceededMaxRedeem","inputs":[{"name":"owner","type":"address","internalType":"address"},{"name":"shares","type":"uint256","internalType":"uint256"},{"name":"max","type":"uint256","internalType":"uint256"}]},{"type":"error","name":"ERC4626ExceededMaxWithdraw","inputs":[{"name":"owner","type":"address","internalType":"address"},{"name":"assets","type":"uint256","internalType":"uint256"},{"name":"max","type":"uint256","internalType":"uint256"}]},{"type":"error","name":"EnforcedPause","inputs":[]},{"type":"error","name":"ExpectedPause","inputs":[]},{"type":"error","name":"InsufficientLiquidity","inputs":[{"name":"requested","type":"uint256","internalType":"uint256"},{"name":"available","type":"uint256","internalType":"uint256"}]},{"type":"error","name":"InvalidConfiguration","inputs":[]},{"type":"error","name":"LendingCoreAlreadySet","inputs":[]},{"type":"error","name":"OnlyLendingCore","inputs":[]},{"type":"error","name":"ReentrancyGuardReentrantCall","inputs":[]},{"type":"error","name":"SafeERC20FailedOperation","inputs":[{"name":"token","type":"address","internalType":"address"}]},{"type":"error","name":"SupplyCapExceeded","inputs":[{"name":"attempted","type":"uint256","internalType":"uint256"},{"name":"cap","type":"uint256","internalType":"uint256"}]}],"bytecode":{"object":"0x60e060405234801561000f575f5ffd5b5060405161253d38038061253d83398101604081905261002e91610263565b81836040518060400160405280601681526020017f4475616c564d205553444320506f6f6c205368617265000000000000000000008152506040518060400160405280600681526020016564765553444360d01b8152508160039081610094919061033b565b5060046100a1828261033b565b5050505f5f6100b58361014660201b60201c565b91509150816100c55760126100c7565b805b60ff1660a05250506001600160a01b03166080526100e4816101d7565b5060017f9b779b17422d0df92223018b32b4d1fa46e071723d6817e2486d003becc55f00556001600160a01b038316158061011d575080155b1561013b5760405163c52a9bd360e01b815260040160405180910390fd5b60c052506103f59050565b5f808061015260405190565b6040805160048152602481019091526020810180516001600160e01b0390811663313ce56760e01b179091529192505f9182916101929188919061022b16565b5090925090506101a183604052565b8180156101af575060203d10155b80156101bc575060ff8111155b6101c7575f5f6101cb565b6001815b94509450505050915091565b600580546001600160a01b0319166001600160a01b0383169081179091556040519081527f2f658b440c35314f52658ea8a740e05b284cdc84dc9ae01e891f21b8933e7cad9060200160405180910390a150565b5f5f5f60405f855160208701885afa92505f51915060205190509250925092565b6001600160a01b0381168114610260575f5ffd5b50565b5f5f5f60608486031215610275575f5ffd5b83516102808161024c565b60208501519093506102918161024c565b80925050604084015190509250925092565b634e487b7160e01b5f52604160045260245ffd5b600181811c908216806102cb57607f821691505b6020821081036102e957634e487b7160e01b5f52602260045260245ffd5b50919050565b601f82111561033657805f5260205f20601f840160051c810160208510156103145750805b601f840160051c820191505b81811015610333575f8155600101610320565b50505b505050565b81516001600160401b03811115610354576103546102a3565b6103688161036284546102b7565b846102ef565b6020601f82116001811461039a575f83156103835750848201515b5f19600385901b1c1916600184901b178455610333565b5f84815260208120601f198516915b828110156103c957878501518255602094850194600190920191016103a9565b50848210156103e657868401515f19600387901b60f8161c191681555b50505050600190811b01905550565b60805160a05160c0516120df61045e5f395f8181610464015281816107ef01528181610830015281816112d9015261131501525f61114f01525f818161033d01528181610740015281816108b801528181610bdf01528181611aa40152611b3801526120df5ff3fe608060405234801561000f575f5ffd5b506004361061026b575f3560e01c8063743753591161014b578063b460af94116100bf578063ce96cb7711610084578063ce96cb7714610556578063d905777e14610569578063dd62ed3e1461057c578063e1b6e43c146105b4578063ef8b30f714610543578063fe6acb1f146105c7575f5ffd5b8063b460af94146104f9578063ba0876521461050c578063bf7e214f1461051f578063c63d75b614610530578063c6e6f59214610543575f5ffd5b806394bf804d1161011057806394bf804d146104a757806395d89b41146104ba578063975e900e146104c2578063a10954fe146104ca578063a9059cbb146104d3578063b3d7f6b9146104e6575f5ffd5b8063743753591461043c5780637a9e5e4b146104445780638456cb59146104575780638f770ad01461045f5780638fb3603714610486575f5ffd5b80633f4ba83a116101e25780635c975abb116101a75780635c975abb146103b65780635ca9cf27146103c85780635e154201146103db5780636022743e146103ee5780636e553f651461040157806370a0823114610414575f5ffd5b80633f4ba83a14610375578063402d267d1461037d57806346c22429146103905780634cdad5061461029f578063529c8aac146103a3575f5ffd5b806318160ddd1161023357806318160ddd146102e857806323b872dd146102f057806323d86fb41461030357806329b1829e14610318578063313ce5671461032157806338d52e0f1461033b575f5ffd5b806301e1d1141461026f57806306fdde031461028a57806307a2d13a1461029f578063095ea7b3146102b25780630a28a477146102d5575b5f5ffd5b6102776105da565b6040519081526020015b60405180910390f35b6102926105f5565b6040516102819190611c2e565b6102776102ad366004611c63565b610685565b6102c56102c0366004611c95565b610696565b6040519015158152602001610281565b6102776102e3366004611c63565b6106ad565b600254610277565b6102c56102fe366004611cbd565b6106b9565b610316610311366004611c95565b6106de565b005b61027760075481565b6103296107cd565b60405160ff9091168152602001610281565b7f00000000000000000000000000000000000000000000000000000000000000005b6040516001600160a01b039091168152602001610281565b6103166107d6565b61027761038b366004611cf7565b6107ec565b61031661039e366004611c95565b610854565b6103166103b1366004611c63565b610917565b600554600160a81b900460ff166102c5565b6103166103d6366004611d10565b61098f565b6103166103e9366004611c63565b610a77565b6103166103fc366004611c63565b610b0b565b61027761040f366004611d39565b610b9f565b610277610422366004611cf7565b6001600160a01b03165f9081526020819052604090205490565b610277610bdb565b610316610452366004611cf7565b610c8a565b610316610d04565b6102777f000000000000000000000000000000000000000000000000000000000000000081565b61048e610d15565b6040516001600160e01b03199091168152602001610281565b6102776104b5366004611d39565b610d39565b610292610d82565b610277610d91565b61027760085481565b6102c56104e1366004611c95565b610dc6565b6102776104f4366004611c63565b610dd3565b610277610507366004611d63565b610ddf565b61027761051a366004611d63565b610e1c565b6005546001600160a01b031661035d565b61027761053e366004611cf7565b610e66565b610277610551366004611c63565b610e78565b610277610564366004611cf7565b610e83565b610277610577366004611cf7565b610e9d565b61027761058a366004611d9c565b6001600160a01b039182165f90815260016020908152604080832093909416825291909152205490565b60065461035d906001600160a01b031681565b6103166105d5366004611cf7565b610eb5565b5f6007546105e6610bdb565b6105f09190611dd8565b905090565b60606003805461060490611deb565b80601f016020809104026020016040519081016040528092919081815260200182805461063090611deb565b801561067b5780601f106106525761010080835404028352916020019161067b565b820191905f5260205f20905b81548152906001019060200180831161065e57829003601f168201915b5050505050905090565b5f610690825f610f58565b92915050565b5f336106a3818585610f90565b5060019392505050565b5f610690826001610fa2565b5f336106c6858285610fd1565b6106d185858561103a565b60019150505b9392505050565b6006546001600160a01b0316331461070957604051633f4fa30960e01b815260040160405180910390fd5b610711611097565b6107196110b2565b610722816110dd565b8060075f8282546107339190611dd8565b90915550610770905082827f00000000000000000000000000000000000000000000000000000000000000005b6001600160a01b03169190611113565b816001600160a01b03167f953585d34e25ee0d058ccd2e8c7d5a786b91c1359e1694fc1c6c93467d76c2e5826040516107ab91815260200190565b60405180910390a26107c960015f51602061208a5f395f51905f5255565b5050565b5f6105f0611148565b6107e2335b5f36611173565b6107ea61126c565b565b5f7f00000000000000000000000000000000000000000000000000000000000000006108166105da565b1061082257505f919050565b61082a6105da565b610690907f0000000000000000000000000000000000000000000000000000000000000000611e23565b61085d336107db565b610865611097565b6001600160a01b038216158061087c575060085481115b1561089a5760405163c52a9bd360e01b815260040160405180910390fd5b8060085f8282546108ab9190611e23565b909155506108dc905082827f0000000000000000000000000000000000000000000000000000000000000000610760565b816001600160a01b03167f0b097555d698b3b7a48e8755d626e78a04d9fba244db9a58722cbf27741bdb5a826040516107ab91815260200190565b6006546001600160a01b0316331461094257604051633f4fa30960e01b815260040160405180910390fd5b8060075f8282546109539190611dd8565b90915550506040518181527f6babf13de62d2da76a06bcec6e53c5e19807b9a56bed4ff572c765c3e5d9601a906020015b60405180910390a150565b6006546001600160a01b031633146109ba57604051633f4fa30960e01b815260040160405180910390fd5b6127108111806109cb575060075483115b156109e95760405163c52a9bd360e01b815260040160405180910390fd5b8260075f8282546109fa9190611e23565b909155505f9050612710610a0e8385611e36565b610a189190611e61565b90508060085f828254610a2b9190611dd8565b909155505060408051858152602081018590529081018290527fbc6967a735834262f5f48ab97d87f37ed787cff38e148bd3511b08a39208a6f29060600160405180910390a150505050565b6006546001600160a01b03163314610aa257604051633f4fa30960e01b815260040160405180910390fd5b600754811115610ac55760405163c52a9bd360e01b815260040160405180910390fd5b8060075f828254610ad69190611e23565b90915550506040518181527f6360f539412c7dbed364d8dc85a2fc76cf962184cbbffa31d1e918410cfea9ea90602001610984565b6006546001600160a01b03163314610b3657604051633f4fa30960e01b815260040160405180910390fd5b600754811115610b595760405163c52a9bd360e01b815260040160405180910390fd5b8060075f828254610b6a9190611e23565b90915550506040518181527fe9cdbf90cf9271cb882854f4919e4fc8a84f57c6b0bc2c3b5b6bf6f6b8755fa390602001610984565b5f610ba8611097565b610bb06110b2565b610bb9836112c1565b610bc38383611341565b905061069060015f51602061208a5f395f51905f5255565b5f807f00000000000000000000000000000000000000000000000000000000000000006040516370a0823160e01b81523060048201526001600160a01b0391909116906370a0823190602401602060405180830381865afa158015610c42573d5f5f3e3d5ffd5b505050506040513d601f19601f82011682018060405250810190610c669190611e74565b90506008548111610c77575f610c84565b600854610c849082611e23565b91505090565b60055433906001600160a01b03168114610cc65760405162d1953b60e31b81526001600160a01b03821660048201526024015b60405180910390fd5b816001600160a01b03163b5f03610cfb576040516361798f2f60e11b81526001600160a01b0383166004820152602401610cbd565b6107c982611395565b610d0d336107db565b6107ea6113e3565b6005545f90600160a01b900460ff16610d2d57505f90565b50638fb3603760e01b90565b5f610d42611097565b610d4a6110b2565b5f610d5484610dd3565b9050610d5f816112c1565b610d698484611426565b91505061069060015f51602061208a5f395f51905f5255565b60606004805461060490611deb565b5f5f610d9b6105da565b9050805f03610dab575f91505090565b80612710600754610dbc9190611e36565b610c849190611e61565b5f336106a381858561103a565b5f610690826001610f58565b5f610de8611097565b610df06110b2565b610df9846110dd565b610e04848484611472565b90506106d760015f51602061208a5f395f51905f5255565b5f610e25611097565b610e2d6110b2565b5f610e3785610685565b9050610e42816110dd565b610e4d8585856114c8565b9150506106d760015f51602061208a5f395f51905f5255565b5f5f610e715f6107ec565b90506106d7815b5f610690825f610fa2565b5f610690610e9083611515565b610e98610bdb565b611522565b5f610690610eaa83611531565b610e98610551610bdb565b610ebe336107db565b6001600160a01b038116610ee55760405163c52a9bd360e01b815260040160405180910390fd5b6006546001600160a01b031615610f0f5760405163dbdc816960e01b815260040160405180910390fd5b600680546001600160a01b0319166001600160a01b0383169081179091556040517f5391b0a396c45d8914973b618156a2deeacf2e9443205191414a85f2af7b0832905f90a250565b5f6106d7610f646105da565b610f6f906001611dd8565b610f7a5f600a611f6e565b600254610f879190611dd8565b8591908561154e565b610f9d8383836001611590565b505050565b5f6106d7610fb182600a611f6e565b600254610fbe9190611dd8565b610fc66105da565b610f87906001611dd8565b6001600160a01b038381165f908152600160209081526040808320938616835292905220545f19811015611034578181101561102657828183604051637dc7a0d960e11b8152600401610cbd93929190611f7c565b61103484848484035f611590565b50505050565b6001600160a01b03831661106357604051634b637e8f60e11b81525f6004820152602401610cbd565b6001600160a01b03821661108c5760405163ec442f0560e01b81525f6004820152602401610cbd565b610f9d838383611662565b61109f611775565b60025f51602061208a5f395f51905f5255565b600554600160a81b900460ff16156107ea5760405163d93c066560e01b815260040160405180910390fd5b5f6110e6610bdb565b9050808211156107c95760405163a17e11d560e01b81526004810183905260248101829052604401610cbd565b61112083838360016117a4565b610f9d57604051635274afe760e01b81526001600160a01b0384166004820152602401610cbd565b5f6105f0817f0000000000000000000000000000000000000000000000000000000000000000611f9d565b5f5f6111a761118a6005546001600160a01b031690565b863061119960045f898b611fb6565b6111a291611fdd565b611806565b91509150816112655763ffffffff811615611242576005805460ff60a01b198116600160a01b17909155604051634a63ebf760e11b81526001600160a01b03909116906394c7d7ee9061120290889088908890600401612015565b5f604051808303815f87803b158015611219575f5ffd5b505af115801561122b573d5f5f3e3d5ffd5b50506005805460ff60a01b19169055506112659050565b60405162d1953b60e31b81526001600160a01b0386166004820152602401610cbd565b5050505050565b611274611898565b6005805460ff60a81b191690557f5db9ee0a495bf2e6ff9c91a7834c1ba4fdd244a5e8aa4e537bd38aeae4b073aa335b6040516001600160a01b03909116815260200160405180910390a1565b5f816112cb6105da565b6112d59190611dd8565b90507f00000000000000000000000000000000000000000000000000000000000000008111156107c957604051634b344b1160e01b8152600481018290527f00000000000000000000000000000000000000000000000000000000000000006024820152604401610cbd565b5f5f61134c836107ec565b90508084111561137557828482604051633c8097d960e11b8152600401610cbd93929190611f7c565b5f61137f85610e78565b905061138d338587846118c2565b949350505050565b600580546001600160a01b0319166001600160a01b0383169081179091556040519081527f2f658b440c35314f52658ea8a740e05b284cdc84dc9ae01e891f21b8933e7cad90602001610984565b6113eb6110b2565b6005805460ff60a81b1916600160a81b1790557f62e78cea01bee320cd4e420270b5ea74000d11b0c9f74754ebdbfc544b05a2586112a43390565b5f5f61143183610e66565b90508084111561145a5782848260405163284ff66760e01b8152600401610cbd93929190611f7c565b5f61146485610dd3565b905061138d338583886118c2565b5f5f61147d83610e83565b9050808511156114a657828582604051633fa733bb60e21b8152600401610cbd93929190611f7c565b5f6114b0866106ad565b90506114bf3386868985611924565b95945050505050565b5f5f6114d383610e9d565b9050808511156114fc57828582604051632e52afbb60e21b8152600401610cbd93929190611f7c565b5f61150686610685565b90506114bf338686848a611924565b5f6106906102ad83610e9d565b5f8282188284100282186106d7565b6001600160a01b0381165f90815260208190526040812054610690565b5f61157b61155b836119c3565b801561157657505f848061157157611571611e4d565b868809115b151590565b6115868686866119ef565b6114bf9190611dd8565b6001600160a01b0384166115b95760405163e602df0560e01b81525f6004820152602401610cbd565b6001600160a01b0383166115e257604051634a1406b160e11b81525f6004820152602401610cbd565b6001600160a01b038085165f908152600160209081526040808320938716835292905220829055801561103457826001600160a01b0316846001600160a01b03167f8c5be1e5ebec7d5bd14f71427d1e84f3dd0314c0f7b2291e5b200ac8c7c3b9258460405161165491815260200190565b60405180910390a350505050565b6001600160a01b03831661168c578060025f8282546116819190611dd8565b909155506116e99050565b6001600160a01b0383165f90815260208190526040902054818110156116cb5783818360405163391434e360e21b8152600401610cbd93929190611f7c565b6001600160a01b0384165f9081526020819052604090209082900390555b6001600160a01b03821661170557600280548290039055611723565b6001600160a01b0382165f9081526020819052604090208054820190555b816001600160a01b0316836001600160a01b03167fddf252ad1be2c89b69c2b068fc378daa952ba7f163c4a11628f55a4df523b3ef8360405161176891815260200190565b60405180910390a3505050565b5f51602061208a5f395f51905f52546002036107ea57604051633ee5aeb560e01b815260040160405180910390fd5b60405163a9059cbb60e01b5f8181526001600160a01b038616600452602485905291602083604481808b5af1925060015f511483166117fa5783831516156117ee573d5f823e3d81fd5b5f873b113d1516831692505b60405250949350505050565b6040516001600160a01b038085166024830152831660448201526001600160e01b0319821660648201525f908190819060840160408051601f19818403018152918152602080830180516001600160e01b031663b700961360e01b1781525f808052918290528351939450919290918a5afa1561188e575f516020805191945081901c150291505b5094509492505050565b600554600160a81b900460ff166107ea57604051638dfc202b60e01b815260040160405180910390fd5b6118cc8483611a9f565b6118d68382611acb565b826001600160a01b0316846001600160a01b03167fdcbc1c05240f31ff3ad067ef1ee35ce4997762752e3a095284754544f4c709d78484604051611654929190918252602082015260400190565b826001600160a01b0316856001600160a01b03161461194857611948838683610fd1565b6119528382611aff565b61195c8483611b33565b826001600160a01b0316846001600160a01b0316866001600160a01b03167ffbde797d201c681b91056529119e0b02407c7bb96a4a2c75c01fc9667232c8db85856040516119b4929190918252602082015260400190565b60405180910390a45050505050565b5f60028260038111156119d8576119d8612054565b6119e29190612068565b60ff166001149050919050565b5f5f5f6119fc8686611b5e565b91509150815f03611a2057838181611a1657611a16611e4d565b04925050506106d7565b818411611a3757611a376003851502601118611b7a565b5f848688095f868103871696879004966002600389028118808a02820302808a02820302808a02820302808a02820302808a02820302808a02909103029181900381900460010185841190960395909502919093039390930492909217029150509392505050565b6107c97f0000000000000000000000000000000000000000000000000000000000000000833084611b8b565b6001600160a01b038216611af45760405163ec442f0560e01b81525f6004820152602401610cbd565b6107c95f8383611662565b6001600160a01b038216611b2857604051634b637e8f60e11b81525f6004820152602401610cbd565b6107c9825f83611662565b6107c97f00000000000000000000000000000000000000000000000000000000000000008383611113565b5f805f1983850993909202808410938190039390930393915050565b634e487b715f52806020526024601cfd5b611b99848484846001611bc1565b61103457604051635274afe760e01b81526001600160a01b0385166004820152602401610cbd565b6040516323b872dd60e01b5f8181526001600160a01b038781166004528616602452604485905291602083606481808c5af1925060015f51148316611c1d578383151615611c11573d5f823e3d81fd5b5f883b113d1516831692505b604052505f60605295945050505050565b602081525f82518060208401528060208501604085015e5f604082850101526040601f19601f83011684010191505092915050565b5f60208284031215611c73575f5ffd5b5035919050565b80356001600160a01b0381168114611c90575f5ffd5b919050565b5f5f60408385031215611ca6575f5ffd5b611caf83611c7a565b946020939093013593505050565b5f5f5f60608486031215611ccf575f5ffd5b611cd884611c7a565b9250611ce660208501611c7a565b929592945050506040919091013590565b5f60208284031215611d07575f5ffd5b6106d782611c7a565b5f5f5f60608486031215611d22575f5ffd5b505081359360208301359350604090920135919050565b5f5f60408385031215611d4a575f5ffd5b82359150611d5a60208401611c7a565b90509250929050565b5f5f5f60608486031215611d75575f5ffd5b83359250611d8560208501611c7a565b9150611d9360408501611c7a565b90509250925092565b5f5f60408385031215611dad575f5ffd5b611db683611c7a565b9150611d5a60208401611c7a565b634e487b7160e01b5f52601160045260245ffd5b8082018082111561069057610690611dc4565b600181811c90821680611dff57607f821691505b602082108103611e1d57634e487b7160e01b5f52602260045260245ffd5b50919050565b8181038181111561069057610690611dc4565b808202811582820484141761069057610690611dc4565b634e487b7160e01b5f52601260045260245ffd5b5f82611e6f57611e6f611e4d565b500490565b5f60208284031215611e84575f5ffd5b5051919050565b6001815b6001841115611ec657808504811115611eaa57611eaa611dc4565b6001841615611eb857908102905b60019390931c928002611e8f565b935093915050565b5f82611edc57506001610690565b81611ee857505f610690565b8160018114611efe5760028114611f0857611f24565b6001915050610690565b60ff841115611f1957611f19611dc4565b50506001821b610690565b5060208310610133831016604e8410600b8410161715611f47575081810a610690565b611f535f198484611e8b565b805f1904821115611f6657611f66611dc4565b029392505050565b5f6106d760ff841683611ece565b6001600160a01b039390931683526020830191909152604082015260600190565b60ff818116838216019081111561069057610690611dc4565b5f5f85851115611fc4575f5ffd5b83861115611fd0575f5ffd5b5050820193919092039150565b80356001600160e01b0319811690600484101561200e576001600160e01b0319600485900360031b81901b82161691505b5092915050565b6001600160a01b03841681526040602082018190528101829052818360608301375f818301606090810191909152601f909201601f1916010192915050565b634e487b7160e01b5f52602160045260245ffd5b5f60ff83168061207a5761207a611e4d565b8060ff8416069150509291505056fe9b779b17422d0df92223018b32b4d1fa46e071723d6817e2486d003becc55f00a2646970667358221220f2a52758956776c4963bf9e8ad392b4283284b80e08ff0b5f47c2ca226b0a0bd64736f6c634300081c0033","linkReferences":{}},"methodIdentifiers":{"allowance(address,address)":"dd62ed3e","approve(address,uint256)":"095ea7b3","asset()":"38d52e0f","authority()":"bf7e214f","availableLiquidity()":"74375359","balanceOf(address)":"70a08231","claimReserves(address,uint256)":"46c22429","convertToAssets(uint256)":"07a2d13a","convertToShares(uint256)":"c6e6f592","decimals()":"313ce567","deposit(uint256,address)":"6e553f65","drawDebt(address,uint256)":"23d86fb4","isConsumingScheduledOp()":"8fb36037","lendingCore()":"e1b6e43c","maxDeposit(address)":"402d267d","maxMint(address)":"c63d75b6","maxRedeem(address)":"d905777e","maxWithdraw(address)":"ce96cb77","migratePrincipalIn(uint256)":"529c8aac","migratePrincipalOut(uint256)":"5e154201","mint(uint256,address)":"94bf804d","name()":"06fdde03","outstandingPrincipal()":"29b1829e","pause()":"8456cb59","paused()":"5c975abb","previewDeposit(uint256)":"ef8b30f7","previewMint(uint256)":"b3d7f6b9","previewRedeem(uint256)":"4cdad506","previewWithdraw(uint256)":"0a28a477","recordLoss(uint256)":"6022743e","recordRepayment(uint256,uint256,uint256)":"5ca9cf27","redeem(uint256,address,address)":"ba087652","reserveBalance()":"a10954fe","setAuthority(address)":"7a9e5e4b","setLendingCore(address)":"fe6acb1f","supplyCap()":"8f770ad0","symbol()":"95d89b41","totalAssets()":"01e1d114","totalSupply()":"18160ddd","transfer(address,uint256)":"a9059cbb","transferFrom(address,address,uint256)":"23b872dd","unpause()":"3f4ba83a","utilizationBps()":"975e900e","withdraw(uint256,address,address)":"b460af94"},"id":0}