{"abi":[{"type":"constructor","inputs":[{"name":"authority_","type":"address","internalType":"address"}],"stateMutability":"nonpayable"},{"type":"function","name":"authority","inputs":[],"outputs":[{"name":"","type":"address","internalType":"address"}],"stateMutability":"view"},{"type":"function","name":"hasProcessed","inputs":[{"name":"correlationId","type":"bytes32","internalType":"bytes32"}],"outputs":[{"name":"","type":"bool","internalType":"bool"}],"stateMutability":"view"},{"type":"function","name":"isConsumingScheduledOp","inputs":[],"outputs":[{"name":"","type":"bytes4","internalType":"bytes4"}],"stateMutability":"view"},{"type":"function","name":"processed","inputs":[{"name":"","type":"bytes32","internalType":"bytes32"}],"outputs":[{"name":"","type":"bool","internalType":"bool"}],"stateMutability":"view"},{"type":"function","name":"receiveReceipt","inputs":[{"name":"correlationId","type":"bytes32","internalType":"bytes32"},{"name":"data","type":"bytes","internalType":"bytes"}],"outputs":[],"stateMutability":"nonpayable"},{"type":"function","name":"setAuthority","inputs":[{"name":"newAuthority","type":"address","internalType":"address"}],"outputs":[],"stateMutability":"nonpayable"},{"type":"event","name":"AuthorityUpdated","inputs":[{"name":"authority","type":"address","indexed":false,"internalType":"address"}],"anonymous":false},{"type":"event","name":"ReceiptReceived","inputs":[{"name":"correlationId","type":"bytes32","indexed":true,"internalType":"bytes32"},{"name":"sender","type":"address","indexed":true,"internalType":"address"},{"name":"data","type":"bytes","indexed":false,"internalType":"bytes"}],"anonymous":false},{"type":"error","name":"AccessManagedInvalidAuthority","inputs":[{"name":"authority","type":"address","internalType":"address"}]},{"type":"error","name":"AccessManagedRequiredDelay","inputs":[{"name":"caller","type":"address","internalType":"address"},{"name":"delay","type":"uint32","internalType":"uint32"}]},{"type":"error","name":"AccessManagedUnauthorized","inputs":[{"name":"caller","type":"address","internalType":"address"}]},{"type":"error","name":"DuplicateCorrelationId","inputs":[{"name":"correlationId","type":"bytes32","internalType":"bytes32"}]}],"bytecode":{"object":"0x608034609957601f61052438819003918201601f19168301916001600160401b03831184841017609d57808492602094604052833981010312609957516001600160a01b038116908190036099575f80546001600160a01b031916821790556040519081527f2f658b440c35314f52658ea8a740e05b284cdc84dc9ae01e891f21b8933e7cad90602090a160405161047290816100b28239f35b5f80fd5b634e487b7160e01b5f52604160045260245ffdfe6080806040526004361015610012575f80fd5b5f905f358060e01c918263139f973c146101d557505080637a9e5e4b1461012e5780638fb36037146100e9578063bf7e214f146100c2578063c1f0808a146100935763f41d08d714610062575f80fd5b346100905760203660031901126100905760ff60406020926004358152600184522054166040519015158152f35b80fd5b50346100905760203660031901126100905760ff60406020926004358152600184522054166040519015158152f35b5034610090578060031936011261009057546040516001600160a01b039091168152602090f35b5034610090578060031936011261009057805460a01c60ff161561012657506020638fb3603760e01b5b6040516001600160e01b03199091168152f35b602090610113565b5034610090576020366003190112610090576004356001600160a01b038116908181036101d1578254906001600160a01b03821633036101bf573b156101ab576001600160a01b031916811782556040519081527f2f658b440c35314f52658ea8a740e05b284cdc84dc9ae01e891f21b8933e7cad90602090a180f35b6361798f2f60e11b83526004829052602483fd5b62d1953b60e31b845233600452602484fd5b8280fd5b909150346103dd5760403660031901126103dd57600435906024359267ffffffffffffffff84116103dd57366023850112156103dd5783600401359167ffffffffffffffff83116103dd5736602484870101116103dd575f546001600160a01b03811692909190366004116103dd5760405f80928194602081019163b700961360e01b835233602483015230604483015263ffffffff60e01b16606482015260648152610283608482610406565b828052826020525190875afa6103f3575b15610334575b505050818452600160205260ff6040852054166103205760207fe78322cbd7212153c8ceb7aa3cc5ad329ac3e905a7a978b4968a6586641a8a3a918386526001825260408620600160ff19825416179055806024604051968488528285890152016040870137858280838801010152601f8019910116840101926020813395030190a380f35b63af74334f60e01b84526004829052602484fd5b63ffffffff16156103e15760ff60a01b1916600160a01b175f55803b156103dd575f6040518092634a63ebf760e11b825233600483015260406024830152366044830152368360648401376064368381018201859052601f01601f191683018390030190829084905af180156103d2576103bd575b50835460ff60a01b191684555f808061029a565b6103ca9194505f90610406565b5f925f6103a9565b6040513d5f823e3d90fd5b5f80fd5b62d1953b60e31b5f523360045260245ffd5b50505f516020518060201c150290610294565b90601f8019910116810190811067ffffffffffffffff82111761042857604052565b634e487b7160e01b5f52604160045260245ffdfea2646970667358221220bbbb473cd98fb4505ae062db32cbe711b5f5e36cb7daba219d6c343bfedec3a264736f6c634300081c0033","linkReferences":{}},"methodIdentifiers":{"authority()":"bf7e214f","hasProcessed(bytes32)":"f41d08d7","isConsumingScheduledOp()":"8fb36037","processed(bytes32)":"c1f0808a","receiveReceipt(bytes32,bytes)":"139f973c","setAuthority(address)":"7a9e5e4b"},"id":11}